:100000000C9446030C9468030C9468030C946803E6
:100010000C9468030C9468030C9468030C946803B4
:100020000C9468030C9468030C9468030C946803A4
:100030000C9468030C9468030C9468030C94680394
:100040000C9468030C9468030C9468030C94680384
:100050000C9468030C9468030C9468030C94680374
:100060000C9468030C94B3300C94B2310C94680374
:100070000C9468030C9468030C9468030C94680354
:100080000C94C22B0C9468030C9468030C946803C2
:100090000C948A300C9489310C9468030C94B00A47
:1000A0000C9468030C9468030C9468030C94680324
:1000B0000C9468030C9468030C9468030C94680314
:1000C0000C9468030C9468030C9468030C946130DE
:1000D0000C9460310C9468030C9438300C943731D4
:1000E0000C9468030E0BC70AC70AC70AC70AC70AD7
:1000F000C70AC70A0E0BC70AC70AC70AC70AC70A30
:10010000C70AC70A100BC70AC70AC70AC70AC70A1D
:10011000C70AC70A480BC70AC70AC70AC70AC70AD5
:10012000C70AC70A100BC70AC70AC70AC70AC70AFD
:10013000C70AC70A480BC70AC70AC70AC70AC70AB5
:10014000C70AC70A500BC70AC70AC70AC70AC70A9D
:10015000C70AC70A800BC70AC70AC70AC70AC70A5D
:10016000C70AC70AC70AC70AC70AC70AC70AC70A07
:10017000C70AC70AF60AC70AC70AC70AC70AC70AC8
:10018000C70AC70A370BC70AC70AC70AC70AC70A76
:10019000C70AC70A7D0BC70AC70AC70AC70AC70A20
:1001A000C70AC70A7D0BC70AC70AC70AC70AC70A10
:1001B000C70AC70A680BC70AC70AC70AC70AC70A15
:1001C000C70AC70A680BC70AC70AC70AC70AC70A05
:1001D000C70AC70AE10AC70AC70AC70AC70AC70A7D
:1001E000C70AC70A0A0BC70AC70AC70AC70AC70A43
:1001F000C70AC70AE10AC70AC70AC70AC70AC70A5D
:10020000C70AC70A0A0BC70AC70AC70AC70AC70A22
:10021000C70AC70A540BC70AC70AC70AC70AC70AC8
:10022000C70AC70A250BC70AC70AC70AC70AC70AE7
:10023000C70AC70A250BC70AC70AC70AC70AC70AD7
:10024000C70AC70A270BC70AC70AC70AC70AC70AC5
:10025000C70AC70A5A0BC70AC70AC70AC70AC70A82
:10026000C70AC70AF20A0D0A0A0A476F6F64627961
:10027000652E2E2E206E6F20737061636520666F71
:10028000722069646C65207461736B210D0A000D26
:100290000A0A0A48656C6C6F20576F726C64210DF6
:1002A0000A006E616E00696E660000407A10F35AB3
:1002B00000A0724E18090010A5D4E80000E87648A6
:1002C000170000E40B54020000CA9A3B000000E152
:1002D000F505000080969800000040420F000000E5
:1002E000A08601000000102700000000E8030000C5
:1002F00000006400000000000A000000000001008F
:10030000000000002C76D888DC674F0823DFC1DFAF
:10031000AE59E1B1B796E5E3E453C63AE6519976B2
:1003200096E8E6C28426EB898C9B62ED407C6FFCEC
:10033000EFBC9C9F40F2BAA56FA5F490055A2AF72E
:100340005C936B6CF9676DC11BFCE0E40D47FEF537
:1003500020E6B500D0ED902E03009435770500809F
:10036000841E080000204E0A000000C80C333333FE
:10037000330F986E12831141EF8D2114893BE6559E
:1003800016CFFEE6DB18D1844B381BF77C1D901D81
:10039000A4BBE424203284725E228100C9F124ECE3
:1003A000A1E53D27A0E0B0E0E8EDF1E00C945A357E
:1003B000E9E0CE2EAA24A39488248A94982C77244A
:1003C000739405C00F900FBEBB2009F05FC08091F1
:1003D0009D02882309F480C0809192028F5F8093F0
:1003E0009202B090E2020FB6F8940F9280919202BE
:1003F00081508093920280919202882319F7809114
:100400008C028823F9F28091D902882371F1E0915E
:10041000DE02F091DF02C681D781CE010C960E94E8
:10042000072E8E010E5F1F4FC8010E94072E9E8966
:1004300080918D02891718F490938D029E899C9D5E
:10044000C001112481569D4FB8010E94B62DE09144
:100450008A02F0918B029E8986899817A0F2A09259
:100460008E028091D902882391F680919B02882385
:1004700009F04DC080918E02813009F0A3CF0E9417
:10048000C52B0F900FBEBB2009F4A1CF0FB6F89477
:100490000F92E091E702F091E80206811781C8010E
:1004A00002960E94072E80918C02815080938C02CC
:1004B00080919D02815080939D020F900FBEF801A4
:1004C0008789908D0E94312CC8010E94312C809127
:1004D0009D02882309F080CF80919F02823008F42A
:1004E00076CF0E94C52B73CF80919B028F5F809344
:1004F0009B02DD2480918E02882309F095C0DD20C7
:1005000009F092C080919B02815080939B02809160
:100510009B02882309F4AECF80919202882321F7B1
:1005200080918F0290919002019690939002809317
:100530008F02E0908F02F0909002E114F10409F52F
:100540002091D5023091D6028091D7029091D802A5
:100550009093D6028093D5023093D8022093D7028D
:10056000809191028F5F80939102E091D502F0918A
:10057000D6028081882309F073C090923E02809257
:100580003D0280913D0290913E02E816F90608F482
:100590004EC0DD24E091D502F091D60280818823FF
:1005A000F1F1E091D502F091D6020580F681E02DBF
:1005B000C681D7818A819B81E816F90608F461C05B
:1005C0008E010E5F1F4FC8010E94072E8C899D89E6
:1005D000892B21F0CE010C960E94072E9E898091D6
:1005E0008D02891718F490938D029E899C9DC001FD
:1005F000112481569D4FB8010E94B62DE0918A02C8
:10060000F0918B029E898689981720F2DD24D3947D
:10061000E091D502F091D6028081882311F6909264
:100620003E0280923D0204C070928E026BCFDD24A8
:10063000E0918A02F0918B02868990E0FC01EE0F36
:10064000FF1FEE0FFF1FEE0FFF1FE80FF91FE15610
:10065000FD4F8081823008F44DCFDD24D3944ACF02
:10066000E091D502F091D6020580F681E02D06805A
:10067000F781E02D8281938190933E0280933D0229
:1006800080CF90933E0280933D02D2CF11241FBEB3
:10069000CFEFD1E2DEBFCDBF00E00CBF12E0A0E0A3
:1006A000B2E0E0E5FBE600E00BBF02C007900D9270
:1006B000AC36B107D9F71BBE15E1ACE6B2E001C01C
:1006C0001D92AF38B107E1F70E943B090C94A635A3
:1006D0000C9400008F938FB78F93F8948091171527
:1006E0008F5F80931715809118158F4F8093181581
:1006F000809119158F4F8093191580911A158F4F7E
:1007000080931A158F918FBF8F910895A1E1B0E06A
:10071000ECE8F3E00C9455353C017F876E876A0165
:10072000FC0117821682838181FD03C06FEF7FEF8A
:1007300071C39E012F5F3F4F398B288BF3012381BB
:10074000EE85FF8523FD859123FF8191FF87EE874D
:10075000882309F45CC3853251F4EE85FF8523FDBF
:10076000859123FF8191FF87EE87853229F490E000
:10077000B3010E941608E2CF982F10E08824992434
:100780001032B0F49B3269F09C3228F4903251F070
:10079000933271F40BC09D3239F0903349F41160FB
:1007A00028C01260146025C0186023C0106121C0E9
:1007B00017FD2AC0892F80538A3078F416FF06C0AF
:1007C000FAE09F9E902C1124980E13C03AE0839E6D
:1007D000802C1124880E10620CC09E3221F416FD6C
:1007E00016C3106406C09C3611F4106802C0983617
:1007F00059F4EE85FF8523FD959123FF9191FF87A5
:10080000EE87992309F0BCCF892F8554833020F4DB
:10081000812F8061905E07C0892F8556833008F054
:10082000A1C1812F8F7E86FD02C076E0972E6FE3F7
:10083000F62EF822953619F4F0E4FF2A07C0963612
:1008400019F420E8F22A02C091109A94F7FE0BC026
:100850003BE3391520F427E05CE3B52E0EC0B92C3C
:10086000B39427E00AC047E0491528F427E0BB24E9
:1008700047E0942E02C0292DBB24C60104969D8713
:100880008C87F6016081718182819381AE014F5F17
:100890005F4F0B2D0E940F076C010981202E33241E
:1008A00000FF04C003FD02C01DE209C0F1FE02C04A
:1008B0001BE205C0F2FC02C010E001C010E2C10161
:1008C0008C709070892BB9F1112311F483E001C071
:1008D00084E0881510F088240AC0881AF3FC07C049
:1008E00080E290E0B3010E9416088A94C9F71123B0
:1008F00029F0812F90E0B3010E94160823FE03C067
:1009000002EA12E00EC006EA12E00BC0E114F104A4
:1009100009F0805290E0B3010E9416080F5F1F4F4C
:1009200005C0EF2CFF24F0E1EF22FF24F8018491B1
:10093000882361F714C1F7FE12C0BC0C24FE04C06A
:100940008A81813309F4BA941B141CF0BB24B3943C
:100950002DC0F8E0FB1550F538E0B32E27C0F6FCAB
:1009600025C0892D90E08C159D054CF02CEFC2160A
:100970002FEFD20624F030E8F32A01C09A94992090
:1009800049F0E2E0F0E0EC0FFD1FE90DF11D808180
:100990008033A1F3F7FE0AC0B92CB394892D90E0FF
:1009A000C816D90614F0992401C09C18F7FC03C09E
:1009B00025E030E009C01C141D041CF021E030E0EB
:1009C00003C096012F5F3F4F112311F02F5F3F4F60
:1009D000992029F0892D90E00196280F391F882D44
:1009E00090E02817390714F0882401C0821A4F2C90
:1009F0005524C20189709070892B39F008C080E2BB
:100A000090E0B3010E9416088A948820C1F7112350
:100A100029F0812F90E0B3010E94160843FE07C021
:100A200008C080E390E0B3010E9416088A948820F1
:100A3000C1F7F7FE46C08601D7FE02C000E010E015
:100A400076010894E11CF11CE01AF10A41E050E043
:100A50004C0F5D1FE40EF51E26014B185108892D21
:100A600090E0AA24BB24A81AB90A5FEF0F3F15072C
:100A700029F48EE290E0B3010E941608C016D10658
:100A800034F0401651061CF4F701808101C080E368
:100A9000015010400894E11CF11C0A151B052CF0B4
:100AA00090E0B3010E941608E0CF0C151D0539F443
:100AB0009A81963318F4953311F424FE81E390E083
:100AC0004BC08A81813309F00F7E90E0B3010E9410
:100AD00016089920A1F08EE290E0B3010E9416085A
:100AE00012E0E1E0F0E0EC0FFD1FE10FF11D1F5FF0
:100AF000808190E0B3010E9416089A9491F744FC1B
:100B000003C085E690E002C085E490E0B3010E9456
:100B10001608D7FC05C0C114D10441F404FF06C077
:100B2000D094C194D108D3948DE201C08BE290E0BF
:100B3000B3010E94160880E305C08F5F26EF3FEFE8
:100B4000C20ED31E3AE0C316D104BCF790E0B30145
:100B50000E941608C601C096B3010E941608CC84F4
:100B6000DD8452C1933631F0933799F0933509F013
:100B700059C023C0F601808189835E010894A11CBD
:100B8000B11C22E030E0C20ED31E21E0E22EF12C97
:100B900012C0F601A080B18016FD03C06FEF7FEF99
:100BA00002C0692D70E022E030E0C20ED31EC50104
:100BB0000E940B087C011F7713C0F601A080B18052
:100BC00016FD03C06FEF7FEF02C0692D70E022E0D9
:100BD00030E0C20ED31EC5010E94F0077C011068F0
:100BE00013FF07C01BC080E290E0B3010E9416080B
:100BF0008A94882D90E0E816F906A8F30FC0F50155
:100C000017FD859117FF81915F0190E0B3010E946C
:100C1000160881108A940894E108F108E114F1049F
:100C200071F7F2C0943611F0993689F517FF08C0B4
:100C3000F601208131814281538184E090E00AC035
:100C4000F601808191819C01442737FD4095542F06
:100C500082E090E0C80ED91E9FE6F92EF12257FFE0
:100C600009C050954095309521953F4F4F4F5F4FAC
:100C700090E8F92ACA01B901AE014F5F5F4F2AE03F
:100C800030E00E94BA08E82EE889EE1A41C0953794
:100C900021F41F7E2AE030E01CC0197F9F3661F0EE
:100CA000903720F4983509F0B2C00FC0903739F072
:100CB000983709F0ACC004C028E030E00AC01061E9
:100CC00014FD146020E130E004C014FD166020E142
:100CD00032E017FF08C0F601608171818281938143
:100CE00044E050E008C0F60180819181BC0180E0C1
:100CF00090E042E050E0C40ED51EAE014F5F5F4F62
:100D00000E94BA08E82E5889E51A8FE7F82EF122DA
:100D1000F6FE0BC08EEFF822E91438F4F4FE07C09B
:100D2000F2FC05C09FEEF92202C01E2D01C0192D54
:100D3000F4FE0DC0FE01EE0DF11D8081803319F42B
:100D4000E9EEFE2208C01F5FF2FE05C003C08F2D32
:100D5000867809F01F5F0F2DF3FC14C0F0FE0FC062
:100D6000181510F09E2C0BC09E2C980C911A182D63
:100D700006C080E290E0B3010E9416081F5F1815BC
:100D8000C0F304C0181510F4811A01C0882404FFB0
:100D90000FC080E390E0B3010E94160802FF1DC05F
:100DA00001FD03C088E790E00EC088E590E00BC02D
:100DB000802F867891F001FF02C08BE201C080E2B3
:100DC000F7FC8DE290E0B3010E94160806C080E3B4
:100DD00090E0B3010E9416089A94E914C0F3EA94D3
:100DE000E1E0F0E0EC0FFD1FEE0DF11D808190E0E1
:100DF000B3010E941608EE2091F706C080E290E051
:100E0000B3010E9416088A948820C1F797CCF30199
:100E100066817781CB016196E2E10C9471352830CF
:100E200008F027E03327DA01990F311D87FD916023
:100E300000966105710539F432602E5F3D9330E311
:100E40002A95E1F708959F3F30F0803871056105DC
:100E500009F03C5F3C5F3D93913008F08068911D44
:100E6000DF93CF931F930F93FF92EF92192F987FE9
:100E70009695E92F96959695E90FFF27EC5FFC4F25
:100E800099273327EE24FF24A701E7010590089452
:100E9000079428F4360FE71EF81E491F511D660FF0
:100EA000771F881F991F0694A1F70590079428F4CF
:100EB000E70EF81E491F561FC11D770F881F991F87
:100EC000661F0694A1F70590079428F4F80E491FB1
:100ED000561FC71FD11D880F991F661F771F0694C5
:100EE000A1F70590079420F4490F561FC71FD81F7C
:100EF000990F661F771F881F0694A9F78491109594
:100F0000177041F0D695C79557954795F794E79494
:100F10001A95C1F7EAEAF2E06894159015913591B7
:100F20006591959105907FE27395E118F10A430B65
:100F3000560BC90BD009C0F7E10CF11E431F561F19
:100F4000C91FD01D7EF4703311F48A95E6CFE89462
:100F5000015030F0080F0AF40027021708F4202F80
:100F60002395022F7A3328F079E37D932A95E9F7C8
:100F700010C07D932A9589F60694979567953795C5
:100F800017951794E118F10A430B560BC90BD009BA
:100F900098F023957E9173957A3308F070E37C93F3
:100FA0002013B8F77E9170617D9330F0839571E3E3
:100FB0007D9370E32A95E1F71124EF90FF900F9154
:100FC0001F91CF91DF91992787FD90950895FC019E
:100FD00005900020E9F7809590958E0F9F1F08954A
:100FE000FC010590615070400110D8F780959095F4
:100FF0008E0F9F1F0895FB01DC0102C001900D922E
:1010000041505040D8F70895DC0101C06D93415024
:101010005040E0F70895FC016150704001900110CC
:10102000D8F7809590958E0F9F1F08950F931F936B
:10103000CF93DF938C01EB018B8181FF1BC082FF7B
:101040000DC02E813F818C819D812817390764F462
:10105000E881F9810193F983E88306C0E885F98581
:10106000802F1995892B31F48E819F8101969F8362
:101070008E8302C00FEF1FEFC801DF91CF911F9148
:101080000F910895AEE0B0E0E8E4F8E00C94633529
:101090000E891F8986E08C831A8309838FEF9FE76F
:1010A0009E838D839E01265E3F4FCE010196688D03
:1010B000798DA9010E9486032F813885020F131FA5
:1010C000F80110822E96E4E00C947F35AEE0B0E09B
:1010D000ECE6F8E00C9463358C0177FF02C060E029
:1010E00070E8615070407E836D831A83098386E0C7
:1010F0008C83CE010196BA01A9010E9486032D813D
:101100003E8137FD09C0EF81F8852E173F070CF4AB
:10111000F901E00FF11F10822E96E4E00C947F3568
:10112000AEE0B0E0E6E9F8E00C9463358C0177FFBF
:1011300002C060E070E8615070407E836D831A8366
:1011400009838EE08C83CE010196BA01A9010E9429
:1011500086032D813E8137FD09C0EF81F8852E176A
:101160003F070CF4F901E00FF11F10822E96E4E026
:101170000C947F35FA01AA27283051F1203181F1F2
:10118000E8946F936E7F6E5F7F4F8F4F9F4FAF4F8F
:10119000B1E03ED0B4E03CD0670F781F891F9A1FA2
:1011A000A11D680F791F8A1F911DA11D6A0F711D56
:1011B000811D911DA11D20D009F468943F912AE062
:1011C000269F11243019305D3193DEF6CF0108954A
:1011D000462F4770405D4193B3E00FD0C9F7F6CF7B
:1011E000462F4F70405D4A3318F0495D31FD405243
:1011F000419302D0A9F7EACFB4E0A69597958795D9
:1012000077956795BA95C9F70097610571050895B7
:101210009B01AC010A2E0694579547953795279563
:10122000BA95C9F7620F731F841F951FA01D0895FB
:10123000E1E0F1E08081886080836B9A6D9A089587
:10124000882361F080910201877F809302016623E9
:1012500061F07398442361F4759A089580910201B6
:101260008860809302016623A1F7739A4423A1F357
:1012700075980895FFCFAF92BF92CF92DF92EF9211
:10128000FF920F931F9380E090E040E052EC61E00A
:1012900070E02FEF30E000E410E00E945B349093A8
:1012A0000215809301158FE892E00E944A320E9455
:1012B00018090E94F7098DE799E060E072E040E0CC
:1012C00051E020E030E003E0EE24FF24CC24DD24D4
:1012D000AA24BB240E9445280E944A2986E692E05F
:1012E0000E944A3280E090E01F910F91FF90EF90B2
:1012F000DF90CF90BF90AF900895A2E0B0E0E3E818
:10130000F9E00C9463350E94EA119A8389838E0177
:101310000F5F1F4F0AC080E061E040E00E9420099B
:10132000C8016DE770E00E943A260E94B509C80125
:101330006DE770E00E943A260E94B009883291055C
:101340004CF44E970A9738F380E060E041E00E9449
:101350002009E6CF81E060E040E00E942009E0CF74
:1013600080911515909116150895A4E0B0E0EBEB6F
:10137000F9E00C94593503E015E1EE24FF24DD2457
:10138000D3944E010894811C911C23E0A22EB12C11
:10139000AC0EBD1E90ED692E81ED782ECC24C39449
:1013A0006982DA827B82CC82C40162E00E94350AC3
:1013B000C50162E00E94350AC80162E00E94800A0D
:1013C000F8018181E80EF11CD3940E5F1F4FFAE003
:1013D000DF1631F7C70169E070E00E942035709395
:1013E0001615609315152496EEE00C94753580EC77
:1013F0000E94890B08958091BC0080FDFCCF109263
:101400006E0288EF80933C0285EC8093BC000895C7
:101410008091BC0080FDFCCF10926E0288EF80931B
:101420003C0285EE8093BC000895AC018091BC0025
:1014300080FDFCCF60938902662371F020E030E0EC
:10144000F901EF58FD4FDA01A20FB31F8C91808391
:101450002F5F3F4F2617A0F310926E0288EF809304
:101460003C0285EC8093BC000895FC018091BC0097
:1014700080FDFCCF6093890280818093710280811E
:1014800080FD11C0623078F0DF01E2E7F2E06250E7
:1014900070E06D587D4F11968C9111978193119644
:1014A000E617F707C1F710926E0288EF80933C02AF
:1014B00085EA8093BC000895AC018091BC0080FD5A
:1014C000FCCF20916E0220FF19C0662381F020E03E
:1014D00030E0FA01E20FF31FD901AF58BD4F8C91F4
:1014E00080832F5F3F4F2617A0F320916E02822F3B
:1014F0008D7F80936E02822F8170089580E0089521
:10150000AC018091BC0080FDFCCF80916E02282F41
:10151000217080FF13C0662389F020E030E0FA01DB
:10152000E20FF31FD901AF58BD4F8C9180832F5F1D
:101530003F4F2617A0F320916E022170822F08954D
:1015400080916F02882319F089B189B1FDCF81E0C4
:1015500008958091BC0080FDFCCF80913C020895ED
:101560001F920F920FB60F920BB60F9211242F936A
:101570003F938F939F93AF93BF93EF93FF9380918C
:10158000B90090E0FC013897E13CF105B0F08091A2
:10159000B90080933C0285ED8093BC00FF91EF91F0
:1015A000BF91AF919F918F913F912F910F900BBE63
:1015B0000F900FBE0F901F901895EE58FF4F0C9490
:1015C0008C35809170029091BB00E82FF0E0EF58CD
:1015D000FD4F90838F5F8093700280916E028160D7
:1015E00080936E0285EC8093BC00D8CF209170026E
:1015F0008091BB00E22FF0E0EF58FD4F80832F5F1A
:101600002093700230E08091890290E001972817C2
:10161000390744F385E88093BC00C0CF1092700274
:101620009091700280918902981708F05DC0E92FAF
:10163000F0E0EF58FD4F80818093BB009F5F909357
:10164000700285E88093BC00A9CF1092700290913F
:101650007002E92FF0E0EF58FD4F80818093BB00CE
:101660009F5F9093700285EC8093BC0097CF809130
:10167000BB00E0917002F0E0EF58FD4F8083809155
:101680006E02816080936E0284ED8093BC0086CFF1
:101690008091B90080933C0285EE8093BC007ECFA0
:1016A00085EE8093BC007ACF84E080936F028093B4
:1016B000BC0074CF9091700280918902981719F143
:1016C0008091B90080933C0284E08093BC0066CF97
:1016D00080916E028460826080936E02109270022C
:1016E00085EC8093BC005ACF80916E02816080931C
:1016F0006E0284E98093BC0051CF80916E02EBCFE3
:10170000209170027FCF80916E02816080936E0283
:10171000DBCF1F93182F80916C0290916D02892B63
:10172000A9F08AB18C7F8AB98BB183608BB9109292
:10173000B9008CE28093B8001093BA008FEF8093C9
:10174000BB0084E08093BC001F91089581E060E0BD
:1017500043E00E94761190936D0280936C02009793
:1017600001F360E070E040E050E020E00E94E30E12
:10177000D8CF1F93182F80916C0290916D02892B06
:1017800069F08AB18C7F8AB91093BA008FEF809389
:10179000BB0084E08093BC001F91089581E060E06D
:1017A00043E00E94761190936D0280936C02009743
:1017B00041F360E070E040E050E020E00E94E30E82
:1017C000E0CF0FB6F8940F92FC01828D0F900FBE00
:1017D0000895FC010FB6F8940F92928D0F900FBEF2
:1017E000838D891B0895FC01828D0895FC01878DEE
:1017F0000895FC01678F0895FC0180A10895FC0104
:10180000828D90E0882309F491E0892F0895FC01EE
:10181000928D20E0838D981711F0822F089521E09A
:10182000822F0895CF93DF93EC01888199810097EF
:1018300011F00E94312CCE010E94312CDF91CF910A
:1018400008950F931F93CF93DF93562FE72FEC014B
:101850008A8D8823F1F00E811F816881798161155D
:101860007105A1F04C8D9801240F311D3F832E830B
:101870008A819B812817390710F07F836E836E81E0
:101880007F81852F9E2F50E00E94FB071F830E83D0
:1018900081E0DF91CF911F910F9108950F931F93D6
:1018A000CF93DF93FB018A01EC018A8D882319F124
:1018B0006881798161157105A1F04C8D8E819F81C0
:1018C000840F911D9F838E832A813B81821793070A
:1018D00010F07F836E836E817F81CF0150E00E9484
:1018E000FB078A8D81508A8F8D8D8F3F49F08D8DBA
:1018F0008F5F8D8F81E0DF91CF911F910F910895C0
:101900008885882331F481E0DF91CF911F910F9179
:101910000895CE0108960E94FE138823A1F30115B5
:10192000110589F381E0F8018083E5CFA5E0B0E0FF
:10193000ECE9FCE00C945735562E472E5D834C8322
:10194000A22E8C0128E0C22ED12CC80ED91E91E106
:10195000E92EF12CE00EF11E20E04E010894811CCE
:10196000911C84E0682E712C6C0E7D1EBB24BA94F1
:101970000FB6F8940F92F801828D882309F0ECC01D
:101980008C819D81892B09F41CC1222309F4D5C0C7
:101990000F900FBE0E94E4110FB6F8940F92F80159
:1019A000858D8F3F09F4C7C0F801868D8F3F09F4FC
:1019B000C0C00F900FBEC401B3010E94091288235A
:1019C00009F007C10FB6F8940F92F801828D0F90BD
:1019D0000FBE882309F05FC0F80180819181892BB7
:1019E00009F4AFC06C817D81C7010E94E8150FB674
:1019F000F8940F92F801868D18164CF019C0F80172
:101A0000868D8150868F868D181694F4F801818911
:101A1000882371F0C7010E94FE13882381F30E947E
:101A20004812F801868D8150868F868D181674F3C2
:101A3000F801B68E0F900FBE0FB6F8940F92F80112
:101A4000858D18164CF019C0F801858D8150858F51
:101A5000858D181694F4F8018085882371F0C601ED
:101A60000E94FE13882381F30E944812F801858D9D
:101A70008150858F858D181674F3F801B58E0F90FF
:101A80000FBE0E94FE16882311F021E071CF0E9444
:101A9000C52B21E06DCF0FB6F8940F92F801868D1B
:101AA00018164CF019C0F801868D8150868F868DEE
:101AB000181694F4F8018189882371F0C7010E94F7
:101AC000FE13882381F30E944812F801868D81500D
:101AD000868F868D181674F3F801B68E0F900FBEA0
:101AE0000FB6F8940F92F801858D18164CF019C0B6
:101AF000F801858D8150858F858D181694F4F80135
:101B00008085882371F0C6010E94FE13882381F32B
:101B10000E944812F801858D8150858F858D181699
:101B200074F3F801B58E0F900FBE0E94FE1621E0EF
:101B30001FCF168E3ECF158E37CFC4010E94FE11E7
:101B400027CF0FB6F8940F92F801828193810E94FB
:101B500076130F900FBE46CF86809780608171818B
:101B600061157105A1F0448D9401240F311D378357
:101B70002683828193812817390708F08CC0F801E9
:101B800066817781852D942D50E00E94FB07AA2065
:101B900009F073C0F801828D8150828F808191811C
:101BA000892B09F481C0F8018085882309F46BC072
:101BB000C6010E94FE13813009F065C00E94C52B4A
:101BC00062C00F900FBE80E02596E0E10C94733563
:101BD00071C00FB6F8940F92F801868D18164CF06C
:101BE00019C0F801868D8150868F868D181694F461
:101BF000F8018189882371F0C7010E94FE138823B0
:101C000081F30E944812F801868D8150868F868D5F
:101C1000181674F38FEFF801868F0F900FBE0FB672
:101C2000F8940F92F801858D18164CF019C0F80140
:101C3000858D8150858F858D181694F4F8018085E7
:101C4000882371F0C6010E94FE13882381F30E944D
:101C50004812F801858D8150858F858D181674F393
:101C60008FEFF801858F0F900FBE0E94FE1680E067
:101C70002596E0E10C9473351DC0F80197828682A9
:101C80008189882359F40F900FBE81E02596E0E109
:101C90000C9473350FC07783668371CFC7010E94A0
:101CA000FE13882381F38ACF0E942613F8019383C1
:101CB000828379CFEF92FF921F93CF93DF937A01C4
:101CC000122FEC019A8D8B8D981748F0223039F045
:101CD00080E0DF91CF911F91FF90EF9008954C8DA0
:101CE0004423A9F488819981892B09F465C08A8DE0
:101CF0008F5F8A8F8E8D8F3F89F18E8D8F5F8E8F54
:101D000081E0DF91CF911F91FF90EF900895112313
:101D100079F18E819F8150E00E94FB078C8D90E0CD
:101D200044275527481B590B8E819F81840F951F8F
:101D30009F838E83288139818217930730F48A81AB
:101D40009B81840F951F9F838E83123081F68A8D2D
:101D5000882369F28A8D81508A8FC9CF8989882327
:101D6000F1F481E0DF91CF911F91FF90EF90089502
:101D70008C819D8150E00E94FB078C8D2C813D81E0
:101D8000280F311D3D832C838A819B8128173907B9
:101D900008F4ADCF888199819D838C83A8CFCE0133
:101DA00041960E94FE138823E1F2E114F104C9F286
:101DB00081E0F7018083A5CF8A819B810E94441333
:101DC0001B821A8294CFA5E0B0E0E9EEFEE00C940D
:101DD0005735562E472E5D834C83B22E8C0158E02A
:101DE000E52EF12CE80EF91E41E1C42ED12CC80ECF
:101DF000D91E20E04E010894811C911C34E0632E12
:101E0000712C6C0E7D1EAA24AA940FB6F8940F9222
:101E1000F801928D838D981708F4E0C0F2E0BF16A8
:101E200009F4DCC08C819D81892B09F41EC1222319
:101E300009F478C00F900FBE0E94E4110FB6F89419
:101E40000F92F801858D8F3F09F46AC0F801868DE5
:101E50008F3F09F463C00F900FBEC401B3010E940D
:101E60000912882309F009C10FB6F8940F92F801FE
:101E7000928D0F900FBEF801838D981709F456C00C
:101E80000FB6F8940F92F801868D18164CF019C011
:101E9000F801868D8150868F868D181694F4F8018E
:101EA0008189882371F0C6010E94FE13882381F383
:101EB0000E944812F801868D8150868F868D1816F3
:101EC00074F3F801A68E0F900FBE0FB6F8940F9220
:101ED000F801858D18164CF019C0F801858D8150D8
:101EE000858F858D181694F4F8018085882371F00C
:101EF000C7010E94FE13882381F30E944812F80153
:101F0000858D8150858F858D181674F3F801A58E07
:101F10000F900FBE0E94FE1621E077CF168E9BCF4A
:101F2000158E94CFC4010E94FE1184CF6C817D81F7
:101F3000C7010E94E8150FB6F8940F92F801868D3C
:101F400018164CF019C0F801868D8150868F868D49
:101F5000181694F4F8018189882371F0C6010E9453
:101F6000FE13882381F30E944812F801868D815068
:101F7000868F868D181674F3F801A68E0F900FBE0B
:101F80000FB6F8940F92F801858D18164CF019C011
:101F9000F801858D8150858F858D181694F4F80190
:101FA0008085882371F0C7010E94FE13882381F386
:101FB0000E944812F801858D8150858F858D1816F5
:101FC00074F3F801A58E0F900FBE0E94FE168823B1
:101FD00009F0A2CF0E94C52B21E017CFF801448D54
:101FE0004423A9F480819181892B09F4BEC0F801B2
:101FF000828D8F5F828F8189882309F0ADC00F9019
:102000000FBE81E02596E0E10C947335B6C0BB208D
:1020100009F487C0F80186819781652D742D50E001
:102020000E94FB07F801848D90E044275527481B48
:10203000590B86819781840F951F97838683208112
:1020400031818217930730F482819381840F951F29
:1020500097838683F2E0BF1651F6F801828D8823BC
:1020600031F2828D8150828FC2CF0F900FBE80E0FF
:102070002596E0E10C94733580C00FB6F8940F926A
:10208000F801868D18164CF019C0F801868D815024
:10209000868F868D181694F4F8018189882371F053
:1020A000C6010E94FE13882381F30E944812F801A2
:1020B000868D8150868F868D181674F38FEFF80108
:1020C000868F0F900FBE0FB6F8940F92F801858D92
:1020D00018164CF019C0F801858D8150858F858DBB
:1020E000181694F4F8018085882371F0C7010E94C6
:1020F000FE13882381F30E944812F801858D8150D8
:10210000858F858D181674F38FEFF801858F0F90EA
:102110000FBE0E94FE1680E02596E0E10C94733518
:102120002CC0F80184819581652D742D50E00E94AA
:10213000FB07F801848D24813581280F311D3583FB
:102140002483828193812817390708F450CF808136
:102150009181958384834BCFC6010E94FE13813009
:1021600009F04DCF0E94C52B4ACF828193810E94F6
:102170004413F801138212823ACF0F931F93CF9327
:10218000DF93182F81E290E00E94A42CEC010097CD
:1021900019F11B821A82198218821D821C821F82E9
:1021A0001E821A8E81E08B8F1C8E8FEF8D8F8E8F0B
:1021B00018A3CE0108960E94A22D8E010F5E1F4F1C
:1021C000C8010E94A22D0FB6F8940F929A8D8B8DA4
:1021D000981740F00F900FBECE01DF91CF911F9165
:1021E0000F9108954C8D442391F488819981892B16
:1021F00071F18A8D8F5F8A8F8989882301F50F900D
:102200000FBECE01DF91CF911F910F9108958C8168
:102210009D8160E070E050E00E94FB078C8D2C8176
:102220003D81280F311D3D832C838A819B81281796
:102230003907F8F2888199819D838C83DACFC801B0
:102240000E94FE138130D9F60E94C52BD8CF8A8117
:102250009B810E9444131B821A82CBCFCF93DF93C2
:10226000EC010FB6F8940F92EC8D2B8DE29FC0011C
:10227000112448815981840F951F9B838A831A8E6C
:102280005D834C8330E021503040F0E02E9FC00150
:102290002F9F900D3E9F900D1124480F591F5F8373
:1022A0004E838FEF8D8F8E8F662391F488858823E0
:1022B00031F40F900FBE81E0DF91CF910895CE01F0
:1022C00008960E94FE138130A1F70E94C52BF1CF22
:1022D000CE0108960E94A22DCE0141960E94A22D09
:1022E0000F900FBE81E0DF91CF910895CF92DF92E2
:1022F000FF920F931F93CF93DF93182F062FF42E87
:10230000882359F440E050E0CA01DF91CF911F913A
:102310000F91FF90DF90CF90089581E290E00E94AE
:10232000A42CEC01009771F3C02EDD24812F90E0E6
:102330009C01C29EC001C39E900DD29E900D11249F
:1023400001960E94A42C998388830097B9F11B8F72
:102350000C8F0FB6F8940F922B8D30E0C29EC00107
:10236000C39E900DD29E900D112448815981840FF7
:10237000951F9B838A831A8E5D834C832150304046
:102380008C8D90E0BC01269FC001279F900D369F49
:10239000900D1124480F591F5F834E838FEF8D8F4F
:1023A0008E8FCE0108960E94A22DCE0141960E94EA
:1023B000A22D0F900FBEF8A2AE01A6CFCE010E94B3
:1023C000312C40E050E0A0CF809192028F5F80934B
:1023D000920208950FB6F8940F9220918F023091D7
:1023E00090020F900FBEC901089520918F02309185
:1023F0009002C901089580918C020895FC0180919A
:102400009102808380918F029091900292838183C8
:102410000895FC01DB010FB6F8940F9260918F02D2
:10242000709190022D913C9111978FEF2F3F3807BB
:10243000F9F09091910280818917F1F041815281E8
:102440006417750708F5CB01841B950B821793075A
:10245000D8F4261B370B240F351F2D933C93809106
:102460009102808380918F02909190029283818368
:1024700080E00F900FBE089541815281CB01841BF3
:10248000950B8217930728F381E00F900FBE0895F4
:1024900081E080938E020895FC01009711F082A1E3
:1024A000089580E00895FC01009709F062A3089563
:1024B000A0E0B0E0EEE5F2E10C9457353C018B0171
:1024C0005A01DB018C91882309F48DC01196ED919E
:1024D000FC9112970280F381E02D1296FC93EE930B
:1024E000119723E0C22ED12CC60ED71EEC15FD0588
:1024F00009F483C086809780FF249FE0E92E82E064
:10250000482E512C82819381F80192838183C816D1
:10251000D90609F455C0D8011196ED91FC91129796
:10252000C681D781FE9CB0011124660D771DFB0189
:10253000D183C0836996D383C283699789A1848339
:10254000B682A5828E898783F3E0AF16B10409F4C1
:102550003FC08BA1FB0180878CA19DA1AEA1BFA133
:1025600081879287A387B487AF89B88D8C91853A8C
:1025700009F040C020E030E040E050E02F5F3F4FE6
:102580004F4F5F4FFD01E20FF31F8081853AB1F39A
:10259000C901DB011E969C938E931D97F394C81579
:1025A000D90511F1D8011196ED91FC911297828114
:1025B0009381F80192838183C816D90609F0ABCFC5
:1025C000D60112968D919C91139792838183A3CF0C
:1025D0008C899D89892B09F4BCCFDB0116965C920E
:1025E0004E921597B6CFFF248F2DCDB7DEB7E0E121
:1025F0000C94733580E090E0CCCF8281938111966A
:102600008C93119712969C939C01F90173CF0097BC
:10261000B1F0FC01A789B08D8C91853AA9F420E036
:1026200030E040E050E02F5F3F4F4F4F5F4FFD01E4
:10263000E20FF31F8081853AB1F3822F0895E09174
:102640008A02F0918B02E6CF80E0089520918A0201
:1026500030918B02C9010895E0918A02F0918B02BA
:1026600084859585A0918A02B0918B02E0918A02BF
:10267000F0918B02468924E030E0241B31091D963D
:102680003C932E931C9708950F931F93CF93DF9342
:10269000EC01009731F19E898BA1981711F18E0101
:1026A0000E5F1F4FC8010E94072E2BA12E8B8C8519
:1026B0009D8597FD06C084E090E0821B91099D876F
:1026C0008C879E8980918D02891710F490938D02DA
:1026D00089E0989FC001112481569D4FB8010E9446
:1026E000B62DDF91CF911F910F9108950F931F93F6
:1026F000CF93DF93EC01009741F13E89E0918A028C
:10270000F0918B028689381700F58C859D8597FDA1
:102710000BC0E0918A02F0918B02268984E090E060
:10272000821B91099D878C8789E0389FC001112405
:1027300081569D4F2A853B852817390759F0E0912E
:102740008A02F0918B0286898E8BDF91CF911F9147
:102750000F9108958E010E5F1F4FC8010E94072E32
:10276000E0918A02F0918B0296899E8B80918D0276
:10277000891710F490938D0289E0989FC00111246D
:1027800081569D4FB8010E94B62DDFCF0F931F9346
:10279000CF93DF93FC01706871836083C681D7811A
:1027A0000E94072E8E010E5F1F4FC8010E94072E48
:1027B0009E8980918D02891710F490938D0289E093
:1027C000989FC001112481569D4FB8010E94B62DDB
:1027D000E0918A02F0918B029E898689891740F4E4
:1027E00081E080938E02DF91CF911F910F91089528
:1027F00080E0DF91CF911F910F9108950F931F9368
:10280000CF93DF93DC011596ED91FC91169706812D
:102810001781E8012C96CE010E94072E809192022A
:10282000882331F5E8012296CE010E94072EF80197
:10283000968980918D02891708F189E0989FC001DF
:10284000112481569D4FBE010E94B62DE0918A024F
:10285000F0918B02D80156969C918689891788F44D
:1028600081E080938E02DF91CF911F910F910895A7
:1028700089ED92E0BE010E94B62DE8CF90938D02C3
:10288000DCCF80E0DF91CF911F910F910895A0E000
:10289000B0E0EDE4F4E10C945F358091920288237E
:1028A00009F089C080918F029091900201969093D7
:1028B000900280938F02E0908F02F0909002E114DA
:1028C000F10419F52091D5023091D6028091D702FA
:1028D0009091D8029093D6028093D5023093D8027B
:1028E0002093D702809191028F5F80939102E091B3
:1028F000D502F091D6028081882309F086C08FEF3F
:102900009FEF90933E0280933D0280913D02909113
:102910003E02E816F90608F460C0DD2449E0C42E42
:10292000E091D502F091D60280818823E9F1E0910F
:10293000D502F091D6020580F681E02DC681D781BF
:102940008A819B81E816F90608F477C08E010E5F34
:102950001F4FC8010E94072E8C899D89892B21F069
:10296000CE010C960E94072E9E8980918D028917B8
:1029700010F490938D029C9DC001112481569D4FAF
:10298000B8010E94B62DE0918A02F0918B029E89D7
:102990008689981728F2DD24D394E091D502F0912E
:1029A000D6028081882319F68FEF9FEF90933E0225
:1029B00080933D0213C080919B028F5F80939B02A6
:1029C000DD2480918E02882311F0DD24D3948D2D97
:1029D000CDB7DEB7E8E00C947B35DD24E0918A02C8
:1029E000F0918B02868990E0FC01EE0FFF1FEE0F45
:1029F000FF1FEE0FFF1FE80FF91FE156FD4F80810B
:102A00008230F8F2DD24D394DCCFE091D502F0914E
:102A1000D6020580F681E02D0680F781E02D8281C7
:102A2000938190933E0280933D0280913D0290916C
:102A30003E02E816F90688F270CF90933E0280932A
:102A40003D02CCCFDF92EF92FF920F931F93CF9373
:102A5000DF93EC018A859B858B5E924041F010E00C
:102A6000812FCDB7DEB7E7E00C947C3542C08C896E
:102A70009D8922E0893D920791F3892B81F780910E
:102A80009202882349F5DE88E0918A02F0918B0258
:102A9000068952E0E52EF12CEC0EFD1EC7010E94C6
:102AA000072E6E8980918D02861710F460938D0237
:102AB00010E0D01608F011E089E0689FC0011124F1
:102AC00081569D4FB7010E94B62D812FCDB7DEB73D
:102AD000E7E00C947C350DC02C9689ED92E0BE01A8
:102AE0000E94B62D10E0812FCDB7DEB7E7E00C9441
:102AF0007C350F931F93CF93DF938A01E0918A0275
:102B0000F0918B0270687587648760918A0270917A
:102B10008B02645F7F4F0E94B62D80918A02909154
:102B20008B0202960E94072E8FEF0F3F180709F4C1
:102B300040C0C0918F02D0919002C00FD11FE09190
:102B40008A02F0918B02D383C28380918F0290918D
:102B50009002C817D907E0F08091D5029091D60273
:102B600060918A0270918B026E5F7F4F0E94D52D1B
:102B700080913D0290913E02C817D90720F4D0936E
:102B80003E02C0933D02DF91CF911F910F910895B6
:102B90008091D7029091D80260918A0270918B0245
:102BA0006E5F7F4F0E94D52DDF91CF911F910F91C6
:102BB000089560918A0270918B026E5F7F4F8BEE59
:102BC00092E00E94B62DDF91CF911F910F91089551
:102BD0000F931F93CF93DF938B0160918A027091C3
:102BE0008B02645F7F4F0E94D52D80918A02909165
:102BF0008B0202960E94072E8FEF0F3F180709F4F1
:102C000040C0C0918F02D0919002C00FD11FE091BF
:102C10008A02F0918B02D383C28380918F029091BC
:102C20009002C817D907E0F08091D5029091D602A2
:102C300060918A0270918B026E5F7F4F0E94D52D4A
:102C400080913D0290913E02C817D90720F4D0939D
:102C50003E02C0933D02DF91CF911F910F910895E5
:102C60008091D7029091D80260918A0270918B0274
:102C70006E5F7F4F0E94D52DDF91CF911F910F91F5
:102C8000089560918A0270918B026E5F7F4F8BEE88
:102C900092E00E94B62DDF91CF911F910F91089580
:102CA000EF92FF920F931F9380919202882309F075
:102CB00093C010928E0280918400909185007C01D7
:102CC00000E010E0E0929302F092940200939502EB
:102CD000109396028091970290919802A091990288
:102CE000B0919A028E159F05A007B107B0F4E0914C
:102CF0008A02F0918B02A8019701281B390B4A0B1D
:102D00005B0B84A195A1A6A1B7A1820F931FA41F5D
:102D1000B51F84A395A3A6A3B7A3E0929702F09250
:102D200098020093990210939A02E0918A02F0911E
:102D30008B02A0918A02B0918B022081318157963B
:102D40008D919C9158978217930790F080918A02F9
:102D500090918B0260918A0270918B02675E7F4F27
:102D60000E943A0905C080918D02815080938D02A6
:102D700080918D0290E0FC01EE0FFF1FEE0FFF1F10
:102D8000EE0FFF1FE80FF91FE156FD4F80818823EA
:102D900051F390918D0289E0989FD0011124A156A2
:102DA000BD4F1196ED91FC9112970280F381E02DB9
:102DB0001296FC93EE931197CD010396E817F9074D
:102DC00099F08681978190938B0280938A021F915C
:102DD0000F91FF90EF90089581E080938E021F91F4
:102DE0000F91FF90EF9008958281938111968C93BB
:102DF000119712969C939C01F901E3CFA0E0B0E0FB
:102E0000E4E0F7E10C945C350FB6F8940F928091F2
:102E1000920281508093920280919202882309F05D
:102E2000EDC080918C02882309F4E8C0F9E0FF2E00
:102E3000EE24E3948091D902882369F1E091DE02C7
:102E4000F091DF02C681D781CE010C960E94072E39
:102E50008E010E5F1F4FC8010E94072E9E89809130
:102E60008D02891710F490938D029F9DC00111244B
:102E700081569D4FB8010E94B62DE0918A02F091D3
:102E80008B029E8986899817A8F2E0928E02809123
:102E9000D902882399F680919B02882309F4AAC05D
:102EA00080919B02882309F4A5C0E9E0CE2EAA24D4
:102EB000AA94BA2C9924939480919202882309F0C1
:102EC00083C080918F02909190020196909390021E
:102ED00080938F02E0908F02F0909002E114F10451
:102EE00009F52091D5023091D6028091D7029091B8
:102EF000D8029093D6028093D5023093D8022093C3
:102F0000D702809191028F5F80939102E091D50268
:102F1000F091D6028081882309F097C0B0923E02DA
:102F2000A0923D0280913D0290913E02E816F90682
:102F300008F473C0DD24E091D502F091D6028081BF
:102F40008823E9F1E091D502F091D6020580F6815F
:102F5000E02DC681D7818A819B81E816F90608F4A5
:102F600085C08E010E5F1F4FC8010E94072E8C89FD
:102F70009D89892B21F0CE010C960E94072E9E89F7
:102F800080918D02891710F490938D029C9DC00151
:102F9000112481569D4FB8010E94B62DE0918A02FE
:102FA000F0918B029E898689981728F2DD24D394AC
:102FB000E091D502F091D6028081882319F6B09273
:102FC0003E02A0923D022AC080919B028F5F8093B7
:102FD0009B02DD2480918E028823E1F4DD20D1F470
:102FE00080919B02815080939B0280919B02882359
:102FF00009F062CF80918E02813041F080E00F9025
:103000000FBECDB7DEB7EBE00C9478350E94C52B30
:1030100081E0F5CF90928E02E3CFDD24E0918A0229
:10302000F0918B02868990E0FC01EE0FFF1FEE0FFE
:10303000FF1FEE0FFF1FE80FF91FE156FD4F8081C4
:10304000823040F2DD24D394C5CFE091D502F091D7
:10305000D6020580F681E02D0680F781E02D828181
:10306000938190933E0280933D025CCF90933E0209
:1030700080933D02D3CFA4E0B0E0E1E4F8E10C940A
:1030800055351C01DC011C9280918C028983909142
:103090008C028FE0989FC00111240E94A42C2C0167
:1030A000009709F4ADC08981909192029F5F90933F
:1030B000920290918C02891708F4A6C084E0C82E71
:1030C0001C82CA94BC81EFE0BE9F50011124A40C65
:1030D000B51CF9E0CF9E700111244FE952E0E40ED7
:1030E000F51ED7018C91882309F484C11196ED91C6
:1030F000FC9112970280F381E02D1296FC93EE93DF
:10310000119703E0802E912C8E0C9F1CE815F90579
:1031100009F42CC566807780DD2482819381F701D4
:10312000928381838816990609F45FC0D7011196AE
:10313000ED91FC91129766817781BFE0DB9E800163
:1031400011240A0D1B1DF80171836083675E7F4F98
:103150007383628369517040DB0191968C919197E2
:10316000848341E050E05683458356968C91569770
:10317000878393968C919397808794968D919D9158
:103180000D90BC91A02D81879287A387B487FB0106
:10319000A789B08D8C91853A09F0D4C220E030E047
:1031A00040E050E02F5F3F4F4F4F5F4FFD01E20F78
:1031B000F31F8081853AB1F3C901D8011E969C9313
:1031C0008E931D97D3946616770609F414C1D70120
:1031D0001196ED91FC91129782819381F701928370
:1031E00081838816990609F0A1CFD40112968D919A
:1031F0009C9113979283818399CFC2010E94312CB5
:103200002496E2E10C9471351B820FB6F8940F926C
:103210008091920281508093920280919202882341
:1032200009F0A4C180918C02882309F49FC199E020
:10323000D92ECC24C3948091D902882399F1E091AE
:10324000DE02F091DF0206811781C8010C960E9410
:10325000072E22E0E22EF12CE00EF11EC7010E94A3
:10326000072EF801968980918D02891718F49093A2
:103270008D0296899D9DC001112481569D4FB701F5
:103280000E94B62DE0918A02F0918B02D8015696E9
:103290009C918689981778F2C0928E028091D9020B
:1032A000882369F680919B02882309F459C1809193
:1032B0009B02882309F454C189E0A82E80919202D0
:1032C000882309F035C180918F0290919002019678
:1032D0009093900280938F02C0908F02D0909002C2
:1032E000C114D10419F52091D5023091D6028091F4
:1032F000D7029091D8029093D6028093D502309352
:10330000D8022093D702809191028F5F809391021F
:10331000E091D502F091D6028081882309F004C49F
:10332000EFEFFFEFF0933E02E0933D0280913D020C
:1033300090913E02C816D90608F4DDC3BB24E09183
:10334000D502F091D6028081882309F44CC0E09127
:10335000D502F091D6020580F681E02D0681178115
:10336000D80112968D919C911397C816D90608F42E
:10337000F5C3B2E0EB2EF12CE00EF11EC7010E9466
:10338000072EF80184899589892B21F0C8010C96B4
:103390000E94072ED80156969C91569780918D02D7
:1033A000891720F490938D0256969C919A9DC001A6
:1033B000112481569D4FB7010E94B62DE0918A02DB
:1033C000F0918B02D80156969C918689981708F443
:1033D000B6CFBB24B394E091D502F091D6028081A0
:1033E000882309F0B4CF4FEF5FEF50933E02409334
:1033F0003D0282C3DD24BC81BD0DBC83CC2009F01D
:1034000060CE8FE0B89F50011124A40CB51CE09051
:10341000D502F090D602F7018081882309F495C186
:103420000180F281E02D0280F381E02DD701129618
:10343000FC93EE93119713E0812E912C8E0C9F1C20
:10344000E815F90509F4A3C366807780DD24AFE0B1
:10345000CA2E82819381F70192838183881699060F
:1034600009F45EC0D7011196ED91FC911297668127
:103470007781DC9C800111240A0D1B1DF8017183EA
:103480006083675E7F4F7383628369517040DB01A5
:1034900091968C919197848342E050E056834583C6
:1034A00056968C915697878393968C9193978087A5
:1034B00094968D919D910D90BC91A02D81879287BE
:1034C000A387B487FB01A789B08D8C91853A09F059
:1034D00042C320E030E040E050E02F5F3F4F4F4FCD
:1034E0005F4FFD01E20FF31F8081853AB1F3C901FF
:1034F000D8011E969C938E931D97D39466167706DB
:1035000009F424C1D7011196ED91FC9112978281A3
:103510009381F701928381838816990609F0A2CFDF
:10352000D40112968D919C911397928381839ACFA7
:1035300080919B028F5F80939B02BB2480918E02BF
:10354000882309F0D4C2BB2009F0D1C280919B022C
:10355000815080939B0280919B02882309F0AECE1C
:1035600080918E02813011F40E94C52B0F900FBE06
:10357000EB81E983C401B30124E630E040E050E090
:103580000E94333559016A01A114B104C104D10468
:1035900009F433CE1A829A818981981708F02DCECA
:1035A000E7E08E2EE2E09E2E76E1672E72E0772E27
:1035B00060C08A812A814DB75EB74A5050400FB62D
:1035C000F8945EBF0FBE4DBFADB7BEB71196EDB755
:1035D000FEB73282218213969C928E92129790E0CF
:1035E000FC01EE0FFF1FE80FF91FCF01880F991F95
:1035F000880F991FE80FF91FE40DF51D8281938153
:1036000015969C938E93149730E0F901EE0FFF1FEF
:10361000E20FF31FCF01880F991F880F991FE80F42
:10362000F91FE40DF51D8185928517969C938E9365
:1036300016971996FC92EE9218970E9442084DB781
:103640005EB7465F5F4F0FB6F8945EBF0FBE4DBFCB
:10365000D1010D900020E9F71197A219B3098A81D1
:103660008F5F8A839A818981981708F0C6CD2A0EC8
:103670003B1E8A8190E0FC01EE0FFF1FE80FF91F4F
:10368000CF01880F991F880F991FE80FF91FE40DCC
:10369000F51D6185728583859485A60195010E943B
:1036A000333579018A01E114F1040105110509F0AE
:1036B00080CF8A812A81ADB7BEB718970FB6F8942C
:1036C000BEBF0FBEADBF1196EDB7FEB732822182ED
:1036D00013967C926E92129790E0FC01EE0FFF1F02
:1036E000E80FF91FCF01880F991F880F991FE80F66
:1036F000F91FE40DF51D8281938115969C938E939D
:10370000149730E0F901EE0FFF1FE20FF31FCF0116
:10371000880F991F880F991FE80FF91FE40DF51DF9
:103720008185928517969C938E9316970E944208E6
:103730004DB75EB7485F5F4F0FB6F8945EBF0FBEE0
:103740004DBF86CF80E090E038CDDD24CC80CD0C1D
:103750008FE0C89E50011124A40CB51CE090D70244
:10376000F090D802F7018081882309F486C0018097
:10377000F281E02D0280F381E02DD7011296FC93B7
:10378000EE93119773E0872E912C8E0C9F1CE815F9
:10379000F90509F406C266807780DD248281938171
:1037A000F701928381838816990609F45EC0D701D8
:1037B0001196ED91FC91129766817781BFE0DB9EB7
:1037C000800111240A0D1B1DF80171836083675E5F
:1037D0007F4F7383628369517040DB0191968C91B6
:1037E0009197848342E050E05683458356968C91AE
:1037F0005697878393968C919397808794968D9113
:103800009D910D90BC91A02D81879287A387B4874D
:10381000FB01A789B08D8C91853A09F099C120E010
:1038200030E040E050E02F5F3F4F4F4F5F4FFD01D2
:10383000E20FF31F8081853AB1F3C901D8011E96CA
:103840009C938E931D97D39466167706B9F0D70193
:103850001196ED91FC91129782819381F7019283E9
:1038600081838816990609F0A2CFD40112968D9112
:103870009C911397928381839ACFDD24ED2CEC0CDD
:103880008FE0E89E60011124C40CD51C8091E202F7
:10389000882309F47CC0E091E302F091E402028005
:1038A000F381E02DF093E402E093E302B2E0E53E21
:1038B000FB0709F480C1E091E302F091E402A680E5
:1038C000B780FF246FE0762E54E0852E912C028085
:1038D000F381E02DF093E402E093E30242E0E53E61
:1038E000F40709F4FDC0E091E302F091E40266817F
:1038F0007781F79C800111240C0D1D1DD8011196B4
:103900007C936E93675E7F4F13967C936E931297B2
:1039100069517040FB0181A114968C9314971696FF
:103920009C928E921597868917968C93179783A1F0
:1039300018968C9384A195A1A6A1B7A1F8018187BF
:103940009287A387B487FB01A789B08D8C91853AB4
:1039500009F0FBC020E030E040E050E02F5F3F4F37
:103960004F4F5F4FFD01E20FF31F8081853AB1F3A6
:10397000C901D8011E969C938E931D97F394A616A9
:10398000B70631F0E091E302F091E402A0CFFF240A
:10399000EF0C8FE0E89E60011124C40CD51C8091CF
:1039A000EB02882309F48AC0E091EC02F091ED0269
:1039B0000280F381E02DF093ED02E093EC02B2E09F
:1039C000EE3EFB0709F4DCC0E091EC02F091ED0261
:1039D000A680B780FF2443E0842E912C32E0632E32
:1039E000712C0280F381E02DF093ED02E093EC0264
:1039F00042E0EE3EF40709F46CC0E091EC02F09175
:103A0000ED02668177815FE0F59E800111240C0D47
:103A10001D1DD80111967C936E93675E7F4F1396A0
:103A20007C936E93129769517040FB0181A11496AB
:103A30008C93149716969C928E921597868917965A
:103A40008C93179784899589892B21F016967C92FF
:103A50006E921597DB0193968C919397F80180876E
:103A600094968D919D910D90BC91A02D8187928708
:103A7000A387B487FB01A789B08D8C91853A09F0A3
:103A800072C020E030E040E050E02F5F3F4F4F4FEA
:103A90005F4FFD01E20FF31F8081853AB1F3C90149
:103AA000D8011E969C938E931D97F394A616B70685
:103AB00031F0E091EC02F091ED0293CFFF24FE0C87
:103AC000FB8280918400909185003C018824992498
:103AD0009CCB828193819093ED028093EC028DCFF9
:103AE000828193819093E4028093E302FCCEB1E063
:103AF000B0938E022BCDBB24E0918A02F0918B0211
:103B0000868990E0FC01EE0FFF1FEE0FFF1FEE0F06
:103B1000FF1FE80FF91FE156FD4F8081823008F446
:103B20000DCDBB24B3940ACDE091D502F091D6021D
:103B30000580F681E02D0680F781E02D828193815A
:103B400090933E0280933D02F1CB80E090E011CF54
:103B500080E090E073CE80E090E0CACC90933E028B
:103B600080933D02C9CF80E090E09ACF828193811B
:103B700011968C93119712969C939C01F901CACAD5
:103B8000828193819093ED028093EC021DCF82811C
:103B9000938111968C93119712969C939C01F90135
:103BA00053CC8281938111968C93119712969C939A
:103BB0009C01F901F0CD828193819093E40280937E
:103BC000E30279CEA3E0B0E0E8EEFDE10C945535D8
:103BD0001C01DC011C9280918C02898390918C02E3
:103BE0008FE0989FC00111240E94A42C5C010097D3
:103BF00009F4ADC08981909192029F5F90939202E7
:103C000090918C02891708F4A6C064E0C62E1B822E
:103C1000CA94BB81EFE0BE9F400111248A0C9B1C1B
:103C2000F9E0CF9E700111242FE932E0E20EF31E7D
:103C3000D7018C91882309F482C11196ED91FC91F2
:103C400012970280F381E02D1296FC93EE93119768
:103C500053E0652E712C6E0C7F1CE615F70509F4F8
:103C6000FEC446805780DD2482819381F7019283D0
:103C700081836816790609F45FC0D7011196ED912A
:103C8000FC91129766817781BFE0DB9E8001112451
:103C9000080D191DF80171836083675E7F4F738380
:103CA000628369517040DB0191968C919197848376
:103CB00021E030E03683258356968C915697878392
:103CC00093968C919397808794968D919D910D906A
:103CD000BC91A02D81879287A387B487FB01A78918
:103CE000B08D8C91853A09F0AEC220E030E040E022
:103CF00050E02F5F3F4F4F4F5F4FFD01E20FF31F2B
:103D00008081853AB1F3C901D8011E969C938E93A8
:103D10001D97D3944616570609F412C1D701119680
:103D2000ED91FC91129782819381F70192838183B7
:103D30006816790609F0A1CFD30112968D919C9156
:103D400013979283818399CFC5010E94312C2396CA
:103D5000E2E10C94713577240FB6F8940F928091BC
:103D6000920281508093920280919202882309F0FE
:103D7000A2C180918C02882309F49DC1A9E0DA2EAA
:103D8000CC24C3948091D902882399F1E091DE027A
:103D9000F091DF0206811781C8010C960E94072E60
:103DA000B2E0EB2EF12CE00EF11EC7010E94072EAF
:103DB000F801968980918D02891718F490938D02ED
:103DC00096899D9DC001112481569D4FB7010E9487
:103DD000B62DE0918A02F0918B02D80156969C9103
:103DE0008689981778F2C0928E028091D902882332
:103DF00069F680919B02882309F457C180919B0248
:103E0000882309F452C1F9E0CF2E44244A94542C5B
:103E10006624639480919202882309F02EC18091D8
:103E20008F029091900201969093900280938F025E
:103E300080908F02909090028114910409F5209156
:103E4000D5023091D6028091D7029091D8029093FA
:103E5000D6028093D5023093D8022093D702809166
:103E600091028F5F80939102E091D502F091D6028A
:103E70008081882309F0D1C350923E0240923D02D6
:103E800080913D0290913E028816990608F4ACC3D9
:103E9000DD24E091D502F091D6028081882309F4D7
:103EA00049C0E091D502F091D6020580F681E02D5F
:103EB00006811781F801828193818816990608F49A
:103EC000C6C3E2E0EE2EF12CE00EF11EC7010E9407
:103ED000072ED80154968D919C915597892B21F0EE
:103EE000C8010C960E94072EF801968980918D02D8
:103EF000891718F490938D0296899C9DC001112416
:103F000081569D4FB7010E94B62DE0918A02F09133
:103F10008B02D80156969C918689981708F4B9CFE0
:103F2000DD24D394E091D502F091D60280818823DC
:103F300009F0B7CF50923E0240923D0256C3DD24B5
:103F4000BB81BD0DBB83CC2009F062CE8FE0B89F52
:103F5000400111248A0C9B1CE090D502F090D602FF
:103F6000F7018081882309F471C10180F281E02D7D
:103F70000280F381E02DD7011296FC93EE93119706
:103F800043E0642E712C6E0C7F1CE615F70509F4D6
:103F900077C346805780DD243FE0C32E8281938122
:103FA000F701928381836816790609F45EC0D70110
:103FB0001196ED91FC91129766817781DC9C8001CE
:103FC0001124080D191DF80171836083675E7F4F0E
:103FD0007383628369517040DB0191968C91919754
:103FE000848322E030E03683258356968C91569761
:103FF000878393968C919397808794968D919D91CA
:104000000D90BC91A02D81879287A387B487FB0177
:10401000A789B08D8C91853A09F016C320E030E075
:1040200040E050E02F5F3F4F4F4F5F4FFD01E20FE9
:10403000F31F8081853AB1F3C901D8011E969C9384
:104040008E931D97D3944616570609F400C1D701E5
:104050001196ED91FC91129782819381F7019283E1
:1040600081836816790609F0A2CFD30112968D914B
:104070009C911397928381839ACF80919B028F5F4B
:1040800080939B02DD2480918E02882309F0A9C2CF
:10409000DD2009F0A6C280919B02815080939B0293
:1040A00080919B02882309F0B5CE80918E028130E9
:1040B00011F40E94C52B0F900FBE79821A829A814B
:1040C0008981981708F040CE65E2E62E62E0F62E70
:1040D0008FC0019709F4B4C000E010E08A812A8102
:1040E0004A816A81EDB7FEB73E970FB6F894FEBFDE
:1040F0000FBEEDBFADB7BEB71196328221821396C7
:10410000FC92EE92129790E0FC01EE0FFF1FE80F79
:10411000F91FCF01880F991F880F991FE80FF91F0A
:10412000EA0DFB1D8281938115969C938E931497C3
:1041300017961C930E93169730E0F901EE0FFF1FB0
:10414000E20FF31FCF01880F991F880F991FE80F07
:10415000F91FEA0DFB1D878118968C931897199605
:104160001C92199750E0FA01EE0FFF1FE40FF51FA4
:10417000CF01880F991F880F991FE80FF91FEA0DCB
:10418000FB1D858596851B969C938E931A9770E0F0
:10419000FB01EE0FFF1FE60FF71FCF01880F991FDE
:1041A000880F991FE80FF91FEA0DFB1D84811C96EB
:1041B0008C931C971D961C920E944208D1010D9071
:1041C0000020E9F71197A219B3098A818F5F8A83CA
:1041D0009A8189812DB73EB7225F3F4F0FB6F89481
:1041E0003EBF0FBE2DBF981708F0AECD2A0E3B1E66
:1041F0008A8190E0FC01EE0FFF1FE80FF91FCF014D
:10420000880F991F880F991FE80FF91FEA0DFB1DF2
:10421000858196818230910569F08330910508F49B
:1042200058CF8330910549F0049709F055CF04E445
:1042300010E054CF02E410E051CF03E510E04ECF80
:1042400002E510E04BCF80E090E05ECDDD24CB8036
:10425000CD0C8FE0C89E400111248A0C9B1CE0907D
:10426000D702F090D802F7018081882309F486C034
:104270000180F281E02D0280F381E02DD7011296BA
:10428000FC93EE93119723E0622E712C6E0C7F1C31
:10429000E615F70509F4FEC146805780DD248281CA
:1042A0009381F701928381836816790609F45EC0D1
:1042B000D7011196ED91FC91129766817781BFE04D
:1042C000DB9E80011124080D191DF80171836083A4
:1042D000675E7F4F7383628369517040DB01919603
:1042E0008C919197848322E030E036832583569623
:1042F0008C915697878393968C9193978087949609
:104300008D919D910D90BC91A02D81879287A3875F
:10431000B487FB01A789B08D8C91853A09F091C1D2
:1043200020E030E040E050E02F5F3F4F4F4F5F4FC5
:10433000FD01E20FF31F8081853AB1F3C901D80175
:104340001E969C938E931D97D39446165706B9F0EC
:10435000D7011196ED91FC91129782819381F7011B
:10436000928381836816790609F0A2CFD301129651
:104370008D919C911397928381839ACFDD24ED2CAC
:10438000EC0C8FE0E89E60011124CA0CDB1C8091CC
:10439000E202882309F47CC0E091E302F091E40298
:1043A0000280F381E02DF093E402E093E302B2E0B7
:1043B000E53EFB0709F478C1E091E302F091E402E5
:1043C00086809780FF249FE0592E84E0682E712C10
:1043D0000280F381E02DF093E402E093E30222E017
:1043E000E53EF20709F4F6C0E091E302F091E40241
:1043F00066817781F59C800111240C0D1D1DD8016B
:1044000011967C936E93675E7F4F13967C936E93A9
:10441000129769517040FB0181A114968C931497F7
:1044200016967C926E921597868917968C9317979D
:1044300083A118968C9384A195A1A6A1B7A1F80198
:1044400081879287A387B487FB01A789B08D8C9160
:10445000853A09F0F3C020E030E040E050E02F5F03
:104460003F4F4F4F5F4FFD01E20FF31F8081853AB1
:10447000B1F3C901D8011E969C938E931D97F394B6
:104480008616970631F0E091E302F091E402A0CFA6
:10449000FF24EF0C8FE0E89E60011124CA0CDB1CA6
:1044A0008091EB02882309F48AC0E091EC02F0913C
:1044B000ED020280F381E02DF093ED02E093EC0237
:1044C000B2E0EE3EFB0709F4D4C0E091EC02F091BB
:1044D000ED0286809780FF2403E0602E712C12E0AD
:1044E000412E512C0280F381E02DF093ED02E093F8
:1044F000EC0222E0EE3EF20709F465C0E091EC0226
:10450000F091ED02668177813FE0F39E80011124F6
:104510000C0D1D1DD80111967C936E93675E7F4F25
:1045200013967C936E93129769517040FB0181A1A1
:1045300014968C93149716967C926E921597868992
:1045400017968C93179784899589892B21F0169655
:104550005C924E921597DB0193968C919397F8019C
:10456000808794968D919D910D90BC91A02D81870F
:104570009287A387B487FB01A789B08D8C91853A78
:1045800009F06AC020E030E040E050E02F5F3F4F8C
:104590004F4F5F4FFD01E20FF31F8081853AB1F36A
:1045A000C901D8011E969C938E931D97F39486168D
:1045B000970631F0E091EC02F091ED0293CFFF24E9
:1045C0007F2C7E0CC9CB828193819093ED028093E6
:1045D000EC0294CF828193819093E4028093E30272
:1045E00003CF60928E0257CDDD24E0918A02F091D4
:1045F0008B02868990E0FC01EE0FFF1FEE0FFF1F7C
:10460000EE0FFF1FE80FF91FE156FD4F808182304A
:1046100008F439CDDD24D39436CDE091D502F09164
:10462000D6020580F681E02D0680F781E02D82819B
:10463000938190933E0280933D0222CC80E090E0F3
:1046400019CF80E090E07BCE80E090E0F6CC9093B4
:104650003E0280933D02C9CF80E090E0A2CF8281EC
:10466000938111968C93119712969C939C01F9015A
:10467000F8CA828193819093ED028093EC0225CF5A
:104680008281938111968C93119712969C939C0131
:10469000F9017FCC8281938111968C9311971296A8
:1046A0009C939C01F901F8CD828193819093E4025F
:1046B0008093E30281CE0F931F93CF93DF93EC019E
:1046C000009789F080918A0290918B02C817D907D0
:1046D00051F00FB6F8940F928A859B858B5E9240BD
:1046E00039F00F900FBEDF91CF911F910F91089578
:1046F0008C899D8922E0893D920799F3892B89F75E
:104700008E010E5F1F4FC8010E94072E9E89809167
:104710008D02891710F490938D0289E0989FC00153
:10472000112481569D4FB8010E94B62DE0918A0256
:10473000F0918B029E898689981798F20E94C52B6A
:10474000D0CFEF92FF920F931F93CF93DF930FB6CB
:10475000F8940F92009709F4DDC0EC018E010E5F12
:104760001F4FC8010E94072E8C899D89892B21F03B
:10477000CE010C960E94072E8BEE92E0B8010E94AB
:10478000B62D0F900FBE80918A0290918B02C817B0
:10479000D90761F180919C02882391F00FB6F894BB
:1047A0000F92E091D502F091D6028081882369F4BE
:1047B0008FEF9FEF90933E0280933D020F900FBECC
:1047C000CDB7DEB7E6E00C947D35E091D502F091EF
:1047D000D6020580F681E02D0680F781E02D8281EA
:1047E000938190933E0280933D02E8CF80919C029A
:1047F000882309F098C090918C028091EB02891770
:1048000009F494C080919202882309F088C0109224
:104810008E0280918400909185007C0100E010E080
:10482000E0929302F0929402009395021093960204
:104830008091970290919802A0919902B0919A026A
:104840008E159F05A007B107B0F4E0918A02F091A0
:104850008B02A8019701281B390B4A0B5B0B84A123
:1048600095A1A6A1B7A1820F931FA41FB51F84A372
:1048700095A3A6A3B7A3E0929702F09298020093A3
:10488000990210939A02E0918A02F0918B02A09112
:104890008A02B0918B022081318157968D919C9133
:1048A00058978217930730F046C080918D0281504F
:1048B00080938D0280918D0290E0FC01EE0FFF1F2E
:1048C000EE0FFF1FEE0FFF1FE80FF91FE156FD4F20
:1048D0008081882351F390918D0289E0989FD001C7
:1048E0001124A156BD4F1196ED91FC9112970280B3
:1048F000F381E02D1296FC93EE931197CD01039670
:10490000E817F90729F18681978190938B028093AC
:104910008A0256CFC0918A02D0918B021FCF81E0CC
:1049200080938E024DCF0E94C52B4ACF10928B02EE
:1049300010928A0245CF80918A0290918B026091F9
:104940008A0270918B02675E7F4F0E943A09B2CF54
:104950008281938111968C93119712969C939C015E
:10496000F901D1CFA0E0B0E0E8EBF4E20C945C35C3
:104970009C01009741F40E94C52BCDB7DEB7EBE058
:104980000C94783577C1809192028F5F8093920268
:10499000C0918F02D0919002C20FD31F80918A02E2
:1049A00090918B0202960E94072EE0918A02F0916C
:1049B0008B02D383C28380918F0290919002C8179B
:1049C000D90708F45BC08091D5029091D60260911E
:1049D0008A0270918B026E5F7F4F0E94D52D80916D
:1049E0003D0290913E02C817D90720F4D0933E02B1
:1049F000C0933D020FB6F8940F92809192028150BD
:104A00008093920280919202882309F04DC0809198
:104A10008C02882309F448C099E0F92EEE24E3942F
:104A20008091D9028823B9F1E091DE02F091DF0292
:104A3000C681D781CE010C960E94072E8E010E5F93
:104A40001F4FC8010E94072E9E8980918D028917F1
:104A500010F490938D029F9DC001112481569D4FAB
:104A6000B8010E94B62DE0918A02F0918B029E89D6
:104A700086899817A8F2E0928E02D2CF8091D70251
:104A80009091D80260918A0270918B026E5F7F4F85
:104A90000E94D52DAFCF80919B02882389F480910D
:104AA0008E02813009F495C080E00F900FBE8823FC
:104AB00009F461CFCDB7DEB7EBE00C947835DAC0FE
:104AC00080919B02882359F389E0C82EAA24AA94D6
:104AD000BA2C9924939480919202882309F07DC086
:104AE00080918F0290919002019690939002809312
:104AF0008F02E0908F02F0909002E114F10409F52A
:104B00002091D5023091D6028091D7029091D8029F
:104B10009093D6028093D5023093D8022093D70287
:104B2000809191028F5F80939102E091D502F09184
:104B3000D6028081882309F087C0B0923E02A092FD
:104B40003D0280913D0290913E02E816F90608F47C
:104B50005EC0DD24E091D502F091D60280818823E9
:104B600009F46DC0E091D502F091D6020580F6817E
:104B7000E02DC681D7818A819B81E816F90608F469
:104B800074C08E010E5F1F4FC8010E94072E8C89D2
:104B90009D89892B21F0CE010C960E94072E9E89BB
:104BA00080918D02891710F490938D029C9DC00115
:104BB000112481569D4FB8010E94B62DE0918A02C2
:104BC000F0918B029E898689981720F2DD24D39478
:104BD000C1CF0E94C52B81E068CF80919B028F5F7F
:104BE00080939B02DD2480918E02882369F4DD206E
:104BF00059F480919B02815080939B0280919B028B
:104C0000882309F068CF4BCF90928E02F2CFDD243B
:104C1000E0918A02F0918B02868990E0FC01EE0F10
:104C2000FF1FEE0FFF1FEE0FFF1FE80FF91FE156EA
:104C3000FD4F80818230B8F2DD24D394D4CFB0927E
:104C40003E02A0923D02E4CFE091D502F091D6025F
:104C50000580F681E02D0680F781E02D8281938129
:104C600090933E0280933D026CCF90933E028093DE
:104C70003D02CECFA0E0B0E0E0E4F6E20C945C357B
:104C8000FC01EB01809192028F5F80939202209150
:104C90008F023091900280819181C80FD91F28170F
:104CA000390708F016C1C817D90708F024C12C1716
:104CB0003D0708F020C1D183C08380918A02909182
:104CC0008B0202960E94072EE0918A02F0918B02DD
:104CD000D383C28380918F0290919002C817D90725
:104CE00008F4FCC08091D5029091D60260918A02AE
:104CF00070918B026E5F7F4F0E94D52D80913D0297
:104D000090913E02C817D90720F4D0933E02C09379
:104D10003D020FB6F8940F928091920281508093D9
:104D2000920280919202882309F003C180918C0243
:104D3000882309F4FEC049E0F42EEE24E394809128
:104D4000D902882369F1E091DE02F091DF02C68189
:104D5000D781CE010C960E94072E8E010E5F1F4F49
:104D6000C8010E94072E9E8980918D02891710F438
:104D700090938D029F9DC001112481569D4FB801D3
:104D80000E94B62DE0918A02F0918B029E8986895D
:104D90009817A8F2E0928E028091D902882399F6A2
:104DA00080919B02882309F4BFC080919B028823D5
:104DB00009F4BAC039E0C32EAA24AA94BA2C9924C3
:104DC000939480919202882309F098C080918F0279
:104DD0009091900201969093900280938F02E090C0
:104DE0008F02F0909002E114F10409F52091D502B0
:104DF0003091D6028091D7029091D8029093D6023A
:104E00008093D5023093D8022093D70280919102EB
:104E10008F5F80939102E091D502F091D60280815C
:104E2000882309F0ADC0B0923E02A0923D0280916D
:104E30003D0290913E02E816F90608F489C0DD248F
:104E4000E091D502F091D60280818823E9F1E091CA
:104E5000D502F091D6020580F681E02DC681D7817A
:104E60008A819B81E816F90608F49BC08E010E5FCB
:104E70001F4FC8010E94072E8C899D89892B21F024
:104E8000CE010C960E94072E9E8980918D02891773
:104E900010F490938D029C9DC001112481569D4F6A
:104EA000B8010E94B62DE0918A02F0918B029E8992
:104EB0008689981728F2DD24D394E091D502F091E9
:104EC000D6028081882319F6B0923E02A0923D025C
:104ED00040C0C817D90708F4EECEE9CE8091D702BA
:104EE0009091D80260918A0270918B026E5F7F4F21
:104EF0000E94D52D0ECFD183C0830BCF80919B0212
:104F00008F5F80939B02DD2480918E028823E9F4D9
:104F1000DD20D9F480919B02815080939B02809187
:104F20009B02882309F04DCF80918E02813009F4D5
:104F30003DC080E00F900FBE882311F40E94C52B66
:104F4000CDB7DEB7EBE00C94783590928E02E2CFCD
:104F5000DD24E0918A02F0918B02868990E0FC01C9
:104F6000EE0FFF1FEE0FFF1FEE0FFF1FE80FF91FE1
:104F7000E156FD4F8081823038F2DD24D394C4CFD6
:104F8000E091D502F091D6020580F681E02D0680F1
:104F9000F781E02D8281938190933E0280933D02C0
:104FA00046CF90933E0280933D02D3CF0E94C52B03
:104FB00081E0C0CF0F931F93CF93DF930FB6F89488
:104FC0000F92009709F453C0EC018E010E5F1F4F42
:104FD000C8010E94072E8C899D89892B21F0CE0162
:104FE0000C960E94072E82EE92E0B8010E94B62D28
:104FF00080919D028F5F80939D0280919E028F5FC2
:1050000080939E020F900FBE80919C02882319F11D
:1050100080918A0290918B02C817D90769F10FB667
:10502000F8940F92E091D502F091D6028081882306
:10503000B9F0E091D502F091D6020580F681E02D1D
:105040000680F781E02D8281938190933E028093C8
:105050003D020F900FBEDF91CF911F910F910895E8
:105060008FEF9FEF90933E0280933D02F2CFC0916D
:105070008A02D0918B02A9CF0E94C52BECCFF89465
:1050800010929C020E94452B0895A0E0B0E0EBE452
:10509000F8E20C9455352C01362E272E5A01390191
:1050A000102F470188E290E00E94A42CEC010097A9
:1050B00009F4ADC0C114D10409F49DC0D88ECF8AC3
:1050C000C60165EA70E0A5010E940408EF88F88C2B
:1050D000832D922D9C01F901DE0190E0808159968B
:1050E0008C9359978081882329F09F5F3196119680
:1050F0009830A1F718A2012F143008F07AC00E8B57
:105100000BA372E0C72ED12CCC0EDD1EC6010E946F
:10511000B22DCE010C960E94B22DD987C88784E0AB
:1051200090E0801B91099D878C87DB8BCA8B1CA22A
:105130001DA21EA21FA20894A108B108C7018A0DD2
:105140009B1DB201A3010E94B12A99838883811417
:10515000910419F0F401D183C0830FB6F8940F9233
:1051600080918C028F5F80938C0280918A02909153
:105170008B02892B09F452C080919C02882359F438
:10518000E0918A02F0918B028689181720F0D09363
:105190008B02C0938A0280919E028F5F80939E0251
:1051A00089A39E8980918D02891710F490938D02B6
:1051B00089E0989FC001112481569D4FB6010E943D
:1051C000B62D0F900FBE80919C02882359F0E0917C
:1051D0008A02F0918B028689811720F40E94C52BE8
:1051E00081E001C081E0CDB7DEB7E2E10C9471351A
:1051F00051C003E084CFC5010E94A42C6C01988F9C
:105200008F8B009709F05CCFCE010E94312C8FEF7D
:10521000CDB7DEB7E2E10C9471353CC0D0938B0280
:10522000C0938A0280918C02813009F0B4CF8FE95B
:1052300092E00E94A22D88EA92E00E94A22D81EBCA
:1052400092E00E94A22D8AEB92E00E94A22D63ECD4
:10525000E62E62E0F62EC7010E94A22D5CECA52E80
:1052600052E0B52EC5010E94A22D89ED92E00E9468
:10527000A22D82EE92E00E94A22D8BEE92E00E947F
:10528000A22DF092D602E092D502B092D802A0925E
:10529000D70281CFA0E0B0E0E0E5F9E20C945F3501
:1052A00088E290E00E94A42CEC01009709F491C0E0
:1052B00085E590E00E94A42C988F8F8B009709F4CD
:1052C000C7C065EA70E045E550E00E9404080F8918
:1052D000188DE7E3F2E0DE01808159968C935997AF
:1052E0008081882331F03196119682E0EF33F80700
:1052F00099F718A21E8A1BA2F2E0CF2ED12CCC0E59
:10530000DD1EC6010E94B22DCE010C960E94B22D68
:10531000D987C88784E090E09D878C87DB8BCA8B18
:105320001CA21DA21EA21FA2C8018C5A9F4F62ED93
:1053300071E040E050E00E94B12A998388830FB663
:10534000F8940F9280918C028F5F80938C028091F1
:105350008A0290918B02892B09F441C080919C02B2
:10536000882359F4E0918A02F0918B028689882380
:1053700021F4D0938B02C0938A0280919E028F5FAA
:1053800080939E0289A39E8980918D02891710F4D3
:1053900090938D0289E0989FC001112481569D4F02
:1053A000B6010E94B62D0F900FBE80919C028823FB
:1053B00021F080918A0290918B02F89481E0809391
:1053C0009C021092900210928F020E94322E0E9434
:1053D000FC2ACDB7DEB7E8E00C947B3541C0D09312
:1053E0008B02C0938A0280918C02813031F68FE962
:1053F00092E00E94A22D88EA92E00E94A22D81EB09
:1054000092E00E94A22D8AEB92E00E94A22DE3EC92
:10541000EE2EE2E0FE2EC7010E94A22D0CEC12E05F
:10542000C8010E94A22D89ED92E00E94A22D82EE79
:1054300092E00E94A22D8BEE92E00E94A22DF092AB
:10544000D602E092D5021093D8020093D70295CFEE
:10545000CE010E94312CCDB7DEB7E8E00C947B354D
:10546000AF92BF92DF92EF92FF920F931F93CF9371
:10547000DF93EC015A01809192028F5F8093920238
:1054800080918C02681708F46AC000E014E08FE095
:10549000D82EB9E0EB2E1150AFE0FA2E0D9DC001D1
:1054A00011241E9DB001112461567D4F8C0F9D1F4C
:1054B00041E050E00E945812080F112361F76091FB
:1054C000D5027091D6020F9DC00111248C0F9D1F33
:1054D00042E050E00E945812102F180F6091D7023E
:1054E0007091D8021F9DC00111248C0F9D1F42E0B6
:1054F00050E00E945812180F1F9DC00111248C0FFC
:105500009D1F62EE72E044E050E00E945812180FB6
:105510001F9DC00111248C0F9D1F6BEE72E043E0B4
:1055200050E00E945812180FA114B10459F0809154
:10553000840090918500A0E0B0E0F5018083918324
:10554000A283B3830E94FE16812FDF91CF911F911A
:105550000F91FF90EF90DF90BF90AF90089510E013
:10556000F1CFFC0191E1908322E2229383E38293C5
:10557000629372931292129280E882931292129224
:10558000129282E0829383E0829384E0829385E0AA
:10559000829386E0829387E0829388E0829389E019
:1055A000829380E18293929382E1829383E182935A
:1055B00084E1829385E1829386E1829387E18293FD
:1055C00088E1829389E1829380E2829381E28293EF
:1055D000229383E282934293529386E2829387E2FC
:1055E000829388E2829389E2829380E3829381E3CB
:1055F00082933197CF01089584EF91E09093F50263
:105600008093F4029093F7028093F60281E08093F6
:10561000990083EF809398008BE080939100E1E7FD
:10562000F0E0808182608083A0918A02B0918B0239
:10563000CD91CDBFDD91DEBFFF91EF91DF91CF9195
:10564000BF91AF919F918F917F916F915F914F919A
:105650003F912F911F910F91FF90EF90DF90CF908E
:10566000BF90AF909F908F907F906F905F904F9082
:105670003F902F901F900F900CBE0F900BBE0F907D
:105680000FBE0F90089581E0089508950F920FB610
:10569000F8940F920BB60F920CB60F921F92112432
:1056A0002F923F924F925F926F927F928F929F9232
:1056B000AF92BF92CF92DF92EF92FF920F931F9320
:1056C0002F933F934F935F936F937F938F939F930A
:1056D000AF93BF93CF93DF93EF93FF93A0918A0291
:1056E000B0918B020DB60D920EB60D928091F6021E
:1056F0009091F70201979093F7028093F602892B1D
:1057000009F435C00E944714882311F00E945016F6
:10571000A0918A02B0918B02CD91CDBFDD91DEBF09
:10572000FF91EF91DF91CF91BF91AF919F918F91B9
:105730007F916F915F914F913F912F911F910F91A9
:10574000FF90EF90DF90CF90BF90AF909F908F90A1
:105750007F906F905F904F903F902F901F900F9091
:105760000CBE0F900BBE0F900FBE0F9008950E94BD
:105770006A038091F4029091F5029093F70280936E
:10578000F602C0CF0E94462B18950F920FB6F894E0
:105790000F920BB60F920CB60F921F9211242F92FC
:1057A0003F924F925F926F927F928F929F92AF92B1
:1057B000BF92CF92DF92EF92FF920F931F932F939E
:1057C0003F934F935F936F937F938F939F93AF9389
:1057D000BF93CF93DF93EF93FF93A0918A02B09191
:1057E0008B020DB60D920EB60D920E945016A0912E
:1057F0008A02B0918B02CD91CDBFDD91DEBFFF91CA
:10580000EF91DF91CF91BF91AF919F918F917F9158
:105810006F915F914F913F912F911F910F91FF9049
:10582000EF90DF90CF90BF90AF909F908F907F9040
:105830006F905F904F903F902F901F900F900CBEF5
:105840000F900BBE0F900FBE0F90089580914102F4
:1058500090914202089580913F02909140020895F4
:1058600008950F931F93CF93DF93009789F0EC0176
:1058700024974A815B812091F8023091F902C90195
:1058800084239523892B21F088819981892B29F004
:10589000DF91CF911F910F9108952095309524238A
:1058A00035233B832A830E94E4110A811B81809166
:1058B000410290914202800F911F90934202809387
:1058C0004102ECEFF4E101C0FC01808191818C1771
:1058D0009D07D0F3BF019F0142815381CF01840F07
:1058E000951FC817D90749F1FE019E01EB01A88158
:1058F000B981200F311FA217B30759F0B183A083DC
:105900006E177F0719F0DB01ED93FC930E94FE16E2
:10591000BFCF8091FA029091FB02A817B90771F3EB
:1059200012968D919C911397800F911F9383828380
:105930008D919C9191838083E3CFCA01800F911F49
:10594000938382838C01D2CFA0E0B0E0EAEAFCE24C
:105950000C945D35EC010E94E4118091FA02909163
:10596000FB02892B99F04091F8025091F902CE0187
:1059700084239523892BE1F1C0E0D0E00E94FE163C
:10598000CE01CDB7DEB7EAE00C9479358DEF92E029
:105990009093FD148093FC141092FF141092FE1447
:1059A00028EF34E13093FB022093FA021092FB14AB
:1059B0001092FA141092F9141092F8148BEF91E1EE
:1059C000909300038093FF023093FE022093FD0228
:1059D00080914102909142020497909342028093F9
:1059E000410280E090E89093F9028093F802BBCFE7
:1059F000209711F2BE016C5F7F4F09F4BDCFA090DC
:105A00004102B0904202A616B70608F4B5CF009145
:105A1000FC141091FD14ACEFB4E106C088819981AB
:105A2000009741F08C01DE01E801EA81FB81E61775
:105A3000F707A0F3E090FA02F090FB020E151F05A5
:105A400009F49ACFCD90DC901197E8018881998173
:105A50008D939C93CF01861B970B8930910590F114
:105A6000D801A60FB71F13969C938E931297F80137
:105A700073836283ECEFF4E101C0FC0180819181CA
:105A80008A179B07D0F3EF019F0162817381CF01D9
:105A9000860F971FA817B90799F1FD019D01628133
:105AA0007381A881B981260F371FA217B307B9F1F7
:105AB000B183A083CE17DF0761F1F983E883E801A2
:105AC000EA81FB8195012E1B3F0B3093420220930C
:105AD000410280913F02909140022817390720F43B
