:100000000C9470030C9492030C9492030C9492033E
:100010000C9492030C9492030C9492030C9492030C
:100020000C9492030C9492030C9492030C949203FC
:100030000C9492030C9492030C9492030C949203EC
:100040000C9492030C9492030C9492030C949203DC
:100050000C9492030C9492030C9492030C949203CC
:100060000C9492030C942C160C943F170C9492034E
:100070000C9492030C9492030C9492030C949203AC
:100080000C941A2F0C9492030C9492030C94041366
:100090000C9402160C9415170C9492030C943330A4
:1000A0000C9492030C94FD0D0C9492030C94920307
:1000B0000C9492030C94B30D0C94880E0C94920340
:1000C0000C9492030C9492030C94D80D0C94D815B4
:1000D0000C94EB160C9492030C94AE150C94C11670
:1000E0000C949203CB23B723A3237D23BC20BC20F5
:1000F000BC20BC20BC20F422D022BC22BC20BC20CE
:10010000BC205822BC201622F821C7218620B3210A
:100110009F218B21772163214F211221FE20D7209F
:100120003A232623BC201223342276228A229E22BE
:10013000BC20BC20BC204E2391304A304A304A308B
:100140004A304A304A304A3091304A304A304A3098
:100150004A304A304A304A3093304A304A304A3086
:100160004A304A304A304A30CB304A304A304A303E
:100170004A304A304A304A3093304A304A304A3066
:100180004A304A304A304A30CB304A304A304A301E
:100190004A304A304A304A30D3304A304A304A3006
:1001A0004A304A304A304A3003314A304A304A30C5
:1001B0004A304A304A304A304A304A304A304A306F
:1001C0004A304A304A304A3079304A304A304A3030
:1001D0004A304A304A304A30BA304A304A304A30DF
:1001E0004A304A304A304A3000314A304A304A3088
:1001F0004A304A304A304A3000314A304A304A3078
:100200004A304A304A304A30EB304A304A304A307D
:100210004A304A304A304A30EB304A304A304A306D
:100220004A304A304A304A3064304A304A304A30E4
:100230004A304A304A304A308D304A304A304A30AB
:100240004A304A304A304A3064304A304A304A30C4
:100250004A304A304A304A308D304A304A304A308B
:100260004A304A304A304A30D7304A304A304A3031
:100270004A304A304A304A30A8304A304A304A3050
:100280004A304A304A304A30A8304A304A304A3040
:100290004A304A304A304A30AA304A304A304A302E
:1002A0004A304A304A304A30DD304A304A304A30EB
:1002B0004A304A304A304A3075300D0A0A0A476FD0
:1002C0006F646279652E2E2E206E6F2073706163CD
:1002D0006520666F722069646C65207461736B21A0
:1002E0000D0A000D0A0A0A48656C6C6F20576F7280
:1002F0006C64210D0A006E616E00696E660000403C
:100300007A10F35A00A0724E18090010A5D4E80024
:1003100000E87648170000E40B54020000CA9A3B3C
:10032000000000E1F50500008096980000004042C2
:100330000F000000A0860100000010270000000050
:10034000E803000000006400000000000A00000054
:1003500000000100000000002C76D888DC674F0800
:1003600023DFC1DFAE59E1B1B796E5E3E453C63A06
:10037000E651997696E8E6C28426EB898C9B62ED7D
:10038000407C6FFCEFBC9C9F40F2BAA56FA5F49037
:10039000055A2AF75C936B6CF9676DC11BFCE0E4AE
:1003A0000D47FEF520E6B500D0ED902E0300943504
:1003B00077050080841E080000204E0A000000C857
:1003C0000C333333330F986E12831141EF8D2114A8
:1003D000893BE65516CFFEE6DB18D1844B381BF778
:1003E0007C1D901DA4BBE424203284725E22810017
:1003F000C9F124ECA1E53D27A0E0B0E0E2E0F2E0A5
:100400000C94D454E9E0CE2EAA24A39488248A9490
:10041000982C7724739405C00F900FBEBB2009F071
:100420005FC08091611C882309F480C08091561CB4
:100430008F5F8093561CB090A61C0FB6F8940F9255
:100440008091561C81508093561C8091561C8823A5
:1004500019F78091501C8823F9F280919D1C882304
:1004600071F1E091A21CF091A31CC681D781CE014D
:100470000C960E9415528E010E5F1F4FC8010E94FC
:1004800015529E898091511C891718F49093511C24
:100490009E899C9DC00111248D59934EB8010E94E4
:1004A000C451E0914E1CF0914F1C9E89868998178B
:1004B000A0F2A092521C80919D1C882391F68091FD
:1004C0005F1C882309F04DC08091521C813009F0D7
:1004D000A3CF0E941D2F0F900FBEBB2009F4A1CF08
:1004E0000FB6F8940F92E091AB1CF091AC1C068112
:1004F0001781C80102960E9415528091501C8150AC
:100500008093501C8091611C81508093611C0F90DE
:100510000FBEF8018789908D0E946F31C8010E943B
:100520006F318091611C882309F080CF8091631C1A
:10053000823008F476CF0E941D2F73CF80915F1C0C
:100540008F5F80935F1CDD248091521C882309F00B
:1005500095C0DD2009F092C080915F1C815080938E
:100560005F1C80915F1C882309F4AECF8091561CDC
:10057000882321F78091531C9091541C01969093ED
:10058000541C8093531CE090531CF090541CE114B5
:10059000F10409F52091991C30919A1C80919B1CC3
:1005A00090919C1C90939A1C8093991C30939C1C56
:1005B00020939B1C8091551C8F5F8093551CE0916C
:1005C000991CF0919A1C8081882309F073C0909245
:1005D000B0098092AF098091AF099091B009E816F7
:1005E000F90608F44EC0DD24E091991CF0919A1CA4
:1005F00080818823F1F1E091991CF0919A1C05808B
:10060000F681E02DC681D7818A819B81E816F906A3
:1006100008F461C08E010E5F1F4FC8010E94155281
:100620008C899D89892B21F0CE010C960E94155250
:100630009E898091511C891718F49093511C9E89B2
:100640009C9DC00111248D59934EB8010E94C45144
:10065000E0914E1CF0914F1C9E898689981720F2DC
:10066000DD24D394E091991CF0919A1C8081882319
:1006700011F69092B0098092AF0904C07092521C9A
:100680006BCFDD24E0914E1CF0914F1C868990E0E9
:10069000FC01EE0FFF1FEE0FFF1FEE0FFF1FE80F15
:1006A000F91FED59F34E8081823008F44DCFDD24DF
:1006B000D3944ACFE091991CF0919A1C0580F68161
:1006C000E02D0680F781E02D828193819093B0091F
:1006D0008093AF0980CF9093B0098093AF09D2CFB8
:1006E00011241FBECFEFD1E2DEBFCDBF00E00CBFB3
:1006F00019E0A0E0B2E0ECE1FAEA00E00BBF02C0D2
:1007000007900D92AE3FB107D9F71BBE1DE1AEEFCA
:10071000B9E001C01D92A93FB107E1F70E94450C65
:100720000C940C550C9400008F938FB78F93F89412
:100730008091F51D8F5F8093F51D8091F61D8F4F81
:100740008093F61D8091F71D8F4F8093F71D809148
:10075000F81D8F4F8093F81D8F918FBF8F91089553
:10076000A1E1B0E0E6EBF3E00C94CF543C017F87CD
:100770006E876A01FC0117821682838181FD03C0A6
:100780006FEF7FEF71C39E012F5F3F4F398B288B37
:10079000F3012381EE85FF8523FD859123FF819160
:1007A000FF87EE87882309F45CC3853251F4EE8518
:1007B000FF8523FD859123FF8191FF87EE87853299
:1007C00029F490E0B3010E949008E2CF982F10E046
:1007D000882499241032B0F49B3269F09C3228F4BA
:1007E000903251F0933271F40BC09D3239F0903356
:1007F00049F4116028C01260146025C0186023C03D
:10080000106121C017FD2AC0892F80538A3078F4E7
:1008100016FF06C0FAE09F9E902C1124980E13C07C
:100820003AE0839E802C1124880E10620CC09E3208
:1008300021F416FD16C3106406C09C3611F410682E
:1008400002C0983659F4EE85FF8523FD959123FF6C
:100850009191FF87EE87992309F0BCCF892F8554AA
:10086000833020F4812F8061905E07C0892F8556E8
:10087000833008F0A1C1812F8F7E86FD02C076E013
:10088000972E6FE3F62EF822953619F4F0E4FF2A3E
:1008900007C0963619F420E8F22A02C091109A9403
:1008A000F7FE0BC03BE3391520F427E05CE3B52EDF
:1008B0000EC0B92CB39427E00AC047E0491528F4CC
:1008C00027E0BB2447E0942E02C0292DBB24C6019B
:1008D00004969D878C87F601608171818281938166
:1008E000AE014F5F5F4F0B2D0E9439076C010981EC
:1008F000202E332400FF04C003FD02C01DE209C006
:10090000F1FE02C01BE205C0F2FC02C010E001C013
:1009100010E2C1018C709070892BB9F1112311F490
:1009200083E001C084E0881510F088240AC0881A8A
:10093000F3FC07C080E290E0B3010E9490088A9423
:10094000C9F7112329F0812F90E0B3010E9490088C
:1009500023FE03C006EF12E00EC00AEF12E00BC048
:10096000E114F10409F0805290E0B3010E94900874
:100970000F5F1F4F05C0EF2CFF24F0E1EF22FF2493
:10098000F8018491882361F714C1F7FE12C0BC0CF2
:1009900024FE04C08A81813309F4BA941B141CF02C
:1009A000BB24B3942DC0F8E0FB1550F538E0B32E0E
:1009B00027C0F6FC25C0892D90E08C159D054CF0D4
:1009C0002CEFC2162FEFD20624F030E8F32A01C034
:1009D0009A94992049F0E2E0F0E0EC0FFD1FE90D58
:1009E000F11D80818033A1F3F7FE0AC0B92CB394C6
:1009F000892D90E0C816D90614F0992401C09C18DE
:100A0000F7FC03C025E030E009C01C141D041CF0F5
:100A100021E030E003C096012F5F3F4F112311F01A
:100A20002F5F3F4F992029F0892D90E00196280FE4
:100A3000391F882D90E02817390714F0882401C049
:100A4000821A4F2C5524C20189709070892B39F07D
:100A500008C080E290E0B3010E9490088A94882048
:100A6000C1F7112329F0812F90E0B3010E94900873
:100A700043FE07C008C080E390E0B3010E949008E5
:100A80008A948820C1F7F7FE46C08601D7FE02C0CF
:100A900000E010E076010894E11CF11CE01AF10A74
:100AA00041E050E04C0F5D1FE40EF51E26014B188F
:100AB0005108892D90E0AA24BB24A81AB90A5FEF37
:100AC0000F3F150729F48EE290E0B3010E949008D1
:100AD000C016D10634F0401651061CF4F70180818F
:100AE00001C080E3015010400894E11CF11C0A157C
:100AF0001B052CF090E0B3010E949008E0CF0C158C
:100B00001D0539F49A81963318F4953311F424FEB7
:100B100081E390E04BC08A81813309F00F7E90E041
:100B2000B3010E9490089920A1F08EE290E0B301F9
:100B30000E94900812E0E1E0F0E0EC0FFD1FE10FF1
:100B4000F11D1F5F808190E0B3010E9490089A948C
:100B500091F744FC03C085E690E002C085E490E094
:100B6000B3010E949008D7FC05C0C114D10441F420
:100B700004FF06C0D094C194D108D3948DE201C083
:100B80008BE290E0B3010E94900880E305C08F5F84
:100B900026EF3FEFC20ED31E3AE0C316D104BCF7D6
:100BA00090E0B3010E949008C601C096B3010E9474
:100BB0009008CC84DD8452C1933631F0933799F09C
:100BC000933509F059C023C0F601808189835E0105
:100BD0000894A11CB11C22E030E0C20ED31E21E01B
:100BE000E22EF12C12C0F601A080B18016FD03C0E8
:100BF0006FEF7FEF02C0692D70E022E030E0C20E9F
:100C0000D31EC5010E946B087C011F7713C0F6013B
:100C1000A080B18016FD03C06FEF7FEF02C0692D89
:100C200070E022E030E0C20ED31EC5010E94110820
:100C30007C01106813FF07C01BC080E290E0B30185
:100C40000E9490088A94882D90E0E816F906A8F38F
:100C50000FC0F50117FD859117FF81915F0190E0AD
:100C6000B3010E94900881108A940894E108F10869
:100C7000E114F10471F7F2C0943611F0993689F558
:100C800017FF08C0F601208131814281538184E041
:100C900090E00AC0F601808191819C01442737FDD4
:100CA0004095542F82E090E0C80ED91E9FE6F92EA1
:100CB000F12257FF09C050954095309521953F4F3F
:100CC0004F4F5F4F90E8F92ACA01B901AE014F5F5B
:100CD0005F4F2AE030E00E943409E82EE889EE1ADE
:100CE00041C0953721F41F7E2AE030E01CC0197FF7
:100CF0009F3661F0903720F4983509F0B2C00FC0EC
:100D0000903739F0983709F0ACC004C028E030E0E3
:100D10000AC0106114FD146020E130E004C014FD2D
:100D2000166020E132E017FF08C0F6016081718192
:100D30008281938144E050E008C0F6018081918176
:100D4000BC0180E090E042E050E0C40ED51EAE0150
:100D50004F5F5F4F0E943409E82E5889E51A8FE7EC
:100D6000F82EF122F6FE0BC08EEFF822E91438F4CB
:100D7000F4FE07C0F2FC05C09FEEF92202C01E2D52
:100D800001C0192DF4FE0DC0FE01EE0DF11D808194
:100D9000803319F4E9EEFE2208C01F5FF2FE05C0A1
:100DA00003C08F2D867809F01F5F0F2DF3FC14C050
:100DB000F0FE0FC0181510F09E2C0BC09E2C980C46
:100DC000911A182D06C080E290E0B3010E949008AD
:100DD0001F5F1815C0F304C0181510F4811A01C064
:100DE000882404FF0FC080E390E0B3010E949008C4
:100DF00002FF1DC001FD03C088E790E00EC088E53A
:100E000090E00BC0802F867891F001FF02C08BE24A
:100E100001C080E2F7FC8DE290E0B3010E949008EF
:100E200006C080E390E0B3010E9490089A94E91410
:100E3000C0F3EA94E1E0F0E0EC0FFD1FEE0DF11DD0
:100E4000808190E0B3010E949008EE2091F706C0E7
:100E500080E290E0B3010E9490088A948820C1F754
:100E600097CCF30166817781CB016196E2E10C9426
:100E7000EB54283008F027E03327DA01990F311DB1
:100E800087FD916000966105710539F432602E5F2F
:100E90003D9330E32A95E1F708959F3F30F0803885
:100EA0007105610509F03C5F3C5F3D93913008F0AE
:100EB0008068911DDF93CF931F930F93FF92EF9262
:100EC000192F987F9695E92F96959695E90FFF270C
:100ED000E85AFC4F99273327EE24FF24A701E701A6
:100EE00005900894079428F4360FE71EF81E491F52
:100EF000511D660F771F881F991F0694A1F7059053
:100F0000079428F4E70EF81E491F561FC11D770FDE
:100F1000881F991F661F0694A1F70590079428F46F
:100F2000F80E491F561FC71FD11D880F991F661F36
:100F3000771F0694A1F70590079420F4490F561FD8
:100F4000C71FD81F990F661F771F881F0694A9F720
:100F500084911095177041F0D695C7955795479590
:100F6000F794E7941A95C1F7EEEFF2E068941590C4
:100F7000159135916591959105907FE27395E118F2
:100F8000F10A430B560BC90BD009C0F7E10CF11E57
:100F9000431F561FC91FD01D7EF4703311F48A956C
:100FA000E6CFE894015030F0080F0AF4002702174A
:100FB00008F4202F2395022F7A3328F079E37D93CC
:100FC0002A95E9F710C07D932A9589F6069497959E
:100FD0006795379517951794E118F10A430B560B4F
:100FE000C90BD00998F023957E9173957A3308F058
:100FF00070E37C932013B8F77E9170617D9330F09D
:10100000839571E37D9370E32A95E1F71124EF90C6
:10101000FF900F911F91CF91DF91992787FD9095B8
:101020000895FC010590615070400110D8F780953B
:1010300090958E0F9F1F0895FB01DC0102C0019067
:101040000D9241505040D8F70895DC0101C06D93D6
:1010500041505040E0F70895FB01DC010D90002065
:10106000E9F7119701900D920020E1F70895FB0137
:10107000DC0101900D920020E1F70895FB01DC01F5
:101080000D900020E9F711974150504028F0019051
:1010900000200D92C9F708951C920895FB01DC0110
:1010A0004150504030F08D910190801919F400208A
:1010B000B9F7881B990B0895FB01DC0141505040A2
:1010C00048F001900D920020C9F701C01D924150D7
:1010D0005040E0F70895FC0161507040019001100C
:1010E000D8F7809590958E0F9F1F0895FB01519121
:1010F0005523A9F0BF01DC014D9145174111E1F7DE
:1011000059F4CD010190002049F04D914015411155
:10111000C9F3FB014111EFCF81E090E00197089501
:101120000F931F93CF93DF938C01EB018B8181FF92
:101130001BC082FF0DC02E813F818C819D812817AD
:10114000390764F4E881F9810193F983E88306C0E3
:10115000E885F985802F1995892B31F48E819F813F
:1011600001969F838E8302C00FEF1FEFC801DF91AE
:10117000CF911F910F910895AEE0B0E0E2ECF8E05E
:101180000C94DD540E891F8986E08C831A830983B1
:101190008FEF9FE79E838D839E01265E3F4FCE019A
:1011A0000196688D798DA9010E94B0032F81388541
:1011B000020F131FF80110822E96E4E00C94F954EC
:1011C000AEE0B0E0E6EEF8E00C94DD548C0177FF81
:1011D00002C060E070E8615070407E836D831A83C6
:1011E000098386E08C83CE010196BA01A9010E9491
:1011F000B0032D813E8137FD09C0EF81F8852E17A0
:101200003F070CF4F901E00FF11F10822E96E4E085
:101210000C94F954AEE0B0E0E0E1F9E00C94DD5458
:101220008C0177FF02C060E070E8615070407E83FF
:101230006D831A8309838EE08C83CE010196BA01F7
:10124000A9010E94B0032D813E8137FD09C0EF81C5
:10125000F8852E173F070CF4F901E00FF11F1082FB
:101260002E96E4E00C94F954FA01AA27283051F1A3
:10127000203181F1E8946F936E7F6E5F7F4F8F4FC7
:101280009F4FAF4FB1E03ED0B4E03CD0670F781F26
:10129000891F9A1FA11D680F791F8A1F911DA11D0B
:1012A0006A0F711D811D911DA11D20D009F4689444
:1012B0003F912AE0269F11243019305D3193DEF6EC
:1012C000CF010895462F4770405D4193B3E00FD0A2
:1012D000C9F7F6CF462F4F70405D4A3318F0495D8D
:1012E00031FD4052419302D0A9F7EACFB4E0A69570
:1012F0009795879577956795BA95C9F70097610592
:10130000710508959B01AC010A2E069457954795E7
:1013100037952795BA95C9F7620F731F841F951FDC
:10132000A01D089583E090E09093BB1C8093BA1CAD
:101330009093B91C8093B81C1092BE1C08958091A4
:10134000BE1C8823C1F082E090E00E94710D8055A0
:101350009A402FEF8C3992071CF0853691059CF04E
:101360008091BA1C9091BB1C4DEC5CEC6CEC7DE365
:101370000E94F810089584E090E040E050E060E8BA
:101380007FE30E94F8100895CF93DF930E944812E4
:10139000EC010E944D12BC018C179D0774F4CE0124
:1013A000861B970B039764F584E090E060E070E0A3
:1013B0000E94A710DF91CF910895C817D907A4F70D
:1013C0008C1B9D0B039784F3CB01BE010E949A54A2
:1013D000660F771F660F771FCB01880F991F880F45
:1013E000991F680F791F83E090E00E94A71083E0A7
:1013F00090E09093B91C8093B81CDF91CF91089531
:10140000CE010E949A54660F771F660F771FCB019B
:10141000880F991F880F991F680F791F82E090E04D
:101420000E94A71082E090E09093B91C8093B81CB2
:10143000DF91CF9108950E9448124F971CF021E050
:10144000822F08950E944D1220E04F97C4F7822FFB
:1014500008950E941B0A882359F51092BE1C82E051
:1014600090E00E94710D24E0813B920798F482E0A5
:1014700090E09093BB1C8093BA1C9093B91C80930E
:10148000B81C8091BA1C9091BB1C62E370E00E9472
:10149000A71008958C55924188F083E090E09093D6
:1014A000BB1C8093BA1C9093B91C8093B81CE9CFE5
:1014B0000E94C40981E08093BE1C08958091B81CED
:1014C0009091B91C9093BB1C8093BA1CDACF809189
:1014D000BF1C9091C01C009761F081309105A9F06C
:1014E0000297029760F081E061E041E00E942A0CDF
:1014F000089580E061E040E00E942A0C089580E0B9
:1015000060E041E00E942A0C089581E060E040E044
:101510000E942A0C0895A0E2B0E0E1E9FAE00C9400
:10152000D7548091C21C882309F082C00E945212B5
:1015300019821A821B821C828CE0FE013596DF0123
:10154000282F1D922A95E9F7198A1A8A1B8A1C8A64
:10155000FE017596DF011D928A95E9F70E94DB0F67
:101560007B018C010E94F40F2DB73EB72C50304008
:101570000FB6F8943EBF0FBE2DBFEDB7FEB7319644
:1015800021E1A22EB12CAC0EBD1EADB7BEB7129696
:10159000BC92AE92119720E032E033832283E48242
:1015A000F5820683178360877187828793870E94FD
:1015B000BC082DB73EB7245F3F4F0FB6F8943EBF2F
:1015C0000FBE2DBF0E9443126C010E9448127C0185
:1015D0000E944D12ADB7BEB71A970FB6F894BEBFB2
:1015E0000FBEADBFEDB7FEB731968E010F5F1F4F37
:1015F00012961C930E93119720E132E033832283DD
:10160000D582C482F782E682918780870E94BC08D7
:101610002DB73EB7265F3F4F0FB6F8943EBF0FBEC3
:101620002DBFC801B5010E94DF0B81E08093C21C71
:10163000A096EAE00C94F3548091C61C882389F4A8
:101640008091BC1C9091BD1C009761F0019731F016
:1016500085E090E060E070E00E94A71081E0809358
:10166000C61C08950E94290A81E08093C61CF9CF08
:101670008091C51C811108950E94661081E08093BD
:10168000C51C08958091C11C882399F48091BC1CCD
:101690009091BD1C009771F0019741F084E090E0BB
:1016A00040E050E060E87FE30E94F81081E0809322
:1016B000C11C08950E949F0981E08093C11CF9CF4D
:1016C0000E94380B0E94420B0E941C0B0E948B0A46
:1016D0000E94670AF5CF84E690E00E94F212882308
:1016E00009F581E090E00E94F212882311F0109237
:1016F000C51C82E090E00E94F212882311F0109243
:10170000C11C8CE090E00E94F212882311F010922C
:10171000C21C82E090E00E94F212882311F0109225
:10172000C61C08950E94E62B0E94FC1B8091BF1CE2
:101730009091C01C84309105A1F201969093C01C39
:101740008093BF1CCECF0E946B0B08950E941B0C90
:101750000E94CA120E94000C0E940C1283EA9BE0B5
:101760000E94CE120E9492091092C01C1092BF1CBF
:101770001092C51C1092C21C1092C61C1092C11C63
:1017800083E090E09093C41C8093C31C85E090E0BC
:1017900060E070E00E94A7101092BD1C1092BC1C6B
:1017A00008951F93182F81E090E06EEF0E9443137D
:1017B00081E090E0612F0E9443131F910895EF9202
:1017C000FF920F931F938C017B0181E090E00E94B8
:1017D000D10B80E890E00E94D10B81E090E0B8014D
:1017E0000E94B51880EC90E00E94D10B81E090E05F
:1017F000B7010E94B5181F910F91FF90EF900895C7
:101800000F931F9381E090E040E855E260E070E0C4
:101810002FEF30E000E410E00E945F1A539A5B9AC9
:101820008CE090E00E94D10B81E090E00E94D10B0F
:101830001F910F910895E1E0F1E08081886080833D
:101840006B9A6D9AE2E0F1E0808188608083739A00
:10185000759A0895882361F080910201877F8093B3
:101860000201662361F07398442361F4759A089528
:10187000809102018860809302016623A1F7739A28
:101880004423A1F375980895FFCFEF92FF920F9331
:101890001F93789480E090E040E052EC61E070E0CB
:1018A0002FEF30E000E410E00E945F1A7C0182E03C
:1018B00090E040E855E260E070E02FEF30E00E94F9
:1018C0005F1A40E855E260E070E09701E12CE2EC3D
:1018D000FE2EE1E00E2F112D0E94E9288FE192E00B
:1018E0000E9439290E94DA2684E292E06AE272E0DC
:1018F00041E050E00E943B2A80E362E372E00E94F4
:10190000B22981E36BE372E00E94B22982E365E4CD
:1019100072E00E94B22983E36FE472E00E94B22970
:101920000E94772683EE92E00E94AD180E94A60BDB
:101930000E94600B8AEB92E00E94AD1880E090E07C
:101940001F910F91FF90EF9008959C01DC01AA0F69
:10195000BB1FAC01440F551F440F551F440F551FAB
:10196000FD01E40FF51FE152F64F0190F081E02DEB
:10197000808191818C54944085579E4020F080E571
:101980009AE091838083F901EE0FFF1FEE0FFF1F96
:10199000E20FF31FEE0FFF1FEF51F64F0190F081A2
:1019A000E02DA40FB51FA152B64F14964D915C9136
:1019B0001597208181E090E016960C90169702C052
:1019C000880F991F0A94E2F7282B2083FA012081BF
:1019D0008095822380831896ED91FC91199700845D
:1019E000F185E02D20811796AC91A13069F0A130EE
:1019F00030F480E89FEB822B892380830895A23006
:101A0000E9F788E09BEFF7CF80E29FEEF4CFCF932A
:101A1000DF93FC01EE0FFF1FEE0FFF1FE80FF91F12
:101A2000EE0FFF1FEF51F64F40815181DC01AA0FED
:101A3000BB1FAA0FBB1FAA0FBB1F880F991FA80FA0
:101A4000B91FA152B64F1496ED91FC911597EA017A
:101A5000288181E090E016960C90169702C0880FBE
:101A6000991F0A94E2F7282B2883208180958223EE
:101A700080831896ED91FC9119970084F185E02DF3
:101A8000908117968C91813069F0813030F48FE32A
:101A900089238083DF91CF910895823029F0DF91EF
:101AA000CF9108958FECF4CF83EFF2CF9C01CB015F
:101AB0008C54944085579E4098F4C901F901EE0F6B
:101AC000FF1FEE0FFF1FEE0FFF1F880F991FE80F7C
:101AD000F91FE152F64F0190F081E02D7183608390
:101AE00008959C01FC01EE0FFF1FEE0FFF1FEE0F8C
:101AF000FF1F220F331FE20FF31FE152F64F019039
:101B0000F081E02D20813181C9010895CF93DF93C9
:101B1000DC01EB01F894FC01EE0FFF1FEE5EF54FC8
:101B200080819181019739F020E030E07894C901FB
:101B3000DF91CF910895AA0FBB1FAA0FBB1FA65F0D
:101B4000B54F8D919D910D90BC91A02D8883998367
:101B5000AA83BB831182108221E030E07894C9010E
:101B6000DF91CF9108951F920F920FB60F9211241B
:101B70008F939F93AF93BF938091FE099091FF093C
:101B8000A091000AB091010A0196A11DB11D809398
:101B9000FE099093FF09A093000AB093010ABF9138
:101BA000AF919F918F910F900FBE0F901F9018953E
:101BB0001F920F920FB60F9211248F939F93AF93A2
:101BC000BF938091020A9091030AA091040AB091F8
:101BD000050A0196A11DB11D8093020A9093030A84
:101BE000A093040AB093050ABF91AF919F918F9182
:101BF0000F900FBE0F901F9018951F920F920FB667
:101C00000F920BB60F921124EF92FF920F931F9336
:101C10002F933F934F935F936F937F938F939F93F4
:101C2000AF93BF93CF93DF93EF93FF93E091BF09FF
:101C3000F091C009808180628083E091C509F091B4
:101C4000C609C081D1812091FE093091FF094091E0
:101C5000000A5091010A1092FE091092FF09109299
:101C6000000A1092010A211531054105510509F4B8
:101C700044C08091060A9091070A7E0100E010E0BE
:101C8000A0E0B0E0E81AF90A0A0B1B0BCA01B9017F
:101C90002FE33CE940E050E00E946754E60EF71E57
:101CA000081F191FE0920A0AF0920B0A00930C0A0F
:101CB00010930D0A81E090E09093130A8093120A2A
:101CC000D093070AC093060AFF91EF91DF91CF915D
:101CD000BF91AF919F918F917F916F915F914F9144
:101CE0003F912F911F910F91FF90EF900F900BBE9E
:101CF0000F900FBE0F901F9018958091060A90913B
:101D0000070A9E01281B390B790100E010E0CACFB9
:101D10001F920F920FB60F920BB60F921124EF92F3
:101D2000FF920F931F932F933F934F935F936F9364
:101D30007F938F939F93AF93BF93CF93DF93EF9353
:101D4000FF93A091BD09B091BE09ED91FC9111974F
:101D50008081806280831696ED91FC911797C081F7
:101D6000D1812091020A3091030A4091040A5091D6
:101D7000050A1092020A1092030A1092040A1092A5
:101D8000050A211531054105510509F444C080912A
:101D9000080A9091090A7E0100E010E0A0E0B0E09E
:101DA000E81AF90A0A0B1B0BCA01B9012FE33CE937
:101DB00040E050E00E946754E60EF71E081F191F0E
:101DC000E0920E0AF0920F0A0093100A1093110A83
:101DD00081E090E09093150A8093140AD093090A49
:101DE000C093080AFF91EF91DF91CF91BF91AF911E
:101DF0009F918F917F916F915F914F913F912F9123
:101E00001F910F91FF90EF900F900BBE0F900FBEA0
:101E10000F901F9018958091080A9091090A9E01D1
:101E2000281B390B790100E010E0CACF8091A00097
:101E30008F738093A0008091A0008F7C8093A0007E
:101E40008091A000837F8093A0008091A00090915A
:101E5000A100836098618093A0009093A10080917D
:101E6000A10082608A7F8093A1002EE33CE9309339
:101E7000A9002093A800809120018F7380932001F6
:101E8000809120018F7C8093200180912001837FAD
:101E900080932001809120019091210183609861BD
:101EA00080932001909321018091210182608A7F9B
:101EB0008093210130932901209328011092070A71
:101EC0001092060A1092FE091092FF091092000A61
:101ED0001092010A80910A018E7F80930A018091FD
:101EE0000B018E7F80930B01E091C109F091C20933
:101EF000808180628083808181608083E091C909D4
:101F0000F091CA098081806480831092090A10923E
:101F1000080A1092020A1092030A1092040A109200
:101F2000050A80910A018D7F80930A0180910B013F
:101F30008D7F80930B01A091BD09B091BE091296CF
:101F4000ED91FC9113978081806280831296ED91D0
:101F5000FC9113978081816080831A96ED91FC91AA
:101F60001B978081806480830895882391F4CB013E
:101F7000BA0120E030E840EC54EC0E94045420E028
:101F800030E045E255E40E944D520E941D53CB01C2
:101F90000895CB01BA0120E030E047E055E40E940B
:101FA000045420E030E045E255E40E944D520E9486
:101FB0001D53CB0108956091D91C7091DA1C80915A
:101FC000DB1C9091DC1C2091DD1C3091DE1C4091CB
:101FD000DF1C5091E01C0E944D5220E030E040E0B8
:101FE0005FE30E94045408956091C91C7091CA1C5B
:101FF0008091CB1C9091CC1C2091CD1C3091CE1C9B
:102000004091CF1C5091D01C0E944D5220E030E0F6
:1020100040E05FE30E9404540895CF92DF92EF9274
:10202000FF920F931F938C01F42EE52ED62EC72E10
:1020300060E070E00E94860D019769F12F2D3E2D22
:102040004D2D5C2DC901DA016C017D01000F111FBE
:10205000000F111F0753134EC701B60120E030E0F7
:1020600048EC52E40E94B5529B01AC01F80160813A
:102070007181828193810E944D52F8016083718346
:1020800082839383B601C7011F910F91FF90EF9058
:10209000DF90CF90089560910000709101008091D1
:1020A0000200909103000E944E532DEB37E346E06F
:1020B00055E30E9404549B01AC016CE772EF80EB86
:1020C0009BE30E94B5526B017C01C0CF4091D11CB3
:1020D0005091D21C6091D31C7091D41C80E090E090
:1020E0000E940D106093D91C7093DA1C8093DB1C46
:1020F0009093DC1C4091D51C5091D61C6091D71C4C
:102100007091D81C81E090E00E940D106093DD1C5E
:102110007093DE1C8093DF1C9093E01C2091D91CEF
:102120003091DA1C4091DB1C5091DC1C2093D11CB7
:102130003093D21C4093D31C5093D41C6093D51C75
:102140007093D61C8093D71C9093D81C08950F933E
:102150001F93CF93DF93EC018B0182E090E00E940C
:10216000710DBC01C330D10569F0C230D105C9F091
:10217000C530D10571F1249719F1DF91CF911F91ED
:102180000F910895601B710B82E090E00E94560D44
:1021900082E090E00E94A50CDF91CF911F910F91FA
:1021A0000895600F711F82E090E00E94560D82E05A
:1021B00090E00E94A50CDF91CF911F910F9108959F
:1021C00082E090E00E94070DDF91CF911F910F9167
:1021D000089582E090E066E87BE00E94560D82E080
:1021E00090E00E94A50CDF91CF911F910F9108956F
:1021F000A0E0B0E0EEEFF0E10C94D354EC013A0132
:102200004B01A090D51CB090D61CC090D71CD0908C
:10221000D81CE090D11CF090D21C0091D31C1091DE
:10222000D41CC601B501A80197010E9400541816DC
:102230000CF05CC0C601B50120E030E040E050E0A9
:102240000E94B152882309F451C0C801B701A60108
:1022500095010E94B5527B018C0160E070E080E83E
:102260009FE3209709F053C0A40193010E940454F6
:1022700020E030E047E055E40E94045420E030E0E4
:1022800045E255E40E944D520E941D539B01AC0152
:1022900080E090E0B9010E94560D80E090E00E943D
:1022A000A50CC801B701A40193010E94045420E0C9
:1022B00030E840EC54EC0E94045420E030E045E269
:1022C00055E40E944D520E941D539B01AC0181E0D8
:1022D00090E0B9010E94560D81E090E00E94A50CAB
:1022E000CDB7DEB7EEE00C94EF5496C0C601B50151
:1022F000A80197010E94B1528823E4F060E070E0E9
:1023000080E89FE37B018C01209709F4ADCFC130B9
:10231000D105A1F1C330D10509F458C0C230D105AF
:1023200021F1249709F45BC0CDB7DEB7EEE00C9441
:10233000EF5472C0C801B70120E030E040E050E047
:102340000E94B1528823D1F2C601B501A8019701BC
:102350000E94B5520F2EF0E0EF2EF0E0FF2EF0E8D5
:102360000F2FFFE31F2FF02DCFCFA40193010E9469
:10237000045420E030E840EC54EC7ECFA4019301FB
:102380000E94045420E030E840EC54EC0E940454D5
:1023900020E030E045E255E40E944D520E941D537A
:1023A0009B01AC0180E090E0B9010E94560D80E0F5
:1023B00090E00E94A50CC801B701A40193010E94FE
:1023C000045420E030E047E055E475CFA4019301C8
:1023D0000E94045420E030E047E055E4D7CF81E08C
:1023E00090E00E94070D80E090E00E94070D80E0E1
:1023F00090E0A0E0B0E08093D51C9093D61CA09311
:10240000D71CB093D81C8093D11C9093D21CA0935E
:10241000D31CB093D41C88CF0E94160F80E090E0AC
:10242000A0E0B0E08093DD1C9093DE1CA093DF1C45
:10243000B093E01C8093D91C9093DA1CA093DB1C12
:10244000B093DC1C8093D51C9093D61CA093D71C12
:10245000B093D81C8093D11C9093D21CA093D31C12
:10246000B093D41C8093C91C9093CA1CA093CB1C1E
:10247000B093CC1C8093CD1C9093CE1CA093CF1C0A
:10248000B093D01C08958091F51C9091F61C08958E
:102490008091F31C9091F41C08958091F11C90910F
:1024A000F21C0895A4E0B0E0E8E5F2E10C94CF540A
:1024B00001EE1CE1CC24DD24AA24BB248824992429
:1024C0005EEFE52E5FEFF52E2E010894411C511CA6
:1024D00043E0642E712C6C0E7D1E31ED232E3324CF
:1024E00033940BC0A80EB91E0E5F1F4F0894E11C59
:1024F000F11C2CE1013F1207F9F020ED29838E2D0C
:102500008C5F8A832B823C82C20162E00E94B82FDA
:10251000C30162E00E94B82FC80162E00E9403304C
:10252000F801818190E0C80ED91EF4E0EF16F104A5
:10253000C8F2880E991ED8CFD594C794D594C79465
:10254000D594C794D092F61CC092F51CB594A7946C
:10255000B594A794B092F41CA092F31C9594879420
:10256000959487949092F21C8092F11C2496E2E15B
:102570000C94EB540E945212E2EEFCE1A6E1BAE0A8
:1025800080818D9332968CE1E23FF807C9F786E1AE
:102590009AE0089580EC0E940C3108951092F81C86
:1025A0001092F71C9093FA1C8093F91CA1E7B0E0FD
:1025B0008C918E7F8C9310929000E1E9F0E0108274
:1025C0008FE89DEF909395008093940080818460C4
:1025D00080838C9181608C9308958091F71C9091F9
:1025E000F81C0895BC012091F71C3091F81CC9011A
:1025F0000E949A54892B11F080E0089580E0232BEB
:1026000009F4089581E008951F920F920FB60F927A
:102610000BB60F9211242F933F934F935F936F93B9
:102620007F938F939F93AF93BF93EF93FF9380918B
:10263000F71C9091F81C01969093F81C8093F71C5E
:102640008FE89DEF9093950080939400E091F91CA2
:10265000F091FA1C1995FF91EF91BF91AF919F9165
:102660008F917F916F915F914F913F912F910F903B
:102670000BBE0F900FBE0F901F90189590931F0ADE
:1026800080931E0A08959C01FC01EE0FFF1FEE0FC0
:10269000FF1FE80FF91FEE0FFF1FE25DF64F0190DD
:1026A000F081E02D808185FD07C095E8892F8A950E
:1026B000F1F7808185FFFACFF901EE0FFF1FEE0FD2
:1026C000FF1FEE0FFF1F220F331FE20FF31FE45D0A
:1026D000F64F0190F081E02D60830895AC01FC017C
:1026E000EE0FFF1FEE0FFF1FE80FF91FEE0FFF1F8A
:1026F000E25DF64F0190F081E02D808187FD07C0FB
:1027000025E8822F8A95F1F7808187FFFACF8081B3
:102710008C7191F4FA01EE0FFF1FEE0FFF1FEE0F09
:10272000FF1F440F551FE40FF51FE45DF64F0190A6
:10273000F081E02D808108958FEF08959C01FC01C8
:10274000EE0FFF1FEE0FFF1FE80FF91FEE0FFF1F29
:10275000E25DF64FA081B1818C918823CCF5A9016F
:10276000440F551FF901EE0FFF1FEE0FFF1FEE0F75
:10277000FF1FE40FF51FE45DF64F0190F081E02D9F
:1027800080818C9187FDFCCF0FB6F8940F92CA011F
:10279000820F931FFC01EE0FFF1FEE0FFF1FE80FCC
:1027A000F91FEE0FFF1FDF01A550B34E11961C92CB
:1027B0001E92E350F34E16968D919C91179791833C
:1027C000808315969C938E9314970F900FBE089557
:1027D000A901440F551FD8CF0FB6F8940F92FC01F2
:1027E000EE0FFF1FE80FF91FCF01880F991F880F09
:1027F000991FE80FF91FEE0FFF1FE550F34E2081E0
:1028000031810F900FBEC9010895CF93DF939C01D2
:10281000DB010FB6F8940F92AC01440F551FFA017B
:10282000E80FF91FCF01880F991F880F991FE80F34
:10283000F91FEE0FFF1FE550F34E808191810F903D
:102840000FBE892B41F1CA01820F931F9C01220FF9
:10285000331F220F331F820F931F880F991F85503C
:10286000934EEC01EC81FD8121910FB6F8940F920B
:10287000FD83EC8388859985E817F90781F08881C5
:1028800099810197998388830F900FBE2C9381E0E3
:10289000DF91CF91089580E0DF91CF9108958E81EF
:1028A0009F819D838C83EBCFCF93DF93DC010FB6A9
:1028B000F8940F92FC01EE0FFF1FE80FF91FCF01F4
:1028C000880F991F880F991FE80FF91FEE0FFF1F40
:1028D000E550F34EC485D5850F900FBEAD01440F72
:1028E000551FCA018A0F9B1F9C01220F331F220F05
:1028F000331F280F391F220F331FF901E550F34E04
:1029000086899789C817D90791F1C901895F924EC5
:10291000EC01EA81FB8160830FB6F8940F928A8103
:102920009B8101969B838A8328853985821793072B
:1029300009F44EC0888199810196998388830F900C
:102940000FBE91E0AA0FBB1FAA0FBB1FAA0FBB1F90
:10295000A40FB51FA45DB64F1496ED91FC91159789
:10296000808180628083892FDF91CF91089585E8EF
:10297000982F9A95F1F7982F9A95F1F7982F9A95A5
:10298000F1F78A95F1F70FB6F8940F92FA01EA0F72
:10299000FB1FCF01880F991F880F991FE80FF91FA0
:1029A000EE0FFF1FE550F34E848595850F900FBE07
:1029B000C817D90791F0CA018A0F9B1F9C01220FEB
:1029C000331F220F331F820F931F880F991F9ECF33
:1029D0008E819F819B838A83ADCF90E0B3CFFC0132
:1029E000EE0FFF1FEE0FFF1FE80FF91FEE0FFF1F87
:1029F000E25DF64F0190F081E02D808180780895AE
:102A0000FC01EE0FFF1FEE0FFF1FE80FF91FEE0F87
:102A1000FF1FE25DF64F0190F081E02D8081807212
:102A200008959C01FC01EE0FFF1FEE0FFF1FEE0F3C
:102A3000FF1F220F331FE20FF31FE45DF64F0480E8
:102A4000F581E02D80818062808308959C01FC01E6
:102A5000EE0FFF1FEE0FFF1FEE0FFF1F220F331FA2
:102A6000E20FF31FE45DF64F0480F581E02D8081D5
:102A70008F7D80830895CF93DF93AC01FC01EE0F2F
:102A8000FF1FEE0FFF1FE80FF91FEE0FFF1FE25DA4
:102A9000F64F0190F081E02D80818C7109F056C0D5
:102AA000FA01EE0FFF1FCA01880F991F880F991FA7
:102AB000880F991FE80FF91FE45DF64F0190F08130
:102AC000E02D60810FB6F8940F92FA01EE0FFF1F10
:102AD000E40FF51FCF01880F991F880F991FE80F8A
:102AE000F91FEE0FFF1FE550F34E208131810F904B
:102AF0000FBECA01880F991F840F951FFC01EE0FAE
:102B0000FF1FEE0FFF1FE80FF91FEE0FFF1FE5502D
:102B1000F34E8285938528173907C1F0EF01EA81CA
:102B2000FB8160830FB6F8940F928A819B81019696
:102B30009B838A83288539858217930751F0888182
:102B400099810196998388830F900FBEDF91CF9171
:102B500008958E819F819B838A83F1CF1F920F926C
:102B60000FB60F920BB60F9211242F933F934F93F2
:102B70005F936F937F938F939F93AF93BF93EF93E5
:102B8000FF9383E090E00E943B15FF91EF91BF918E
:102B9000AF919F918F917F916F915F914F913F91F5
:102BA0002F910F900BBE0F900FBE0F901F90189596
:102BB0001F920F920FB60F920BB60F9211242F9304
:102BC0003F934F935F936F937F938F939F93AF93B5
:102BD000BF93EF93FF9382E090E00E943B15FF913B
:102BE000EF91BF91AF919F918F917F916F915F9185
:102BF0004F913F912F910F900BBE0F900FBE0F90F2
:102C00001F9018951F920F920FB60F920BB60F924E
:102C100011242F933F934F935F936F937F938F93E1
:102C20009F93AF93BF93EF93FF9381E090E00E9457
:102C30003B15FF91EF91BF91AF919F918F917F9144
:102C40006F915F914F913F912F910F900BBE0F901D
:102C50000FBE0F901F9018951F920F920FB60F92F4
:102C60000BB60F9211242F933F934F935F936F9363
:102C70007F938F939F93AF93BF93EF93FF9380E0E6
:102C800090E00E943B15FF91EF91BF91AF919F9112
:102C90008F917F916F915F914F913F912F910F9005
:102CA0000BBE0F900FBE0F901F901895CF93DF9320
:102CB000DC010FB6F8940F929C01220F331FF9012B
:102CC000E80FF91FCF01880F991F880F991FE80F90
:102CD000F91FEE0FFF1FE550F34E848595850F9089
:102CE0000FBE892BA9F1FD01EE0FFF1FEE0FFF1F95
:102CF000EE0FFF1FE20FF31FE45DF64F408151819D
:102D0000C9018A0F9B1F9C01220F331F220F331F03
:102D1000820F931F880F991F895F924EEC01EC81FF
:102D2000FD8121910FB6F8940F92FD83EC83888585
:102D30009985E817F90701F18881998101979983AD
:102D400088830F900FBEFA012083DF91CF91089501
:102D5000AA0FBB1FAA0FBB1FAA0FBB1FA20FB31F37
:102D6000A45DB64F1496ED91FC91159780818F7DEF
:102D70008083DF91CF9108958E819F819D838C8385
:102D8000DBCF1F920F920FB60F920BB60F9211244A
:102D90002F933F934F935F936F937F938F939F9363
:102DA000AF93BF93EF93FF9383E090E00E9456169A
:102DB000FF91EF91BF91AF919F918F917F916F9113
:102DC0005F914F913F912F910F900BBE0F900FBECF
:102DD0000F901F9018951F920F920FB60F920BB67F
:102DE0000F9211242F933F934F935F936F937F9391
:102DF0008F939F93AF93BF93EF93FF9382E090E005
:102E00000E945616FF91EF91BF91AF919F918F91C4
:102E10007F916F915F914F913F912F910F900BBEDA
:102E20000F900FBE0F901F9018951F920F920FB624
:102E30000F920BB60F9211242F933F934F935F93F2
:102E40006F937F938F939F93AF93BF93EF93FF9372
:102E500081E090E00E945616FF91EF91BF91AF91F3
:102E60009F918F917F916F915F914F913F912F91A2
:102E70000F900BBE0F900FBE0F901F9018951F92D2
:102E80000F920FB60F920BB60F9211242F933F9310
:102E90004F935F936F937F938F939F93AF93BF9362
:102EA000EF93FF9380E090E00E945616FF91EF9120
:102EB000BF91AF919F918F917F916F915F914F9152
:102EC0003F912F910F900BBE0F900FBE0F901F9050
:102ED0001895A0E0B0E0EFE6F7E10C94D9546C014E
:102EE0007B01DB010D900020E9F78D0101501040BE
:102EF000061B170B71F0C0E0D0E0F701EC0FFD1FCF
:102F00002196E491C6016E2F0E945414C017D10778
:102F1000A0F3CDB7DEB7E8E00C94F554BC01809186
:102F20001E0A90911F0A0E9469170895A0E0B0E060
:102F3000ECE9F7E10C94D9546C017B01DB010D90B5
:102F40000020E9F78D0101501040061B170B79F0A6
:102F5000C0E0D0E0E0E0F0E02196EE0DFF1DC601FC
:102F600060810E945414FE01C017D107A8F3CDB7A9
:102F7000DEB7E8E00C94F554A0E0B0E0E2ECF7E155
:102F80000C94D7547C016B015A018C01000F111F66
:102F9000C8018E0D9F1DFC01EE0FFF1FEE0FFF1FDE
:102FA000E80FF91FEE0FFF1FE550F34E9F01245E5F
:102FB0003F4F848D958D019739F4E9010E941D2FB3
:102FC000888199810197D1F3C8018E0D9F1D8C01D5
:102FD000000F111F000F111F080F191F000F111FE5
:102FE0000550134E81E090E0F801958F848F628D3B
:102FF000738D808D918DA60195010E940A09F801BB
:10300000608D718DC7010E949617F801158E148E80
:10301000CDB7DEB7EAE00C94F354A0E0B0E0E3E112
:10302000F8E10C94D7547C016B015A018C01000F1C
:10303000111FC8018E0D9F1DFC01EE0FFF1FEE0F2B
:10304000FF1FE80FF91FEE0FFF1FE550F34E9F0122
:10305000245E3F4F848D958D019739F4E9010E94DC
:103060001D2F888199810197D1F3C8018E0D9F1D75
:103070008C01000F111F000F111F080F191F000FE7
:10308000111F0550134E81E090E0F801958F848F59
:10309000628D738D808D918DA60195010E94E0084F
:1030A000F801608D718DC7010E949617F801158E89
:1030B000148ECDB7DEB7EAE00C94F354BC018091D6
:1030C0001E0A90911F0A0E94961708950F931F934E
:1030D000CF93DF938B01DB010D900020E9F7BD0159
:1030E00061507040601B710B99F120E030E0DC0111
:1030F000AA0FBB1FAA0FBB1FEC01CC0FDD1FCC0F0B
:10310000DD1FCC0FDD1FA80FB91FAA0FBB1FA25DCB
:10311000B64F45E8880F991FC80FD91FC45DD64F19
:10312000F801E20FF31F2F5F3F4F9491ED91FC9157
:103130001197808185FD06C0842F8A95F1F78081E3
:1031400085FFFACFE881F98190832617370740F38E
:10315000DF91CF911F910F910895BC0180911E0ABC
:1031600090911F0A0E94661808950F931F93CF93A2
:10317000DF938B01DB010D900020E9F7BD01615069
:103180007040601B710B99F120E030E0DC01AA0F68
:10319000BB1FAA0FBB1FEC01CC0FDD1FCC0FDD1F27
:1031A000CC0FDD1FA80FB91FAA0FBB1FA25DB64F22
:1031B00045E8880F991FC80FD91FC45DD64FF80185
:1031C000E20FF31F90812F5F3F4FED91FC9111971C
:1031D000808185FD06C0842F8A95F1F7808185FF67
:1031E000FACFE881F98190832617370740F3DF9102
:1031F000CF911F910F9108950F931F93CF93DF935A
:103200008C01FB019A01880F991F800F911FEC011F
:10321000CC0FDD1FCC0FDD1FC80FD91FCC0FDD1F5A
:10322000C550D34E8C8D9D8D019741F495E8892F23
:103230008A95F1F7892F8A95F1F7F9CF81E090E02F
:103240009D8F8C8F6A8D7B8D888D998DAF010E94AB
:103250000A09688D798DC8010E94B5181D8E1C8ED3
:10326000DF91CF911F910F910895CF93DF93FB01D1
:10327000DA019C01220F331F280F391FE901CC0FFF
:10328000DD1FCC0FDD1FC20FD31FCC0FDD1FC550BC
:10329000D34E8C8D9D8D019741F495E8892F8A95A9
:1032A000F1F7892F8A95F1F7F9CF81E090E09D8FB2
:1032B0008C8F6A8D7B8D888D998DAF019D010E94C9
:1032C000E008688D798D80911E0A90911F0A0E94F6
:1032D000B5181D8E1C8EDF91CF910895BC01809191
:1032E0001E0A90911F0A0E94B5180895A0E0B0E050
:1032F000ECE7F9E10C94DF549E01265F3F4F8E818D
:103300009F8168857985A9010E94BC172096E2E01B
:103310000C94FB54A0E0B0E0E0E9F9E10C94DF5438
:103320009E01265F3F4F8E819F8168857985A90127
:103330000E940D182096E2E00C94FB54A0E0B0E04F
:10334000E4EAF9E10C94DF54FE0136966191719143
:1033500080911E0A90911F0AAF010E94BC1720960F
:10336000E2E00C94FB54A0E0B0E0E9EBF9E10C944E
:10337000DF54FE0136966191719180911E0A909101
:103380001F0AAF010E940D182096E2E00C94FB5436
:10339000A0E0B0E0EEECF9E10C94DF549E01265F72
:1033A0003F4F8E819F8168857985A9010E94FC1815
:1033B0002096E2E00C94FB54A0E0B0E0E2EEF9E1EC
:1033C0000C94DF549E01265F3F4F8E819F8168855C
:1033D0007985A9010E9435192096E2E00C94FB54EE
:1033E000A0E0B0E0E6EFF9E10C94DF54FE01369680
:1033F0006191719180911E0A90911F0AAF010E9404
:10340000FC182096E2E00C94FB54A0E0B0E0EBE066
:10341000FAE10C94DF54FE0136966191719180912E
:103420001E0A90911F0AAF010E9435192096E2E012
:103430000C94FB54EF92FF920F931F937C01880F23
:10344000991F8E0D9F1D8C01000F111F000F111F62
:10345000080F191F000F111F0550134EF801808D22
:10346000918D0E946F31F801868197810E946F31A2
:10347000F801828993890E946F310FB6F8940F92F8
:10348000F701EE0FFF1FEE0FFF1FEE0FFF1FEE0CF9
:10349000FF1CEE0DFF1DE45DF64FA481B5818C91FC
:1034A0008F7D8C930480F581E02D80818F778083E0
:1034B0000F900FBE1F910F91FF90EF900895A0E025
:1034C000B0E0E5E6FAE10C94D554EC015A016B0149
:1034D0007901C8010E94E2319C01009709F4C1C042
:1034E0004E01880C991CF401EC0FFD1FCF01880FD1
:1034F000991F880F991FE80FF91FEE0FFF1FE55066
:10350000F34E0FB6F8940F92118210822283338308
:103510002483358337832683200F311F318720870B
:10352000138702870F900FBEC7010E94E2319C01F2
:10353000009709F1F401EC0FFD1FCF01880F991FCF
:10354000880F991FE80FF91FEE0FFF1FE95FF24E7A
:103550000FB6F8940F921182108222833383248352
:103560003583378326832E0D3F1D31872087F386D1
:10357000E2860F900FBEC7010E94E2319C01C40198
:103580008C0F9D1FFC01EE0FFF1FEE0FFF1FE80FBA
:10359000F91FEE0FFF1FE550F34E208F318FF38E92
:1035A000E28E158E148E0FB6F8940F928E01000FD6
:1035B000111FCE01880F991F880F991F880F991F1F
:1035C000080F191F045D164FD8011896ED90FC9056
:1035D0001997C601B5016050774F824C9F4F660F17
:1035E000771F881F991F660F771F881F991FAA0CC6
:1035F000BB1CCC1CDD1CAA0CBB1CCC1CDD1CAA0CEF
:10360000BB1CCC1CDD1CA60195010E94AD542150B1
:103610003040F70131832083FE01EE0FFF1FEE0FD4
:10362000FF1FEC0FFD1FEE0FFF1FE25DF64F019035
:10363000F081E02D82E08083D8011496ED91FC9119
:10364000159788E980831696ED91FC91179786E08F
:1036500080830F900FBECE01CDB7DEB7ECE00C94A7
:10366000F1544E01880C991C5FCFEF92FF920F939B
:103670001F939093A01D80939F1D4093A11D509375
:10368000A21D6093A31D7093A41D30939A1D2093D7
:10369000991DE0929B1DF0929C1D00939D1D10931F
:1036A0009E1D1F910F91FF90EF900895843080F43C
:1036B00090E0FC01EE0FFF1FEE0FFF1FEE0FFF1F4C
:1036C000E80FF91FE756F24E24A535A5C901089564
:1036D0002FEF30E0C9010895282F8430D0F490E016
:1036E000FC01EE0FFF1FEE0FFF1FEE0FFF1FE80F95
:1036F000F91FE756F24E84A595A50197039748F464
:103700002093EA1D84A98093EB1D21E030E0C901DC
:10371000089520E030E0C90108958091EA1D0895E0
:1037200090E0FC01EE0FFF1FEE0FFF1FEE0FFF1FDB
:10373000E80FF91FE756F24E86A597A5089590E089
:10374000FC01EE0FFF1FEE0FFF1FEE0FFF1FE80F34
:10375000F91FE756F24E82A993A9089520E030E0C0
:103760009091E91D981711F0C901089521E030E00A
:10377000C90108958093EA1D90E0FC01EE0FFF1F40
:10378000EE0FFF1FEE0FFF1FE80FF91FE756F24E77
:1037900077A766A753AB42AB81E090E095A784A7DB
:1037A00008953091E91DE5ECFDE120E080819181F3
:1037B000039731F02F5F39962430C1F78FEF0895CA
:1037C0003330C1F7822F089520E030E090E0FC0113
:1037D000EE0FFF1FEE0FFF1FEE0FFF1FE80FF91F89
:1037E000E756F24E84A595A5039711F0C9010895F7
:1037F00021E030E0C90108958091210AE091F01D97
:10380000F091F11DE80FF11D908180E2808380919D
:10381000210A8F5F8093210A8A3010F01092210ACA
:10382000892F0895982F80538A3048F0815186302F
:1038300038F0892F8156863028F4892F87550895CE
:10384000865F089580E00895982F8A3040F08A506E
:10385000863018F4892F895C089580E30895805D8F
:10386000089580E590E09093F31D8093F21D86E02B
:103870008093F41D80E090E060E672E00E9496176D
:103880000895A2E8B0E0E7E4FCE10C94DD549C016B
:103890001BAA1CAA1DAA1EAAFE01F7968CE4DF0132
:1038A0001D928A95E9F78091DB029091DC029A8360
:1038B0008983FE01339680E3DF011D928A95E9F743
:1038C0002130310509F448C021303105C8F12230DA
:1038D000310509F44DC09E012F5F3F4FD901E0E84B
:1038E000F2E084E101900D928150E1F700D000D028
:1038F000EDB7FEB731968E010D5C1F4FADB7BEB769
:1039000012961C930E93119783EC92E0938382831B
:10391000358324830E94BC088DB79EB706960FB6E8
:10392000F8949EBF0FBE8DBF8091991D90919A1DF6
:10393000B8010E949617CE57DF4FE4E00C94F9547B
:103940009E012F5F3F4FD901E0E8F2E084E1019052
:103950000D928150E1F7CACF9E012F5F3F4FD901F1
:10396000E4E9F2E088E101900D928150E1F7BECFE9
:103970009E012F5F3F4FD901ECEAF2E087E1019011
:103980000D928150E1F7B2CFA2E8B0E0EAECFCE1A1
:103990000C94DD54482F1BAA1CAA1DAA1EAAFE01C6
:1039A000F7968CE4DF011D928A95E9F78091DB029E
:1039B0009091DC029A838983FE01339680E3DF01D4
:1039C0001D928A95E9F76130710509F45BC0613099
:1039D000710508F44BC06230710509F45FC09E01A7
:1039E0002F5F3F4FD901EDE1F3E086E101900D92A9
:1039F0008150E1F7EDB7FEB738970FB6F894FEBFE8
:103A00000FBEEDBFADB7BEB711968E010D5C1F4F57
:103A10001283018383E393E013969C938E93129712
:103A2000E42FF0E0EE0FFF1FEC5AF64F80819181FA
:103A300015969C938E93149717963C932E931697F6
:103A40000E94BC088DB79EB708960FB6F8949EBF2B
:103A50000FBE8DBF8091991D90919A1DB8010E9453
:103A60009617CE57DF4FE4E00C94F9549E012F5F78
:103A70003F4FD901EDE0F3E087E001900D928150D6
:103A8000E1F7B8CF9E012F5F3F4FD901E4E1F3E0AA
:103A900089E001900D928150E1F7ACCF9E012F5F3C
:103AA0003F4FD901EDE1F3E086E101900D928150A5
:103AB000E1F7A0CFA0E8B0E0E0E6FDE10C94D5543A
:103AC000282F843008F09FC0A82EBB244501880C05
:103AD000991C880C991C880C991C6401CA0CDB1C6D
:103AE00089E99DE1C80ED91ED6019C968D919C91C5
:103AF0009D970197039708F086C02093EA1DD496FE
:103B00008C918093EB1D9BE1E92EF12CFA82E982E6
:103B100080919F1D9091A01D8E010F5F1F4FB801D6
:103B20000E94961783E590E09A83898380919F1D78
:103B30009091A01DB8010E94961700D000D0EDB75B
:103B4000FEB73196ADB7BEB712961C930E93119780
:103B500084E493E093838283D601D4968C9184830A
:103B600015820E94BC08EDB7FEB736960FB6F894E2
:103B7000FEBF0FBEEDBF80919F1D9091A01DB801AB
:103B80000E949617FA82E98280919F1D9091A01D54
:103B9000B8010E94961783E490E09A83898380910C
:103BA0009F1D9091A01DB8010E949617D601D09636
:103BB0002C91D097D1963C91C901DC01E7E4F3E068
:103BC00088E001900D928150E1F7F401EA0DFB1DB0
:103BD000E756F24E82E090E095A784A786E090E059
:103BE00097A786A713AA12AA8091C41D84AB8093BD
:103BF000EB1D8FEF8093E91D1092ED1D1092EC1DCF
:103C000021E030E002C020E030E0C901C058DF4FC1
:103C1000ECE00C94F154A3E8B0E0E1E1FEE10C9497
:103C2000D6547C015B019090EA1D6E010894C11C82
:103C3000D11CC60160E270E040E850E00E94250817
:103C4000F7018081882309F46EC020E030E000E0B5
:103C500010E015C08A30C9F0F601E20FF31F80832F
:103C60002F5F3F4F0F5F1F4FF70101900020E9F7D3
:103C70003197EE19FF09E017F10708F454C0F70176
:103C8000E00FF11F80818D3029F72115310551F3A7
:103C90002C0D3D1DF9011082C6016FE473E047E071
:103CA00050E00E944E08009709F445C0C60167E540
:103CB00073E04AE050E00E944E08009709F484C087
:103CC000C60162E673E044E150E00E944E080097AE
:103CD00009F4A2C0C60167E773E042E050E00E9429
:103CE0004E08009709F4A1C0C6016AE773E045E0F9
:103CF00050E00E944E08009709F49EC0C60160E89B
:103D000073E04BE050E00E944E08009709F4ACC00D
:103D1000C60160E270E040E850E00E942508198288
:103D200020E030E09FCF22E030E0C901CD57DF4FE7
:103D3000EBE00C94F254F1E0AF16B10409F497C033
:103D400082E0A816B10409F04EC08985582F50535F
:103D5000982F9154CE57DF4F9883C258D040B82F38
:103D6000B753E82FE156CD57DF4FE883C358D04013
:103D7000A82FA7558B85482F4053082F0154782F23
:103D80007753F82FF156CF57DF4FF883C158D04003
:103D9000682F67551091EA1D3091EB1DE5ECFDE1B0
:103DA00020E083E0E82EF12C80819181029709F4D4
:103DB00085C02F5F39962430B9F71093EA1D3093F0
:103DC000EB1D21E030E0B1CF05EC1DE1FF24F8014F
:103DD000808191810297029748F0F394075F1F4F0B
:103DE000F4E0FF16A1F721E030E09FCF2091EB1D1A
:103DF0009C85892F80538A3028F08151863008F0C5
:103E000083C0865F281749F78F2D0E945A1D109294
:103E1000ED1D1092EC1DE1CF82E090E09093A61D85
:103E20008093A51D21E030E080CF1092ED1D10920F
:103E3000EC1D21E030E079CF892D90E0FC01EE0F00
:103E4000FF1FEE0FFF1FEE0FFF1FE80FF91FE756D2
:103E5000F24E82E090E095A784A71092ED1D10929B
:103E6000EC1D20E030E061CF20E030E05ECF9985AE
:103E7000292F20532A3008F453C0892F81548630CB
:103E800008F048C0292F27532093C41D2093EB1D11
:103E90008091EA1D90E0FC01EE0FFF1FEE0FFF1F67
:103EA000EE0FFF1FE80FF91FE756F24E24AB82E03A
:103EB00090E095A784A721E030E037CF90855A3075
:103EC000B8F5852F981709F074CF828193810697F2
:103ED00009F06FCF9091C41D5A3008F440C0CE57FE
:103EE000DF4F8881C258D040863008F048C08B2F01
:103EF000981709F05ECF4A30E8F5842F342F808779
:103F0000F182E082122F55CF892F8156863000F141
:103F100080E078CF892F8156863018F5292F2755D4
:103F20002093C41D2093EB1D8091EA1D90E0B3CF38
:103F3000CE57DF4F8881C258D040863060F0CD57D1
:103F4000DF4F8881C358D040863038F080E0BACF48
:103F5000892F875557CF8B2FB5CF8A2FB3CF852F7A
:103F6000C7CF1092C41D1092EB1D8091EA1D90E006
:103F700020E091CF063060F4872F372FC0CFCD5788
:103F8000DF4F8881C358D040863060F080E0B0CFEA
:103F9000CF57DF4F9881C158D040963028F4862FF4
:103FA000362FADCF8A2FA4CF80E030E0A8CFA0E598
:103FB000B0E0EDEDFFE10C94D7547C015E01089474
:103FC000A11CB11CC50160E270E040E550E00E9418
:103FD0002508F7018081882309F440C020E030E003
:103FE00000E010E052E0C52ED12C14C08A30C1F0A0
:103FF000F501E20FF31F80832F5F3F4F0F5F1F4FCD
:10400000F70101900020E9F73197EE19FF09E01759
:10401000F10738F1F701E00FF11F80818D3031F7A2
:104020002115310559F32A0D3B1DF9011082C501F7
:1040300067E773E042E050E00E944E080097B9F451
:1040400041E0C42ED12CC50160E270E040E550E0B3
:104050000E942508198220E030E0D0CF62E0C62E11
:10406000D12CC601C05BDF4FEAE00C94F354C501CC
:104070006AE773E045E050E00E944E08009719F7A8
:10408000CC24DD24E0CFA1E0B0E0E9E4F0E20C9440
:10409000DD5480E289838E010F5F1F4F07C080913E
:1040A0009F1D9091A01DB8010E94051480919F1D35
:1040B0009091A01D0E94EC13892B89F72196E4E0D2
:1040C0000C94F954EF92FF921F93DF93CF93CDB7E7
:1040D000DEB7E2970FB6F894DEBF0FBECDBF182F44
:1040E0007E010894E11CF11CC70160E270E042E32C
:1040F00050E00E9425080E944320E12FF0E0EA32C0
:10410000F105D0F5EE58FF4F0C940655ADB7BEB78C
:104110001A970FB6F894BEBF0FBEADBFEDB7FEB78E
:1041200031961296FC92EE92119788EB93E093836E
:10413000828380917C0990917D099583848380910D
:10414000A71D9091A81D978386838091A91D9091AA
:10415000AA1D918780870E94BC088DB79EB70A96DA
:104160000FB6F8949EBF0FBE8DBF80919F1D90919A
:10417000A01DB7010E9496178091991D90919A1DDC
:1041800066ED73E00E9496178091991D90919A1D9B
:10419000B7010E949617E2960FB6F894DEBF0FBEE5
:1041A000CDBFCF91DF911F91FF90EF90089500D088
:1041B00000D0EDB7FEB73196ADB7BEB71296FC9200
:1041C000EE9211978CE893E09383828380918E091D
:1041D00090918F09958384830E94BC088DB79EB708
:1041E00006960FB6F8949EBF0FBE8DBF80919F1D9F
:1041F0009091A01DB7010E949617BECF00D000D0AD
:10420000EDB7FEB73196ADB7BEB71296FC92EE92FF
:1042100011978CE893E09383828380918C0990912D
:104220008D09D8CFADB7BEB71C970FB6F894BEBFF7
:104230000FBEADBFEDB7FEB731961296FC92EE926F
:10424000119782EC93E09383828380918A09909105
:104250008B09958384838091B51D9091B61D9783BA
:1042600086838091B71D9091B81D9187808780913A
:10427000B91D9091BA1D938782870E94BC088DB7A3
:104280009EB70C960FB6F8949EBF0FBE8DBF80915F
:104290009F1D9091A01DB7010E9496176DCF00D071
:1042A00000D0EDB7FEB73196ADB7BEB71296FC920F
:1042B000EE9211978CE893E0938382838091880932
:1042C0009091890987CF00D000D0EDB7FEB7319625
:1042D000ADB7BEB71296FC92EE9211978CE893E0C0
:1042E00093838283809186099091870973CF00D050
:1042F00000D0EDB7FEB73196ADB7BEB71296FC92BF
:10430000EE9211978CE893E09383828380918409E5
:10431000909185095FCF00D000D0EDB7FEB7319600
:10432000ADB7BEB71296FC92EE9211978CE893E06F
:104330009383828380918209909183094BCF00D02F
:1043400000D0EDB7FEB73196ADB7BEB71296FC926E
:10435000EE9211978CE893E0938382838091800999
:104360009091810937CF00D000D0EDB7FEB73196DC
:10437000ADB7BEB71296FC92EE9211978CE893E01F
:104380009383828380917E0990917F0923CFADB77B
:10439000BEB718970FB6F894BEBF0FBEADBFEDB74E
:1043A000FEB731961296FC92EE92119781EB93E054
:1043B0009383828380917A0990917B09958384838A
:1043C0008091A91D9091AA1D978386830E94BC08A5
:1043D0008DB79EB708960FB6F8949EBF0FBE8DBFDF
:1043E00080919F1D9091A01DB7010E949617C4CE89
:1043F000ADB7BEB718970FB6F894BEBF0FBEADBF2E
:10440000EDB7FEB731961296FC92EE9211978FE9B6
:1044100093E09383828380917809909179099583C1
:1044200084838091AF1D86831782D0CFADB7BEB78E
:1044300018970FB6F894BEBF0FBEADBFEDB7FEB76D
:1044400031961296FC92EE9211978FE993E0938346
:1044500082838091760990917709958384838091F6
:10446000AD1D86831782B2CFADB7BEB71A970FB610
:10447000F894BEBF0FBEADBFEDB7FEB73196129632
:10448000FC92EE92119788EB93E093838283809164
:10449000980990919909958384838091C01D90918A
:1044A000C11D978386838091C21D9091C31D51CEFB
:1044B000ADB7BEB718970FB6F894BEBF0FBEADBF6D
:1044C000EDB7FEB731961296FC92EE9211978FE9F6
:1044D00093E093838283809172099091730995830D
:1044E00084838091B11D8683178270CF00D000D065
:1044F000EDB7FEB73196ADB7BEB71296FC92EE920D
:1045000011978CE893E09383828380919A0990912C
:104510009B0960CE00D000D0EDB7FEB73196ADB7A5
:10452000BEB71296FC92EE9211978CE893E09383BB
:10453000828380919C0990919D094CCEADB7BEB706
:1045400018970FB6F894BEBF0FBEADBFEDB7FEB75C
:1045500031961296FC92EE9211978FE993E0938335
:10456000828380919E0990919F0995838483809195
:10457000BD1D868317822ACF00D000D0EDB7FEB7CD
:104580003196ADB7BEB71296FC92EE9211978CE8B9
:1045900093E09383828380916A0990916B091ACE8C
:1045A000ADB7BEB71A970FB6F894BEBF0FBEADBF7A
:1045B000EDB7FEB731961296FC92EE92119786EA0D
:1045C00093E0938382838091680990916909958330
:1045D00084838091A71D9091A81D978386838091E5
:1045E000B31D80871186B7CDADB7BEB718970FB68C
:1045F000F894BEBF0FBEADBFEDB7FEB731961296B1
:10460000FC92EE9211978FE993E0938382838091DD
:10461000660990916709958384838091AB1D868399
:104620001782D4CE00D000D0EDB7FEB73196ADB72B
:10463000BEB71296FC92EE9211978CE893E09383AA
:1046400082838091960990919709C4CD00D000D0C3
:10465000EDB7FEB73196ADB7BEB71296FC92EE92AB
:1046600011978CE893E093838283809192099091D3
:104670009309B0CD00D000D0EDB7FEB73196ADB7FD
:10468000BEB71296FC92EE9211978CE893E093835A
:10469000828380919009909191099CCD8091EA1D2F
:1046A00090E0FC01EE0FFF1FEE0FFF1FEE0FFF1F4C
:1046B000E80FF91FE756F24E84A595A5892B09F45A
:1046C0005BCDADB7BEB718970FB6F894BEBF0FBE9F
:1046D000ADBFEDB7FEB731961296FC92EE921197F0
:1046E0008FEC93E0938382838091A6099091A70930
:1046F000958384838091EB1D3CCFADB7BEB71A97ED
:104700000FB6F894BEBF0FBEADBFEDB7FEB7319682
:104710001296FC92EE92119781E993E09383828343
:1047200080915A0990915B09958384838091A11DA2
:104730009091A21DA091A31DB091A41D8683978383
:10474000A087B18708CD00D000D0EDB7FEB7319675
:10475000ADB7BEB71296FC92EE9211978CE893E03B
:1047600093838283809158099091590933CD00D069
:1047700000D0EDB7FEB73196ADB7BEB71296FC923A
:10478000EE9211978CE893E093838283809156098F
:10479000909157091FCD00D000D0EDB7FEB73196EC
:1047A000ADB7BEB71296FC92EE9211978CE893E0EB
:1047B0009383828380915409909155090BCDA1E098
:1047C000B0E0E5EEF3E20C94CF542C01CB0120E2F3
:1047D000298365E070E00E9486543B01EE24FF24AB
:1047E00000E010E0AA24BB24E0E22E2EEEE43E2EF0
:1047F0004E010894811C911CC1010197F1F76201DF
:10480000CE0CDF1C80919F1D9091A01D0E94EC1387
:10481000892BA9F080919F1D9091A01DB4010E9449
:1048200005148981F60181936F010894E11CF11C44
:104830000F5F1F4F0038110528F30E944320089492
:10484000A11CB11C6A147B04B8F6E40CF51CF7013A
:1048500010828091991D90919A1D69ED73E00E94DC
:1048600096178091991D90919A1DB2010E949617FA
:104870008091991D90919A1D66ED73E00E949617A4
:10488000C8012196E2E10C94EB54A1E8B0E0EBE41E
:10489000F4E20C94CF542C018091DB029091DC0265
:1048A0009A838983FE0133968EE7DF011D928A95F4
:1048B000E9F7F201108219825E010894A11CB11C73
:1048C000C5016EE170E00E94DF239C01898188238D
:1048D00009F4A9C0232B09F4A6C085016624772416
:1048E000CC24DD24EE24FF248824992491E0292E71
:1048F000312C18C091E0C916D10409F4C0C0253488
:1049000009F478C00894E11CF11CF5010190002025
:10491000E9F73197EA19FB090F5F1F4FEE15FF0505
:1049200008F485C0F8012081322F2B3109F49DC095
:10493000233509F492C0253439F08091EC1D909113
:10494000ED1D892B09F479C0C114D10499F6809129
:10495000EC1D9091ED1D029791F6432F405350911D
:10496000EB1DA091E91D7091EA1DEDECFDE120E049
:10497000632F6154832F8156CF57DF4F8883C158EF
:10498000D040B9EADB2ED30EB32FB75390814A3013
:1049900060F4842F981779F0952F2F5F3996243083
:1049A00081F0592F90814A30A0F3663008F06FC033
:1049B0008B2F981789F7A22F722F2F5F39962430EB
:1049C00081F79093EB1DA093E91D7093EA1D10925F
:1049D000EF1D1092EE1DF201E80DF91D30830894D1
:1049E000811C911CA1E0CA2ED12CD8012C91253418
:1049F00009F088CF8091EC1D9091ED1D81309105DB
:104A000009F080CF9093EF1D8093EE1D1092ED1D65
:104A10001092EC1DBFEFB093E91DF1E06F2E712CE9
:104A2000CC24DD246FCFD2011C9266247724C301ED
:104A3000CF57DF4FE2E10C94EB54C50162E070E028
:104A40004AE20E940B1E0197D1F1D8012C91322F1E
:104A50002B3159F0233509F077CF8091EC1D9091DF
:104A6000ED1D0197E9F033E56FCF3092ED1D2092F7
:104A7000EC1D1092EF1D1092EE1D3BE165CF809171
:104A8000EC1D9091ED1D029709F039CFA0CFCF57C3
:104A9000DF4F8881C158D040863078F080E07ACFEF
:104AA000E2E0F0E0F093ED1DE093EC1D1092EF1DBD
:104AB0001092EE1D33E543E252CF8D2D6BCF81E096
:104AC000682E712CC2CF8F929F92BF92CF92DF92AD
:104AD000EF92FF920F931F93DF93CF93CDB7DEB783
:104AE000C058D0400FB6F894DEBF0FBECDBFB82E71
:104AF00083E08B1508F442C0CB2CDD244601880CE2
:104B0000991C880C991C880C991C7401EC0CFD1CD8
:104B1000A9E9BDE1EA0EFB1EF70184A595A5019761
:104B2000039760F5B092EA1D84A98093EB1D8091F4
:104B3000DB029091DC029A838983FE0133968EE733
:104B4000DF011D928A95E9F7198289E20E946220AD
:104B50008E010F5F1F4FC80168EE73E00E94DF23D4
:104B6000C80161E070E049E20E940B1E8C0189E2FD
:104B7000B8010E94C41C01301105B1F020E030E002
:104B8000C901C058DF4F0FB6F894DEBF0FBECDBFCE
:104B9000CF91DF911F910F91FF90EF90DF90CF9019
:104BA000BF909F908F900895F70180A991A99C01D3
:104BB000D901E7E4F3E088E001900D928150E1F73C
:104BC000F401EC0DFD1DE756F24E15A614A686E085
:104BD00090E097A786A713AA12AA8FEF84AB5091F3
:104BE000EA1D5B1561F08093EB1D8FEF8093E91D4B
:104BF0001092ED1D1092EC1D21E030E0C1CFE5ECEC
:104C0000FDE120E030E0808191810297029738F049
:104C10002F5F3F4F399624303105A9F7E6CF521761
:104C2000B9F32093EA1DF901EE0FFF1FEE0FFF1FEE
:104C3000EE0FFF1FE20FF31FE756F24E84A9809399
:104C4000EB1DD3CFA0E8B0E0E8E2F6E20C94DD542F
:104C5000282F8430E8F590E0FC01EE0FFF1FEE0FE7
:104C6000FF1FEE0FFF1FE80FF91FE756F24E84A556
:104C700095A50197039760F52093EA1D84A9809379
:104C8000EB1D8091DB029091DC029A838983FE0107
:104C900033968EE7DF011D928A95E9F7198285E246
:104CA0000E9462208E010F5F1F4FC8016CE271E00D
:104CB0000E94DF23C80161E070E045E20E940B1E04
:104CC0008C0185E2B8010E94C41C0130110541F03D
:104CD00020E030E0C901C058DF4FE4E00C94F95403
:104CE0001092ED1D1092EC1D21E030E0F3CF0F93F8
:104CF0001F93CF93DF938091971D882329F180E53F
:104D000090E09093F31D8093F21D86E08093F41D54
:104D100080E090E060E672E00E9496172091F41D1A
:104D2000E5ECFDE1C0E0D0E080819181892B11F4B8
:104D30002630A9F021963996C430D105A9F7DF9124
:104D4000CF911F910F91089580E090E061E074E0B1
:104D50000E949617DF91CF911F910F910895209196
:104D6000F21D3091F31DC093EA1DFE01EE0FFF1FEF
:104D7000EE0FFF1FEE0FFF1FEC0FFD1FE756F24E69
:104D800086E090E097A786A733AB22AB01E010E066
:104D900015A704A78C2F0E942226C093981D80E09F
:104DA00090E065EE73E00E9496171093230A00933B
:104DB000220AC5CFA0E8B0E0E0EEF6E20C94D954A8
:104DC0008091DB029091DC029A838983FE01339605
:104DD0008EE7DF011D928A95E9F78091991D9091E8
:104DE0009A1D61E374E00E949617198280E00E9488
:104DF00062207E010894E11CF11CC7016CE271E0A5
:104E00000E94DF23C7010E94D71FBC0180E00E94DF
:104E1000C41C198280E00E946220C7016CE271E02C
:104E20000E94DF23C7010E94D71F8C0180E0B801D8
:104E30000E94C41C0130110509F47DC0CC24DD247E
:104E4000D394198281E00E946220C7016CE271E074
:104E50000E94DF23C7010E94D71F8C0181E0B801A7
:104E60000E94C41C0130110509F463C0D394198257
:104E70008CE10E946220C7016CE271E00E94DF2396
:104E8000C7010E94D71F8C018CE1B8010E94C41C8D
:104E90000130110509F44BC0D39419828BE00E94B4
:104EA0006220C7016CE271E00E94DF23C7010E940B
:104EB000D71F8C018BE0B8010E94C41C0130110582
:104EC00009F49BC0D394198289E10E946220C70132
:104ED0006CE271E00E94DF23C7010E94D71F8C01A2
:104EE00089E1B8010E94C41C0130110541F1D3943D
:104EF0008091AB1D9091AC1D029741F1CC20A1F0A7
:104F0000DD2079F401E010E0C8010E94411C1093FB
:104F1000A61D0093A51DC801C058DF4FE8E00C9402
:104F2000F55402E010E0F0CF00E010E0EDCFC394C4
:104F3000B4CFC3949CCFCC24C394DD2482CFC3943C
:104F40008091AB1D9091AC1D0297C1F619828BE147
:104F50000E946220C7016CE271E00E94DF23C7015A
:104F60000E94D71F8C018BE1B8010E94C41C013044
:104F7000110509F444C0D394198289E00E9462208B
:104F8000C7016CE271E00E94DF23C7010E94D71FB6
:104F90008C0189E0B8010E94C41C0130110599F10F
:104FA000D39419828AE00E946220C7016CED75E0FB
:104FB0000E94DF23C7010E94D71F8C018AE0B8013D
:104FC0000E94C41C01301105E1F0D39419828DE1D7
:104FD0000E946220C7016CE271E00E94DF23C701DA
:104FE0000E94D71F8C018DE1B8010E94C41C0130C2
:104FF000110509F485CFD39481CFC39464CFC394B2
:10500000BBCFC394E3CFC394CCCFEF92FF921F9357
:10501000CF93DF9310929A1D1092991D20E835E2EC
:1050200040E050E020939B1D30939C1D40939D1DBC
:1050300050939E1D82E090E09093A01D80939F1D51
:105040002093A11D3093A21D4093A31D5093A41D36
:105050001092A61D1092A51D80E890E00E94E231FA
:105060008093A71D9093A81DDC01E1E6F4E089E0A0
:1050700001900D928150E1F780E890E00E94E231CA
:105080008093A91D9093AA1DDC01EAE6F4E089E073
:1050900001900D928150E1F782E090E09093AC1D79
:1050A0008093AB1D1092AE1D1092AD1D84E090E078
:1050B0009093B01D8093AF1D1092B21D1092B11D40
:1050C0008BE090E09093B41D8093B31D8FE090E04F
:1050D0000E94E2318093B51D9093B61DDC01E3E799
:1050E000F4E08CE001900D928150E1F78FE090E0C8
:1050F0000E94E2318093B71D9093B81DDC01EFE769
:10510000F4E08EE001900D928150E1F78FE090E0A5
:105110000E94E2318093B91D9093BA1DDC01E3E750
:10512000F4E08CE001900D928150E1F786E090E090
:105130009093BC1D8093BB1D80E590E09093BE1DB5
:105140008093BD1D81E08093BF1D8DE894E0909316
:10515000C11D8093C01D83E994E09093C31D80938B
:10516000C21D1092ED1D1092EC1D8FEF8093C41D97
:10517000C5ECDDE1E6E0EE2EF12C1FEF8FE090E0D4
:105180000E94E2318C839D83DC01E7E4F3E088E058
:1051900001900D928150E1F719821882FB82EA8218
:1051A0001F821E82188729968DE1C93ED80731F7E4
:1051B000188319831A831092ED1D1092EC1D81E063
:1051C00090E09E838D83DF91CF911F91FF90EF90B0
:1051D00008956F927F928F929F92AF92BF92CF92DB
:1051E000DF92EF92FF920F931F934C015A016B01D4
:1051F00039010E9405289092A01D80929F1DA092C7
:10520000A11DB092A21DC092A31DD092A41D7092A8
:105210009A1D6092991DE0929B1DF0929C1D009337
:105220009D1D10939E1D1F910F91FF90EF90DF9099
:10523000CF90BF90AF909F908F907F906F90089588
:10524000EF92FF920F931F937B018C018091C01D01
:105250009091C11DB7010E9437088091C21D9091A5
:10526000C31DB8010E9437081F910F91FF90EF9066
:105270000895BC018091A71D9091A81D0E94370838
:105280000895AEE0B0E0E7E4F9E20C94D354C982AB
:10529000DA82EB82FC820D831E832F833887498755
:1052A0005A876B877C878D879E870B811C81ED8059
:1052B000FE80CF80D884A984BA848B849C846D843A
:1052C0007E8469817A818091A71D9091A81D0E949A
:1052D00037088091A91D9091AA1DB8010E94370836
:1052E000F092AC1DE092AB1DD092AE1DC092AD1DF0
:1052F000B092B01DA092AF1D9092B21D8092B11DD0
:105300007092B41D6092B31D2E96EEE00C94EF5493
:10531000A6E0B0E0EEE8F9E20C94DB5449835A834E
:105320006B837C838D839E830B811C81ED80FE804B
:1053300069817A818091B51D9091B61D0E943708D0
:105340008091B71D9091B81DB8010E9437088091D7
:10535000B91D9091BA1DB7010E9437082696E6E064
:105360000C94F7540F931F93CF93DF93382F209112
:10537000971D222389F18091791D831711F1ECE7A4
:10538000FDE190E004C0808133968317D1F09F5FE8
:105390009217C8F32B3000F180E090E062E075E0F6
:1053A0000E94961720E533EC40E951E0CA010197CD
:1053B000F1F721503040D1F7DF91CF911F910F913C
:1053C000089580E090E069E974E00E949617DF910B
:1053D000CF911F910F910895422F50E08A01000F45
:1053E000111FE801C40FD51FCD58D24E3E83DB01FB
:1053F0000D900020E9F71197A61BB70BA832B10555
:10540000A8F4FB018081882381F5F801E40FF51FE2
:10541000ED58F24E27813085C901DC01E4EDF4E05E
:105420008EE001900D928150E1F70AC0FB0180816E
:10543000882359F38F81988548E250E00E945C08E8
:105440008091971D8F5F8093971D8B3018F08AE0B5
:105450008093971D80E090E062EE74E00E949617C2
:10546000DF91CF911F910F9108958F819885AD01A4
:105470000E945C08E5CF8F929F92AF92BF92CF922D
:10548000DF92FF920F931F93CF93DF936C015B0129
:105490004A0180E890E00E94E231FC019093741D83
:1054A0008093731D108280E890E00E94E231FC013D
:1054B0009093761D8093751D10821092781D109226
:1054C000771DC9E7DDE1A0E2FA2E00E210E0F882E4
:1054D00088E290E00E94E231FC019A838983118383
:1054E000008323968DE1C739D80789F718828AE0AF
:1054F00090E00E94E231FC019093F11D8093F01D39
:105500001082E2E08E16910408F475C01092781DA6
:105510001092771DD6010D900020E9F71197AC1974
:10552000BD09A038B10598F4F6018081882309F0FF
:1055300067C08091731D9091741D9C01D901E6E3B1
:10554000F5E080E101900D928150E1F70DC0F60188
:105550008081882371F38091731D9091741DB60131
:1055600040E850E00E945C08D5010D900020E9F76A
:105570001197AA19BB09A038B10578F5F50180810A
:10558000882309F046C08091751D9091761D9C017D
:10559000D901E6E4F5E08DE001900D928150E1F74C
:1055A0001092971DE091F01DF091F11D1082109264
:1055B000200A1092210A80E090E063E575E00E94E5
:1055C0009617DF91CF911F910F91FF90DF90CF90B1
:1055D000BF90AF909F908F900895F50180818823B0
:1055E00091F28091751D9091761DB50140E850E0D3
:1055F0000E945C08D5CF9092781D8092771D8ACF4B
:105600008091731D9091741DB601AD010E945C08DC
:10561000ABCF8091751D9091761DB501AD010E94B3
:105620005C08BECFA0E8B0E0E8E1FBE20C94D954FE
:10563000182F7B016E010894C11CD11CC60160E2C9
:1056400070E040E850E00E9425081982D7018C9153
:105650008823A1F08D3091F0812F90E08C01000F14
:10566000111F000F111F000F111F080F191F0756E0
:10567000124EF80186A597A5069779F02CED35E036
:1056800040E951E0CA010197F1F721503040D1F7CC
:10569000C058DF4FE8E00C94F5548BE190E09A831A
:1056A000898380919F1D9091A01DB6010E9496173D
:1056B00083E590E09A83898380919F1D9091A01D3E
:1056C000B6010E94961700D000D0EDB7FEB7319614
:1056D000ADB7BEB71296DC92CE92119784E493E0F8
:1056E00093838283D801D4968C91848315820E94FF
:1056F000BC08EDB7FEB736960FB6F894FEBF0FBEE6
:10570000EDBF80919F1D9091A01DB6010E9496173C
:10571000F70101900020E9F73297EE15FF0579F4C3
:10572000D7018C918D30B1F08A3069F5D601E6ED64
:10573000F3E083E001900D928150E1F704C0C601CF
:10574000B7010E94370880919F1D9091A01DB6015E
:105750000E9496178BE190E09A83898380919F1D28
:105760009091A01DB6010E94961785E490E09A835F
:10577000898380919F1D9091A01DB6010E9496176C
:105780002CED35E07DCF00D000D0EDB7FEB73196DF
:10579000ADB7BEB71296DC92CE9211978CE893E02B
:1057A00093838283F582E4820E94BC08EDB7FEB742
:1057B00036960FB6F894FEBF0FBEEDBF80919F1DC9
:1057C0009091A01DB6010E949617C4CFA0E8B1E049
:1057D000ECEEFBE20C94D7548091220A9091230ABC
:1057E000019729F0C058DE4FEAE00C94F354809101
:1057F000981D8430B8F790E0FC01EE0FFF1FEE0F0C
:10580000FF1FEE0FFF1FE80FF91FE756F24E84A5AA
:1058100095A5029739F751E0E52EF52EEC0EFD1E09
:105820008091DB029091DC02F701819391932EE746
:10583000DF01322F1D923A95E9F741E8C42ED12CB1
:10584000CC0EDD1EF60181939193DF01322F1D9264
:105850003A95E9F79A838983FE013396DF011D9219
:105860002A95E9F78E010F5F1F4FC8010E9445245A
:105870008981882309F048C12091981D243008F0BF
:10588000B1CF822F90E0FC01EE0FFF1FEE0FFF1F44
:10589000EE0FFF1FE80FF91FE756F24E84A595A5FE
:1058A000039709F09FCF822F64E775E00E94122BC7
:1058B0008091981D65E875E00E94122B8091981DDB
:1058C0006FE975E00E94122B8091981D61EB75E0E5
:1058D0000E94122B8091981D6AEB75E00E94122B9A
:1058E000D601E3ECF5E088E001900D928150E1F7FC
:1058F0006091731D7091741DC6010E942C08F60101
:1059000001900020E9F73197DF01EBECF5E08BE047
:1059100001900D928150E1F78091981DB6010E948F
:10592000122B8091981D66ED75E00E94122B8091DC
:10593000981D60EE75E00E94122BD601E9EEF5E0AD
:105940008DE001900D928150E1F76091731D70918F
:10595000741DC6010E942C08F60101900020E9F791
:105960003197DF01E6EFF5E088E001900D9281507C
:10597000E1F78091981DB6010E94122BD601EEEF3F
:10598000F5E08DE001900D928150E1F76091751D79
:105990007091761DC6010E942C08F601019000202E
:1059A000E9F73197DF01EBE0F6E089E001900D9235
:1059B0008150E1F78091981DB6010E94122B8091D1
:1059C000981D64E176E00E94122B8091981D6AE197
:1059D00076E00E94122B8091771D9091781D0097A0
:1059E00009F4BEC0019709F0B4C08091971D8823C7
:1059F00009F449C0FF24D601E9E7F6E08AE2019004
:105A00000D928150E1F70F2D10E05801AA0CBB1C3C
:105A1000B501600F711F6758724EC60141E050E03A
:105A20000E943E08F60101900020E9F73197DF015E
:105A3000EEE5F6E083E001900D928150E1F70A0D6A
:105A40001B1D0D58124ED80117966D917C91189719
:105A5000C6010E942C08F60101900020E9F7319759
:105A6000DF01E3EAF6E083E001900D928150E1F777
:105A70008091981DB6010E94122BF3948091971D7E
:105A8000F81608F4B8CF8091981D63EE76E00E9476
:105A9000122B8091981D67E077E00E94122B809175
:105AA000981D61E177E00E94122B8091981D68E1BA
:105AB00077E00E94122B8091981D64E277E00E94AB
:105AC000122B8091981D6EE277E00E94122B80913C
:105AD000981D66E377E00E94122B8091981D67E382
