:100000000C9470030C9492030C9492030C9492033E
:100010000C9492030C9492030C9492030C9492030C
:100020000C9492030C9492030C9492030C949203FC
:100030000C9492030C9492030C9492030C949203EC
:100040000C9492030C9492030C9492030C949203DC
:100050000C9492030C9492030C9492030C949203CC
:100060000C9492030C94F8170C940B190C949203B3
:100070000C9492030C9492030C9492030C949203AC
:100080000C94E6300C9492030C9492030C94D014CC
:100090000C94CE170C94E1180C9492030C94FF313D
:1000A0000C9492030C94CB0F0C9492030C94920337
:1000B0000C9492030C94810F0C9456100C949203A0
:1000C0000C9492030C9492030C94A60F0C94A41716
:1000D0000C94B7180C9492030C947A170C948D1806
:1000E0000C949203972583256F2549258822882221
:1000F000882288228822C0249C248824882288225E
:10010000882224248822E223C423932352227F239B
:100110006B23572343232F231B23DE22CA22A32230
:100120000625F2248822DE240024422456246A2450
:100130008822882288221A255D321632163216321B
:1001400016321632163216325D3216321632163228
:1001500016321632163216325F3216321632163216
:1001600016321632163216329732163216321632CE
:1001700016321632163216325F32163216321632F6
:1001800016321632163216329732163216321632AE
:1001900016321632163216329F3216321632163296
:1001A0001632163216321632CF3216321632163256
:1001B00016321632163216321632163216321632FF
:1001C00016321632163216324532163216321632C0
:1001D000163216321632163286321632163216326F
:1001E0001632163216321632CC3216321632163219
:1001F0001632163216321632CC3216321632163209
:100200001632163216321632B7321632163216320D
:100210001632163216321632B732163216321632FD
:100220001632163216321632303216321632163274
:10023000163216321632163259321632163216323B
:100240001632163216321632303216321632163254
:10025000163216321632163259321632163216321B
:100260001632163216321632A332163216321632C1
:1002700016321632163216327432163216321632E0
:1002800016321632163216327432163216321632D0
:1002900016321632163216327632163216321632BE
:1002A0001632163216321632A9321632163216327B
:1002B000163216321632163241320D0A0A0A476FCA
:1002C0006F646279652E2E2E206E6F2073706163CD
:1002D0006520666F722069646C65207461736B21A0
:1002E0000D0A000D0A0A0A48656C6C6F20576F7280
:1002F0006C64210D0A006E616E00696E660000403C
:100300007A10F35A00A0724E18090010A5D4E80024
:1003100000E87648170000E40B54020000CA9A3B3C
:10032000000000E1F50500008096980000004042C2
:100330000F000000A0860100000010270000000050
:10034000E803000000006400000000000A00000054
:1003500000000100000000002C76D888DC674F0800
:1003600023DFC1DFAE59E1B1B796E5E3E453C63A06
:10037000E651997696E8E6C28426EB898C9B62ED7D
:10038000407C6FFCEFBC9C9F40F2BAA56FA5F49037
:10039000055A2AF75C936B6CF9676DC11BFCE0E4AE
:1003A0000D47FEF520E6B500D0ED902E0300943504
:1003B00077050080841E080000204E0A000000C857
:1003C0000C333333330F986E12831141EF8D2114A8
:1003D000893BE65516CFFEE6DB18D1844B381BF778
:1003E0007C1D901DA4BBE424203284725E22810017
:1003F000C9F124ECA1E53D27A0E0B0E0E2E0F2E0A5
:100400000C94A056E9E0CE2EAA24A39488248A94C2
:10041000982C7724739405C00F900FBEBB2009F071
:100420005FC080918B1C882309F480C08091801C60
:100430008F5F8093801CB090D01C0FB6F8940F9201
:100440008091801C81508093801C8091801C882327
:1004500019F780917A1C8823F9F28091C71C8823B0
:1004600071F1E091CC1CF091CD1CC681D781CE01F9
:100470000C960E94E1538E010E5F1F4FC8010E942F
:10048000E1539E8980917B1C891718F490937B1C03
:100490009E899C9DC00111248357934EB8010E94F0
:1004A0009053E091781CF091791C9E898689981769
:1004B000A0F2A0927C1C8091C71C882391F68091A9
:1004C000891C882309F04DC080917C1C813009F083
:1004D000A3CF0E94E9300F900FBEBB2009F4A1CF3B
:1004E0000FB6F8940F92E091D51CF091D61C0681BE
:1004F0001781C80102960E94E15380917A1C8150B5
:1005000080937A1C80918B1C815080938B1C0F9060
:100510000FBEF8018789908D0E943B33C8010E946D
:100520003B3380918B1C882309F080CF80918D1CF8
:10053000823008F476CF0E94E93073CF8091891C15
:100540008F5F8093891CDD2480917C1C882309F0B7
:1005500095C0DD2009F092C08091891C8150809364
:10056000891C8091891C882309F4AECF8091801C5E
:10057000882321F780917D1C90917E1C0196909399
:100580007E1C80937D1CE0907D1CF0907E1CE1140D
:10059000F10409F52091C31C3091C41C8091C51C45
:1005A0009091C61C9093C41C8093C31C3093C61CAE
:1005B0002093C51C80917F1C8F5F80937F1CE091EE
:1005C000C31CF091C41C8081882309F073C09092F1
:1005D000DB098092DA098091DA099091DB09E8164B
:1005E000F90608F44EC0DD24E091C31CF091C41C50
:1005F00080818823F1F1E091C31CF091C41C058037
:10060000F681E02DC681D7818A819B81E816F906A3
:1006100008F461C08E010E5F1F4FC8010E94E153B4
:100620008C899D89892B21F0CE010C960E94E15383
:100630009E8980917B1C891718F490937B1C9E895E
:100640009C9DC00111248357934EB8010E94905382
:10065000E091781CF091791C9E898689981720F288
:10066000DD24D394E091C31CF091C41C80818823C5
:1006700011F69092DB098092DA0904C070927C1C1A
:100680006BCFDD24E091781CF091791C868990E095
:10069000FC01EE0FFF1FEE0FFF1FEE0FFF1FE80F15
:1006A000F91FE357F34E8081823008F44DCFDD24EB
:1006B000D3944ACFE091C31CF091C41C0580F6810D
:1006C000E02D0680F781E02D828193819093DB09F4
:1006D0008093DA0980CF9093DB098093DA09D2CF37
:1006E00011241FBECFEFD1E2DEBFCDBF00E00CBFB3
:1006F0001AE0A0E0B2E0E4EBFDEA00E00BBF02C0CC
:1007000007900D92A832B107D9F71BBE1EE1A8E2EF
:10071000BAE001C01D92A132B107E1F70E94620E5A
:100720000C94D8560C9400008F938FB78F93F89445
:1007300080911D1E8F5F80931D1E80911E1E8F4F06
:1007400080931E1E80911F1E8F4F80931F1E8091CD
:10075000201E8F4F8093201E8F918FBF8F91089501
:10076000A1E1B0E0E6EBF3E00C949B563C017F87FF
:100770006E876A01FC0117821682838181FD03C0A6
:100780006FEF7FEF71C39E012F5F3F4F398B288B37
:10079000F3012381EE85FF8523FD859123FF819160
:1007A000FF87EE87882309F45CC3853251F4EE8518
:1007B000FF8523FD859123FF8191FF87EE87853299
:1007C00029F490E0B3010E949008E2CF982F10E046
:1007D000882499241032B0F49B3269F09C3228F4BA
:1007E000903251F0933271F40BC09D3239F0903356
:1007F00049F4116028C01260146025C0186023C03D
:10080000106121C017FD2AC0892F80538A3078F4E7
:1008100016FF06C0FAE09F9E902C1124980E13C07C
:100820003AE0839E802C1124880E10620CC09E3208
:1008300021F416FD16C3106406C09C3611F410682E
:1008400002C0983659F4EE85FF8523FD959123FF6C
:100850009191FF87EE87992309F0BCCF892F8554AA
:10086000833020F4812F8061905E07C0892F8556E8
:10087000833008F0A1C1812F8F7E86FD02C076E013
:10088000972E6FE3F62EF822953619F4F0E4FF2A3E
:1008900007C0963619F420E8F22A02C091109A9403
:1008A000F7FE0BC03BE3391520F427E05CE3B52EDF
:1008B0000EC0B92CB39427E00AC047E0491528F4CC
:1008C00027E0BB2447E0942E02C0292DBB24C6019B
:1008D00004969D878C87F601608171818281938166
:1008E000AE014F5F5F4F0B2D0E9439076C010981EC
:1008F000202E332400FF04C003FD02C01DE209C006
:10090000F1FE02C01BE205C0F2FC02C010E001C013
:1009100010E2C1018C709070892BB9F1112311F490
:1009200083E001C084E0881510F088240AC0881A8A
:10093000F3FC07C080E290E0B3010E9490088A9423
:10094000C9F7112329F0812F90E0B3010E9490088C
:1009500023FE03C006EF12E00EC00AEF12E00BC048
:10096000E114F10409F0805290E0B3010E94900874
:100970000F5F1F4F05C0EF2CFF24F0E1EF22FF2493
:10098000F8018491882361F714C1F7FE12C0BC0CF2
:1009900024FE04C08A81813309F4BA941B141CF02C
:1009A000BB24B3942DC0F8E0FB1550F538E0B32E0E
:1009B00027C0F6FC25C0892D90E08C159D054CF0D4
:1009C0002CEFC2162FEFD20624F030E8F32A01C034
:1009D0009A94992049F0E2E0F0E0EC0FFD1FE90D58
:1009E000F11D80818033A1F3F7FE0AC0B92CB394C6
:1009F000892D90E0C816D90614F0992401C09C18DE
:100A0000F7FC03C025E030E009C01C141D041CF0F5
:100A100021E030E003C096012F5F3F4F112311F01A
:100A20002F5F3F4F992029F0892D90E00196280FE4
:100A3000391F882D90E02817390714F0882401C049
:100A4000821A4F2C5524C20189709070892B39F07D
:100A500008C080E290E0B3010E9490088A94882048
:100A6000C1F7112329F0812F90E0B3010E94900873
:100A700043FE07C008C080E390E0B3010E949008E5
:100A80008A948820C1F7F7FE46C08601D7FE02C0CF
:100A900000E010E076010894E11CF11CE01AF10A74
:100AA00041E050E04C0F5D1FE40EF51E26014B188F
:100AB0005108892D90E0AA24BB24A81AB90A5FEF37
:100AC0000F3F150729F48EE290E0B3010E949008D1
:100AD000C016D10634F0401651061CF4F70180818F
:100AE00001C080E3015010400894E11CF11C0A157C
:100AF0001B052CF090E0B3010E949008E0CF0C158C
:100B00001D0539F49A81963318F4953311F424FEB7
:100B100081E390E04BC08A81813309F00F7E90E041
:100B2000B3010E9490089920A1F08EE290E0B301F9
:100B30000E94900812E0E1E0F0E0EC0FFD1FE10FF1
:100B4000F11D1F5F808190E0B3010E9490089A948C
:100B500091F744FC03C085E690E002C085E490E094
:100B6000B3010E949008D7FC05C0C114D10441F420
:100B700004FF06C0D094C194D108D3948DE201C083
:100B80008BE290E0B3010E94900880E305C08F5F84
:100B900026EF3FEFC20ED31E3AE0C316D104BCF7D6
:100BA00090E0B3010E949008C601C096B3010E9474
:100BB0009008CC84DD8452C1933631F0933799F09C
:100BC000933509F059C023C0F601808189835E0105
:100BD0000894A11CB11C22E030E0C20ED31E21E01B
:100BE000E22EF12C12C0F601A080B18016FD03C0E8
:100BF0006FEF7FEF02C0692D70E022E030E0C20E9F
:100C0000D31EC5010E946B087C011F7713C0F6013B
:100C1000A080B18016FD03C06FEF7FEF02C0692D89
:100C200070E022E030E0C20ED31EC5010E94110820
:100C30007C01106813FF07C01BC080E290E0B30185
:100C40000E9490088A94882D90E0E816F906A8F38F
:100C50000FC0F50117FD859117FF81915F0190E0AD
:100C6000B3010E94900881108A940894E108F10869
:100C7000E114F10471F7F2C0943611F0993689F558
:100C800017FF08C0F601208131814281538184E041
:100C900090E00AC0F601808191819C01442737FDD4
:100CA0004095542F82E090E0C80ED91E9FE6F92EA1
:100CB000F12257FF09C050954095309521953F4F3F
:100CC0004F4F5F4F90E8F92ACA01B901AE014F5F5B
:100CD0005F4F2AE030E00E943409E82EE889EE1ADE
:100CE00041C0953721F41F7E2AE030E01CC0197FF7
:100CF0009F3661F0903720F4983509F0B2C00FC0EC
:100D0000903739F0983709F0ACC004C028E030E0E3
:100D10000AC0106114FD146020E130E004C014FD2D
:100D2000166020E132E017FF08C0F6016081718192
:100D30008281938144E050E008C0F6018081918176
:100D4000BC0180E090E042E050E0C40ED51EAE0150
:100D50004F5F5F4F0E943409E82E5889E51A8FE7EC
:100D6000F82EF122F6FE0BC08EEFF822E91438F4CB
:100D7000F4FE07C0F2FC05C09FEEF92202C01E2D52
:100D800001C0192DF4FE0DC0FE01EE0DF11D808194
:100D9000803319F4E9EEFE2208C01F5FF2FE05C0A1
:100DA00003C08F2D867809F01F5F0F2DF3FC14C050
:100DB000F0FE0FC0181510F09E2C0BC09E2C980C46
:100DC000911A182D06C080E290E0B3010E949008AD
:100DD0001F5F1815C0F304C0181510F4811A01C064
:100DE000882404FF0FC080E390E0B3010E949008C4
:100DF00002FF1DC001FD03C088E790E00EC088E53A
:100E000090E00BC0802F867891F001FF02C08BE24A
:100E100001C080E2F7FC8DE290E0B3010E949008EF
:100E200006C080E390E0B3010E9490089A94E91410
:100E3000C0F3EA94E1E0F0E0EC0FFD1FEE0DF11DD0
:100E4000808190E0B3010E949008EE2091F706C0E7
:100E500080E290E0B3010E9490088A948820C1F754
:100E600097CCF30166817781CB016196E2E10C9426
:100E7000B756283008F027E03327DA01990F311DE3
:100E800087FD916000966105710539F432602E5F2F
:100E90003D9330E32A95E1F708959F3F30F0803885
:100EA0007105610509F03C5F3C5F3D93913008F0AE
:100EB0008068911DDF93CF931F930F93FF92EF9262
:100EC000192F987F9695E92F96959695E90FFF270C
:100ED000E85AFC4F99273327EE24FF24A701E701A6
:100EE00005900894079428F4360FE71EF81E491F52
:100EF000511D660F771F881F991F0694A1F7059053
:100F0000079428F4E70EF81E491F561FC11D770FDE
:100F1000881F991F661F0694A1F70590079428F46F
:100F2000F80E491F561FC71FD11D880F991F661F36
:100F3000771F0694A1F70590079420F4490F561FD8
:100F4000C71FD81F990F661F771F881F0694A9F720
:100F500084911095177041F0D695C7955795479590
:100F6000F794E7941A95C1F7EEEFF2E068941590C4
:100F7000159135916591959105907FE27395E118F2
:100F8000F10A430B560BC90BD009C0F7E10CF11E57
:100F9000431F561FC91FD01D7EF4703311F48A956C
:100FA000E6CFE894015030F0080F0AF4002702174A
:100FB00008F4202F2395022F7A3328F079E37D93CC
:100FC0002A95E9F710C07D932A9589F6069497959E
:100FD0006795379517951794E118F10A430B560B4F
:100FE000C90BD00998F023957E9173957A3308F058
:100FF00070E37C932013B8F77E9170617D9330F09D
:10100000839571E37D9370E32A95E1F71124EF90C6
:10101000FF900F911F91CF91DF91992787FD9095B8
:101020000895FC010590615070400110D8F780953B
:1010300090958E0F9F1F0895FB01DC0102C0019067
:101040000D9241505040D8F70895DC0101C06D93D6
:1010500041505040E0F70895FB01DC010D90002065
:10106000E9F7119701900D920020E1F70895FB0137
:10107000DC0101900D920020E1F70895FB01DC01F5
:101080000D900020E9F711974150504028F0019051
:1010900000200D92C9F708951C920895FB01DC0110
:1010A0004150504030F08D910190801919F400208A
:1010B000B9F7881B990B0895FB01DC0141505040A2
:1010C00048F001900D920020C9F701C01D924150D7
:1010D0005040E0F70895FC0161507040019001100C
:1010E000D8F7809590958E0F9F1F0895FB01519121
:1010F0005523A9F0BF01DC014D9145174111E1F7DE
:1011000059F4CD010190002049F04D914015411155
:10111000C9F3FB014111EFCF81E090E00197089501
:101120000F931F93CF93DF938C01EB018B8181FF92
:101130001BC082FF0DC02E813F818C819D812817AD
:10114000390764F4E881F9810193F983E88306C0E3
:10115000E885F985802F1995892B31F48E819F813F
:1011600001969F838E8302C00FEF1FEFC801DF91AE
:10117000CF911F910F910895AEE0B0E0E2ECF8E05E
:101180000C94A9560E891F8986E08C831A830983E3
:101190008FEF9FE79E838D839E01265E3F4FCE019A
:1011A0000196688D798DA9010E94B0032F81388541
:1011B000020F131FF80110822E96E4E00C94C5561E
:1011C000AEE0B0E0E6EEF8E00C94A9568C0177FFB3
:1011D00002C060E070E8615070407E836D831A83C6
:1011E000098386E08C83CE010196BA01A9010E9491
:1011F000B0032D813E8137FD09C0EF81F8852E17A0
:101200003F070CF4F901E00FF11F10822E96E4E085
:101210000C94C556AEE0B0E0E0E1F9E00C94A956BC
:101220008C0177FF02C060E070E8615070407E83FF
:101230006D831A8309838EE08C83CE010196BA01F7
:10124000A9010E94B0032D813E8137FD09C0EF81C5
:10125000F8852E173F070CF4F901E00FF11F1082FB
:101260002E96E4E00C94C556FA01AA27283051F1D5
:10127000203181F1E8946F936E7F6E5F7F4F8F4FC7
:101280009F4FAF4FB1E03ED0B4E03CD0670F781F26
:10129000891F9A1FA11D680F791F8A1F911DA11D0B
:1012A0006A0F711D811D911DA11D20D009F4689444
:1012B0003F912AE0269F11243019305D3193DEF6EC
:1012C000CF010895462F4770405D4193B3E00FD0A2
:1012D000C9F7F6CF462F4F70405D4A3318F0495D8D
:1012E00031FD4052419302D0A9F7EACFB4E0A69570
:1012F0009795879577956795BA95C9F70097610592
:10130000710508959B01AC010A2E069457954795E7
:1013100037952795BA95C9F7620F731F841F951FDC
:10132000A01D089583E090E09093E51C8093E41C59
:101330009093E31C8093E21C1092E81C0895809126
:10134000E81C8823C1F082E090E00E943F0F8055A6
:101350009A402FEF8C3992071CF0853691059CF04E
:101360008091E41C9091E51C4DEC5CEC6CEC7DE311
:101370000E94C612089584E090E040E050E060E8EA
:101380007FE30E94C6120895CF93DF930E94241436
:10139000EC010E942914BC018C179D0774F4CE0146
:1013A000861B970B039764F584E090E060E070E0A3
:1013B0000E947512DF91CF910895C817D907A4F73D
:1013C0008C1B9D0B039784F3CB01BE010E946656D4
:1013D000660F771F660F771FCB01880F991F880F45
:1013E000991F680F791F83E090E00E94751283E0D7
:1013F00090E09093E31C8093E21CDF91CF910895DD
:10140000CE010E946656660F771F660F771FCB01CD
:10141000880F991F880F991F680F791F82E090E04D
:101420000E94751282E090E09093E31C8093E21C8E
:10143000DF91CF9108950E9424144F971CF021E072
:10144000822F08950E94291420E04F97C4F7822F1D
:1014500008950E941B0A882359F51092E81C82E027
:1014600090E00E943F0F24E0813B920798F482E0D5
:1014700090E09093E51C8093E41C9093E31C809390
:10148000E21C8091E41C9091E51C62E370E00E94F4
:10149000751208958C55924188F083E090E0909306
:1014A000E51C8093E41C9093E31C8093E21CE9CF3D
:1014B0000E94C40981E08093E81C08958091E21C99
:1014C0009091E31C9093E51C8093E41CDACF08957F
:1014D00008958091E91C9091EA1C009761F0813099
:1014E0009105A9F00297029760F081E061E041E088
:1014F0000E94EA0B089580E061E040E00E94EA0B60
:10150000089580E060E041E00E94EA0B089581E0E8
:1015100060E040E00E94EA0B0895A0E2B0E0E3E959
:10152000FAE00C94A3568091EC1C882309F082C049
:101530000E942E1419821A821B821C828CE0FE01EA
:101540003596DF01282F1D922A95E9F7198A1A8A04
:101550001B8A1C8AFE017596DF011D928A95E9F7A8
:101560000E94A9117B018C010E94C2112DB73EB7C8
:101570002C5030400FB6F8943EBF0FBE2DBFEDB7D4
:10158000FEB7319621E1A22EB12CAC0EBD1EADB737
:10159000BEB71296BC92AE92119720E032E0338330
:1015A0002283E482F58206831783608771878287AE
:1015B00093870E94BC082DB73EB7245F3F4F0FB6FC
:1015C000F8943EBF0FBE2DBF0E941F146C010E94F5
:1015D00024147C010E942914ADB7BEB71A970FB628
:1015E000F894BEBF0FBEADBFEDB7FEB731968E010A
:1015F0000F5F1F4F12961C930E93119720E132E05C
:1016000033832283D582C482F782E68291878087E2
:101610000E94BC082DB73EB7265F3F4F0FB6F89427
:101620003EBF0FBE2DBFC801B5010E949F0B81E0D8
:101630008093EC1CA096EAE00C94BF568091EF1CBE
:10164000811108950E94341281E08093EF1C089567
:101650000E941E0B0E948D0A0E94690AF9CF84E63F
:1016600090E00E94BE14882309F581E090E00E947A
:10167000BE14882311F01092EF1C82E090E00E94CB
:10168000BE14882311F01092EB1C8CE090E00E94B5
:10169000BE14882311F01092EC1C82E090E00E94AE
:1016A000BE14882311F01092F01C08950E94B22DF0
:1016B0000E94C81D8091E91C9091EA1C843091051C
:1016C000A1F201969093EA1C8093E91CCECF0E9470
:1016D0002F0B08950E94DB0B0E9496140E94C00BF2
:1016E0000E94DA1387E69BE00E949A140E949209F6
:1016F0001092EA1C1092E91C1092EF1C1092EC1C44
:101700001092F01C1092EB1C83E090E09093EE1C82
:101710008093ED1C85E090E060E070E00E9475121F
:1017200008951F93182F81E090E06EEF0E940F152F
:1017300081E090E0612F0E940F151F910895EF92B4
:10174000FF920F931F938C017B0181E090E00E9438
:10175000910B80E890E00E94910B81E090E0B8014D
:101760000E94811A80EC90E00E94910B81E090E051
:10177000B7010E94811A1F910F91FF90EF90089579
:101780000F931F9381E090E040E855E260E070E045
:101790002FEF30E000E410E00E942B1C539A5B9A7C
:1017A0008CE090E00E94910B81E090E00E94910B10
:1017B0001F910F910895E1E0F1E0808188608083BE
:1017C0006B9A6D9AE2E0F1E0808188608083739A81
:1017D000759A0895882361F080910201877F809334
:1017E0000201662361F07398442361F4759A0895A9
:1017F000809102018860809302016623A1F7739AA9
:101800004423A1F375980895FFCF0E94B53A14C000
:101810008130910561F18230910591F10397F1F0EA
:1018200084E090E040E050E060E070E00E94C6128A
:101830008AE090E00E947D4D809155099091560973
:1018400085309105A9F3009719F780E090E040E01A
:1018500050E060E87FE30E94C612EACF82E090E0A9
:1018600040E050E060E87FE30E94C612E1CF81E0F3
:1018700090E040E050E060E87FE30E94C612D8CFDD
:1018800083E090E040E050E060E87FE30E94C61211
:10189000CFCFA0E0B0E0EFE4FCE00C94A5560E94AE
:1018A000B53A88EB9BE00E947D4D95E0C92ED12C86
:1018B00083E0E82EF12C02E010E0C1E0D0E00CC0A3
:1018C0008133A9F08233C1F08333D9F08433F1F04E
:1018D0008AEF90E00E947D4D0E94B22D0E94C81DAB
:1018E000803371F71092560910925509F1CFD093B9
:1018F0005609C0935509ECCF10935609009355092A
:10190000E7CFF0925609E0925509E2CFD0925609FE
:10191000C0925509DDCF0E94B53A14C081309105BF
:1019200061F182309105E9F083309105D1F004979F
:10193000F1F080E060E040E00E94EA0B89E190E095
:101940000E947D4D809155099091560985309105F1
:1019500081F3009719F780E061E040E00E94EA0B14
:10196000EDCF80E060E041E00E94EA0BE7CF81E04C
:1019700061E041E00E94EA0BE1CF81E060E040E0FD
:101980000E94EA0BDBCF2F923F924F925F926F92B1
:101990007F929F92AF92BF92CF92DF92EF92FF928F
:1019A0000F931F93DF93CF93CDB7DEB7A2970FB6F8
:1019B000F894DEBF0FBECDBF0E94B53A9E012B5FEB
:1019C0003F4F3AA329A365E1262E312C2C0E3D1E54
:1019D00051E1A52EB12CAC0EBD1E4FE1442E42E0CC
:1019E000542E6E010894C11CD11C3FE2632E32E0DC
:1019F000732E2CE0922E19821A821B821C82A9A1BE
:101A0000BAA1E92D1D92EA95E9F7198A1A8A1B8A6B
:101A10001C8AD101E92D1D92EA95E9F70E94111463
:101A20000E94A9117B018C010E94C2112DB73EB703
:101A30002C5030400FB6F8943EBF0FBE2DBFEDB70F
:101A4000FEB73196ADB7BEB71296BC92AE92119763
:101A500053824282E482F58206831783608771870E
:101A6000828793870E94BC08EDB7FEB73C960FB6FD
:101A7000F894FEBF0FBEEDBF0E941F147C010E94B0
:101A800024148C010E9429142DB73EB72A503040EF
:101A90000FB6F8943EBF0FBE2DBFEDB7FEB731961F
:101AA000ADB7BEB71296DC92CE9211977382628266
:101AB000F582E48217830683918780870E94BC08A1
:101AC000EDB7FEB73A960FB6F894FEBF0FBEEDBF66
:101AD000C601B5010E949F0B82E390E00E947D4DFC
:101AE0008ACF0E94B53A0E94341285E090E00E94AD
:101AF0007D4DF9CF0E94B53A0E942E148AE090E005
:101B00000E947D4DF9CF0E94B53A85E090E060E0FB
:101B100070E00E9475120AC086E090E062E370E017
:101B20000E9475128AE090E00E947D4D80915509D7
:101B300090915609059781F70E94290AF3CFEF92F9
:101B4000FF920F931F93789480E090E040E052EC76
:101B500061E070E02FEF30E000E410E00E942B1C09
:101B60007C0182E090E040E855E260E070E02FEF19
:101B700030E00E942B1C40E855E260E070E09701E5
:101B8000E12CE2ECFE2EE1E00E2F112D0E94B52A91
:101B90008EE392E00E94052B0E94A62883E492E047
:101BA00069E472E041E050E00E94072C80E361E5C7
:101BB00072E00E947E2B81E36AE572E00E947E2B38
:101BC00082E364E672E00E947E2B83E36EE672E0BD
:101BD0000E947E2B84E36FE772E00E947E2B0E94BE
:101BE00043281F910F91FF90EF9008950E949F0D41
:101BF0000E94DB0B0E9496140E94C00B0E94DA1315
:101C00000E94920908958F929F92AF92BF92CF92B5
:101C1000DF92EF92FF920F93F8E88F2EF2E09F2E63
:101C200083E89DE0B40148E750E020E030E003E0C5
:101C3000EE24FF24CC24DD24AA24BB240E941051CE
:101C40008AE79DE0B40148E750E020E030E00E94E0
:101C5000105181E79DE0B40140E850E020E030E021
:101C60000E94105183EC9CE0B40140E850E020E079
:101C700030E00E9410518BE89CE0B40140E850E055
:101C800020E030E00E94105189E49CE0B4014CE770
:101C900052E020E030E001E00E94105185E09CE03D
:101CA000B40140E850E020E030E003E00E94105131
:101CB0000F91FF90EF90DF90CF90BF90AF909F90EB
:101CC0008F90089583EE92E00E94791A0E94F60D9B
:101CD0000E94030E0E9415528AEB92E00E94791A2C
:101CE00080E090E008959C01DC01AA0FBB1FAC01CD
:101CF000440F551F440F551F440F551FFD01E40F9E
:101D0000F51FE65FF54F0190F081E02D8081918114
:101D10008C54944085579E4020F080E59AE0918352
:101D20008083F901EE0FFF1FEE0FFF1FE20FF31F7D
:101D3000EE0FFF1FE45FF54F0190F081E02DA40F3F
:101D4000B51FA65FB54F14964D915C9115972081F4
:101D500081E090E016960C90169702C0880F991FAC
:101D60000A94E2F7282B2083FA01208180958223B0
:101D700080831896ED91FC9119970084F185E02DF0
:101D800020811796AC91A13069F0A13030F480E841
:101D90009FEB822B892380830895A230E9F788E0A6
:101DA0009BEFF7CF80E29FEEF4CFCF93DF93FC0160
:101DB000EE0FFF1FEE0FFF1FE80FF91FEE0FFF1FC3
:101DC000E45FF54F40815181DC01AA0FBB1FAA0FD0
:101DD000BB1FAA0FBB1F880F991FA80FB91FA65FB3
:101DE000B54F1496ED91FC911597EA01288181E099
:101DF00090E016960C90169702C0880F991F0A94CF
:101E0000E2F7282B288320818095822380831896EF
:101E1000ED91FC9119970084F185E02D9081179642
:101E20008C91813069F0813030F48FE38923808395
:101E3000DF91CF910895823029F0DF91CF910895FD
:101E40008FECF4CF83EFF2CF9C01CB018C54944004
:101E500085579E4098F4C901F901EE0FFF1FEE0F60
:101E6000FF1FEE0FFF1F880F991FE80FF91FE65F96
:101E7000F54F0190F081E02D7183608308959C01FE
:101E8000FC01EE0FFF1FEE0FFF1FEE0FFF1F220FD3
:101E9000331FE20FF31FE65FF54F0190F081E02D55
:101EA00020813181C9010895CF93DF93DC01EB01DB
:101EB000F894FC01EE0FFF1FE45CF54F80819181E7
:101EC000019739F020E030E07894C901DF91CF919B
:101ED0000895AA0FBB1FAA0FBB1FAC5CB54F8D9115
:101EE0009D910D90BC91A02D88839983AA83BB837B
:101EF0001182108221E030E07894C901DF91CF9106
:101F000008951F920F920FB60F9211248F939F93F3
:101F1000AF93BF938091280A9091290AA0912A0A31
:101F2000B0912B0A0196A11DB11D8093280A9093B0
:101F3000290AA0932A0AB0932B0ABF91AF919F91CF
:101F40008F910F900FBE0F901F9018951F920F92B8
:101F50000FB60F9211248F939F93AF93BF938091ED
:101F60002C0A90912D0AA0912E0AB0912F0A019669
:101F7000A11DB11D80932C0A90932D0AA0932E0AC7
:101F8000B0932F0ABF91AF919F918F910F900FBE89
:101F90000F901F9018951F920F920FB60F920BB6CD
:101FA0000F921124EF92FF920F931F932F933F9361
:101FB0004F935F936F937F938F939F93AF93BF9351
:101FC000CF93DF93EF93FF93E091EA09F091EB0950
:101FD000808180628083E091F009F091F109C081F5
:101FE000D1812091280A3091290A40912A0A5091E2
:101FF0002B0A1092280A1092290A10922A0A10928B
:102000002B0A211531054105510509F444C0809181
:10201000300A9091310A7E0100E010E0A0E0B0E0CB
:10202000E81AF90A0A0B1B0BCA01B9012FE33CE9B4
:1020300040E050E00E943356E60EF71E081F191FBD
:10204000E092340AF092350A0093360A1093370A68
:1020500081E090E090933D0A80933C0AD093310A4E
:10206000C093300AFF91EF91DF91CF91BF91AF9173
:102070009F918F917F916F915F914F913F912F91A0
:102080001F910F91FF90EF900F900BBE0F900FBE1E
:102090000F901F9018958091300A9091310A9E01FF
:1020A000281B390B790100E010E0CACF1F920F9274
:1020B0000FB60F920BB60F921124EF92FF920F936F
:1020C0001F932F933F934F935F936F937F938F93C0
:1020D0009F93AF93BF93CF93DF93EF93FF93A09121
:1020E000E809B091E909ED91FC9111978081806236
:1020F00080831696ED91FC911797C081D181209134
:102100002C0A30912D0A40912E0A50912F0A1092DC
:102110002C0A10922D0A10922E0A10922F0A2115C5
:1021200031054105510509F444C08091320A90916E
:10213000330A7E0100E010E0A0E0B0E0E81AF90AFE
:102140000A0B1B0BCA01B9012FE33CE940E050E048
:102150000E943356E60EF71E081F191FE092380A38
:10216000F092390A00933A0A10933B0A81E090E01A
:1021700090933F0A80933E0AD093330AC093320A69
:10218000FF91EF91DF91CF91BF91AF919F918F918F
:102190007F916F915F914F913F912F911F910F917F
:1021A000FF90EF900F900BBE0F900FBE0F901F90FF
:1021B00018958091320A9091330A9E01281B390BA1
:1021C000790100E010E0CACF8091A0008F73809366
:1021D000A0008091A0008F7C8093A0008091A0003F
:1021E000837F8093A0008091A0009091A1008360E4
:1021F00098618093A0009093A1008091A1008260DB
:102200008A7F8093A1002EE33CE93093A9002093BC
:10221000A800809120018F7380932001809120017C
:102220008F7C8093200180912001837F8093200107
:102230008091200190912101836098618093200119
:10224000909321018091210182608A7F80932101F6
:1022500030932901209328011092310A1092300AFC
:102260001092280A1092290A10922A0A10922B0A18
:1022700080910A018E7F80930A0180910B018E7FED
:1022800080930B01E091EC09F091ED09808180626F
:102290008083808181608083E091F409F091F50969
:1022A0008081806480831092330A1092320A1092E7
:1022B0002C0A10922D0A10922E0A10922F0A809149
:1022C0000A018D7F80930A0180910B018D7F80939D
:1022D0000B01A091E809B091E9091296ED91FC91EA
:1022E00013978081806280831296ED91FC91139701
:1022F0008081816080831A96ED91FC911B9780818B
:10230000806480830895882391F4CB01BA0120E092
:1023100030E840EC54EC0E94D05520E030E045E23B
:1023200055E40E9419540E94E954CB010895CB0151
:10233000BA0120E030E047E055E40E94D05520E0AB
:1023400030E045E255E40E9419540E94E954CB0163
:1023500008956091011D7091021D8091031D90915F
:10236000041D2091051D3091061D4091071D5091BF
:10237000081D0E94195420E030E040E05FE30E9415
:10238000D05508956091F11C7091F21C8091F31C5E
:102390009091F41C2091F51C3091F61C4091F71C93
:1023A0005091F81C0E94195420E030E040E05FE3B7
:1023B0000E94D0550895CF92DF92EF92FF920F9333
:1023C0001F938C01F42EE52ED62EC72E60E070E010
:1023D0000E94540F019769F12F2D3E2D4D2D5C2D3C
:1023E000C901DA016C017D01000F111F000F111FDF
:1023F0000F50134EC701B60120E030E048EC52E424
:102400000E9481549B01AC01F8016081718182813D
:1024100093810E941954F8016083718382839383AE
:10242000B601C7011F910F91FF90EF90DF90CF9001
:1024300008956091000070910100809102009091D8
:1024400003000E941A552DEB37E346E055E30E9446
:10245000D0559B01AC016CE772EF80EB9BE30E94CF
:1024600081546B017C01C0CF4091F91C5091FA1C42
:102470006091FB1C7091FC1C80E090E00E94DB11DD
:102480006093011D7093021D8093031D9093041DA2
:102490004091FD1C5091FE1C6091FF1C7091001D2D
:1024A00081E090E00E94DB116093051D7093061D92
:1024B0008093071D9093081D2091011D3091021DEE
:1024C0004091031D5091041D2093F91C3093FA1C78
:1024D0004093FB1C5093FC1C6093FD1C7093FE1CEE
:1024E0008093FF1C9093001D08950F931F93CF932B
:1024F000DF93EC018B0182E090E00E943F0FBC0172
:10250000C330D10569F0C230D105C9F0C530D1055D
:1025100071F1249719F1DF91CF911F910F910895D7
:10252000601B710B82E090E00E94240F82E090E03B
:102530000E94730EDF91CF911F910F910895600F4C
:10254000711F82E090E00E94240F82E090E00E94E0
:10255000730EDF91CF911F910F91089582E090E06B
:102560000E94D50EDF91CF911F910F91089582E0C7
:1025700090E066E87BE00E94240F82E090E00E94F9
:10258000730EDF91CF911F910F910895A0E0B0E0FD
:10259000ECECF2E10C949F56EC013A014B01A09057
:1025A000FD1CB090FE1CC090FF1CD090001DE09060
:1025B000F91CF090FA1C0091FB1C1091FC1CC60148
:1025C000B501A80197010E94CC5518160CF05CC00B
:1025D000C601B50120E030E040E050E00E947D54AB
:1025E000882309F451C0C801B701A60195010E94D2
:1025F00081547B018C0160E070E080E89FE32097CC
:1026000009F053C0A40193010E94D05520E030E0AE
:1026100047E055E40E94D05520E030E045E255E423
:102620000E9419540E94E9549B01AC0180E090E0A3
:10263000B9010E94240F80E090E00E94730EC8014F
:10264000B701A40193010E94D05520E030E840EC8E
:1026500054EC0E94D05520E030E045E255E40E9461
:1026600019540E94E9549B01AC0181E090E0B9014A
:102670000E94240F81E090E00E94730ECDB7DEB778
:10268000EEE00C94BB5696C0C601B501A8019701B7
:102690000E947D548823E4F060E070E080E89FE3CE
:1026A0007B018C01209709F4ADCFC130D105A1F198
:1026B000C330D10509F458C0C230D10521F12497A7
:1026C00009F45BC0CDB7DEB7EEE00C94BB5672C028
:1026D000C801B70120E030E040E050E00E947D54A6
:1026E0008823D1F2C601B501A80197010E94815447
:1026F0000F2EF0E0EF2EF0E0FF2EF0E80F2FFFE3BB
:102700001F2FF02DCFCFA40193010E94D05520E0C0
:1027100030E840EC54EC7ECFA40193010E94D055E8
:1027200020E030E840EC54EC0E94D05520E030E04E
:1027300045E255E40E9419540E94E9549B01AC0102
:1027400080E090E0B9010E94240F80E090E00E94B8
:10275000730EC801B701A40193010E94D05520E077
:1027600030E047E055E475CFA40193010E94D055B5
:1027700020E030E047E055E4D7CF81E090E00E94D0
:10278000D50E80E090E00E94D50E80E090E0A0E0C1
:10279000B0E08093FD1C9093FE1CA093FF1CB093AF
:1027A000001D8093F91C9093FA1CA093FB1CB0931E
:1027B000FC1C88CF0E94E41080E090E0A0E0B0E034
:1027C0008093051D9093061DA093071DB093081DCF
:1027D0008093011D9093021DA093031DB093041DCF
:1027E0008093FD1C9093FE1CA093FF1CB093001DD2
:1027F0008093F91C9093FA1CA093FB1CB093FC1CD3
:102800008093F11C9093F21CA093F31CB093F41CE2
:102810008093F51C9093F61CA093F71CB093F81CC2
:102820000895EAE0FDE1A0E4BAE080818D9332965C
:102830008DE1EA31F807C9F780E49AE008958091C4
:102840001D1D90911E1D089580911B1D90911C1DB2
:1028500008958091191D90911A1D0895A4E0B0E08B
:10286000E4E3F4E10C949B5609E01DE1CC24DD2463
:10287000AA24BB24882499245EEFE52E5FEFF52E71
:102880002E010894411C511C43E0642E712C6C0EE7
:102890007D1E31ED232E332433940BC0A80EB91EB8
:1028A0000E5F1F4F0894E11CF11C2DE10931120746
:1028B000F9F020ED29838E2D8C5F8A832B823C8258
:1028C000C20162E00E948431C30162E00E9484314F
:1028D000C80162E00E94CF31F801818190E0C80E0A
:1028E000D91EF4E0EF16F104C8F2880E991ED8CF75
:1028F000D594C794D594C794D594C794D0921E1DEF
:10290000C0921D1DB594A794B594A794B0921C1DB8
:10291000A0921B1D959487949594879490921A1D6C
:102920008092191D2496E2E10C94B75680EC0E9427
:10293000D83208951092201D10921F1D9093221DD1
:102940008093211DA1E7B0E08C918E7F8C93109233
:102950009000E1E9F0E010828FE89DEF9093950000
:10296000809394008081846080838C9181608C93BB
:10297000089580911F1D9091201D0895BC01209104
:102980001F1D3091201DC9010E946656892B11F030
:1029900080E0089580E0232B09F4089581E00895F4
:1029A0001F920F920FB60F920BB60F9211242F9316
:1029B0003F934F935F936F937F938F939F93AF93C7
:1029C000BF93EF93FF9380911F1D9091201D01965F
:1029D0009093201D80931F1D8FE89DEF909395008D
:1029E00080939400E091211DF091221D1995FF9193
:1029F000EF91BF91AF919F918F917F916F915F9177
:102A00004F913F912F910F900BBE0F900FBE0F90E3
:102A10001F9018959093490A8093480A08959C0145
:102A2000FC01EE0FFF1FEE0FFF1FE80FF91FEE0F67
:102A3000FF1FE75AF64F0190F081E02D808185FD60
:102A400007C095E8892F8A95F1F7808185FFFACF35
:102A5000F901EE0FFF1FEE0FFF1FEE0FFF1F220FFA
:102A6000331FE20FF31FE95AF64F0190F081E02D7A
:102A700060830895AC01FC01EE0FFF1FEE0FFF1FF6
:102A8000E80FF91FEE0FFF1FE75AF64F0190F08194
:102A9000E02D808187FD07C025E8822F8A95F1F718
:102AA000808187FFFACF80818C7191F4FA01EE0F5B
:102AB000FF1FEE0FFF1FEE0FFF1F440F551FE40F08
:102AC000F51FE95AF64F0190F081E02D80810895BD
:102AD0008FEF08959C01FC01EE0FFF1FEE0FFF1F0B
:102AE000E80FF91FEE0FFF1FE75AF64FA081B181E3
:102AF0008C918823CCF5A901440F551FF901EE0FE5
:102B0000FF1FEE0FFF1FEE0FFF1FE40FF51FE95A27
:102B1000F64F0190F081E02D80818C9187FDFCCFF4
:102B20000FB6F8940F92CA01820F931FFC01EE0FAB
:102B3000FF1FEE0FFF1FE80FF91FEE0FFF1FDF0152
:102B4000AD5DB24E11961C921E92EB5DF24E169642
:102B50008D919C9117979183808315969C938E936A
:102B600014970F900FBE0895A901440F551FD8CF99
:102B70000FB6F8940F92FC01EE0FFF1FE80FF91F3C
:102B8000CF01880F991F880F991FE80FF91FEE0FCB
:102B9000FF1FED5DF24E208131810F900FBEC90104
:102BA0000895CF93DF939C01DB010FB6F8940F9249
:102BB000AC01440F551FFA01E80FF91FCF01880F30
:102BC000991F880F991FE80FF91FEE0FFF1FED5D8A
:102BD000F24E808191810F900FBE892B41F1CA0185
:102BE000820F931F9C01220F331F220F331F820F6E
:102BF000931F880F991F8D5D924EEC01EC81FD8132
:102C000021910FB6F8940F92FD83EC838885998506
:102C1000E817F90781F08881998101979983888362
:102C20000F900FBE2C9381E0DF91CF91089580E04B
:102C3000DF91CF9108958E819F819D838C83EBCF0F
:102C4000CF93DF93DC010FB6F8940F92FC01EE0FE7
:102C5000FF1FE80FF91FCF01880F991F880F991FD9
:102C6000E80FF91FEE0FFF1FED5DF24EC485D5850D
:102C70000F900FBEAD01440F551FCA018A0F9B1F55
:102C80009C01220F331F220F331F280F391F220FE1
:102C9000331FF901ED5DF24E86899789C817D90770
:102CA00091F1C901815D924EEC01EA81FB81608363
:102CB0000FB6F8940F928A819B8101969B838A8339
:102CC000288539858217930709F44EC08881998138
:102CD0000196998388830F900FBE91E0AA0FBB1FC6
:102CE000AA0FBB1FAA0FBB1FA40FB51FA95AB64F2F
:102CF0001496ED91FC911597808180628083892FD5
:102D0000DF91CF91089585E8982F9A95F1F7982F44
:102D10009A95F1F7982F9A95F1F78A95F1F70FB6F2
:102D2000F8940F92FA01EA0FFB1FCF01880F991F49
:102D3000880F991FE80FF91FEE0FFF1FED5DF24E90
:102D4000848595850F900FBEC817D90791F0CA01E9
:102D50008A0F9B1F9C01220F331F220F331F820FEC
:102D6000931F880F991F9ECF8E819F819B838A839B
:102D7000ADCF90E0B3CFFC01EE0FFF1FEE0FFF1FB2
:102D8000E80FF91FEE0FFF1FE75AF64F0190F08191
:102D9000E02D808180780895FC01EE0FFF1FEE0F7B
:102DA000FF1FE80FF91FEE0FFF1FE75AF64F0190C4
:102DB000F081E02D8081807208959C01FC01EE0F6E
:102DC000FF1FEE0FFF1FEE0FFF1F220F331FE20F3B
:102DD000F31FE95AF64F0480F581E02D808180626F
:102DE000808308959C01FC01EE0FFF1FEE0FFF1F73
:102DF000EE0FFF1F220F331FE20FF31FE95AF64FAA
:102E00000480F581E02D80818F7D80830895CF93AC
:102E1000DF93AC01FC01EE0FFF1FEE0FFF1FE80F69
:102E2000F91FEE0FFF1FE75AF64F0190F081E02DDA
:102E300080818C7109F056C0FA01EE0FFF1FCA01A4
:102E4000880F991F880F991F880F991FE80FF91F86
:102E5000E95AF64F0190F081E02D60810FB6F894A9
:102E60000F92FA01EE0FFF1FE40FF51FCF01880F3D
:102E7000991F880F991FE80FF91FEE0FFF1FED5DD7
:102E8000F24E208131810F900FBECA01880F991F29
:102E9000840F951FFC01EE0FFF1FEE0FFF1FE80FC1
:102EA000F91FEE0FFF1FED5DF24E82859385281707
:102EB0003907C1F0EF01EA81FB8160830FB6F89416
:102EC0000F928A819B8101969B838A83288539850D
:102ED0008217930751F0888199810196998388839D
:102EE0000F900FBEDF91CF9108958E819F819B83BC
:102EF0008A83F1CF1F920F920FB60F920BB60F92EB
:102F000011242F933F934F935F936F937F938F93EE
:102F10009F93AF93BF93EF93FF9383E090E00E9462
:102F20000717FF91EF91BF91AF919F918F917F9183
:102F30006F915F914F913F912F910F900BBE0F902A
:102F40000FBE0F901F9018951F920F920FB60F9201
:102F50000BB60F9211242F933F934F935F936F9370
:102F60007F938F939F93AF93BF93EF93FF9382E0F1
:102F700090E00E940717FF91EF91BF91AF919F9151
:102F80008F917F916F915F914F913F912F910F9012
:102F90000BBE0F900FBE0F901F9018951F920F92AF
:102FA0000FB60F920BB60F9211242F933F934F93AE
:102FB0005F936F937F938F939F93AF93BF93EF93A1
:102FC000FF9381E090E00E940717FF91EF91BF917E
:102FD000AF919F918F917F916F915F914F913F91B1
:102FE0002F910F900BBE0F900FBE0F901F90189552
:102FF0001F920F920FB60F920BB60F9211242F93C0
:103000003F934F935F936F937F938F939F93AF9370
:10301000BF93EF93FF9380E090E00E940717FF912A
:10302000EF91BF91AF919F918F917F916F915F9140
:103030004F913F912F910F900BBE0F900FBE0F90AD
:103040001F901895CF93DF93DC010FB6F8940F9281
:103050009C01220F331FF901E80FF91FCF01880FE0
:10306000991F880F991FE80FF91FEE0FFF1FED5DE5
:10307000F24E848595850F900FBE892BA9F1FD0135
:10308000EE0FFF1FEE0FFF1FEE0FFF1FE20FF31FEC
:10309000E95AF64F40815181C9018A0F9B1F9C015B
:1030A000220F331F220F331F820F931F880F991F88
:1030B000815D924EEC01EC81FD8121910FB6F89477
:1030C0000F92FD83EC8388859985E817F90701F154
:1030D000888199810197998388830F900FBEFA01A7
:1030E0002083DF91CF910895AA0FBB1FAA0FBB1FAA
:1030F000AA0FBB1FA20FB31FA95AB64F1496ED918A
:10310000FC91159780818F7D8083DF91CF91089509
:103110008E819F819D838C83DBCF1F920F920FB690
:103120000F920BB60F9211242F933F934F935F93FF
:103130006F937F938F939F93AF93BF93EF93FF937F
:1031400083E090E00E942218FF91EF91BF91AF9130
:103150009F918F917F916F915F914F913F912F91AF
:103160000F900BBE0F900FBE0F901F9018951F92DF
:103170000F920FB60F920BB60F9211242F933F931D
:103180004F935F936F937F938F939F93AF93BF936F
:10319000EF93FF9382E090E00E942218FF91EF915D
:1031A000BF91AF919F918F917F916F915F914F915F
:1031B0003F912F910F900BBE0F900FBE0F901F905D
:1031C00018951F920F920FB60F920BB60F92112403
:1031D0002F933F934F935F936F937F938F939F931F
:1031E000AF93BF93EF93FF9381E090E00E9422188A
:1031F000FF91EF91BF91AF919F918F917F916F91CF
:103200005F914F913F912F910F900BBE0F900FBE8A
:103210000F901F9018951F920F920FB60F920BB63A
:103220000F9211242F933F934F935F936F937F934C
:103230008F939F93AF93BF93EF93FF9380E090E0C2
:103240000E942218FF91EF91BF91AF919F918F91B2
:103250007F916F915F914F913F912F910F900BBE96
:103260000F900FBE0F901F901895A0E0B0E0EBE319
:10327000F9E10C94A5566C017B01DB010D90002057
:10328000E9F78D0101501040061B170B71F0C0E0EB
:10329000D0E0F701EC0FFD1F2196E491C6016E2FDF
:1032A0000E942016C017D107A0F3CDB7DEB7E8E023
:1032B0000C94C156BC018091480A9091490A0E9421
:1032C00035190895A0E0B0E0E8E6F9E10C94A556C0
:1032D0006C017B01DB010D900020E9F78D010150AD
:1032E0001040061B170B79F0C0E0D0E0E0E0F0E002
:1032F0002196EE0DFF1DC60160810E942016FE0181
:10330000C017D107A8F3CDB7DEB7E8E00C94C156DB
:10331000A0E0B0E0EEE8F9E10C94A3567C016B016B
:103320005A018C01000F111FC8018E0D9F1DFC0159
:10333000EE0FFF1FEE0FFF1FE80FF91FEE0FFF1F2D
:10334000ED5DF24E9F01245E3F4F848D958D019778
:1033500039F4E9010E94E930888199810197D1F31C
:10336000C8018E0D9F1D8C01000F111F000F111F32
:10337000080F191F000F111F0D5D124E81E090E024
:10338000F801958F848F628D738D808D918DA6014C
:1033900095010E940A09F801608D718DC7010E9494
:1033A0006219F801158E148ECDB7DEB7EAE00C94E1
:1033B000BF56A0E0B0E0EFEDF9E10C94A3567C011C
:1033C0006B015A018C01000F111FC8018E0D9F1D4A
:1033D000FC01EE0FFF1FEE0FFF1FE80FF91FEE0FAE
:1033E000FF1FED5DF24E9F01245E3F4F848D958D52
:1033F000019739F4E9010E94E930888199810197A8
:10340000D1F3C8018E0D9F1D8C01000F111F000FFD
:10341000111F080F191F000F111F0D5D124E81E0C3
:1034200090E0F801958F848F628D738D808D918DE2
:10343000A60195010E94E008F801608D718DC70119
:103440000E946219F801158E148ECDB7DEB7EAE03E
:103450000C94BF56BC018091480A9091490A0E9481
:10346000621908950F931F93CF93DF938B01DB01B4
:103470000D900020E9F7BD0161507040601B710B99
:1034800099F120E030E0DC01AA0FBB1FAA0FBB1F9F
:10349000EC01CC0FDD1FCC0FDD1FCC0FDD1FA80F03
:1034A000B91FAA0FBB1FA75AB64F45E8880F991F2F
:1034B000C80FD91FC95AD64FF801E20FF31F2F5F6B
:1034C0003F4F9491ED91FC911197808185FD06C04D
:1034D000842F8A95F1F7808185FFFACFE881F98101
:1034E00090832617370740F3DF91CF911F910F91FB
:1034F0000895BC018091480A9091490A0E94321AAD
:1035000008950F931F93CF93DF938B01DB010D90F1
:103510000020E9F7BD0161507040601B710B99F10B
:1035200020E030E0DC01AA0FBB1FAA0FBB1FEC019B
:10353000CC0FDD1FCC0FDD1FCC0FDD1FA80FB91F77
:10354000AA0FBB1FA75AB64F45E8880F991FC80F8F
:10355000D91FC95AD64FF801E20FF31F90812F5F90
:103560003F4FED91FC911197808185FD06C0842F1E
:103570008A95F1F7808185FFFACFE881F981908300
:103580002617370740F3DF91CF911F910F910895D0
:103590000F931F93CF93DF938C01FB019A01880F48
:1035A000991F800F911FEC01CC0FDD1FCC0FDD1F89
:1035B000C80FD91FCC0FDD1FCD5DD24E8C8D9D8DD8
:1035C000019741F495E8892F8A95F1F7892F8A951B
:1035D000F1F7F9CF81E090E09D8F8C8F6A8D7B8D24
:1035E000888D998DAF010E940A09688D798DC80177
:1035F0000E94811A1D8E1C8EDF91CF911F910F9119
:103600000895CF93DF93FB01DA019C01220F331F52
:10361000280F391FE901CC0FDD1FCC0FDD1FC20FB2
:10362000D31FCC0FDD1FCD5DD24E8C8D9D8D0197AC
:1036300041F495E8892F8A95F1F7892F8A95F1F75A
:10364000F9CF81E090E09D8F8C8F6A8D7B8D888D86
:10365000998DAF019D010E94E008688D798D809160
:10366000480A9091490A0E94811A1D8E1C8EDF9192
:10367000CF910895BC018091480A9091490A0E9417
:10368000811A0895A0E0B0E0E8E4FBE10C94AB56A9
:103690009E01265F3F4F8E819F8168857985A901B4
:1036A0000E9488192096E2E00C94C756A0E0B0E092
:1036B000ECE5FBE10C94AB569E01265F3F4F8E81FB
:1036C0009F8168857985A9010E94D9192096E2E039
:1036D0000C94C756A0E0B0E0E0E7FBE10C94AB56D9
:1036E000FE013696619171918091480A9091490A44
:1036F000AF010E9488192096E2E00C94C756A0E022
:10370000B0E0E5E8FBE10C94AB56FE013696619122
:1037100071918091480A9091490AAF010E94D9198C
:103720002096E2E00C94C756A0E0B0E0EAE9FBE1A5
:103730000C94AB569E01265F3F4F8E819F8168851A
:103740007985A9010E94C81A2096E2E00C94C75618
:10375000A0E0B0E0EEEAFBE10C94AB569E01265FE0
:103760003F4F8E819F8168857985A9010E94011B49
:103770002096E2E00C94C756A0E0B0E0E2ECFBE15A
:103780000C94AB56FE013696619171918091480A76
:103790009091490AAF010E94C81A2096E2E00C9469
:1037A000C756A0E0B0E0E7EDFBE10C94AB56FE019C
:1037B0003696619171918091480A9091490AAF01C2
:1037C0000E94011B2096E2E00C94C756EF92FF92F4
:1037D0000F931F937C01880F991F8E0D9F1D8C01E5
:1037E000000F111F000F111F080F191F000F111FCD
:1037F0000D5D124EF801808D918D0E943B33F801D2
:10380000868197810E943B33F801828993890E94C7
:103810003B330FB6F8940F92F701EE0FFF1FEE0F38
:10382000FF1FEE0FFF1FEE0CFF1CEE0DFF1DE95AF0
:10383000F64FA481B5818C918F7D8C930480F581A6
:10384000E02D80818F7780830F900FBE1F910F91A5
:10385000FF90EF900895A0E0B0E0E1E3FCE10C946C
:10386000A156EC015A016B017901C8010E94AE33E7
:103870009C01009709F4C1C04E01880C991CF40109
:10388000EC0FFD1FCF01880F991F880F991FE80FBC
:10389000F91FEE0FFF1FED5DF24E0FB6F8940F9279
:1038A00011821082228333832483358337832683D6
:1038B000200F311F31872087138702870F900FBE9B
:1038C000C7010E94AE339C01009709F1F401EC0F8F
:1038D000FD1FCF01880F991F880F991FE80FF91F4F
:1038E000EE0FFF1FE15DF24E0FB6F8940F921182BA
:1038F00010822283338324833583378326832E0DDE
:103900003F1D31872087F386E2860F900FBEC701E7
:103910000E94AE339C01C4018C0F9D1FFC01EE0F71
:10392000FF1FEE0FFF1FE80FF91FEE0FFF1FED5DEA
:10393000F24E208F318FF38EE28E158E148E0FB6DD
:10394000F8940F928E01000F111FCE01880F991F5E
:10395000880F991F880F991F080F191F095A164FB2
:10396000D8011896ED90FC901997C601B5016050EA
:10397000774F824C9F4F660F771F881F991F660FE6
:10398000771F881F991FAA0CBB1CCC1CDD1CAA0C1E
:10399000BB1CCC1CDD1CAA0CBB1CCC1CDD1CA6015A
:1039A00095010E94795621503040F70131832083E0
:1039B000FE01EE0FFF1FEE0FFF1FEC0FFD1FEE0FBE
:1039C000FF1FE75AF64F0190F081E02D82E08083DF
:1039D000D8011496ED91FC91159788E9808316968D
:1039E000ED91FC91179786E080830F900FBECE017A
:1039F000CDB7DEB7ECE00C94BD564E01880C991C97
:103A00005FCFEF92FF920F931F939093C81D809307
:103A1000C71D4093C91D5093CA1D6093CB1D709361
:103A2000CC1D3093C21D2093C11DE092C31DF092A6
:103A3000C41D0093C51D1093C61D1F910F91FF90CB
:103A4000EF900895843080F490E0FC01EE0FFF1FAA
:103A5000EE0FFF1FEE0FFF1FE80FF91FEF53F24E9F
:103A600024A535A5C90108952FEF30E0C9010895B7
:103A7000282F8430D0F490E0FC01EE0FFF1FEE0FF2
:103A8000FF1FEE0FFF1FE80FF91FEF53F24E84A543
:103A900095A50197039748F42093121E84A980935B
:103AA000131E21E030E0C901089520E030E0C90193
:103AB00008958091121E089590E0FC01EE0FFF1F03
:103AC000EE0FFF1FEE0FFF1FE80FF91FEF53F24E2F
:103AD00086A597A5089590E0FC01EE0FFF1FEE0F5D
:103AE000FF1FEE0FFF1FE80FF91FEF53F24E82A9E1
:103AF00093A9089520E030E09091111E981711F0DD
:103B0000C901089521E030E0C90108958093121E93
:103B100090E0FC01EE0FFF1FEE0FFF1FEE0FFF1FE7
:103B2000E80FF91FEF53F24E77A766A753AB42ABEE
:103B300081E090E095A784A708953091111EEDEEE5
:103B4000FDE120E080819181039731F02F5F39966C
:103B50002430C1F78FEF08953330C1F7822F0895D5
:103B600020E030E090E0FC01EE0FFF1FEE0FFF1FA2
:103B7000EE0FFF1FE80FF91FEF53F24E84A595A536
:103B8000039711F0C901089521E030E0C9010895BB
:103B900080914B0AE091181EF091191EE80FF11D5B
:103BA000908180E2808380914B0A8F5F80934B0AE3
:103BB0008A3010F010924B0A892F0895982F805365
:103BC0008A3048F08151863038F0892F815686300E
:103BD00028F4892F87550895865F089580E0089519
:103BE000982F8A3040F08A50863018F4892F895CEB
:103BF000089580E30895805D089580E590E09093B6
:103C00001B1E80931A1E86E080931C1E80E090E0AD
:103C100069E872E00E9462190895A2E8B0E0E3E169
:103C2000FEE10C94A9569C011BAA1CAA1DAA1EAA5F
:103C3000FE01F7968CE4DF011D928A95E9F78091E9
:103C40000403909105039A838983FE01339680E3F0
:103C5000DF011D928A95E9F72130310509F448C04A
:103C600021303105C8F12230310509F44DC09E01E3
:103C70002F5F3F4FD901E9EAF2E084E101900D9214
:103C80008150E1F700D000D0EDB7FEB731968E013C
:103C90000D5C1F4FADB7BEB712961C930E931197D4
:103CA0008CEE92E093838283358324830E94BC0848
:103CB0008DB79EB706960FB6F8949EBF0FBE8DBF08
:103CC0008091C11D9091C21DB8010E946219CE570A
:103CD000DF4FE4E00C94C5569E012F5F3F4FD901A2
:103CE000E9EAF2E084E101900D928150E1F7CACF58
:103CF0009E012F5F3F4FD901EDEBF2E088E101908B
:103D00000D928150E1F7BECF9E012F5F3F4FD90149
:103D1000E5EDF2E087E101900D928150E1F7B2CF3D
:103D2000A2E8B0E0E6E9FEE10C94A956482F1BAAF0
:103D30001CAA1DAA1EAAFE01F7968CE4DF011D92A3
:103D40008A95E9F780910403909105039A8389830A
:103D5000FE01339680E3DF011D928A95E9F7613019
:103D6000710509F45BC06130710508F44BC0623025
:103D7000710509F45FC09E012F5F3F4FD901E6E452
:103D8000F3E086E101900D928150E1F7EDB7FEB7C7
:103D900038970FB6F894FEBF0FBEEDBFADB7BEB7F4
:103DA00011968E010D5C1F4F128301838CE593E009
:103DB00013969C938E931297E42FF0E0EE0FFF1F63
:103DC000E158F64F8081918115969C938E931497BC
:103DD00017963C932E9316970E94BC088DB79EB7FA
:103DE00008960FB6F8949EBF0FBE8DBF8091C11D7F
:103DF0009091C21DB8010E946219CE57DF4FE4E0D6
:103E00000C94C5569E012F5F3F4FD901E6E3F3E0C6
:103E100087E001900D928150E1F7B8CF9E012F5FAE
:103E20003F4FD901EDE3F3E089E001900D9281501D
:103E3000E1F7ACCF9E012F5F3F4FD901E6E4F3E0FD
:103E400086E101900D928150E1F7A0CFA0E8B0E0AB
:103E5000ECE2FFE10C94A156282F843008F09FC0BB
:103E6000A82EBB244501880C991C880C991C880C31
:103E7000991C6401CA0CDB1C81EC9DE1C80ED91EA3
:103E8000D6019C968D919C919D970197039708F080
:103E900086C02093121ED4968C918093131E9BE1B2
:103EA000E92EF12CFA82E9828091C71D9091C81DFC
:103EB0008E010F5F1F4FB8010E94621983E590E0E9
:103EC0009A8389838091C71D9091C81DB8010E9473
:103ED000621900D000D0EDB7FEB73196ADB7BEB7CE
:103EE00012961C930E9311978DE693E09383828331
:103EF000D601D4968C91848315820E94BC08EDB7BC
:103F0000FEB736960FB6F894FEBF0FBEEDBF809198
:103F1000C71D9091C81DB8010E946219FA82E982FA
:103F20008091C71D9091C81DB8010E94621983E459
:103F300090E09A8389838091C71D9091C81DB80134
:103F40000E946219D601D0962C91D097D1963C91BF
:103F5000C901DC01E0E7F3E088E001900D928150B7
:103F6000E1F7F401EA0DFB1DEF53F24E82E090E021
:103F700095A784A786E090E097A786A713AA12AA20
:103F80008091EC1D84AB8093131E8FEF8093111EE4
:103F90001092151E1092141E21E030E002C020E0A5
:103FA00030E0C901C058DF4FECE00C94BD56A3E8E7
:103FB000B0E0EDEDFFE10C94A2567C015B01909026
:103FC000121E6E010894C11CD11CC60160E270E093
:103FD00040E850E00E942508F7018081882309F419
:103FE0006EC020E030E000E010E015C08A30C9F07B
:103FF000F601E20FF31F80832F5F3F4F0F5F1F4FCC
:10400000F70101900020E9F73197EE19FF09E01759
:10401000F10708F454C0F701E00FF11F80818D30E3
:1040200029F72115310551F32C0D3D1DF9011082A1
:10403000C60168E773E047E050E00E944E08009731
:1040400009F445C0C60160E873E04AE050E00E9410
:104050004E08009709F484C0C6016BE873E044E1A0
:1040600050E00E944E08009709F4A2C0C60160EA21
:1040700073E042E050E00E944E08009709F4A1C0AE
:10408000C60163EA73E045E050E00E944E080097E5
:1040900009F49EC0C60169EA73E04BE050E00E945B
:1040A0004E08009709F4ACC0C60160E270E040E839
:1040B00050E00E942508198220E030E09FCF22E0E6
:1040C00030E0C901CD57DF4FEBE00C94BE56F1E074
:1040D000AF16B10409F497C082E0A816B10409F044
:1040E0004EC08985582F5053982F9154CE57DF4F8B
:1040F0009883C258D040B82FB753E82FE156CD5718
:10410000DF4FE883C358D040A82FA7558B85482F91
:104110004053082F0154782F7753F82FF156CF577B
:10412000DF4FF883C158D040682F67551091121E99
:104130003091131EEDEEFDE120E083E0E82EF12C3E
:1041400080819181029709F485C02F5F39962430D0
:10415000B9F71093121E3093131E21E030E0B1CF57
:104160000DEE1DE1FF24F8018081918102970297F5
:1041700048F0F394075F1F4FF4E0FF16A1F721E02A
:1041800030E09FCF2091131E9C85892F80538A3069
:1041900028F08151863008F083C0865F281749F7E0
:1041A0008F2D0E94261F1092151E1092141EE1CF13
:1041B00082E090E09093CE1D8093CD1D21E030E011
:1041C00080CF1092151E1092141E21E030E079CF9E
:1041D000892D90E0FC01EE0FFF1FEE0FFF1FEE0F89
:1041E000FF1FE80FF91FEF53F24E82E090E095A712
:1041F00084A71092151E1092141E20E030E061CFAB
:1042000020E030E05ECF9985292F20532A3008F432
:1042100053C0892F8154863008F048C0292F275376
:104220002093EC1D2093131E8091121E90E0FC0140
:10423000EE0FFF1FEE0FFF1FEE0FFF1FE80FF91F1E
:10424000EF53F24E24AB82E090E095A784A721E0E3
:1042500030E037CF90855A30B8F5852F981709F0A0
:1042600074CF82819381069709F06FCF9091EC1DF6
:104270005A3008F440C0CE57DF4F8881C258D04032
:10428000863008F048C08B2F981709F05ECF4A306F
:10429000E8F5842F342F8087F182E082122F55CFEA
:1042A000892F8156863000F180E078CF892F8156A2
:1042B000863018F5292F27552093EC1D2093131EC7
:1042C0008091121E90E0B3CFCE57DF4F8881C25845
:1042D000D040863060F0CD57DF4F8881C358D04042
:1042E000863038F080E0BACF892F875557CF8B2F93
:1042F000B5CF8A2FB3CF852FC7CF1092EC1D109268
:10430000131E8091121E90E020E091CF063060F4E1
:10431000872F372FC0CFCD57DF4F8881C358D0406C
:10432000863060F080E0B0CFCF57DF4F9881C15822
:10433000D040963028F4862F362FADCF8A2FA4CFC9
:1043400080E030E0A8CFA0E5B0E0E9EAF1E20C942B
:10435000A3567C015E010894A11CB11CC50160E25A
:1043600070E040E550E00E942508F7018081882335
:1043700009F440C020E030E000E010E052E0C52E3B
:10438000D12C14C08A30C1F0F501E20FF31F8083F5
:104390002F5F3F4F0F5F1F4FF70101900020E9F79C
:1043A0003197EE19FF09E017F10738F1F701E00F37
:1043B000F11F80818D3031F72115310559F32A0D18
:1043C0003B1DF9011082C50160EA73E042E050E054
:1043D0000E944E080097B9F441E0C42ED12CC501CB
:1043E00060E270E040E550E00E942508198220E07C
:1043F00030E0D0CF62E0C62ED12CC601C05BDF4FCB
:10440000EAE00C94BF56C50163EA73E045E050E072
:104410000E944E08009719F7CC24DD24E0CFA1E0DC
:10442000B0E0E5E1F2E20C94A95680E289838E01C6
:104430000F5F1F4F07C08091C71D9091C81DB80125
:104440000E94D1158091C71D9091C81D0E94B8157A
:10445000892B89F72196E4E00C94C556EF92FF92E0
:104460001F93DF93CF93CDB7DEB7E2970FB6F894E3
:10447000DEBF0FBECDBF182F7E010894E11CF11CDA
:10448000C70160E270E042E350E00E9425080E940C
:104490000F22E12FF0E0EA32F105D0F5EE58FF4FA0
:1044A0000C94D256ADB7BEB71A970FB6F894BEBFEC
:1044B0000FBEADBFEDB7FEB731961296FC92EE92ED
:1044C000119781EE93E0938382838091A709909165
:1044D000A809958384838091CF1D9091D01D9783E7
:1044E00086838091D11D9091D21D918780870E94F3
:1044F000BC088DB79EB70A960FB6F8949EBF0FBE44
:104500008DBF8091C71D9091C81DB7010E9462198F
:104510008091C11D9091C21D6FEF73E00E946219DE
:104520008091C11D9091C21DB7010E946219E2964F
:104530000FB6F894DEBF0FBECDBFCF91DF911F91B4
:10454000FF90EF90089500D000D0EDB7FEB7319600
:10455000ADB7BEB71296FC92EE92119785EB93E041
:10456000938382838091B9099091BA09958384835A
:104570000E94BC088DB79EB706960FB6F8949EBFF2
:104580000FBE8DBF8091C71D9091C81DB7010E94BD
:104590006219BECF00D000D0EDB7FEB73196ADB7EF
:1045A000BEB71296FC92EE92119785EB93E093833F
:1045B00082838091B7099091B809D8CFADB7BEB7C3
:1045C0001C970FB6F894BEBF0FBEADBFEDB7FEB7D8
:1045D00031961296FC92EE9211978BEE93E09383B4
:1045E00082838091B5099091B609958384838091E7
:1045F000DD1D9091DE1D978386838091DF1D909154
:10460000E01D918780878091E11D9091E21D938745
:1046100082870E94BC088DB79EB70C960FB6F8949F
:104620009EBF0FBE8DBF8091C71D9091C81DB70161
:104630000E9462196DCF00D000D0EDB7FEB7319661
:10464000ADB7BEB71296FC92EE92119785EB93E050
:10465000938382838091B3099091B40987CF00D06E
:1046600000D0EDB7FEB73196ADB7BEB71296FC924B
:10467000EE92119785EB93E0938382838091B10949
:104680009091B20973CF00D000D0EDB7FEB731964C
:10469000ADB7BEB71296FC92EE92119785EB93E000
:1046A000938382838091AF099091B0095FCF00D04E
:1046B00000D0EDB7FEB73196ADB7BEB71296FC92FB
:1046C000EE92119785EB93E0938382838091AD09FD
:1046D0009091AE094BCF00D000D0EDB7FEB7319628
:1046E000ADB7BEB71296FC92EE92119785EB93E0B0
:1046F000938382838091AB099091AC0937CF00D02E
:1047000000D0EDB7FEB73196ADB7BEB71296FC92AA
:10471000EE92119785EB93E0938382838091A909B0
:104720009091AA0923CFADB7BEB718970FB6F894EA
:10473000BEBF0FBEADBFEDB7FEB731961296FC926D
:10474000EE9211978AED93E0938382838091A5097D
:104750009091A609958384838091D11D9091D21D5B
:10476000978386830E94BC088DB79EB708960FB6C4
:10477000F8949EBF0FBE8DBF8091C71D9091C81D3C
:10478000B7010E946219C4CEADB7BEB718970FB675
:10479000F894BEBF0FBEADBFEDB7FEB7319612960F
:1047A000FC92EE92119788EC93E093838283809140
:1047B000A3099091A409958384838091D71D868352
:1047C0001782D0CFADB7BEB718970FB6F894BEBF5B
:1047D0000FBEADBFEDB7FEB731961296FC92EE92CA
:1047E000119788EC93E0938382838091A109909143
:1047F000A209958384838091D51D86831782B2CFC9
:10480000ADB7BEB71A970FB6F894BEBF0FBEADBF17
:10481000EDB7FEB731961296FC92EE92119781EEAB
:1048200093E0938382838091C3099091C409958317
:1048300084838091E81D9091E91D97838683809100
:10484000EA1D9091EB1D51CEADB7BEB718970FB6CC
:10485000F894BEBF0FBEADBFEDB7FEB7319612964E
:10486000FC92EE92119788EC93E09383828380917F
:104870009D0990919E09958384838091D91D86839B
:10488000178270CF00D000D0EDB7FEB73196ADB72C
:10489000BEB71296FC92EE92119785EB93E093834C
:1048A00082838091C5099091C60960CE00D000D066
:1048B000EDB7FEB73196ADB7BEB71296FC92EE9249
:1048C000119785EB93E0938382838091C709909140
:1048D000C8094CCEADB7BEB718970FB6F894BEBF97
:1048E0000FBEADBFEDB7FEB731961296FC92EE92B9
:1048F000119788EC93E0938382838091C90990910A
:10490000CA09958384838091E51D868317822ACF07
:1049100000D000D0EDB7FEB73196ADB7BEB7129656
:10492000FC92EE92119785EB93E0938382838091C2
:104930009509909196091ACEADB7BEB71A970FB6E2
:10494000F894BEBF0FBEADBFEDB7FEB7319612965D
:10495000FC92EE9211978FEC93E093838283809187
:10496000930990919409958384838091CF1D9091B0
:10497000D01D978386838091DB1D80871186B7CDFC
:10498000ADB7BEB718970FB6F894BEBF0FBEADBF98
:10499000EDB7FEB731961296FC92EE92119788EC25
:1049A00093E09383828380919109909192099583FA
:1049B00084838091D31D86831782D4CE00D000D00B
:1049C000EDB7FEB73196ADB7BEB71296FC92EE9238
:1049D000119785EB93E0938382838091C109909135
:1049E000C209C4CD00D000D0EDB7FEB73196ADB747
:1049F000BEB71296FC92EE92119785EB93E09383EB
:104A000082838091BD099091BE09B0CD00D000D0C5
:104A1000EDB7FEB73196ADB7BEB71296FC92EE92E7
:104A2000119785EB93E0938382838091BB099091EA
:104A3000BC099CCD8091121E90E0FC01EE0FFF1F7F
:104A4000EE0FFF1FEE0FFF1FE80FF91FEF53F24E9F
:104A500084A595A5892B09F45BCDADB7BEB7189792
:104A60000FB6F894BEBF0FBEADBFEDB7FEB731961F
:104A70001296FC92EE92119788EF93E093838283D3
:104A80008091D1099091D209958384838091131EDE
:104A90003CCFADB7BEB71A970FB6F894BEBF0FBEE6
:104AA000ADBFEDB7FEB731961296FC92EE9211971C
:104AB0008AEB93E0938382838091850990918609A4
:104AC000958384838091C91D9091CA1DA091CB1DAF
:104AD000B091CC1D86839783A087B18708CD00D085
:104AE00000D0EDB7FEB73196ADB7BEB71296FC92C7
:104AF000EE92119785EB93E09383828380918309F3
:104B00009091840933CD00D000D0EDB7FEB7319637
:104B1000ADB7BEB71296FC92EE92119785EB93E07B
:104B20009383828380918109909182091FCD00D067
:104B300000D0EDB7FEB73196ADB7BEB71296FC9276
:104B4000EE92119785EB93E09383828380917F09A6
:104B5000909180090BCDA1E0B0E0E1EBF5E20C947F
:104B60009B562C01CB0120E2298365E070E00E9476
:104B700052563B01EE24FF2400E010E0AA24BB249F
:104B8000E0E22E2EEEE43E2E4E010894811C911C94
:104B9000C1010197F1F76201CE0CDF1C8091C71DA6
:104BA0009091C81D0E94B815892BA9F08091C71D4E
:104BB0009091C81DB4010E94D1158981F60181939D
:104BC0006F010894E11CF11C0F5F1F4F00381105A5
:104BD00028F30E940F220894A11CB11C6A147B04C4
:104BE000B8F6E40CF51CF70110828091C11D90917C
:104BF000C21D62E074E00E9462198091C11D909113
:104C0000C21DB2010E9462198091C11D9091C21D06
:104C10006FEF73E00E946219C8012196E2E10C94E3
:104C2000B756A1E8B0E0E7E1F6E20C949B562C0100
:104C300080910403909105039A838983FE01339642
:104C40008EE7DF011D928A95E9F7F2011082198241
:104C50005E010894A11CB11CC5016EE170E00E94C8
:104C6000AB259C018981882309F4A9C0232B09F471
:104C7000A6C0850166247724CC24DD24EE24FF24FD
:104C80008824992491E0292E312C18C091E0C9166E
:104C9000D10409F4C0C0253409F478C00894E11C9B
:104CA000F11CF50101900020E9F73197EA19FB09A1
:104CB0000F5F1F4FEE15FF0508F485C0F801208136
:104CC000322F2B3109F49DC0233509F492C02534CD
:104CD00039F08091141E9091151E892B09F479C02A
:104CE000C114D10499F68091141E9091151E02975B
:104CF00091F6432F40535091131EA091111E7091B5
:104D0000121EE5EFFDE120E0632F6154832F8156F1
:104D1000CF57DF4F8883C158D040B9EADB2ED30E7E
:104D2000B32FB75390814A3060F4842F981779F0ED
:104D3000952F2F5F3996243081F0592F90814A307A
:104D4000A0F3663008F06FC08B2F981789F7A22F59
:104D5000722F2F5F3996243081F79093131EA09302
:104D6000111E7093121E1092171E1092161EF20141
:104D7000E80DF91D30830894811C911CA1E0CA2E16
:104D8000D12CD8012C91253409F088CF8091141EA4
:104D90009091151E8130910509F080CF9093171ED8
:104DA0008093161E1092151E1092141EBFEFB09322
:104DB000111EF1E06F2E712CCC24DD246FCFD201B7
:104DC0001C9266247724C301CF57DF4FE2E10C9495
:104DD000B756C50162E070E04AE20E94D71F019712
:104DE000D1F1D8012C91322F2B3159F0233509F014
:104DF00077CF8091141E9091151E0197E9F033E54D
:104E00006FCF3092151E2092141E1092171E109212
:104E1000161E3BE165CF8091141E9091151E0297DE
:104E200009F039CFA0CFCF57DF4F8881C158D0408C
:104E3000863078F080E07ACFE2E0F0E0F093151E63
:104E4000E093141E1092171E1092161E33E543E2D3
:104E500052CF8D2D6BCF81E0682E712CC2CF8F92F7
:104E60009F92BF92CF92DF92EF92FF920F931F9388
:104E7000DF93CF93CDB7DEB7C058D0400FB6F894CC
:104E8000DEBF0FBECDBFB82E83E08B1508F442C045
:104E9000CB2CDD244601880C991C880C991C880CAD
:104EA000991C7401EC0CFD1CA1ECBDE1EA0EFB1E8B
:104EB000F70184A595A50197039760F5B092121E9E
:104EC00084A98093131E80910403909105039A8313
:104ED0008983FE0133968EE7DF011D928A95E9F7FB
:104EE000198289E20E942E228E010F5F1F4FC80196
:104EF00068EE73E00E94AB25C80161E070E049E212
:104F00000E94D71F8C0189E2B8010E94901E0130D7
:104F10001105B1F020E030E0C901C058DF4F0FB6F5
:104F2000F894DEBF0FBECDBFCF91DF911F910F91DF
:104F3000FF90EF90DF90CF90BF909F908F9008955B
:104F4000F70180A991A99C01D901E0E7F3E088E08D
:104F500001900D928150E1F7F401EC0DFD1DEF532E
:104F6000F24E15A614A686E090E097A786A713AA8E
:104F700012AA8FEF84AB5091121E5B1561F08093E3
:104F8000131E8FEF8093111E1092151E1092141E87
:104F900021E030E0C1CFEDEEFDE120E030E08081A6
:104FA00091810297029738F02F5F3F4F3996243056
:104FB0003105A9F7E6CF5217B9F32093121EF90174
:104FC000EE0FFF1FEE0FFF1FEE0FFF1FE20FF31F8D
:104FD000EF53F24E84A98093131ED3CFA0E8B0E024
:104FE000E4EFF7E20C94A956282F8430E8F590E01E
:104FF000FC01EE0FFF1FEE0FFF1FEE0FFF1FE80F6C
:10500000F91FEF53F24E84A595A50197039760F51C
:105010002093121E84A98093131E80910403909103
:1050200005039A838983FE0133968EE7DF011D9283
:105030008A95E9F7198285E20E942E228E010F5F80
:105040001F4FC8016CE271E00E94AB25C80161E00E
:1050500070E045E20E94D71F8C0185E2B8010E94F2
:10506000901E0130110541F020E030E0C901C05828
:10507000DF4FE4E00C94C5561092151E1092141EDA
:1050800021E030E0F3CF0F931F93CF93DF93809114
:10509000BF1D882329F180E590E090931B1E80932B
:1050A0001A1E86E080931C1E80E090E069E872E0A2
:1050B0000E94621920911C1EEDEEFDE1C0E0D0E0DF
:1050C00080819181892B11F42630A9F0219639969F
:1050D000C430D105A9F7DF91CF911F910F910895A9
:1050E00080E090E06AE274E00E946219DF91CF9163
:1050F0001F910F91089520911A1E30911B1EC0938D
:10510000121EFE01EE0FFF1FEE0FFF1FEE0FFF1F1F
:10511000EC0FFD1FEF53F24E86E090E097A786A7B5
:1051200033AB22AB01E010E015A704A78C2F0E943F
:10513000EE27C093C01D80E090E06EE074E00E9416
:10514000621910934D0A00934C0AC5CFA0E8B0E055
:10515000ECEAF8E20C94A5568091040390910503C3
:105160009A838983FE0133968EE7DF011D928A952B
:10517000E9F78091C11D9091C21D6AE574E00E941B
:105180006219198280E00E942E227E010894E11C9F
:10519000F11CC7016CE271E00E94AB25C7010E94BF
:1051A000A321BC0180E00E94901E198280E00E9431
:1051B0002E22C7016CE271E00E94AB25C7010E945C
:1051C000A3218C0180E0B8010E94901E01301105DE
:1051D00009F47DC0CC24DD24D394198281E00E949F
:1051E0002E22C7016CE271E00E94AB25C7010E942C
:1051F000A3218C0181E0B8010E94901E01301105AD
:1052000009F463C0D39419828CE10E942E22C70155
:105210006CE271E00E94AB25C7010E94A3218C01C2
:105220008CE1B8010E94901E0130110509F44BC0B9
:10523000D39419828BE00E942E22C7016CE271E0A8
:105240000E94AB25C7010E94A3218C018BE0B8010D
:105250000E94901E0130110509F49BC0D39419825D
:1052600089E10E942E22C7016CE271E00E94AB2509
:10527000C7010E94A3218C0189E1B8010E94901E00
:105280000130110541F1D3948091D31D9091D41D2B
:10529000029741F1CC20A1F0DD2079F401E010E08B
:1052A000C8010E940D1E1093CE1D0093CD1DC80194
:1052B000C058DF4FE8E00C94C15602E010E0F0CF98
:1052C00000E010E0EDCFC394B4CFC3949CCFCC24C6
:1052D000C394DD2482CFC3948091D31D9091D41DBB
:1052E0000297C1F619828BE10E942E22C7016CE25F
:1052F00071E00E94AB25C7010E94A3218C018BE1C4
:10530000B8010E94901E0130110509F444C0D394E5
:10531000198289E00E942E22C7016CE271E00E948E
:10532000AB25C7010E94A3218C0189E0B8010E942E
:10533000901E0130110599F1D39419828AE00E94E0
:105340002E22C7016CED75E00E94AB25C7010E94BB
:10535000A3218C018AE0B8010E94901E0130110542
:10536000E1F0D39419828DE10E942E22C7016CE2F4
:1053700071E00E94AB25C7010E94A3218C018DE141
:10538000B8010E94901E0130110509F485CFD39415
:1053900081CFC39464CFC394BBCFC394E3CFC394F2
:1053A000CCCFEF92FF921F93CF93DF931092C21D49
:1053B0001092C11D20E835E240E050E02093C31D6B
:1053C0003093C41D4093C51D5093C61D82E090E0EC
:1053D0009093C81D8093C71D2093C91D3093CA1D8B
:1053E0004093CB1D5093CC1D1092CE1D1092CD1D1D
:1053F00080E890E00E94AE338093CF1D9093D01D43
:10540000DC01EAE8F4E089E001900D928150E1F7D7
:1054100080E890E00E94AE338093D11D9093D21D1E
:10542000DC01E3E9F4E089E001900D928150E1F7BD
:1054300082E090E09093D41D8093D31D1092D61DEE
:105440001092D51D84E090E09093D81D8093D71DD5
:105450001092DA1D1092D91D8BE090E09093DC1D24
:105460008093DB1D8FE090E00E94AE338093DD1DC2
:105470009093DE1DDC01ECE9F4E08CE001900D92EC
:105480008150E1F78FE090E00E94AE338093DF1D02
:105490009093E01DDC01E8EAF4E08EE001900D92CB
:1054A0008150E1F78FE090E00E94AE338093E11DE0
:1054B0009093E21DDC01ECE9F4E08CE001900D92A8
:1054C0008150E1F786E090E09093E41D8093E31D26
:1054D00080E590E09093E61D8093E51D81E0809348
:1054E000E71D86EB94E09093E91D8093E81D8CEB1B
:1054F00094E09093EB1D8093EA1D1092151E10927C
:10550000141E8FEF8093EC1DCDEEDDE1E6E0EE2E74
:10551000F12C1FEF8FE090E00E94AE338C839D83CF
:10552000DC01E0E7F3E088E001900D928150E1F7C3
:1055300019821882FB82EA821F821E8218872996AE
:105540008EE1C131D80731F7188319831A8310927D
:10555000151E1092141E81E090E09E838D83DF91D2
:10556000CF911F91FF90EF9008956F927F928F924D
:105570009F92AF92BF92CF92DF92EF92FF920F93E2
:105580001F934C015A016B0139010E94D12990925D
:10559000C81D8092C71DA092C91DB092CA1DC0929D
:1055A000CB1DD092CC1D7092C21D6092C11DE092A5
:1055B000C31DF092C41D0093C51D1093C61D1F91FD
:1055C0000F91FF90EF90DF90CF90BF90AF909F90A2
:1055D0008F907F906F900895EF92FF920F931F939B
:1055E0007B018C018091E81D9091E91DB7010E941B
:1055F00037088091EA1D9091EB1DB8010E94370891
:105600001F910F91FF90EF900895BC018091CF1DE5
:105610009091D01D0E9437080895AEE0B0E0E3E11C
:10562000FBE20C949F56C982DA82EB82FC820D83E6
:105630001E832F83388749875A876B877C878D879E
:105640009E870B811C81ED80FE80CF80D884A98449
:10565000BA848B849C846D847E8469817A818091F4
:10566000CF1D9091D01D0E9437088091D11D90913F
:10567000D21DB8010E943708F092D41DE092D31DCC
:10568000D092D61DC092D51DB092D81DA092D71D24
:105690009092DA1D8092D91D7092DC1D6092DB1D04
:1056A0002E96EEE00C94BB56A6E0B0E0EAE5FBE2F5
:1056B0000C94A75649835A836B837C838D839E8386
:1056C0000B811C81ED80FE8069817A818091DD1DD6
:1056D0009091DE1D0E9437088091DF1D9091E01DA2
:1056E000B8010E9437088091E11D9091E21DB70139
:1056F0000E9437082696E6E00C94C3560F931F933A
:10570000CF93DF93382F2091BF1D222389F1809101
:10571000A11D831711F1E4EAFDE190E004C080814E
:1057200033968317D1F09F5F9217C8F32B3000F1A7
:1057300080E090E06BE275E00E94621920E533ECB6
:1057400040E951E0CA010197F1F721503040D1F70B
:10575000DF91CF911F910F91089580E090E062EC6E
:1057600074E00E946219DF91CF911F910F9108950B
:10577000422F50E08A01000F111FE801C40FD51F0E
:10578000C556D24E3E83DB010D900020E9F71197FC
:10579000A61BB70BA832B105A8F4FB0180818823B2
:1057A00081F5F801E40FF51FE556F24E27813085AB
:1057B000C901DC01EDEFF4E08EE001900D92815023
:1057C000E1F70AC0FB018081882359F38F81988516
:1057D00048E250E00E945C088091BF1D8F5F80937B
:1057E000BF1D8B3018F08AE08093BF1D80E090E0F1
:1057F0006BE075E00E946219DF91CF911F910F91CC
:1058000008958F819885AD010E945C08E5CF8F9245
:105810009F92AF92BF92CF92DF92FF920F931F930E
:10582000CF93DF936C015B014A0180E890E00E9416
:10583000AE33FC0190939C1D80939B1D108280E8E9
:1058400090E00E94AE33FC0190939E1D80939D1DBD
:1058500010821092A01D10929F1DC1EADDE1A0E20E
:10586000FA2E00E210E0F88288E290E00E94AE3367
:10587000FC019A8389831183008323968DE1CF3BBA
:10588000D80789F718828AE090E00E94AE33FC01C5
:105890009093191E8093181E1082E2E08E169104D8
:1058A00008F475C01092A01D10929F1DD6010D9096
:1058B0000020E9F71197AC19BD09A038B10598F49B
:1058C000F6018081882309F067C080919B1D90912B
:1058D0009C1D9C01D901EFE5F5E080E101900D925E
:1058E0008150E1F70DC0F6018081882371F380912A
:1058F0009B1D90919C1DB60140E850E00E945C0801
:10590000D5010D900020E9F71197AA19BB09A0381D
:10591000B10578F5F5018081882309F046C08091B2
:105920009D1D90919E1D9C01D901EFE6F5E08DE053
:1059300001900D928150E1F71092BF1DE091181E69
:10594000F091191E108210924A0A10924B0A80E0C0
:1059500090E06CE775E00E946219DF91CF911F9192
:105960000F91FF90DF90CF90BF90AF909F908F905E
:105970000895F5018081882391F280919D1D909179
:105980009E1DB50140E850E00E945C08D5CF909282
:10599000A01D80929F1D8ACF80919B1D90919C1D80
:1059A000B601AD010E945C08ABCF80919D1D909126
:1059B0009E1DB501AD010E945C08BECFA0E8B0E01D
:1059C000E4EEFCE20C94A556182F7B016E010894BE
:1059D000C11CD11CC60160E270E040E850E00E94AA
:1059E00025081982D7018C918823A1F08D3091F080
:1059F000812F90E08C01000F111F000F111F000F6D
:105A0000111F080F191F0F53124EF80186A597A5F5
:105A1000069779F02CED35E040E951E0CA01019795
:105A2000F1F721503040D1F7C058DF4FE8E00C9437
:105A3000C1568BE190E09A8389838091C71D909134
:105A4000C81DB6010E94621983E590E09A8389839C
:105A50008091C71D9091C81DB6010E94621900D0A7
:105A600000D0EDB7FEB73196ADB7BEB71296DC9257
:105A7000CE9211978DE693E093838283D801D496DA
:105A80008C91848315820E94BC08EDB7FEB73696D0
:105A90000FB6F894FEBF0FBEEDBF8091C71D909169
:105AA000C81DB6010E946219F70101900020E9F7B4
:105AB0003297EE15FF0579F4D7018C918D30B1F056
:105AC0008A3069F5D601EFEFF3E083E001900D92A3
:105AD0008150E1F704C0C601B7010E9437088091E8
