:100000000C9446030C9468030C9468030C946803E6
:100010000C9468030C9468030C9468030C946803B4
:100020000C9468030C9468030C9468030C946803A4
:100030000C9468030C9468030C9468030C94680394
:100040000C9468030C9468030C9468030C94680384
:100050000C9468030C9468030C9468030C94680374
:100060000C9468030C9486350C9485360C946803C4
:100070000C9468030C9468030C9468030C94680354
:100080000C94A1300C9468030C9468030C946803DE
:100090000C945D350C945C360C9468030C948F0FB3
:1000A0000C9468030C94430C0C9468030C94680340
:1000B0000C9468030C94F90B0C94CE0C0C9468030C
:1000C0000C9468030C9468030C941E0C0C94343547
:1000D0000C9433360C9468030C940B350C940A364C
:1000E0000C946803ED0FA60FA60FA60FA60FA60F80
:1000F000A60FA60FED0FA60FA60FA60FA60FA60F11
:10010000A60FA60FEF0FA60FA60FA60FA60FA60FFE
:10011000A60FA60F2710A60FA60FA60FA60FA60FB5
:10012000A60FA60FEF0FA60FA60FA60FA60FA60FDE
:10013000A60FA60F2710A60FA60FA60FA60FA60F95
:10014000A60FA60F2F10A60FA60FA60FA60FA60F7D
:10015000A60FA60F5F10A60FA60FA60FA60FA60F3D
:10016000A60FA60FA60FA60FA60FA60FA60FA60FE7
:10017000A60FA60FD50FA60FA60FA60FA60FA60FA8
:10018000A60FA60F1610A60FA60FA60FA60FA60F56
:10019000A60FA60F5C10A60FA60FA60FA60FA60F00
:1001A000A60FA60F5C10A60FA60FA60FA60FA60FF0
:1001B000A60FA60F4710A60FA60FA60FA60FA60FF5
:1001C000A60FA60F4710A60FA60FA60FA60FA60FE5
:1001D000A60FA60FC00FA60FA60FA60FA60FA60F5D
:1001E000A60FA60FE90FA60FA60FA60FA60FA60F24
:1001F000A60FA60FC00FA60FA60FA60FA60FA60F3D
:10020000A60FA60FE90FA60FA60FA60FA60FA60F03
:10021000A60FA60F3310A60FA60FA60FA60FA60FA8
:10022000A60FA60F0410A60FA60FA60FA60FA60FC7
:10023000A60FA60F0410A60FA60FA60FA60FA60FB7
:10024000A60FA60F0610A60FA60FA60FA60FA60FA5
:10025000A60FA60F3910A60FA60FA60FA60FA60F62
:10026000A60FA60FD10F0D0A0A0A476F6F646279B5
:10027000652E2E2E206E6F20737061636520666F71
:10028000722069646C65207461736B210D0A000D26
:100290000A0A0A48656C6C6F20576F726C64210DF6
:1002A0000A006E616E00696E660000407A10F35AB3
:1002B00000A0724E18090010A5D4E80000E87648A6
:1002C000170000E40B54020000CA9A3B000000E152
:1002D000F505000080969800000040420F000000E5
:1002E000A08601000000102700000000E8030000C5
:1002F00000006400000000000A000000000001008F
:10030000000000002C76D888DC674F0823DFC1DFAF
:10031000AE59E1B1B796E5E3E453C63AE6519976B2
:1003200096E8E6C28426EB898C9B62ED407C6FFCEC
:10033000EFBC9C9F40F2BAA56FA5F490055A2AF72E
:100340005C936B6CF9676DC11BFCE0E40D47FEF537
:1003500020E6B500D0ED902E03009435770500809F
:10036000841E080000204E0A000000C80C333333FE
:10037000330F986E12831141EF8D2114893BE6559E
:1003800016CFFEE6DB18D1844B381BF77C1D901D81
:10039000A4BBE424203284725E228100C9F124ECE3
:1003A000A1E53D27A0E0B0E0E8EDF1E00C94393A9A
:1003B000E9E0CE2EAA24A39488248A94982C77244A
:1003C000739405C00F900FBEBB2009F05FC08091F1
:1003D0001F03882309F480C0809114038F5F8093EA
:1003E0001403B09064030FB6F8940F928091140335
:1003F00081508093140380911403882319F780910E
:100400000E038823F9F280915B03882371F1E09158
:100410006003F0916103C681D781CE010C960E94E2
:10042000E6328E010E5F1F4FC8010E94E6329E89A0
:1004300080910F03891718F490930F039E899C9D58
:10044000C00111248F5D9C4FB8010E949532E0914C
:100450000C03F0910D039E8986899817A0F2A09253
:10046000100380915B03882391F680911D038823FC
:1004700009F04DC080911003813009F0A3CF0E9494
:10048000A4300F900FBEBB2009F4A1CF0FB6F89493
:100490000F92E0916903F0916A0306811781C80108
:1004A00002960E94E63280910E03815080930E03E3
:1004B00080911F03815080931F030F900FBEF8019E
:1004C0008789908D0E941031C8010E94103180915F
:1004D0001F03882309F080CF80912103823008F424
:1004E00076CF0E94A43073CF80911D038F5F8093DD
:1004F0001D03DD2480911003882309F095C0DD20C1
:1005000009F092C080911D03815080931D0380915A
:100510001D03882309F4AECF80911403882321F7AB
:10052000809111039091120301969093120380938E
:100530001103E0901103F0901203E114F10409F5A6
:1005400020915703309158038091590390915A0399
:10055000909358038093570330935A032093590381
:10056000809113038F5F80931303E0915703F09101
:1005700058038081882309F073C090925C028092B6
:100580005B0280915B0290915C02E816F90608F428
:100590004EC0DD24E0915703F091580380818823F9
:1005A000F1F1E0915703F09158030580F681E02DB9
:1005B000C681D7818A819B81E816F90608F461C05B
:1005C0008E010E5F1F4FC8010E94E6328C899D8903
:1005D000892B21F0CE010C960E94E6329E898091F3
:1005E0000F03891718F490930F039E899C9DC001F7
:1005F00011248F5D9C4FB8010E949532E0910C034D
:10060000F0910D039E898689981720F2DD24D394FA
:10061000E0915703F09158038081882311F690925E
:100620005C0280925B0204C0709210036BCFDD24E9
:10063000E0910C03F0910D03868990E0FC01EE0F30
:10064000FF1FEE0FFF1FEE0FFF1FE80FF91FEF5DFB
:10065000FC4F8081823008F44DCFDD24D3944ACF03
:10066000E0915703F09158030580F681E02D068054
:10067000F781E02D8281938190935C0280935B02ED
:1006800080CF90935C0280935B02D2CF11241FBE77
:10069000CFEFD1E2DEBFCDBF00E00CBF12E0A0E0A3
:1006A000B2E0E6EEF4E700E00BBF02C007900D9267
:1006B000A63DB107D9F71BBE16E1A6EDB2E001C019
:1006C0001D92A331B107E1F70E94CF090C94713A52
:1006D0000C9400008F938FB78F93F89480919B15A3
:1006E0008F5F80939B1580919C158F4F80939C15F5
:1006F00080919D158F4F80939D1580919E158F4FF2
:1007000080939E158F918FBF8F910895A1E1B0E0E6
:10071000ECE8F3E00C94343A3C017F876E876A0181
:10072000FC0117821682838181FD03C06FEF7FEF8A
:1007300071C39E012F5F3F4F398B288BF3012381BB
:10074000EE85FF8523FD859123FF8191FF87EE874D
:10075000882309F45CC3853251F4EE85FF8523FDBF
:10076000859123FF8191FF87EE87853229F490E000
:10077000B3010E941608E2CF982F10E08824992434
:100780001032B0F49B3269F09C3228F4903251F070
:10079000933271F40BC09D3239F0903349F41160FB
:1007A00028C01260146025C0186023C0106121C0E9
:1007B00017FD2AC0892F80538A3078F416FF06C0AF
:1007C000FAE09F9E902C1124980E13C03AE0839E6D
:1007D000802C1124880E10620CC09E3221F416FD6C
:1007E00016C3106406C09C3611F4106802C0983617
:1007F00059F4EE85FF8523FD959123FF9191FF87A5
:10080000EE87992309F0BCCF892F8554833020F4DB
:10081000812F8061905E07C0892F8556833008F054
:10082000A1C1812F8F7E86FD02C076E0972E6FE3F7
:10083000F62EF822953619F4F0E4FF2A07C0963612
:1008400019F420E8F22A02C091109A94F7FE0BC026
:100850003BE3391520F427E05CE3B52E0EC0B92C3C
:10086000B39427E00AC047E0491528F427E0BB24E9
:1008700047E0942E02C0292DBB24C60104969D8713
:100880008C87F6016081718182819381AE014F5F17
:100890005F4F0B2D0E940F076C010981202E33241E
:1008A00000FF04C003FD02C01DE209C0F1FE02C04A
:1008B0001BE205C0F2FC02C010E001C010E2C10161
:1008C0008C709070892BB9F1112311F483E001C071
:1008D00084E0881510F088240AC0881AF3FC07C049
:1008E00080E290E0B3010E9416088A94C9F71123B0
:1008F00029F0812F90E0B3010E94160823FE03C067
:1009000002EA12E00EC006EA12E00BC0E114F104A4
:1009100009F0805290E0B3010E9416080F5F1F4F4C
:1009200005C0EF2CFF24F0E1EF22FF24F8018491B1
:10093000882361F714C1F7FE12C0BC0C24FE04C06A
:100940008A81813309F4BA941B141CF0BB24B3943C
:100950002DC0F8E0FB1550F538E0B32E27C0F6FCAB
:1009600025C0892D90E08C159D054CF02CEFC2160A
:100970002FEFD20624F030E8F32A01C09A94992090
:1009800049F0E2E0F0E0EC0FFD1FE90DF11D808180
:100990008033A1F3F7FE0AC0B92CB394892D90E0FF
:1009A000C816D90614F0992401C09C18F7FC03C09E
:1009B00025E030E009C01C141D041CF021E030E0EB
:1009C00003C096012F5F3F4F112311F02F5F3F4F60
:1009D000992029F0892D90E00196280F391F882D44
:1009E00090E02817390714F0882401C0821A4F2C90
:1009F0005524C20189709070892B39F008C080E2BB
:100A000090E0B3010E9416088A948820C1F7112350
:100A100029F0812F90E0B3010E94160843FE07C021
:100A200008C080E390E0B3010E9416088A948820F1
:100A3000C1F7F7FE46C08601D7FE02C000E010E015
:100A400076010894E11CF11CE01AF10A41E050E043
:100A50004C0F5D1FE40EF51E26014B185108892D21
:100A600090E0AA24BB24A81AB90A5FEF0F3F15072C
:100A700029F48EE290E0B3010E941608C016D10658
:100A800034F0401651061CF4F701808101C080E368
:100A9000015010400894E11CF11C0A151B052CF0B4
:100AA00090E0B3010E941608E0CF0C151D0539F443
:100AB0009A81963318F4953311F424FE81E390E083
:100AC0004BC08A81813309F00F7E90E0B3010E9410
:100AD00016089920A1F08EE290E0B3010E9416085A
:100AE00012E0E1E0F0E0EC0FFD1FE10FF11D1F5FF0
:100AF000808190E0B3010E9416089A9491F744FC1B
:100B000003C085E690E002C085E490E0B3010E9456
:100B10001608D7FC05C0C114D10441F404FF06C077
:100B2000D094C194D108D3948DE201C08BE290E0BF
:100B3000B3010E94160880E305C08F5F26EF3FEFE8
:100B4000C20ED31E3AE0C316D104BCF790E0B30145
:100B50000E941608C601C096B3010E941608CC84F4
:100B6000DD8452C1933631F0933799F0933509F013
:100B700059C023C0F601808189835E010894A11CBD
:100B8000B11C22E030E0C20ED31E21E0E22EF12C97
:100B900012C0F601A080B18016FD03C06FEF7FEF99
:100BA00002C0692D70E022E030E0C20ED31EC50104
:100BB0000E940B087C011F7713C0F601A080B18052
:100BC00016FD03C06FEF7FEF02C0692D70E022E0D9
:100BD00030E0C20ED31EC5010E94F0077C011068F0
:100BE00013FF07C01BC080E290E0B3010E9416080B
:100BF0008A94882D90E0E816F906A8F30FC0F50155
:100C000017FD859117FF81915F0190E0B3010E946C
:100C1000160881108A940894E108F108E114F1049F
:100C200071F7F2C0943611F0993689F517FF08C0B4
:100C3000F601208131814281538184E090E00AC035
:100C4000F601808191819C01442737FD4095542F06
:100C500082E090E0C80ED91E9FE6F92EF12257FFE0
:100C600009C050954095309521953F4F4F4F5F4FAC
:100C700090E8F92ACA01B901AE014F5F5F4F2AE03F
:100C800030E00E94BA08E82EE889EE1A41C0953794
:100C900021F41F7E2AE030E01CC0197F9F3661F0EE
:100CA000903720F4983509F0B2C00FC0903739F072
:100CB000983709F0ACC004C028E030E00AC01061E9
:100CC00014FD146020E130E004C014FD166020E142
:100CD00032E017FF08C0F601608171818281938143
:100CE00044E050E008C0F60180819181BC0180E0C1
:100CF00090E042E050E0C40ED51EAE014F5F5F4F62
:100D00000E94BA08E82E5889E51A8FE7F82EF122DA
:100D1000F6FE0BC08EEFF822E91438F4F4FE07C09B
:100D2000F2FC05C09FEEF92202C01E2D01C0192D54
:100D3000F4FE0DC0FE01EE0DF11D8081803319F42B
:100D4000E9EEFE2208C01F5FF2FE05C003C08F2D32
:100D5000867809F01F5F0F2DF3FC14C0F0FE0FC062
:100D6000181510F09E2C0BC09E2C980C911A182D63
:100D700006C080E290E0B3010E9416081F5F1815BC
:100D8000C0F304C0181510F4811A01C0882404FFB0
:100D90000FC080E390E0B3010E94160802FF1DC05F
:100DA00001FD03C088E790E00EC088E590E00BC02D
:100DB000802F867891F001FF02C08BE201C080E2B3
:100DC000F7FC8DE290E0B3010E94160806C080E3B4
:100DD00090E0B3010E9416089A94E914C0F3EA94D3
:100DE000E1E0F0E0EC0FFD1FEE0DF11D808190E0E1
:100DF000B3010E941608EE2091F706C080E290E051
:100E0000B3010E9416088A948820C1F797CCF30199
:100E100066817781CB016196E2E10C94503A2830EB
:100E200008F027E03327DA01990F311D87FD916023
:100E300000966105710539F432602E5F3D9330E311
:100E40002A95E1F708959F3F30F0803871056105DC
:100E500009F03C5F3C5F3D93913008F08068911D44
:100E6000DF93CF931F930F93FF92EF92192F987FE9
:100E70009695E92F96959695E90FFF27EC5FFC4F25
:100E800099273327EE24FF24A701E7010590089452
:100E9000079428F4360FE71EF81E491F511D660FF0
:100EA000771F881F991F0694A1F70590079428F4CF
:100EB000E70EF81E491F561FC11D770F881F991F87
:100EC000661F0694A1F70590079428F4F80E491FB1
:100ED000561FC71FD11D880F991F661F771F0694C5
:100EE000A1F70590079420F4490F561FC71FD81F7C
:100EF000990F661F771F881F0694A9F78491109594
:100F0000177041F0D695C79557954795F794E79494
:100F10001A95C1F7EAEAF2E06894159015913591B7
:100F20006591959105907FE27395E118F10A430B65
:100F3000560BC90BD009C0F7E10CF11E431F561F19
:100F4000C91FD01D7EF4703311F48A95E6CFE89462
:100F5000015030F0080F0AF40027021708F4202F80
:100F60002395022F7A3328F079E37D932A95E9F7C8
:100F700010C07D932A9589F60694979567953795C5
:100F800017951794E118F10A430B560BC90BD009BA
:100F900098F023957E9173957A3308F070E37C93F3
:100FA0002013B8F77E9170617D9330F0839571E3E3
:100FB0007D9370E32A95E1F71124EF90FF900F9154
:100FC0001F91CF91DF91992787FD90950895FC019E
:100FD00005900020E9F7809590958E0F9F1F08954A
:100FE000FC010590615070400110D8F780959095F4
:100FF0008E0F9F1F0895FB01DC0102C001900D922E
:1010000041505040D8F70895DC0101C06D93415024
:101010005040E0F70895FC016150704001900110CC
:10102000D8F7809590958E0F9F1F08950F931F936B
:10103000CF93DF938C01EB018B8181FF1BC082FF7B
:101040000DC02E813F818C819D812817390764F462
:10105000E881F9810193F983E88306C0E885F98581
:10106000802F1995892B31F48E819F8101969F8362
:101070008E8302C00FEF1FEFC801DF91CF911F9148
:101080000F910895AEE0B0E0E8E4F8E00C94423A45
:101090000E891F8986E08C831A8309838FEF9FE76F
:1010A0009E838D839E01265E3F4FCE010196688D03
:1010B000798DA9010E9486032F813885020F131FA5
:1010C000F80110822E96E4E00C945E3AAEE0B0E0B7
:1010D000ECE6F8E00C94423A8C0177FF02C060E045
:1010E00070E8615070407E836D831A83098386E0C7
:1010F0008C83CE010196BA01A9010E9486032D813D
:101100003E8137FD09C0EF81F8852E173F070CF4AB
:10111000F901E00FF11F10822E96E4E00C945E3A84
:10112000AEE0B0E0E6E9F8E00C94423A8C0177FFDB
:1011300002C060E070E8615070407E836D831A8366
:1011400009838EE08C83CE010196BA01A9010E9429
:1011500086032D813E8137FD09C0EF81F8852E176A
:101160003F070CF4F901E00FF11F10822E96E4E026
:101170000C945E3AFA01AA27283051F1203181F10E
:10118000E8946F936E7F6E5F7F4F8F4F9F4FAF4F8F
:10119000B1E03ED0B4E03CD0670F781F891F9A1FA2
:1011A000A11D680F791F8A1F911DA11D6A0F711D56
:1011B000811D911DA11D20D009F468943F912AE062
:1011C000269F11243019305D3193DEF6CF0108954A
:1011D000462F4770405D4193B3E00FD0C9F7F6CF7B
:1011E000462F4F70405D4A3318F0495D31FD405243
:1011F000419302D0A9F7EACFB4E0A69597958795D9
:1012000077956795BA95C9F70097610571050895B7
:101210009B01AC010A2E0694579547953795279563
:10122000BA95C9F7620F731F841F951FA01D0895FB
:101230001F93182F81E090E06EEF0E94143381E03D
:1012400090E0612F0E9414331F910895EF92FF9256
:101250000F931F938C017B0181E090E00E9418099D
:1012600080E890E00E94180981E090E0B8010E94B7
:10127000CB3780EC90E00E94180981E090E0B70144
:101280000E94CB371F910F91FF90EF9008950F931D
:101290001F9381E090E040E855E260E070E02FEFBE
:1012A00030E000E410E00E942E39539A5B9A8CE003
:1012B00090E00E94180981E090E00E9418091F91B7
:1012C0000F9108951F93182F81E090E06EEF0E9418
:1012D000143381E090E0612F0E9414331F91089530
:1012E000EF92FF920F931F938C017B0181E090E0BE
:1012F0000E94620980E890E00E94620981E090E02B
:10130000B8010E94CB3780EC90E00E94620981E036
:1013100090E0B7010E94CB371F910F91FF90EF90A3
:1013200008950F931F9381E090E040E855E260E05C
:1013300070E02FEF30E000E410E00E942E39539A65
:101340005B9A8CE090E00E94620981E090E00E944C
:1013500062091F910F910895E1E0F1E080818860BA
:1013600080836B9A6D9A0895882361F080910201C1
:10137000877F80930201662361F07398442361F4B0
:10138000759A089580910201886080930201662316
:10139000A1F7739A4423A1F375980895FFCFAF92F4
:1013A000BF92CF92DF92EF92FF920F931F9380E054
:1013B00090E040E052EC61E070E02FEF30E000E4BC
:1013C00010E00E942E3990938415809383158FE846
:1013D00092E00E941D370E94D60E0E9447090E948B
:1013E0005C0E83E19AE060E072E040E051E020E0D2
:1013F00030E003E0EE24FF24CC24DD24AA24BB2427
:101400000E94242D0E94292E86E692E00E941D371C
:1014100080E090E01F910F91FF90EF90DF90CF90D0
:10142000BF90AF9008952F923F925F926F927F92FC
:101430008F929F92AF92BF92CF92DF92EF92FF92E4
:101440000F931F93DF93CF93CDB7DEB7A6970FB659
:10145000F894DEBF0FBECDBF0E94C9169A83898360
:10146000CC24DD243E010894611C711C9E01295F7F
:101470003F4F3CA32BA3CE0147969EA38DA333E100
:10148000832E912C8C0E9D1E23E0A22EB12CAC0E2F
:10149000BD1E96E1292E92E0392E8CE0582E12C006
:1014A000F4E0CF16D10409F48CC028E0C216D104B0
:1014B00009F48CC00894C11CD11CC3016DE770E015
:1014C0000E94192B0E946E0EC3016DE770E00E940E
:1014D000192B1B821C821D821E82ABA1BCA1E52D93
:1014E0001D92EA95E9F71B8A1C8A1D8A1E8AADA106
:1014F000BEA1E52D1D92EA95E9F70E945F0E7C01E1
:101500000E94640E8C010E94690E2DB73EB72A50CE
:1015100030400FB6F8943EBF0FBE2DBFEDB7FEB7FB
:101520003196ADB7BEB712969C928E92119727E076
:1015300032E033832283F582E48217830683918726
:1015400080870E9442088DB79EB70A960FB6F8941E
:101550009EBF0FBE8DBF0E945F0E7C010E94640E75
:101560008C010E94690EADB7BEB71A970FB6F894FA
:10157000BEBF0FBEADBFEDB7FEB731961296BC929F
:10158000AE92119733822282F582E482178306831A
:10159000918780870E944208EDB7FEB73A960FB652
:1015A000F894FEBF0FBEEDBFC501B4010E9426092D
:1015B000C114D10409F074CF83E090E00E94070EBB
:1015C00079CF82E090E00E94070E74CF85E090E032
:1015D0000E94070E6FCF9C01DC01AA0FBB1FAC015C
:1015E000440F551F440F551F440F551FFD01E40FB5
:1015F000F51FE954FD4F0190F081E02D808191812C
:101600008C54944085579E4020F080E59AE0918369
:101610008083F901EE0FFF1FEE0FFF1FE20FF31F94
:10162000EE0FFF1FE754FD4F0190F081E02DA40F56
:10163000B51FA954BD4F14964D915C91159720810B
:1016400081E090E016960C90169702C0880F991FC3
:101650000A94E2F7282B2083FA01208180958223C7
:1016600080831896ED91FC9119970084F185E02D07
:1016700020811796AC91A13069F0A13030F480E858
:101680009FEB822B892380830895A230E9F788E0BD
:101690009BEFF7CF80E29FEEF4CFCF93DF93FC0177
:1016A000EE0FFF1FEE0FFF1FE80FF91FEE0FFF1FDA
:1016B000E754FD4F40815181DC01AA0FBB1FAA0FE7
:1016C000BB1FAA0FBB1F880F991FA80FB91FA954D2
:1016D000BD4F1496ED91FC911597EA01288181E0A8
:1016E00090E016960C90169702C0880F991F0A94E6
:1016F000E2F7282B28832081809582238083189607
:10170000ED91FC9119970084F185E02D9081179659
:101710008C91813069F0813030F48FE389238083AC
:10172000DF91CF910895823029F0DF91CF91089514
:101730008FECF4CF83EFF2CF9C01CB018C5494401B
:1017400085579E4098F4C901F901EE0FFF1FEE0F77
:10175000FF1FEE0FFF1F880F991FE80FF91FE954B5
:10176000FD4F0190F081E02D7183608308959C010D
:10177000FC01EE0FFF1FEE0FFF1FEE0FFF1F220FEA
:10178000331FE20FF31FE954FD4F0190F081E02D6C
:1017900020813181C9010895CF93DF93DC01EB01F2
:1017A000F894FC01EE0FFF1FE651FD4F80819181FF
:1017B000019739F020E030E07894C901DF91CF91B2
:1017C0000895AA0FBB1FAA0FBB1FAE51BD4F8D912D
:1017D0009D910D90BC91A02D88839983AA83BB8392
:1017E0001182108221E030E07894C901DF91CF911D
:1017F00008951F920F920FB60F9211248F939F930B
:10180000AF93BF938091D6029091D702A091D80256
:10181000B091D9020196A11DB11D8093D60290937B
:10182000D702A093D802B093D902BF91AF919F91F4
:101830008F910F900FBE0F901F9018951F920F92CF
:101840000FB60F9211248F939F93AF93BF93809104
:10185000DA029091DB02A091DC02B091DD020196E8
:10186000A11DB11D8093DA029093DB02A093DC02EC
:10187000B093DD02BF91AF919F918F910F900FBEFA
:101880000F901F9018951F920F920FB60F920BB6E4
:101890000F921124EF92FF920F931F932F933F9378
:1018A0004F935F936F937F938F939F93AF93BF9368
:1018B000CF93DF93EF93FF93E0919702F09198021B
:1018C000808180628083E0919D02F0919E02C081C0
:1018D000D1812091D6023091D7024091D802509107
:1018E000D9021092D6021092D7021092D80210920A
:1018F000D902211531054105510509F444C08091F3
:10190000DE029091DF027E0100E010E0A0E0B0E096
:10191000E81AF90A0A0B1B0BCA01B9012FE33CE9CB
:1019200040E050E00E94F339E60EF71E081F191F31
:10193000E092E202F092E3020093E4021093E502E7
:1019400081E090E09093EB028093EA02D093DF0273
:10195000C093DE02FF91EF91DF91CF91BF91AF91E4
:101960009F918F917F916F915F914F913F912F91B7
:101970001F910F91FF90EF900F900BBE0F900FBE35
:101980000F901F9018958091DE029091DF029E01CA
:10199000281B390B790100E010E0CACF1F920F928B
:1019A0000FB60F920BB60F921124EF92FF920F9386
:1019B0001F932F933F934F935F936F937F938F93D7
:1019C0009F93AF93BF93CF93DF93EF93FF93A09138
:1019D0009502B0919602ED91FC9111978081806201
:1019E00080831696ED91FC911797C081D18120914B
:1019F000DA023091DB024091DC025091DD0210925C
:101A0000DA021092DB021092DC021092DD02211544
:101A100031054105510509F444C08091E0029091DF
:101A2000E1027E0100E010E0A0E0B0E0E81AF90A6F
:101A30000A0B1B0BCA01B9012FE33CE940E050E05F
:101A40000E94F339E60EF71E081F191FE092E60206
:101A5000F092E7020093E8021093E90281E090E03F
:101A60009093ED028093EC02D093E102C093E002E8
:101A7000FF91EF91DF91CF91BF91AF919F918F91A6
:101A80007F916F915F914F913F912F911F910F9196
:101A9000FF90EF900F900BBE0F900FBE0F901F9016
:101AA00018958091E0029091E1029E01281B390B6C
:101AB000790100E010E0CACF8091A0008F7380937D
:101AC000A0008091A0008F7C8093A0008091A00056
:101AD000837F8093A0008091A0009091A1008360FB
:101AE00098618093A0009093A1008091A1008260F2
:101AF0008A7F8093A1002EE33CE93093A9002093D4
:101B0000A800809120018F73809320018091200193
:101B10008F7C8093200180912001837F809320011E
:101B20008091200190912101836098618093200130
:101B3000909321018091210182608A7F809321010D
:101B400030932901209328011092DF021092DE02C7
:101B50001092D6021092D7021092D8021092D90297
:101B600080910A018E7F80930A0180910B018E7F04
:101B700080930B01E0919902F0919A02808180623A
:101B80008083808181608083E091A102F091A20234
:101B90008081806480831092E1021092E0021092B2
:101BA000DA021092DB021092DC021092DD028091C8
:101BB0000A018D7F80930A0180910B018D7F8093B4
:101BC0000B01A0919502B09196021296ED91FC91B5
:101BD00013978081806280831296ED91FC91139718
:101BE0008081816080831A96ED91FC911B978081A2
:101BF00080648083089510928000E1E8F0E0108214
:101C0000109285001092840084E0808308958330D0
:101C1000910571F082309105B1F085309105F1F0B8
:101C2000049709F0089582E090E00E94EB0A08957D
:101C300082E090E06CE474E00E949C0B82E090E013
:101C40000E94EB0A089582E090E060EC72E10E944D
:101C50009C0B82E090E00E94EB0A089582E090E005
:101C600067E87BE00E949C0B82E090E00E94EB0A18
:101C70000895009719F00497B1F0089580E090E07E
:101C800060EC72E10E949C0B80E090E00E94EB0A05
:101C900081E090E06CE474E00E949C0B81E090E0B5
:101CA0000E94EB0A089581E090E00E944D0B80E0D5
:101CB00090E00E944D0B08950E945C0D0895809164
:101CC000991590919A15089580919715909198156E
:101CD000089580919515909196150895A4E0B0E02F
:101CE000E4E7FEE00C94343A05E815E1CC24DD2469
:101CF000AA24BB24882499245EEFE52E5FEFF52EFD
:101D00002E010894411C511C43E0642E712C6C0E72
:101D10007D1E31ED232E332433940BC0A80EB91E43
:101D20000E5F1F4F0894E11CF11C25E105391207D5
:101D3000F9F020ED29838E2D8C5F8A832B823C82E3
:101D4000C20162E00E94140FC30162E00E94140FFE
:101D5000C80162E00E945F0FF801818190E0C80E27
:101D6000D91EF4E0EF16F104C8F2880E991ED8CF00
:101D7000D594C794D594C794D594C794D0929A1506
:101D8000C0929915B594A794B594A794B09298155C
:101D9000A092971595948794959487949092961510
:101DA000809295152496E2E10C94503A80EC0E94C2
:101DB000681008958091BC0080FDFCCF1092F00265
:101DC00088EF80935A0285EC8093BC00089580913F
:101DD000BC0080FDFCCF1092F00288EF80935A0285
:101DE00085EE8093BC000895AC018091BC0080FD1D
:101DF000FCCF60930B03662371F020E030E0F90123
:101E0000ED50FD4FDA01A20FB31F8C9180832F5F3D
:101E10003F4F2617A0F31092F00288EF80935A02EA
:101E200085EC8093BC000895FC018091BC0080FD8E
:101E3000FCCF60930B0380818093F302808180FD4F
:101E400011C0623078F0DF01E4EFF2E0625070E040
:101E50006B507D4F11968C91119781931196E617D7
:101E6000F707C1F71092F00288EF80935A0285EAD3
:101E70008093BC000895AC018091BC0080FDFCCF34
:101E80002091F00220FF19C0662381F020E030E0AD
:101E9000FA01E20FF31FD901AD50BD4F8C91808341
:101EA0002F5F3F4F2617A0F32091F002822F8D7FE6
:101EB0008093F002822F8170089580E00895AC0134
:101EC0008091BC0080FDFCCF8091F002282F217012
:101ED00080FF13C0662389F020E030E0FA01E20FB2
:101EE000F31FD901AD50BD4F8C9180832F5F3F4FC1
:101EF0002617A0F32091F0022170822F089580917F
:101F0000F102882319F089B189B1FDCF81E00895EC
:101F10008091BC0080FDFCCF80915A0208951F92F1
:101F20000F920FB60F920BB60F9211242F933F937F
:101F30008F939F93AF93BF93EF93FF938091B900DB
:101F400090E0FC013897E13CF105B0F08091B900D8
:101F500080935A0285ED8093BC00FF91EF91BF9171
:101F6000AF919F918F913F912F910F900BBE0F904A
:101F70000FBE0F901F901895EE58FF4F0C946B3AC0
:101F80008091F2029091BB00E82FF0E0ED50FD4F00
:101F900090838F5F8093F2028091F0028160809342
:101FA000F00285EC8093BC00D8CF2091F2028091A2
:101FB000BB00E22FF0E0ED50FD4F80832F5F2093B8
:101FC000F20230E080910B0390E001972817390767
:101FD00044F385E88093BC00C0CF1092F202909148
:101FE000F20280910B03981708F05DC0E92FF0E032
:101FF000ED50FD4F80818093BB009F5F9093F20274
:1020000085E88093BC00A9CF1092F2029091F20271
:10201000E92FF0E0ED50FD4F80818093BB009F5F82
:102020009093F20285EC8093BC0097CF8091BB0027
:10203000E091F202F0E0ED50FD4F80838091F002DC
:1020400081608093F00284ED8093BC0086CF809104
:10205000B90080935A0285EE8093BC007ECF85EE56
:102060008093BC007ACF84E08093F1028093BC001F
:1020700074CF9091F20280910B03981719F180911F
:10208000B90080935A0284E08093BC0066CF8091AF
:10209000F002846082608093F0021092F20285EC7C
:1020A0008093BC005ACF8091F00281608093F0024F
:1020B00084E98093BC0051CF8091F002EBCF209156
:1020C000F2027FCF8091F00281608093F002DBCF3B
:1020D0001F93182F8091EE029091EF02892BA9F0A7
:1020E0008AB18C7F8AB98BB183608BB91092B900A9
:1020F0008CE28093B8001093BA008FEF8093BB00FE
:1021000084E08093BC001F91089581E060E043E08B
:102110000E9455169093EF028093EE02009701F310
:1021200060E070E040E050E020E00E94C213D8CFB1
:102130001F93182F8091EE029091EF02892B69F086
:102140008AB18C7F8AB91093BA008FEF8093BB005D
:1021500084E08093BC001F91089581E060E043E03B
:102160000E9455169093EF028093EE02009741F380
:1021700060E070E040E050E020E00E94C213E0CF59
:102180000FB6F8940F92FC01828D0F900FBE089548
:10219000FC010FB6F8940F92928D0F900FBE838DB5
:1021A000891B0895FC01828D0895FC01878D089597
:1021B000FC01678F0895FC0180A10895FC01828DC8
:1021C00090E0882309F491E0892F0895FC01928D15
:1021D00020E0838D981711F0822F089521E0822F3F
:1021E0000895CF93DF93EC0188819981009711F0D6
:1021F0000E941031CE010E941031DF91CF910895DD
:102200000F931F93CF93DF93562FE72FEC018A8D07
:102210008823F1F00E811F81688179816115710534
:10222000A1F04C8D9801240F311D3F832E838A81AC
:102230009B812817390710F07F836E836E817F8121
:10224000852F9E2F50E00E94FB071F830E8381E0A5
:10225000DF91CF911F910F9108950F931F93CF930B
:10226000DF93FB018A01EC018A8D882319F16881D3
:10227000798161157105A1F04C8D8E819F81840F4C
:10228000911D9F838E832A813B818217930710F0D3
:102290007F836E836E817F81CF0150E00E94FB07B8
:1022A0008A8D81508A8F8D8D8F3F49F08D8D8F5F04
:1022B0008D8F81E0DF91CF911F910F9108958885D7
:1022C000882331F481E0DF91CF911F910F91089520
:1022D000CE0108960E94DD188823A1F3011511058F
:1022E00089F381E0F8018083E5CFA5E0B0E0EBE77A
:1022F000F1E10C94363A562E472E5D834C83A22E84
:102300008C0128E0C22ED12CC80ED91E91E1E92EF5
:10231000F12CE00EF11E20E04E010894811C911C6E
:1023200084E0682E712C6C0E7D1EBB24BA940FB60F
:10233000F8940F92F801828D882309F0ECC08C810B
:102340009D81892B09F41CC1222309F4D5C00F906B
:102350000FBE0E94C3160FB6F8940F92F801858D38
:102360008F3F09F4C7C0F801868D8F3F09F4C0C0C4
:102370000F900FBEC401B3010E94E816882309F034
:1023800007C10FB6F8940F92F801828D0F900FBE1F
:10239000882309F05FC0F80180819181892B09F4BD
:1023A000AFC06C817D81C7010E94C71A0FB6F89437
:1023B0000F92F801868D18164CF019C0F801868D21
:1023C0008150868F868D181694F4F80181898823B0
:1023D00071F0C7010E94DD18882381F30E9427173E
:1023E000F801868D8150868F868D181674F3F8015A
:1023F000B68E0F900FBE0FB6F8940F92F801858D30
:1024000018164CF019C0F801858D8150858F858D87
:10241000181694F4F8018085882371F0C6010E9493
:10242000DD18882381F30E942717F801858D8150DC
:10243000858F858D181674F3F801B58E0F900FBE39
:102440000E94DD1B882311F021E071CF0E94A4308F
:1024500021E06DCF0FB6F8940F92F801868D181613
:102460004CF019C0F801868D8150868F868D181624
:1024700094F4F8018189882371F0C7010E94DD1866
:10248000882381F30E942717F801868D8150868F5B
:10249000868D181674F3F801B68E0F900FBE0FB626
:1024A000F8940F92F801858D18164CF019C0F801B8
:1024B000858D8150858F858D181694F4F80180855F
:1024C000882371F0C6010E94DD18882381F30E94E1
:1024D0002717F801858D8150858F858D181674F327
:1024E000F801B58E0F900FBE0E94DD1B21E01FCFBB
:1024F000168E3ECF158E37CFC4010E94DD1627CF32
:102500000FB6F8940F92F801828193810E945518BA
:102510000F900FBE46CF86809780608171816115D4
:102520007105A1F0448D9401240F311D378326835A
:10253000828193812817390708F08CC0F8016681E1
:102540007781852D942D50E00E94FB07AA2009F089
:1025500073C0F801828D8150828F80819181892B97
:1025600009F481C0F8018085882309F46BC0C60195
:102570000E94DD18813009F065C00E94A43062C05D
:102580000F900FBE80E02596E0E10C94523A71C0A6
:102590000FB6F8940F92F801868D18164CF019C0FA
:1025A000F801868D8150868F868D181694F4F80177
:1025B0008189882371F0C7010E94DD18882381F387
:1025C0000E942717F801868D8150868F868D1816F8
:1025D00074F38FEFF801868F0F900FBE0FB6F8944B
:1025E0000F92F801858D18164CF019C0F801858DF1
:1025F0008150858F858D181694F4F8018085882385
:1026000071F0C6010E94DD18882381F30E9427170C
:10261000F801858D8150858F858D181674F38FEFA5
:10262000F801858F0F900FBE0E94DD1B80E025967C
:10263000E0E10C94523A1DC0F801978286828189AC
:10264000882359F40F900FBE81E02596E0E10C94A9
:10265000523A0FC07783668371CFC7010E94DD189D
:10266000882381F38ACF0E940518F801938382831F
:1026700079CFEF92FF921F93CF93DF937A01122FBE
:10268000EC019A8D8B8D981748F0223039F080E05C
:10269000DF91CF911F91FF90EF9008954C8D4423CF
:1026A000A9F488819981892B09F465C08A8D8F5F8F
:1026B0008A8F8E8D8F3F89F18E8D8F5F8E8F81E017
:1026C000DF91CF911F91FF90EF900895112379F141
:1026D0008E819F8150E00E94FB078C8D90E0442703
:1026E0005527481B590B8E819F81840F951F9F830F
:1026F0008E83288139818217930730F48A819B81E8
:10270000840F951F9F838E83123081F68A8D8823D4
:1027100069F28A8D81508A8FC9CF89898823F1F423
:1027200081E0DF91CF911F91FF90EF9008958C8110
:102730009D8150E00E94FB078C8D2C813D81280FEC
:10274000311D3D832C838A819B812817390708F42A
:10275000ADCF888199819D838C83A8CFCE0141968E
:102760000E94DD188823E1F2E114F104C9F281E04E
:10277000F7018083A5CF8A819B810E9423181B8249
:102780001A8294CFA5E0B0E0E8ECF3E10C94363A7D
:10279000562E472E5D834C83B22E8C0158E0E52ED9
:1027A000F12CE80EF91E41E1C42ED12CC80ED91E21
:1027B00020E04E010894811C911C34E0632E712CA2
:1027C0006C0E7D1EAA24AA940FB6F8940F92F801FD
:1027D000928D838D981708F4E0C0F2E0BF1609F4DB
:1027E000DCC08C819D81892B09F41EC1222309F450
:1027F00078C00F900FBE0E94C3160FB6F8940F92C8
:10280000F801858D8F3F09F46AC0F801868D8F3FEE
:1028100009F463C00F900FBEC401B3010E94E81613
:10282000882309F009C10FB6F8940F92F801928D30
:102830000F900FBEF801838D981709F456C00FB69C
:10284000F8940F92F801868D18164CF019C0F80113
:10285000868D8150868F868D181694F4F8018189B3
:10286000882371F0C6010E94DD18882381F30E943D
:102870002717F801868D8150868F868D181674F380
:10288000F801A68E0F900FBE0FB6F8940F92F801C4
:10289000858D18164CF019C0F801858D8150858FF3
:1028A000858D181694F4F8018085882371F0C7018E
:1028B0000E94DD18882381F30E942717F801858D77
:1028C0008150858F858D181674F3F801A58E0F90B1
:1028D0000FBE0E94DD1B21E077CF168E9BCF158E99
:1028E00094CFC4010E94DD1684CF6C817D81C70125
:1028F0000E94C71A0FB6F8940F92F801868D181629
:102900004CF019C0F801868D8150868F868D18167F
:1029100094F4F8018189882371F0C6010E94DD18C2
:10292000882381F30E942717F801868D8150868FB6
:10293000868D181674F3F801A68E0F900FBE0FB691
:10294000F8940F92F801858D18164CF019C0F80113
:10295000858D8150858F858D181694F4F8018085BA
:10296000882371F0C7010E94DD18882381F30E943B
:102970002717F801858D8150858F858D181674F382
:10298000F801A58E0F900FBE0E94DD1B882309F071
:10299000A2CF0E94A43021E017CFF801448D442338
:1029A000A9F480819181892B09F4BEC0F801828D40
:1029B0008F5F828F8189882309F0ADC00F900FBE91
:1029C00081E02596E0E10C94523AB6C0BB2009F4B0
:1029D00087C0F80186819781652D742D50E00E9493
:1029E000FB07F801848D90E044275527481B590BBD
:1029F00086819781840F951F9783868320813181FB
:102A00008217930730F482819381840F951F9783F7
:102A10008683F2E0BF1651F6F801828D882331F2E9
:102A2000828D8150828FC2CF0F900FBE80E025969D
:102A3000E0E10C94523A80C00FB6F8940F92F8017E
:102A4000868D18164CF019C0F801868D8150868F3E
:102A5000868D181694F4F8018189882371F0C601D7
:102A60000E94DD18882381F30E942717F801868DC4
:102A70008150868F868D181674F38FEFF801868F3C
:102A80000F900FBE0FB6F8940F92F801858D1816AF
:102A90004CF019C0F801858D8150858F858D1816F1
:102AA00094F4F8018085882371F0C7010E94DD1835
:102AB000882381F30E942717F801858D8150858F27
:102AC000858D181674F38FEFF801858F0F900FBE68
:102AD0000E94DD1B80E02596E0E10C94523A2CC068
:102AE000F80184819581652D742D50E00E94FB07CB
:102AF000F801848D24813581280F311D358324838D
:102B0000828193812817390708F450CF8081918101
:102B1000958384834BCFC6010E94DD18813009F074
:102B20004DCF0E94A4304ACF828193810E94231806
:102B3000F801138212823ACF0F931F93CF93DF9342
:102B4000182F81E290E00E948331EC01009719F187
:102B50001B821A82198218821D821C821F821E8289
:102B60001A8E81E08B8F1C8E8FEF8D8F8E8F18A326
:102B7000CE0108960E9481328E010F5E1F4FC80160
:102B80000E9481320FB6F8940F929A8D8B8D981710
:102B900040F00F900FBECE01DF91CF911F910F91AA
:102BA00008954C8D442391F488819981892B71F18A
:102BB0008A8D8F5F8A8F8989882301F50F900FBED8
:102BC000CE01DF91CF911F910F9108958C819D814E
:102BD00060E070E050E00E94FB078C8D2C813D810D
:102BE000280F311D3D832C838A819B81281739074B
:102BF000F8F2888199819D838C83DACFC8010E9485
:102C0000DD188130D9F60E94A430D8CF8A819B810B
:102C10000E9423181B821A82CBCFCF93DF93EC0143
:102C20000FB6F8940F92EC8D2B8DE29FC00111240A
:102C300048815981840F951F9B838A831A8E5D83F7
:102C40004C8330E021503040F0E02E9FC0012F9F98
:102C5000900D3E9F900D1124480F591F5F834E83A6
:102C60008FEF8D8F8E8F662391F48885882331F4C2
:102C70000F900FBE81E0DF91CF910895CE010896AD
:102C80000E94DD188130A1F70E94A430F1CFCE015F
:102C900008960E948132CE0141960E9481320F90A7
:102CA0000FBE81E0DF91CF910895CF92DF92FF9226
:102CB0000F931F93CF93DF93182F062FF42E8823A3
:102CC00059F440E050E0CA01DF91CF911F910F917C
:102CD000FF90DF90CF90089581E290E00E948331D1
:102CE000EC01009771F3C02EDD24812F90E09C0150
:102CF000C29EC001C39E900DD29E900D11240196DC
:102D00000E948331998388830097B9F11B8F0C8FC0
:102D10000FB6F8940F922B8D30E0C29EC001C39E77
:102D2000900DD29E900D112448815981840F951FDA
:102D30009B838A831A8E5D834C83215030408C8D17
:102D400090E0BC01269FC001279F900D369F900DFB
:102D50001124480F591F5F834E838FEF8D8F8E8F05
:102D6000CE0108960E948132CE0141960E948132A6
:102D70000F900FBEF8A2AE01A6CFCE010E94103177
:102D800040E050E0A0CF809114038F5F8093140344
:102D900008950FB6F8940F92209111033091120309
:102DA0000F900FBEC90108952091110330911203B5
:102DB000C901089580910E030895FC0180911303C9
:102DC00080838091110390911203928381830895EF
:102DD000FC01DB010FB6F8940F9260911103709122
:102DE00012032D913C9111978FEF2F3F3807F9F087
:102DF0009091130380818917F1F04181528164170A
:102E0000750708F5CB01841B950B82179307D8F43F
:102E1000261B370B240F351F2D933C9380911303F2
:102E2000808380911103909112039283818380E0CB
:102E30000F900FBE089541815281CB01841B950BE9
:102E40008217930728F381E00F900FBE089581E069
:102E5000809310030895FC01009711F082A108955A
:102E600080E00895FC01009709F062A30895A0E0B6
:102E7000B0E0EDE3F7E10C94363A3C018B015A01E6
:102E8000DB018C91882309F48DC01196ED91FC91A2
:102E900012970280F381E02D1296FC93EE93119726
:102EA00023E0C22ED12CC60ED71EEC15FD0509F469
:102EB00083C086809780FF249FE0E92E82E0482E21
:102EC000512C82819381F80192838183C816D9069F
:102ED00009F455C0D8011196ED91FC911297C68165
:102EE000D781FE9CB0011124660D771DFB01D183B3
:102EF000C0836996D383C283699789A18483B6828C
:102F0000A5828E898783F3E0AF16B10409F43FC030
:102F10008BA1FB0180878CA19DA1AEA1BFA1818760
:102F20009287A387B487AF89B88D8C91853A09F0D1
:102F300040C020E030E040E050E02F5F3F4F4F4F77
:102F40005F4FFD01E20FF31F8081853AB1F3C901A4
:102F5000DB011E969C938E931D97F394C815D9059B
:102F600011F1D8011196ED91FC9112978281938114
:102F7000F80192838183C816D90609F0ABCFD60138
:102F800012968D919C91139792838183A3CF8C8904
:102F90009D89892B09F4BCCFDB0116965C924E9279
:102FA0001597B6CFFF248F2DCDB7DEB7E0E10C9497
:102FB000523A80E090E0CCCF8281938111968C933D
:102FC000119712969C939C01F90173CF0097B1F071
:102FD000FC01A789B08D8C91853AA9F420E030E0FE
:102FE00040E050E02F5F3F4F4F4F5F4FFD01E20F3A
:102FF000F31F8081853AB1F3822F0895E0910C038D
:10300000F0910D03E6CF80E0089520910C033091FC
:103010000D03C9010895E0910C03F0910D0384851F
:103020009585A0910C03B0910D03E0910C03F091F4
:103030000D03468924E030E0241B31091D963C93A2
:103040002E931C9708950F931F93CF93DF93EC015A
:10305000009731F19E898BA1981711F18E010E5FB7
:103060001F4FC8010E94E6322BA12E8B8C859D85B7
:1030700097FD06C084E090E0821B91099D878C87B4
:103080009E8980910F03891710F490930F0389E0B4
:10309000989FC00111248F5D9C4FB8010E9495320A
:1030A000DF91CF911F910F9108950F931F93CF93AD
:1030B000DF93EC01009741F13E89E0910C03F09120
:1030C0000D038689381700F58C859D8597FD0BC00B
:1030D000E0910C03F0910D03268984E090E0821BBF
:1030E00091099D878C8789E0389FC00111248F5DED
:1030F0009C4F2A853B852817390759F0E0910C032E
:10310000F0910D0386898E8BDF91CF911F910F91E6
:1031100008958E010E5F1F4FC8010E94E632E091B4
:103120000C03F0910D0396899E8B80910F038917F4
:1031300010F490930F0389E0989FC00111248F5DD4
:103140009C4FB8010E949532DFCF0F931F93CF930E
:10315000DF93FC01706871836083C681D7810E9410
:10316000E6328E010E5F1F4FC8010E94E6329E8933
:1031700080910F03891710F490930F0389E0989FB3
:10318000C00111248F5D9C4FB8010E949532E091DF
:103190000C03F0910D039E898689891740F481E024
:1031A00080931003DF91CF911F910F91089580E0DC
:1031B000DF91CF911F910F9108950F931F93CF939C
:1031C000DF93DC011596ED91FC911697068117812E
:1031D000E8012C96CE010E94E632809114038823E8
:1031E00031F5E8012296CE010E94E632F801968977
:1031F00080910F03891708F189E0989FC00111247D
:103200008F5D9C4FBE010E949532E0910C03F091BE
:103210000D03D80156969C918689891788F481E020
:1032200080931003DF91CF911F910F9108958BE54B
:1032300093E0BE010E949532E8CF90930F03DCCF5C
:1032400080E0DF91CF911F910F910895A0E0B0E051
:10325000ECE2F9E10C943E3A80911403882309F0E2
:1032600089C08091110390911203019690931203EB
:1032700080931103E0901103F0901203E114F10424
:1032800019F520915703309158038091590390917B
:103290005A03909358038093570330935A03209313
:1032A0005903809113038F5F80931303E0915703B9
:1032B000F09158038081882309F086C08FEF9FEF3B
:1032C00090935C0280935B0280915B0290915C0220
:1032D000E816F90608F460C0DD2449E0C42EE09148
:1032E0005703F091580380818823E9F1E091570357
:1032F000F09158030580F681E02DC681D7818A813F
:103300009B81E816F90608F477C08E010E5F1F4F07
:10331000C8010E94E6328C899D89892B21F0CE015B
:103320000C960E94E6329E8980910F03891710F453
:1033300090930F039C9DC00111248F5D9C4FB80199
:103340000E949532E0910C03F0910D039E898689CD
:10335000981728F2DD24D394E0915703F091580395
:103360008081882319F68FEF9FEF90935C02809302
:103370005B0213C080911D038F5F80931D03DD24CA
:1033800080911003882311F0DD24D3948D2DCDB7C7
:10339000DEB7E8E00C945A3ADD24E0910C03F0919A
:1033A0000D03868990E0FC01EE0FFF1FEE0FFF1F5B
:1033B000EE0FFF1FE80FF91FEF5DFC4F8081823099
:1033C000F8F2DD24D394DCCFE0915703F091580359
:1033D0000580F681E02D0680F781E02D82819381C2
:1033E00090935C0280935B0280915B0290915C02FF
:1033F000E816F90688F270CF90935C0280935B0226
:10340000CCCFDF92EF92FF920F931F93CF93DF9376
:10341000EC018A859B858D56934041F010E0812F09
:10342000CDB7DEB7E7E00C945B3A42C08C899D894A
:1034300023E08B35920791F3892B81F78091140358
:10344000882349F5DE88E0910C03F0910D0306898D
:1034500052E0E52EF12CEC0EFD1EC7010E94E63273
:103460006E8980910F03861710F460930F0310E0AC
:10347000D01608F011E089E0689FC00111248F5D2B
:103480009C4FB7010E949532812FCDB7DEB7E7E0A0
:103490000C945B3A0DC02C968BE593E0BE010E9424
:1034A000953210E0812FCDB7DEB7E7E00C945B3AA0
:1034B0000F931F93CF93DF938A01E0910C03F09158
:1034C0000D0370687587648760910C0370910D031C
:1034D000645F7F4F0E94953280910C0390910D03A1
:1034E00002960E94E6328FEF0F3F180709F440C0A2
:1034F000C0911103D0911203C00FD11FE0910C03B2
:10350000F0910D03D383C283809111039091120334
:10351000C817D907E0F08091570390915803609144
:103520000C0370910D036E5F7F4F0E94B432809147
:103530005B0290915C02C817D90720F4D0935C021B
:10354000C0935B02DF91CF911F910F9108958091FD
:10355000590390915A0360910C0370910D036E5FB3
:103560007F4F0E94B432DF91CF911F910F91089548
:1035700060910C0370910D036E5F7F4F8DE693E0B9
:103580000E949532DF91CF911F910F9108950F9373
:103590001F93CF93DF938B0160910C0370910D0308
:1035A000645F7F4F0E94B43280910C0390910D03B1
:1035B00002960E94E6328FEF0F3F180709F440C0D1
:1035C000C0911103D0911203C00FD11FE0910C03E1
:1035D000F0910D03D383C283809111039091120364
:1035E000C817D907E0F08091570390915803609174
:1035F0000C0370910D036E5F7F4F0E94B432809177
:103600005B0290915C02C817D90720F4D0935C024A
:10361000C0935B02DF91CF911F910F91089580912C
:10362000590390915A0360910C0370910D036E5FE2
:103630007F4F0E94B432DF91CF911F910F91089577
:1036400060910C0370910D036E5F7F4F8DE693E0E8
:103650000E949532DF91CF911F910F910895EF92C3
:10366000FF920F931F9380911403882309F093C056
:103670001092100380918400909185007C0100E0FD
:1036800010E0E0921503F0921603009317031093D5
:1036900018038091190390911A03A0911B03B09114
:1036A0001C038E159F05A007B107B0F4E0910C0331
:1036B000F0910D03A8019701281B390B4A0B5B0BF6
:1036C00084A195A1A6A1B7A1820F931FA41FB51F26
:1036D00084A395A3A6A3B7A3E0921903F0921A03BB
:1036E00000931B0310931C03E0910C03F0910D0356
:1036F000A0910C03B0910D032081318157968D91DB
:103700009C9158978217930790F080910C039091A9
:103710000D0360910C0370910D03675E7F4F0E9453
:10372000CE0905C080910F03815080930F038091D3
:103730000F0390E0FC01EE0FFF1FEE0FFF1FEE0FD7
:10374000FF1FE80FF91FEF5DFC4F8081882351F3C5
:1037500090910F0389E0989FD0011124AF5DBC4F79
:103760001196ED91FC9112970280F381E02D129653
:10377000FC93EE931197CD010396E817F90799F0A2
:103780008681978190930D0380930C031F910F9175
:10379000FF90EF90089581E0809310031F910F91A7
:1037A000FF90EF9008958281938111968C931197E9
:1037B00012969C939C01F901E3CFA0E0B0E0E3EE08
:1037C000FBE10C943B3A0FB6F8940F9280911403EE
:1037D00081508093140380911403882309F0EDC075
:1037E00080910E03882309F4E8C0F9E0FF2EEE244F
:1037F000E39480915B03882369F1E0916003F09189
:103800006103C681D781CE010C960E94E6328E01FB
:103810000E5F1F4FC8010E94E6329E8980910F0300
:10382000891710F490930F039F9DC00111248F5DA1
:103830009C4FB8010E949532E0910C03F0910D036A
:103840009E8986899817A8F2E092100380915B0305
:10385000882399F680911D03882309F4AAC08091DA
:103860001D03882309F4A5C0E9E0CE2EAA24AA945A
:10387000BA2C9924939480911403882309F083C06F
:1038800080911103909112030196909312038093FB
:103890001103E0901103F0901203E114F10409F513
:1038A00020915703309158038091590390915A0306
:1038B000909358038093570330935A0320935903EE
:1038C000809113038F5F80931303E0915703F0916E
:1038D00058038081882309F097C0B0925C02A092BF
:1038E0005B0280915B0290915C02E816F90608F495
:1038F00073C0DD24E0915703F09158038081882341
:10390000E9F1E0915703F09158030580F681E02D2D
:10391000C681D7818A819B81E816F90608F485C0A3
:103920008E010E5F1F4FC8010E94E6328C899D896F
:10393000892B21F0CE010C960E94E6329E8980915F
:103940000F03891710F490930F039C9DC00111245D
:103950008F5D9C4FB8010E949532E0910C03F0916D
:103960000D039E898689981728F2DD24D394E0916F
:103970005703F09158038081882319F6B0925C02B6
:10398000A0925B022AC080911D038F5F80931D036C
:10399000DD24809110038823E1F4DD20D1F48091AF
:1039A0001D03815080931D0380911D03882309F01E
:1039B00062CF80911003813041F080E00F900FBE04
:1039C000CDB7DEB7EBE00C94573A0E94A43081E00B
:1039D000F5CF90921003E3CFDD24E0910C03F0913A
:1039E0000D03868990E0FC01EE0FFF1FEE0FFF1F15
:1039F000EE0FFF1FE80FF91FEF5DFC4F8081823053
:103A000040F2DD24D394C5CFE0915703F0915803E1
:103A10000580F681E02D0680F781E02D828193817B
:103A200090935C0280935B025CCF90935C028093E6
:103A30005B02D3CFA4E0B0E0E0E2FDE10C94343AC5
:103A40001C01DC011C9280910E03898390910E036E
:103A50008FE0989FC00111240E9483312C010097B0
:103A600009F4ADC08981909114039F5F9093140372
:103A700090910E03891708F4A6C084E0C82E1C821A
:103A8000CA94BC81EFE0BE9F50011124A40CB51C68
:103A9000F9E0CF9E7001112441E253E0E40EF51EDF
:103AA000D7018C91882309F484C11196ED91FC9182
:103AB00012970280F381E02D1296FC93EE931197FA
:103AC00003E0802E912C8E0C9F1CE815F90509F45B
:103AD0002CC566807780DD2482819381F7019283F3
:103AE00081838816990609F45FC0D7011196ED917C
:103AF000FC91129766817781BFE0DB9E80011124E3
:103B00000A0D1B1DF80171836083675E7F4F73830D
:103B1000628369517040DB0191968C919197848307
:103B200041E050E05683458356968C9156978783A3
:103B300093968C919397808794968D919D910D90FB
:103B4000BC91A02D81879287A387B487FB01A789A9
:103B5000B08D8C91853A09F0D4C220E030E040E08D
:103B600050E02F5F3F4F4F4F5F4FFD01E20FF31FBC
:103B70008081853AB1F3C901D8011E969C938E933A
:103B80001D97D3946616770609F414C1D7011196D0
:103B9000ED91FC91129782819381F7019283818349
:103BA0008816990609F0A1CFD40112968D919C91A7
:103BB00013979283818399CFC2010E94103124967A
:103BC000E2E10C94503A1B820FB6F8940F92809168
:103BD000140381508093140380911403882309F007
:103BE000A4C180910E03882309F49FC199E0D92EC6
:103BF000CC24C39480915B03882399F1E091600306
:103C0000F091610306811781C8010C960E94E6328B
:103C100022E0E22EF12CE00EF11EC7010E94E632F6
:103C2000F801968980910F03891718F490930F0378
:103C300096899D9DC00111248F5D9C4FB7010E9404
:103C40009532E0910C03F0910D03D80156969C91AA
:103C50008689981778F2C092100380915B038823BD
:103C600069F680911D03882309F459C180911D03D1
:103C7000882309F454C189E0A82E80911403882375
:103C800009F035C180911103909112030196909330
:103C9000120380931103C0901103D0901203C1143A
:103CA000D10419F52091570330915803809159039D
:103CB00090915A03909358038093570330935A037B
:103CC00020935903809113038F5F80931303E09136
:103CD0005703F09158038081882309F004C4EFEF63
:103CE000FFEFF0935C02E0935B0280915B029091A6
:103CF0005C02C816D90608F4DDC3BB24E091570363
:103D0000F09158038081882309F44CC0E091570357
:103D1000F09158030580F681E02D06811781D801C6
:103D200012968D919C911397C816D90608F4F5C385
:103D3000B2E0EB2EF12CE00EF11EC7010E94E6323C
:103D4000F80184899589892B21F0C8010C960E947D
:103D5000E632D80156969C91569780910F038917A9
:103D600020F490930F0356969C919A9DC0011124C4
:103D70008F5D9C4FB7010E949532E0910C03F0914A
:103D80000D03D80156969C918689981708F4B6CFF2
:103D9000BB24B394E0915703F091580380818823AA
:103DA00009F0B4CF4FEF5FEF50935C0240935B029A
:103DB00082C3DD24BC81BD0DBC83CC2009F060CE64
:103DC0008FE0B89F50011124A40CB51CE09057035C
:103DD000F0905803F7018081882309F495C1018090
:103DE000F281E02D0280F381E02DD7011296FC9341
:103DF000EE93119713E0812E912C8E0C9F1CE815E9
:103E0000F90509F4A3C366807780DD24AFE0CA2EEC
:103E100082819381F701928381838816990609F440
:103E20005EC0D7011196ED91FC9112976681778162
:103E3000DC9C800111240A0D1B1DF8017183608335
:103E4000675E7F4F7383628369517040DB01919697
:103E50008C919197848342E050E056834583569637
:103E60008C915697878393968C919397808794969D
:103E70008D919D910D90BC91A02D81879287A387F4
:103E8000B487FB01A789B08D8C91853A09F042C3B4
:103E900020E030E040E050E02F5F3F4F4F4F5F4F5A
:103EA000FD01E20FF31F8081853AB1F3C901D8010A
:103EB0001E969C938E931D97D3946616770609F4ED
:103EC00024C1D7011196ED91FC91129782819381C3
:103ED000F701928381838816990609F0A2CFD40155
:103EE00012968D919C911397928381839ACF8091A2
:103EF0001D038F5F80931D03BB24809110038823D3
:103F000009F0D4C2BB2009F0D1C280911D038150B9
:103F100080931D0380911D03882309F0AECE80910C
:103F20001003813011F40E94A4300F900FBEEB817A
:103F3000E983C401B30124E630E040E050E00E9490
:103F4000123A59016A01A114B104C104D10409F45F
:103F500033CE1A829A818981981708F02DCEE5E236
:103F60008E2EE2E09E2E74E3672E72E0772E60C004
:103F70008A812A814DB75EB74A5050400FB6F894F7
:103F80005EBF0FBE4DBFADB7BEB71196EDB7FEB762
:103F90003282218213969C928E92129790E0FC01BD
:103FA000EE0FFF1FE80FF91FCF01880F991F880F31
:103FB000991FE80FF91FE40DF51D82819381159675
:103FC0009C938E93149730E0F901EE0FFF1FE20FE0
:103FD000F31FCF01880F991F880F991FE80FF91F52
:103FE000E40DF51D8185928517969C938E93169707
:103FF0001996FC92EE9218970E9442084DB75EB750
:10400000465F5F4F0FB6F8945EBF0FBE4DBFD10144
:104010000D900020E9F71197A219B3098A818F5FEB
:104020008A839A818981981708F0C6CD2A0E3B1E93
:104030008A8190E0FC01EE0FFF1FE80FF91FCF010E
:10404000880F991F880F991FE80FF91FE40DF51DC0
:104050006185728583859485A60195010E94123A37
:1040600079018A01E114F1040105110509F080CFFD
:104070008A812A81ADB7BEB718970FB6F894BEBF34
:104080000FBEADBF1196EDB7FEB7328221821396F7
:104090007C926E92129790E0FC01EE0FFF1FE80FEA
:1040A000F91FCF01880F991F880F991FE80FF91F7B
:1040B000E40DF51D8281938115969C938E93149740
:1040C00030E0F901EE0FFF1FE20FF31FCF01880F61
:1040D000991F880F991FE80FF91FE40DF51D8185C1
:1040E000928517969C938E9316970E9442084DB71F
:1040F0005EB7485F5F4F0FB6F8945EBF0FBE4DBF0F
:1041000086CF80E090E038CDDD24CC80CD0C8FE0F0
:10411000C89E50011124A40CB51CE0905903F090E6
:104120005A03F7018081882309F486C00180F28157
:10413000E02D0280F381E02DD7011296FC93EE93DF
:10414000119773E0872E912C8E0C9F1CE815F905B2
:1041500009F406C266807780DD2482819381F701AD
:10416000928381838816990609F45EC0D70111965F
:10417000ED91FC91129766817781BFE0DB9E800113
:1041800011240A0D1B1DF80171836083675E7F4F48
:104190007383628369517040DB0191968C91919792
:1041A000848342E050E05683458356968C9156971F
:1041B000878393968C919397808794968D919D9108
:1041C0000D90BC91A02D81879287A387B487FB01B6
:1041D000A789B08D8C91853A09F099C120E030E033
:1041E00040E050E02F5F3F4F4F4F5F4FFD01E20F28
:1041F000F31F8081853AB1F3C901D8011E969C93C3
:104200008E931D97D39466167706B9F0D701119651
:10421000ED91FC91129782819381F70192838183C2
:104220008816990609F0A2CFD40112968D919C911F
:104230001397928381839ACFDD24ED2CEC0C8FE0D1
:10424000E89E60011124C40CD51C8091640388236E
:1042500009F47CC0E0916503F09166030280F3816C
:10426000E02DF0936603E0936503B3E0E736FB07C8
:1042700009F480C1E0916503F0916603A680B780E0
:10428000FF246FE0762E54E0852E912C0280F3817E
:10429000E02DF0936603E093650343E0E736F4070F
:1042A00009F4FDC0E0916503F091660366817781B2
:1042B000F79C800111240C0D1D1DD80111967C93D3
:1042C0006E93675E7F4F13967C936E93129769513E
:1042D0007040FB0181A114968C93149716969C92C2
:1042E0008E921597868917968C93179783A11896A7
:1042F0008C9384A195A1A6A1B7A1F801818792878B
:10430000A387B487FB01A789B08D8C91853A09F00A
:10431000FBC020E030E040E050E02F5F3F4F4F4FC8
:104320005F4FFD01E20FF31F8081853AB1F3C901B0
:10433000D8011E969C938E931D97F394A616B706EC
:1043400031F0E0916503F0916603A0CFFF24EF0CFC
:104350008FE0E89E60011124C40CD51C80916D0390
:10436000882309F48AC0E0916E03F0916F03028004
:10437000F381E02DF0936F03E0936E03B3E0E03739
:10438000FB0709F4DCC0E0916E03F0916F03A68097
:10439000B780FF2443E0842E912C32E0632E712CF1
:1043A0000280F381E02DF0936F03E0936E0343E00E
:1043B000E037F40709F46CC0E0916E03F0916F03ED
:1043C000668177815FE0F59E800111240C0D1D1D33
:1043D000D80111967C936E93675E7F4F13967C9302
:1043E0006E93129769517040FB0181A114968C93D2
:1043F000149716969C928E921597868917968C9391
:10440000179784899589892B21F016967C926E9254
:104410001597DB0193968C919397F801808794967A
:104420008D919D910D90BC91A02D81879287A3873E
:10443000B487FB01A789B08D8C91853A09F072C0D1
:1044400020E030E040E050E02F5F3F4F4F4F5F4FA4
:10445000FD01E20FF31F8081853AB1F3C901D80154
:104460001E969C938E931D97F394A616B70631F073
:10447000E0916E03F0916F0393CFFF24FE0CFB825B
:1044800080918400909185003C01882499249CCBE4
:104490008281938190936F0380936E038DCF82818D
:1044A00093819093660380936503FCCEB1E0B09353
:1044B00010032BCDBB24E0910C03F0910D038689F2
:1044C00090E0FC01EE0FFF1FEE0FFF1FEE0FFF1F2E
:1044D000E80FF91FEF5DFC4F8081823008F40DCDAD
:1044E000BB24B3940ACDE0915703F09158030580A3
:1044F000F681E02D0680F781E02D828193819093F3
:104500005C0280935B02F1CB80E090E011CF80E011
:1045100090E073CE80E090E0CACC90935C028093F0
:104520005B02C9CF80E090E09ACF8281938111969F
:104530008C93119712969C939C01F901CACA8281AF
:10454000938190936F0380936E031DCF828193813B
:1045500011968C93119712969C939C01F90153CC60
:104560008281938111968C93119712969C939C0152
:10457000F901F0CD82819381909366038093650366
:1045800079CEA3E0B0E0E7ECF2E20C94343A1C01FF
:10459000DC011C9280910E03898390910E038FE0C1
:1045A000989FC00111240E9483315C01009709F497
:1045B000ADC08981909114039F5F909314039091F3
:1045C0000E03891708F4A6C064E0C62E1B82CA94A5
:1045D000BB81EFE0BE9F400111248A0C9B1CF9E0D7
:1045E000CF9E7001112421E233E0E20EF31ED701C9
:1045F0008C91882309F482C11196ED91FC91129758
:104600000280F381E02D1296FC93EE93119753E014
:10461000652E712C6E0C7F1CE615F70509F4FEC49F
:1046200046805780DD2482819381F70192838183C4
:104630006816790609F45FC0D7011196ED91FC91D7
:10464000129766817781BFE0DB9E80011124080DFF
:10465000191DF80171836083675E7F4F73836283E6
:1046600069517040DB0191968C919197848321E090
:1046700030E03683258356968C91569787839396A0
:104680008C919397808794968D919D910D90BC917C
:10469000A02D81879287A387B487FB01A789B08D5E
:1046A0008C91853A09F0AEC220E030E040E050E065
:1046B0002F5F3F4F4F4F5F4FFD01E20FF31F808190
:1046C000853AB1F3C901D8011E969C938E931D972C
:1046D000D3944616570609F412C1D7011196ED91ED
:1046E000FC91129782819381F701928381836816EE
:1046F000790609F0A1CFD30112968D919C91139761
:104700009283818399CFC5010E9410312396E2E103
:104710000C94503A77240FB6F8940F9280911403BA
:1047200081508093140380911403882309F0A2C15F
:1047300080910E03882309F49DC1A9E0DA2ECC24D0
:10474000C39480915B03882399F1E0916003F09119
:10475000610306811781C8010C960E94E632B2E01F
:10476000EB2EF12CE00EF11EC7010E94E632F8019B
:10477000968980910F03891718F490930F039689F7
:104780009D9DC00111248F5D9C4FB7010E94953201
:10479000E0910C03F0910D03D80156969C91868907
:1047A000981778F2C092100380915B03882369F612
:1047B00080911D03882309F457C180911D0388232C
:1047C00009F452C1F9E0CF2E44244A94542C6624B3
:1047D000639480911403882309F02EC18091110302
:1047E000909112030196909312038093110380908D
:1047F0001103909012038114910409F5209157033D
:10480000309158038091590390915A039093580323
:104810008093570330935A032093590380911303D5
:104820008F5F80931303E0915703F09158038081C9
:10483000882309F0D1C350925C0240925B028091C0
:104840005B0290915C028816990608F4ACC3DD24E3
:10485000E0915703F09158038081882309F449C0FF
:10486000E0915703F09158030580F681E02D068111
:104870001781F801828193818816990608F4C6C3CE
:10488000E2E0EE2EF12CE00EF11EC7010E94E632AE
:10489000D80154968D919C915597892B21F0C80190
:1048A0000C960E94E632F801968980910F038917D1
:1048B00018F490930F0396899C9DC00111248F5D7D
:1048C0009C4FB7010E949532E0910C03F0910D03CB
:1048D000D80156969C918689981708F4B9CFDD24A3
:1048E000D394E0915703F09158038081882309F015
:1048F000B7CF50925C0240925B0256C3DD24BB816D
:10490000BD0DBB83CC2009F062CE8FE0B89F400183
:1049100011248A0C9B1CE0905703F0905803F70178
:104920008081882309F471C10180F281E02D028029
:10493000F381E02DD7011296FC93EE93119743E09B
:10494000642E712C6E0C7F1CE615F70509F477C3F5
:1049500046805780DD243FE0C32E82819381F7019A
:10496000928381836816790609F45EC0D701119697
:10497000ED91FC91129766817781DC9C8001112476
:10498000080D191DF80171836083675E7F4F738383
:10499000628369517040DB0191968C919197848379
:1049A00022E030E03683258356968C915697878394
:1049B00093968C919397808794968D919D910D906D
:1049C000BC91A02D81879287A387B487FB01A7891B
:1049D000B08D8C91853A09F016C320E030E040E0BC
:1049E00050E02F5F3F4F4F4F5F4FFD01E20FF31F2E
:1049F0008081853AB1F3C901D8011E969C938E93AC
:104A00001D97D3944616570609F400C1D701119695
:104A1000ED91FC91129782819381F70192838183BA
:104A20006816790609F0A2CFD30112968D919C9158
:104A30001397928381839ACF80911D038F5F809318
:104A40001D03DD2480911003882309F0A9C2DD2015
:104A500009F0A6C280911D03815080931D038091AF
:104A60001D03882309F0B5CE80911003813011F425
:104A70000E94A4300F900FBE79821A829A81898198
:104A8000981708F040CE63E4E62E62E0F62E8FC061
:104A9000019709F4B4C000E010E08A812A814A81BC
:104AA0006A81EDB7FEB73E970FB6F894FEBF0FBE12
:104AB000EDBFADB7BEB71196328221821396FC923C
:104AC000EE92129790E0FC01EE0FFF1FE80FF91F26
:104AD000CF01880F991F880F991FE80FF91FEA0D62
:104AE000FB1D8281938115969C938E931497179644
:104AF0001C930E93169730E0F901EE0FFF1FE20FA3
:104B0000F31FCF01880F991F880F991FE80FF91F16
:104B1000EA0DFB1D878118968C93189719961C92A5
:104B2000199750E0FA01EE0FFF1FE40FF51FCF01B8
:104B3000880F991F880F991FE80FF91FEA0DFB1DB9
:104B4000858596851B969C938E931A9770E0FB0142
:104B5000EE0FFF1FE60FF71FCF01880F991F880F79
:104B6000991FE80FF91FEA0DFB1D84811C968C9399
:104B70001C971D961C920E944208D1010D900020A6
:104B8000E9F71197A219B3098A818F5F8A839A8105
:104B900089812DB73EB7225F3F4F0FB6F8943EBFD5
:104BA0000FBE2DBF981708F0AECD2A0E3B1E8A818E
:104BB00090E0FC01EE0FFF1FE80FF91FCF01880FF7
:104BC000991F880F991FE80FF91FEA0DFB1D8581BA
:104BD00096818230910569F08330910508F458CFB1
:104BE0008330910549F0049709F055CF04E410E0B3
:104BF00054CF02E410E051CF03E510E04ECF02E5C0
:104C000010E04BCF80E090E05ECDDD24CB80CD0C7A
:104C10008FE0C89E400111248A0C9B1CE090590330
:104C2000F0905A03F7018081882309F486C001803F
:104C3000F281E02D0280F381E02DD7011296FC93E2
:104C4000EE93119723E0622E712C6E0C7F1CE615FB
:104C5000F70509F4FEC146805780DD2482819381E7
:104C6000F701928381836816790609F45EC0D70143
:104C70001196ED91FC91129766817781BFE0DB9EE2
:104C800080011124080D191DF80171836083675E8E
:104C90007F4F7383628369517040DB0191968C91E1
:104CA0009197848322E030E03683258356968C9159
:104CB0005697878393968C919397808794968D913E
:104CC0009D910D90BC91A02D81879287A387B48779
:104CD000FB01A789B08D8C91853A09F091C120E044
:104CE00030E040E050E02F5F3F4F4F4F5F4FFD01FE
:104CF000E20FF31F8081853AB1F3C901D8011E96F6
:104D00009C938E931D97D39446165706B9F0D701FE
:104D10001196ED91FC91129782819381F701928314
:104D200081836816790609F0A2CFD30112968D917E
:104D30009C911397928381839ACFDD24ED2CEC0C08
:104D40008FE0E89E60011124CA0CDB1C8091640393
:104D5000882309F47CC0E0916503F091660302802A
:104D6000F381E02DF0936603E0936503B3E0E7364B
:104D7000FB0709F478C1E0916503F0916603868032
:104D80009780FF249FE0592E84E0682E712C0280CA
:104D9000F381E02DF0936603E093650323E0E736AB
:104DA000F20709F4F6C0E0916503F09166036681AD
:104DB0007781F59C800111240C0D1D1DD8011196E1
:104DC0007C936E93675E7F4F13967C936E931297DE
:104DD00069517040FB0181A114968C93149716962B
:104DE0007C926E921597868917968C93179783A15C
:104DF00018968C9384A195A1A6A1B7A1F8018187EB
:104E00009287A387B487FB01A789B08D8C91853ADF
:104E100009F0F3C020E030E040E050E02F5F3F4F6A
:104E20004F4F5F4FFD01E20FF31F8081853AB1F3D1
:104E3000C901D8011E969C938E931D97F3948616F4
:104E4000970631F0E0916503F0916603A0CFFF244F
:104E5000EF0C8FE0E89E60011124CA0CDB1C8091EE
:104E60006D03882309F48AC0E0916E03F0916F030B
:104E70000280F381E02DF0936F03E0936E03B3E0C3
:104E8000E037FB0709F4D4C0E0916E03F0916F03A3
:104E900086809780FF2403E0602E712C12E0412E63
:104EA000512C0280F381E02DF0936F03E0936E03A9
:104EB00023E0E037F20709F465C0E0916E03F0915A
:104EC0006F03668177813FE0F39E800111240C0D12
:104ED0001D1DD80111967C936E93675E7F4F1396CC
:104EE0007C936E93129769517040FB0181A11496D7
:104EF0008C93149716967C926E92159786891796C6
:104F00008C93179784899589892B21F016965C924A
:104F10004E921597DB0193968C919397F8018087B9
:104F200094968D919D910D90BC91A02D8187928733
:104F3000A387B487FB01A789B08D8C91853A09F0CE
:104F40006AC020E030E040E050E02F5F3F4F4F4F1D
:104F50005F4FFD01E20FF31F8081853AB1F3C90174
:104F6000D8011E969C938E931D97F39486169706F0
:104F700031F0E0916E03F0916F0393CFFF247F2C0B
:104F80007E0CC9CB8281938190936F0380936E03D3
:104F900094CF82819381909366038093650303CFBE
:104FA0006092100357CDDD24E0910C03F0910D03C6
:104FB000868990E0FC01EE0FFF1FEE0FFF1FEE0F42
:104FC000FF1FE80FF91FEF5DFC4F8081823008F46E
:104FD00039CDDD24D39436CDE0915703F0915803B9
:104FE0000580F681E02D0680F781E02D8281938196
:104FF00090935C0280935B0222CC80E090E019CF1A
:1050000080E090E07BCE80E090E0F6CC90935C0274
:1050100080935B02C9CF80E090E0A2CF8281938130
:1050200011968C93119712969C939C01F901F8CAE2
:105030008281938190936F0380936E0325CF828149
:10504000938111968C93119712969C939C01F90170
:105050007FCC8281938111968C93119712969C93A9
:105060009C01F901F8CD828193819093660380932E
:10507000650381CE0F931F93CF93DF93EC010097CD
:1050800089F080910C0390910D03C817D90751F056
:105090000FB6F8940F928A859B858D56934039F010
:1050A0000F900FBEDF91CF911F910F9108958C89C2
:1050B0009D8923E08B35920799F3892B89F78E011F
:1050C0000E5F1F4FC8010E94E6329E8980910F0338
:1050D000891710F490930F0389E0989FC001112461
:1050E0008F5D9C4FB8010E949532E0910C03F091C6
:1050F0000D039E898689981798F20E94A430D0CF1C
:10510000EF92FF920F931F93CF93DF930FB6F89414
:105110000F92009709F4DDC0EC018E010E5F1F4F66
:10512000C8010E94E6328C899D89892B21F0CE012D
:105130000C960E94E6328DE693E0B8010E9495320B
:105140000F900FBE80910C0390910D03C817D907E3
:1051500061F180911E03882391F00FB6F8940F92AD
:10516000E0915703F09158038081882369F48FEF11
:105170009FEF90935C0280935B020F900FBECDB7C0
:10518000DEB7E6E00C945C3AE0915703F0915803E7
:105190000580F681E02D0680F781E02D82819381E4
:1051A00090935C0280935B02E8CF80911E0388237A
:1051B00009F098C090910E0380916D03891709F44E
:1051C00094C080911403882309F088C010921003C2
:1051D00080918400909185007C0100E010E0E092D5
:1051E0001503F09216030093170310931803809190
:1051F000190390911A03A0911B03B0911C038E1503
:105200009F05A007B107B0F4E0910C03F0910D03E6
:10521000A8019701281B390B4A0B5B0B84A195A1B0
:10522000A6A1B7A1820F931FA41FB51F84A395A3A6
:10523000A6A3B7A3E0921903F0921A0300931B03ED
:1052400010931C03E0910C03F0910D03A0910C034B
:10525000B0910D032081318157968D919C91589783
:105260008217930730F046C080910F0381508093DE
:105270000F0380910F0390E0FC01EE0FFF1FEE0F74
:10528000FF1FEE0FFF1FE80FF91FEF5DFC4F80813E
:10529000882351F390910F0389E0989FD001112446
:1052A000AF5DBC4F1196ED91FC9112970280F38196
:1052B000E02D1296FC93EE931197CD010396E8171B
:1052C000F90729F18681978190930D0380930C0350
:1052D00056CFC0910C03D0910D031FCF81E0809376
:1052E00010034DCF0E94A4304ACF10920D031092AC
:1052F0000C0345CF80910C0390910D0360910C033A
:1053000070910D03675E7F4F0E94CE09B2CF8281FC
:10531000938111968C93119712969C939C01F9019D
:10532000D1CFA0E0B0E0E7E9F9E20C943B3A9C0170
:10533000009741F40E94A430CDB7DEB7EBE00C94A7
:10534000573A77C1809114038F5F80931403C09103
:105350001103D0911203C20FD31F80910C039091BF
:105360000D0302960E94E632E0910C03F0910D03CA
:10537000D383C2838091110390911203C817D90778
:1053800008F45BC0809157039091580360910C031F
:1053900070910D036E5F7F4F0E94B43280915B026B
:1053A00090915C02C817D90720F4D0935C02C09397
:1053B0005B020FB6F8940F92809114038150809392
:1053C000140380911403882309F04DC080910E03CB
:1053D000882309F448C099E0F92EEE24E3948091E3
:1053E0005B038823B9F1E0916003F0916103C6810A
:1053F000D781CE010C960E94E6328E010E5F1F4FC0
:10540000C8010E94E6329E8980910F03891710F42B
:1054100090930F039F9DC00111248F5D9C4FB80195
:105420000E949532E0910C03F0910D039E898689CC
:105430009817A8F2E0921003D2CF8091590390916F
:105440005A0360910C0370910D036E5F7F4F0E94B1
:10545000B432AFCF80911D03882389F4809110036B
:10546000813009F495C080E00F900FBE882309F4C5
:1054700061CFCDB7DEB7EBE00C94573ADAC080913C
:105480001D03882359F389E0C82EAA24AA94BA2CB4
:105490009924939480911403882309F07DC080910E
:1054A00011039091120301969093120380931103BC
:1054B000E0901103F0901203E114F10409F520913A
:1054C0005703309158038091590390915A03909358
:1054D00058038093570330935A03209359038091C4
:1054E00013038F5F80931303E0915703F0915803E8
:1054F0008081882309F087C0B0925C02A0925B0291
:1055000080915B0290915C02E816F90608F45EC097
:10551000DD24E0915703F09158038081882309F43A
:105520006DC0E0915703F09158030580F681E02D9E
:10553000C681D7818A819B81E816F90608F474C078
:105540008E010E5F1F4FC8010E94E6328C899D8933
:10555000892B21F0CE010C960E94E6329E89809123
:105560000F03891710F490930F039C9DC001112421
:105570008F5D9C4FB8010E949532E0910C03F09131
:105580000D039E898689981720F2DD24D394C1CF1C
:105590000E94A43081E068CF80911D038F5F8093CB
:1055A0001D03DD2480911003882369F4DD2059F464
:1055B00080911D03815080931D0380911D038823DA
:1055C00009F068CF4BCF90921003F2CFDD24E09129
:1055D0000C03F0910D03868990E0FC01EE0FFF1F94
:1055E000EE0FFF1FEE0FFF1FE80FF91FEF5DFC4FDF
:1055F00080818230B8F2DD24D394D4CFB0925C02A3
:10560000A0925B02E4CFE0915703F091580305802C
:10561000F681E02D0680F781E02D828193819093C1
:105620005C0280935B026CCF90935C0280935B0280
:10563000CECFA0E0B0E0EFE1FBE20C943B3AFC01FE
:10564000EB01809114038F5F809314032091110369
:105650003091120380819181C80FD91F2817390713
:1056600008F016C1C817D90708F024C12C173D0748
:1056700008F020C1D183C08380910C0390910D0369
:1056800002960E94E632E0910C03F0910D03D38361
:10569000C2838091110390911203C817D90708F4AF
:1056A000FCC0809157039091580360910C03709156
:1056B0000D036E5F7F4F0E94B43280915B02909128
:1056C0005C02C817D90720F4D0935C02C0935B0238
:1056D0000FB6F8940F9280911403815080931403B5
:1056E00080911403882309F003C180910E0388235D
:1056F00009F4FEC049E0F42EEE24E39480915B03AC
:10570000882369F1E0916003F0916103C681D7813C
:10571000CE010C960E94E6328E010E5F1F4FC8012B
:105720000E94E6329E8980910F03891710F49093AE
:105730000F039F9DC00111248F5D9C4FB8010E94F3
:105740009532E0910C03F0910D039E89868998179C
:10575000A8F2E092100380915B03882399F6809170
:105760001D03882309F4BFC080911D03882309F419
:10577000BAC039E0C32EAA24AA94BA2C99249394CF
:1057800080911403882309F098C0809111039091AF
:10579000120301969093120380931103E09011037A
:1057A000F0901203E114F10409F5209157033091B0
:1057B00058038091590390915A0390935803809312
:1057C000570330935A0320935903809113038F5F3B
:1057D00080931303E0915703F0915803808188234D
:1057E00009F0ADC0B0925C02A0925B0280915B02B6
:1057F00090915C02E816F90608F489C0DD24E09176
:105800005703F091580380818823E9F1E091570311
:10581000F09158030580F681E02DC681D7818A81F9
:105820009B81E816F90608F49BC08E010E5F1F4F9E
:10583000C8010E94E6328C899D89892B21F0CE0116
:105840000C960E94E6329E8980910F03891710F40E
:1058500090930F039C9DC00111248F5D9C4FB80154
:105860000E949532E0910C03F0910D039E89868988
:10587000981728F2DD24D394E0915703F091580350
:105880008081882319F6B0925C02A0925B0240C02E
:10589000C817D90708F4EECEE9CE8091590390914C
:1058A0005A0360910C0370910D036E5F7F4F0E944D
:1058B000B4320ECFD183C0830BCF80911D038F5F95
:1058C00080931D03DD24809110038823E9F4DD20FB
:1058D000D9F480911D03815080931D0380911D0395
:1058E000882309F04DCF80911003813009F43DC029
:1058F00080E00F900FBE882311F40E94A430CDB732
:10590000DEB7EBE00C94573A90921003E2CFDD241F
:10591000E0910C03F0910D03868990E0FC01EE0FFD
:10592000FF1FEE0FFF1FEE0FFF1FE80FF91FEF5DC8
:10593000FC4F8081823038F2DD24D394C4CFE091D3
:105940005703F09158030580F681E02D0680F7811A
:10595000E02D8281938190935C0280935B0246CF1D
:1059600090935C0280935B02D3CF0E94A43081E0CD
:10597000C0CF0F931F93CF93DF930FB6F8940F927E
:10598000009709F453C0EC018E010E5F1F4FC80150
:105990000E94E6328C899D89892B21F0CE010C96DC
:1059A0000E94E63284E693E0B8010E94953280912D
:1059B0001F038F5F80931F03809120038F5F80936D
:1059C00020030F900FBE80911E03882319F1809150
:1059D0000C0390910D03C817D90769F10FB6F8941D
:1059E0000F92E0915703F091580380818823B9F01A
:1059F000E0915703F09158030580F681E02D068071
:105A0000F781E02D8281938190935C0280935B0209
:105A10000F900FBEDF91CF911F910F9108958FEFDF
:105A20009FEF90935C0280935B02F2CFC0910C03D6
:105A3000D0910D03A9CF0E94A430ECCFF89410921E
:105A40001E030E9424300895A0E0B0E0EAE2FDE2E7
:105A50000C94343A2C01362E272E5A013901102F7E
:105A6000470188E290E00E948331EC01009709F43D
:105A7000ADC0C114D10409F49DC0D88ECF8AC6012F
:105A800065EA70E0A5010E940408EF88F88C832D78
:105A9000922D9C01F901DE0190E0808159968C9352
:105AA00059978081882329F09F5F3196119698300D
:105AB000A1F718A2012F143008F07AC00E8B0BA3A7
:105AC00072E0C72ED12CCC0EDD1EC6010E94913291
:105AD000CE010C960E949132D987C88784E090E06D
