:100000000C9470030C9492030C9492030C9492033E
:100010000C9492030C9492030C9492030C9492030C
:100020000C9492030C9492030C9492030C949203FC
:100030000C9492030C9492030C9492030C949203EC
:100040000C9492030C9492030C9492030C949203DC
:100050000C9492030C9492030C9492030C94500C05
:100060000C9492030C9444190C94571A0C94920318
:100070000C9492030C9492030C9492030C949203AC
:100080000C9432320C9492030C9492030C941C1630
:100090000C941A190C942D1A0C9492030C944B3353
:1000A0000C9492030C94A4100C9492030C9492035D
:1000B0000C9492030C945A100C942F110C949203EC
:1000C0000C9492030C9492030C947F100C94F018EF
:1000D0000C94031A0C9492030C94C6180C94D9191E
:1000E0000C949203E326CF26BB269526D423D42353
:1000F000D423D423D4230C26E825D425D423D423F5
:10010000D4237025D4232E251025DF249E23CB2431
:10011000B724A3248F247B2467242A241624EF23C6
:1001200052263E26D4232A264C258E25A225B625E6
:10013000D423D423D4236626A933623362336233B3
:100140006233623362336233A933623362336233C0
:100150006233623362336233AB33623362336233AE
:100160006233623362336233E33362336233623366
:100170006233623362336233AB336233623362338E
:100180006233623362336233E33362336233623346
:100190006233623362336233EB336233623362332E
:1001A00062336233623362331B34623362336233ED
:1001B0006233623362336233623362336233623397
:1001C0006233623362336233913362336233623358
:1001D0006233623362336233D23362336233623307
:1001E00062336233623362331834623362336233B0
:1001F00062336233623362331834623362336233A0
:1002000062336233623362330334623362336233A4
:100210006233623362336233033462336233623394
:1002200062336233623362337C336233623362330C
:100230006233623362336233A533623362336233D3
:1002400062336233623362337C33623362336233EC
:100250006233623362336233A533623362336233B3
:100260006233623362336233EF3362336233623359
:100270006233623362336233C03362336233623378
:100280006233623362336233C03362336233623368
:100290006233623362336233C23362336233623356
:1002A0006233623362336233F53362336233623313
:1002B00062336233623362338D330D0A0A0A476F49
:1002C0006F646279652E2E2E206E6F2073706163CD
:1002D0006520666F722069646C65207461736B21A0
:1002E0000D0A000D0A0A0A48656C6C6F20576F7280
:1002F0006C64210D0A006E616E00696E660000403C
:100300007A10F35A00A0724E18090010A5D4E80024
:1003100000E87648170000E40B54020000CA9A3B3C
:10032000000000E1F50500008096980000004042C2
:100330000F000000A0860100000010270000000050
:10034000E803000000006400000000000A00000054
:1003500000000100000000002C76D888DC674F0800
:1003600023DFC1DFAE59E1B1B796E5E3E453C63A06
:10037000E651997696E8E6C28426EB898C9B62ED7D
:10038000407C6FFCEFBC9C9F40F2BAA56FA5F49037
:10039000055A2AF75C936B6CF9676DC11BFCE0E4AE
:1003A0000D47FEF520E6B500D0ED902E0300943504
:1003B00077050080841E080000204E0A000000C857
:1003C0000C333333330F986E12831141EF8D2114A8
:1003D000893BE65516CFFEE6DB18D1844B381BF778
:1003E0007C1D901DA4BBE424203284725E22810017
:1003F000C9F124ECA1E53D27A0E0B0E0E2E0F2E0A5
:100400000C94EC57E9E0CE2EAA24A39488248A9475
:10041000982C7724739405C00F900FBEBB2009F071
:100420005FC08091421C882309F480C08091371CF2
:100430008F5F8093371CB090871C0FB6F8940F9293
:100440008091371C81508093371C8091371C882302
:1004500019F78091311C8823F9F280917E1C882342
:1004600071F1E091831CF091841CC681D781CE018B
:100470000C960E942D558E010E5F1F4FC8010E94E1
:100480002D559E898091321C891718F49093321C47
:100490009E899C9DC00111248C5B934EB8010E94E3
:1004A000DC54E0912F1CF091301C9E8986899817AE
:1004B000A0F2A092331C80917E1C882391F680913B
:1004C000401C882309F04DC08091331C813009F015
:1004D000A3CF0E9435320F900FBEBB2009F4A1CFED
:1004E0000FB6F8940F92E0918C1CF0918D1C068150
:1004F0001781C80102960E942D558091311C8150B0
:100500008093311C8091421C81508093421C0F903B
:100510000FBEF8018789908D0E948734C8010E9420
:1005200087348091421C882309F080CF8091441C3D
:10053000823008F476CF0E94353273CF8091401C10
:100540008F5F8093401CDD248091331C882309F049
:1005500095C0DD2009F092C08091401C81508093AD
:10056000401C8091401C882309F4AECF8091371C39
:10057000882321F78091341C9091351C019690932B
:10058000351C8093341CE090341CF090351CE11431
:10059000F10409F520917A1C30917B1C80917C1C20
:1005A00090917D1C90937B1C80937A1C30937D1CD2
:1005B00020937C1C8091361C8F5F8093361CE091C9
:1005C0007A1CF0917B1C8081882309F073C0909283
:1005D0008809809287098091870990918809E81697
:1005E000F90608F44EC0DD24E0917A1CF0917B1CE2
:1005F00080818823F1F1E0917A1CF0917B1C0580C9
:10060000F681E02DC681D7818A819B81E816F906A3
:1006100008F461C08E010E5F1F4FC8010E942D5566
:100620008C899D89892B21F0CE010C960E942D5535
:100630009E898091321C891718F49093321C9E89F0
:100640009C9DC00111248C5B934EB8010E94DC5428
:10065000E0912F1CF091301C9E898689981720F21A
:10066000DD24D394E0917A1CF0917B1C8081882357
:1006700011F6909288098092870904C07092331C09
:100680006BCFDD24E0912F1CF091301C868990E027
:10069000FC01EE0FFF1FEE0FFF1FEE0FFF1FE80F15
:1006A000F91FEC5BF34E8081823008F44DCFDD24DE
:1006B000D3944ACFE0917A1CF0917B1C0580F6819F
:1006C000E02D0680F781E02D828193819093880947
:1006D0008093870980CF9093880980938709D2CF30
:1006E00011241FBECFEFD1E2DEBFCDBF00E00CBFB3
:1006F00019E0A0E0B2E0ECE4F0EB00E00BBF02C0D8
:1007000007900D92A63DB107D9F71BBE1DE1A6EDDE
:10071000B9E001C01D92AA3DB107E1F70E943B0F6D
:100720000C9424580C9400008F938FB78F93F894F7
:100730008091D61D8F5F8093D61D8091D71D8F4FDE
:100740008093D71D8091D81D8F4F8093D81D8091A5
:10075000D91D8F4F8093D91D8F918FBF8F91089591
:10076000A1E1B0E0E6EBF3E00C94E7573C017F87B2
:100770006E876A01FC0117821682838181FD03C0A6
:100780006FEF7FEF71C39E012F5F3F4F398B288B37
:10079000F3012381EE85FF8523FD859123FF819160
:1007A000FF87EE87882309F45CC3853251F4EE8518
:1007B000FF8523FD859123FF8191FF87EE87853299
:1007C00029F490E0B3010E949008E2CF982F10E046
:1007D000882499241032B0F49B3269F09C3228F4BA
:1007E000903251F0933271F40BC09D3239F0903356
:1007F00049F4116028C01260146025C0186023C03D
:10080000106121C017FD2AC0892F80538A3078F4E7
:1008100016FF06C0FAE09F9E902C1124980E13C07C
:100820003AE0839E802C1124880E10620CC09E3208
:1008300021F416FD16C3106406C09C3611F410682E
:1008400002C0983659F4EE85FF8523FD959123FF6C
:100850009191FF87EE87992309F0BCCF892F8554AA
:10086000833020F4812F8061905E07C0892F8556E8
:10087000833008F0A1C1812F8F7E86FD02C076E013
:10088000972E6FE3F62EF822953619F4F0E4FF2A3E
:1008900007C0963619F420E8F22A02C091109A9403
:1008A000F7FE0BC03BE3391520F427E05CE3B52EDF
:1008B0000EC0B92CB39427E00AC047E0491528F4CC
:1008C00027E0BB2447E0942E02C0292DBB24C6019B
:1008D00004969D878C87F601608171818281938166
:1008E000AE014F5F5F4F0B2D0E9439076C010981EC
:1008F000202E332400FF04C003FD02C01DE209C006
:10090000F1FE02C01BE205C0F2FC02C010E001C013
:1009100010E2C1018C709070892BB9F1112311F490
:1009200083E001C084E0881510F088240AC0881A8A
:10093000F3FC07C080E290E0B3010E9490088A9423
:10094000C9F7112329F0812F90E0B3010E9490088C
:1009500023FE03C006EF12E00EC00AEF12E00BC048
:10096000E114F10409F0805290E0B3010E94900874
:100970000F5F1F4F05C0EF2CFF24F0E1EF22FF2493
:10098000F8018491882361F714C1F7FE12C0BC0CF2
:1009900024FE04C08A81813309F4BA941B141CF02C
:1009A000BB24B3942DC0F8E0FB1550F538E0B32E0E
:1009B00027C0F6FC25C0892D90E08C159D054CF0D4
:1009C0002CEFC2162FEFD20624F030E8F32A01C034
:1009D0009A94992049F0E2E0F0E0EC0FFD1FE90D58
:1009E000F11D80818033A1F3F7FE0AC0B92CB394C6
:1009F000892D90E0C816D90614F0992401C09C18DE
:100A0000F7FC03C025E030E009C01C141D041CF0F5
:100A100021E030E003C096012F5F3F4F112311F01A
:100A20002F5F3F4F992029F0892D90E00196280FE4
:100A3000391F882D90E02817390714F0882401C049
:100A4000821A4F2C5524C20189709070892B39F07D
:100A500008C080E290E0B3010E9490088A94882048
:100A6000C1F7112329F0812F90E0B3010E94900873
:100A700043FE07C008C080E390E0B3010E949008E5
:100A80008A948820C1F7F7FE46C08601D7FE02C0CF
:100A900000E010E076010894E11CF11CE01AF10A74
:100AA00041E050E04C0F5D1FE40EF51E26014B188F
:100AB0005108892D90E0AA24BB24A81AB90A5FEF37
:100AC0000F3F150729F48EE290E0B3010E949008D1
:100AD000C016D10634F0401651061CF4F70180818F
:100AE00001C080E3015010400894E11CF11C0A157C
:100AF0001B052CF090E0B3010E949008E0CF0C158C
:100B00001D0539F49A81963318F4953311F424FEB7
:100B100081E390E04BC08A81813309F00F7E90E041
:100B2000B3010E9490089920A1F08EE290E0B301F9
:100B30000E94900812E0E1E0F0E0EC0FFD1FE10FF1
:100B4000F11D1F5F808190E0B3010E9490089A948C
:100B500091F744FC03C085E690E002C085E490E094
:100B6000B3010E949008D7FC05C0C114D10441F420
:100B700004FF06C0D094C194D108D3948DE201C083
:100B80008BE290E0B3010E94900880E305C08F5F84
:100B900026EF3FEFC20ED31E3AE0C316D104BCF7D6
:100BA00090E0B3010E949008C601C096B3010E9474
:100BB0009008CC84DD8452C1933631F0933799F09C
:100BC000933509F059C023C0F601808189835E0105
:100BD0000894A11CB11C22E030E0C20ED31E21E01B
:100BE000E22EF12C12C0F601A080B18016FD03C0E8
:100BF0006FEF7FEF02C0692D70E022E030E0C20E9F
:100C0000D31EC5010E946B087C011F7713C0F6013B
:100C1000A080B18016FD03C06FEF7FEF02C0692D89
:100C200070E022E030E0C20ED31EC5010E94110820
:100C30007C01106813FF07C01BC080E290E0B30185
:100C40000E9490088A94882D90E0E816F906A8F38F
:100C50000FC0F50117FD859117FF81915F0190E0AD
:100C6000B3010E94900881108A940894E108F10869
:100C7000E114F10471F7F2C0943611F0993689F558
:100C800017FF08C0F601208131814281538184E041
:100C900090E00AC0F601808191819C01442737FDD4
:100CA0004095542F82E090E0C80ED91E9FE6F92EA1
:100CB000F12257FF09C050954095309521953F4F3F
:100CC0004F4F5F4F90E8F92ACA01B901AE014F5F5B
:100CD0005F4F2AE030E00E943409E82EE889EE1ADE
:100CE00041C0953721F41F7E2AE030E01CC0197FF7
:100CF0009F3661F0903720F4983509F0B2C00FC0EC
:100D0000903739F0983709F0ACC004C028E030E0E3
:100D10000AC0106114FD146020E130E004C014FD2D
:100D2000166020E132E017FF08C0F6016081718192
:100D30008281938144E050E008C0F6018081918176
:100D4000BC0180E090E042E050E0C40ED51EAE0150
:100D50004F5F5F4F0E943409E82E5889E51A8FE7EC
:100D6000F82EF122F6FE0BC08EEFF822E91438F4CB
:100D7000F4FE07C0F2FC05C09FEEF92202C01E2D52
:100D800001C0192DF4FE0DC0FE01EE0DF11D808194
:100D9000803319F4E9EEFE2208C01F5FF2FE05C0A1
:100DA00003C08F2D867809F01F5F0F2DF3FC14C050
:100DB000F0FE0FC0181510F09E2C0BC09E2C980C46
:100DC000911A182D06C080E290E0B3010E949008AD
:100DD0001F5F1815C0F304C0181510F4811A01C064
:100DE000882404FF0FC080E390E0B3010E949008C4
:100DF00002FF1DC001FD03C088E790E00EC088E53A
:100E000090E00BC0802F867891F001FF02C08BE24A
:100E100001C080E2F7FC8DE290E0B3010E949008EF
:100E200006C080E390E0B3010E9490089A94E91410
:100E3000C0F3EA94E1E0F0E0EC0FFD1FEE0DF11DD0
:100E4000808190E0B3010E949008EE2091F706C0E7
:100E500080E290E0B3010E9490088A948820C1F754
:100E600097CCF30166817781CB016196E2E10C9426
:100E70000358283008F027E03327DA01990F311D95
:100E800087FD916000966105710539F432602E5F2F
:100E90003D9330E32A95E1F708959F3F30F0803885
:100EA0007105610509F03C5F3C5F3D93913008F0AE
:100EB0008068911DDF93CF931F930F93FF92EF9262
:100EC000192F987F9695E92F96959695E90FFF270C
:100ED000E85AFC4F99273327EE24FF24A701E701A6
:100EE00005900894079428F4360FE71EF81E491F52
:100EF000511D660F771F881F991F0694A1F7059053
:100F0000079428F4E70EF81E491F561FC11D770FDE
:100F1000881F991F661F0694A1F70590079428F46F
:100F2000F80E491F561FC71FD11D880F991F661F36
:100F3000771F0694A1F70590079420F4490F561FD8
:100F4000C71FD81F990F661F771F881F0694A9F720
:100F500084911095177041F0D695C7955795479590
:100F6000F794E7941A95C1F7EEEFF2E068941590C4
:100F7000159135916591959105907FE27395E118F2
:100F8000F10A430B560BC90BD009C0F7E10CF11E57
:100F9000431F561FC91FD01D7EF4703311F48A956C
:100FA000E6CFE894015030F0080F0AF4002702174A
:100FB00008F4202F2395022F7A3328F079E37D93CC
:100FC0002A95E9F710C07D932A9589F6069497959E
:100FD0006795379517951794E118F10A430B560B4F
:100FE000C90BD00998F023957E9173957A3308F058
:100FF00070E37C932013B8F77E9170617D9330F09D
:10100000839571E37D9370E32A95E1F71124EF90C6
:10101000FF900F911F91CF91DF91992787FD9095B8
:101020000895FC010590615070400110D8F780953B
:1010300090958E0F9F1F0895FB01DC0102C0019067
:101040000D9241505040D8F70895DC0101C06D93D6
:1010500041505040E0F70895FB01DC010D90002065
:10106000E9F7119701900D920020E1F70895FB0137
:10107000DC0101900D920020E1F70895FB01DC01F5
:101080000D900020E9F711974150504028F0019051
:1010900000200D92C9F708951C920895FB01DC0110
:1010A0004150504030F08D910190801919F400208A
:1010B000B9F7881B990B0895FB01DC0141505040A2
:1010C00048F001900D920020C9F701C01D924150D7
:1010D0005040E0F70895FC0161507040019001100C
:1010E000D8F7809590958E0F9F1F0895FB01519121
:1010F0005523A9F0BF01DC014D9145174111E1F7DE
:1011000059F4CD010190002049F04D914015411155
:10111000C9F3FB014111EFCF81E090E00197089501
:101120000F931F93CF93DF938C01EB018B8181FF92
:101130001BC082FF0DC02E813F818C819D812817AD
:10114000390764F4E881F9810193F983E88306C0E3
:10115000E885F985802F1995892B31F48E819F813F
:1011600001969F838E8302C00FEF1FEFC801DF91AE
:10117000CF911F910F910895AEE0B0E0E2ECF8E05E
:101180000C94F5570E891F8986E08C831A83098396
:101190008FEF9FE79E838D839E01265E3F4FCE019A
:1011A0000196688D798DA9010E94B0032F81388541
:1011B000020F131FF80110822E96E4E00C941158D0
:1011C000AEE0B0E0E6EEF8E00C94F5578C0177FF66
:1011D00002C060E070E8615070407E836D831A83C6
:1011E000098386E08C83CE010196BA01A9010E9491
:1011F000B0032D813E8137FD09C0EF81F8852E17A0
:101200003F070CF4F901E00FF11F10822E96E4E085
:101210000C941158AEE0B0E0E0E1F9E00C94F55721
:101220008C0177FF02C060E070E8615070407E83FF
:101230006D831A8309838EE08C83CE010196BA01F7
:10124000A9010E94B0032D813E8137FD09C0EF81C5
:10125000F8852E173F070CF4F901E00FF11F1082FB
:101260002E96E4E00C941158FA01AA27283051F187
:10127000203181F1E8946F936E7F6E5F7F4F8F4FC7
:101280009F4FAF4FB1E03ED0B4E03CD0670F781F26
:10129000891F9A1FA11D680F791F8A1F911DA11D0B
:1012A0006A0F711D811D911DA11D20D009F4689444
:1012B0003F912AE0269F11243019305D3193DEF6EC
:1012C000CF010895462F4770405D4193B3E00FD0A2
:1012D000C9F7F6CF462F4F70405D4A3318F0495D8D
:1012E00031FD4052419302D0A9F7EACFB4E0A69570
:1012F0009795879577956795BA95C9F70097610592
:10130000710508959B01AC010A2E069457954795E7
:1013100037952795BA95C9F7620F731F841F951FDC
:10132000A01D089583E090E090939C1C80939B1CEB
:1013300090939A1C8093991C10929F1C0895809101
:101340009F1C8823C1F082E090E00E9418109C014D
:1013500020553A408C5E9940893C9105A0F01216C8
:10136000130694F482E090E04DEC5CEC6CEC7DE3D1
:101370000E942414089584E090E040E050E060E88A
:101380007FE30E942414089583E090E04DEC5CEC30
:101390006CEC7DE30E94241408950F931F93CF9368
:1013A000DF930E947315EC010E9484158C010E944A
:1013B0008F15BC010C171D071CF008171907F4F551
:1013C0006C177D07F4F0CB01BE010E94B257660F87
:1013D000771F660F771FCB01880F991F880F991F02
:1013E000680F791F83E090E00E94D31383E090E0C0
:1013F00090939A1C8093991CDF91CF911F910F912C
:101400000895CE010E94B257660F771F660F771FAF
:10141000CB01880F991F880F991F680F791F82E0F1
:1014200090E00E94D31382E090E090939A1C809306
:10143000991CDF91CF911F910F91089584E090E066
:1014400060E070E00E94D313DF91CF911F910F9164
:1014500008950E9473154F971CF021E0822F089584
:101460000E948F1520E04F97C4F7822F08950E94A5
:10147000290A882339F510929F1C82E090E00E948F
:10148000181024E0813B920798F482E090E090935A
:101490009A1C8093991C8091991C90919A1C90930E
:1014A0009C1C80939B1C62E370E00E94D313089500
:1014B0008C55924180F383E090E090939A1C809346
:1014C000991CE9CF0E94CD0981E080939F1C08956B
:1014D000089508958091A01C9091A11C009761F03F
:1014E00081309105A9F00297029760F081E061E0F8
:1014F00041E00E94F10C089580E061E040E00E942C
:10150000F10C089580E060E041E00E94F10C089544
:1015100081E060E040E00E94F10C0895A0E2B0E0BC
:10152000E4E9FAE00C94EF578091A31C882309F0BA
:1015300082C00E94A01519821A821B821C828CE034
:10154000FE013596DF01282F1D922A95E9F7198AA9
:101550001A8A1B8A1C8AFE017596DF011D928A95E4
:10156000E9F70E9407137B018C010E9420132DB71D
:101570003EB72C5030400FB6F8943EBF0FBE2DBF83
:10158000EDB7FEB7319621E1A22EB12CAC0EBD1EF7
:10159000ADB7BEB71296BC92AE92119720E032E082
:1015A00033832283E482F582068317836087718701
:1015B000828793870E94BC082DB73EB7245F3F4FB8
:1015C0000FB6F8943EBF0FBE2DBF0E946F156C0181
:1015D0000E9473157C010E948F15ADB7BEB71A9794
:1015E0000FB6F894BEBF0FBEADBFEDB7FEB73196D4
:1015F0008E010F5F1F4F12961C930E93119720E1DF
:1016000032E033832283D582C482F782E6829187D7
:1016100080870E94BC082DB73EB7265F3F4F0FB6AC
:10162000F8943EBF0FBE2DBFC801B5010E94A60CA5
:1016300081E08093A31CA096EAE00C940B58809163
:10164000A61C811108950E94921381E08093A61C2C
:1016500008950E941F0B0E948E0A0E946A0AF9CF09
:1016600084E690E00E940A16882309F581E090E064
:101670000E940A16882311F01092A61C82E090E0C6
:101680000E940A16882311F01092A21C8CE090E0B0
:101690000E940A16882311F01092A31C82E090E0A9
:1016A0000E940A16882311F01092A71C08950E9428
:1016B000FE2E0E94141F8091A01C9091A11C8430CA
:1016C0009105A1F201969093A11C8093A01CCECF0E
:1016D0000E94300B08950E94E20C0E94E2150E94C5
:1016E000C70C0E94381588E69BE00E94E6150E9410
:1016F00092091092A11C1092A01C1092A61C10928C
:10170000A31C1092A71C1092A21C83E090E090935F
:10171000A51C8093A41C85E090E060E070E00E942E
:10172000D3130895789484B5826084BD84B58160B4
:1017300084BD85B5826085BD85B5816085BDEEE6D9
:10174000F0E08081816080831092DE09EAEDF9E0AB
:1017500010821182128213821292129212921292AB
:1017600008959FB7F8942091D6093091D7094091F8
:10177000D8095091D90986B5A89B06C08F3F21F0A2
:101780002F5F3F4F4F4F5F4F9FBF542F432F322F3D
:101790002227280F311D411D511D220F331F441FC9
:1017A000551F220F331F441F551FB901CA01089549
:1017B0008FB7F8942091DA093091DB094091DC0968
:1017C0005091DD098FBFB901CA010895EF92FF92D0
:1017D0000F931F937B018C012FB7F8948091D6094A
:1017E0009091D709A091D809B091D90936B5A89B95
:1017F00005C03F3F19F00196A11DB11D2FBFE11497
:10180000F1040105110509F446C0BA2FA92F982F3C
:101810008827830F911DA11DB11D880F991FAA1F35
:10182000BB1F880F991FAA1FBB1FAC013FB7F894BD
:101830008091D6099091D709A091D809B091D90982
:1018400026B5A89B05C02F3F19F00196A11DB11D1B
:101850003FBFBA2FA92F982F8827820F911DA11D56
:10186000B11D880F991FAA1FBB1F880F991FAA1FA0
:10187000BB1F841B950B885E9340C0F20894E1085F
:10188000F10801091109E114F1040105110519F02C
:1018900048515C4FCBCF1F910F91FF90EF9008956F
:1018A0001F920F920FB60F9211242F933F938F9395
:1018B0009F93AF93BF938091DA099091DB09A09138
:1018C000DC09B091DD093091DE090196A11DB11D41
:1018D000232F2D5F2D3720F02D570196A11DB11D0F
:1018E0002093DE098093DA099093DB09A093DC0949
:1018F000B093DD098091D6099091D709A091D809BC
:10190000B091D9090196A11DB11D8093D60990937C
:10191000D709A093D809B093D909BF91AF919F91EE
:101920008F913F912F910F900FBE0F901F901895A0
:101930001F93182F81E090E06EEF0E945B1681E00C
:1019400090E0612F0E945B161F910895EF92FF9225
:101950000F931F938C017B0181E090E00E94980C13
:1019600080E890E00E94980C81E090E0B8010E942D
:10197000CD1B80EC90E00E94980C81E090E0B701D4
:101980000E94CD1B1F910F91FF90EF9008950F9330
:101990001F9381E090E040E855E260E070E02FEFB7
:1019A00030E000E410E00E94771D539A5B9A8CE0CF
:1019B00090E00E94980C81E090E00E94980C1F91AA
:1019C0000F910895E1E0F1E08081886080836B9A57
:1019D0006D9AE2E0F1E0808188608083739A759A65
:1019E0000895882361F080910201877F809302012E
:1019F000662361F07398442361F4759A0895809189
:101A000002018860809302016623A1F7739A442340
:101A1000A1F375980895FFCF0E94013C14C0813056
:101A2000910561F18230910591F10397F1F084E025
:101A300090E040E050E060E070E00E94241489E112
:101A400090E00E94C94E809102099091030985306F
:101A50009105A9F3009719F780E090E040E050E08D
:101A600060E87FE30E942414EACF82E090E040E047
:101A700050E060E87FE30E942414E1CF81E090E031
:101A800040E050E060E87FE30E942414D8CF83E078
:101A900090E040E050E060E87FE30E942414CFCF64
:101AA000A0E0B0E0E6E5FDE00C94F1570E94013CB7
:101AB00088EB9BE00E94C94E95E0C92ED12C83E0B3
:101AC000E82EF12C02E010E0C1E0D0E00CC0813340
:101AD000A9F08233C1F08333D9F08433F1F08AEF77
:101AE00090E00E94C94E0E94FE2E0E94141F803377
:101AF00071F71092030910920209F1CFD0930309F4
:101B0000C0930209ECCF1093030900930209E7CFB9
:101B1000F0920309E0920209E2CFD0920309C09249
:101B20000209DDCF0E94013C14C08130910561F1B2
:101B300082309105E9F083309105D1F00497F1F0FE
:101B400080E060E040E00E94F10C89E190E00E94BA
:101B5000C94E80910209909103098530910581F366
:101B6000009719F780E061E040E00E94F10CEDCFB2
:101B700080E060E041E00E94F10CE7CF81E061E0AD
:101B800041E00E94F10CE1CF81E060E040E00E9482
:101B9000F10CDBCF4F925F926F927F928F929F9268
:101BA000AF92BF92DF92EF92FF920F931F93DF935A
:101BB000CF93CDB7DEB7A0970FB6F894DEBF0FBEB8
:101BC000CDBF0E94013C65E0462E512C4C0E5D1E9F
:101BD00055E1652E712C6C0E7D1E7E010894E11C72
:101BE000F11C4FE1842E42E0942E8E010F5E1F4FB8
:101BF0003EE2A32E32E0B32E2CE0D22E19821A82BE
:101C00001B821C82D201ED2D1D92EA95E9F7198AFB
:101C10001A8A1B8A1C8AD301ED2D1D92EA95E9F7D9
:101C20000E94D2159C018DB79EB70E970FB6F894FF
:101C30009EBF0FBE8DBFEDB7FEB73196ADB7BEB735
:101C40001296FC92EE92119793828282D9018C9126
:101C50008483158211968C91119786831782129630
:101C60008C9112978087118613968C911397828797
:101C7000138614968C91848715860E94BC08EDB754
:101C8000FEB73E960FB6F894FEBF0FBEEDBF0E94A2
:101C90006B122DB73EB7285030400FB6F8943EBFB8
:101CA0000FBE2DBFEDB7FEB73196ADB7BEB71296DA
:101CB0001C930E931197B382A282648375838683EB
:101CC00097830E94BC08EDB7FEB738960FB6F8941C
:101CD000FEBF0FBEEDBFC701B8010E94A60C82E394
:101CE00090E00E94C94E8ACF0E94013C0E9492134C
:101CF00085E090E00E94C94EF9CF0E94013C60E06F
:101D000070E885EA93E40E94CC1282E390E00E949E
:101D1000C94EF5CF0E94013C0E94A0158AE090E0D8
:101D20000E94C94EF9CF0E94013C85E090E060E03E
:101D300070E00E94D3130AC086E090E062E370E096
:101D40000E94D3138AE090E00E94C94E809102095C
:101D500090910309059781F70E94370AF3CF0F93FB
:101D60001F93789480E090E040E052EC61E070E0F6
:101D70002FEF30E000E410E00E94771D82E090E059
:101D800040E855E260E070E02FEF30E00E94771D00
:101D90001F910F9108950E94AF0E0E94E20C0E94C5
:101DA000E2150E94C70C0E9438150E94920B0E94F7
:101DB0005C120E94920908958F929F92AF92BF92F7
:101DC000CF92DF92EF92FF920F9375E3872E72E02E
:101DD000972E83E99EE0B40148E750E020E030E030
:101DE00003E0EE24FF24CC24DD24AA24BB240E949B
:101DF0005C528AE89EE0B40148E750E020E030E021
:101E00000E945C5284E79EE0B40140E850E020E08C
:101E100030E00E945C528AEC9DE0B40140E051E069
:101E200020E030E00E945C5282E99DE0B40140E88D
:101E300050E020E030E00E945C528CE09DE0B40174
:101E400040E850E020E030E001E00E945C528DE785
:101E50009EE0B40148E750E020E030E003E00E945B
:101E60005C520F91FF90EF90DF90CF90BF90AF90BA
:101E70009F908F90089583EE92E00E94C51B0E9470
:101E8000CB0E0E94DC0E0E9461538AEB92E00E940E
:101E9000C51B80E090E008959C01DC01AA0FBB1FE8
:101EA000AC01440F551F440F551F440F551FFD0132
:101EB000E40FF51FE954F64F0190F081E02D808189
:101EC00091818C54944085579E4020F080E59AE0A3
:101ED00091838083F901EE0FFF1FEE0FFF1FE20FCA
:101EE000F31FEE0FFF1FE754F64F0190F081E02D36
:101EF000A40FB51FA954B64F14964D915C91159738
:101F0000208181E090E016960C90169702C0880F11
:101F1000991F0A94E2F7282B2083FA0120818095EB
:101F2000822380831896ED91FC9119970084F185A6
:101F3000E02D20811796AC91A13069F0A13030F4EA
:101F400080E89FEB822B892380830895A230E9F7F4
:101F500088E09BEFF7CF80E29FEEF4CFCF93DF9343
:101F6000FC01EE0FFF1FEE0FFF1FE80FF91FEE0F32
:101F7000FF1FE754F64F40815181DC01AA0FBB1FC0
:101F8000AA0FBB1FAA0FBB1F880F991FA80FB91F4D
:101F9000A954B64F1496ED91FC911597EA0128814A
:101FA00081E090E016960C90169702C0880F991F5A
:101FB0000A94E2F7282B288320818095822380834E
:101FC0001896ED91FC9119970084F185E02D908190
:101FD00017968C91813069F0813030F48FE389233A
:101FE0008083DF91CF910895823029F0DF91CF91E6
:101FF00008958FECF4CF83EFF2CF9C01CB018C548A
:10200000944085579E4098F4C901F901EE0FFF1FD7
:10201000EE0FFF1FEE0FFF1F880F991FE80FF91F2C
:10202000E954F64F0190F081E02D718360830895AB
:102030009C01FC01EE0FFF1FEE0FFF1FEE0FFF1FB5
:10204000220F331FE20FF31FE954F64F0190F08186
:10205000E02D20813181C9010895CF93DF93DC0108
:10206000EB01F894FC01EE0FFF1FED50F64F80815D
:102070009181019739F020E030E07894C901DF9137
:10208000CF910895AA0FBB1FAA0FBB1FA551B64F32
:102090008D919D910D90BC91A02D88839983AA83E9
:1020A000BB831182108221E030E07894C901DF9176
:1020B000CF9108951F920F920FB60F9211248F9314
:1020C0009F93AF93BF938091DF099091E009A09116
:1020D000E109B091E2090196A11DB11D8093DF09CC
:1020E0009093E009A093E109B093E209BF91AF9109
:1020F0009F918F910F900FBE0F901F9018951F9278
:102100000F920FB60F9211248F939F93AF93BF93AB
:102110008091E3099091E409A091E509B091E60965
:102120000196A11DB11D8093E3099093E409A0934A
:10213000E509B093E609BF91AF919F918F910F9000
:102140000FBE0F901F9018951F920F920FB60F920F
:102150000BB60F921124EF92FF920F931F932F93C0
:102160003F934F935F936F937F938F939F93AF931F
:10217000BF93CF93DF93EF93FF93E0919709F09193
:102180009809808180628083E0919D09F0919E0989
:10219000C081D1812091DF093091E0094091E109AE
:1021A0005091E2091092DF091092E0091092E109C2
:1021B0001092E209211531054105510509F444C089
:1021C0008091E7099091E8097E0100E010E0A0E02D
:1021D000B0E0E81AF90A0A0B1B0BCA01B9012FE398
:1021E0003CE940E050E00E947F57E60EF71E081FD2
:1021F000191FE092EB09F092EC090093ED0910939E
:10220000EE0981E090E09093F4098093F309D09374
:10221000E809C093E709FF91EF91DF91CF91BF915A
:10222000AF919F918F917F916F915F914F913F916E
:102230002F911F910F91FF90EF900F900BBE0F9079
:102240000FBE0F901F9018958091E7099091E809B3
:102250009E01281B390B790100E010E0CACF1F92C4
:102260000F920FB60F920BB60F921124EF92FF92BE
:102270000F931F932F933F934F935F936F937F938E
:102280008F939F93AF93BF93CF93DF93EF93FF937E
:10229000A0919509B0919609ED91FC9111978081DB
:1022A000806280831696ED91FC911797C081D18151
:1022B0002091E3093091E4094091E5095091E60944
:1022C0001092E3091092E4091092E5091092E609D0
:1022D000211531054105510509F444C08091E909F2
:1022E0009091EA097E0100E010E0A0E0B0E0E81A79
:1022F000F90A0A0B1B0BCA01B9012FE33CE940E0C4
:1023000050E00E947F57E60EF71E081F191FE0924B
:10231000EF09F092F0090093F1091093F20981E0BE
:1023200090E09093F6098093F509D093EA09C09361
:10233000E909FF91EF91DF91CF91BF91AF919F910B
:102340008F917F916F915F914F913F912F911F914D
:102350000F91FF90EF900F900BBE0F900FBE0F905C
:102360001F9018958091E9099091EA099E01281B18
:10237000390B790100E010E0CACF8091A0008F7383
:102380008093A0008091A0008F7C8093A00080911A
:10239000A000837F8093A0008091A0009091A10075
:1023A000836098618093A0009093A1008091A10028
:1023B00082608A7F8093A1002EE33CE93093A900DC
:1023C0002093A800809120018F7380932001809139
:1023D00020018F7C8093200180912001837F809356
:1023E0002001809120019091210183609861809368
:1023F0002001909321018091210182608A7F809346
:10240000210130932901209328011092E8091092AC
:10241000E7091092DF091092E0091092E109109289
:10242000E20980910A018E7F80930A0180910B015D
:102430008E7F80930B01E0919909F0919A09808138
:1024400080628083808181608083E091A109F09126
:10245000A2098081806480831092EA091092E909C0
:102460001092E3091092E4091092E5091092E6092E
:1024700080910A018D7F80930A0180910B018D7FED
:1024800080930B01A0919509B09196091296ED9158
:10249000FC9113978081806280831296ED91FC916C
:1024A00013978081816080831A96ED91FC911B9730
:1024B000808180648083089580E090E0A0E0B0E0B7
:1024C0008093A81C9093A91CA093AA1CB093AB1C4A
:1024D000089A109808952091A81C3091A91C409149
:1024E000AA1C5091AB1CB901CA0108958AE08A95D3
:1024F000F1F7109A8AE18A95F1F710980895EF9212
:10250000FF920F931F9308980E94B10B80E090E018
:10251000A0E0B0E03AE10EC0232F2A95F1F7019632
:10252000A11DB11D81342DE0920723E0A20720E018
:10253000B207A9F0009BF0CF0E94B10B7B018C0188
:102540000099FECF0E94B10B6E197F09800B910B91
:102550000E9466561F910F91FF90EF90089560E0E2
:1025600070E080E89FEB1F910F91FF90EF9008952E
:10257000089A10988AE08A95F1F7109A8AE18A956C
:10258000F1F7109860E27EE480E090E00E947F1214
:102590000E943556CB0108950E94B8126AE370E09C
:1025A0000E94B257882777FD8095982F0E94685621
:1025B0006093A81C7093A91C8093AA1C9093AB1CD9
:1025C0000895882391F4CB01BA0120E030E840EC73
:1025D00054EC0E941C5720E030E045E255E40E9494
:1025E00065550E943556CB010895CB01BA0120E014
:1025F00030E047E055E40E941C5720E030E045E21F
:1026000055E40E9465550E943556CB0108956091AE
:10261000BC1C7091BD1C8091BE1C9091BF1C209170
:10262000C01C3091C11C4091C21C5091C31C0E941F
:10263000655520E030E040E05FE30E941C570895BC
:102640006091AC1C7091AD1C8091AE1C9091AF1C40
:102650002091B01C3091B11C4091B21C5091B31C20
:102660000E94655520E030E040E05FE30E941C5787
:102670000895CF92DF92EF92FF920F931F938C01F8
:10268000F42EE52ED62EC72E60E070E00E942D10AD
:10269000019769F12F2D3E2D4D2D5C2DC901DA01D9
:1026A0006C017D01000F111F000F111F0455134E07
:1026B000C701B60120E030E048EC52E40E94CD555D
:1026C0009B01AC01F80160817181828193810E943C
:1026D0006555F8016083718382839383B601C701D6
:1026E0001F910F91FF90EF90DF90CF900895609130
:1026F00000007091010080910200909103000E94FF
:1027000066562DEB37E346E055E30E941C579B01CC
:10271000AC016CE772EF80EB9BE30E94CD556B013F
:102720007C01C0CF4091B41C5091B51C6091B61C87
:102730007091B71C80E090E00E9439136093BC1C3C
:102740007093BD1C8093BE1C9093BF1C4091B81C1D
:102750005091B91C6091BA1C7091BB1C81E090E053
:102760000E9439136093C01C7093C11C8093C21CDB
:102770009093C31C2091BC1C3091BD1C4091BE1C89
:102780005091BF1C2093B41C3093B51C4093B61CD1
:102790005093B71C6093B81C7093B91C8093BA1CFB
:1027A0009093BB1C08950F931F93CF93DF93EC017D
:1027B0008B0182E090E00E941810BC01C330D1056B
:1027C00069F0C230D105C9F0C530D10571F1249747
:1027D00019F1DF91CF911F910F910895601B710B3B
:1027E00082E090E00E94FD0F82E090E00E944C0F9A
:1027F000DF91CF911F910F910895600F711F82E0BB
:1028000090E00E94FD0F82E090E00E944C0FDF916B
:10281000CF911F910F91089582E090E00E94AE0F3A
:10282000DF91CF911F910F91089582E090E066E8CB
:102830007BE00E94FD0F82E090E00E944C0FDF9150
:10284000CF911F910F910895A0E0B0E0EAE2F4E18A
:102850000C94EB57EC013A014B01A090B81CB090DE
:10286000B91CC090BA1CD090BB1CE090B41CF09076
:10287000B51C0091B61C1091B71CC601B501A8018A
:1028800097010E94185718160CF05CC0C601B501DC
:1028900020E030E040E050E00E94C955882309F470
:1028A00051C0C801B701A60195010E94CD557B0119
:1028B0008C0160E070E080E89FE3209709F053C04E
:1028C000A40193010E941C5720E030E047E055E44A
:1028D0000E941C5720E030E045E255E40E94655517
:1028E0000E9435569B01AC0180E090E0B9010E9446
:1028F000FD0F80E090E00E944C0FC801B701A401D9
:1029000093010E941C5720E030E840EC54EC0E94F8
:102910001C5720E030E045E255E40E9465550E94D6
:1029200035569B01AC0181E090E0B9010E94FD0F9A
:1029300081E090E00E944C0FCDB7DEB7EEE00C9442
:10294000075896C0C601B501A80197010E94C95554
:102950008823E4F060E070E080E89FE37B018C0175
:10296000209709F4ADCFC130D105A1F1C330D10515
:1029700009F458C0C230D10521F1249709F45BC095
:10298000CDB7DEB7EEE00C94075872C0C801B701AE
:1029900020E030E040E050E00E94C9558823D1F2A9
:1029A000C601B501A80197010E94CD550F2EF0E098
:1029B000EF2EF0E0FF2EF0E80F2FFFE31F2FF02D9A
:1029C000CFCFA40193010E941C5720E030E840ECD7
:1029D00054EC7ECFA40193010E941C5720E030E804
:1029E00040EC54EC0E941C5720E030E045E255E4F6
:1029F0000E9465550E9435569B01AC0180E090E035
:102A0000B9010E94FD0F80E090E00E944C0FC801C8
:102A1000B701A40193010E941C5720E030E047E079
:102A200055E475CFA40193010E941C5720E030E0CB
:102A300047E055E4D7CF81E090E00E94AE0F80E000
:102A400090E00E94AE0F80E090E0A0E0B0E08093C4
:102A5000B81C9093B91CA093BA1CB093BB1C809374
:102A6000B41C9093B51CA093B61CB093B71C88CF30
:102A70000E94BD1180E090E0A0E0B0E08093C01C17
:102A80009093C11CA093C21CB093C31C8093BC1C28
:102A90009093BD1CA093BE1CB093BF1C8093B81C28
:102AA0009093B91CA093BA1CB093BB1C8093B41C28
:102AB0009093B51CA093B61CB093B71C8093AC1C2C
:102AC0009093AD1CA093AE1CB093AF1C8093B01C30
:102AD0009093B11CA093B21CB093B31C0895809145
:102AE000C71C90E008952091CB1C8091C91C90E0F8
:102AF000820F911D2091CD1C820F911D63E070E02B
:102B00000E94B257CB0108958091D11C2091CF1C17
:102B100030E0280F311D35952795C9010895209182
:102B2000D51C8091D31C90E0820F911D2091D71C61
:102B3000820F911D63E070E00E94B257CB010895AF
:102B4000A4E0B0E0E6EAF5E10C94ED5704EC1CE1FA
:102B5000FF245E010894A11CB11C33E0C32ED12CCC
:102B6000CC0EDD1E20ED822E91ED992EEE24E39405
:102B70008982FA829B82EC82C50162E00E94D03297
:102B8000C60162E00E94D032C80162E00E941B339D
:102B9000F3940E5F1F4F8AE0F81651F72496ECE08D
:102BA0000C9409580E94A015E9ECFCE1A7EFB9E0EC
:102BB00080818D9332968CE1E93DF807C9F787EF64
:102BC00099E0089580EC0E94243408951092D91C55
:102BD0001092D81C9093DB1C8093DA1CA1E7B0E024
:102BE0008C918E7F8C9310929000E1E9F0E010823E
:102BF0008FE89DEF9093950080939400808184608E
:102C000080838C9181608C9308958091D81C9091E1
:102C1000D91C0895BC012091D81C3091D91CC90140
:102C20000E94B257892B11F080E0089580E0232B99
:102C300009F4089581E008951F920F920FB60F9244
:102C40000BB60F9211242F933F934F935F936F9383
:102C50007F938F939F93AF93BF93EF93FF93809155
:102C6000D81C9091D91C01969093D91C8093D81CA4
:102C70008FE89DEF9093950080939400E091DA1C8B
:102C8000F091DB1C1995FF91EF91BF91AF919F914E
:102C90008F917F916F915F914F913F912F910F9005
:102CA0000BBE0F900FBE0F901F9018959093000AC7
:102CB0008093FF0908959C01FC01EE0FFF1FEE0FAA
:102CC000FF1FE80FF91FEE0FFF1FEA5FF64F01909D
:102CD000F081E02D808185FD07C095E8892F8A95D8
:102CE000F1F7808185FFFACFF901EE0FFF1FEE0F9C
:102CF000FF1FEE0FFF1F220F331FE20FF31FEC5FCA
:102D0000F64F0190F081E02D60830895AC01FC0145
:102D1000EE0FFF1FEE0FFF1FE80FF91FEE0FFF1F53
:102D2000EA5FF64F0190F081E02D808187FD07C0BA
:102D300025E8822F8A95F1F7808187FFFACF80817D
:102D40008C7191F4FA01EE0FFF1FEE0FFF1FEE0FD3
:102D5000FF1F440F551FE40FF51FEC5FF64F019066
:102D6000F081E02D808108958FEF08959C01FC0192
:102D7000EE0FFF1FEE0FFF1FE80FF91FEE0FFF1FF3
:102D8000EA5FF64FA081B1818C918823CCF5A9012F
:102D9000440F551FF901EE0FFF1FEE0FFF1FEE0F3F
:102DA000FF1FE40FF51FEC5FF64F0190F081E02D5F
:102DB00080818C9187FDFCCF0FB6F8940F92CA01E9
:102DC000820F931FFC01EE0FFF1FEE0FFF1FE80F96
:102DD000F91FEE0FFF1FDF01A452B34E11961C9294
:102DE0001E92E252F34E16968D919C911797918305
:102DF000808315969C938E9314970F900FBE089521
:102E0000A901440F551FD8CF0FB6F8940F92FC01BB
:102E1000EE0FFF1FE80FF91FCF01880F991F880FD2
:102E2000991FE80FF91FEE0FFF1FE452F34E2081A8
:102E300031810F900FBEC9010895CF93DF939C019C
:102E4000DB010FB6F8940F92AC01440F551FFA0145
:102E5000E80FF91FCF01880F991F880F991FE80FFE
:102E6000F91FEE0FFF1FE452F34E808191810F9006
:102E70000FBE892B41F1CA01820F931F9C01220FC3
:102E8000331F220F331F820F931F880F991F845205
:102E9000934EEC01EC81FD8121910FB6F8940F92D5
:102EA000FD83EC8388859985E817F90781F088818F
:102EB00099810197998388830F900FBE2C9381E0AD
:102EC000DF91CF91089580E0DF91CF9108958E81B9
:102ED0009F819D838C83EBCFCF93DF93DC010FB673
:102EE000F8940F92FC01EE0FFF1FE80FF91FCF01BE
:102EF000880F991F880F991FE80FF91FEE0FFF1F0A
:102F0000E452F34EC485D5850F900FBEAD01440F3A
:102F1000551FCA018A0F9B1F9C01220F331F220FCE
:102F2000331F280F391F220F331FF901E452F34ECC
:102F300086899789C817D90791F1C9018851934E9D
:102F4000EC01EA81FB8160830FB6F8940F928A81CD
:102F50009B8101969B838A832885398582179307F5
:102F600009F44EC0888199810196998388830F90D6
:102F70000FBE91E0AA0FBB1FAA0FBB1FAA0FBB1F5A
:102F8000A40FB51FAC5FB64F1496ED91FC91159749
:102F9000808180628083892FDF91CF91089585E8B9
:102FA000982F9A95F1F7982F9A95F1F7982F9A956F
:102FB000F1F78A95F1F70FB6F8940F92FA01EA0F3C
:102FC000FB1FCF01880F991F880F991FE80FF91F6A
:102FD000EE0FFF1FE452F34E848595850F900FBED0
:102FE000C817D90791F0CA018A0F9B1F9C01220FB5
:102FF000331F220F331F820F931F880F991F9ECFFD
:103000008E819F819B838A83ADCF90E0B3CFFC01FB
:10301000EE0FFF1FEE0FFF1FE80FF91FEE0FFF1F50
:10302000EA5FF64F0190F081E02D8081807808956D
:10303000FC01EE0FFF1FEE0FFF1FE80FF91FEE0F51
:10304000FF1FEA5FF64F0190F081E02D80818072D2
:1030500008959C01FC01EE0FFF1FEE0FFF1FEE0F06
:10306000FF1F220F331FE20FF31FEC5FF64F0480A8
:10307000F581E02D80818062808308959C01FC01B0
:10308000EE0FFF1FEE0FFF1FEE0FFF1F220F331F6C
:10309000E20FF31FEC5FF64F0480F581E02D808195
:1030A0008F7D80830895CF93DF93AC01FC01EE0FF9
:1030B000FF1FEE0FFF1FE80FF91FEE0FFF1FEA5F64
:1030C000F64F0190F081E02D80818C7109F056C09F
:1030D000FA01EE0FFF1FCA01880F991F880F991F71
:1030E000880F991FE80FF91FEC5FF64F0190F081F0
:1030F000E02D60810FB6F8940F92FA01EE0FFF1FDA
:10310000E40FF51FCF01880F991F880F991FE80F53
:10311000F91FEE0FFF1FE452F34E208131810F9013
:103120000FBECA01880F991F840F951FFC01EE0F77
:10313000FF1FEE0FFF1FE80FF91FEE0FFF1FE452F6
:10314000F34E8285938528173907C1F0EF01EA8194
:10315000FB8160830FB6F8940F928A819B81019660
:103160009B838A83288539858217930751F088814C
:1031700099810196998388830F900FBEDF91CF913B
:1031800008958E819F819B838A83F1CF1F920F9236
:103190000FB60F920BB60F9211242F933F934F93BC
:1031A0005F936F937F938F939F93AF93BF93EF93AF
:1031B000FF9383E090E00E945318FF91EF91BF913D
:1031C000AF919F918F917F916F915F914F913F91BF
:1031D0002F910F900BBE0F900FBE0F901F90189560
:1031E0001F920F920FB60F920BB60F9211242F93CE
:1031F0003F934F935F936F937F938F939F93AF937F
:10320000BF93EF93FF9382E090E00E945318FF91E9
:10321000EF91BF91AF919F918F917F916F915F914E
:103220004F913F912F910F900BBE0F900FBE0F90BB
:103230001F9018951F920F920FB60F920BB60F9218
:1032400011242F933F934F935F936F937F938F93AB
:103250009F93AF93BF93EF93FF9381E090E00E9421
:103260005318FF91EF91BF91AF919F918F917F91F3
:103270006F915F914F913F912F910F900BBE0F90E7
:103280000FBE0F901F9018951F920F920FB60F92BE
:103290000BB60F9211242F933F934F935F936F932D
:1032A0007F938F939F93AF93BF93EF93FF9380E0B0
:1032B00090E00E945318FF91EF91BF91AF919F91C1
:1032C0008F917F916F915F914F913F912F910F90CF
:1032D0000BBE0F900FBE0F901F901895CF93DF93EA
:1032E000DC010FB6F8940F929C01220F331FF901F5
:1032F000E80FF91FCF01880F991F880F991FE80F5A
:10330000F91FEE0FFF1FE452F34E848595850F9051
:103310000FBE892BA9F1FD01EE0FFF1FEE0FFF1F5E
:10332000EE0FFF1FE20FF31FEC5FF64F408151815C
:10333000C9018A0F9B1F9C01220F331F220F331FCD
:10334000820F931F880F991F8851934EEC01EC81D7
:10335000FD8121910FB6F8940F92FD83EC8388854F
:103360009985E817F90701F1888199810197998377
:1033700088830F900FBEFA012083DF91CF910895CB
:10338000AA0FBB1FAA0FBB1FAA0FBB1FA20FB31F01
:10339000AC5FB64F1496ED91FC91159780818F7DAF
:1033A0008083DF91CF9108958E819F819D838C834F
:1033B000DBCF1F920F920FB60F920BB60F92112414
:1033C0002F933F934F935F936F937F938F939F932D
:1033D000AF93BF93EF93FF9383E090E00E946E1949
:1033E000FF91EF91BF91AF919F918F917F916F91DD
:1033F0005F914F913F912F910F900BBE0F900FBE99
:103400000F901F9018951F920F920FB60F920BB648
:103410000F9211242F933F934F935F936F937F935A
:103420008F939F93AF93BF93EF93FF9382E090E0CE
:103430000E946E19FF91EF91BF91AF919F918F9173
:103440007F916F915F914F913F912F910F900BBEA4
:103450000F900FBE0F901F9018951F920F920FB6EE
:103460000F920BB60F9211242F933F934F935F93BC
:103470006F937F938F939F93AF93BF93EF93FF933C
:1034800081E090E00E946E19FF91EF91BF91AF91A2
:103490009F918F917F916F915F914F913F912F916C
:1034A0000F900BBE0F900FBE0F901F9018951F929C
:1034B0000F920FB60F920BB60F9211242F933F93DA
:1034C0004F935F936F937F938F939F93AF93BF932C
:1034D000EF93FF9380E090E00E946E19FF91EF91CF
:1034E000BF91AF919F918F917F916F915F914F911C
:1034F0003F912F910F900BBE0F900FBE0F901F901A
:103500001895A0E0B0E0E7E8FAE10C94F1576C01FF
:103510007B01DB010D900020E9F78D010150104087
:10352000061B170B71F0C0E0D0E0F701EC0FFD1F98
:103530002196E491C6016E2F0E946C17C017D10727
:10354000A0F3CDB7DEB7E8E00C940D58BC01809134
:10355000FF099091000A0E94811A0895A0E0B0E04E
:10356000E4EBFAE10C94F1576C017B01DB010D9067
:103570000020E9F78D0101501040061B170B79F070
:10358000C0E0D0E0E0E0F0E02196EE0DFF1DC601C6
:1035900060810E946C17FE01C017D107A8F3CDB758
:1035A000DEB7E8E00C940D58A0E0B0E0EAEDFAE1F7
:1035B0000C94EF577C016B015A018C01000F111F15
:1035C000C8018E0D9F1DFC01EE0FFF1FEE0FFF1FA8
:1035D000E80FF91FEE0FFF1FE452F34E9F01245E28
:1035E0003F4F848D958D019739F4E9010E94353262
:1035F000888199810197D1F3C8018E0D9F1D8C019F
:10360000000F111F000F111F080F191F000F111FAE
:103610000452134E81E090E0F801958F848F628D03
:10362000738D808D918DA60195010E940A09F80184
:10363000608D718DC7010E94AE1AF801158E148E2F
:10364000CDB7DEB7EAE00C940B58A0E0B0E0EBE2B7
:10365000FBE10C94EF577C016B015A018C01000FC8
:10366000111FC8018E0D9F1DFC01EE0FFF1FEE0FF5
:10367000FF1FE80FF91FEE0FFF1FE452F34E9F01EB
:10368000245E3F4F848D958D019739F4E9010E94A6
:103690003532888199810197D1F3C8018E0D9F1D24
:1036A0008C01000F111F000F111F080F191F000FB1
:1036B000111F0452134E81E090E0F801958F848F22
:1036C000628D738D808D918DA60195010E94E00819
:1036D000F801608D718DC7010E94AE1AF801158E38
:1036E000148ECDB7DEB7EAE00C940B58BC01809184
:1036F000FF099091000A0E94AE1A08950F931F933C
:10370000CF93DF938B01DB010D900020E9F7BD0122
:1037100061507040601B710B99F120E030E0DC01DA
:10372000AA0FBB1FAA0FBB1FEC01CC0FDD1FCC0FD4
:10373000DD1FCC0FDD1FA80FB91FAA0FBB1FAA5F8B
:10374000B64F45E8880F991FC80FD91FCC5FD64FD9
:10375000F801E20FF31F2F5F3F4F9491ED91FC9121
:103760001197808185FD06C0842F8A95F1F78081AD
:1037700085FFFACFE881F98190832617370740F358
:10378000DF91CF911F910F910895BC018091FF09A6
:103790009091000A0E947E1B08950F931F93CF9370
:1037A000DF938B01DB010D900020E9F7BD01615033
:1037B0007040601B710B99F120E030E0DC01AA0F32
:1037C000BB1FAA0FBB1FEC01CC0FDD1FCC0FDD1FF1
:1037D000CC0FDD1FA80FB91FAA0FBB1FAA5FB64FE2
:1037E00045E8880F991FC80FD91FCC5FD64FF80145
:1037F000E20FF31F90812F5F3F4FED91FC911197E6
:10380000808185FD06C0842F8A95F1F7808185FF30
:10381000FACFE881F98190832617370740F3DF91CB
:10382000CF911F910F9108950F931F93CF93DF9323
:103830008C01FB019A01880F991F800F911FEC01E9
:10384000CC0FDD1FCC0FDD1FC80FD91FCC0FDD1F24
:10385000C452D34E8C8D9D8D019741F495E8892FEC
:103860008A95F1F7892F8A95F1F7F9CF81E090E0F9
:103870009D8F8C8F6A8D7B8D888D998DAF010E9475
:103880000A09688D798DC8010E94CD1B1D8E1C8E82
:10389000DF91CF911F910F910895CF93DF93FB019B
:1038A000DA019C01220F331F280F391FE901CC0FC9
:1038B000DD1FCC0FDD1FC20FD31FCC0FDD1FC45285
:1038C000D34E8C8D9D8D019741F495E8892F8A9573
:1038D000F1F7892F8A95F1F7F9CF81E090E09D8F7C
:1038E0008C8F6A8D7B8D888D998DAF019D010E9493
:1038F000E008688D798D8091FF099091000A0E94FF
:10390000CD1B1D8E1C8EDF91CF910895BC0180913F
:10391000FF099091000A0E94CD1B0895A0E0B0E03D
:10392000E4E9FCE10C94F7579E01265F3F4F8E813E
:103930009F8168857985A9010E94D41A2096E2E0CA
:103940000C941358A0E0B0E0E8EAFCE10C94F757BF
:103950009E01265F3F4F8E819F8168857985A901F1
:103960000E94251B2096E2E00C941358A0E0B0E0E2
:10397000ECEBFCE10C94F757FE01369661917191E6
:103980008091FF099091000AAF010E94D41A2096FD
:10399000E2E00C941358A0E0B0E0E1EDFCE10C94FF
:1039A000F757FE013696619171918091FF099091D0
:1039B000000AAF010E94251B2096E2E00C941358E8
:1039C000A0E0B0E0E6EEFCE10C94F7579E01265F24
:1039D0003F4F8E819F8168857985A9010E94141CC3
:1039E0002096E2E00C941358A0E0B0E0EAEFFCE18E
:1039F0000C94F7579E01265F3F4F8E819F8168850B
:103A00007985A9010E944D1C2096E2E00C94135880
:103A1000A0E0B0E0EEE0FDE10C94F757FE01369631
:103A2000619171918091FF099091000AAF010E940C
:103A3000141C2096E2E00C941358A0E0B0E0E3E2FE
:103A4000FDE10C94F757FE013696619171918091DA
:103A5000FF099091000AAF010E944D1C2096E2E000
:103A60000C941358EF92FF920F931F937C01880FD1
:103A7000991F8E0D9F1D8C01000F111F000F111F2C
:103A8000080F191F000F111F0452134EF801808DEB
:103A9000918D0E948734F801868197810E94873436
:103AA000F801828993890E9487340FB6F8940F92A7
:103AB000F701EE0FFF1FEE0FFF1FEE0FFF1FEE0CC3
:103AC000FF1CEE0DFF1DEC5FF64FA481B5818C91BC
:103AD0008F7D8C930480F581E02D80818F778083AA
:103AE0000F900FBE1F910F91FF90EF900895A0E0EF
:103AF000B0E0EDE7FDE10C94ED57EC015A016B01EC
:103B00007901C8010E94FA349C01009709F4C1C0F0
:103B10004E01880C991CF401EC0FFD1FCF01880F9A
:103B2000991F880F991FE80FF91FEE0FFF1FE4522E
:103B3000F34E0FB6F8940F921182108222833383D2
:103B40002483358337832683200F311F31872087D5
:103B5000138702870F900FBEC7010E94FA349C01A1
:103B6000009709F1F401EC0FFD1FCF01880F991F99
:103B7000880F991FE80FF91FEE0FFF1FE851F34E52
:103B80000FB6F8940F92118210822283338324831C
:103B90003583378326832E0D3F1D31872087F3869B
:103BA000E2860F900FBEC7010E94FA349C01C40147
:103BB0008C0F9D1FFC01EE0FFF1FEE0FFF1FE80F84
:103BC000F91FEE0FFF1FE452F34E208F318FF38E5B
:103BD000E28E158E148E0FB6F8940F928E01000FA0
:103BE000111FCE01880F991F880F991F880F991FE9
:103BF000080F191F0C5F164FD8011896ED90FC9016
:103C00001997C601B5016050774F824C9F4F660FE0
:103C1000771F881F991F660F771F881F991FAA0C8F
:103C2000BB1CCC1CDD1CAA0CBB1CCC1CDD1CAA0CB8
:103C3000BB1CCC1CDD1CA60195010E94C557215060
:103C40003040F70131832083FE01EE0FFF1FEE0F9E
:103C5000FF1FEC0FFD1FEE0FFF1FEA5FF64F0190F5
:103C6000F081E02D82E08083D8011496ED91FC91E3
:103C7000159788E980831696ED91FC91179786E059
:103C800080830F900FBECE01CDB7DEB7ECE00C9471
:103C900009584E01880C991C5FCFEF92FF920F9349
:103CA0001F939093811D8093801D4093821D50939C
:103CB000831D6093841D7093851D30937B1D20931D
:103CC0007A1DE0927C1DF0927D1D00937E1D109365
:103CD0007F1D1F910F91FF90EF900895843080F425
:103CE00090E0FC01EE0FFF1FEE0FFF1FEE0FFF1F16
:103CF000E80FF91FE658F24E24A535A5C90108952D
:103D00002FEF30E0C9010895282F8430D0F490E0DF
:103D1000FC01EE0FFF1FEE0FFF1FEE0FFF1FE80F5E
:103D2000F91FE658F24E84A595A50197039748F42C
:103D30002093CB1D84A98093CC1D21E030E0C901E4
:103D4000089520E030E0C90108958091CB1D0895C9
:103D500090E0FC01EE0FFF1FEE0FFF1FEE0FFF1FA5
:103D6000E80FF91FE658F24E86A597A5089590E052
:103D7000FC01EE0FFF1FEE0FFF1FEE0FFF1FE80FFE
:103D8000F91FE658F24E82A993A9089520E030E089
:103D90009091CA1D981711F0C901089521E030E0F3
:103DA000C90108958093CB1D90E0FC01EE0FFF1F29
:103DB000EE0FFF1FEE0FFF1FE80FF91FE658F24E40
:103DC00077A766A753AB42AB81E090E095A784A7A5
:103DD00008953091CA1DE6EAFDE120E080819181DD
:103DE000039731F02F5F39962430C1F78FEF089594
:103DF0003330C1F7822F089520E030E090E0FC01DD
:103E0000EE0FFF1FEE0FFF1FEE0FFF1FE80FF91F52
:103E1000E658F24E84A595A5039711F0C9010895BF
:103E200021E030E0C90108958091020AE091D11D9E
:103E3000F091D21DE80FF11D908180E28083809186
:103E4000020A8F5F8093020A8A3010F01092020AF1
:103E5000892F0895982F80538A3048F081518630F9
:103E600038F0892F8156863028F4892F8755089598
:103E7000865F089580E00895982F8A3040F08A5038
:103E8000863018F4892F895C089580E30895805D59
:103E9000089580E590E09093D41D8093D31D86E033
:103EA0008093D51D80E090E066E372E00E94AE1A38
:103EB0000895A2E8B0E0EFE5FFE10C94F5579C010E
:103EC0001BAA1CAA1DAA1EAAFE01F7968CE4DF01FC
:103ED0001D928A95E9F78091B1029091B2029A837E
:103EE0008983FE01339680E3DF011D928A95E9F70D
:103EF0002130310509F448C021303105C8F12230A4
:103F0000310509F44DC09E012F5F3F4FD901E6E511
:103F1000F2E084E101900D928150E1F700D000D0F1
:103F2000EDB7FEB731968E010D5C1F4FADB7BEB732
:103F300012961C930E93119789E992E093838283E2
:103F4000358324830E94BC088DB79EB706960FB6B2
:103F5000F8949EBF0FBE8DBF80917A1D90917B1DFE
:103F6000B8010E94AE1ACE57DF4FE4E00C9411580E
:103F70009E012F5F3F4FD901E6E5F2E084E1019019
:103F80000D928150E1F7CACF9E012F5F3F4FD901BB
:103F9000EAE6F2E088E101900D928150E1F7BECFB0
:103FA0009E012F5F3F4FD901E2E8F2E087E10190E7
:103FB0000D928150E1F7B2CFA2E8B0E0E2EEFFE16E
:103FC0000C94F557482F1BAA1CAA1DAA1EAAFE0175
:103FD000F7968CE4DF011D928A95E9F78091B10292
:103FE0009091B2029A838983FE01339680E3DF01C8
:103FF0001D928A95E9F76130710509F45BC0613063
:10400000710508F44BC06230710509F45FC09E0170
:104010002F5F3F4FD901E3EFF2E086E101900D926F
:104020008150E1F7EDB7FEB738970FB6F894FEBFB1
:104030000FBEEDBFADB7BEB711968E010D5C1F4F21
:104040001283018389E093E013969C938E931297D9
:10405000E42FF0E0EE0FFF1FE45DF64F80819181C9
:1040600015969C938E93149717963C932E931697C0
:104070000E94BC088DB79EB708960FB6F8949EBFF5
:104080000FBE8DBF80917A1D90917B1DB8010E945B
:10409000AE1ACE57DF4FE4E00C9411589E012F5F0B
:1040A0003F4FD901E3EEF2E087E001900D9281509D
:1040B000E1F7B8CF9E012F5F3F4FD901EAEEF2E062
:1040C00089E001900D928150E1F7ACCF9E012F5F06
:1040D0003F4FD901E3EFF2E086E101900D9281506C
:1040E000E1F7A0CFA0E8B0E0E8E7F0E20C94ED57EC
:1040F000282F843008F09FC0A82EBB244501880CCF
:10410000991C880C991C880C991C6401CA0CDB1C36
:104110008AE79DE1C80ED91ED6019C968D919C918F
:104120009D970197039708F086C02093CB1DD496E6
:104130008C918093CC1D9BE1E92EF12CFA82E982CF
:104140008091801D9091811D8E010F5F1F4FB801DE
:104150000E94AE1A83E590E09A8389838091801D46
:104160009091811DB8010E94AE1A00D000D0EDB729
:10417000FEB73196ADB7BEB712961C930E9311974A
:104180008AE193E093838283D601D4968C918483D1
:1041900015820E94BC08EDB7FEB736960FB6F894AC
:1041A000FEBF0FBEEDBF8091801D9091811DB801B3
:1041B0000E94AE1AFA82E9828091801D9091811D41
:1041C000B8010E94AE1A83E490E09A8389838091BB
:1041D000801D9091811DB8010E94AE1AD601D09623
:1041E0002C91D097D1963C91C901DC01EDE1F3E02F
:1041F00088E001900D928150E1F7F401EA0DFB1D7A
:10420000E658F24E82E090E095A784A786E090E021
:1042100097A786A713AA12AA8091A51D84AB8093A5
:10422000CC1D8FEF8093CA1D1092CE1D1092CD1D14
:1042300021E030E002C020E030E0C901C058DF4F8B
:10424000ECE00C940958A3E8B0E0E9E2F1E20C9448
:10425000EE577C015B019090CB1D6E010894C11C50
:10426000D11CC60160E270E040E850E00E942508E1
:10427000F7018081882309F46EC020E030E000E07F
:1042800010E015C08A30C9F0F601E20FF31F8083F9
:104290002F5F3F4F0F5F1F4FF70101900020E9F79D
:1042A0003197EE19FF09E017F10708F454C0F70140
:1042B000E00FF11F80818D3029F72115310551F371
:1042C0002C0D3D1DF9011082C60165E273E047E047
:1042D00050E00E944E08009709F445C0C6016DE207
:1042E00073E04AE050E00E944E08009709F484C051
:1042F000C60168E373E044E150E00E944E08009775
:1043000009F4A2C0C6016DE473E042E050E00E94EF
:104310004E08009709F4A1C0C60160E573E045E0CE
:1043200050E00E944E08009709F49EC0C60166E561
:1043300073E04BE050E00E944E08009709F4ACC0D7
:10434000C60160E270E040E850E00E942508198252
:1043500020E030E09FCF22E030E0C901CD57DF4FB1
:10436000EBE00C940A58F1E0AF16B10409F497C0E1
:1043700082E0A816B10409F04EC08985582F505329
:10438000982F9154CE57DF4F9883C258D040B82F02
:10439000B753E82FE156CD57DF4FE883C358D040DD
:1043A000A82FA7558B85482F4053082F0154782FED
:1043B0007753F82FF156CF57DF4FF883C158D040CD
:1043C000682F67551091CB1D3091CC1DE6EAFDE1B9
:1043D00020E083E0E82EF12C80819181029709F49E
:1043E00085C02F5F39962430B9F71093CB1D3093D9
:1043F000CC1D21E030E0B1CF06EA1DE1FF24F80139
:10440000808191810297029748F0F394075F1F4FD4
:10441000F4E0FF16A1F721E030E09FCF2091CC1D02
:104420009C85892F80538A3028F08151863008F08E
:1044300083C0865F281749F78F2D0E947220109243
:10444000CE1D1092CD1DE1CF82E090E09093871DAC
:104450008093861D21E030E080CF1092CE1D109217
:10446000CD1D21E030E079CF892D90E0FC01EE0FE9
:10447000FF1FEE0FFF1FEE0FFF1FE80FF91FE6589B
:10448000F24E82E090E095A784A71092CE1D109284
:10449000CD1D20E030E061CF20E030E05ECF998597
:1044A000292F20532A3008F453C0892F8154863095
:1044B00008F048C0292F27532093A51D2093CC1D19
:1044C0008091CB1D90E0FC01EE0FFF1FEE0FFF1F50
:1044D000EE0FFF1FE80FF91FE658F24E24AB82E003
:1044E00090E095A784A721E030E037CF90855A303F
:1044F000B8F5852F981709F074CF828193810697BC
:1045000009F06FCF9091A51D5A3008F440C0CE57E6
:10451000DF4F8881C258D040863008F048C08B2FCA
:10452000981709F05ECF4A30E8F5842F342F808742
:10453000F182E082122F55CF892F8156863000F10B
:1045400080E078CF892F8156863018F5292F27559E
:104550002093A51D2093CC1D8091CB1D90E0B3CF5F
:10456000CE57DF4F8881C258D040863060F0CD579B
:10457000DF4F8881C358D040863038F080E0BACF12
:10458000892F875557CF8B2FB5CF8A2FB3CF852F44
:10459000C7CF1092A51D1092CC1D8091CB1D90E02D
:1045A00020E091CF063060F4872F372FC0CFCD5752
:1045B000DF4F8881C358D040863060F080E0B0CFB4
:1045C000CF57DF4F9881C158D040963028F4862FBE
:1045D000362FADCF8A2FA4CF80E030E0A8CFA0E562
:1045E000B0E0E5EFF2E20C94EF577C015E01089435
:1045F000A11CB11CC50160E270E040E550E00E94E2
:104600002508F7018081882309F440C020E030E0CC
:1046100000E010E052E0C52ED12C14C08A30C1F069
:10462000F501E20FF31F80832F5F3F4F0F5F1F4F96
:10463000F70101900020E9F73197EE19FF09E01723
:10464000F10738F1F701E00FF11F80818D3031F76C
:104650002115310559F32A0D3B1DF9011082C501C1
:104660006DE473E042E050E00E944E080097B9F418
:1046700041E0C42ED12CC50160E270E040E550E07D
:104680000E942508198220E030E0D0CF62E0C62EDB
:10469000D12CC601C05BDF4FEAE00C940B58C5017A
:1046A00060E573E045E050E00E944E08009719F77E
:1046B000CC24DD24E0CFA1E0B0E0E1E6F3E20C940D
:1046C000F55780E289838E010F5F1F4F07C08091ED
:1046D000801D9091811DB8010E941D178091801D41
:1046E0009091811D0E940417892B89F72196E4E09F
:1046F0000C941158EF92FF921F93DF93CF93CDB795
:10470000DEB7E2970FB6F894DEBF0FBECDBF182F0D
:104710007E010894E11CF11CC70160E270E042E3F5
:1047200050E00E9425080E945B23E12FF0E0EA326E
:10473000F105D0F5EE58FF4F0C941E58ADB7BEB73B
:104740001A970FB6F894BEBF0FBEADBFEDB7FEB758
:1047500031961296FC92EE9211978EE893E0938335
:104760008283809154099091550995838483809127
:10477000881D9091891D9783868380918A1D9091D1
:104780008B1D918780870E94BC088DB79EB70A96C3
:104790000FB6F8949EBF0FBE8DBF8091801D909183
:1047A000811DB7010E94AE1A80917A1D90917B1DE8
:1047B0006CEA73E00E94AE1A80917A1D90917B1D85
:1047C000B7010E94AE1AE2960FB6F894DEBF0FBE94
:1047D000CDBFCF91DF911F91FF90EF90089500D052
:1047E00000D0EDB7FEB73196ADB7BEB71296FC92CA
:1047F000EE92119782E693E093838283809166091B
:1048000090916709958384830E94BC088DB79EB7F9
:1048100006960FB6F8949EBF0FBE8DBF8091801D87
:104820009091811DB7010E94AE1ABECF00D000D07A
:10483000EDB7FEB73196ADB7BEB71296FC92EE92C9
:10484000119782E693E0938382838091640990912B
:104850006509D8CFADB7BEB71C970FB6F894BEBFE9
:104860000FBEADBFEDB7FEB731961296FC92EE9239
:10487000119788E993E093838283809162099091F4
:104880006309958384838091961D9091971D9783EA
:1048900086838091981D9091991D91878087809142
:1048A0009A1D90919B1D938782870E94BC088DB7AB
:1048B0009EB70C960FB6F8949EBF0FBE8DBF809129
:1048C000801D9091811DB7010E94AE1A6DCF00D05E
:1048D00000D0EDB7FEB73196ADB7BEB71296FC92D9
:1048E000EE92119782E693E0938382838091600930
:1048F0009091610987CF00D000D0EDB7FEB7319617
:10490000ADB7BEB71296FC92EE92119782E693E095
:104910009383828380915E0990915F0973CF00D069
:1049200000D0EDB7FEB73196ADB7BEB71296FC9288
:10493000EE92119782E693E09383828380915C09E3
:1049400090915D095FCF00D000D0EDB7FEB73196F2
:10495000ADB7BEB71296FC92EE92119782E693E045
:104960009383828380915A0990915B094BCF00D049
:1049700000D0EDB7FEB73196ADB7BEB71296FC9238
:10498000EE92119782E693E0938382838091580997
:104990009091590937CF00D000D0EDB7FEB73196CE
:1049A000ADB7BEB71296FC92EE92119782E693E0F5
:1049B00093838283809156099091570923CFADB795
:1049C000BEB718970FB6F894BEBF0FBEADBFEDB718
:1049D000FEB731961296FC92EE92119787E893E01B
:1049E00093838283809152099091530995838483A4
:1049F00080918A1D90918B1D978386830E94BC08AD
:104A00008DB79EB708960FB6F8949EBF0FBE8DBFA8
:104A10008091801D9091811DB7010E94AE1AC4CE75
:104A2000ADB7BEB718970FB6F894BEBF0FBEADBFF7
:104A3000EDB7FEB731961296FC92EE92119785E78C
:104A400093E09383828380915009909151099583DB
:104A500084838091901D86831782D0CFADB7BEB777
:104A600018970FB6F894BEBF0FBEADBFEDB7FEB737
:104A700031961296FC92EE92119785E793E093831C
:104A8000828380914E0990914F0995838483809110
:104A90008E1D86831782B2CFADB7BEB71A970FB6F9
:104AA000F894BEBF0FBEADBFEDB7FEB731961296FC
:104AB000FC92EE9211978EE893E09383828380912B
:104AC000700990917109958384838091A11D9091C3
:104AD000A21D978386838091A31D9091A41D51CE22
:104AE000ADB7BEB718970FB6F894BEBF0FBEADBF37
:104AF000EDB7FEB731961296FC92EE92119785E7CC
:104B000093E09383828380914A0990914B09958326
:104B100084838091921D8683178270CF00D000D04D
:104B2000EDB7FEB73196ADB7BEB71296FC92EE92D6
:104B3000119782E693E0938382838091720990912A
:104B4000730960CE00D000D0EDB7FEB73196ADB797
:104B5000BEB71296FC92EE92119782E693E0938391
:104B6000828380917409909175094CCEADB7BEB720
:104B700018970FB6F894BEBF0FBEADBFEDB7FEB726
:104B800031961296FC92EE92119785E793E093830B
:104B900082838091760990917709958384838091AF
:104BA0009E1D868317822ACF00D000D0EDB7FEB7B6
:104BB0003196ADB7BEB71296FC92EE92119782E68F
:104BC00093E09383828380914209909143091ACEA6
:104BD000ADB7BEB71A970FB6F894BEBF0FBEADBF44
:104BE000EDB7FEB731961296FC92EE9211978CE7D4
:104BF00093E093838283809140099091410995834A
:104C000084838091881D9091891D978386838091EC
:104C1000941D80871186B7CDADB7BEB718970FB674
:104C2000F894BEBF0FBEADBFEDB7FEB7319612967A
:104C3000FC92EE92119785E793E0938382838091B3
:104C40003E0990913F099583848380918C1D8683D2
:104C50001782D4CE00D000D0EDB7FEB73196ADB7F5
:104C6000BEB71296FC92EE92119782E693E0938380
:104C7000828380916E0990916F09C4CD00D000D0DD
:104C8000EDB7FEB73196ADB7BEB71296FC92EE9275
:104C9000119782E693E09383828380916A099091D1
:104CA0006B09B0CD00D000D0EDB7FEB73196ADB7EF
:104CB000BEB71296FC92EE92119782E693E0938330
:104CC000828380916809909169099CCD8091CB1D68
:104CD00090E0FC01EE0FFF1FEE0FFF1FEE0FFF1F16
:104CE000E80FF91FE658F24E84A595A5892B09F423
:104CF0005BCDADB7BEB718970FB6F894BEBF0FBE69
:104D0000ADBFEDB7FEB731961296FC92EE921197B9
:104D100085EA93E09383828380917E0990917F0955
:104D2000958384838091CC1D3CCFADB7BEB71A97D5
:104D30000FB6F894BEBF0FBEADBFEDB7FEB731964C
:104D40001296FC92EE92119787E693E0938382830A
:104D50008091320990913309958384838091821DDB
:104D60009091831DA091841DB091851D86839783AA
:104D7000A087B18708CD00D000D0EDB7FEB731963F
:104D8000ADB7BEB71296FC92EE92119782E693E011
:104D900093838283809130099091310933CD00D083
:104DA00000D0EDB7FEB73196ADB7BEB71296FC9204
:104DB000EE92119782E693E09383828380912E098D
:104DC00090912F091FCD00D000D0EDB7FEB73196DE
:104DD000ADB7BEB71296FC92EE92119782E693E0C1
:104DE0009383828380912C0990912D090BCDA1E0B2
:104DF000B0E0EDEFF6E20C94E7572C01CB0120E296
:104E0000298365E070E00E949E573B01EE24FF2459
:104E100000E010E0AA24BB24E0E22E2EEEE43E2EB9
:104E20004E010894811C911CC1010197F1F76201A8
:104E3000CE0CDF1C8091801D9091811D0E94041773
:104E4000892BA9F08091801D9091811DB4010E9451
:104E50001D178981F60181936F010894E11CF11CF3
:104E60000F5F1F4F0038110528F30E945B23089441
:104E7000A11CB11C6A147B04B8F6E40CF51CF70104
:104E8000108280917A1D90917B1D6FEA73E00E94E1
:104E9000AE1A80917A1D90917B1DB2010E94AE1ACC
:104EA00080917A1D90917B1D6CEA73E00E94AE1A8E
:104EB000C8012196E2E10C940358A1E8B0E0E3E6D2
:104EC000F7E20C94E7572C018091B1029091B20265
:104ED0009A838983FE0133968EE7DF011D928A95BE
:104EE000E9F7F201108219825E010894A11CB11C3D
:104EF000C5016EE170E00E94F7269C01898188233C
:104F000009F4A9C0232B09F4A6C0850166247724DF
:104F1000CC24DD24EE24FF248824992491E0292E3A
:104F2000312C18C091E0C916D10409F4C0C0253451
:104F300009F478C00894E11CF11CF50101900020EF
:104F4000E9F73197EA19FB090F5F1F4FEE15FF05CF
:104F500008F485C0F8012081322F2B3109F49DC05F
:104F6000233509F492C0253439F08091CD1D9091FC
:104F7000CE1D892B09F479C0C114D10499F6809112
:104F8000CD1D9091CE1D029791F6432F4053509125
:104F9000CC1DA091CA1D7091CB1DEEEAFDE120E071
:104FA000632F6154832F8156CF57DF4F8883C158B9
:104FB000D040B9EADB2ED30EB32FB75390814A30DD
:104FC00060F4842F981779F0952F2F5F399624304D
:104FD00081F0592F90814A30A0F3663008F06FC0FD
:104FE0008B2F981789F7A22F722F2F5F39962430B5
:104FF00081F79093CC1DA093CA1D7093CB1D109286
:10500000D01D1092CF1DF201E80DF91D30830894D8
:10501000811C911CA1E0CA2ED12CD8012C912534E1
:1050200009F088CF8091CD1D9091CE1D81309105E2
:1050300009F080CF9093D01D8093CF1D1092CE1D8C
:105040001092CD1DBFEFB093CA1DF1E06F2E712CF1
:10505000CC24DD246FCFD2011C9266247724C301B7
:10506000CF57DF4FE2E10C940358C50162E070E0D6
:105070004AE20E9423210197D1F1D8012C91322FCD
:105080002B3159F0233509F077CF8091CD1D9091C8
:10509000CE1D0197E9F033E56FCF3092CE1D2092FF
:1050A000CD1D1092D01D1092CF1D3BE165CF809198
:1050B000CD1D9091CE1D029709F039CFA0CFCF57CB
:1050C000DF4F8881C158D040863078F080E07ACFB9
:1050D000E2E0F0E0F093CE1DE093CD1D1092D01DE4
:1050E0001092CF1D33E543E252CF8D2D6BCF81E07F
:1050F000682E712CC2CF8F929F92BF92CF92DF9277
:10510000EF92FF920F931F93DF93CF93CDB7DEB74C
:10511000C058D0400FB6F894DEBF0FBECDBFB82E3A
:1051200083E08B1508F442C0CB2CDD244601880CAB
:10513000991C880C991C880C991C7401EC0CFD1CA2
:10514000AAE7BDE1EA0EFB1EF70184A595A501972C
:10515000039760F5B092CB1D84A98093CC1D8091FC
:10516000B1029091B2029A838983FE0133968EE751
:10517000DF011D928A95E9F7198289E20E947A235C
:105180008E010F5F1F4FC80168EE73E00E94F72683
:10519000C80161E070E049E20E9423218C0189E2AC
:1051A000B8010E94DC1F01301105B1F020E030E0B1
:1051B000C901C058DF4F0FB6F894DEBF0FBECDBF98
:1051C000CF91DF911F910F91FF90EF90DF90CF90E3
:1051D000BF909F908F900895F70180A991A99C019D
:1051E000D901EDE1F3E088E001900D928150E1F703
:1051F000F401EC0DFD1DE658F24E15A614A686E04E
:1052000090E097A786A713AA12AA8FEF84AB5091BC
:10521000CB1D5B1561F08093CC1D8FEF8093CA1D71
:105220001092CE1D1092CD1D21E030E0C1CFE6EAF4
:10523000FDE120E030E0808191810297029738F013
:105240002F5F3F4F399624303105A9F7E6CF52172B
:10525000B9F32093CB1DF901EE0FFF1FEE0FFF1FD7
:10526000EE0FFF1FE20FF31FE658F24E84A9809362
:10527000CC1DD3CFA0E8B0E0E0E4F9E20C94F55700
:10528000282F8430E8F590E0FC01EE0FFF1FEE0FB1
:10529000FF1FEE0FFF1FE80FF91FE658F24E84A51F
:1052A00095A50197039760F52093CB1D84A9809362
:1052B000CC1D8091B1029091B2029A838983FE0144
:1052C00033968EE7DF011D928A95E9F7198285E210
:1052D0000E947A238E010F5F1F4FC8016CE271E0BC
:1052E0000E94F726C80161E070E045E20E94232198
:1052F0008C0185E2B8010E94DC1F0130110541F0EC
:1053000020E030E0C901C058DF4FE4E00C941158B0
:105310001092CE1D1092CD1D21E030E0F3CF0F93FF
:105320001F93CF93DF938091781D882329F180E527
:1053300090E09093D41D8093D31D86E08093D51D7B
:1053400080E090E066E372E00E94AE1A2091D51DE5
:10535000E6EAFDE1C0E0D0E080819181892B11F483
:105360002630A9F021963996C430D105A9F7DF91EE
:10537000CF911F910F91089580E090E067ED73E069
:105380000E94AE1ADF91CF911F910F910895209145
:10539000D31D3091D41DC093CB1DFE01EE0FFF1F16
:1053A000EE0FFF1FEE0FFF1FEC0FFD1FE658F24E32
:1053B00086E090E097A786A733AB22AB01E010E030
:1053C00015A704A78C2F0E943A29C093791D80E06D
:1053D00090E06BEB73E00E94AE1A1093040A009306
:1053E000030AC5CFA0E8B0E0E8EFF9E20C94F1576A
:1053F0008091B1029091B2029A838983FE01339623
:105400008EE7DF011D928A95E9F780917A1D9091D0
:105410007B1D67E074E00E94AE1A198280E00E9452
:105420007A237E010894E11CF11CC7016CE271E053
:105430000E94F726C7010E94EF22BC0180E00E9473
:10544000DC1F198280E00E947A23C7016CE271E0C0
:105450000E94F726C7010E94EF228C0180E0B8016C
:105460000E94DC1F0130110509F47DC0CC24DD242D
:10547000D394198281E00E947A23C7016CE271E023
:105480000E94F726C7010E94EF228C0181E0B8013B
:105490000E94DC1F0130110509F463C0D394198206
:1054A0008CE10E947A23C7016CE271E00E94F7262A
:1054B000C7010E94EF228C018CE1B8010E94DC1F21
:1054C0000130110509F44BC0D39419828BE00E947E
:1054D0007A23C7016CE271E00E94F726C7010E949F
:1054E000EF228C018BE0B8010E94DC1F0130110516
:1054F00009F49BC0D394198289E10E947A23C701E1
:105500006CE271E00E94F726C7010E94EF228C0135
:1055100089E1B8010E94DC1F0130110541F1D394EB
:1055200080918C1D90918D1D029741F1CC20A1F0AE
:10553000DD2079F401E010E0C8010E94591F1093AA
:10554000871D0093861DC801C058DF4FE8E00C940A
:105550000D5802E010E0F0CF00E010E0EDCFC39472
:10556000B4CFC3949CCFCC24C394DD2482CFC39406
:1055700080918C1D90918D1D0297C1F619828BE14F
:105580000E947A23C7016CE271E00E94F726C701EE
:105590000E94EF228C018BE1B8010E94DC1F0130D8
:1055A000110509F444C0D394198289E00E947A233A
:1055B000C7016CE271E00E94F726C7010E94EF224A
:1055C0008C0189E0B8010E94DC1F0130110599F1BE
:1055D000D39419828AE00E947A23C7016CED75E0AA
:1055E0000E94F726C7010E94EF228C018AE0B801D1
:1055F0000E94DC1F01301105E1F0D39419828DE186
:105600000E947A23C7016CE271E00E94F726C7016D
:105610000E94EF228C018DE1B8010E94DC1F013055
:10562000110509F485CFD39481CFC39464CFC3947B
:10563000BBCFC394E3CFC394CCCFEF92FF921F9321
:10564000CF93DF9310927B1D10927A1D20E835E2F4
:1056500040E050E020937C1D30937D1D40937E1DE3
:1056600050937F1D82E090E09093811D8093801D78
:105670002093821D3093831D4093841D5093851D7C
:105680001092871D1092861D80E890E00E94FA34E7
:105690008093881D9093891DDC01E7E3F4E089E0A5
:1056A00001900D928150E1F780E890E00E94FA3479
:1056B00080938A1D90938B1DDC01E0E4F4E089E087
:1056C00001900D928150E1F782E090E090938D1D62
:1056D00080938C1D10928F1D10928E1D84E090E09F
:1056E0009093911D8093901D1092931D1092921D86
:1056F0008BE090E09093951D8093941D8FE090E057
:105700000E94FA348093961D9093971DDC01E9E482
:10571000F4E08CE001900D928150E1F78FE090E091
:105720000E94FA348093981D9093991DDC01E5E561
:10573000F4E08EE001900D928150E1F78FE090E06F
:105740000E94FA3480939A1D90939B1DDC01E9E43A
:10575000F4E08CE001900D928150E1F786E090E05A
:1057600090939D1D80939C1D80E590E090939F1DDC
:1057700080939E1D81E08093A01D83E694E090932A
:10578000A21D8093A11D89E694E09093A41D8093AF
:10579000A31D1092CE1D1092CD1D8FEF8093A51DDD
:1057A000C6EADDE1E6E0EE2EF12C1FEF8FE090E09F
:1057B0000E94FA348C839D83DC01EDE1F3E088E004
:1057C00001900D928150E1F719821882FB82EA82E2
:1057D0001F821E82188729968DE1CA3CD80731F7AF
:1057E000188319831A831092CE1D1092CD1D81E06B
:1057F00090E09E838D83DF91CF911F91FF90EF907A
:1058000008956F927F928F929F92AF92BF92CF92A4
:10581000DF92EF92FF920F931F934C015A016B019D
:1058200039010E941D2B9092811D8092801DA092B3
:10583000821DB092831DC092841DD092851D7092EE
:105840007B1D60927A1DE0927C1DF0927D1D00937D
:105850007E1D10937F1D1F910F91FF90EF90DF90A1
:10586000CF90BF90AF909F908F907F906F90089552
:10587000EF92FF920F931F937B018C018091A11DEA
:105880009091A21DB7010E9437088091A31D9091AD
:10589000A41DB8010E9437081F910F91FF90EF904F
:1058A0000895BC018091881D9091891D0E94370840
:1058B0000895AEE0B0E0EFE5FCE20C94EB57C9824E
:1058C000DA82EB82FC820D831E832F83388749871F
:1058D0005A876B877C878D879E870B811C81ED8023
:1058E000FE80CF80D884A984BA848B849C846D8404
:1058F0007E8469817A818091881D9091891D0E94A2
:10590000370880918A1D90918B1DB8010E9437083D
:10591000F0928D1DE0928C1DD0928F1DC0928E1D35
:10592000B092911DA092901D9092931D8092921D15
:105930007092951D6092941D2E96EEE00C9407587F
:10594000A6E0B0E0E6EAFCE20C94F35749835A8300
:105950006B837C838D839E830B811C81ED80FE8015
:1059600069817A818091961D9091971D0E943708D8
:105970008091981D9091991DB8010E9437088091DF
:105980009A1D90919B1DB7010E9437082696E6E06C
:105990000C940F580F931F93CF93DF93382F2091C0
:1059A000781D222389F180915A1D831711F1EDE5AD
:1059B000FDE190E004C0808133968317D1F09F5FB2
:1059C0009217C8F32B3000F180E090E068ED74E0AE
:1059D0000E94AE1A20E533EC40E951E0CA0101977C
:1059E000F1F721503040D1F7DF91CF911F910F9106
:1059F000089580E090E06FE674E00E94AE1ADF91B7
:105A0000CF911F910F910895422F50E08A01000F0E
:105A1000111FE801C40FD51FCC5AD24E3E83DB01C3
:105A20000D900020E9F71197A61BB70BA832B1051E
:105A3000A8F4FB018081882381F5F801E40FF51FAC
:105A4000EC5AF24E27813085C901DC01EAEAF4E024
:105A50008EE001900D928150E1F70AC0FB01808138
:105A6000882359F38F81988548E250E00E945C08B2
:105A70008091781D8F5F8093781D8B3018F08AE0BD
:105A80008093781D80E090E068EB74E00E94AE1A8D
:105A9000DF91CF911F910F9108958F819885AD016E
:105AA0000E945C08E5CF8F929F92AF92BF92CF92F7
:105AB000DF92FF920F931F93CF93DF936C015B01F3
:105AC0004A0180E890E00E94FA34FC019093551D51
:105AD0008093541D108280E890E00E94FA34FC010B
