:100000000C9470030C9492030C9492030C9492033E
:100010000C9492030C9492030C9492030C9492030C
:100020000C9492030C9492030C9492030C949203FC
:100030000C9492030C9492030C9492030C949203EC
:100040000C9492030C9492030C9492030C949203DC
:100050000C9492030C9492030C9492030C944F0C06
:100060000C9492030C9449190C945C1A0C9492030E
:100070000C9492030C9492030C9492030C949203AC
:100080000C9437320C9492030C9492030C94211626
:100090000C941F190C94321A0C9492030C94503344
:1000A0000C9492030C94E9100C9492030C94920318
:1000B0000C9492030C949F100C9474110C94920362
:1000C0000C9492030C9492030C94C4100C94F518A5
:1000D0000C94081A0C9492030C94CB180C94DE190F
:1000E0000C949203E826D426C0269A26D923D92335
:1000F000D923D923D9231126ED25D925D923D923CD
:10010000D9237525D92333251525E424A323D02409
:10011000BC24A824942480246C242F241B24F4239E
:1001200057264326D9232F2651259325A725BB25BE
:10013000D923D923D9236B26AE336733673367338B
:100140006733673367336733AE3367336733673398
:100150006733673367336733B03367336733673386
:100160006733673367336733E8336733673367333E
:100170006733673367336733B03367336733673366
:100180006733673367336733E8336733673367331E
:100190006733673367336733F03367336733673306
:1001A00067336733673367332034673367336733C5
:1001B000673367336733673367336733673367336F
:1001C0006733673367336733963367336733673330
:1001D0006733673367336733D733673367336733DF
:1001E00067336733673367331D3467336733673388
:1001F00067336733673367331D3467336733673378
:10020000673367336733673308346733673367337C
:10021000673367336733673308346733673367336C
:1002200067336733673367338133673367336733E4
:100230006733673367336733AA33673367336733AB
:1002400067336733673367338133673367336733C4
:100250006733673367336733AA336733673367338B
:100260006733673367336733F43367336733673331
:100270006733673367336733C53367336733673350
:100280006733673367336733C53367336733673340
:100290006733673367336733C7336733673367332E
:1002A0006733673367336733FA33673367336733EB
:1002B000673367336733673392330D0A0A0A476F30
:1002C0006F646279652E2E2E206E6F2073706163CD
:1002D0006520666F722069646C65207461736B21A0
:1002E0000D0A000D0A0A0A48656C6C6F20576F7280
:1002F0006C64210D0A006E616E00696E660000403C
:100300007A10F35A00A0724E18090010A5D4E80024
:1003100000E87648170000E40B54020000CA9A3B3C
:10032000000000E1F50500008096980000004042C2
:100330000F000000A0860100000010270000000050
:10034000E803000000006400000000000A00000054
:1003500000000100000000002C76D888DC674F0800
:1003600023DFC1DFAE59E1B1B796E5E3E453C63A06
:10037000E651997696E8E6C28426EB898C9B62ED7D
:10038000407C6FFCEFBC9C9F40F2BAA56FA5F49037
:10039000055A2AF75C936B6CF9676DC11BFCE0E4AE
:1003A0000D47FEF520E6B500D0ED902E0300943504
:1003B00077050080841E080000204E0A000000C857
:1003C0000C333333330F986E12831141EF8D2114A8
:1003D000893BE65516CFFEE6DB18D1844B381BF778
:1003E0007C1D901DA4BBE424203284725E22810017
:1003F000C9F124ECA1E53D27A0E0B0E0E2E0F2E0A5
:100400000C94F157E9E0CE2EAA24A39488248A9470
:10041000982C7724739405C00F900FBEBB2009F071
:100420005FC080918A1C882309F480C080917F1C62
:100430008F5F80937F1CB090CF1C0FB6F8940F9203
:1004400080917F1C815080937F1C80917F1C88232A
:1004500019F78091791C8823F9F28091C61C8823B2
:1004600071F1E091CB1CF091CC1CC681D781CE01FB
:100470000C960E9432558E010E5F1F4FC8010E94DC
:1004800032559E8980917A1C891718F490937A1CB2
:100490009E899C9DC00111248457934EB8010E94EF
:1004A000E154E091771CF091781C9E898689981719
:1004B000A0F2A0927B1C8091C61C882391F68091AB
:1004C000881C882309F04DC080917B1C813009F085
:1004D000A3CF0E943A320F900FBEBB2009F4A1CFE8
:1004E0000FB6F8940F92E091D41CF091D51C0681C0
:1004F0001781C80102960E9432558091791C815063
:100500008093791C80918A1C815080938A1C0F9063
:100510000FBEF8018789908D0E948C34C8010E941B
:100520008C3480918A1C882309F080CF80918C1CA8
:10053000823008F476CF0E943A3273CF8091881CC3
:100540008F5F8093881CDD2480917B1C882309F0B9
:1005500095C0DD2009F092C08091881C8150809365
:10056000881C8091881C882309F4AECF80917F1C61
:10057000882321F780917C1C90917D1C019690939B
:100580007D1C80937C1CE0907C1CF0907D1CE11411
:10059000F10409F52091C21C3091C31C8091C41C48
:1005A0009091C51C9093C31C8093C21C3093C51CB2
:1005B0002093C41C80917E1C8F5F80937E1CE091F1
:1005C000C21CF091C31C8081882309F073C09092F3
:1005D000D1098092D0098091D0099091D109E81673
:1005E000F90608F44EC0DD24E091C21CF091C31C52
:1005F00080818823F1F1E091C21CF091C31C058039
:10060000F681E02DC681D7818A819B81E816F906A3
:1006100008F461C08E010E5F1F4FC8010E94325561
:100620008C899D89892B21F0CE010C960E94325530
:100630009E8980917A1C891718F490937A1C9E8960
:100640009C9DC00111248457934EB8010E94E1542F
:10065000E091771CF091781C9E898689981720F28A
:10066000DD24D394E091C21CF091C31C80818823C7
:1006700011F69092D1098092D00904C070927B1C2F
:100680006BCFDD24E091771CF091781C868990E097
:10069000FC01EE0FFF1FEE0FFF1FEE0FFF1FE80F15
:1006A000F91FE457F34E8081823008F44DCFDD24EA
:1006B000D3944ACFE091C21CF091C31C0580F6810F
:1006C000E02D0680F781E02D828193819093D109FE
:1006D0008093D00980CF9093D1098093D009D2CF55
:1006E00011241FBECFEFD1E2DEBFCDBF00E00CBFB3
:1006F0001AE0A0E0B2E0E6E5F0EB00E00BBF02C0DC
:1007000007900D92AE31B107D9F71BBE1EE1AEE1E5
:10071000BAE001C01D92A232B107E1F70E94800F3A
:100720000C9429580C9400008F938FB78F93F894F2
:1007300080911E1E8F5F80931E1E80911F1E8F4F03
:1007400080931F1E8091201E8F4F8093201E8091CA
:10075000211E8F4F8093211E8F918FBF8F910895FF
:10076000A1E1B0E0E6EBF3E00C94EC573C017F87AD
:100770006E876A01FC0117821682838181FD03C0A6
:100780006FEF7FEF71C39E012F5F3F4F398B288B37
:10079000F3012381EE85FF8523FD859123FF819160
:1007A000FF87EE87882309F45CC3853251F4EE8518
:1007B000FF8523FD859123FF8191FF87EE87853299
:1007C00029F490E0B3010E949008E2CF982F10E046
:1007D000882499241032B0F49B3269F09C3228F4BA
:1007E000903251F0933271F40BC09D3239F0903356
:1007F00049F4116028C01260146025C0186023C03D
:10080000106121C017FD2AC0892F80538A3078F4E7
:1008100016FF06C0FAE09F9E902C1124980E13C07C
:100820003AE0839E802C1124880E10620CC09E3208
:1008300021F416FD16C3106406C09C3611F410682E
:1008400002C0983659F4EE85FF8523FD959123FF6C
:100850009191FF87EE87992309F0BCCF892F8554AA
:10086000833020F4812F8061905E07C0892F8556E8
:10087000833008F0A1C1812F8F7E86FD02C076E013
:10088000972E6FE3F62EF822953619F4F0E4FF2A3E
:1008900007C0963619F420E8F22A02C091109A9403
:1008A000F7FE0BC03BE3391520F427E05CE3B52EDF
:1008B0000EC0B92CB39427E00AC047E0491528F4CC
:1008C00027E0BB2447E0942E02C0292DBB24C6019B
:1008D00004969D878C87F601608171818281938166
:1008E000AE014F5F5F4F0B2D0E9439076C010981EC
:1008F000202E332400FF04C003FD02C01DE209C006
:10090000F1FE02C01BE205C0F2FC02C010E001C013
:1009100010E2C1018C709070892BB9F1112311F490
:1009200083E001C084E0881510F088240AC0881A8A
:10093000F3FC07C080E290E0B3010E9490088A9423
:10094000C9F7112329F0812F90E0B3010E9490088C
:1009500023FE03C006EF12E00EC00AEF12E00BC048
:10096000E114F10409F0805290E0B3010E94900874
:100970000F5F1F4F05C0EF2CFF24F0E1EF22FF2493
:10098000F8018491882361F714C1F7FE12C0BC0CF2
:1009900024FE04C08A81813309F4BA941B141CF02C
:1009A000BB24B3942DC0F8E0FB1550F538E0B32E0E
:1009B00027C0F6FC25C0892D90E08C159D054CF0D4
:1009C0002CEFC2162FEFD20624F030E8F32A01C034
:1009D0009A94992049F0E2E0F0E0EC0FFD1FE90D58
:1009E000F11D80818033A1F3F7FE0AC0B92CB394C6
:1009F000892D90E0C816D90614F0992401C09C18DE
:100A0000F7FC03C025E030E009C01C141D041CF0F5
:100A100021E030E003C096012F5F3F4F112311F01A
:100A20002F5F3F4F992029F0892D90E00196280FE4
:100A3000391F882D90E02817390714F0882401C049
:100A4000821A4F2C5524C20189709070892B39F07D
:100A500008C080E290E0B3010E9490088A94882048
:100A6000C1F7112329F0812F90E0B3010E94900873
:100A700043FE07C008C080E390E0B3010E949008E5
:100A80008A948820C1F7F7FE46C08601D7FE02C0CF
:100A900000E010E076010894E11CF11CE01AF10A74
:100AA00041E050E04C0F5D1FE40EF51E26014B188F
:100AB0005108892D90E0AA24BB24A81AB90A5FEF37
:100AC0000F3F150729F48EE290E0B3010E949008D1
:100AD000C016D10634F0401651061CF4F70180818F
:100AE00001C080E3015010400894E11CF11C0A157C
:100AF0001B052CF090E0B3010E949008E0CF0C158C
:100B00001D0539F49A81963318F4953311F424FEB7
:100B100081E390E04BC08A81813309F00F7E90E041
:100B2000B3010E9490089920A1F08EE290E0B301F9
:100B30000E94900812E0E1E0F0E0EC0FFD1FE10FF1
:100B4000F11D1F5F808190E0B3010E9490089A948C
:100B500091F744FC03C085E690E002C085E490E094
:100B6000B3010E949008D7FC05C0C114D10441F420
:100B700004FF06C0D094C194D108D3948DE201C083
:100B80008BE290E0B3010E94900880E305C08F5F84
:100B900026EF3FEFC20ED31E3AE0C316D104BCF7D6
:100BA00090E0B3010E949008C601C096B3010E9474
:100BB0009008CC84DD8452C1933631F0933799F09C
:100BC000933509F059C023C0F601808189835E0105
:100BD0000894A11CB11C22E030E0C20ED31E21E01B
:100BE000E22EF12C12C0F601A080B18016FD03C0E8
:100BF0006FEF7FEF02C0692D70E022E030E0C20E9F
:100C0000D31EC5010E946B087C011F7713C0F6013B
:100C1000A080B18016FD03C06FEF7FEF02C0692D89
:100C200070E022E030E0C20ED31EC5010E94110820
:100C30007C01106813FF07C01BC080E290E0B30185
:100C40000E9490088A94882D90E0E816F906A8F38F
:100C50000FC0F50117FD859117FF81915F0190E0AD
:100C6000B3010E94900881108A940894E108F10869
:100C7000E114F10471F7F2C0943611F0993689F558
:100C800017FF08C0F601208131814281538184E041
:100C900090E00AC0F601808191819C01442737FDD4
:100CA0004095542F82E090E0C80ED91E9FE6F92EA1
:100CB000F12257FF09C050954095309521953F4F3F
:100CC0004F4F5F4F90E8F92ACA01B901AE014F5F5B
:100CD0005F4F2AE030E00E943409E82EE889EE1ADE
:100CE00041C0953721F41F7E2AE030E01CC0197FF7
:100CF0009F3661F0903720F4983509F0B2C00FC0EC
:100D0000903739F0983709F0ACC004C028E030E0E3
:100D10000AC0106114FD146020E130E004C014FD2D
:100D2000166020E132E017FF08C0F6016081718192
:100D30008281938144E050E008C0F6018081918176
:100D4000BC0180E090E042E050E0C40ED51EAE0150
:100D50004F5F5F4F0E943409E82E5889E51A8FE7EC
:100D6000F82EF122F6FE0BC08EEFF822E91438F4CB
:100D7000F4FE07C0F2FC05C09FEEF92202C01E2D52
:100D800001C0192DF4FE0DC0FE01EE0DF11D808194
:100D9000803319F4E9EEFE2208C01F5FF2FE05C0A1
:100DA00003C08F2D867809F01F5F0F2DF3FC14C050
:100DB000F0FE0FC0181510F09E2C0BC09E2C980C46
:100DC000911A182D06C080E290E0B3010E949008AD
:100DD0001F5F1815C0F304C0181510F4811A01C064
:100DE000882404FF0FC080E390E0B3010E949008C4
:100DF00002FF1DC001FD03C088E790E00EC088E53A
:100E000090E00BC0802F867891F001FF02C08BE24A
:100E100001C080E2F7FC8DE290E0B3010E949008EF
:100E200006C080E390E0B3010E9490089A94E91410
:100E3000C0F3EA94E1E0F0E0EC0FFD1FEE0DF11DD0
:100E4000808190E0B3010E949008EE2091F706C0E7
:100E500080E290E0B3010E9490088A948820C1F754
:100E600097CCF30166817781CB016196E2E10C9426
:100E70000858283008F027E03327DA01990F311D90
:100E800087FD916000966105710539F432602E5F2F
:100E90003D9330E32A95E1F708959F3F30F0803885
:100EA0007105610509F03C5F3C5F3D93913008F0AE
:100EB0008068911DDF93CF931F930F93FF92EF9262
:100EC000192F987F9695E92F96959695E90FFF270C
:100ED000E85AFC4F99273327EE24FF24A701E701A6
:100EE00005900894079428F4360FE71EF81E491F52
:100EF000511D660F771F881F991F0694A1F7059053
:100F0000079428F4E70EF81E491F561FC11D770FDE
:100F1000881F991F661F0694A1F70590079428F46F
:100F2000F80E491F561FC71FD11D880F991F661F36
:100F3000771F0694A1F70590079420F4490F561FD8
:100F4000C71FD81F990F661F771F881F0694A9F720
:100F500084911095177041F0D695C7955795479590
:100F6000F794E7941A95C1F7EEEFF2E068941590C4
:100F7000159135916591959105907FE27395E118F2
:100F8000F10A430B560BC90BD009C0F7E10CF11E57
:100F9000431F561FC91FD01D7EF4703311F48A956C
:100FA000E6CFE894015030F0080F0AF4002702174A
:100FB00008F4202F2395022F7A3328F079E37D93CC
:100FC0002A95E9F710C07D932A9589F6069497959E
:100FD0006795379517951794E118F10A430B560B4F
:100FE000C90BD00998F023957E9173957A3308F058
:100FF00070E37C932013B8F77E9170617D9330F09D
:10100000839571E37D9370E32A95E1F71124EF90C6
:10101000FF900F911F91CF91DF91992787FD9095B8
:101020000895FC010590615070400110D8F780953B
:1010300090958E0F9F1F0895FB01DC0102C0019067
:101040000D9241505040D8F70895DC0101C06D93D6
:1010500041505040E0F70895FB01DC010D90002065
:10106000E9F7119701900D920020E1F70895FB0137
:10107000DC0101900D920020E1F70895FB01DC01F5
:101080000D900020E9F711974150504028F0019051
:1010900000200D92C9F708951C920895FB01DC0110
:1010A0004150504030F08D910190801919F400208A
:1010B000B9F7881B990B0895FB01DC0141505040A2
:1010C00048F001900D920020C9F701C01D924150D7
:1010D0005040E0F70895FC0161507040019001100C
:1010E000D8F7809590958E0F9F1F0895FB01519121
:1010F0005523A9F0BF01DC014D9145174111E1F7DE
:1011000059F4CD010190002049F04D914015411155
:10111000C9F3FB014111EFCF81E090E00197089501
:101120000F931F93CF93DF938C01EB018B8181FF92
:101130001BC082FF0DC02E813F818C819D812817AD
:10114000390764F4E881F9810193F983E88306C0E3
:10115000E885F985802F1995892B31F48E819F813F
:1011600001969F838E8302C00FEF1FEFC801DF91AE
:10117000CF911F910F910895AEE0B0E0E2ECF8E05E
:101180000C94FA570E891F8986E08C831A83098391
:101190008FEF9FE79E838D839E01265E3F4FCE019A
:1011A0000196688D798DA9010E94B0032F81388541
:1011B000020F131FF80110822E96E4E00C941658CB
:1011C000AEE0B0E0E6EEF8E00C94FA578C0177FF61
:1011D00002C060E070E8615070407E836D831A83C6
:1011E000098386E08C83CE010196BA01A9010E9491
:1011F000B0032D813E8137FD09C0EF81F8852E17A0
:101200003F070CF4F901E00FF11F10822E96E4E085
:101210000C941658AEE0B0E0E0E1F9E00C94FA5717
:101220008C0177FF02C060E070E8615070407E83FF
:101230006D831A8309838EE08C83CE010196BA01F7
:10124000A9010E94B0032D813E8137FD09C0EF81C5
:10125000F8852E173F070CF4F901E00FF11F1082FB
:101260002E96E4E00C941658FA01AA27283051F182
:10127000203181F1E8946F936E7F6E5F7F4F8F4FC7
:101280009F4FAF4FB1E03ED0B4E03CD0670F781F26
:10129000891F9A1FA11D680F791F8A1F911DA11D0B
:1012A0006A0F711D811D911DA11D20D009F4689444
:1012B0003F912AE0269F11243019305D3193DEF6EC
:1012C000CF010895462F4770405D4193B3E00FD0A2
:1012D000C9F7F6CF462F4F70405D4A3318F0495D8D
:1012E00031FD4052419302D0A9F7EACFB4E0A69570
:1012F0009795879577956795BA95C9F70097610592
:10130000710508959B01AC010A2E069457954795E7
:1013100037952795BA95C9F7620F731F841F951FDC
:10132000A01D089583E090E09093E41C8093E31C5B
:101330009093E21C8093E11C1092E71C0895809129
:10134000E71C8823C1F082E090E00E945D10805588
:101350009A402FEF8C3992071CF0853691059CF04E
:101360008091E31C9091E41C4DEC5CEC6CEC7DE313
:101370000E942114089584E090E040E050E060E88D
:101380007FE30E9421140895CF93DF930E9470158C
:10139000EC010E947515BC018C179D0774F4CE01F9
:1013A000861B970B039764F584E090E060E070E0A3
:1013B0000E94D013DF91CF910895C817D907A4F7E1
:1013C0008C1B9D0B039784F3CB01BE010E94B75782
:1013D000660F771F660F771FCB01880F991F880F45
:1013E000991F680F791F83E090E00E94D01383E07B
:1013F00090E09093E21C8093E11CDF91CF910895DF
:10140000CE010E94B757660F771F660F771FCB017B
:10141000880F991F880F991F680F791F82E090E04D
:101420000E94D01382E090E09093E21C8093E11C34
:10143000DF91CF9108950E9470154F971CF021E025
:10144000822F08950E94751520E04F97C4F7822FD0
:1014500008950E941B0A882359F51092E71C82E028
:1014600090E00E945D1024E0813B920798F482E0B6
:1014700090E09093E41C8093E31C9093E21C809393
:10148000E11C8091E31C9091E41C62E370E00E94F7
:10149000D01308958C55924188F083E090E09093AA
:1014A000E41C8093E31C9093E21C8093E11CE9CF41
:1014B0000E94C40981E08093E71C08958091E11C9B
:1014C0009091E21C9093E41C8093E31CDACF089582
:1014D00008958091E81C9091E91C009761F081309B
:1014E0009105A9F00297029760F081E061E041E088
:1014F0000E94F00C089580E061E040E00E94F00C52
:10150000089580E060E041E00E94F00C089581E0E1
:1015100060E040E00E94F00C0895A0E2B0E0E3E952
:10152000FAE00C94F4578091EB1C882309F082C0F8
:101530000E947A1519821A821B821C828CE0FE019D
:101540003596DF01282F1D922A95E9F7198A1A8A04
:101550001B8A1C8AFE017596DF011D928A95E9F7A8
:101560000E9404137B018C010E941D132DB73EB70E
:101570002C5030400FB6F8943EBF0FBE2DBFEDB7D4
:10158000FEB7319621E1A22EB12CAC0EBD1EADB737
:10159000BEB71296BC92AE92119720E032E0338330
:1015A0002283E482F58206831783608771878287AE
:1015B00093870E94BC082DB73EB7245F3F4F0FB6FC
:1015C000F8943EBF0FBE2DBF0E946C156C010E94A7
:1015D00070157C010E947515ADB7BEB71A970FB68E
:1015E000F894BEBF0FBEADBFEDB7FEB731968E010A
:1015F0000F5F1F4F12961C930E93119720E132E05C
:1016000033832283D582C482F782E68291878087E2
:101610000E94BC082DB73EB7265F3F4F0FB6F89427
:101620003EBF0FBE2DBFC801B5010E94A50C81E0D1
:101630008093EB1CA096EAE00C9410588091EE1C6D
:10164000811108950E948F1381E08093EE1C08950C
:101650000E941E0B0E948D0A0E94690AF9CF84E63F
:1016600090E00E940F16882309F581E090E00E9427
:101670000F16882311F01092EE1C82E090E00E9479
:101680000F16882311F01092EA1C8CE090E00E9463
:101690000F16882311F01092EB1C82E090E00E945C
:1016A0000F16882311F01092EF1C08950E94032F4B
:1016B0000E94191F8091E81C9091E91C84309105CB
:1016C000A1F201969093E91C8093E81CCECF0E9472
:1016D0002F0B08950E94E10C0E94E7150E94C60C92
:1016E0000E94351587E69BE00E94EB150E94920947
:1016F0001092E91C1092E81C1092EE1C1092EB1C48
:101700001092EF1C1092EA1C83E090E09093ED1C85
:101710008093EC1C85E090E060E070E00E94D013C4
:101720000895789484B5826084BD84B5816084BD59
:1017300085B5826085BD85B5816085BDEEE6F0E04A
:101740008081816080831092260AE2E2FAE01082B2
:1017500011821282138212921292129212920895A0
:101760009FB7F89420911E0A30911F0A4091200AD9
:101770005091210A86B5A89B06C08F3F21F02F5FAC
:101780003F4F4F4F5F4F9FBF542F432F322F222782
:10179000280F311D411D511D220F331F441F551F9E
:1017A000220F331F441F551FB901CA0108958FB777
:1017B000F8942091220A3091230A4091240A5091F2
:1017C000250A8FBFB901CA010895EF92FF920F93C6
:1017D0001F937B018C012FB7F89480911E0A909182
:1017E0001F0AA091200AB091210A36B5A89B05C016
:1017F0003F3F19F00196A11DB11D2FBFE114F10467
:101800000105110509F446C0BA2FA92F982F882782
:10181000830F911DA11DB11D880F991FAA1FBB1F0A
:10182000880F991FAA1FBB1FAC013FB7F894809186
:101830001E0A90911F0AA091200AB091210A26B594
:10184000A89B05C02F3F19F00196A11DB11D3FBFF8
:10185000BA2FA92F982F8827820F911DA11DB11D86
:10186000880F991FAA1FBB1F880F991FAA1FBB1F94
:10187000841B950B885E9340C0F20894E108F10840
:1018800001091109E114F1040105110519F048518C
:101890005C4FCBCF1F910F91FF90EF9008951F9257
:1018A0000F920FB60F9211242F933F938F939F9314
:1018B000AF93BF938091220A9091230AA091240AAA
:1018C000B091250A3091260A0196A11DB11D232F42
:1018D0002D5F2D3720F02D570196A11DB11D2093AE
:1018E000260A8093220A9093230AA093240AB09395
:1018F000250A80911E0A90911F0AA091200AB0919A
:10190000210A0196A11DB11D80931E0A90931F0A02
:10191000A093200AB093210ABF91AF919F918F911C
:101920003F912F910F900FBE0F901F9018951F930E
:10193000182F81E090E06EEF0E94601681E090E049
:10194000612F0E9460161F910895EF92FF920F93EE
:101950001F938C017B0181E090E00E94970C80E84E
:1019600090E00E94970C81E090E0B8010E94D21BA9
:1019700080EC90E00E94970C81E090E0B7010E941B
:10198000D21B1F910F91FF90EF9008950F931F931B
:1019900081E090E040E855E260E070E02FEF30E059
:1019A00000E410E00E947C1D539A5B9A8CE090E06A
:1019B0000E94970C81E090E00E94970C1F910F917C
:1019C0000895E1E0F1E08081886080836B9A6D9AF0
:1019D000E2E0F1E0808188608083739A759A0895CF
:1019E000882361F080910201877F80930201662342
:1019F00061F07398442361F4759A0895809102010F
:101A00008860809302016623A1F7739A4423A1F3AF
:101A100075980895FFCF0E94063C14C0813091054F
:101A200061F18230910591F10397F1F084E090E04B
:101A300040E050E060E070E00E9421148AE090E015
:101A40000E94CE4E80914B0990914C0985309105B2
:101A5000A9F3009719F780E090E040E050E060E8DB
:101A60007FE30E942114EACF82E090E040E050E062
:101A700060E87FE30E942114E1CF81E090E040E044
:101A800050E060E87FE30E942114D8CF83E090E02B
:101A900040E050E060E87FE30E942114CFCFA0E057
:101AA000B0E0E5E5FDE00C94F6570E94063C88EBBB
:101AB0009BE00E94CE4E95E0C92ED12C83E0E82E0B
:101AC000F12C02E010E0C1E0D0E00CC08133A9F0BD
:101AD0008233C1F08333D9F08433F1F08AEF90E0A0
:101AE0000E94CE4E0E94032F0E94191F803371F76F
:101AF00010924C0910924B09F1CFD0934C09C0932E
:101B00004B09ECCF10934C0900934B09E7CFF092AF
:101B10004C09E0924B09E2CFD0924C09C0924B099C
:101B2000DDCF0E94063C14C08130910561F1823006
:101B30009105E9F083309105D1F00497F1F080E050
:101B400060E040E00E94F00C89E190E00E94CE4EFF
:101B500080914B0990914C098530910581F3009754
:101B600019F780E061E040E00E94F00CEDCF80E0EA
:101B700060E041E00E94F00CE7CF81E061E041E0ED
:101B80000E94F00CE1CF81E060E040E00E94F00CA8
:101B9000DBCF2F923F924F925F926F927F929F92F4
:101BA000AF92BF92CF92DF92EF92FF920F931F936B
:101BB000DF93CF93CDB7DEB7A2970FB6F894DEBF11
:101BC0000FBECDBF0E94063CCE0105969AA389A305
:101BD00065E1262E312C2C0E3D1E5E010894A11CC1
:101BE000B11C5FE1452E52E0552E41E1C42ED12CAF
:101BF000CC0EDD1E3EE2632E32E0732E2CE0922EE0
:101C00000F2EFDECEF2EFCECFF2EFCE80F2FFFE378
:101C10001F2FF02D19821A821B821C82A9A1BAA142
:101C2000E92D1D92EA95E9F7198A1A8A1B8A1C8AFE
:101C3000D101E92D1D92EA95E9F70E94D7159C0183
:101C40008DB79EB70E970FB6F8949EBF0FBE8DBF8F
:101C5000EDB7FEB73196ADB7BEB71296BC92AE9255
:101C6000119753824282D9018C91848315821196F7
:101C70008C9111978683178212968C911297808788
:101C8000118613968C9113978287138614968C91E4
:101C9000848715860E94BC08EDB7FEB73E960FB646
:101CA000F894FEBF0FBEEDBF0E946C15AA2797FDEA
:101CB000A095BA2FBC01CD010E946D562AE939E9E1
:101CC00049E15FE30E94215720E030E845EA53E410
:101CD0000E946A550E94C9128DB79EB708970FB629
:101CE000F8949EBF0FBE8DBFEDB7FEB73196ADB76E
:101CF000BEB71296DC92CE92119773826282E48212
:101D0000F582068317830E94BC08EDB7FEB73896AC
:101D10000FB6F894FEBF0FBEEDBFC501B6010E941D
:101D2000A50C82E390E00E94CE4E74CF0E94063C48
:101D30000E948F1385E090E00E94CE4EF9CF0E9462
:101D4000063C0E947A158AE090E00E94CE4EF9CFC0
:101D50000E94063C85E090E060E070E00E94D013B5
:101D60000AC086E090E062E370E00E94D0138AE04F
:101D700090E00E94CE4E80914B0990914C090597BE
:101D800081F70E94290AF3CFEF92FF920F931F93DE
:101D9000789480E090E040E052EC61E070E02FEF5A
:101DA00030E000E410E00E947C1D7C0182E090E0C5
:101DB00040E855E260E070E02FEF30E00E947C1DCB
:101DC00040E855E260E070E09701E12CE2ECFE2E85
:101DD000E1E00E2F112D0E94062C84E392E00E9478
:101DE000562C0E94F72989E392E06FE372E041E00C
:101DF00050E00E94582D80E367E472E00E94CF2CEF
:101E000081E360E572E00E94CF2C82E36AE572E034
:101E10000E94CF2C83E364E672E00E94CF2C84E31F
:101E200065E772E00E94CF2C0E9494291F910F91C8
:101E3000FF90EF9008950E94C40E0E94E10C0E9452
:101E4000E7150E94C60C0E9435150E94910B0E9456
:101E5000A1120E94920908958F929F92AF92BF9211
:101E6000CF92DF92EF92FF920F93FEE78F2EF2E078
:101E70009F2E88EA9EE0B40148E750E020E030E081
:101E800003E0EE24FF24CC24DD24AA24BB240E94FA
:101E900061528FE99EE0B40148E750E020E030E075
:101EA0000E94615286E99EE0B40140E850E020E0E3
:101EB00030E00E94615289EC9DE0B40140E051E0C5
:101EC00020E030E00E94615281E99DE0B40140E8E9
:101ED00050E020E030E00E9461528BE09DE0B401D0
:101EE00040E850E020E030E00E9461520F91FF9006
:101EF000EF90DF90CF90BF90AF909F908F9008951C
:101F000083EE92E00E94CA1B0E941B0F0E942C0FBE
:101F10000E9466538AEB92E00E94CA1B80E090E028
:101F200008959C01DC01AA0FBB1FAC01440F551F93
:101F3000440F551F440F551FFD01E40FF51FE050DE
:101F4000F64F0190F081E02D808191818C54944076
:101F500085579E4020F080E59AE091838083F901C7
:101F6000EE0FFF1FEE0FFF1FE20FF31FEE0FFF1F1D
:101F7000EE5FF54F0190F081E02DA40FB51FA0504A
:101F8000B64F14964D915C911597208181E090E0B9
:101F900016960C90169702C0880F991F0A94E2F7C4
:101FA000282B2083FA012081809582238083189634
:101FB000ED91FC9119970084F185E02D2081179611
:101FC000AC91A13069F0A13030F480E89FEB822B16
:101FD000892380830895A230E9F788E09BEFF7CF4B
:101FE00080E29FEEF4CFCF93DF93FC01EE0FFF1F53
:101FF000EE0FFF1FE80FF91FEE0FFF1FEE5FF54F0B
:1020000040815181DC01AA0FBB1FAA0FBB1FAA0F81
:10201000BB1F880F991FA80FB91FA050B64F149669
:10202000ED91FC911597EA01288181E090E01696E8
:102030000C90169702C0880F991F0A94E2F7282B7C
:10204000288320818095822380831896ED91FC91CE
:1020500019970084F185E02D908117968C9181303D
:1020600069F0813030F48FE389238083DF91CF9151
:102070000895823029F0DF91CF9108958FECF4CF4D
:1020800083EFF2CF9C01CB018C54944085579E4046
:1020900098F4C901F901EE0FFF1FEE0FFF1FEE0FBD
:1020A000FF1F880F991FE80FF91FE050F64F0190AE
:1020B000F081E02D7183608308959C01FC01EE0F97
:1020C000FF1FEE0FFF1FEE0FFF1F220F331FE20F48
:1020D000F31FE050F64F0190F081E02D2081318117
:1020E000C9010895CF93DF93DC01EB01F894FC0163
:1020F000EE0FFF1FE55CF54F80819181019739F06C
:1021000020E030E07894C901DF91CF910895AA0FC3
:10211000BB1FAA0FBB1FAD5CB54F8D919D910D905C
:10212000BC91A02D88839983AA83BB8311821082DE
:1021300021E030E07894C901DF91CF9108951F929A
:102140000F920FB60F9211248F939F93AF93BF936B
:102150008091270A9091280AA091290AB0912A0A11
:102160000196A11DB11D8093270A9093280AA09380
:10217000290AB0932A0ABF91AF919F918F910F9036
:102180000FBE0F901F9018951F920F920FB60F92CF
:1021900011248F939F93AF93BF9380912B0A9091BB
:1021A0002C0AA0912D0AB0912E0A0196A11DB11DF5
:1021B00080932B0A90932C0AA0932D0AB0932E0A99
:1021C000BF91AF919F918F910F900FBE0F901F9075
:1021D00018951F920F920FB60F920BB60F92112403
:1021E000EF92FF920F931F932F933F934F935F9321
:1021F0006F937F938F939F93AF93BF93CF93DF930F
:10220000EF93FF93E091E009F091E1098081806212
:102210008083E091E609F091E709C081D1812091A6
:10222000270A3091280A4091290A50912A0A1092CF
:10223000270A1092280A1092290A10922A0A2115B8
:1022400031054105510509F444C080912F0A909150
:10225000300A7E0100E010E0A0E0B0E0E81AF90AE0
:102260000A0B1B0BCA01B9012FE33CE940E050E027
:102270000E948457E60EF71E081F191FE092330ACA
:10228000F092340A0093350A1093360A81E090E008
:1022900090933C0A80933B0AD093300AC0932F0A54
:1022A000FF91EF91DF91CF91BF91AF919F918F916E
:1022B0007F916F915F914F913F912F911F910F915E
:1022C000FF90EF900F900BBE0F900FBE0F901F90DE
:1022D000189580912F0A9091300A9E01281B390B86
:1022E000790100E010E0CACF1F920F920FB60F9253
:1022F0000BB60F921124EF92FF920F931F932F931F
:102300003F934F935F936F937F938F939F93AF937D
:10231000BF93CF93DF93EF93FF93A091DE09B0912A
:10232000DF09ED91FC911197808180628083169680
:10233000ED91FC911797C081D18120912B0A3091AA
:102340002C0A40912D0A50912E0A10922B0A1092BD
:102350002C0A10922D0A10922E0A211531054105E2
:10236000510509F444C08091310A9091320A7E01EE
:1023700000E010E0A0E0B0E0E81AF90A0A0B1B0B3D
:10238000CA01B9012FE33CE940E050E00E948457C4
:10239000E60EF71E081F191FE092370AF092380A5E
:1023A0000093390A10933A0A81E090E090933E0A34
:1023B00080933D0AD093320AC093310AFF91EF9186
:1023C000DF91CF91BF91AF919F918F917F916F914D
:1023D0005F914F913F912F911F910F91FF90EF903F
:1023E0000F900BBE0F900FBE0F901F90189580910D
:1023F000310A9091320A9E01281B390B790100E0C5
:1024000010E0CACF8091A0008F738093A0008091CC
:10241000A0008F7C8093A0008091A000837F809398
:10242000A0008091A0009091A100836098618093AA
:10243000A0009093A1008091A10082608A7F809388
:10244000A1002EE33CE93093A9002093A8008091DD
:1024500020018F7380932001809120018F7C8093D5
:10246000200180912001837F8093200180912001B1
:1024700090912101836098618093200190932101C4
:102480008091210182608A7F80932101309329010C
:10249000209328011092300A10922F0A1092270AD6
:1024A0001092280A1092290A10922A0A80910A0191
:1024B0008E7F80930A0180910B018E7F80930B01A8
:1024C000E091E209F091E30980818062808380815C
:1024D00081608083E091EA09F091EB09808180645A
:1024E00080831092320A1092310A10922B0A1092B5
:1024F0002C0A10922D0A10922E0A80910A018D7FCB
:1025000080930A0180910B018D7F80930B01A09134
:10251000DE09B091DF091296ED91FC91139780814D
:10252000806280831296ED91FC9113978081816087
:1025300080831A96ED91FC911B9780818064808343
:102540000895089A10980895109A10980895EF9297
:10255000FF920F931F93089882B18130E9F70E9490
:10256000B00B7B018C0182B18130E9F30E94B00B8A
:102570009B01AC012E193F09C9011F910F91FF90DA
:10258000EF900895089A1098109A10980E94A71238
:102590000895EF92FF920F931F937B018C010E948D
:1025A000C212C801B70120E030E040E050E00E94D4
:1025B00021571F910F91FF90EF900895882391F478
:1025C000CB01BA0120E030E840EC54EC0E942157E6
:1025D00020E030E045E255E40E946A550E943A56F8
:1025E000CB010895CB01BA0120E030E047E055E48B
:1025F0000E94215720E030E045E255E40E946A55F0
:102600000E943A56CB0108956091001D7091011D02
:102610008091021D9091031D2091041D3091051D94
:102620004091061D5091071D0E946A5520E030E040
:1026300040E05FE30E94215708956091F01C709183
:10264000F11C8091F21C9091F31C2091F41C3091AC
:10265000F51C4091F61C5091F71C0E946A5520E031
:1026600030E040E05FE30E9421570895CF92DF926F
:10267000EF92FF920F931F938C01F42EE52ED62E2E
:10268000C72E60E070E00E947210019769F12F2D53
:102690003E2D4D2D5C2DC901DA016C017D01000F2D
:1026A000111F000F111F0051134EC701B60120E08A
:1026B00030E048EC52E40E94D2559B01AC01F80195
:1026C00060817181828193810E946A55F8016083E3
:1026D000718382839383B601C7011F910F91FF908D
:1026E000EF90DF90CF90089560910000709101000D
:1026F00080910200909103000E946B562DEB37E30E
:1027000046E055E30E9421579B01AC016CE772EF54
:1027100080EB9BE30E94D2556B017C01C0CF4091BE
:10272000F81C5091F91C6091FA1C7091FB1C80E020
:1027300090E00E9436136093001D7093011D8093FA
:10274000021D9093031D4091FC1C5091FD1C609153
:10275000FE1C7091FF1C81E090E00E943613609394
:10276000041D7093051D8093061D9093071D2091F5
:10277000001D3091011D4091021D5091031D2093B9
:10278000F81C3093F91C4093FA1C5093FB1C609387
:10279000FC1C7093FD1C8093FE1C9093FF1C0895FD
:1027A0000F931F93CF93DF93EC018B0182E090E0B6
:1027B0000E945D10BC01C330D10569F0C230D10563
:1027C000C9F0C530D10571F1249719F1DF91CF918E
:1027D0001F910F910895601B710B82E090E00E94A1
:1027E000421082E090E00E94910FDF91CF911F9103
:1027F0000F910895600F711F82E090E00E944210D7
:1028000082E090E00E94910FDF91CF911F910F9194
:10281000089582E090E00E94F30FDF91CF911F9125
:102820000F91089582E090E066E87BE00E944210FC
:1028300082E090E00E94910FDF91CF911F910F9164
:102840000895A0E0B0E0E7E2F4E10C94F057EC0169
:102850003A014B01A090FC1CB090FD1CC090FE1CE6
:10286000D090FF1CE090F81CF090F91C0091FA1C2D
:102870001091FB1CC601B501A80197010E941D57CC
:1028800018160CF05CC0C601B50120E030E040E055
:1028900050E00E94CE55882309F451C0C801B70109
:1028A000A60195010E94D2557B018C0160E070E089
:1028B00080E89FE3209709F053C0A40193010E9490
:1028C000215720E030E047E055E40E94215720E006
:1028D00030E045E255E40E946A550E943A569B0159
:1028E000AC0180E090E0B9010E94421080E090E0ED
:1028F0000E94910FC801B701A40193010E942157C2
:1029000020E030E840EC54EC0E94215720E030E019
:1029100045E255E40E946A550E943A569B01AC017B
:1029200081E090E0B9010E94421081E090E00E94B5
:10293000910FCDB7DEB7EEE00C940C5896C0C601EF
:10294000B501A80197010E94CE558823E4F060E00C
:1029500070E080E89FE37B018C01209709F4ADCF04
:10296000C130D105A1F1C330D10509F458C0C2303E
:10297000D10521F1249709F45BC0CDB7DEB7EEE0B5
:102980000C940C5872C0C801B70120E030E040E060
:1029900050E00E94CE558823D1F2C601B501A801AE
:1029A00097010E94D2550F2EF0E0EF2EF0E0FF2E9F
:1029B000F0E80F2FFFE31F2FF02DCFCFA4019301DD
:1029C0000E94215720E030E840EC54EC7ECFA40177
:1029D00093010E94215720E030E840EC54EC0E9423
:1029E000215720E030E045E255E40E946A550E94FC
:1029F0003A569B01AC0180E090E0B9010E94421080
:102A000080E090E00E94910FC801B701A4019301FA
:102A10000E94215720E030E047E055E475CFA40143
:102A200093010E94215720E030E047E055E4D7CFE2
:102A300081E090E00E94F30F80E090E00E94F30FAD
:102A400080E090E0A0E0B0E08093FC1C9093FD1C3F
:102A5000A093FE1CB093FF1C8093F81C9093F91C6C
:102A6000A093FA1CB093FB1C88CF0E94021280E056
:102A700090E0A0E0B0E08093041D9093051DA0932A
:102A8000061DB093071D8093001D9093011DA09318
:102A9000021DB093031D8093FC1C9093FD1CA0931A
:102AA000FE1CB093FF1C8093F81C9093F91CA0931C
:102AB000FA1CB093FB1C8093F01C9093F11CA09324
:102AC000F21CB093F31C8093F41C9093F51CA0931C
:102AD000F61CB093F71C089580910B1D90E00895AB
:102AE00080911E1D90911F1D089580911C1D909135
:102AF0001D1D0895A4E0B0E0E0E8F5E10C94ED5769
:102B000058E0E52E5DE1F52ECC24DD24AA24BB247B
:102B100000E010E03E010894611C711C43E0842E2B
:102B2000912C8C0E9D1E30ED332E21ED422E55241E
:102B300053940DC0F7018181C80ED11C0F5F1F4F48
:102B400082E090E0E80EF91E0A301105E1F03982CA
:102B50000A834B825C82C30162E00E94D532C401C9
:102B600062E00E94D532C70162E00E942033C801B2
:102B700002970497F8F20630110504F3F7018181FA
:102B8000A80EB11CDBCFD594C794D594C794D0922E
:102B90001F1DC0921E1DB594A794B594A794B09222
:102BA0001D1DA0921C1D2496E1E10C9409580E9461
:102BB0007A15EDE0FDE1AFE3BAE080818D933296C6
:102BC0008DE1ED31F807C9F78FE39AE0089580ECC5
:102BD0000E94293408951092211D1092201D909377
:102BE000231D8093221DA1E7B0E08C918E7F8C93F2
:102BF00010929000E1E9F0E010828FE89DEF909351
:102C00009500809394008081846080838C918160A2
:102C10008C9308958091201D9091211D0895BC01F1
:102C20002091201D3091211DC9010E94B757892B89
:102C300011F080E0089580E0232B09F4089581E0ED
:102C400008951F920F920FB60F920BB60F92112498
:102C50002F933F934F935F936F937F938F939F93A4
:102C6000AF93BF93EF93FF938091201D9091211D0F
:102C700001969093211D8093201D8FE89DEF9093E6
:102C8000950080939400E091221DF091231D1995E9
:102C9000FF91EF91BF91AF919F918F917F916F9134
:102CA0005F914F913F912F910F900BBE0F900FBEF0
:102CB0000F901F9018959093480A8093470A0895A3
:102CC0009C01FC01EE0FFF1FEE0FFF1FE80FF91F25
:102CD000EE0FFF1FE15BF64F0190F081E02D808148
:102CE00085FD07C095E8892F8A95F1F7808185FFDA
:102CF000FACFF901EE0FFF1FEE0FFF1FEE0FFF1FC0
:102D0000220F331FE20FF31FE35BF64F0190F081B8
:102D1000E02D60830895AC01FC01EE0FFF1FEE0F64
:102D2000FF1FE80FF91FEE0FFF1FE15BF64F019049
:102D3000F081E02D808187FD07C025E8822F8A95EC
:102D4000F1F7808187FFFACF80818C7191F4FA01CD
:102D5000EE0FFF1FEE0FFF1FEE0FFF1F440F551F5B
:102D6000E40FF51FE35BF64F0190F081E02D8081C9
:102D700008958FEF08959C01FC01EE0FFF1FEE0FE9
:102D8000FF1FE80FF91FEE0FFF1FE15BF64FA08159
:102D9000B1818C918823CCF5A901440F551FF9010D
:102DA000EE0FFF1FEE0FFF1FEE0FFF1FE40FF51FCB
:102DB000E35BF64F0190F081E02D80818C9187FDDF
:102DC000FCCF0FB6F8940F92CA01820F931FFC013B
:102DD000EE0FFF1FEE0FFF1FE80FF91FEE0FFF1F93
:102DE000DF01AC5DB24E11961C921E92EA5DF24E6E
:102DF00016968D919C9117979183808315969C933D
:102E00008E9314970F900FBE0895A901440F551F7C
:102E1000D8CF0FB6F8940F92FC01EE0FFF1FE80F0A
:102E2000F91FCF01880F991F880F991FE80FF91F0D
:102E3000EE0FFF1FEC5DF24E208131810F900FBE2F
:102E4000C9010895CF93DF939C01DB010FB6F8947D
:102E50000F92AC01440F551FFA01E80FF91FCF0183
:102E6000880F991F880F991FE80FF91FEE0FFF1F9A
:102E7000EC5DF24E808191810F900FBE892B41F164
:102E8000CA01820F931F9C01220F331F220F331F91
:102E9000820F931F880F991F8C5D924EEC01EC817D
:102EA000FD8121910FB6F8940F92FD83EC83888504
:102EB0009985E817F90781F08881998101979983AD
:102EC00088830F900FBE2C9381E0DF91CF910895FE
:102ED00080E0DF91CF9108958E819F819D838C83C7
:102EE000EBCFCF93DF93DC010FB6F8940F92FC0188
:102EF000EE0FFF1FE80FF91FCF01880F991F880FF2
:102F0000991FE80FF91FEE0FFF1FEC5DF24EC4850D
:102F1000D5850F900FBEAD01440F551FCA018A0F12
:102F20009B1F9C01220F331F220F331F280F391FB5
:102F3000220F331FF901EC5DF24E86899789C8177D
:102F4000D90791F1C901805D924EEC01EA81FB81C4
:102F500060830FB6F8940F928A819B8101969B83C0
:102F60008A83288539858217930709F44EC08881A2
:102F700099810196998388830F900FBE91E0AA0FE3
:102F8000BB1FAA0FBB1FAA0FBB1FA40FB51FA35BBC
:102F9000B64F1496ED91FC911597808180628083E5
:102FA000892FDF91CF91089585E8982F9A95F1F7B1
:102FB000982F9A95F1F7982F9A95F1F78A95F1F74E
:102FC0000FB6F8940F92FA01EA0FFB1FCF01880F9A
:102FD000991F880F991FE80FF91FEE0FFF1FEC5D77
:102FE000F24E848595850F900FBEC817D90791F0D2
:102FF000CA018A0F9B1F9C01220F331F220F331F10
:10300000820F931F880F991F9ECF8E819F819B8374
:103010008A83ADCF90E0B3CFFC01EE0FFF1FEE0F20
:10302000FF1FE80FF91FEE0FFF1FE15BF64F019046
:10303000F081E02D808180780895FC01EE0FFF1F64
:10304000EE0FFF1FE80FF91FEE0FFF1FE15BF64FBA
:103050000190F081E02D8081807208959C01FC0137
:10306000EE0FFF1FEE0FFF1FEE0FFF1F220F331F8C
:10307000E20FF31FE35BF64F0480F581E02D8081C2
:103080008062808308959C01FC01EE0FFF1FEE0F0C
:10309000FF1FEE0FFF1F220F331FE20FF31FE35B33
:1030A000F64F0480F581E02D80818F7D8083089527
:1030B000CF93DF93AC01FC01EE0FFF1FEE0FFF1F5C
:1030C000E80FF91FEE0FFF1FE15BF64F0190F08153
:1030D000E02D80818C7109F056C0FA01EE0FFF1FC0
:1030E000CA01880F991F880F991F880F991FE80F31
:1030F000F91FE35BF64F0190F081E02D60810FB680
:10310000F8940F92FA01EE0FFF1FE40FF51FCF01A5
:10311000880F991F880F991FE80FF91FEE0FFF1FE7
:10312000EC5DF24E208131810F900FBECA01880FF5
:10313000991F840F951FFC01EE0FFF1FEE0FFF1F5D
:10314000E80FF91FEE0FFF1FEC5DF24E82859385AD
:1031500028173907C1F0EF01EA81FB8160830FB6C0
:10316000F8940F928A819B8101969B838A8328859C
:1031700039858217930751F0888199810196998347
:1031800088830F900FBEDF91CF9108958E819F812C
:103190009B838A83F1CF1F920F920FB60F920BB6CB
:1031A0000F9211242F933F934F935F936F937F93CD
:1031B0008F939F93AF93BF93EF93FF9383E090E040
:1031C0000E945818FF91EF91BF91AF919F918F91FD
:1031D0007F916F915F914F913F912F910F900BBE17
:1031E0000F900FBE0F901F9018951F920F920FB661
:1031F0000F920BB60F9211242F933F934F935F932F
:103200006F937F938F939F93AF93BF93EF93FF93AE
:1032100082E090E00E945818FF91EF91BF91AF912A
:103220009F918F917F916F915F914F913F912F91DE
:103230000F900BBE0F900FBE0F901F9018951F920E
:103240000F920FB60F920BB60F9211242F933F934C
:103250004F935F936F937F938F939F93AF93BF939E
:10326000EF93FF9381E090E00E945818FF91EF9157
:10327000BF91AF919F918F917F916F915F914F918E
:103280003F912F910F900BBE0F900FBE0F901F908C
:1032900018951F920F920FB60F920BB60F92112432
:1032A0002F933F934F935F936F937F938F939F934E
:1032B000AF93BF93EF93FF9380E090E00E94581884
:1032C000FF91EF91BF91AF919F918F917F916F91FE
:1032D0005F914F913F912F910F900BBE0F900FBEBA
:1032E0000F901F901895CF93DF93DC010FB6F894E1
:1032F0000F929C01220F331FF901E80FF91FCF0134
:10330000880F991F880F991FE80FF91FEE0FFF1FF5
:10331000EC5DF24E848595850F900FBE892BA9F147
:10332000FD01EE0FFF1FEE0FFF1FEE0FFF1FE20F5D
:10333000F31FE35BF64F40815181C9018A0F9B1F48
:103340009C01220F331F220F331F820F931F880F00
:10335000991F805D924EEC01EC81FD8121910FB6A9
:10336000F8940F92FD83EC8388859985E817F90717
:1033700001F1888199810197998388830F900FBE0D
:10338000FA012083DF91CF910895AA0FBB1FAA0FE6
:10339000BB1FAA0FBB1FA20FB31FA35BB64F149690
:1033A000ED91FC91159780818F7D8083DF91CF9186
:1033B00008958E819F819D838C83DBCF1F920F9216
:1033C0000FB60F920BB60F9211242F933F934F938A
:1033D0005F936F937F938F939F93AF93BF93EF937D
:1033E000FF9383E090E00E947319FF91EF91BF91EA
:1033F000AF919F918F917F916F915F914F913F918D
:103400002F910F900BBE0F900FBE0F901F9018952D
:103410001F920F920FB60F920BB60F9211242F939B
:103420003F934F935F936F937F938F939F93AF934C
:10343000BF93EF93FF9382E090E00E947319FF9196
:10344000EF91BF91AF919F918F917F916F915F911C
:103450004F913F912F910F900BBE0F900FBE0F9089
:103460001F9018951F920F920FB60F920BB60F92E6
:1034700011242F933F934F935F936F937F938F9379
:103480009F93AF93BF93EF93FF9381E090E00E94EF
:103490007319FF91EF91BF91AF919F918F917F91A0
:1034A0006F915F914F913F912F910F900BBE0F90B5
:1034B0000FBE0F901F9018951F920F920FB60F928C
:1034C0000BB60F9211242F933F934F935F936F93FB
:1034D0007F938F939F93AF93BF93EF93FF9380E07E
:1034E00090E00E947319FF91EF91BF91AF919F916E
:1034F0008F917F916F915F914F913F912F910F909D
:103500000BBE0F900FBE0F901F901895A0E0B0E07B
:10351000ECE8FAE10C94F6576C017B01DB010D90AD
:103520000020E9F78D0101501040061B170B71F0C8
:10353000C0E0D0E0F701EC0FFD1F2196E491C60139
:103540006E2F0E947117C017D107A0F3CDB7DEB759
:10355000E8E00C941258BC018091470A9091480A07
:103560000E94861A0895A0E0B0E0E9EBFAE10C941D
:10357000F6576C017B01DB010D900020E9F78D010E
:1035800001501040061B170B79F0C0E0D0E0E0E0DE
:10359000F0E02196EE0DFF1DC60160810E947117BB
:1035A000FE01C017D107A8F3CDB7DEB7E8E00C9451
:1035B0001258A0E0B0E0EFEDFAE10C94F4577C0172
:1035C0006B015A018C01000F111FC8018E0D9F1D48
:1035D000FC01EE0FFF1FEE0FFF1FE80FF91FEE0FAC
:1035E000FF1FEC5DF24E9F01245E3F4F848D958D51
:1035F000019739F4E9010E943A3288819981019753
:10360000D1F3C8018E0D9F1D8C01000F111F000FFB
:10361000111F080F191F000F111F0C5D124E81E0C2
:1036200090E0F801958F848F628D738D808D918DE0
:10363000A60195010E940A09F801608D718DC701EC
:103640000E94B31AF801158E148ECDB7DEB7EAE0EA
:103650000C941058A0E0B0E0E0E3FBE10C94F457C8
:103660007C016B015A018C01000F111FC8018E0DE6
:103670009F1DFC01EE0FFF1FEE0FFF1FE80FF91F4C
:10368000EE0FFF1FEC5DF24E9F01245E3F4F848DD5
:10369000958D019739F4E9010E943A328881998128
:1036A0000197D1F3C8018E0D9F1D8C01000F111FD2
:1036B000000F111F080F191F000F111F0C5D124E74
:1036C00081E090E0F801958F848F628D738D808DFD
:1036D000918DA60195010E94E008F801608D718D21
:1036E000C7010E94B31AF801158E148ECDB7DEB74C
:1036F000EAE00C941058BC018091470A9091480A66
:103700000E94B31A08950F931F93CF93DF938B01F9
:10371000DB010D900020E9F7BD0161507040601B96
:10372000710B99F120E030E0DC01AA0FBB1FAA0F5A
:10373000BB1FEC01CC0FDD1FCC0FDD1FCC0FDD1F3D
:10374000A80FB91FAA0FBB1FA15BB64F45E8880F92
:10375000991FC80FD91FC35BD64FF801E20FF31FA3
:103760002F5F3F4F9491ED91FC911197808185FDE2
:1037700006C0842F8A95F1F7808185FFFACFE88112
:10378000F98190832617370740F3DF91CF911F917E
:103790000F910895BC018091470A9091480A0E94B8
:1037A000831B08950F931F93CF93DF938B01DB014E
:1037B0000D900020E9F7BD0161507040601B710B56
:1037C00099F120E030E0DC01AA0FBB1FAA0FBB1F5C
:1037D000EC01CC0FDD1FCC0FDD1FCC0FDD1FA80FC0
:1037E000B91FAA0FBB1FA15BB64F45E8880F991FF1
:1037F000C80FD91FC35BD64FF801E20FF31F9081AA
:103800002F5F3F4FED91FC911197808185FD06C0A0
:10381000842F8A95F1F7808185FFFACFE881F981BD
:1038200090832617370740F3DF91CF911F910F91B7
:1038300008950F931F93CF93DF938C01FB019A019F
:10384000880F991F800F911FEC01CC0FDD1FCC0F4B
:10385000DD1FC80FD91FCC0FDD1FCC5DD24E8C8D64
:103860009D8D019741F495E8892F8A95F1F7892F6D
:103870008A95F1F7F9CF81E090E09D8F8C8F6A8D6A
:103880007B8D888D998DAF010E940A09688D798D95
:10389000C8010E94D21B1D8E1C8EDF91CF911F91FB
:1038A0000F910895CF93DF93FB01DA019C01220F62
:1038B000331F280F391FE901CC0FDD1FCC0FDD1F8F
:1038C000C20FD31FCC0FDD1FCC5DD24E8C8D9D8DD2
:1038D000019741F495E8892F8A95F1F7892F8A9508
:1038E000F1F7F9CF81E090E09D8F8C8F6A8D7B8D11
:1038F000888D998DAF019D010E94E008688D798DBA
:103900008091470A9091480A0E94D21B1D8E1C8EFE
:10391000DF91CF910895BC018091470A9091480AA8
:103920000E94D21B0895A0E0B0E0E9E9FCE10C940C
:10393000FC579E01265F3F4F8E819F816885798568
:10394000A9010E94D91A2096E2E00C941858A0E030
:10395000B0E0EDEAFCE10C94FC579E01265F3F4F7E
:103960008E819F8168857985A9010E942A1B2096F6
:10397000E2E00C941858A0E0B0E0E1ECFCE10C941B
:10398000FC57FE013696619171918091470A9091A2
:10399000480AAF010E94D91A2096E2E00C94185808
:1039A000A0E0B0E0E6EDFCE10C94FC57FE01369699
:1039B000619171918091470A9091480AAF010E94EC
:1039C0002A1B2096E2E00C941858A0E0B0E0EBEE41
:1039D000FCE10C94FC579E01265F3F4F8E819F8136
:1039E00068857985A9010E94191C2096E2E00C9453
:1039F0001858A0E0B0E0EFEFFCE10C94FC579E01FA
:103A0000265F3F4F8E819F8168857985A9010E943D
:103A1000521C2096E2E00C941858A0E0B0E0E3E1DC
:103A2000FDE10C94FC57FE013696619171918091F5
:103A3000470A9091480AAF010E94191C2096E2E0C3
:103A40000C941858A0E0B0E0E8E2FDE10C94FC57BB
:103A5000FE013696619171918091470A9091480AD2
:103A6000AF010E94521C2096E2E00C941858EF928D
:103A7000FF920F931F937C01880F991F8E0D9F1D3E
:103A80008C01000F111F000F111F080F191F000FCD
:103A9000111F0C5D124EF801808D918D0E948C34A7
:103AA000F801868197810E948C34F801828993897C
:103AB0000E948C340FB6F8940F92F701EE0FFF1F9F
:103AC000EE0FFF1FEE0FFF1FEE0CFF1CEE0DFF1D94
:103AD000E35BF64FA481B5818C918F7D8C9304803C
:103AE000F581E02D80818F7780830F900FBE1F912D
:103AF0000F91FF90EF900895A0E0B0E0E2E8FDE1C3
:103B00000C94F257EC015A016B017901C8010E9433
:103B1000FF349C01009709F4C1C04E01880C991C28
:103B2000F401EC0FFD1FCF01880F991F880F991F1B
:103B3000E80FF91FEE0FFF1FEC5DF24E0FB6F89481
:103B40000F9211821082228333832483358337833B
:103B50002683200F311F31872087138702870F901C
:103B60000FBEC7010E94FF349C01009709F1F401C8
:103B7000EC0FFD1FCF01880F991F880F991FE80FC9
:103B8000F91FEE0FFF1FE05DF24E0FB6F8940F9293
:103B900011821082228333832483358337832683E3
:103BA0002E0D3F1D31872087F386E2860F900FBED2
:103BB000C7010E94FF349C01C4018C0F9D1FFC01B2
:103BC000EE0FFF1FEE0FFF1FE80FF91FEE0FFF1F95
:103BD000EC5DF24E208F318FF38EE28E158E148EB7
:103BE0000FB6F8940F928E01000F111FCE01880FAF
:103BF000991F880F991F880F991F080F191F035BC2
:103C0000164FD8011896ED90FC901997C601B50192
:103C10006050774F824C9F4F660F771F881F991F08
:103C2000660F771F881F991FAA0CBB1CCC1CDD1CBC
:103C3000AA0CBB1CCC1CDD1CAA0CBB1CCC1CDD1CA8
:103C4000A60195010E94CA5721503040F7013183E7
:103C50002083FE01EE0FFF1FEE0FFF1FEC0FFD1F75
:103C6000EE0FFF1FE15BF64F0190F081E02D82E047
:103C70008083D8011496ED91FC91159788E9808393
:103C80001696ED91FC91179786E080830F900FBEFA
:103C9000CE01CDB7DEB7ECE00C940E584E01880C87
:103CA000991C5FCFEF92FF920F931F939093C91DC2
:103CB0008093C81D4093CA1D5093CB1D6093CC1DAB
:103CC0007093CD1D3093C31D2093C21DE092C41D7F
:103CD000F092C51D0093C61D1093C71D1F910F9133
:103CE000FF90EF900895843080F490E0FC01EE0F97
:103CF000FF1FEE0FFF1FEE0FFF1FE80FF91FEE5320
:103D0000F24E24A535A5C90108952FEF30E0C90171
:103D10000895282F8430D0F490E0FC01EE0FFF1FAF
:103D2000EE0FFF1FEE0FFF1FE80FF91FEE53F24ECD
:103D300084A595A50197039748F42093131E84A9A1
:103D40008093141E21E030E0C901089520E030E0A6
:103D5000C90108958091131E089590E0FC01EE0FB3
:103D6000FF1FEE0FFF1FEE0FFF1FE80FF91FEE53AF
:103D7000F24E86A597A5089590E0FC01EE0FFF1F77
:103D8000EE0FFF1FEE0FFF1FE80FF91FEE53F24E6D
:103D900082A993A9089520E030E09091121E98170F
:103DA00011F0C901089521E030E0C9010895809320
:103DB000131E90E0FC01EE0FFF1FEE0FFF1FEE0F32
:103DC000FF1FE80FF91FEE53F24E77A766A753AB1C
:103DD00042AB81E090E095A784A708953091121E30
:103DE000EEEEFDE120E080819181039731F02F5FBD
:103DF00039962430C1F78FEF08953330C1F7822F01
:103E0000089520E030E090E0FC01EE0FFF1FEE0F80
:103E1000FF1FEE0FFF1FE80FF91FEE53F24E84A5B0
:103E200095A5039711F0C901089521E030E0C9017B
:103E3000089580914A0AE091191EF0911A1EE80F28
:103E4000F11D908180E2808380914A0A8F5F809388
:103E50004A0A8A3010F010924A0A892F0895982F42
:103E600080538A3048F08151863038F0892F81564E
:103E7000863028F4892F87550895865F089580E05D
:103E80000895982F8A3040F08A50863018F4892F90
:103E9000895C089580E30895805D089580E590E051
:103EA00090931C1E80931B1E86E080931D1E80E055
:103EB00090E06FE772E00E94B31A0895A2E8B0E0C4
:103EC000E4E6FFE10C94FA579C011BAA1CAA1DAA68
:103ED0001EAAFE01F7968CE4DF011D928A95E9F790
:103EE0008091FA029091FB029A838983FE013396B6
:103EF00080E3DF011D928A95E9F72130310509F44D
:103F000048C021303105C8F12230310509F44DC0D7
:103F10009E012F5F3F4FD901EFE9F2E084E101906C
:103F20000D928150E1F700D000D0EDB7FEB7319689
:103F30008E010D5C1F4FADB7BEB712961C930E934A
:103F4000119782EE92E093838283358324830E94CB
:103F5000BC088DB79EB706960FB6F8949EBF0FBEED
:103F60008DBF8091C21D9091C31DB8010E94B31AEC
:103F7000CE57DF4FE4E00C9416589E012F5F3F4F61
:103F8000D901EFE9F2E084E101900D928150E1F76F
:103F9000CACF9E012F5F3F4FD901E3EBF2E088E1EA
:103FA00001900D928150E1F7BECF9E012F5F3F4FF0
:103FB000D901EBECF2E087E101900D928150E1F73D
:103FC000B2CFA2E8B0E0E7EEFFE10C94FA57482F39
:103FD0001BAA1CAA1DAA1EAAFE01F7968CE4DF01EB
:103FE0001D928A95E9F78091FA029091FB029A83DB
:103FF0008983FE01339680E3DF011D928A95E9F7FC
:104000006130710509F45BC06130710508F44BC083
:104010006230710509F45FC09E012F5F3F4FD901E7
:10402000ECE3F3E086E101900D928150E1F7EDB70A
:10403000FEB738970FB6F894FEBF0FBEEDBFADB711
:10404000BEB711968E010D5C1F4F1283018382E56E
:1040500093E013969C938E931297E42FF0E0EE0F6B
:10406000FF1FEB58F64F8081918115969C938E939C
:10407000149717963C932E9316970E94BC088DB701
:104080009EB708960FB6F8949EBF0FBE8DBF809165
:10409000C21D9091C31DB8010E94B31ACE57DF4FC5
:1040A000E4E00C9416589E012F5F3F4FD901ECE2DB
:1040B000F3E087E001900D928150E1F7B8CF9E01C7
:1040C0002F5F3F4FD901E3E3F3E089E001900D92C8
:1040D0008150E1F7ACCF9E012F5F3F4FD901ECE358
:1040E000F3E086E101900D928150E1F7A0CFA0E8C6
:1040F000B0E0EDE7F0E20C94F257282F843008F09E
:104100009FC0A82EBB244501880C991C880C991CC3
:10411000880C991C6401CA0CDB1C82EC9DE1C80E62
:10412000D91ED6019C968D919C919D9701970397DE
:1041300008F086C02093131ED4968C918093141E91
:104140009BE1E92EF12CFA82E9828091C81D9091C1
:10415000C91D8E010F5F1F4FB8010E94B31A83E57E
:1041600090E09A8389838091C81D9091C91DB80100
:104170000E94B31A00D000D0EDB7FEB73196ADB7AC
:10418000BEB712961C930E93119783E693E0938328
:104190008283D601D4968C91848315820E94BC08B8
:1041A000EDB7FEB736960FB6F894FEBF0FBEEDBF63
:1041B0008091C81D9091C91DB8010E94B31AFA825E
:1041C000E9828091C81D9091C91DB8010E94B31A5F
:1041D00083E490E09A8389838091C81D9091C91DE2
:1041E000B8010E94B31AD601D0962C91D097D196DF
:1041F0003C91C901DC01E6E6F3E088E001900D9214
:104200008150E1F7F401EA0DFB1DEE53F24E82E01E
:1042100090E095A784A786E090E097A786A713AAC9
:1042200012AA8091ED1D84AB8093141E8FEF8093B2
:10423000121E1092161E1092151E21E030E002C0D0
:1042400020E030E0C901C058DF4FECE00C940E587C
:10425000A3E8B0E0EEE2F1E20C94F3577C015B01DD
:104260009090131E6E010894C11CD11CC60160E21F
:1042700070E040E850E00E942508F7018081882323
:1042800009F46EC020E030E000E010E015C08A3094
:10429000C9F0F601E20FF31F80832F5F3F4F0F5FDE
:1042A0001F4FF70101900020E9F73197EE19FF0940
:1042B000E017F10708F454C0F701E00FF11F808107
:1042C0008D3029F72115310551F32C0D3D1DF901D4
:1042D0001082C6016EE673E047E050E00E944E088F
:1042E000009709F445C0C60166E773E04AE050E074
:1042F0000E944E08009709F484C0C60161E873E08B
:1043000044E150E00E944E08009709F4A2C0C601A3
:1043100066E973E042E050E00E944E08009709F41D
:10432000A1C0C60169E973E045E050E00E944E0873
:10433000009709F49EC0C6016FE973E04BE050E0BE
:104340000E944E08009709F4ACC0C60160E270E01C
:1043500040E850E00E942508198220E030E09FCF1D
:1043600022E030E0C901CD57DF4FEBE00C940F584D
:10437000F1E0AF16B10409F497C082E0A816B104C9
:1043800009F04EC08985582F5053982F9154CE571D
:10439000DF4F9883C258D040B82FB753E82FE1566B
:1043A000CD57DF4FE883C358D040A82FA7558B8542
:1043B000482F4053082F0154782F7753F82FF15688
:1043C000CF57DF4FF883C158D040682F6755109101
:1043D000131E3091141EEEEEFDE120E083E0E82E86
:1043E000F12C80819181029709F485C02F5F399665
:1043F0002430B9F71093131E3093141E21E030E0DF
:10440000B1CF0EEE1DE1FF24F8018081918102976A
:10441000029748F0F394075F1F4FF4E0FF16A1F7EF
:1044200021E030E09FCF2091141E9C85892F80537E
:104430008A3028F08151863008F083C0865F2817C3
:1044400049F78F2D0E9477201092161E1092151E8C
:10445000E1CF82E090E09093CF1D8093CE1D21E0CC
:1044600030E080CF1092161E1092151E21E030E031
:1044700079CF892D90E0FC01EE0FFF1FEE0FFF1F9B
:10448000EE0FFF1FE80FF91FEE53F24E82E090E0AF
:1044900095A784A71092161E1092151E20E030E0FA
:1044A00061CF20E030E05ECF9985292F20532A305C
:1044B00008F453C0892F8154863008F048C0292F52
:1044C00027532093ED1D2093141E8091131E90E01E
:1044D000FC01EE0FFF1FEE0FFF1FEE0FFF1FE80F97
:1044E000F91FEE53F24E24AB82E090E095A784A72B
:1044F00021E030E037CF90855A30B8F5852F9817F6
:1045000009F074CF82819381069709F06FCF909163
:10451000ED1D5A3008F440C0CE57DF4F8881C25895
:10452000D040863008F048C08B2F981709F05ECF36
:104530004A30E8F5842F342F8087F182E082122FF1
:1045400055CF892F8156863000F180E078CF892FB2
:104550008156863018F5292F27552093ED1D20937D
:10456000141E8091131E90E0B3CFCE57DF4F888189
:10457000C258D040863060F0CD57DF4F8881C35895
:10458000D040863038F080E0BACF892F875557CF9A
:104590008B2FB5CF8A2FB3CF852FC7CF1092ED1DAC
:1045A0001092141E8091131E90E020E091CF0630EF
:1045B00060F4872F372FC0CFCD57DF4F8881C35886
:1045C000D040863060F080E0B0CFCF57DF4F988189
:1045D000C158D040963028F4862F362FADCF8A2F81
:1045E000A4CF80E030E0A8CFA0E5B0E0EAEFF2E2AF
:1045F0000C94F4577C015E010894A11CB11CC50108
:1046000060E270E040E550E00E942508F7018081FB
:10461000882309F440C020E030E000E010E052E0E0
:10462000C52ED12C14C08A30C1F0F501E20FF31F62
:1046300080832F5F3F4F0F5F1F4FF70101900020D6
:10464000E9F73197EE19FF09E017F10738F1F701A3
:10465000E00FF11F80818D3031F72115310559F3BD
:104660002A0D3B1DF9011082C50166E973E042E0A5
:1046700050E00E944E080097B9F441E0C42ED12CBE
:10468000C50160E270E040E550E00E942508198213
:1046900020E030E0D0CF62E0C62ED12CC601C05B56
:1046A000DF4FEAE00C941058C50169E973E045E07A
:1046B00050E00E944E08009719F7CC24DD24E0CF8B
:1046C000A1E0B0E0E6E6F3E20C94FA5780E28983D9
:1046D0008E010F5F1F4F07C08091C81D9091C91DAB
:1046E000B8010E9422178091C81D9091C91D0E9497
:1046F0000917892B89F72196E4E00C941658EF925C
:10470000FF921F93DF93CF93CDB7DEB7E2970FB63B
:10471000F894DEBF0FBECDBF182F7E010894E11CB8
:10472000F11CC70160E270E042E350E00E942508FE
:104730000E946023E12FF0E0EA32F105D0F5EE5857
:10474000FF4F0C942358ADB7BEB71A970FB6F89425
:10475000BEBF0FBEADBFEDB7FEB731961296FC924D
:10476000EE92119787ED93E09383828380919D0968
:1047700090919E09958384838091D01D9091D11D45
:10478000978386838091D21D9091D31D91878087D6
:104790000E94BC088DB79EB70A960FB6F8949EBFCC
:1047A0000FBE8DBF8091C81D9091C91DB7010E9499
:1047B000B31A8091C21D9091C31D65EF73E00E94F2
:1047C000B31A8091C21D9091C31DB7010E94B31A04
:1047D000E2960FB6F894DEBF0FBECDBFCF91DF914A
:1047E0001F91FF90EF90089500D000D0EDB7FEB775
:1047F0003196ADB7BEB71296FC92EE9211978BEA46
:1048000093E0938382838091AF099091B00995835F
:1048100084830E94BC088DB79EB706960FB6F894A5
:104820009EBF0FBE8DBF8091C81D9091C91DB7015D
:104830000E94B31ABECF00D000D0EDB7FEB73196BC
:10484000ADB7BEB71296FC92EE9211978BEA93E049
:10485000938382838091AD099091AE09D8CFADB793
:10486000BEB71C970FB6F894BEBF0FBEADBFEDB775
:10487000FEB731961296FC92EE92119781EE93E07C
:10488000938382838091AB099091AC099583848353
:104890008091DE1D9091DF1D978386838091E01DBE
:1048A0009091E11D918780878091E21D9091E31D99
:1048B000938782870E94BC088DB79EB70C960FB66F
:1048C000F8949EBF0FBE8DBF8091C81D9091C91DE9
:1048D000B7010E94B31A6DCF00D000D0EDB7FEB77C
:1048E0003196ADB7BEB71296FC92EE9211978BEA55
:1048F00093E0938382838091A9099091AA0987CF3D
:1049000000D000D0EDB7FEB73196ADB7BEB7129666
:10491000FC92EE9211978BEA93E0938382838091CD
:10492000A7099091A80973CF00D000D0EDB7FEB7CA
:104930003196ADB7BEB71296FC92EE9211978BEA04
:1049400093E0938382838091A5099091A6095FCF1C
:1049500000D000D0EDB7FEB73196ADB7BEB7129616
:10496000FC92EE9211978BEA93E09383828380917D
:10497000A3099091A4094BCF00D000D0EDB7FEB7AA
:104980003196ADB7BEB71296FC92EE9211978BEAB4
:1049900093E0938382838091A1099091A20937CFFC
:1049A00000D000D0EDB7FEB73196ADB7BEB71296C6
:1049B000FC92EE9211978BEA93E09383828380912D
:1049C0009F099091A00923CFADB7BEB718970FB636
:1049D000F894BEBF0FBEADBFEDB7FEB731961296CD
:1049E000FC92EE92119780ED93E093838283809105
:1049F0009B0990919C09958384838091D21D90910D
:104A0000D31D978386830E94BC088DB79EB70896F6
:104A10000FB6F8949EBF0FBE8DBF8091C81D9091B8
:104A2000C91DB7010E94B31AC4CEADB7BEB718975F
:104A30000FB6F894BEBF0FBEADBFEDB7FEB731964F
:104A40001296FC92EE9211978EEB93E09383828301
:104A50008091990990919A09958384838091D81DBA
:104A600086831782D0CFADB7BEB718970FB6F8942C
:104A7000BEBF0FBEADBFEDB7FEB731961296FC922A
:104A8000EE9211978EEB93E0938382838091970946
:104A900090919809958384838091D61D868317828F
:104AA000B2CFADB7BEB71A970FB6F894BEBF0FBE60
:104AB000ADBFEDB7FEB731961296FC92EE9211970C
:104AC00087ED93E0938382838091B9099091BA092D
:104AD000958384838091E91D9091EA1D9783868355
:104AE0008091EB1D9091EC1D51CEADB7BEB71897DC
:104AF0000FB6F894BEBF0FBEADBFEDB7FEB731968F
:104B00001296FC92EE9211978EEB93E09383828340
:104B10008091930990919409958384838091DA1D03
:104B20008683178270CF00D000D0EDB7FEB73196E4
:104B3000ADB7BEB71296FC92EE9211978BEA93E056
:104B4000938382838091BB099091BC0960CE00D091
:104B500000D0EDB7FEB73196ADB7BEB71296FC9256
:104B6000EE9211978BEA93E0938382838091BD0943
:104B70009091BE094CCEADB7BEB718970FB6F8945A
:104B8000BEBF0FBEADBFEDB7FEB731961296FC9219
:104B9000EE9211978EEB93E0938382838091BF090D
:104BA0009091C009958384838091E61D8683178246
:104BB0002ACF00D000D0EDB7FEB73196ADB7BEB763
:104BC0001296FC92EE9211978BEA93E09383828384
:104BD00080918B0990918C091ACEADB7BEB71A9708
:104BE0000FB6F894BEBF0FBEADBFEDB7FEB731969E
:104BF0001296FC92EE92119785EC93E09383828358
:104C00008091890990918A09958384838091D01D30
:104C10009091D11D978386838091DC1D80871186BA
:104C2000B7CDADB7BEB718970FB6F894BEBF0FBEDD
:104C3000ADBFEDB7FEB731961296FC92EE9211978A
:104C40008EEB93E09383828380918709909188090A
:104C5000958384838091D41D86831782D4CE00D01F
:104C600000D0EDB7FEB73196ADB7BEB71296FC9245
:104C7000EE9211978BEA93E0938382838091B70938
:104C80009091B809C4CD00D000D0EDB7FEB73196F1
:104C9000ADB7BEB71296FC92EE9211978BEA93E0F5
:104CA000938382838091B3099091B409B0CD00D0F1
:104CB00000D0EDB7FEB73196ADB7BEB71296FC92F5
:104CC000EE9211978BEA93E0938382838091B109EE
:104CD0009091B2099CCD8091131E90E0FC01EE0FE3
:104CE000FF1FEE0FFF1FEE0FFF1FE80FF91FEE5320
:104CF000F24E84A595A5892B09F45BCDADB7BEB75F
:104D000018970FB6F894BEBF0FBEADBFEDB7FEB794
:104D100031961296FC92EE9211978EEE93E0938369
:104D200082838091C7099091C8099583848380917B
:104D3000141E3CCFADB7BEB71A970FB6F894BEBFDE
:104D40000FBEADBFEDB7FEB731961296FC92EE9254
:104D5000119780EB93E09383828380917B099091FC
:104D60007C09958384838091CA1D9091CB1DA0916D
:104D7000CC1DB091CD1D86839783A087B18708CDC8
:104D800000D000D0EDB7FEB73196ADB7BEB71296E2
:104D9000FC92EE9211978BEA93E093838283809149
:104DA000790990917A0933CD00D000D0EDB7FEB7E4
:104DB0003196ADB7BEB71296FC92EE9211978BEA80
:104DC00093E09383828380917709909178091FCD36
:104DD00000D000D0EDB7FEB73196ADB7BEB7129692
:104DE000FC92EE9211978BEA93E0938382838091F9
:104DF0007509909176090BCDA1E0B0E0E2E0F7E211
:104E00000C94EC572C01CB0120E2298365E070E083
:104E10000E94A3573B01EE24FF2400E010E0AA24E7
:104E2000BB24E0E22E2EEEE43E2E4E010894811CBF
:104E3000911CC1010197F1F76201CE0CDF1C80913A
:104E4000C81D9091C91D0E940917892BA9F0809156
:104E5000C81D9091C91DB4010E9422178981F601D5
:104E600081936F010894E11CF11C0F5F1F4F003804
:104E7000110528F30E9460230894A11CB11C6A1438
:104E80007B04B8F6E40CF51CF70110828091C21D7A
:104E90009091C31D68EF73E00E94B31A8091C21D08
:104EA0009091C31DB2010E94B31A8091C21D9091CE
:104EB000C31D65EF73E00E94B31AC8012196E2E1B9
:104EC0000C940858A1E8B0E0E8E6F7E20C94EC573F
:104ED0002C018091FA029091FB029A838983FE0152
:104EE00033968EE7DF011D928A95E9F7F201108271
:104EF00019825E010894A11CB11CC5016EE170E02D
:104F00000E94FC269C018981882309F4A9C0232BD7
:104F100009F4A6C0850166247724CC24DD24EE2480
:104F2000FF248824992491E0292E312C18C091E087
:104F3000C916D10409F4C0C0253409F478C0089416
:104F4000E11CF11CF50101900020E9F73197EA1905
:104F5000FB090F5F1F4FEE15FF0508F485C0F80130
:104F60002081322F2B3109F49DC0233509F492C0E2
:104F7000253439F08091151E9091161E892B09F465
:104F800079C0C114D10499F68091151E9091161E16
:104F9000029791F6432F40535091141EA091121E78
:104FA0007091131EE6EFFDE120E0632F6154832F23
:104FB0008156CF57DF4F8883C158D040B9EADB2EE6
:104FC000D30EB32FB75390814A3060F4842F9817D3
:104FD00079F0952F2F5F3996243081F0592F9081E9
:104FE0004A30A0F3663008F06FC08B2F981789F70E
:104FF000A22F722F2F5F3996243081F79093141EC1
:10500000A093121E7093131E1092181E1092171E5A
:10501000F201E80DF91D30830894811C911CA1E078
:10502000CA2ED12CD8012C91253409F088CF80913B
:10503000151E9091161E8130910509F080CF909336
:10504000181E8093171E1092161E1092151EBFEF89
:10505000B093121EF1E06F2E712CCC24DD246FCFA3
:10506000D2011C9266247724C301CF57DF4FE2E1BF
:105070000C940858C50162E070E04AE20E942821C1
:105080000197D1F1D8012C91322F2B3159F02335D2
:1050900009F077CF8091151E9091161E0197E9F0C7
:1050A00033E56FCF3092161E2092151E1092181EF7
:1050B0001092171E3BE165CF8091151E9091161E30
:1050C000029709F039CFA0CFCF57DF4F8881C15861
:1050D000D040863078F080E07ACFE2E0F0E0F093E4
:1050E000161EE093151E1092181E1092171E33E51F
:1050F00043E252CF8D2D6BCF81E0682E712CC2CF51
:105100008F929F92BF92CF92DF92EF92FF920F9376
:105110001F93DF93CF93CDB7DEB7C058D0400FB603
:10512000F894DEBF0FBECDBFB82E83E08B1508F418
:1051300042C0CB2CDD244601880C991C880C991C9C
:10514000880C991C7401EC0CFD1CA2ECBDE1EA0E6C
:10515000FB1EF70184A595A50197039760F5B09212
:10516000131E84A98093141E8091FA029091FB0271
:105170009A838983FE0133968EE7DF011D928A951B
:10518000E9F7198289E20E947F238E010F5F1F4F8A
:10519000C80168EE73E00E94FC26C80161E070E07F
:1051A00049E20E9428218C0189E2B8010E94E11F96
:1051B00001301105B1F020E030E0C901C058DF4FE7
:1051C0000FB6F894DEBF0FBECDBFCF91DF911F9118
:1051D0000F91FF90EF90DF90CF90BF909F908F90B6
:1051E0000895F70180A991A99C01D901E6E6F3E0B1
:1051F00088E001900D928150E1F7F401EC0DFD1D66
:10520000EE53F24E15A614A686E090E097A786A767
:1052100013AA12AA8FEF84AB5091131E5B1561F095
:105220008093141E8FEF8093121E1092161E109200
:10523000151E21E030E0C1CFEEEEFDE120E030E0D0
:10524000808191810297029738F02F5F3F4F399606
:1052500024303105A9F7E6CF5217B9F32093131E76
:10526000F901EE0FFF1FEE0FFF1FEE0FFF1FE20F02
:10527000F31FEE53F24E84A98093141ED3CFA0E8FF
:10528000B0E0E5E4F9E20C94FA57282F8430E8F511
:1052900090E0FC01EE0FFF1FEE0FFF1FEE0FFF1F50
:1052A000E80FF91FEE53F24E84A595A501970397D9
:1052B00060F52093131E84A98093141E8091FA0236
:1052C0009091FB029A838983FE0133968EE7DF017A
:1052D0001D928A95E9F7198285E20E947F238E014B
:1052E0000F5F1F4FC8016CE271E00E94FC26C801ED
:1052F00061E070E045E20E9428218C0185E2B8015E
:105300000E94E11F0130110541F020E030E0C901A9
:10531000C058DF4FE4E00C9416581092161E1092FD
:10532000151E21E030E0F3CF0F931F93CF93DF934F
:105330008091C01D882329F180E590E090931C1E88
:1053400080931B1E86E080931D1E80E090E06FE737
:1053500072E00E94B31A20911D1EEEEEFDE1C0E046
:10536000D0E080819181892B11F42630A9F021961B
:105370003996C430D105A9F7DF91CF911F910F91D4
:10538000089580E090E060E274E00E94B31ADF913B
:10539000CF911F910F91089520911B1E30911C1EDB
:1053A000C093131EFE01EE0FFF1FEE0FFF1FEE0F47
:1053B000FF1FEC0FFD1FEE53F24E86E090E097A723
:1053C00086A733AB22AB01E010E015A704A78C2F12
:1053D0000E943F29C093C11D80E090E064E074E02A
:1053E0000E94B31A10934C0A00934B0AC5CFA0E851
:1053F000B0E0EDEFF9E20C94F6578091FA0290914B
:10540000FB029A838983FE0133968EE7DF011D92AA
:105410008A95E9F78091C21D9091C31D60E574E003
:105420000E94B31A198280E00E947F237E010894B3
:10543000E11CF11CC7016CE271E00E94FC26C7016F
:105440000E94F422BC0180E00E94E11F198280E0EA
:105450000E947F23C7016CE271E00E94FC26C70115
:105460000E94F4228C0180E0B8010E94E11F01300B
:10547000110509F47DC0CC24DD24D394198281E088
:105480000E947F23C7016CE271E00E94FC26C701E5
:105490000E94F4228C0181E0B8010E94E11F0130DA
:1054A000110509F463C0D39419828CE10E947F2313
:1054B000C7016CE271E00E94FC26C7010E94F42241
:1054C0008C018CE1B8010E94E11F0130110509F443
:1054D0004BC0D39419828BE00E947F23C7016CE2FA
:1054E00071E00E94FC26C7010E94F4228C018BE02F
:1054F000B8010E94E11F0130110509F49BC0D3944B
:10550000198289E10E947F23C7016CE271E00E9449
:10551000FC26C7010E94F4228C0189E1B8010E9497
:10552000E11F0130110541F1D3948091D41D909178
:10553000D51D029741F1CC20A1F0DD2079F401E0E6
:1055400010E0C8010E945E1F1093CF1D0093CE1D76
:10555000C801C058DF4FE8E00C94125802E010E098
:10556000F0CF00E010E0EDCFC394B4CFC3949CCF54
:10557000CC24C394DD2482CFC3948091D41D909118
:10558000D51D0297C1F619828BE10E947F23C701C6
:105590006CE271E00E94FC26C7010E94F4228C019B
:1055A0008BE1B8010E94E11F0130110509F444C0EC
:1055B000D394198289E00E947F23C7016CE271E0D5
:1055C0000E94FC26C7010E94F4228C0189E0B801E8
:1055D0000E94E11F0130110599F1D39419828AE0EC
:1055E0000E947F23C7016CED75E00E94FC26C70175
:1055F0000E94F4228C018AE0B8010E94E11F013070
:105600001105E1F0D39419828DE10E947F23C70137
:105610006CE271E00E94FC26C7010E94F4228C011A
:105620008DE1B8010E94E11F0130110509F485CF19
:10563000D39481CFC39464CFC394BBCFC394E3CF3F
:10564000C394CCCFEF92FF921F93CF93DF9310922E
:10565000C31D1092C21D20E835E240E050E02093C7
:10566000C41D3093C51D4093C61D5093C71D82E0D5
:1056700090E09093C91D8093C81D2093CA1D30935C
:10568000CB1D4093CC1D5093CD1D1092CF1D109279
:10569000CE1D80E890E00E94FF348093D01D90934F
:1056A000D11DDC01E0E8F4E089E001900D92815029
:1056B000E1F780E890E00E94FF348093D21D909340
:1056C000D31DDC01E9E8F4E089E001900D928150FE
:1056D000E1F782E090E09093D51D8093D41D109265
:1056E000D71D1092D61D84E090E09093D91D809331
:1056F000D81D1092DB1D1092DA1D8BE090E0909384
:10570000DD1D8093DC1D8FE090E00E94FF348093CC
:10571000DE1D9093DF1DDC01E2E9F4E08CE00190F6
:105720000D928150E1F78FE090E00E94FF3480936A
:10573000E01D9093E11DDC01EEE9F4E08EE00190C4
:105740000D928150E1F78FE090E00E94FF3480934A
:10575000E21D9093E31DDC01E2E9F4E08CE00190AE
:105760000D928150E1F786E090E09093E51D8093E3
:10577000E41D80E590E09093E71D8093E61D81E0B5
:105780008093E81D8CEA94E09093EA1D8093E91DD4
:1057900082EB94E09093EC1D8093EB1D1092161E0B
:1057A0001092151E8FEF8093ED1DCEEEDDE1E6E049
:1057B000EE2EF12C1FEF8FE090E00E94FF348C83DF
:1057C0009D83DC01E6E6F3E088E001900D928150D4
:1057D000E1F719821882FB82EA821F821E821887F3
:1057E00029968EE1C231D80731F7188319831A83BD
:1057F0001092161E1092151E81E090E09E838D83FC
:10580000DF91CF911F91FF90EF9008956F927F925B
:105810008F929F92AF92BF92CF92DF92EF92FF92C0
:105820000F931F934C015A016B0139010E94222BE7
:105830009092C91D8092C81DA092CA1DB092CB1D26
:10584000C092CC1DD092CD1D7092C31D6092C21D1E
:10585000E092C41DF092C51D0093C61D1093C71D94
:105860001F910F91FF90EF90DF90CF90BF90AF907E
:105870009F908F907F906F900895EF92FF920F937B
:105880001F937B018C018091E91D9091EA1DB70166
:105890000E9437088091EB1D9091EC1DB8010E9489
:1058A00037081F910F91FF90EF900895BC018091F0
:1058B000D01D9091D11D0E9437080895AEE0B0E050
:1058C000E4E6FCE20C94F057C982DA82EB82FC82B7
:1058D0000D831E832F83388749875A876B877C8780
:1058E0008D879E870B811C81ED80FE80CF80D884C0
:1058F000A984BA848B849C846D847E8469817A8136
:105900008091D01D9091D11D0E9437088091D21DA9
:105910009091D31DB8010E943708F092D51DE092F6
:10592000D41DD092D71DC092D61DB092D91DA09281
:10593000D81D9092DB1D8092DA1D7092DD1D609261
:10594000DC1D2E96EEE00C940C58A6E0B0E0EBEADD
:10595000FCE20C94F85749835A836B837C838D83D4
:105960009E830B811C81ED80FE8069817A8180910C
:10597000DE1D9091DF1D0E9437088091E01D9091FF
:10598000E11DB8010E9437088091E21D9091E31D4E
:10599000B7010E9437082696E6E00C9414580F933E
:1059A0001F93CF93DF93382F2091C01D222389F1BD
:1059B0008091A21D831711F1E5EAFDE190E004C09A
:1059C000808133968317D1F09F5F9217C8F32B30F5
:1059D00000F180E090E061E275E00E94B31A20E5FA
:1059E00033EC40E951E0CA010197F1F72150304012
:1059F000D1F7DF91CF911F910F91089580E090E052
:105A000068EB74E00E94B31ADF91CF911F910F9160
:105A10000895422F50E08A01000F111FE801C40FC2
:105A2000D51FC456D24E3E83DB010D900020E9F70E
:105A30001197A61BB70BA832B105A8F4FB01808112
:105A4000882381F5F801E40FF51FE456F24E278113
:105A50003085C901DC01E3EFF4E08EE001900D92A6
:105A60008150E1F70AC0FB018081882359F38F81BF
:105A7000988548E250E00E945C088091C01D8F5FCD
:105A80008093C01D8B3018F08AE08093C01D80E0A9
:105A900090E061E075E00E94B31ADF91CF911F9111
:105AA0000F9108958F819885AD010E945C08E5CF24
:105AB0008F929F92AF92BF92CF92DF92FF920F93FD
:105AC0001F93CF93DF936C015B014A0180E890E064
:105AD0000E94FF34FC0190939D1D80939C1D1082B9
