:100000000C949D020C94BF020C94BF020C94BF028E
:100010000C94BF020C94BF020C94BF020C94BF025C
:100020000C94BF020C94BF020C94BF020C94BF024C
:100030000C94BF020C94BF020C94BF020C94BF023C
:100040000C94BF020C94BF020C94BF020C94BF022C
:100050000C94BF020C94BF020C94BF020C94BF021C
:100060000C94BF020C9402280C9401290C94BF023A
:100070000C94BF020C94BF020C94BF020C94BF02FC
:100080000C948D240C94BF020C94BF020C94BF02FC
:100090000C94D9270C94D8280C94BF020C94BF025E
:1000A0000C94BF020C94BF020C94BF020C94BF02CC
:1000B0000C94BF020C94BF020C94BF020C94BF02BC
:1000C0000C94BF020C94BF020C94BF020C94B02796
:1000D0000C94AF280C94BF020C9487270C948628AC
:1000E0000C94BF020D0A0A0A476F6F646279652E8D
:1000F0002E2E206E6F20737061636520666F7220F4
:1001000069646C65207461736B210D0A000D0A0A25
:100110004672656520486561702053697A653A20AA
:1001200025750D0A000D0A0A0A48656C6C6F205788
:100130006F726C64210D0A005265644C454420487E
:10014000696768576174657220402025750D0A0043
:100150006E616E00696E660000407A10F35A00A06E
:10016000724E18090010A5D4E80000E87648170080
:1001700000E40B54020000CA9A3B000000E1F505C0
:10018000000080969800000040420F000000A0860A
:1001900001000000102700000000E803000000003C
:1001A0006400000000000A000000000001000000E0
:1001B00000002C76D888DC674F0823DFC1DFAE59FA
:1001C000E1B1B796E5E3E453C63AE651997696E88D
:1001D000E6C28426EB898C9B62ED407C6FFCEFBC11
:1001E0009C9F40F2BAA56FA5F490055A2AF75C933C
:1001F0006B6CF9676DC11BFCE0E40D47FEF520E672
:10020000B500D0ED902E0300943577050080841E54
:10021000080000204E0A000000C80C333333330FAF
:10022000986E12831141EF8D2114893BE65516CF4C
:10023000FEE6DB18D1844B381BF77C1D901DA4BB58
:10024000E424203284725E228100C9F124ECA1E50D
:100250003D27A0E0B0E0EFE2F1E00C94962CE9E05D
:10026000CE2EAA24A39488248A94982C772473945D
:1002700005C00F900FBEBB2009F05FC080918614AF
:10028000882309F480C080917B148F5F80937B1456
:10029000B090CB140FB6F8940F9280917B148150DC
:1002A00080937B1480917B14882319F780917514B7
:1002B0008823F9F28091C214882371F1E091C71468
:1002C000F091C814C681D781CE010C960E945625A4
:1002D0008E010E5F1F4FC8010E9456259E89809196
:1002E0007614891718F4909376149E899C9DC0010A
:1002F000112488579B4EB8010E940525E091731484
:10030000F09174149E8986899817A0F2A0927714B0
:100310008091C214882391F680918414882309F077
:100320004DC080917714813009F0A3CF0E949024B2
:100330000F900FBEBB2009F4A1CF0FB6F8940F9217
:10034000E091D014F091D11406811781C801029672
:100350000E94562580917514815080937514809168
:1003600086148150809386140F900FBEF801878900
:10037000908D0E943E09C8010E943E09809186141A
:10038000882309F080CF80918814823008F476CFDA
:100390000E94902473CF809184148F5F8093841483
:1003A000DD2480917714882309F095C0DD2009F0C1
:1003B00092C080918414815080938414809184141D
:1003C000882309F4AECF80917B14882321F7809194
:1003D00078149091791401969093791480937814FD
:1003E000E0907814F0907914E114F10409F520916B
:1003F000BE143091BF148091C0149091C114909399
:10040000BF148093BE143093C1142093C014809104
:100410007A148F5F80937A14E091BE14F091BF1428
:100420008081882309F073C090924102809240023B
:100430008091400290914102E816F90608F44EC0FE
:10044000DD24E091BE14F091BF1480818823F1F186
:10045000E091BE14F091BF140580F681E02DC681B5
:10046000D7818A819B81E816F90608F461C08E0164
:100470000E5F1F4FC8010E9456258C899D89892BCC
:1004800021F0CE010C960E9456259E89809176140B
:10049000891718F4909376149E899C9DC0011124AD
:1004A00088579B4EB8010E940525E0917314F09186
:1004B00074149E898689981720F2DD24D394E091E4
:1004C000BE14F091BF148081882311F690924102EE
:1004D0008092400204C0709277146BCFDD24E091CB
:1004E0007314F0917414868990E0FC01EE0FFF1FE5
:1004F000EE0FFF1FEE0FFF1FE80FF91FE857FB4E2F
:100500008081823008F44DCFDD24D3944ACFE0912E
:10051000BE14F091BF140580F681E02D0680F781AE
:10052000E02D82819381909341028093400280CF9D
:100530009093410280934002D2CF11241FBECFEF8F
:10054000D1E2DEBFCDBF00E00CBF12E0A0E0B2E020
:10055000E4E9F9E500E00BBF02C007900D92AA366E
:10056000B107D9F71BBE15E1AAE6B2E001C01D92A2
:10057000AC35B107E1F70E94A9080C94C82C0C9483
:1005800000008F938FB78F93F8948091E4148F5F5E
:100590008093E4148091E5148F4F8093E51480914B
:1005A000E6148F4F8093E6148091E7148F4F809369
:1005B000E7148F918FBF8F910895A1E1B0E0E3EE32
:1005C000F2E00C94912C3C017F876E876A01FC015C
:1005D00017821682838181FD03C06FEF7FEF71C3A5
:1005E0009E012F5F3F4F398B288BF3012381EE85CE
:1005F000FF8523FD859123FF8191FF87EE87882367
:1006000009F45CC3853251F4EE85FF8523FD8591A5
:1006100023FF8191FF87EE87853229F490E0B301B3
:100620000E946407E2CF982F10E0882499241032AA
:10063000B0F49B3269F09C3228F4903251F093323E
:1006400071F40BC09D3239F0903349F4116028C029
:100650001260146025C0186023C0106121C017FD0E
:100660002AC0892F80538A3078F416FF06C0FAE03A
:100670009F9E902C1124980E13C03AE0839E802CEC
:100680001124880E10620CC09E3221F416FD16C390
:10069000106406C09C3611F4106802C0983659F4F4
:1006A000EE85FF8523FD959123FF9191FF87EE87CE
:1006B000992309F0BCCF892F8554833020F4812FF2
:1006C0008061905E07C0892F8556833008F0A1C1F4
:1006D000812F8F7E86FD02C076E0972E6FE3F62E87
:1006E000F822953619F4F0E4FF2A07C0963619F47B
:1006F00020E8F22A02C091109A94F7FE0BC03BE367
:10070000391520F427E05CE3B52E0EC0B92CB39464
:1007100027E00AC047E0491528F427E0BB2447E05A
:10072000942E02C0292DBB24C60104969D878C8778
:10073000F6016081718182819381AE014F5F5F4FCD
:100740000B2D0E9466066C010981202E332400FFC8
:1007500004C003FD02C01DE209C0F1FE02C01BE29D
:1007600005C0F2FC02C010E001C010E2C1018C70B3
:100770009070892BB9F1112311F483E001C084E05A
:10078000881510F088240AC0881AF3FC07C080E29C
:1007900090E0B3010E9464078A94C9F7112329F0FD
:1007A000812F90E0B3010E94640723FE03C000E59F
:1007B00011E00EC004E511E00BC0E114F10409F0F2
:1007C000805290E0B3010E9464070F5F1F4F05C085
:1007D000EF2CFF24F0E1EF22FF24F801849188231D
:1007E00061F714C1F7FE12C0BC0C24FE04C08A815C
:1007F000813309F4BA941B141CF0BB24B3942DC0AC
:10080000F8E0FB1550F538E0B32E27C0F6FC25C004
:10081000892D90E08C159D054CF02CEFC2162FEF22
:10082000D20624F030E8F32A01C09A94992049F0C6
:10083000E2E0F0E0EC0FFD1FE90DF11D8081803357
:10084000A1F3F7FE0AC0B92CB394892D90E0C81625
:10085000D90614F0992401C09C18F7FC03C025E0C8
:1008600030E009C01C141D041CF021E030E003C07E
:1008700096012F5F3F4F112311F02F5F3F4F9920BB
:1008800029F0892D90E00196280F391F882D90E0DE
:100890002817390714F0882401C0821A4F2C5524D8
:1008A000C20189709070892B39F008C080E290E015
:1008B000B3010E9464078A948820C1F7112329F0AC
:1008C000812F90E0B3010E94640743FE07C008C077
:1008D00080E390E0B3010E9464078A948820C1F706
:1008E000F7FE46C08601D7FE02C000E010E07601A8
:1008F0000894E11CF11CE01AF10A41E050E04C0FB1
:100900005D1FE40EF51E26014B185108892D90E05D
:10091000AA24BB24A81AB90A5FEF0F3F150729F4D0
:100920008EE290E0B3010E946407C016D10634F055
:10093000401651061CF4F701808101C080E301508C
:1009400010400894E11CF11C0A151B052CF090E0E6
:10095000B3010E946407E0CF0C151D0539F49A819C
:10096000963318F4953311F424FE81E390E04BC0E4
:100970008A81813309F00F7E90E0B3010E94640701
:100980009920A1F08EE290E0B3010E94640712E08A
:10099000E1E0F0E0EC0FFD1FE10FF11D1F5F808132
:1009A00090E0B3010E9464079A9491F744FC03C05D
:1009B00085E690E002C085E490E0B3010E94640700
:1009C000D7FC05C0C114D10441F404FF06C0D09483
:1009D000C194D108D3948DE201C08BE290E0B301C1
:1009E0000E94640780E305C08F5F26EF3FEFC20ED1
:1009F000D31E3AE0C316D104BCF790E0B3010E94C5
:100A00006407C601C096B3010E946407CC84DD84EC
:100A100052C1933631F0933799F0933509F059C0AC
:100A200023C0F601808189835E010894A11CB11C5A
:100A300022E030E0C20ED31E21E0E22EF12C12C0E3
:100A4000F601A080B18016FD03C06FEF7FEF02C0FA
:100A5000692D70E022E030E0C20ED31EC5010E9475
:100A600059077C011F7713C0F601A080B18016FDE5
:100A700003C06FEF7FEF02C0692D70E022E030E02D
:100A8000C20ED31EC5010E9447077C01106813FFE8
:100A900007C01BC080E290E0B3010E9464078A9403
:100AA000882D90E0E816F906A8F30FC0F50117FDB0
:100AB000859117FF81915F0190E0B3010E94640767
:100AC00081108A940894E108F108E114F10471F7A7
:100AD000F2C0943611F0993689F517FF08C0F60177
:100AE000208131814281538184E090E00AC0F60187
:100AF000808191819C01442737FD4095542F82E0ED
:100B000090E0C80ED91E9FE6F92EF12257FF09C0CA
:100B100050954095309521953F4F4F4F5F4F90E84E
:100B2000F92ACA01B901AE014F5F5F4F2AE030E0F8
:100B30000E940808E82EE889EE1A41C0953721F492
:100B40001F7E2AE030E01CC0197F9F3661F090378D
:100B500020F4983509F0B2C00FC0903739F09837BB
:100B600009F0ACC004C028E030E00AC0106114FDF8
:100B7000146020E130E004C014FD166020E132E092
:100B800017FF08C0F601608171818281938144E082
:100B900050E008C0F60180819181BC0180E090E0C6
:100BA00042E050E0C40ED51EAE014F5F5F4F0E9481
:100BB0000808E82E5889E51A8FE7F82EF122F6FE8C
:100BC0000BC08EEFF822E91438F4F4FE07C0F2FCF3
:100BD00005C09FEEF92202C01E2D01C0192DF4FEA2
:100BE0000DC0FE01EE0DF11D8081803319F4E9EE98
:100BF000FE2208C01F5FF2FE05C003C08F2D86785D
:100C000009F01F5F0F2DF3FC14C0F0FE0FC0181584
:100C100010F09E2C0BC09E2C980C911A182D06C01B
:100C200080E290E0B3010E9464071F5F1815C0F3D3
:100C300004C0181510F4811A01C0882404FF0FC0E5
:100C400080E390E0B3010E94640702FF1DC001FD34
:100C500003C088E790E00EC088E590E00BC0802FCD
:100C6000867891F001FF02C08BE201C080E2F7FCC0
:100C70008DE290E0B3010E94640706C080E390E03B
:100C8000B3010E9464079A94E914C0F3EA94E1E086
:100C9000F0E0EC0FFD1FEE0DF11D808190E0B3013F
:100CA0000E946407EE2091F706C080E290E0B30155
:100CB0000E9464078A948820C1F797CCF30166816B
:100CC0007781CB016196E2E10C94AD2C283008F0DD
:100CD00027E03327DA01990F311D87FD91600096D7
:100CE0006105710539F432602E5F3D9330E32A953A
:100CF000E1F708959F3F30F080387105610509F0F4
:100D00003C5F3C5F3D93913008F08068911DDF931C
:100D1000CF931F930F93FF92EF92192F987F969581
:100D2000E92F96959695E90FFF27EE54FE4F9927E8
:100D30003327EE24FF24A701E701059008940794C8
:100D400028F4360FE71EF81E491F511D660F771F46
:100D5000881F991F0694A1F70590079428F4E70EC1
:100D6000F81E491F561FC11D770F881F991F661F48
:100D70000694A1F70590079428F4F80E491F561F12
:100D8000C71FD11D880F991F661F771F0694A1F7F3
:100D90000590079420F4490F561FC71FD81F990FBD
:100DA000661F771F881F0694A9F784911095177006
:100DB00041F0D695C79557954795F794E7941A95BE
:100DC000C1F7E8E5F1E068941590159135916591CA
:100DD000959105907FE27395E118F10A430B560B4C
:100DE000C90BD009C0F7E10CF11E431F561FC91FE4
:100DF000D01D7EF4703311F48A95E6CFE89401504B
:100E000030F0080F0AF40027021708F4202F23956A
:100E1000022F7A3328F079E37D932A95E9F710C001
:100E20007D932A9589F6069497956795379517953A
:100E30001794E118F10A430B560BC90BD00998F02F
:100E400023957E9173957A3308F070E37C93201399
:100E5000B8F77E9170617D9330F0839571E37D9357
:100E600070E32A95E1F71124EF90FF900F911F9105
:100E7000CF91DF91992787FD90950895FC0105900A
:100E80000020E9F7809590958E0F9F1F0895FC0133
:100E90000590615070400110D8F7809590958E0FA5
:100EA0009F1F0895DC0101C06D9341505040E0F751
:100EB0000895FC016150704001900110D8F78095B1
:100EC00090958E0F9F1F08950F931F93CF93DF93DD
:100ED0008C01EB018B8181FF1BC082FF0DC02E8135
:100EE0003F818C819D812817390764F4E881F9815D
:100EF0000193F983E88306C0E885F985802F199569
:100F0000892B31F48E819F8101969F838E8302C04D
:100F10000FEF1FEFC801DF91CF911F910F9108953F
:100F2000AEE0B0E0E6E9F7E00C949F2C0E891F8953
:100F300086E08C831A8309838FEF9FE79E838D83DE
:100F40009E01265E3F4FCE010196688D798DA901E5
:100F50000E94DD022F813885020F131FF8011082D5
:100F60002E96E4E00C94BB2CAEE0B0E0EAEBF7E0A8
:100F70000C949F2C8C0177FF02C060E070E86150F8
:100F800070407E836D831A83098386E08C83CE0153
:100F90000196BA01A9010E94DD022D813E8137FD33
:100FA00009C0EF81F8852E173F070CF4F901E00F17
:100FB000F11F10822E96E4E00C94BB2CAEE0B0E062
:100FC000E4EEF7E00C949F2C8C0177FF02C060E008
:100FD00070E8615070407E836D831A8309838EE0D0
:100FE0008C83CE010196BA01A9010E94DD022D81F8
:100FF0003E8137FD09C0EF81F8852E173F070CF4BD
:10100000F901E00FF11F10822E96E4E00C94BB2C46
:10101000FA01AA27283051F1203181F1E8946F9329
:101020006E7F6E5F7F4F8F4F9F4FAF4FB1E03ED0CF
:10103000B4E03CD0670F781F891F9A1FA11D680F6D
:10104000791F8A1F911DA11D6A0F711D811D911DA0
:10105000A11D20D009F468943F912AE0269F112415
:101060003019305D3193DEF6CF010895462F477079
:10107000405D4193B3E00FD0C9F7F6CF462F4F70D4
:10108000405D4A3318F0495D31FD4052419302D032
:10109000A9F7EACFB4E0A6959795879577956795D8
:1010A000BA95C9F700976105710508959B01AC01D8
:1010B0000A2E06945795479537952795BA95C9F7FF
:1010C000620F731F841F951FA01D0895282F809104
:1010D0006A02882359F481E080936A0280910101B9
:1010E0008860809301016D9A6B9A279A20FF0CC04B
:1010F00080910201877F8093020121FF0CC07398C9
:1011000022FD0CC0759A0895809102018860809339
:10111000020121FDF4CF739A22FFF4CF7598089550
:10112000982F80916A02882359F481E080936A02A3
:10113000809101018860809301016D9A6B9A279AD2
:10114000992311F42F9A08952F980895279A2F9A8A
:10115000FFCFAF92BF92CF92DF92EF92FF920F93A9
:101160001F9380E090E040E052EC61E070E02FEFF0
:1011700030E000E410E00E94AA2B9093E3148093E7
:10118000E21485E291E00E94992989EF98E060E0FD
:1011900072E040E051E020E030E003E0EE24FF2484
:1011A000CC24DD24AA24BB240E9410210E943309F0
:1011B00000D00F922DE031E0EDB7FEB732832183EE
:1011C000948383830E94492B0F900F900F900F9070
:1011D0000E94152284EE90E00E94992980E090E020
:1011E0001F910F91FF90EF90DF90CF90BF90AF9045
:1011F0000895A2E0B0E0EFEFF8E00C949D2C81E0C0
:1012000090E00E9466080E94B50A9A838983279A13
:101210008E010F5F1F4F88E3E82E81E0F82E2F9A92
:10122000C80162E370E00E94051F2F98C80168ECB6
:1012300070E00E94051F80E090E00E94D20B00D079
:101240000F92EDB7FEB73196ADB7BEB71296FC92CE
:10125000EE921197828313820E94492B0F900F9078
:101260000F900F90DCCF80913E0290913F02089545
:1012700080913C0290913D02089508950F931F9331
:10128000CF93DF93009789F0EC0124974A815B812B
:1012900020916B0230916C02C90184239523892B24
:1012A00021F088819981892B29F0DF91CF911F91BD
:1012B0000F91089520953095242335233B832A836D
:1012C0000E94AF0A0A811B8180913E0290913F02E9
:1012D000800F911F90933F0280933E02EFE6F4E16E
:1012E00001C0FC01808191818C179D07D0F3BF0163
:1012F0009F0142815381CF01840F951FC817D907E1
:1013000049F1FE019E01EB01A881B981200F311F37
:10131000A217B30759F0B183A0836E177F0719F0A6
:10132000DB01ED93FC930E94C90FBFCF80916D024A
:1013300090916E02A817B90771F312968D919C9146
:101340001397800F911F938382838D919C9191833A
:101350008083E3CFCA01800F911F938382838C0126
:10136000D2CFA0E0B0E0E7EBF9E00C94992CEC01CF
:101370000E94AF0A80916D0290916E02892B99F0C4
:1013800040916B0250916C02CE0184239523892BEE
:10139000E1F1C0E0D0E00E94C90FCE01CDB7DEB7C9
:1013A000EAE00C94B52C80E792E09093701480935F
:1013B0006F1410927214109271142BE634E1309372
:1013C0006E0220936D0210926E1410926D141092A2
:1013D0006C1410926B148BEF91E1909373028093D5
:1013E0007202309371022093700280913E029091BC
:1013F0003F02049790933F0280933E0280E090E882
:1014000090936C0280936B02BBCF209711F2BE01C8
:101410006C5F7F4F09F4BDCFA0903E02B0903F02B9
:10142000A616B70608F4B5CF00916F14109170148A
:10143000AFE6B4E106C088819981009741F08C0144
:10144000DE01E801EA81FB81E617F707A0F3E090EF
:101450006D02F0906E020E151F0509F49ACFCD9023
:10146000DC901197E801888199818D939C93CF013D
:10147000861B970B8930910590F1D801A60FB71FF5
:1014800013969C938E931297F80173836283EFE611
:10149000F4E101C0FC01808191818A179B07D0F3A0
:1014A000EF019F0162817381CF01860F971FA817FB
:1014B000B90799F1FD019D0162817381A881B9810C
:1014C000260F371FA217B307B9F1B183A083CE1738
:1014D000DF0761F1F983E883E801EA81FB81950187
:1014E0002E1B3F0B30933F0220933E0280913C0223
:1014F00090913D022817390720F430933D02209344
:101500003C02E6012496E42BF52BD8011396FC93BC
:10151000EE9312971D921C923ECF12968D919C9144
:101520001397860F971F93838283C6CFD801129695
:10153000ED91FC911397D3CFEA16FB0669F0129652
:101540008D919C911397860F971F938382838D9122
:101550009C9191838083BBCFF182E082B8CF809150
:101560007B148F5F80937B1408950FB6F8940F92CD
:1015700020917814309179140F900FBEC90108950D
:101580002091781430917914C901089580917514CF
:101590000895FC0180917A14808380917814909151
:1015A0007914928381830895FC01DB010FB6F894CE
:1015B0000F9260917814709179142D913C9111974C
:1015C0008FEF2F3F3807F9F090917A1480818917B7
:1015D000F1F0418152816417750708F5CB01841B36
:1015E000950B82179307D8F4261B370B240F351F52
:1015F0002D933C9380917A148083809178149091FC
:1016000079149283818380E00F900FBE0895418109
:101610005281CB01841B950B8217930728F381E03D
:101620000F900FBE089581E0809377140895FC0118
:10163000009711F082A1089580E00895FC010097C1
:1016400009F062A30895A0E0B0E0E9E2FBE00C94A9
:10165000932C3C018B015A01DB018C91882309F406
:101660008DC01196ED91FC9112970280F381E02DCF
:101670001296FC93EE93119723E0C22ED12CC60E46
:10168000D71EEC15FD0509F483C086809780FF24E2
:101690009FE0E92E82E0482E512C82819381F8014F
:1016A00092838183C816D90609F455C0D8011196D2
:1016B000ED91FC911297C681D781FE9CB001112457
:1016C000660D771DFB01D183C0836996D383C283E6
:1016D000699789A18483B682A5828E898783F3E086
:1016E000AF16B10409F43FC08BA1FB0180878CA128
:1016F0009DA1AEA1BFA181879287A387B487AF893F
:10170000B88D8C91853A09F040C020E030E040E08F
:1017100050E02F5F3F4F4F4F5F4FFD01E20FF31F30
:101720008081853AB1F3C901DB011E969C938E93AB
:101730001D97F394C815D90511F1D8011196ED91B3
:10174000FC91129782819381F80192838183C8165C
:10175000D90609F0ABCFD60112968D919C911397C3
:1017600092838183A3CF8C899D89892B09F4BCCF77
:10177000DB0116965C924E921597B6CFFF248F2D03
:10178000CDB7DEB7E0E10C94AF2C80E090E0CCCF99
:101790008281938111968C93119712969C939C0150
:1017A000F90173CF0097B1F0FC01A789B08D8C913E
:1017B000853AA9F420E030E040E050E02F5F3F4F51
:1017C0004F4F5F4FFD01E20FF31F8081853AB1F368
:1017D000822F0895E0917314F0917414E6CF80E0A5
:1017E00008952091731430917414C9010895E09103
:1017F0007314F091741484859585A0917314B0913D
:101800007414E0917314F0917414468924E030E06C
:10181000241B31091D963C932E931C9708950F931A
:101820001F93CF93DF93EC01009731F19E898BA139
:10183000981711F18E010E5F1F4FC8010E945625A7
:101840002BA12E8B8C859D8597FD06C084E090E0B2
:10185000821B91099D878C879E89809176148917B8
:1018600010F49093761489E0989FC0011124885752
:101870009B4EB8010E940525DF91CF911F910F91DA
:1018800008950F931F93CF93DF93EC01009741F1DD
:101890003E89E0917314F09174148689381700F52D
:1018A0008C859D8597FD0BC0E0917314F0917414A5
:1018B000268984E090E0821B91099D878C8789E0CE
:1018C000389FC001112488579B4E2A853B852817D5
:1018D000390759F0E0917314F091741486898E8B56
:1018E000DF91CF911F910F9108958E010E5F1F4FD1
:1018F000C8010E945625E0917314F09174149689E2
:101900009E8B80917614891710F49093761489E059
:10191000989FC001112488579B4EB8010E9405254D
:10192000DFCF0F931F93CF93DF93FC017068718318
:101930006083C681D7810E9456258E010E5F1F4F9E
:10194000C8010E9456259E8980917614891710F44B
:101950009093761489E0989FC001112488579B4E7C
:10196000B8010E940525E0917314F09174149E89CA
:101970008689891740F481E080937714DF91CF91B5
:101980001F910F91089580E0DF91CF911F910F91EA
:1019900008950F931F93CF93DF93DC011596ED917C
:1019A000FC91169706811781E8012C96CE010E94C2
:1019B000562580917B14882331F5E8012296CE01CB
:1019C0000E945625F801968980917614891708F1AE
:1019D00089E0989FC001112488579B4EBE010E9448
:1019E0000525E0917314F0917414D80156969C91DA
:1019F0008689891788F481E080937714DF91CF91ED
:101A00001F910F91089582EC94E1BE010E9405257B
:101A1000E8CF90937614DCCF80E0DF91CF911F91D7
:101A20000F910895A0E0B0E0E8E1FDE00C949B2C5C
:101A300080917B14882309F089C08091781490915B
:101A4000791401969093791480937814E090781427
:101A5000F0907914E114F10419F52091BE1430913D
:101A6000BF148091C0149091C1149093BF148093BF
:101A7000BE143093C1142093C01480917A148F5FE8
:101A800080937A14E091BE14F091BF148081882372
:101A900009F086C08FEF9FEF909341028093400240
:101AA0008091400290914102E816F90608F460C066
:101AB000DD2449E0C42EE091BE14F091BF14808172
:101AC0008823E9F1E091BE14F091BF140580F681FE
:101AD000E02DC681D7818A819B81E816F90608F43A
:101AE00077C08E010E5F1F4FC8010E9456258C895A
:101AF0009D89892B21F0CE010C960E9456259E8946
:101B000080917614891710F4909376149C9DC001EF
:101B1000112488579B4EB8010E940525E09173144B
:101B2000F09174149E898689981728F2DD24D39445
:101B3000E091BE14F091BF148081882319F68FEFD5
:101B40009FEF909341028093400213C080918414D0
:101B50008F5F80938414DD2480917714882311F0A3
:101B6000DD24D3948D2DCDB7DEB7E8E00C94B72CEF
:101B7000DD24E0917314F0917414868990E0FC01E7
:101B8000EE0FFF1FEE0FFF1FEE0FFF1FE80FF91FF5
:101B9000E857FB4E80818230F8F2DD24D394DCCF0D
:101BA000E091BE14F091BF140580F681E02D06800F
:101BB000F781E02D828193819093410280934002CE
:101BC0008091400290914102E816F90688F270CFA8
:101BD0009093410280934002CCCFDF92EF92FF922C
:101BE0000F931F93CF93DF93EC018A859B85845DD0
:101BF000944141F010E0812FCDB7DEB7E7E00C94BF
:101C0000B82C42C08C899D8924E1823C920791F3D3
:101C1000892B81F780917B14882349F5DE88E09138
:101C20007314F0917414068952E0E52EF12CEC0E39
:101C3000FD1EC7010E9456256E8980917614861775
:101C400010F46093761410E0D01608F011E089E0EB
:101C5000689FC001112488579B4EB7010E9405253B
:101C6000812FCDB7DEB7E7E00C94B82C0DC02C96D1
:101C700082EC94E1BE010E94052510E0812FCDB7D2
:101C8000DEB7E7E00C94B82C0F931F93CF93DF934C
:101C90008A01E0917314F0917414706875876487F9
:101CA0006091731470917414645F7F4F0E940525D6
:101CB000809173149091741402960E9456258FEFB0
:101CC0000F3F180709F440C0C0917814D0917914DF
:101CD000C00FD11FE0917314F0917414D383C283A9
:101CE0008091781490917914C817D907E0F0809109
:101CF000BE149091BF1460917314709174146E5F50
:101D00007F4F0E9424258091400290914102C81784
:101D1000D90720F4D0934102C0934002DF91CF91C4
:101D20001F910F9108958091C0149091C1146091FA
:101D30007314709174146E5F7F4F0E942425DF919D
:101D4000CF911F910F910895609173147091741445
:101D50006E5F7F4F84ED94E10E940525DF91CF9166
:101D60001F910F9108950F931F93CF93DF938B01D2
:101D70006091731470917414645F7F4F0E942425E6
:101D8000809173149091741402960E9456258FEFDF
:101D90000F3F180709F440C0C0917814D09179140E
:101DA000C00FD11FE0917314F0917414D383C283D8
:101DB0008091781490917914C817D907E0F0809138
:101DC000BE149091BF1460917314709174146E5F7F
:101DD0007F4F0E9424258091400290914102C817B4
:101DE000D90720F4D0934102C0934002DF91CF91F4
:101DF0001F910F9108958091C0149091C11460912A
:101E00007314709174146E5F7F4F0E942425DF91CC
:101E1000CF911F910F910895609173147091741474
:101E20006E5F7F4F84ED94E10E940525DF91CF9195
:101E30001F910F910895EF92FF920F931F9380913E
:101E40007B14882309F093C010927714809184004A
:101E5000909185007C0100E010E0E0927C14F0920B
:101E60007D1400937E1410937F14809180149091C0
:101E70008114A0918214B09183148E159F05A00740
:101E8000B107B0F4E0917314F0917414A8019701B4
:101E9000281B390B4A0B5B0B84A195A1A6A1B7A106
:101EA000820F931FA41FB51F84A395A3A6A3B7A356
:101EB000E0928014F09281140093821410938314A2
:101EC000E0917314F0917414A0917314B091741490
:101ED0002081318157968D919C9158978217930755
:101EE00090F08091731490917414609173147091B8
:101EF0007414675E7F4F0E94A60805C08091761417
:101F00008150809376148091761490E0FC01EE0F5E
:101F1000FF1FEE0FFF1FEE0FFF1FE80FF91FE8571F
:101F2000FB4E8081882351F39091761489E0989F2D
:101F3000D0011124A857BB4E1196ED91FC91129738
:101F40000280F381E02D1296FC93EE931197CD0160
:101F50000396E817F90799F0868197819093741496
:101F6000809373141F910F91FF90EF90089581E07B
:101F7000809377141F910F91FF90EF9008958281C5
:101F8000938111968C93119712969C939C01F90161
:101F9000E3CFA0E0B0E0EFECFFE00C94982C0FB69C
:101FA000F8940F9280917B14815080937B148091E0
:101FB0007B14882309F0EDC080917514882309F4FF
:101FC000E8C0F9E0FF2EEE24E3948091C214882348
:101FD00069F1E091C714F091C814C681D781CE0190
:101FE0000C960E9456258E010E5F1F4FC8010E945D
:101FF00056259E8980917614891710F49093761453
:102000009F9DC001112488579B4EB8010E94052551
:10201000E0917314F09174149E8986899817A8F240
:10202000E09277148091C214882399F680918414E9
:10203000882309F4AAC080918414882309F4A5C0D8
:10204000E9E0CE2EAA24AA94BA2C992493948091E4
:102050007B14882309F083C08091781490917914BF
:1020600001969093791480937814E0907814F0900E
:102070007914E114F10409F52091BE143091BF14D4
:102080008091C0149091C1149093BF148093BE149A
:102090003093C1142093C01480917A148F5F809381
:1020A0007A14E091BE14F091BF148081882309F066
:1020B00097C0B0924102A09240028091400290915C
:1020C0004102E816F90608F473C0DD24E091BE145D
:1020D000F091BF1480818823E9F1E091BE14F09162
:1020E000BF140580F681E02DC681D7818A819B814E
:1020F000E816F90608F485C08E010E5F1F4FC8016F
:102100000E9456258C899D89892B21F0CE010C9641
:102110000E9456259E8980917614891710F4909319
:1021200076149C9DC001112488579B4EB8010E94D3
:102130000525E0917314F09174149E89868998178F
:1021400028F2DD24D394E091BE14F091BF14808175
:10215000882319F6B0924102A09240022AC08091D1
:1021600084148F5F80938414DD24809177148823F6
:10217000E1F4DD20D1F480918414815080938414A3
:1021800080918414882309F062CF80917714813084
:1021900041F080E00F900FBECDB7DEB7EBE00C94BE
:1021A000B42C0E94902481E0F5CF90927714E3CF75
:1021B000DD24E0917314F0917414868990E0FC01A1
:1021C000EE0FFF1FEE0FFF1FEE0FFF1FE80FF91FAF
:1021D000E857FB4E8081823040F2DD24D394C5CF96
:1021E000E091BE14F091BF140580F681E02D0680C9
:1021F000F781E02D82819381909341028093400288
:102200005CCF9093410280934002D3CFA4E0B0E032
:10221000ECE0F1E10C94912C1C01DC011C9280910A
:1022200075148983909175148FE0989FC0011124D3
:102230000E94B1092C01009709F4ADC089819091E9
:102240007B149F5F90937B1490917514891708F409
:10225000A6C084E0C82E1C82CA94BC81EFE0BE9F59
:1022600050011124A40CB51CF9E0CF9E700111247B
:1022700048E854E1E40EF51ED7018C91882309F457
:1022800084C11196ED91FC9112970280F381E02DAB
:102290001296FC93EE93119703E0802E912C8E0CF6
:1022A0009F1CE815F90509F42CC566807780DD24AC
:1022B00082819381F701928381838816990609F4BC
:1022C0005FC0D7011196ED91FC91129766817781DD
:1022D000BFE0DB9E800111240A0D1B1DF8017183F4
:1022E0006083675E7F4F7383628369517040DB0157
:1022F00091968C919197848341E050E05683458379
:1023000056968C915697878393968C919397808756
:1023100094968D919D910D90BC91A02D818792876F
:10232000A387B487FB01A789B08D8C91853A09F00A
:10233000D4C220E030E040E050E02F5F3F4F4F4FED
:102340005F4FFD01E20FF31F8081853AB1F3C901B0
:10235000D8011E969C938E931D97D394661677068C
:1023600009F414C1D7011196ED91FC911297828165
:102370009381F701928381838816990609F0A1CF92
:10238000D40112968D919C9113979283818399CF5A
:10239000C2010E943E092496E2E10C94AD2C1B82FE
:1023A0000FB6F8940F9280917B14815080937B1428
:1023B00080917B14882309F0A4C18091751488232F
:1023C00009F49FC199E0D92ECC24C3948091C21402
:1023D000882399F1E091C714F091C8140681178100
:1023E000C8010C960E94562522E0E22EF12CE00E48
:1023F000F11EC7010E945625F80196898091761436
:10240000891718F49093761496899D9DC001112424
:1024100088579B4EB7010E940525E0917314F091F7
:102420007414D80156969C918689981778F2C092B8
:1024300077148091C214882369F6809184148823CC
:1024400009F459C180918414882309F454C189E0A6
:10245000A82E80917B14882309F035C180917814CF
:102460009091791401969093791480937814C09088
:102470007814D0907914C114D10419F52091BE14A8
:102480003091BF148091C0149091C1149093BF14E7
:102490008093BE143093C1142093C01480917A1499
:1024A0008F5F80937A14E091BE14F091BF14808105
:1024B000882309F004C4EFEFFFEFF0934102E093AB
:1024C00040028091400290914102C816D90608F45A
:1024D000DDC3BB24E091BE14F091BF14808188233A
:1024E00009F44CC0E091BE14F091BF140580F68150
:1024F000E02D06811781D80112968D919C9113973A
:10250000C816D90608F4F5C3B2E0EB2EF12CE00EA4
:10251000F11EC7010E945625F80184899589892BEF
:1025200021F0C8010C960E945625D80156969C9120
:10253000569780917614891720F4909376145696C6
:102540009C919A9DC001112488579B4EB7010E940F
:102550000525E0917314F0917414D80156969C915E
:102560008689981708F4B6CFBB24B394E091BE14C3
:10257000F091BF148081882309F0B4CF4FEF5FEF53
:10258000509341024093400282C3DD24BC81BD0DC3
:10259000BC83CC2009F060CE8FE0B89F500111249D
:1025A000A40CB51CE090BE14F090BF14F70180811C
:1025B000882309F495C10180F281E02D0280F38126
:1025C000E02DD7011296FC93EE93119713E0812E24
:1025D000912C8E0C9F1CE815F90509F4A3C36680A5
:1025E0007780DD24AFE0CA2E82819381F701928348
:1025F00081838816990609F45EC0D7011196ED9182
:10260000FC91129766817781DC9C800111240A0D70
:102610001B1DF80171836083675E7F4F7383628344
:1026200069517040DB0191968C919197848342E0CF
:1026300050E05683458356968C91569787839396A0
:102640008C919397808794968D919D910D90BC91DC
:10265000A02D81879287A387B487FB01A789B08DBE
:102660008C91853A09F042C320E030E040E050E030
:102670002F5F3F4F4F4F5F4FFD01E20FF31F8081F0
:10268000853AB1F3C901D8011E969C938E931D978C
:10269000D3946616770609F424C1D7011196ED91FB
:1026A000FC91129782819381F7019283818388162E
:1026B000990609F0A2CFD40112968D919C9113979F
:1026C000928381839ACF809184148F5F8093841446
:1026D000BB2480917714882309F0D4C2BB2009F071
:1026E000D1C2809184148150809384148091841489
:1026F000882309F0AECE80917714813011F40E94C6
:1027000090240F900FBEEB81E983C401B30124E64E
:1027100030E040E050E00E946F2C59016A01A114A2
:10272000B104C104D10409F433CE1A829A8189819B
:10273000981708F02DCEE7E08E2EE2E09E2E76E18F
:10274000672E72E0772E60C08A812A814DB75EB70E
:102750004A5050400FB6F8945EBF0FBE4DBFADB7A4
:10276000BEB71196EDB7FEB73282218213969C92C6
:102770008E92129790E0FC01EE0FFF1FE80FF91FF9
:10278000CF01880F991F880F991FE80FF91FE40DDB
:10279000F51D8281938115969C938E93149730E05A
:1027A000F901EE0FFF1FE20FF31FCF01880F991FF2
:1027B000880F991FE80FF91FE40DF51D818592859B
:1027C00017969C938E9316971996FC92EE921897F3
:1027D0000E9490074DB75EB7465F5F4F0FB6F89403
:1027E0005EBF0FBE4DBFD1010D900020E9F71197DC
:1027F000A219B3098A818F5F8A839A818981981788
:1028000008F0C6CD2A0E3B1E8A8190E0FC01EE0F37
:10281000FF1FE80FF91FCF01880F991F880F991F1D
:10282000E80FF91FE40DF51D618572858385948598
:10283000A60195010E946F2C79018A01E114F1042F
:102840000105110509F080CF8A812A81ADB7BEB795
:1028500018970FB6F894BEBF0FBEADBF1196EDB777
:10286000FEB73282218213967C926E92129790E08C
:10287000FC01EE0FFF1FE80FF91FCF01880F991F12
:10288000880F991FE80FF91FE40DF51D82819381D0
:1028900015969C938E93149730E0F901EE0FFF1F6D
:1028A000E20FF31FCF01880F991F880F991FE80FC0
:1028B000F91FE40DF51D8185928517969C938E93E3
:1028C00016970E9490074DB75EB7485F5F4F0FB6EF
:1028D000F8945EBF0FBE4DBF86CF80E090E038CD4C
:1028E000DD24CC80CD0C8FE0C89E50011124A40CB7
:1028F000B51CE090C014F090C114F70180818823CA
:1029000009F486C00180F281E02D0280F381E02D80
:10291000D7011296FC93EE93119773E0872E912CBA
:102920008E0C9F1CE815F90509F406C266807780B5
:10293000DD2482819381F701928381838816990631
:1029400009F45EC0D7011196ED91FC911297668152
:102950007781BFE0DB9E800111240A0D1B1DF80169
:1029600071836083675E7F4F7383628369517040B8
:10297000DB0191968C919197848342E050E05683DD
:10298000458356968C915697878393968C9193970F
:10299000808794968D919D910D90BC91A02D8187FB
:1029A0009287A387B487FB01A789B08D8C91853A64
:1029B00009F099C120E030E040E050E02F5F3F4F48
:1029C0004F4F5F4FFD01E20FF31F8081853AB1F356
:1029D000C901D8011E969C938E931D97D3946616B9
:1029E0007706B9F0D7011196ED91FC91129782818B
:1029F0009381F701928381838816990609F0A2CF0B
:102A0000D40112968D919C911397928381839ACFD2
:102A1000DD24ED2CEC0C8FE0E89E60011124C40C49
:102A2000D51C8091CB14882309F47CC0E091CC1490
:102A3000F091CD140280F381E02DF093CD14E0935A
:102A4000CC14B4E1EE3CFB0709F480C1E091CC1456
:102A5000F091CD14A680B780FF246FE0762E54E06D
:102A6000852E912C0280F381E02DF093CD14E0931C
:102A7000CC1444E1EE3CF40709F4FDC0E091CC1421
:102A8000F091CD1466817781F79C800111240C0DA3
:102A90001D1DD80111967C936E93675E7F4F139630
:102AA0007C936E93129769517040FB0181A114963B
:102AB0008C93149716969C928E92159786891796EA
:102AC0008C93179783A118968C9384A195A1A6A1A6
:102AD000B7A1F80181879287A387B487FB01A789F3
:102AE000B08D8C91853A09F0FBC020E030E040E0E9
:102AF00050E02F5F3F4F4F4F5F4FFD01E20FF31F3D
:102B00008081853AB1F3C901D8011E969C938E93BA
:102B10001D97F394A616B70631F0E091CC14F0910E
:102B2000CD14A0CFFF24EF0C8FE0E89E60011124AC
:102B3000C40CD51C8091D414882309F48AC0E09178
:102B4000D514F091D6140280F381E02DF093D614C1
:102B5000E093D514B4E1E73DFB0709F4DCC0E09154
:102B6000D514F091D614A680B780FF2443E0842EBC
:102B7000912C32E0632E712C0280F381E02DF093D2
:102B8000D614E093D51444E1E73DF40709F46CC092
:102B9000E091D514F091D614668177815FE0F59EBF
:102BA000800111240C0D1D1DD80111967C936E938C
:102BB000675E7F4F13967C936E93129769517040B6
:102BC000FB0181A114968C93149716969C928E9279
:102BD0001597868917968C93179784899589892BE1
:102BE00021F016967C926E921597DB0193968C914C
:102BF0009397F801808794968D919D910D90BC914B
:102C0000A02D81879287A387B487FB01A789B08D08
:102C10008C91853A09F072C020E030E040E050E04D
:102C20002F5F3F4F4F4F5F4FFD01E20FF31F80813A
:102C3000853AB1F3C901D8011E969C938E931D97D6
:102C4000F394A616B70631F0E091D514F091D6149E
:102C500093CFFF24FE0CFB8280918400909185002D
:102C60003C01882499249CCB828193819093D61433
:102C70008093D5148DCF828193819093CD148093CE
:102C8000CC14FCCEB1E0B09377142BCDBB24E091F3
:102C90007314F0917414868990E0FC01EE0FFF1F0D
:102CA000EE0FFF1FEE0FFF1FE80FF91FE857FB4E57
:102CB0008081823008F40DCDBB24B3940ACDE0911D
:102CC000BE14F091BF140580F681E02D0680F781D7
:102CD000E02D828193819093410280934002F1CB59
:102CE00080E090E011CF80E090E073CE80E090E053
:102CF000CACC9093410280934002C9CF80E090E01B
:102D00009ACF8281938111968C93119712969C93FE
:102D10009C01F901CACA828193819093D614809351
:102D2000D5141DCF8281938111968C9311971296A1
:102D30009C939C01F90153CC8281938111968C93D1
:102D4000119712969C939C01F901F0CD8281938199
:102D50009093CD148093CC1479CEA3E0B0E0E3EB54
:102D6000F6E10C94912C1C01DC011C9280917514ED
:102D70008983909175148FE0989FC00111240E945F
:102D8000B1095C01009709F4ADC0898190917B1471
:102D90009F5F90937B1490917514891708F4A6C0D7
:102DA00064E0C62E1B82CA94BB81EFE0BE9F400147
:102DB00011248A0C9B1CF9E0CF9E7001112428E895
:102DC00034E1E20EF31ED7018C91882309F482C10D
:102DD0001196ED91FC9112970280F381E02D1296ED
:102DE000FC93EE93119753E0652E712C6E0C7F1CB3
:102DF000E615F70509F4FEC446805780DD2482817C
:102E00009381F701928381836816790609F45FC084
:102E1000D7011196ED91FC91129766817781BFE001
:102E2000DB9E80011124080D191DF8017183608358
:102E3000675E7F4F7383628369517040DB019196B7
:102E40008C919197848321E030E0368325835696D8
:102E50008C915697878393968C91939780879496BD
:102E60008D919D910D90BC91A02D81879287A38714
:102E7000B487FB01A789B08D8C91853A09F0AEC269
:102E800020E030E040E050E02F5F3F4F4F4F5F4F7A
:102E9000FD01E20FF31F8081853AB1F3C901D8012A
:102EA0001E969C938E931D97D3944616570609F44D
:102EB00012C1D7011196ED91FC91129782819381F5
:102EC000F701928381836816790609F0A1CFD301B7
:102ED00012968D919C9113979283818399CFC5010E
:102EE0000E943E092396E2E10C94AD2C77240FB6A4
:102EF000F8940F9280917B14815080937B14809181
:102F00007B14882309F0A2C180917514882309F4E9
:102F10009DC1A9E0DA2ECC24C3948091C2148823E9
:102F200099F1E091C714F091C81406811781C80186
:102F30000C960E945625B2E0EB2EF12CE00EF11E0D
:102F4000C7010E945625F801968980917614891749
:102F500018F49093761496899D9DC001112488578A
:102F60009B4EB7010E940525E0917314F0917414F3
:102F7000D80156969C918689981778F2C09277145A
:102F80008091C214882369F680918414882309F4FF
:102F900057C180918414882309F452C1F9E0CF2EDF
:102FA00044244A94542C6624639480917B1488238F
:102FB00009F02EC180917814909179140196909324
:102FC00079148093781480907814909079148114F7
:102FD000910409F52091BE143091BF148091C01462
:102FE0009091C1149093BF148093BE143093C11478
:102FF0002093C01480917A148F5F80937A14E091AB
:10300000BE14F091BF148081882309F0D1C350927F
:103010004102409240028091400290914102881604
:10302000990608F4ACC3DD24E091BE14F091BF14FE
:103030008081882309F449C0E091BE14F091BF1447
:103040000580F681E02D06811781F8018281938148
:103050008816990608F4C6C3E2E0EE2EF12CE00EC5
:10306000F11EC7010E945625D80154968D919C915E
:103070005597892B21F0C8010C960E945625F8011E
:10308000968980917614891718F49093761496890E
:103090009C9DC001112488579B4EB7010E940525B5
:1030A000E0917314F0917414D80156969C9186891E
:1030B000981708F4B9CFDD24D394E091BE14F091B1
:1030C000BF148081882309F0B7CF5092410240920B
:1030D000400256C3DD24BB81BD0DBB83CC2009F06B
:1030E00062CE8FE0B89F400111248A0C9B1CE090B7
:1030F000BE14F090BF14F7018081882309F471C1D8
:103100000180F281E02D0280F381E02DD70112963B
:10311000FC93EE93119743E0642E712C6E0C7F1C90
:10312000E615F70509F477C346805780DD243FE0B4
:10313000C32E82819381F701928381836816790679
:1031400009F45EC0D7011196ED91FC91129766814A
:103150007781DC9C80011124080D191DF801718311
:103160006083675E7F4F7383628369517040DB01C8
:1031700091968C919197848322E030E03683258369
:1031800056968C915697878393968C9193978087C8
:1031900094968D919D910D90BC91A02D81879287E1
:1031A000A387B487FB01A789B08D8C91853A09F07C
:1031B00016C320E030E040E050E02F5F3F4F4F4F1C
:1031C0005F4FFD01E20FF31F8081853AB1F3C90122
:1031D000D8011E969C938E931D97D394461657063E
:1031E00009F400C1D7011196ED91FC9112978281EB
:1031F0009381F701928381836816790609F0A2CF43
:10320000D30112968D919C911397928381839ACFCB
:10321000809184148F5F80938414DD2480917714CF
:10322000882309F0A9C2DD2009F0A6C28091841488
:1032300081508093841480918414882309F0B5CE42
:1032400080917714813011F40E9490240F900FBE6A
:1032500079821A829A818981981708F040CE65E2B6
:10326000E62E62E0F62E8FC0019709F4B4C000E0AC
:1032700010E08A812A814A816A81EDB7FEB73E97C4
:103280000FB6F894FEBF0FBEEDBFADB7BEB7119637
:10329000328221821396FC92EE92129790E0FC010A
:1032A000EE0FFF1FE80FF91FCF01880F991F880F3E
:1032B000991FE80FF91FEA0DFB1D82819381159676
:1032C0009C938E93149717961C930E93169730E049
:1032D000F901EE0FFF1FE20FF31FCF01880F991FB7
:1032E000880F991FE80FF91FEA0DFB1D87811896BB
:1032F0008C93189719961C92199750E0FA01EE0FCB
:10330000FF1FE40FF51FCF01880F991F880F991F2A
:10331000E80FF91FEA0DFB1D858596851B969C938A
:103320008E931A9770E0FB01EE0FFF1FE60FF71F59
:10333000CF01880F991F880F991FE80FF91FEA0D19
:10334000FB1D84811C968C931C971D961C920E94D9
:103350009007D1010D900020E9F71197A219B30948
:103360008A818F5F8A839A8189812DB73EB7225FD8
:103370003F4F0FB6F8943EBF0FBE2DBF981708F011
:10338000AECD2A0E3B1E8A8190E0FC01EE0FFF1F9E
:10339000E80FF91FCF01880F991F880F991FE80FB9
:1033A000F91FEA0DFB1D858196818230910569F038
:1033B0008330910508F458CF8330910549F0049784
:1033C00009F055CF04E410E054CF02E410E051CFEF
:1033D00003E510E04ECF02E510E04BCF80E090E037
:1033E0005ECDDD24CB80CD0C8FE0C89E4001112442
:1033F0008A0C9B1CE090C014F090C114F7018081EE
:10340000882309F486C00180F281E02D0280F381D7
:10341000E02DD7011296FC93EE93119723E0622ED4
:10342000712C6E0C7F1CE615F70509F4FEC1468071
:103430005780DD2482819381F7019283818368160E
:10344000790609F45EC0D7011196ED91FC911297AF
:1034500066817781BFE0DB9E80011124080D191D74
:10346000F80171836083675E7F4F73836283695164
:103470007040DB0191968C919197848322E030E03B
:103480003683258356968C915697878393968C9195
:103490009397808794968D919D910D90BC91A02DCE
:1034A00081879287A387B487FB01A789B08D8C9110
:1034B000853A09F091C120E030E040E050E02F5F14
:1034C0003F4F4F4F5F4FFD01E20FF31F8081853A61
:1034D000B1F3C901D8011E969C938E931D97D39486
:1034E00046165706B9F0D7011196ED91FC91129747
:1034F00082819381F701928381836816790609F0AE
:10350000A2CFD30112968D919C91139792838183C0
:103510009ACFDD24ED2CEC0C8FE0E89E60011124A5
:10352000CA0CDB1C8091CB14882309F47CC0E09189
:10353000CC14F091CD140280F381E02DF093CD14E2
:10354000E093CC14B4E1EE3CFB0709F478C1E091C0
:10355000CC14F091CD1486809780FF249FE0592EE3
:1035600084E0682E712C0280F381E02DF093CD145D
:10357000E093CC1424E1EE3CF20709F4F6C0E091AC
:10358000CC14F091CD1466817781F59C80011124D3
:103590000C0D1D1DD80111967C936E93675E7F4FB5
:1035A00013967C936E93129769517040FB0181A131
:1035B00014968C93149716967C926E921597868922
:1035C00017968C93179783A118968C9384A195A135
:1035D000A6A1B7A1F80181879287A387B487FB01D1
:1035E000A789B08D8C91853A09F0F3C020E030E0D6
:1035F00040E050E02F5F3F4F4F4F5F4FFD01E20F24
:10360000F31F8081853AB1F3C901D8011E969C93BE
:103610008E931D97F3948616970631F0E091CC14A3
:10362000F091CD14A0CFFF24EF0C8FE0E89E600155
:103630001124CA0CDB1C8091D414882309F48AC09D
:10364000E091D514F091D6140280F381E02DF0932F
:10365000D614E093D514B4E1E73DFB0709F4D4C0D8
:10366000E091D514F091D61486809780FF2403E072
:10367000602E712C12E0412E512C0280F381E02D3E
:10368000F093D614E093D51424E1E73DF20709F452
:1036900065C0E091D514F091D614668177813FE042
:1036A000F39E800111240C0D1D1DD80111967C93F1
:1036B0006E93675E7F4F13967C936E93129769515A
:1036C0007040FB0181A114968C93149716967C92FE
:1036D0006E921597868917968C931797848995898A
:1036E000892B21F016965C924E921597DB019396EA
:1036F0008C919397F801808794968D919D910D9070
:10370000BC91A02D81879287A387B487FB01A789ED
:10371000B08D8C91853A09F06AC020E030E040E03D
:1037200050E02F5F3F4F4F4F5F4FFD01E20FF31F00
:103730008081853AB1F3C901D8011E969C938E937E
:103740001D97F3948616970631F0E091D514F09109
:10375000D61493CFFF247F2C7E0CC9CB828193811A
:103760009093D6148093D51494CF828193819093B3
:10377000CD148093CC1403CF6092771457CDDD2401
:10378000E0917314F0917414868990E0FC01EE0FBF
:10379000FF1FEE0FFF1FEE0FFF1FE80FF91FE85787
:1037A000FB4E8081823008F439CDDD24D39436CDB0
:1037B000E091BE14F091BF140580F681E02D0680E3
:1037C000F781E02D828193819093410280934002A2
:1037D00022CC80E090E019CF80E090E07BCE80E0CA
:1037E00090E0F6CC9093410280934002C9CF80E0F4
:1037F00090E0A2CF8281938111968C9311971296BB
:103800009C939C01F901F8CA828193819093D6140C
:103810008093D51425CF8281938111968C93119733
:1038200012969C939C01F9017FCC82819381119621
:103830008C93119712969C939C01F901F8CD82818B
:1038400093819093CD148093CC1481CE0F931F93CA
:10385000CF93DF93EC01009789F0809173149091DE
:103860007414C817D90751F00FB6F8940F928A85CF
:103870009B85845D944139F00F900FBEDF91CF910D
:103880001F910F9108958C899D8924E1823C9207B4
:1038900099F3892B89F78E010E5F1F4FC8010E9493
:1038A00056259E8980917614891710F4909376148A
:1038B00089E0989FC001112488579B4EB8010E944F
:1038C0000525E0917314F09174149E8986899817E8
:1038D00098F20E949024D0CFEF92FF920F931F9303
:1038E000CF93DF930FB6F8940F92009709F4DDC0E1
:1038F000EC018E010E5F1F4FC8010E9456258C8976
:103900009D89892B21F0CE010C960E94562584EDCD
:1039100094E1B8010E9405250F900FBE80917314A9
:1039200090917414C817D90761F180918514882388
:1039300091F00FB6F8940F92E091BE14F091BF147D
:103940008081882369F48FEF9FEF909341028093E9
:1039500040020F900FBECDB7DEB7E6E00C94B92C55
:10396000E091BE14F091BF140580F681E02D068031
:10397000F781E02D828193819093410280934002F0
:10398000E8CF80918514882309F098C09091751430
:103990008091D414891709F494C080917B148823F2
:1039A00009F088C01092771480918400909185006E
:1039B0007C0100E010E0E0927C14F0927D14009312
:1039C0007E1410937F148091801490918114A091A3
:1039D0008214B09183148E159F05A007B107B0F42F
:1039E000E0917314F0917414A8019701281B390B0E
:1039F0004A0B5B0B84A195A1A6A1B7A1820F931FCF
:103A0000A41FB51F84A395A3A6A3B7A3E092801417
:103A1000F09281140093821410938314E091731434
:103A2000F0917414A0917314B091741420813181B9
:103A300057968D919C9158978217930730F046C006
:103A4000809176148150809376148091761490E062
:103A5000FC01EE0FFF1FEE0FFF1FEE0FFF1FE80F21
:103A6000F91FE857FB4E8081882351F3909176141B
:103A700089E0989FD0011124A857BB4E1196ED9173
:103A8000FC9112970280F381E02D1296FC93EE9345
:103A90001197CD010396E817F90729F186819781DF
:103AA000909374148093731456CFC0917314D09173
:103AB00074141FCF81E0809377144DCF0E9490241F
:103AC0004ACF109274141092731445CF80917314DE
:103AD000909174146091731470917414675E7F4FA9
:103AE0000E94A608B2CF8281938111968C93119780
:103AF00012969C939C01F901D1CFA0E0B0E0E3E8DD
:103B0000FDE10C94982C9C01009741F40E949024B4
:103B1000CDB7DEB7EBE00C94B42C77C180917B1469
:103B20008F5F80937B14C0917814D0917914C20F69
:103B3000D31F809173149091741402960E9456259D
:103B4000E0917314F0917414D383C283809178143C
:103B500090917914C817D90708F45BC08091BE14FE
:103B60009091BF1460917314709174146E5F7F4FC5
:103B70000E9424258091400290914102C817D907E4
:103B800020F4D0934102C09340020FB6F8940F92F4
:103B900080917B14815080937B1480917B148823C7
:103BA00009F04DC080917514882309F448C099E04C
:103BB000F92EEE24E3948091C2148823B9F1E091A8
:103BC000C714F091C814C681D781CE010C960E940B
:103BD00056258E010E5F1F4FC8010E9456259E89F3
:103BE00080917614891710F4909376149F9DC001EC
:103BF000112488579B4EB8010E940525E09173144B
:103C0000F09174149E8986899817A8F2E09277142F
:103C1000D2CF8091C0149091C114609173147091AF
:103C200074146E5F7F4F0E942425AFCF809184145F
:103C3000882389F480917714813009F495C080E05D
:103C40000F900FBE882309F461CFCDB7DEB7EBE04C
:103C50000C94B42CDAC080918414882359F389E041
:103C6000C82EAA24AA94BA2C9924939480917B14E8
:103C7000882309F07DC08091781490917914019681
:103C80009093791480937814E0907814F0907914DC
:103C9000E114F10409F52091BE143091BF14809114
:103CA000C0149091C1149093BF148093BE143093AC
:103CB000C1142093C01480917A148F5F80937A147A
:103CC000E091BE14F091BF148081882309F087C071
:103CD000B0924102A0924002809140029091410234
:103CE000E816F90608F45EC0DD24E091BE14F091F8
:103CF000BF148081882309F46DC0E091BE14F09157
:103D0000BF140580F681E02DC681D7818A819B8111
:103D1000E816F90608F474C08E010E5F1F4FC80143
:103D20000E9456258C899D89892B21F0CE010C9605
:103D30000E9456259E8980917614891710F49093DD
:103D400076149C9DC001112488579B4EB8010E9497
:103D50000525E0917314F09174149E898689981753
:103D600020F2DD24D394C1CF0E94902481E068CF5B
:103D7000809184148F5F80938414DD248091771464
:103D8000882369F4DD2059F4809184148150809354
:103D9000841480918414882309F068CF4BCF9092CB
:103DA0007714F2CFDD24E0917314F09174148689B6
:103DB00090E0FC01EE0FFF1FEE0FFF1FEE0FFF1F45
:103DC000E80FF91FE857FB4E80818230B8F2DD24FE
:103DD000D394D4CFB0924102A0924002E4CFE091BC
:103DE000BE14F091BF140580F681E02D0680F781A6
:103DF000E02D8281938190934102809340026CCFA9
:103E00009093410280934002CECFA0E0B0E0EBE07F
:103E1000FFE10C94982CFC01EB0180917B148F5FE7
:103E200080937B1420917814309179148081918152
:103E3000C80FD91F2817390708F016C1C817D907A6
:103E400008F024C12C173D0708F020C1D183C0839E
:103E5000809173149091741402960E945625E091FB
:103E60007314F0917414D383C28380917814909169
:103E70007914C817D90708F4FCC08091BE1490913A
:103E8000BF1460917314709174146E5F7F4F0E9421
:103E900024258091400290914102C817D90720F44F
:103EA000D0934102C09340020FB6F8940F928091D4
:103EB0007B14815080937B1480917B14882309F0BC
:103EC00003C180917514882309F4FEC049E0F42EE3
:103ED000EE24E3948091C214882369F1E091C71421
:103EE000F091C814C681D781CE010C960E94562548
:103EF0008E010E5F1F4FC8010E9456259E8980913A
:103F00007614891710F4909376149F9DC0011124A4
:103F100088579B4EB8010E940525E0917314F091DB
:103F200074149E8986899817A8F2E092771480917C
:103F3000C214882399F680918414882309F4BFC0A1
:103F400080918414882309F4BAC039E0C32EAA24CE
:103F5000AA94BA2C9924939480917B14882309F015
:103F600098C0809178149091791401969093791467
:103F700080937814E0907814F0907914E114F104AF
:103F800009F52091BE143091BF148091C014909116
:103F9000C1149093BF148093BE143093C114209326
:103FA000C01480917A148F5F80937A14E091BE14CC
:103FB000F091BF148081882309F0ADC0B092410216
:103FC000A09240028091400290914102E816F906C9
:103FD00008F489C0DD24E091BE14F091BF14808103
:103FE0008823E9F1E091BE14F091BF140580F681B9
:103FF000E02DC681D7818A819B81E816F90608F4F5
:104000009BC08E010E5F1F4FC8010E9456258C89F0
:104010009D89892B21F0CE010C960E9456259E8900
:1040200080917614891710F4909376149C9DC001AA
:10403000112488579B4EB8010E940525E091731406
:10404000F09174149E898689981728F2DD24D39400
:10405000E091BE14F091BF148081882319F6B092CC
:104060004102A092400240C0C817D90708F4EECE22
:10407000E9CE8091C0149091C11460917314709135
:1040800074146E5F7F4F0E9424250ECFD183C083AE
:104090000BCF809184148F5F80938414DD248091F2
:1040A00077148823E9F4DD20D9F4809184148150B9
:1040B0008093841480918414882309F04DCF8091DB
:1040C0007714813009F43DC080E00F900FBE882343
:1040D00011F40E949024CDB7DEB7EBE00C94B42C21
:1040E00090927714E2CFDD24E0917314F091741470
:1040F000868990E0FC01EE0FFF1FEE0FFF1FEE0F11
:10410000FF1FE80FF91FE857FB4E8081823038F21D
:10411000DD24D394C4CFE091BE14F091BF14058088
:10412000F681E02D0680F781E02D828193819093C6
:1041300041028093400246CF909341028093400217
:10414000D3CF0E94902481E0C0CF0F931F93CF93D1
:10415000DF930FB6F8940F92009709F453C0EC0167
:104160008E010E5F1F4FC8010E9456258C899D89C4
:10417000892B21F0CE010C960E9456258BEC94E100
:10418000B8010E940525809186148F5F8093861464
:10419000809187148F5F809387140F900FBE80915A
:1041A0008514882319F18091731490917414C817A1
:1041B000D90769F10FB6F8940F92E091BE14F0910F
:1041C000BF1480818823B9F0E091BE14F091BF1430
:1041D0000580F681E02D0680F781E02D82819381B4
:1041E00090934102809340020F900FBEDF91CF91D8
:1041F0001F910F9108958FEF9FEF9093410280934D
:104200004002F2CFC0917314D0917414A9CF0E94D0
:104210009024ECCFF894109285140E9410240895F5
:10422000A0E0B0E0E6E1F1E20C94912C2C01362EF6
:10423000272E5A013901102F470188E290E00E9491
:10424000B109EC01009709F4ADC0C114D10409F41F
:104250009DC0D88ECF8AC60165EA70E0A5010E9494
:104260005207EF88F88C832D922D9C01F901DE0115
:1042700090E0808159968C9359978081882329F00A
:104280009F5F319611969830A1F718A2012F143034
:1042900008F07AC00E8B0BA372E0C72ED12CCC0E87
:1042A000DD1EC6010E940125CE010C960E9401254B
:1042B000D987C88784E090E0801B91099D878C870F
:1042C000DB8BCA8B1CA21DA21EA21FA20894A108F0
:1042D000B108C7018A0D9B1DB201A3010E947C2376
:1042E000998388838114910419F0F401D183C083E8
:1042F0000FB6F8940F92809175148F5F80937514A8
:104300008091731490917414892B09F452C0809198
:104310008514882359F4E0917314F09174148689FC
:10432000181720F0D0937414C093731480918714DD
:104330008F5F8093871489A39E8980917614891753
:1043400010F49093761489E0989FC0011124885747
:104350009B4EB6010E9405250F900FBE80918514DB
:10436000882359F0E0917314F091741486898117B1
:1043700020F40E94902481E001C081E0CDB7DEB737
:10438000E2E10C94AD2C51C003E084CFC5010E9442
:10439000B1096C01988F8F8B009709F05CCFCE012B
:1043A0000E943E098FEFCDB7DEB7E2E10C94AD2C51
:1043B0003CC0D0937414C0937314809175148130F1
:1043C00009F0B4CF88E894E10E94F12481E994E1F6
:1043D0000E94F1248AE994E10E94F12483EA94E1A5
:1043E0000E94F1246CEAE62E64E1F62EC7010E94D9
:1043F000F12455EBA52E54E1B52EC5010E94F12400
:1044000082EC94E10E94F1248BEC94E10E94F1246F
:1044100084ED94E10E94F124F092BF14E092BE1466
:10442000B092C114A092C01481CFA0E0B0E0EBE143
:10443000F2E20C949B2C88E290E00E94B109EC011E
:10444000009709F491C085E590E00E94B109988F2A
:104450008F8B009709F4C7C065EA70E045E550E02E
:104460000E9452070F89188DE7E3F2E0DE01808198
:1044700059968C9359978081882331F03196119603
:1044800082E0EF33F80799F718A21E8A1BA2F2E028
:10449000CF2ED12CCC0EDD1EC6010E940125CE01EF
:1044A0000C960E940125D987C88784E090E09D87FB
:1044B0008C87DB8BCA8B1CA21DA21EA21FA2C80167
:1044C0008C5A9F4F69E271E040E050E00E947C23EB
:1044D000998388830FB6F8940F92809175148F5F3B
:1044E000809375148091731490917414892B09F43E
:1044F00041C080918514882359F4E0917314F091A0
:1045000074148689882321F4D0937414C09373148F
:10451000809187148F5F8093871489A39E898091EF
:104520007614891710F49093761489E0989FC0014F
:10453000112488579B4EB6010E9405250F900FBE8F
:1045400080918514882321F08091731490917414C4
:10455000F89481E080938514109279141092781465
:104560000E9481250E94C723CDB7DEB7E8E00C94F6
:10457000B72C41C0D0937414C093731480917514F8
:10458000813031F688E894E10E94F12481E994E1D8
:104590000E94F1248AE994E10E94F12483EA94E1E3
:1045A0000E94F124ECEAEE2EE4E1FE2EC7010E9407
:1045B000F12405EB14E1C8010E94F12482EC94E19E
:1045C0000E94F1248BEC94E10E94F12484ED94E1AB
:1045D0000E94F124F092BF14E092BE141093C11413
:1045E0000093C01495CFCE010E943E09CDB7DEB72F
:1045F000E8E00C94B72CAF92BF92DF92EF92FF925B
:104600000F931F93CF93DF93EC015A0180917B149A
:104610008F5F80937B1480917514681708F46AC0CB
:1046200000E014E08FE0D82EB9E0EB2E1150AFE09F
:10463000FA2E0D9DC00111241E9DB0011124685752
:104640007B4E8C0F9D1F41E050E00E94230B080F12
:10465000112361F76091BE147091BF140F9DC001CA
:1046600011248C0F9D1F42E050E00E94230B102F5D
:10467000180F6091C0147091C1141F9DC0011124C6
:104680008C0F9D1F42E050E00E94230B180F1F9DCE
:10469000C00111248C0F9D1F6BEC74E144E050E0CD
:1046A0000E94230B180F1F9DC00111248C0F9D1F0A
:1046B00064ED74E143E050E00E94230B180FA11455
:1046C000B10459F08091840090918500A0E0B0E0A1
:1046D000F50180839183A283B3830E94C90F812F48
:1046E000DF91CF911F910F91FF90EF90DF90BF90DE
:1046F000AF90089510E0F1CFFC0191E1908322E2A8
:10470000229383E38293629372931292129280E8CF
:10471000829312921292129282E0829383E08293A9
:1047200084E0829385E0829386E0829387E082939F
:1047300088E0829389E0829380E18293929382E180
:10474000829383E1829384E1829385E1829386E17F
:10475000829387E1829388E1829389E1829380E268
:10476000829381E28293229383E2829342935293D3
:1047700086E2829387E2829388E2829389E282933F
:1047800080E3829381E382933197CF01089584EF90
:1047900091E09093DE148093DD149093E014809365
:1047A000DF1481E08093990083EF809398008BE081
:1047B00080939100E1E7F0E0808182608083A091A6
:1047C0007314B0917414CD91CDBFDD91DEBFFF9114
:1047D000EF91DF91CF91BF91AF919F918F917F9199
:1047E0006F915F914F913F912F911F910F91FF908A
:1047F000EF90DF90CF90BF90AF909F908F907F9081
:104800006F905F904F903F902F901F900F900CBE35
:104810000F900BBE0F900FBE0F90089581E008958A
:1048200008950F920FB6F8940F920BB60F920CB634
:104830000F921F9211242F923F924F925F926F928C
:104840007F928F929F92AF92BF92CF92DF92EF9220
:10485000FF920F931F932F933F934F935F936F9309
:104860007F938F939F93AF93BF93CF93DF93EF93F8
:10487000FF93A0917314B09174140DB60D920EB6FF
:104880000D928091DF149091E01401979093E014C1
:104890008093DF14892B09F435C00E94120D882300
:1048A00011F00E941B0FA0917314B0917414CD915C
:1048B000CDBFDD91DEBFFF91EF91DF91CF91BF9131
:1048C000AF919F918F917F916F915F914F913F91A8
:1048D0002F911F910F91FF90EF90DF90CF90BF909D
:1048E000AF909F908F907F906F905F904F903F9090
:1048F0002F901F900F900CBE0F900BBE0F900FBE0D
:104900000F9008950E94C1028091DD149091DE14F1
:104910009093E0148093DF14C0CF0E941124189567
:104920000F920FB6F8940F920BB60F920CB60F922F
:104930001F9211242F923F924F925F926F927F921B
:104940008F929F92AF92BF92CF92DF92EF92FF929F
:104950000F931F932F933F934F935F936F937F9387
:104960008F939F93AF93BF93CF93DF93EF93FF9377
:10497000A0917314B09174140DB60D920EB60D92F1
:104980000E941B0FA0917314B0917414CD91CDBFF0
:10499000DD91DEBFFF91EF91DF91CF91BF91AF919C
:1049A0009F918F917F916F915F914F913F912F9147
:1049B0001F910F91FF90EF90DF90CF90BF90AF903D
:1049C0009F908F907F906F905F904F903F902F902F
:1049D0001F900F900CBE0F900BBE0F900FBE0F904C
:1049E0000895FC019C012D5F3F4F328321838FEF9F
:1049F0009FEF9483838336832583308727831082B8
:104A00000895FC01118610860895AC01FC01A18176
:104A1000B281FB01B383A28314968D919C9115976B
:104A2000958384831496ED91FC911597738362832B
:104A300015967C936E931497FB0151874087FA017A
:104A400080818F5F80830895CF93DF93AC01EB016A
:104A5000288139818FEF2F3F380701F1DA01139652
:104A600001C0DF011296ED91FC9113978081918135
:104A700028173907B0F7FB83EA83D583C483BD8346
:104A8000AC831396DC93CE93129759874887FA012B
:104A900080818F5F8083DF91CF910895FA01A78194
:104AA000B0851296ED91FC911397E5CFCF93DF93EC
:104AB000DC011896CD91DC91199712964D915C917D
:104AC000139714968D919C911597FA019583848381
:104AD00014962D913C911597F90153834283898156
:104AE0009A818A179B0751F019961C921E9218976B
:104AF000888181508883DF91CF9108953A832983FB
:104B0000F3CF10928000E1E8F0E01082109285006F
:104B10001092840084E0808308958093E1140895C6
:104B2000282F30E0F901EE0FFF1FEE0FFF1FE20FFD
:104B3000F31FEE0FFF1FEC5BFD4F0190F081E02DA6
:104B400095E803C0892F8A95F1F7808185FFFACF18
:104B5000F90193E0EE0FFF1F9A95E1F7220F331F43
:104B6000E20FF31FEE5BFD4F0190F081E02D6083BB
:104B70000895282F30E0F901EE0FFF1FEE0FFF1F01
:104B8000E20FF31FEE0FFF1FEC5BFD4F0190F08172
:104B9000E02D95E803C0892F8A95F1F7808187FF82
:104BA000FACF80818C7111F08FEF0895F90173E0D5
:104BB000EE0FFF1F7A95E1F7220F331FE20FF31F6D
:104BC000EE5BFD4F0190F081E02D80810895CF9341
:104BD000DF93282F30E0F901EE0FFF1FEE0FFF1FCC
:104BE000E20FF31FEE0FFF1FEC5BFD4FC081D18181
:104BF000D901AA0FBB1FC90143E0880F991F4A952D
:104C0000E1F7A80FB91FAE5BBD4F04C0ED91FC9159
:104C10001197E081888187FDF9CF0FB6F8940F9244
:104C20008DE190E0289FF001299FF00D389FF00D55
:104C30001124E851FB4E1182108286819781938363
:104C40008283958384830F900FBEDF91CF91089567
:104C500090E00FB6F8940F922DE130E0829FF001C2
:104C6000839FF00D929FF00D1124E851FB4E20819F
:104C700031810F900FBEC9010895CF93DF93DB01FF
:104C8000282F30E00FB6F8940F928DE190E0289F26
:104C9000F001299FF00D389FF00D1124E851FB4ED3
:104CA000808191810F900FBE892B11F480E027C085
:104CB0008DE190E0AC01249FC001259F900D349FB1
:104CC000900D112488519B4EEC01EC81FD812191C6
:104CD0000FB6F8940F92FD83EC8388859985E817C9
:104CE000F90721F48E819F819D838C83888199812E
:104CF0000197998388830F900FBE2C9381E0DF91F9
:104D0000CF910895CF93DF93482F50E00FB6F894DA
:104D10000F928DE190E0489FF001499FF00D589F60
:104D2000F00D1124E851FB4EA485B5850F900FBE00
:104D30008DE190E0489F9001499F300D589F300DC4
:104D40001124F901E851FB4E86899789A817B90704
:104D500011F0C9012DC085E8982F9A95F1F7982F89
:104D60009A95F1F7982F9A95F1F78A95F1F70FB682
:104D7000F8940F928DE190E0489FF001499FF00D6B
:104D8000589FF00D1124E851FB4E848595850F90B6
:104D90000FBE8A179B0711F490E029C08DE190E0C7
:104DA0009C01429FC001439F900D529F900D112482
:104DB0008C509B4EEC01EA81FB8160830FB6F89426
:104DC0000F928A819B8101969B838A8328853985EE
:104DD0008217930721F48E819F819B838A83888128
:104DE00099810196998388830F900FBE91E0FA0113
:104DF000B3E0EE0FFF1FBA95E1F7440F551FE40F24
:104E0000F51FEE5BFD4F0480F581E02D808180620F
:104E10008083892FDF91CF91089590E0FC01EE0F00
:104E2000FF1FEE0FFF1FE80FF91FEE0FFF1FEC5BD8
:104E3000FD4F0190F081E02D808180780895CF931F
:104E4000DF93482F50E0FA01EE0FFF1FEE0FFF1F18
:104E5000E40FF51FEE0FFF1FEC5BFD4F0190F0819B
:104E6000E02D80818C7109F04FC0FA01EE0FFF1F19
:104E7000CA0133E0880F991F3A95E1F7E80FF91F4F
:104E8000EE5BFD4F0190F081E02D60810FB6F8944C
:104E90000F928DE190E0489FF001499FF00D589FDF
:104EA000F00D1124E851FB4E208131810F900FBE8F
:104EB0008DE190E0489FF001499FF00D589FF00D63
:104EC0001124E851FB4E8285938528173907E1F0BC
:104ED000EF01EA81FB8160830FB6F8940F928A811B
:104EE0009B8101969B838A83288539858217930746
:104EF00021F48E819F819B838A8388819981019689
:104F0000998388830F900FBEDF91CF9108951F92F0
:104F10000F920FB60F920BB60F9211242F933F935F
:104F20004F935F936F937F938F939F93AF93BF93B1
:104F3000EF93FF9383E00E941F27FF91EF91BF91B2
:104F4000AF919F918F917F916F915F914F913F9121
:104F50002F910F900BBE0F900FBE0F901F901895C2
:104F60001F920F920FB60F920BB60F9211242F9330
:104F70003F934F935F936F937F938F939F93AF93E1
:104F8000BF93EF93FF9382E00E941F27FF91EF9161
:104F9000BF91AF919F918F917F916F915F914F9151
:104FA0003F912F910F900BBE0F900FBE0F901F904F
:104FB00018951F920F920FB60F920BB60F921124F5
:104FC0002F933F934F935F936F937F938F939F9311
:104FD000AF93BF93EF93FF9381E00E941F27FF9150
:104FE000EF91BF91AF919F918F917F916F915F9161
:104FF0004F913F912F910F900BBE0F900FBE0F90CE
:105000001F9018951F920F920FB60F920BB60F922A
:1050100011242F933F934F935F936F937F938F93BD
:105020009F93AF93BF93EF93FF9380E00E941F275E
:10503000FF91EF91BF91AF919F918F917F916F9170
:105040005F914F913F912F910F900BBE0F900FBE2C
:105050000F901F901895CF93DF93482F50E00FB615
:10506000F8940F928DE190E0489FF001499FF00D78
:10507000589FF00D1124E851FB4E848595850F90C3
:105080000FBEFA01EE0FFF1F9A01B3E0220F331F8C
:10509000BA95E1F7892B59F4E20FF31FEE5BFD4F50
:1050A0000480F581E02D80818F7D80832CC0E20F0C
:1050B000F31FEE5BFD4FA081B1818DE190E09C017B
:1050C000429FC001439F900D529F900D11248C5020
:1050D0009B4EEC01EC81FD8121910FB6F8940F926B
:1050E000FD83EC8388859985E817F90721F48E8183
:1050F0009F819D838C83888199810197998388837F
:105100000F900FBE2C93DF91CF9108951F920F92B5
:105110000FB60F920BB60F9211242F933F934F931C
:105120005F936F937F938F939F93AF93BF93EF930F
:10513000FF9383E00E942B28FF91EF91BF91AF91E5
:105140009F918F917F916F915F914F913F912F919F
:105150000F900BBE0F900FBE0F901F9018951F92CF
:105160000F920FB60F920BB60F9211242F933F930D
:105170004F935F936F937F938F939F93AF93BF935F
:10518000EF93FF9382E00E942B28FF91EF91BF9154
:10519000AF919F918F917F916F915F914F913F91CF
:1051A0002F910F900BBE0F900FBE0F901F90189570
:1051B0001F920F920FB60F920BB60F9211242F93DE
:1051C0003F934F935F936F937F938F939F93AF938F
:1051D000BF93EF93FF9381E00E942B28FF91EF9103
:1051E000BF91AF919F918F917F916F915F914F91FF
:1051F0003F912F910F900BBE0F900FBE0F901F90FD
:1052000018951F920F920FB60F920BB60F921124A2
:105210002F933F934F935F936F937F938F939F93BE
:10522000AF93BF93EF93FF9380E00E942B28FF91F1
:10523000EF91BF91AF919F918F917F916F915F910E
:105240004F913F912F910F900BBE0F900FBE0F907B
:105250001F901895DF92EF92FF920F931F93CF93B9
:10526000DF93D82E8B01CB010E943E077C01C0E06A
:10527000D0E009C0F801EC0FFD1F2196E4918D2DBF
:105280006E2F0E948226CE15DF05A0F3DF91CF910D
:105290001F910F91FF90EF90DF900895BC018091D6
:1052A000E1140E942A290895EF92FF920F931F9311
:1052B000CF93DF93082F7B01CB010E943E07BC01F7
:1052C00020E030E010E0D801AA0FBB1FAA0FBB1FDF
:1052D000A00FB11FAA0FBB1FAC5BBD4F95E8E80143
:1052E00053E0CC0FDD1F5A95E1F7000F111FC00FDF
:1052F000D11FCE5BDD4F13C0F701E20FF31F4491C6
:10530000ED91FC91119703C0892F8A95F1F7808167
:1053100085FFFACF2F5F3F4FE881F9814083261741
:10532000370750F3DF91CF911F910F91FF90EF90CE
:105330000895BC018091E1140E9454290895DF92E0
:10534000EF92FF920F931F93CF93DF93D82E7B01A1
:10535000DB010D900020E9F78D0101501040061B84
:10536000170BC0E0D0E007C02196EE0DFF1D8D2D7C
:1053700060810E948226FE01C017D107A8F3DF9149
:10538000CF911F910F91FF90EF90DF900895BF9202
:10539000CF92DF92EF92FF920F931F93CF93DF9301
:1053A000B82E7B016A01282F30E08DE190E0289F24
:1053B000E001299FD00D389FD00D1124C851DB4E3C
:1053C0008E01045E1F4F02C00E949024F80180816C
:1053D0008130D1F381E08C8F6A8D7B8D888D998DA2
:1053E000A70196010E94DE07688D798D8B2D0E94A2
:1053F0009F291C8EDF91CF911F910F91FF90EF900D
:10540000DF90CF90BF900895BF92CF92DF92EF923E
:10541000FF920F931F93CF93DF93B82E7B016A0106
:10542000282F30E08DE190E0289FE001299FD00DEA
:10543000389FD00D1124C851DB4E8E01045E1F4FE2
:1054400002C00E949024F80180818130D1F381E074
:105450008C8F6A8D7B8D888D998DA70196010E9416
:10546000B407688D798D8B2D0E949F291C8EDF914A
:10547000CF911F910F91FF90EF90DF90CF90BF9051
:105480000895BC018091E1140E949F2908951F9303
:10549000CF93DF93DB010D900020E9F79D012150B0
:1054A0003040261B370B40E050E090E0DC01AA0FB3
:1054B000BB1FAA0FBB1FA80FB91FAA0FBB1FAC5B56
:1054C000BD4F15E8EC01F3E0CC0FDD1FFA95E1F7D5
:1054D000880F991FC80FD91FCE5BDD4F13C0FB018A
:1054E000E40FF51F9081ED91FC91119703C0812F7E
:1054F0008A95F1F7808185FFFACF4F5F5F4FE88192
:10550000F98190834217530750F3DF91CF911F9198
:1055100008951F93CF93DF93182FFB01DA0190E0DA
:105520002DE130E0829FE001839FD00D929FD00D4E
:105530001124C851DB4E8C8D813029F495E8892FD8
:105540008A95F1F7FCCF81E08C8F6A8D7B8D888DF9
:10555000998DAF019D010E94DE07688D798D812FA5
:105560000E94472A1C8EDF91CF911F910895CF93FF
:10557000DF93FB01DA0190E02DE130E0829FE00152
:10558000839FD00D929FD00D1124C851DB4E8C8D7E
:10559000813029F495E8892F8A95F1F7FCCF81E0D5
:1055A0008C8F6A8D7B8D888D998DAF019D010E94B6
:1055B000B407688D798D8091E1140E94472A1C8E72
:1055C000DF91CF910895BC018091E1140E94472A98
:1055D0000895DF93CF93CDB7DEB79E01265F3F4F8F
:1055E0008E8168857985A9010E94C729CF91DF91B5
:1055F0000895DF93CF93CDB7DEB79E01265F3F4F6F
:105600008E8168857985A9010E94042ACF91DF9156
:105610000895DF93CF93CDB7DEB7FE013696619143
:1056200071918091E114AF010E94C729CF91DF9160
:105630000895DF93CF93CDB7DEB7FE013696619123
:1056400071918091E114AF010E94042ACF91DF9102
:105650000895DF93CF93CDB7DEB79E01265F3F4F0E
:105660008E8168857985A9010E94892ACF91DF9171
:105670000895DF93CF93CDB7DEB79E01265F3F4FEE
:105680008E8168857985A9010E94B72ACF91DF9123
:105690000895DF93CF93CDB7DEB7FE0136966191C3
:1056A00071918091E114AF010E94892ACF91DF911D
:1056B0000895DF93CF93CDB7DEB7FE0136966191A3
:1056C00071918091E114AF010E94B72ACF91DF91CF
:1056D0000895EF92FF920F931F93E82EFF248DE120
:1056E00090E0E89E8001E99E100DF89E100D1124B7
:1056F00008511B4EF801808D918D0E943E09F801E2
:10570000868197810E943E09F801828993890E94CF
:105710003E090FB6F8940F92F701B3E0EE0FFF1FAA
:10572000BA95E1F7EE0CFF1CEE0DFF1DEE5BFD4F91
:10573000A481B5818C918F7D8C930480F581E02DBF
:1057400080818F7780830F900FBE1F910F91FF9004
:10575000EF9008957F928F929F92AF92BF92CF92D7
:10576000DF92EF92FF920F931F93CF93DF93782EE8
:105770004A015B01E901C8010E94B1099C0100973F
:10578000C9F0EDE17E9EF0011124E851FB4E0FB609
:10579000F8940F921182108282833383848335833D
:1057A00097838683200F311F3187208713870287D5
:1057B0000F900FBECE010E94B1099C010097C9F065
:1057C000EDE17E9EF0011124EC50FB4E0FB6F894F3
:1057D0000F9211821082828333838483358397836F
:1057E00086832C0F3D1F31872087D387C2870F9078
:1057F0000FBEE72CFF24CE010E94B1099C018DE170
:1058000090E0E89EF001E99EF00DF89EF00D112465
:10581000E851FB4E208F318FD38FC28F148E0FB67D
:10582000F8940F928701000F111FC70143E0880F02
:10583000991F4A95E1F7080F191F0E5B1D4FD801FC
:105840001896CD90DC901997C501B4016050774F40
:10585000824C9F4F32E0660F771F881F991F3A9541
:10586000D1F723E0880C991CAA1CBB1C2A95D1F700
:10587000A50194010E946F2C21503040F601318324
:105880002083F701EE0FFF1FEE0FFF1FEE0DFF1D30
:10589000EE0FFF1FEC5BFD4F0190F081E02D82E0E9
:1058A0008083D8011496ED91FC91159788E9808347
:1058B0001696ED91FC91179786E080830F900FBEAE
:1058C000872DDF91CF911F910F91FF90EF90DF9087
:1058D000CF90BF90AF909F908F907F900895A1E25E
:1058E0001A2EAA1BBB1BFD010DC0AA1FBB1FEE1F5A
:1058F000FF1FA217B307E407F50720F0A21BB30BA5
:10590000E40BF50B661F771F881F991F1A9469F720
:1059100060957095809590959B01AC01BD01CF017C
:1059200008952F923F924F925F926F927F928F9243
:105930009F92AF92BF92CF92DF92EF92FF920F931E
:105940001F93CF93DF93CDB7DEB7CA1BDB0B0FB628
:10595000F894DEBF0FBECDBF19942A8839884888D5
:105960005F846E847D848C849B84AA84B984C8847B
:10597000DF80EE80FD800C811B81AA81B981CE0F72
:10598000D11D0FB6F894DEBF0FBECDBFED01089557
:04599000F894FFCFB9
:105994005265644C45440025730909257509092598
:1059A4007525250D0A0025730909257509093C315A
:1059B40025250D0A0025730909256309257509257F
:1059C400750925750D0A0049444C4500FF11FF1166
:1059D400FFFFC600C000C100C200C400CE00C80062
:1059E400C900CA00CC00D600D000D100D200D40037
:0A59F40036013001310132013401A7
:00000001FF
