:100000000C9446030C9468030C9468030C946803E6
:100010000C9468030C9468030C9468030C946803B4
:100020000C9468030C9468030C9468030C946803A4
:100030000C9468030C9468030C9468030C94680394
:100040000C9468030C9468030C9468030C94680384
:100050000C9468030C9468030C9468030C94680374
:100060000C9468030C94873A0C94863B0C946803B8
:100070000C9468030C9468030C9468030C94680354
:100080000C947B330C9468030C9468030C947A11E1
:100090000C945E3A0C945D3B0C9468030C946912CA
:1000A0000C9468030C94750C0C9468030C9468030E
:1000B0000C9468030C942B0C0C94000D0C946803A6
:1000C0000C9468030C9468030C94500C0C94353A0F
:1000D0000C94343B0C9468030C940C3A0C940B3B3A
:1000E0000C946803C7128012801280128012801252
:1000F00080128012C7128012801280128012801229
:1001000080128012C9128012801280128012801216
:1001100080128012011380128012801280128012CD
:1001200080128012C91280128012801280128012F6
:1001300080128012011380128012801280128012AD
:100140008012801209138012801280128012801295
:100150008012801239138012801280128012801255
:1001600080128012801280128012801280128012FF
:1001700080128012AF1280128012801280128012C0
:1001800080128012F012801280128012801280126F
:100190008012801236138012801280128012801218
:1001A0008012801236138012801280128012801208
:1001B000801280122113801280128012801280120D
:1001C00080128012211380128012801280128012FD
:1001D000801280129A128012801280128012801275
:1001E00080128012C312801280128012801280123C
:1001F000801280129A128012801280128012801255
:1002000080128012C312801280128012801280121B
:10021000801280120D1380128012801280128012C0
:1002200080128012DE1280128012801280128012E0
:1002300080128012DE1280128012801280128012D0
:1002400080128012E01280128012801280128012BE
:10025000801280121313801280128012801280127A
:1002600080128012AB120D0A0A0A476F6F6462791E
:10027000652E2E2E206E6F20737061636520666F71
:10028000722069646C65207461736B210D0A000D26
:100290000A0A0A48656C6C6F20576F726C64210DF6
:1002A0000A006E616E00696E660000407A10F35AB3
:1002B00000A0724E18090010A5D4E80000E87648A6
:1002C000170000E40B54020000CA9A3B000000E152
:1002D000F505000080969800000040420F000000E5
:1002E000A08601000000102700000000E8030000C5
:1002F00000006400000000000A000000000001008F
:10030000000000002C76D888DC674F0823DFC1DFAF
:10031000AE59E1B1B796E5E3E453C63AE6519976B2
:1003200096E8E6C28426EB898C9B62ED407C6FFCEC
:10033000EFBC9C9F40F2BAA56FA5F490055A2AF72E
:100340005C936B6CF9676DC11BFCE0E40D47FEF537
:1003500020E6B500D0ED902E03009435770500809F
:10036000841E080000204E0A000000C80C333333FE
:10037000330F986E12831141EF8D2114893BE6559E
:1003800016CFFEE6DB18D1844B381BF77C1D901D81
:10039000A4BBE424203284725E228100C9F124ECE3
:1003A000A1E53D27A0E0B0E0E8EDF1E00C944D3F81
:1003B000E9E0CE2EAA24A39488248A94982C77244A
:1003C000739405C00F900FBEBB2009F05FC08091F1
:1003D0001903882309F480C080910E038F5F8093F6
:1003E0000E03B0905E030FB6F8940F9280910E0347
:1003F000815080930E0380910E03882319F780911A
:1004000008038823F9F280915503882371F1E09164
:100410005A03F0915B03C681D781CE010C960E94EE
:10042000C0358E010E5F1F4FC8010E94C0359E89E6
:1004300080910903891718F4909309039E899C9D64
:10044000C0011124855E9C4FB8010E946F35E09178
:100450000603F09107039E8986899817A0F2A0925F
:100460000A0380915503882391F68091170388230E
:1004700009F04DC080910A03813009F0A3CF0E949A
:100480007E330F900FBEBB2009F4A1CF0FB6F894B6
:100490000F92E0916303F091640306811781C80114
:1004A00002960E94C0358091080381508093080312
:1004B000809119038150809319030F900FBEF801AA
:1004C0008789908D0E94EA33C8010E94EA338091A7
:1004D0001903882309F080CF80911B03823008F430
:1004E00076CF0E947E3373CF809117038F5F809306
:1004F0001703DD2480910A03882309F095C0DD20CD
:1005000009F092C080911703815080931703809166
:100510001703882309F4AECF80910E03882321F7B7
:1005200080910B0390910C03019690930C038093A0
:100530000B03E0900B03F0900C03E114F10409F5B8
:1005400020915103309152038091530390915403B1
:100550009093520380935103309354032093530399
:1005600080910D038F5F80930D03E0915103F09113
:1005700052038081882309F073C0909256028092C2
:1005800055028091550290915602E816F90608F43A
:100590004EC0DD24E0915103F09152038081882305
:1005A000F1F1E0915103F09152030580F681E02DC5
:1005B000C681D7818A819B81E816F90608F461C05B
:1005C0008E010E5F1F4FC8010E94C0358C899D8926
:1005D000892B21F0CE010C960E94C0359E89809116
:1005E0000903891718F4909309039E899C9DC00103
:1005F0001124855E9C4FB8010E946F35E09106037F
:10060000F09107039E898689981720F2DD24D39400
:10061000E0915103F09152038081882311F690926A
:1006200056028092550204C070920A036BCFDD24FB
:10063000E0910603F0910703868990E0FC01EE0F3C
:10064000FF1FEE0FFF1FEE0FFF1FE80FF91FE55E04
:10065000FC4F8081823008F44DCFDD24D3944ACF03
:10066000E0915103F09152030580F681E02D068060
:10067000F781E02D828193819093560280935502F9
:1006800080CF9093560280935502D2CF11241FBE83
:10069000CFEFD1E2DEBFCDBF00E00CBF12E0A0E0A3
:1006A000B2E0E6E3FFE700E00BBF02C007900D9267
:1006B000A03DB107D9F71BBE16E1A0EDB2E001C025
:1006C0001D92A333B107E1F70E94FA0A0C94993FF7
:1006D0000C9400008F938FB78F93F8948091BB1583
:1006E0008F5F8093BB158091BC158F4F8093BC1595
:1006F0008091BD158F4F8093BD158091BE158F4F92
:100700008093BE158F918FBF8F910895A1E1B0E0C6
:10071000ECE8F3E00C94483F3C017F876E876A0168
:10072000FC0117821682838181FD03C06FEF7FEF8A
:1007300071C39E012F5F3F4F398B288BF3012381BB
:10074000EE85FF8523FD859123FF8191FF87EE874D
:10075000882309F45CC3853251F4EE85FF8523FDBF
:10076000859123FF8191FF87EE87853229F490E000
:10077000B3010E941608E2CF982F10E08824992434
:100780001032B0F49B3269F09C3228F4903251F070
:10079000933271F40BC09D3239F0903349F41160FB
:1007A00028C01260146025C0186023C0106121C0E9
:1007B00017FD2AC0892F80538A3078F416FF06C0AF
:1007C000FAE09F9E902C1124980E13C03AE0839E6D
:1007D000802C1124880E10620CC09E3221F416FD6C
:1007E00016C3106406C09C3611F4106802C0983617
:1007F00059F4EE85FF8523FD959123FF9191FF87A5
:10080000EE87992309F0BCCF892F8554833020F4DB
:10081000812F8061905E07C0892F8556833008F054
:10082000A1C1812F8F7E86FD02C076E0972E6FE3F7
:10083000F62EF822953619F4F0E4FF2A07C0963612
:1008400019F420E8F22A02C091109A94F7FE0BC026
:100850003BE3391520F427E05CE3B52E0EC0B92C3C
:10086000B39427E00AC047E0491528F427E0BB24E9
:1008700047E0942E02C0292DBB24C60104969D8713
:100880008C87F6016081718182819381AE014F5F17
:100890005F4F0B2D0E940F076C010981202E33241E
:1008A00000FF04C003FD02C01DE209C0F1FE02C04A
:1008B0001BE205C0F2FC02C010E001C010E2C10161
:1008C0008C709070892BB9F1112311F483E001C071
:1008D00084E0881510F088240AC0881AF3FC07C049
:1008E00080E290E0B3010E9416088A94C9F71123B0
:1008F00029F0812F90E0B3010E94160823FE03C067
:1009000002EA12E00EC006EA12E00BC0E114F104A4
:1009100009F0805290E0B3010E9416080F5F1F4F4C
:1009200005C0EF2CFF24F0E1EF22FF24F8018491B1
:10093000882361F714C1F7FE12C0BC0C24FE04C06A
:100940008A81813309F4BA941B141CF0BB24B3943C
:100950002DC0F8E0FB1550F538E0B32E27C0F6FCAB
:1009600025C0892D90E08C159D054CF02CEFC2160A
:100970002FEFD20624F030E8F32A01C09A94992090
:1009800049F0E2E0F0E0EC0FFD1FE90DF11D808180
:100990008033A1F3F7FE0AC0B92CB394892D90E0FF
:1009A000C816D90614F0992401C09C18F7FC03C09E
:1009B00025E030E009C01C141D041CF021E030E0EB
:1009C00003C096012F5F3F4F112311F02F5F3F4F60
:1009D000992029F0892D90E00196280F391F882D44
:1009E00090E02817390714F0882401C0821A4F2C90
:1009F0005524C20189709070892B39F008C080E2BB
:100A000090E0B3010E9416088A948820C1F7112350
:100A100029F0812F90E0B3010E94160843FE07C021
:100A200008C080E390E0B3010E9416088A948820F1
:100A3000C1F7F7FE46C08601D7FE02C000E010E015
:100A400076010894E11CF11CE01AF10A41E050E043
:100A50004C0F5D1FE40EF51E26014B185108892D21
:100A600090E0AA24BB24A81AB90A5FEF0F3F15072C
:100A700029F48EE290E0B3010E941608C016D10658
:100A800034F0401651061CF4F701808101C080E368
:100A9000015010400894E11CF11C0A151B052CF0B4
:100AA00090E0B3010E941608E0CF0C151D0539F443
:100AB0009A81963318F4953311F424FE81E390E083
:100AC0004BC08A81813309F00F7E90E0B3010E9410
:100AD00016089920A1F08EE290E0B3010E9416085A
:100AE00012E0E1E0F0E0EC0FFD1FE10FF11D1F5FF0
:100AF000808190E0B3010E9416089A9491F744FC1B
:100B000003C085E690E002C085E490E0B3010E9456
:100B10001608D7FC05C0C114D10441F404FF06C077
:100B2000D094C194D108D3948DE201C08BE290E0BF
:100B3000B3010E94160880E305C08F5F26EF3FEFE8
:100B4000C20ED31E3AE0C316D104BCF790E0B30145
:100B50000E941608C601C096B3010E941608CC84F4
:100B6000DD8452C1933631F0933799F0933509F013
:100B700059C023C0F601808189835E010894A11CBD
:100B8000B11C22E030E0C20ED31E21E0E22EF12C97
:100B900012C0F601A080B18016FD03C06FEF7FEF99
:100BA00002C0692D70E022E030E0C20ED31EC50104
:100BB0000E940B087C011F7713C0F601A080B18052
:100BC00016FD03C06FEF7FEF02C0692D70E022E0D9
:100BD00030E0C20ED31EC5010E94F0077C011068F0
:100BE00013FF07C01BC080E290E0B3010E9416080B
:100BF0008A94882D90E0E816F906A8F30FC0F50155
:100C000017FD859117FF81915F0190E0B3010E946C
:100C1000160881108A940894E108F108E114F1049F
:100C200071F7F2C0943611F0993689F517FF08C0B4
:100C3000F601208131814281538184E090E00AC035
:100C4000F601808191819C01442737FD4095542F06
:100C500082E090E0C80ED91E9FE6F92EF12257FFE0
:100C600009C050954095309521953F4F4F4F5F4FAC
:100C700090E8F92ACA01B901AE014F5F5F4F2AE03F
:100C800030E00E94BA08E82EE889EE1A41C0953794
:100C900021F41F7E2AE030E01CC0197F9F3661F0EE
:100CA000903720F4983509F0B2C00FC0903739F072
:100CB000983709F0ACC004C028E030E00AC01061E9
:100CC00014FD146020E130E004C014FD166020E142
:100CD00032E017FF08C0F601608171818281938143
:100CE00044E050E008C0F60180819181BC0180E0C1
:100CF00090E042E050E0C40ED51EAE014F5F5F4F62
:100D00000E94BA08E82E5889E51A8FE7F82EF122DA
:100D1000F6FE0BC08EEFF822E91438F4F4FE07C09B
:100D2000F2FC05C09FEEF92202C01E2D01C0192D54
:100D3000F4FE0DC0FE01EE0DF11D8081803319F42B
:100D4000E9EEFE2208C01F5FF2FE05C003C08F2D32
:100D5000867809F01F5F0F2DF3FC14C0F0FE0FC062
:100D6000181510F09E2C0BC09E2C980C911A182D63
:100D700006C080E290E0B3010E9416081F5F1815BC
:100D8000C0F304C0181510F4811A01C0882404FFB0
:100D90000FC080E390E0B3010E94160802FF1DC05F
:100DA00001FD03C088E790E00EC088E590E00BC02D
:100DB000802F867891F001FF02C08BE201C080E2B3
:100DC000F7FC8DE290E0B3010E94160806C080E3B4
:100DD00090E0B3010E9416089A94E914C0F3EA94D3
:100DE000E1E0F0E0EC0FFD1FEE0DF11D808190E0E1
:100DF000B3010E941608EE2091F706C080E290E051
:100E0000B3010E9416088A948820C1F797CCF30199
:100E100066817781CB016196E2E10C94643F2830D2
:100E200008F027E03327DA01990F311D87FD916023
:100E300000966105710539F432602E5F3D9330E311
:100E40002A95E1F708959F3F30F0803871056105DC
:100E500009F03C5F3C5F3D93913008F08068911D44
:100E6000DF93CF931F930F93FF92EF92192F987FE9
:100E70009695E92F96959695E90FFF27EC5FFC4F25
:100E800099273327EE24FF24A701E7010590089452
:100E9000079428F4360FE71EF81E491F511D660FF0
:100EA000771F881F991F0694A1F70590079428F4CF
:100EB000E70EF81E491F561FC11D770F881F991F87
:100EC000661F0694A1F70590079428F4F80E491FB1
:100ED000561FC71FD11D880F991F661F771F0694C5
:100EE000A1F70590079420F4490F561FC71FD81F7C
:100EF000990F661F771F881F0694A9F78491109594
:100F0000177041F0D695C79557954795F794E79494
:100F10001A95C1F7EAEAF2E06894159015913591B7
:100F20006591959105907FE27395E118F10A430B65
:100F3000560BC90BD009C0F7E10CF11E431F561F19
:100F4000C91FD01D7EF4703311F48A95E6CFE89462
:100F5000015030F0080F0AF40027021708F4202F80
:100F60002395022F7A3328F079E37D932A95E9F7C8
:100F700010C07D932A9589F60694979567953795C5
:100F800017951794E118F10A430B560BC90BD009BA
:100F900098F023957E9173957A3308F070E37C93F3
:100FA0002013B8F77E9170617D9330F0839571E3E3
:100FB0007D9370E32A95E1F71124EF90FF900F9154
:100FC0001F91CF91DF91992787FD90950895FC019E
:100FD00005900020E9F7809590958E0F9F1F08954A
:100FE000FC010590615070400110D8F780959095F4
:100FF0008E0F9F1F0895FB01DC0102C001900D922E
:1010000041505040D8F70895DC0101C06D93415024
:101010005040E0F70895FC016150704001900110CC
:10102000D8F7809590958E0F9F1F08950F931F936B
:10103000CF93DF938C01EB018B8181FF1BC082FF7B
:101040000DC02E813F818C819D812817390764F462
:10105000E881F9810193F983E88306C0E885F98581
:10106000802F1995892B31F48E819F8101969F8362
:101070008E8302C00FEF1FEFC801DF91CF911F9148
:101080000F910895AEE0B0E0E8E4F8E00C94563F2C
:101090000E891F8986E08C831A8309838FEF9FE76F
:1010A0009E838D839E01265E3F4FCE010196688D03
:1010B000798DA9010E9486032F813885020F131FA5
:1010C000F80110822E96E4E00C94723FAEE0B0E09E
:1010D000ECE6F8E00C94563F8C0177FF02C060E02C
:1010E00070E8615070407E836D831A83098386E0C7
:1010F0008C83CE010196BA01A9010E9486032D813D
:101100003E8137FD09C0EF81F8852E173F070CF4AB
:10111000F901E00FF11F10822E96E4E00C94723F6B
:10112000AEE0B0E0E6E9F8E00C94563F8C0177FFC2
:1011300002C060E070E8615070407E836D831A8366
:1011400009838EE08C83CE010196BA01A9010E9429
:1011500086032D813E8137FD09C0EF81F8852E176A
:101160003F070CF4F901E00FF11F10822E96E4E026
:101170000C94723FFA01AA27283051F1203181F1F5
:10118000E8946F936E7F6E5F7F4F8F4F9F4FAF4F8F
:10119000B1E03ED0B4E03CD0670F781F891F9A1FA2
:1011A000A11D680F791F8A1F911DA11D6A0F711D56
:1011B000811D911DA11D20D009F468943F912AE062
:1011C000269F11243019305D3193DEF6CF0108954A
:1011D000462F4770405D4193B3E00FD0C9F7F6CF7B
:1011E000462F4F70405D4A3318F0495D31FD405243
:1011F000419302D0A9F7EACFB4E0A69597958795D9
:1012000077956795BA95C9F70097610571050895B7
:101210009B01AC010A2E0694579547953795279563
:10122000BA95C9F7620F731F841F951FA01D0895FB
:1012300080917D1590917E15009761F08130910528
:10124000A9F00297029760F081E061E041E00E941E
:10125000DF0A089580E061E040E00E94DF0A08951F
:1012600080E060E041E00E94DF0A089581E060E0F4
:1012700040E00E94DF0A0895A0E2B0E0E2E4F9E075
:101280000C94503F80918015882309F082C00E9401
:10129000D81019821A821B821C828CE0FE013596BE
:1012A000DF01282F1D922A95E9F7198A1A8A1B8ACD
:1012B0001C8AFE017596DF011D928A95E9F70E944E
:1012C000530E7B018C010E946C0E2DB73EB72C5043
:1012D00030400FB6F8943EBF0FBE2DBFEDB7FEB73E
:1012E000319621E1A22EB12CAC0EBD1EADB7BEB71A
:1012F0001296BC92AE92119720E032E033832283A3
:10130000E482F582068317836087718782879387DB
:101310000E9442082DB73EB7245F3F4F0FB6F894A6
:101320003EBF0FBE2DBF0E94C9106C010E94CE109F
:101330007C010E94D310ADB7BEB71A970FB6F894D0
:10134000BEBF0FBEADBFEDB7FEB731968E010F5FCA
:101350001F4F12961C930E93119720E132E03383B6
:101360002283D582C482F782E682918780870E9499
:1013700042082DB73EB7265F3F4F0FB6F8943EBFE9
:101380000FBE2DBFC801B5010E94940A81E0809371
:101390008015A096EAE00C946C3F80917D159091A9
:1013A0007E15049771F0809184158111089586E06F
:1013B00090E062E370E00E941F0F81E0809384154B
:1013C000089585E090E060E070E00E941F0F0895AE
:1013D00080918315811108950E94DE0E81E0809333
:1013E0008315089580917F158823A9F480917D1538
:1013F00090917E15009781F081309105B9F082308F
:101400009105C9F0039769F084E090E00E94920F83
:1014100081E080937F15089580E090E00E94920F14
:10142000F7CF82E090E00E94920FF2CF81E090E04F
:101430000E94920FEDCF83E090E00E94920FE8CFE0
:101440000E94E8090E94F2090E94CD090E943C090D
:101450000E941809F5CF84E690E00E946811882365
:1014600061F080917D1590917E158430910529F071
:10147000019690937E1580937D1581E090E00E9407
:101480006811882311F01092831582E090E00E9489
:101490006811882311F010927F158CE090E00E9473
:1014A0006811882311F01092801581E090E00E946D
:1014B0006811882311F01092841508950E942B0A58
:1014C00008950E94D00A0E9440110E94B50A0E940D
:1014D0008C108EE59AE00E94441110927E151092B5
:1014E0007D1510928315109280151092841510921C
:1014F0007F1583E090E0909382158093811585E0BD
:1015000090E060E070E00E941F0F08951F93182F75
:1015100081E090E06EEF0E94153881E090E0612F4D
:101520000E9415381F910895EF92FF920F931F9319
:101530008C017B0181E090E00E94860A80E890E0C7
:101540000E94860A81E090E0B8010E94CC3C80ECC9
:1015500090E00E94860A81E090E0B7010E94CC3CB6
:101560001F910F91FF90EF9008950F931F9381E0CB
:1015700090E040E855E260E070E02FEF30E000E4FA
:1015800010E00E942F3E539A5B9A8CE090E00E94FC
:10159000860A81E090E00E94860A1F910F910895CB
:1015A000E1E0F1E08081886080836B9A6D9AE2E0EF
:1015B000F1E0808188608083739A759A089588230A
:1015C00061F080910201877F80930201662361F0C0
:1015D0007398442361F4759A08958091020188609C
:1015E000809302016623A1F7739A4423A1F37598AF
:1015F0000895FFCF0F931F9380E090E040E052ECFE
:1016000061E070E02FEF30E000E410E00E942F3E38
:1016100090938615809385158FE892E00E941E3C7A
:101620000E94610A0E94200A86E692E00E941E3C07
:1016300080E090E01F910F9108959C01DC01AA0FBA
:10164000BB1FAC01440F551F440F551F440F551FBE
:10165000FD01E40FF51FEF54FD4F0190F081E02DE7
:10166000808191818C54944085579E4020F080E584
:101670009AE091838083F901EE0FFF1FEE0FFF1FA9
:10168000E20FF31FEE0FFF1FED54FD4F0190F081AD
:10169000E02DA40FB51FAF54BD4F14964D915C9132
:1016A0001597208181E090E016960C90169702C065
:1016B000880F991F0A94E2F7282B2083FA012081D2
:1016C0008095822380831896ED91FC911997008470
:1016D000F185E02D20811796AC91A13069F0A13001
:1016E00030F480E89FEB822B892380830895A23019
:1016F000E9F788E09BEFF7CF80E29FEEF4CFCF933E
:10170000DF93FC01EE0FFF1FEE0FFF1FE80FF91F25
:10171000EE0FFF1FED54FD4F40815181DC01AA0FF8
:10172000BB1FAA0FBB1FAA0FBB1F880F991FA80FB3
:10173000B91FAF54BD4F1496ED91FC911597EA0176
:10174000288181E090E016960C90169702C0880FD1
:10175000991F0A94E2F7282B288320818095822301
:1017600080831896ED91FC9119970084F185E02D06
:10177000908117968C91813069F0813030F48FE33D
:1017800089238083DF91CF910895823029F0DF9102
:10179000CF9108958FECF4CF83EFF2CF9C01CB0172
:1017A0008C54944085579E4098F4C901F901EE0F7E
:1017B000FF1FEE0FFF1FEE0FFF1F880F991FE80F8F
:1017C000F91FEF54FD4F0190F081E02D718360838C
:1017D00008959C01FC01EE0FFF1FEE0FFF1FEE0F9F
:1017E000FF1F220F331FE20FF31FEF54FD4F019035
:1017F000F081E02D20813181C9010895CF93DF93DD
:10180000DC01EB01F894FC01EE0FFF1FEC51FD4FE2
:1018100080819181019739F020E030E07894C9010E
:10182000DF91CF910895AA0FBB1FAA0FBB1FA4522F
:10183000BD4F8D919D910D90BC91A02D8883998372
:10184000AA83BB831182108221E030E07894C90121
:10185000DF91CF9108951F920F920FB60F9211242E
:101860008F939F93AF93BF938091D0029091D102B9
:10187000A091D202B091D3020196A11DB11D809317
:10188000D0029093D102A093D202B093D302BF9121
:10189000AF919F918F910F900FBE0F901F90189551
:1018A0001F920F920FB60F9211248F939F93AF93B5
:1018B000BF938091D4029091D502A091D602B091AD
:1018C000D7020196A11DB11D8093D4029093D50239
:1018D000A093D602B093D702BF91AF919F918F9101
:1018E0000F900FBE0F901F9018951F920F920FB67A
:1018F0000F920BB60F921124EF92FF920F931F934A
:101900002F933F934F935F936F937F938F939F9307
:10191000AF93BF93CF93DF93EF93FF93E091910247
:10192000F0919202808180628083E0919702F09131
:101930009802C081D1812091D0023091D102409192
:10194000D2025091D3021092D0021092D102109282
:10195000D2021092D302211531054105510509F437
:1019600044C08091D8029091D9027E0100E010E03D
:10197000A0E0B0E0E81AF90A0A0B1B0BCA01B90192
:101980002FE33CE940E050E00E94F43EE60EF71EF3
:10199000081F191FE092DC02F092DD020093DE02C4
:1019A0001093DF0281E090E09093E5028093E402DF
:1019B000D093D902C093D802FF91EF91DF91CF91DC
:1019C000BF91AF919F918F917F916F915F914F9157
:1019D0003F912F911F910F91FF90EF900F900BBEB1
:1019E0000F900FBE0F901F9018958091D802909184
:1019F000D9029E01281B390B790100E010E0CACF03
:101A00001F920F920FB60F920BB60F921124EF9206
:101A1000FF920F931F932F933F934F935F936F9377
:101A20007F938F939F93AF93BF93CF93DF93EF9366
:101A3000FF93A0918F02B0919002ED91FC911197CC
:101A40008081806280831696ED91FC911797C0810A
:101A5000D1812091D4023091D5024091D60250918B
:101A6000D7021092D4021092D5021092D602109290
:101A7000D702211531054105510509F444C0809173
:101A8000DA029091DB027E0100E010E0A0E0B0E01D
:101A9000E81AF90A0A0B1B0BCA01B9012FE33CE94A
:101AA00040E050E00E94F43EE60EF71E081F191FAA
:101AB000E092E002F092E1020093E2021093E3026E
:101AC00081E090E09093E7028093E602D093DB02FE
:101AD000C093DA02FF91EF91DF91CF91BF91AF9167
:101AE0009F918F917F916F915F914F913F912F9136
:101AF0001F910F91FF90EF900F900BBE0F900FBEB4
:101B00000F901F9018958091DA029091DB029E0150
:101B1000281B390B790100E010E0CACF8091A000AA
:101B20008F738093A0008091A0008F7C8093A00091
:101B30008091A000837F8093A0008091A00090916D
:101B4000A100836098618093A0009093A100809190
:101B5000A10082608A7F8093A1002EE33CE930934C
:101B6000A9002093A800809120018F738093200109
:101B7000809120018F7C8093200180912001837FC0
:101B800080932001809120019091210183609861D0
:101B900080932001909321018091210182608A7FAE
:101BA0008093210130932901209328011092D902BA
:101BB0001092D8021092D0021092D1021092D2024A
:101BC0001092D30280910A018E7F80930A01809146
:101BD0000B018E7F80930B01E0919302F0919402B0
:101BE000808180628083808181608083E0919B021C
:101BF000F0919C028081806480831092DB021092BD
:101C0000DA021092D4021092D5021092D6021092EB
:101C1000D70280910A018D7F80930A0180910B0188
:101C20008D7F80930B01A0918F02B091900212964C
:101C3000ED91FC9113978081806280831296ED91E3
:101C4000FC9113978081816080831A96ED91FC91BD
:101C50001B978081806480830895882391F4CB0151
:101C6000BA0120E030E840EC54EC0E94AF3720E0AD
:101C700030E045E255E40E94F8350E94C836CB01B9
:101C80000895CB01BA0120E030E047E055E40E941E
:101C9000AF3720E030E045E255E40E94F8350E947D
:101CA000C836CB0108956091971570919815809171
:101CB000991590919A1520919D1530919E154091FE
:101CC0009F155091A0150E94F83520E030E040E0CB
:101CD0005FE30E94AF370895609187157091881572
:101CE0008091891590918A1520918B1530918C15D2
:101CF00040918D1550918E150E94F83520E030E00E
:101D000040E05FE30E94AF370895CF92DF92EF92F9
:101D1000FF920F931F938C01F42EE52ED62EC72E23
:101D200060E070E00E94FE0B019769F12F2D3E2DBF
:101D30004D2D5C2DC901DA016C017D01000F111FD1
:101D4000000F111F09571A4EC701B60120E030E0FD
:101D500048EC52E40E9460369B01AC01F8016081BE
:101D60007181828193810E94F835F80160837183CB
:101D700082839383B601C7011F910F91FF90EF906B
:101D8000DF90CF90089560910000709101008091E4
:101D90000200909103000E94F9362DEB37E346E0F4
:101DA00055E30E94AF379B01AC016CE772EF80EB0B
:101DB0009BE30E9460366B017C01C0CF40918F1580
:101DC00050919015609191157091921580E090E07E
:101DD0000E94850E609397157093981580939915BE
:101DE00090939A1540919315509194156091951583
:101DF0007091961581E090E00E94850E60939D158C
:101E000070939E1580939F159093A0152091971520
:101E1000309198154091991550919A1520938F15EE
:101E200030939015409391155093921560939315AC
:101E30007093941580939515909396150895EF924D
:101E4000FF920F931F93CF93DF93EC017B0103E08D
:101E500010E00AC082E090E090939C1580939B155F
:101E6000C0919B15D0919C1582E090E00E94E90BF7
:101E7000BC01C630D10561F484E06D34780750F3BD
:101E8000605C724168F310939C1500939B15E8CF3A
:101E9000C330D10571F0C230D105D9F0C530D105BC
:101EA00091F1249731F1CDB7DEB7E6E00C94703FA5
:101EB00039C06E197F0982E090E00E94CE0B82E06B
:101EC00090E00E941D0BCDB7DEB7E6E00C94703FAA
:101ED00029C06E0D7F1D82E090E00E94CE0B82E053
:101EE00090E00E941D0BCDB7DEB7E6E00C94703F8A
:101EF00019C082E090E00E941D0BCDB7DEB7E6E08E
:101F00000C94703F0FC082E090E066E87BE00E9496
:101F1000CE0B82E090E00E941D0BCDB7DEB7E6E06D
:101F20000C94703FA0E0B0E0E8E9FFE00C94503F73
:101F3000EC01A0909315B0909415C0909515D09099
:101F40009615E0908F15F0909015009191151091D5
:101F50009215C601B501A80197010E94AB3718166A
:101F60000CF054C0C601B50120E030E040E050E084
:101F70000E945C36882309F449C0C801B701A60154
:101F800095010E9460367B018C0160E070E080E882
:101F90009FE3209709F04BC020E030E047E055E494
:101FA0000E94AF3720E030E045E255E40E94F8356A
:101FB0000E94C8369B01AC0180E090E0B9010E940C
:101FC000CE0B80E090E00E941D0BC801B70120E01D
:101FD00030E840EC54EC0E94AF3720E030E045E2BE
:101FE00055E40E94F8350E94C8369B01AC0181E09F
:101FF00090E0B9010E94CE0B81E090E00E941D0BA1
:10200000CDB7DEB7EAE00C946C3F86C0C601B501DF
:10201000A80197010E945C368823E4F060E070E03C
:1020200080E89FE37B018C01209709F4B5CFC13094
:10203000D10581F1C330D10509F44CC0C230D105BE
:1020400021F1249709F44BC0CDB7DEB7EAE00C9438
:102050006C3F62C0C801B70120E030E040E050E0D2
:102060000E945C368823D1F2C601B501A801970110
:102070000E9460360F2EF0E0EF2EF0E0FF2EF0E829
:102080000F2FFFE31F2FF02DCFCF20E030E840ECE3
:1020900054EC86CF20E030E840EC54EC0E94AF379F
:1020A00020E030E045E255E40E94F8350E94C83651
:1020B0009B01AC0180E090E0B9010E94CE0B80E072
:1020C00090E00E941D0BC801B70120E030E047E01E
:1020D00055E481CF20E030E047E055E4DFCF81E0F8
:1020E00090E00E947F0B80E090E00E947F0B80E0F8
:1020F00090E0A0E0B0E08093931590939415A093A6
:102100009515B093961580938F1590939015A09385
:102110009115B093921598CF0E948E0D80E090E0BB
:10212000A0E0B0E080939D1590939E15A0939F151D
:10213000B093A0158093971590939815A093991537
:10214000B0939A158093931590939415A093951539
:10215000B093961580938F1590939015A093911539
:10216000B09392158093871590938815A093891545
:10217000B0938A1580938B1590938C15A0938D1531
:10218000B0938E1583E090E090939C1580939B15FF
:1021900008958091B5159091B61508958091B31565
:1021A0009091B41508958091B1159091B21508954C
:1021B000A4E0B0E0EEEDF0E10C94483F01EA15E157
:1021C000CC24DD24AA24BB24882499245EEFE52EA8
:1021D0005FEFF52E2E010894411C511C43E0642E44
:1021E000712C6C0E7D1E31ED232E332433940BC0E5
:1021F000A80EB91E0E5F1F4F0894E11CF11C25E1CB
:10220000013B1207F9F020ED29838E2D8C5F8A8324
:102210002B823C82C20162E00E94EE11C30162E0A7
:102220000E94EE11C80162E00E943912F80181811A
:1022300090E0C80ED91EF4E0EF16F104C8F2880E43
:10224000991ED8CFD594C794D594C794D594C794E4
:10225000D092B615C092B515B594A794B594A7942D
:10226000B092B415A092B3159594879495948794E1
:102270009092B2158092B1152496E2E10C94643FDD
:1022800080EC0E94421308951092B8151092B71571
:102290009093BA158093B915A1E7B0E08C918E7F29
:1022A0008C9310929000E1E9F0E010828FE89DEFAE
:1022B00090939500809394008081846080838C91BA
:1022C00081608C9308958091B7159091B815089509
:1022D000BC012091B7153091B815C9010E94133F78
:1022E000892B11F080E0089580E0232B09F40895F4
:1022F00081E008951F920F920FB60F920BB60F92C6
:1023000011242F933F934F935F936F937F938F93FA
:102310009F93AF93BF93EF93FF938091B7159091E5
:10232000B81501969093B8158093B7158FE89DEF77
:102330009093950080939400E091B915F091BA15AF
:102340001995FF91EF91BF91AF919F918F917F91DF
:102350006F915F914F913F912F910F900BBE0F9016
:102360000FBE0F901F9018958091BC0080FDFCCF90
:102370001092EA0288EF8093540285EC8093BC00AF
:1023800008958091BC0080FDFCCF1092EA0288EF96
:102390008093540285EE8093BC000895AC01809137
:1023A000BC0080FDFCCF60930503662371F020E044
:1023B00030E0F901E351FD4FDA01A20FB31F8C9118
:1023C00080832F5F3F4F2617A0F31092EA0288EF19
:1023D0008093540285EC8093BC000895FC018091A9
:1023E000BC0080FDFCCF6093050380818093ED02EB
:1023F000808180FD11C0623078F0DF01EEEEF2E006
:10240000625070E061517D4F11968C9111978193CC
:102410001196E617F707C1F71092EA0288EF80934A
:10242000540285EA8093BC000895AC018091BC0001
:1024300080FDFCCF2091EA0220FF19C0662381F0C5
:1024400020E030E0FA01E20FF31FD901A351BD4FA4
:102450008C9180832F5F3F4F2617A0F32091EA02D3
:10246000822F8D7F8093EA02822F8170089580E011
:102470000895AC018091BC0080FDFCCF8091EA0200
:10248000282F217080FF13C0662389F020E030E000
:10249000FA01E20FF31FD901A351BD4F8C91808344
:1024A0002F5F3F4F2617A0F32091EA022170822F61
:1024B00008958091EB02882319F089B189B1FDCF8D
:1024C00081E008958091BC0080FDFCCF8091540292
:1024D00008951F920F920FB60F920BB60F92112410
:1024E0002F933F938F939F93AF93BF93EF93FF935C
:1024F0008091B90090E0FC013897E13CF105B0F023
:102500008091B9008093540285ED8093BC00FF91C7
:10251000EF91BF91AF919F918F913F912F910F902C
:102520000BBE0F900FBE0F901F901895EE58FF4FE7
:102530000C947F3F8091EC029091BB00E82FF0E07B
:10254000E351FD4F90838F5F8093EC028091EA020C
:1025500081608093EA0285EC8093BC00D8CF209103
:10256000EC028091BB00E22FF0E0E351FD4F80834D
:102570002F5F2093EC0230E08091050390E00197FB
:102580002817390744F385E88093BC00C0CF109228
:10259000EC029091EC0280910503981708F05DC061
:1025A000E92FF0E0E351FD4F80818093BB009F5FF6
:1025B0009093EC0285E88093BC00A9CF1092EC02C6
:1025C0009091EC02E92FF0E0E351FD4F8081809380
:1025D000BB009F5F9093EC0285EC8093BC0097CF8B
:1025E0008091BB00E091EC02F0E0E351FD4F80836D
:1025F0008091EA0281608093EA0284ED8093BC00BE
:1026000086CF8091B9008093540285EE8093BC0000
:102610007ECF85EE8093BC007ACF84E08093EB027E
:102620008093BC0074CF9091EC02809105039817C1
:1026300019F18091B9008093540284E08093BC002A
:1026400066CF8091EA02846082608093EA021092F1
:10265000EC0285EC8093BC005ACF8091EA02816045
:102660008093EA0284E98093BC0051CF8091EA0212
:10267000EBCF2091EC027FCF8091EA0281608093C2
:10268000EA02DBCF1F93182F8091E8029091E902B4
:10269000892BA9F08AB18C7F8AB98BB183608BB901
:1026A0001092B9008CE28093B8001093BA008FEFBB
:1026B0008093BB0084E08093BC001F91089581E06B
:1026C00060E043E00E942F199093E9028093E802B2
:1026D000009701F360E070E040E050E020E00E94ED
:1026E0009C16D8CF1F93182F8091E8029091E90291
:1026F000892B69F08AB18C7F8AB91093BA008FEF69
:102700008093BB0084E08093BC001F91089581E01A
:1027100060E043E00E942F199093E9028093E80261
:10272000009741F360E070E040E050E020E00E945C
:102730009C16E0CF0FB6F8940F92FC01828D0F909B
:102740000FBE0895FC010FB6F8940F92928D0F9072
:102750000FBE838D891B0895FC01828D0895FC01B5
:10276000878D0895FC01678F0895FC0180A108956D
:10277000FC01828D90E0882309F491E0892F08956F
:10278000FC01928D20E0838D981711F0822F08951F
:1027900021E0822F0895CF93DF93EC018881998106
:1027A000009711F00E94EA33CE010E94EA33DF91D4
:1027B000CF9108950F931F93CF93DF93562FE72F59
:1027C000EC018A8D8823F1F00E811F816881798167
:1027D00061157105A1F04C8D9801240F311D3F83C7
:1027E0002E838A819B812817390710F07F836E839F
:1027F0006E817F81852F9E2F50E00E94FB071F83F3
:102800000E8381E0DF91CF911F910F9108950F9377
:102810001F93CF93DF93FB018A01EC018A8D8823FC
:1028200019F16881798161157105A1F04C8D8E8156
:102830009F81840F911D9F838E832A813B81821704
:10284000930710F07F836E836E817F81CF0150E00C
:102850000E94FB078A8D81508A8F8D8D8F3F49F0B2
:102860008D8D8F5F8D8F81E0DF91CF911F910F91C3
:1028700008958885882331F481E0DF91CF911F91FD
:102880000F910895CE0108960E94B71B8823A1F3EB
:102890000115110589F381E0F8018083E5CFA5E0FA
:1028A000B0E0E5E5F4E10C944A3F562E472E5D83F7
:1028B0004C83A22E8C0128E0C22ED12CC80ED91E2A
:1028C00091E1E92EF12CE00EF11E20E04E0108947A
:1028D000811C911C84E0682E712C6C0E7D1EBB2423
:1028E000BA940FB6F8940F92F801828D882309F0FC
:1028F000ECC08C819D81892B09F41CC1222309F431
:10290000D5C00F900FBE0E949D190FB6F8940F927C
:10291000F801858D8F3F09F4C7C0F801868D8F3F80
:1029200009F4C0C00F900FBEC401B3010E94C219C8
:10293000882309F007C10FB6F8940F92F801828D31
:102940000F900FBE882309F05FC0F801808191814C
:10295000892B09F4AFC06C817D81C7010E94A11D44
:102960000FB6F8940F92F801868D18164CF019C026
:10297000F801868D8150868F868D181694F4F801A3
:102980008189882371F0C7010E94B71B882381F3D6
:102990000E94011AF801868D8150868F868D181647
:1029A00074F3F801B68E0F900FBE0FB6F8940F9225
:1029B000F801858D18164CF019C0F801858D8150ED
:1029C000858F858D181694F4F8018085882371F021
:1029D000C6010E94B71B882381F30E94011AF801E7
:1029E000858D8150858F858D181674F3F801B58E0D
:1029F0000F900FBE0E94B71E882311F021E071CF07
:102A00000E947E3321E06DCF0FB6F8940F92F8014B
:102A1000868D18164CF019C0F801868D8150868F6E
:102A2000868D181694F4F8018189882371F0C70106
:102A30000E94B71B882381F30E94011AF801868D3A
:102A40008150868F868D181674F3F801B68E0F901C
:102A50000FBE0FB6F8940F92F801858D18164CF042
:102A600019C0F801858D8150858F858D181694F4D5
:102A7000F8018085882371F0C6010E94B71B882366
:102A800081F30E94011AF801858D8150858F858D13
:102A9000181674F3F801B58E0F900FBE0E94B71E82
:102AA00021E01FCF168E3ECF158E37CFC4010E9476
:102AB000B71927CF0FB6F8940F92F801828193814E
:102AC0000E942F1B0F900FBE46CF8680978060819B
:102AD000718161157105A1F0448D9401240F311DA0
:102AE00037832683828193812817390708F08CC0A9
:102AF000F80166817781852D942D50E00E94FB07B7
:102B0000AA2009F073C0F801828D8150828F8081E4
:102B10009181892B09F481C0F8018085882309F40B
:102B20006BC0C6010E94B71B813009F065C00E94CE
:102B30007E3362C00F900FBE80E02596E0E10C94DA
:102B4000663F71C00FB6F8940F92F801868D181683
:102B50004CF019C0F801868D8150868F868D18162D
:102B600094F4F8018189882371F0C7010E94B71B92
:102B7000882381F30E94011AF801868D8150868F87
:102B8000868D181674F38FEFF801868F0F900FBEA5
:102B90000FB6F8940F92F801858D18164CF019C0F5
:102BA000F801858D8150858F858D181694F4F80174
:102BB0008085882371F0C6010E94B71B882381F3AA
:102BC0000E94011AF801858D8150858F858D181618
:102BD00074F38FEFF801858F0F900FBE0E94B71E20
:102BE00080E02596E0E10C94663F1DC0F8019782D5
:102BF00086828189882359F40F900FBE81E0259643
:102C0000E0E10C94663F0FC07783668371CFC70104
:102C10000E94B71B882381F38ACF0E94DF1AF80134
:102C20009383828379CFEF92FF921F93CF93DF93A9
:102C30007A01122FEC019A8D8B8D981748F0223073
:102C400039F080E0DF91CF911F91FF90EF900895D0
:102C50004C8D4423A9F488819981892B09F465C09E
:102C60008A8D8F5F8A8F8E8D8F3F89F18E8D8F5FDA
:102C70008E8F81E0DF91CF911F91FF90EF900895AB
:102C8000112379F18E819F8150E00E94FB078C8D8A
:102C900090E044275527481B590B8E819F81840F54
:102CA000951F9F838E83288139818217930730F483
:102CB0008A819B81840F951F9F838E83123081F6BA
:102CC0008A8D882369F28A8D81508A8FC9CF89893C
:102CD0008823F1F481E0DF91CF911F91FF90EF9075
:102CE00008958C819D8150E00E94FB078C8D2C8182
:102CF0003D81280F311D3D832C838A819B812817BC
:102D0000390708F4ADCF888199819D838C83A8CF42
:102D1000CE0141960E94B71B8823E1F2E114F10431
:102D2000C9F281E0F7018083A5CF8A819B810E944F
:102D3000FD1A1B821A8294CFA5E0B0E0E2EAF6E128
:102D40000C944A3F562E472E5D834C83B22E8C0145
:102D500058E0E52EF12CE80EF91E41E1C42ED12CED
:102D6000C80ED91E20E04E010894811C911C34E04D
:102D7000632E712C6C0E7D1EAA24AA940FB6F894B3
:102D80000F92F801928D838D981708F4E0C0F2E05D
:102D9000BF1609F4DCC08C819D81892B09F41EC10A
:102DA000222309F478C00F900FBE0E949D190FB620
:102DB000F8940F92F801858D8F3F09F46AC0F801ED
:102DC000868D8F3F09F463C00F900FBEC401B3011D
:102DD0000E94C219882309F009C10FB6F8940F9216
:102DE000F801928D0F900FBEF801838D981709F4AA
:102DF00056C00FB6F8940F92F801868D18164CF055
:102E000019C0F801868D8150868F868D181694F42E
:102E1000F8018189882371F0C6010E94B71B8823BD
:102E200081F30E94011AF801868D8150868F868D6C
:102E3000181674F3F801A68E0F900FBE0FB6F89413
:102E40000F92F801858D18164CF019C0F801858D88
:102E50008150858F858D181694F4F801808588231C
:102E600071F0C7010E94B71B882381F30E94011AE9
:102E7000F801858D8150858F858D181674F3F801C2
:102E8000A58E0F900FBE0E94B71E21E077CF168E41
:102E90009BCF158E94CFC4010E94B71984CF6C814B
:102EA0007D81C7010E94A11D0FB6F8940F92F80111
:102EB000868D18164CF019C0F801868D8150868FCA
:102EC000868D181694F4F8018189882371F0C60163
:102ED0000E94B71B882381F30E94011AF801868D96
:102EE0008150868F868D181674F3F801A68E0F9088
:102EF0000FBE0FB6F8940F92F801858D18164CF09E
:102F000019C0F801858D8150858F858D181694F430
:102F1000F8018085882371F0C7010E94B71B8823C0
:102F200081F30E94011AF801858D8150858F858D6E
:102F3000181674F3F801A58E0F900FBE0E94B71EED
:102F4000882309F0A2CF0E947E3321E017CFF80139
:102F5000448D4423A9F480819181892B09F4BEC05A
:102F6000F801828D8F5F828F8189882309F0ADC03F
:102F70000F900FBE81E02596E0E10C94663FB6C04D
:102F8000BB2009F487C0F80186819781652D742DD7
:102F900050E00E94FB07F801848D90E044275527FC
:102FA000481B590B86819781840F951F97838683D1
:102FB000208131818217930730F482819381840FBD
:102FC000951F97838683F2E0BF1651F6F801828D34
:102FD000882331F2828D8150828FC2CF0F900FBE35
:102FE00080E02596E0E10C94663F80C00FB6F8942F
:102FF0000F92F801868D18164CF019C0F801868DD5
:103000008150868F868D181694F4F8018189882363
:1030100071F0C6010E94B71B882381F30E94011A38
:10302000F801868D8150868F868D181674F38FEF88
:10303000F801868F0F900FBE0FB6F8940F92F8012B
:10304000858D18164CF019C0F801858D8150858F3B
:10305000858D181694F4F8018085882371F0C701D6
:103060000E94B71B882381F30E94011AF801858D05
:103070008150858F858D181674F38FEFF801858F39
:103080000F900FBE0E94B71E80E02596E0E10C94E1
:10309000663F2CC0F80184819581652D742D50E028
:1030A0000E94FB07F801848D24813581280F311D92
:1030B00035832483828193812817390708F450CF00
:1030C00080819181958384834BCFC6010E94B71B79
:1030D000813009F04DCF0E947E334ACF82819381A7
:1030E0000E94FD1AF801138212823ACF0F931F93A8
:1030F000CF93DF93182F81E290E00E945D34EC01C2
:10310000009719F11B821A82198218821D821C8273
:103110001F821E821A8E81E08B8F1C8E8FEF8D8F07
:103120008E8F18A3CE0108960E945B358E010F5E2C
:103130001F4FC8010E945B350FB6F8940F929A8D0D
:103140008B8D981740F00F900FBECE01DF91CF917D
:103150001F910F9108954C8D442391F4888199819A
:10316000892B71F18A8D8F5F8A8F8989882301F578
:103170000F900FBECE01DF91CF911F910F91089557
:103180008C819D8160E070E050E00E94FB078C8D97
:103190002C813D81280F311D3D832C838A819B81A9
:1031A00028173907F8F2888199819D838C83DACFBB
:1031B000C8010E94B71B8130D9F60E947E33D8CF58
:1031C0008A819B810E94FD1A1B821A82CBCFCF93EA
:1031D000DF93EC010FB6F8940F92EC8D2B8DE29FEC
:1031E000C001112448815981840F951F9B838A83D4
:1031F0001A8E5D834C8330E021503040F0E02E9FEA
:10320000C0012F9F900D3E9F900D1124480F591F14
:103210005F834E838FEF8D8F8E8F662391F4888529
:10322000882331F40F900FBE81E0DF91CF91089594
:10323000CE0108960E94B71B8130A1F70E947E3311
:10324000F1CFCE0108960E945B35CE0141960E94D7
:103250005B350F900FBE81E0DF91CF910895CF9243
:10326000DF92FF920F931F93CF93DF93182F062FB8
:10327000F42E882359F440E050E0CA01DF91CF9149
:103280001F910F91FF90DF90CF90089581E290E021
:103290000E945D34EC01009771F3C02EDD24812F74
:1032A00090E09C01C29EC001C39E900DD29E900DE5
:1032B000112401960E945D34998388830097B9F1A7
:1032C0001B8F0C8F0FB6F8940F922B8D30E0C29E9F
:1032D000C001C39E900DD29E900D1124488159814A
:1032E000840F951F9B838A831A8E5D834C832150A4
:1032F00030408C8D90E0BC01269FC001279F900D2F
:10330000369F900D1124480F591F5F834E838FEF16
:103310008D8F8E8FCE0108960E945B35CE0141962F
:103320000E945B350F900FBEF8A2AE01A6CFCE0172
:103330000E94EA3340E050E0A0CF80910E038F5FFF
:1033400080930E0308950FB6F8940F9220910B030B
:1033500030910C030F900FBEC901089520910B030B
:1033600030910C03C9010895809108030895FC0170
:1033700080910D03808380910B0390910C039283C5
:1033800081830895FC01DB010FB6F8940F926091E0
:103390000B0370910C032D913C9111978FEF2F3FF0
:1033A0003807F9F090910D0380818917F1F0418180
:1033B00052816417750708F5CB01841B950B8217A2
:1033C0009307D8F4261B370B240F351F2D933C93FE
:1033D00080910D03808380910B0390910C03928365
:1033E000818380E00F900FBE089541815281CB010F
:1033F000841B950B8217930728F381E00F900FBE73
:10340000089581E080930A030895FC01009711F06C
:1034100082A1089580E00895FC01009709F062A35D
:103420000895A0E0B0E0E7E1FAE10C944A3F3C01E6
:103430008B015A01DB018C91882309F48DC0119610
:10344000ED91FC9112970280F381E02D1296FC938E
:10345000EE93119723E0C22ED12CC60ED71EEC1589
:10346000FD0509F483C086809780FF249FE0E92E44
:1034700082E0482E512C82819381F80192838183CE
:10348000C816D90609F455C0D8011196ED91FC91E2
:103490001297C681D781FE9CB0011124660D771D5D
:1034A000FB01D183C0836996D383C283699789A1C5
:1034B0008483B682A5828E898783F3E0AF16B10438
:1034C00009F43FC08BA1FB0180878CA19DA1AEA117
:1034D000BFA181879287A387B487AF89B88D8C916C
:1034E000853A09F040C020E030E040E050E02F5F36
:1034F0003F4F4F4F5F4FFD01E20FF31F8081853A31
:10350000B1F3C901DB011E969C938E931D97F39432
:10351000C815D90511F1D8011196ED91FC911297BA
:1035200082819381F80192838183C816D90609F0BC
:10353000ABCFD60112968D919C9113979283818384
:10354000A3CF8C899D89892B09F4BCCFDB0116960A
:103550005C924E921597B6CFFF248F2DCDB7DEB774
:10356000E0E10C94663F80E090E0CCCF82819381D3
:1035700011968C93119712969C939C01F90173CF2D
:103580000097B1F0FC01A789B08D8C91853AA9F420
:1035900020E030E040E050E02F5F3F4F4F4F5F4F63
:1035A000FD01E20FF31F8081853AB1F3822F089568
:1035B000E0910603F0910703E6CF80E008952091A3
:1035C000060330910703C9010895E0910603F091C5
:1035D000070384859585A0910603B0910703E091C8
:1035E0000603F0910703468924E030E0241B3109EB
:1035F0001D963C932E931C9708950F931F93CF9382
:10360000DF93EC01009731F19E898BA1981711F19E
:103610008E010E5F1F4FC8010E94C0352BA12E8B5B
:103620008C859D8597FD06C084E090E0821B910902
:103630009D878C879E8980910903891710F4909348
:10364000090389E0989FC0011124855E9C4FB80151
:103650000E946F35DF91CF911F910F9108950F93C5
:103660001F93CF93DF93EC01009741F13E89E091E6
:103670000603F09107038689381700F58C859D8530
:1036800097FD0BC0E0910603F0910703268984E0C3
:1036900090E0821B91099D878C8789E0389FC0014B
:1036A0001124855E9C4F2A853B852817390759F0E0
:1036B000E0910603F091070386898E8BDF91CF910D
:1036C0001F910F9108958E010E5F1F4FC8010E9438
:1036D000C035E0910603F091070396899E8B809197
:1036E0000903891710F49093090389E0989FC0019A
:1036F0001124855E9C4FB8010E946F35DFCF0F9378
:103700001F93CF93DF93FC01706871836083C68140
:10371000D7810E94C0358E010E5F1F4FC8010E94E5
:10372000C0359E8980910903891710F4909309038D
:1037300089E0989FC0011124855E9C4FB8010E94CA
:103740006F35E0910603F09107039E8986898917FA
:1037500040F481E080930A03DF91CF911F910F9194
:10376000089580E0DF91CF911F910F9108950F93FD
:103770001F93CF93DF93DC011596ED91FC91169783
:1037800006811781E8012C96CE010E94C0358091F8
:103790000E03882331F5E8012296CE010E94C03540
:1037A000F801968980910903891708F189E0989FAB
:1037B000C0011124855E9C4FBE010E946F35E091CF
:1037C0000603F0910703D80156969C9186898917C4
:1037D00088F481E080930A03DF91CF911F910F91CC
:1037E000089585E593E0BE010E946F35E8CF909380
:1037F0000903DCCF80E0DF91CF911F910F910895F5
:10380000A0E0B0E0E6E0FCE10C94523F80910E03B2
:10381000882309F089C080910B0390910C030196D5
:1038200090930C0380930B03E0900B03F0900C0338
:10383000E114F10419F52091510330915203809164
:103840005303909154039093520380935103309308
:1038500054032093530380910D038F5F80930D03D6
:10386000E0915103F09152038081882309F086C0D2
:103870008FEF9FEF909356028093550280915502EF
:1038800090915602E816F90608F460C0DD2449E07C
:10389000C42EE0915103F091520380818823E9F115
:1038A000E0915103F09152030580F681E02DC6812D
:1038B000D7818A819B81E816F90608F477C08E01CA
:1038C0000E5F1F4FC8010E94C0358C899D89892BCE
:1038D00021F0CE010C960E94C0359E89809109038B
:1038E000891710F4909309039C9DC0011124855EF3
:1038F0009C4FB8010E946F35E0910603F0910703D9
:103900009E898689981728F2DD24D394E09151038B
:10391000F09152038081882319F68FEF9FEF9093E7
:1039200056028093550213C0809117038F5F8093D6
:103930001703DD2480910A03882311F0DD24D3943A
:103940008D2DCDB7DEB7E8E00C946E3FDD24E0911D
:103950000603F0910703868990E0FC01EE0FFF1F3C
:10396000EE0FFF1FEE0FFF1FE80FF91FE55EFC4F84
:1039700080818230F8F2DD24D394DCCFE0915103D2
:10398000F09152030580F681E02D0680F781E02D4D
:1039900082819381909356028093550280915502C3
:1039A00090915602E816F90688F270CF909356026D
:1039B00080935502CCCFDF92EF92FF920F931F932B
:1039C000CF93DF93EC018A859B858756934041F026
:1039D00010E0812FCDB7DEB7E7E00C946F3F42C017
:1039E0008C899D8923E08535920791F3892B81F796
:1039F00080910E03882349F5DE88E0910603F0915B
:103A00000703068952E0E52EF12CEC0EFD1EC701DE
:103A10000E94C0356E8980910903861710F4609367
:103A2000090310E0D01608F011E089E0689FC0019A
:103A30001124855E9C4FB7010E946F35812FCDB751
:103A4000DEB7E7E00C946F3F0DC02C9685E593E060
:103A5000BE010E946F3510E0812FCDB7DEB7E7E0E1
:103A60000C946F3F0F931F93CF93DF938A01E091E4
:103A70000603F091070370687587648760910603F9
:103A800070910703645F7F4F0E946F35809106033A
:103A90009091070302960E94C0358FEF0F3F1807E1
:103AA00009F440C0C0910B03D0910C03C00FD11F8B
:103AB000E0910603F0910703D383C28380910B0347
:103AC00090910C03C817D907E0F0809151039091B1
:103AD000520360910603709107036E5F7F4F0E944F
:103AE0008E358091550290915602C817D90720F45F
:103AF000D0935602C0935502DF91CF911F910F9141
:103B0000089580915303909154036091060370913E
:103B100007036E5F7F4F0E948E35DF91CF911F911B
:103B20000F91089560910603709107036E5F7F4FB8
:103B300087E693E00E946F35DF91CF911F910F913F
:103B400008950F931F93CF93DF938B01609106032A
:103B500070910703645F7F4F0E948E35809106034A
:103B60009091070302960E94C0358FEF0F3F180710
:103B700009F440C0C0910B03D0910C03C00FD11FBA
:103B8000E0910603F0910703D383C28380910B0376
:103B900090910C03C817D907E0F0809151039091E0
:103BA000520360910603709107036E5F7F4F0E947E
:103BB0008E358091550290915602C817D90720F48E
:103BC000D0935602C0935502DF91CF911F910F9170
:103BD000089580915303909154036091060370916E
:103BE00007036E5F7F4F0E948E35DF91CF911F914B
:103BF0000F91089560910603709107036E5F7F4FE8
:103C000087E693E00E946F35DF91CF911F910F916E
:103C10000895EF92FF920F931F9380910E038823D4
:103C200009F093C010920A0380918400909185005E
:103C30007C0100E010E0E0920F03F092100300938B
:103C40001103109312038091130390911403A09118
:103C50001503B09116038E159F05A007B107B0F4A8
:103C6000E0910603F0910703A8019701281B390B87
:103C70004A0B5B0B84A195A1A6A1B7A1820F931F4C
:103C8000A41FB51F84A395A3A6A3B7A3E092130313
:103C9000F09214030093150310931603E0910603AA
:103CA000F0910703A0910603B091070320813181B1
:103CB00057968D919C9158978217930790F0809119
:103CC0000603909107036091060370910703675EF6
:103CD0007F4F0E94F90A05C08091090381508093AB
:103CE00009038091090390E0FC01EE0FFF1FEE0F26
:103CF000FF1FEE0FFF1FE80FF91FE55EFC4F8081ED
:103D0000882351F39091090389E0989FD0011124F1
:103D1000A55EBC4F1196ED91FC9112970280F38144
:103D2000E02D1296FC93EE931197CD010396E817C0
:103D3000F90799F086819781909307038093060392
:103D40001F910F91FF90EF90089581E080930A03F7
:103D50001F910F91FF90EF900895828193811196AA
:103D60008C93119712969C939C01F901E3CFA0E0EC
:103D7000B0E0EDEBFEE10C944F3F0FB6F8940F92DC
:103D800080910E03815080930E0380910E0388234F
:103D900009F0EDC080910803882309F4E8C0F9E038
:103DA000FF2EEE24E39480915503882369F1E0917E
:103DB0005A03F0915B03C681D781CE010C960E9415
:103DC000C0358E010E5F1F4FC8010E94C0359E890D
:103DD00080910903891710F4909309039F9DC001F6
:103DE0001124855E9C4FB8010E946F35E091060357
:103DF000F09107039E8986899817A8F2E0920A033A
:103E000080915503882399F680911703882309F43C
:103E1000AAC080911703882309F4A5C0E9E0CE2E3B
:103E2000AA24AA94BA2C9924939480910E038823EF
:103E300009F083C080910B0390910C03019690933D
:103E40000C0380930B03E0900B03F0900C03E11440
:103E5000F10409F5209151033091520380915303ED
:103E600090915403909352038093510330935403E1
:103E70002093530380910D038F5F80930D03E09196
:103E80005103F09152038081882309F097C0B092CA
:103E90005602A09255028091550290915602E81662
:103EA000F90608F473C0DD24E0915103F091520348
:103EB00080818823E9F1E0915103F091520305805C
:103EC000F681E02DC681D7818A819B81E816F906AB
:103ED00008F485C08E010E5F1F4FC8010E94C035D7
:103EE0008C899D89892B21F0CE010C960E94C035CA
:103EF0009E8980910903891710F4909309039C9D72
:103F0000C0011124855E9C4FB8010E946F35E0917D
:103F10000603F09107039E898689981728F2DD240D
:103F2000D394E0915103F09152038081882319F6D4
:103F3000B0925602A09255022AC0809117038F5F5B
:103F400080931703DD2480910A038823E1F4DD20A8
:103F5000D1F4809117038150809317038091170348
:103F6000882309F062CF80910A03813041F080E01C
:103F70000F900FBECDB7DEB7EBE00C946B3F0E9405
:103F80007E3381E0F5CF90920A03E3CFDD24E09108
:103F90000603F0910703868990E0FC01EE0FFF1FF6
:103FA000EE0FFF1FEE0FFF1FE80FF91FE55EFC4F3E
:103FB0008081823040F2DD24D394C5CFE09151035B
:103FC000F09152030580F681E02D0680F781E02D07
:103FD0008281938190935602809355025CCF909397
:103FE000560280935502D3CFA4E0B0E0EAEFFFE1A0
:103FF0000C94483F1C01DC011C92809108038983CA
:10400000909108038FE0989FC00111240E945D34B5
:104010002C01009709F4ADC0898190910E039F5F38
:1040200090930E0390910803891708F4A6C084E0CA
:10403000C82E1C82CA94BC81EFE0BE9F500111249F
:10404000A40CB51CF9E0CF9E700111244BE153E0A4
:10405000E40EF51ED7018C91882309F484C11196D2
:10406000ED91FC9112970280F381E02D1296FC9362
:10407000EE93119703E0802E912C8E0C9F1CE81577
:10408000F90509F42CC566807780DD24828193814F
:10409000F701928381838816990609F45FC0D701DE
:1040A0001196ED91FC91129766817781BFE0DB9EBE
:1040B000800111240A0D1B1DF80171836083675E66
:1040C0007F4F7383628369517040DB0191968C91BD
:1040D0009197848341E050E05683458356968C91B6
:1040E0005697878393968C919397808794968D911A
:1040F0009D910D90BC91A02D81879287A387B48755
:10410000FB01A789B08D8C91853A09F0D4C220E0DB
:1041100030E040E050E02F5F3F4F4F4F5F4FFD01D9
:10412000E20FF31F8081853AB1F3C901D8011E96D1
:104130009C938E931D97D3946616770609F414C149
:10414000D7011196ED91FC91129782819381F7012D
:10415000928381838816990609F0A1CFD401129623
:104160008D919C9113979283818399CFC2010E9474
:10417000EA332496E2E10C94643F1B820FB6F89474
:104180000F9280910E03815080930E0380910E0355
:10419000882309F0A4C180910803882309F49FC1F2
:1041A00099E0D92ECC24C39480915503882399F1AA
:1041B000E0915A03F0915B0306811781C8010C96C8
:1041C0000E94C03522E0E22EF12CE00EF11EC70164
:1041D0000E94C035F801968980910903891718F467
:1041E0009093090396899D9DC0011124855E9C4F83
:1041F000B7010E946F35E0910603F0910703D801E3
:1042000056969C918689981778F2C0920A038091FD
:104210005503882369F680911703882309F459C14F
:1042200080911703882309F454C189E0A82E809156
:104230000E03882309F035C180910B0390910C0384
:10424000019690930C0380930B03C0900B03D090C6
:104250000C03C114D10419F520915103309152037C
:104260008091530390915403909352038093510390
:10427000309354032093530380910D038F5F8093F9
:104280000D03E0915103F09152038081882309F0DE
:1042900004C4EFEFFFEFF0935602E09355028091D4
:1042A000550290915602C816D90608F4DDC3BB2406
:1042B000E0915103F09152038081882309F44CC0AE
:1042C000E0915103F09152030580F681E02D0681C3
:1042D0001781D80112968D919C911397C816D90613
:1042E00008F4F5C3B2E0EB2EF12CE00EF11EC7018D
:1042F0000E94C035F80184899589892B21F0C80175
:104300000C960E94C035D80156969C915697809184
:104310000903891720F49093090356969C919A9D5E
:10432000C0011124855E9C4FB7010E946F35E0915A
:104330000603F0910703D80156969C918689981739
:1043400008F4B6CFBB24B394E0915103F09152032B
:104350008081882309F0B4CF4FEF5FEF509356026E
:104360004093550282C3DD24BC81BD0DBC83CC20AB
:1043700009F060CE8FE0B89F50011124A40CB51C49
:10438000E0905103F0905203F7018081882309F4F3
:1043900095C10180F281E02D0280F381E02DD701EB
:1043A0001296FC93EE93119713E0812E912C8E0CB4
:1043B0009F1CE815F90509F4A3C366807780DD2406
:1043C000AFE0CA2E82819381F701928381838816A0
:1043D000990609F45EC0D7011196ED91FC911297F0
:1043E00066817781DC9C800111240A0D1B1DF80178
:1043F00071836083675E7F4F73836283695170400E
:10440000DB0191968C919197848342E050E0568332
:10441000458356968C915697878393968C91939764
:10442000808794968D919D910D90BC91A02D818750
:104430009287A387B487FB01A789B08D8C91853AB9
:1044400009F042C320E030E040E050E02F5F3F4FF2
:104450004F4F5F4FFD01E20FF31F8081853AB1F3AB
:10446000C901D8011E969C938E931D97D39466160E
:10447000770609F424C1D7011196ED91FC911297AA
:1044800082819381F701928381838816990609F0CE
:10449000A2CFD40112968D919C9113979283818320
:1044A0009ACF809117038F5F80931703BB2480916D
:1044B0000A03882309F0D4C2BB2009F0D1C280913D
:1044C000170381508093170380911703882309F005
:1044D000AECE80910A03813011F40E947E330F909A
:1044E0000FBEEB81E983C401B30124E630E040E074
:1044F00050E00E94263F59016A01A114B104C10491
:10450000D10409F433CE1A829A818981981708F070
:104510002DCEEFE18E2EE2E09E2E7EE2672E72E03F
:10452000772E60C08A812A814DB75EB74A505040CD
:104530000FB6F8945EBF0FBE4DBFADB7BEB71196B4
:10454000EDB7FEB73282218213969C928E9212971B
:1045500090E0FC01EE0FFF1FE80FF91FCF01880F5D
:10456000991F880F991FE80FF91FE40DF51D82812F
:10457000938115969C938E93149730E0F901EE0F7A
:10458000FF1FE20FF31FCF01880F991F880F991F9C
:10459000E80FF91FE40DF51D8185928517969C9310
:1045A0008E9316971996FC92EE9218970E944208E5
:1045B0004DB75EB7465F5F4F0FB6F8945EBF0FBE54
:1045C0004DBFD1010D900020E9F71197A219B30951
:1045D0008A818F5F8A839A818981981708F0C6CD76
:1045E0002A0E3B1E8A8190E0FC01EE0FFF1FE80FB0
:1045F000F91FCF01880F991F880F991FE80FF91F26
:10460000E40DF51D6185728583859485A60195016C
:104610000E94263F79018A01E114F1040105110588
:1046200009F080CF8A812A81ADB7BEB718970FB63F
:10463000F894BEBF0FBEADBF1196EDB7FEB7328284
:10464000218213967C926E92129790E0FC01EE0FFD
:10465000FF1FE80FF91FCF01880F991F880F991FBF
:10466000E80FF91FE40DF51D8281938115969C9347
:104670008E93149730E0F901EE0FFF1FE20FF31F46
:10468000CF01880F991F880F991FE80FF91FE40DBC
:10469000F51D8185928517969C938E9316970E949F
:1046A00042084DB75EB7485F5F4F0FB6F8945EBFE4
:1046B0000FBE4DBF86CF80E090E038CDDD24CC80AA
:1046C000CD0C8FE0C89E50011124A40CB51CE090C5
:1046D0005303F0905403F7018081882309F486C0C6
:1046E0000180F281E02D0280F381E02DD701129646
:1046F000FC93EE93119773E0872E912C8E0C9F1CE8
:10470000E815F90509F406C266807780DD24828108
:104710009381F701928381838816990609F45EC01C
:10472000D7011196ED91FC91129766817781BFE0D8
:10473000DB9E800111240A0D1B1DF801718360832B
:10474000675E7F4F7383628369517040DB0191968E
:104750008C919197848342E050E05683458356962E
:104760008C915697878393968C9193978087949694
:104770008D919D910D90BC91A02D81879287A387EB
:10478000B487FB01A789B08D8C91853A09F099C156
:1047900020E030E040E050E02F5F3F4F4F4F5F4F51
:1047A000FD01E20FF31F8081853AB1F3C901D80101
:1047B0001E969C938E931D97D39466167706B9F038
:1047C000D7011196ED91FC91129782819381F701A7
:1047D000928381838816990609F0A2CFD40112969C
:1047E0008D919C911397928381839ACFDD24ED2C38
:1047F000EC0C8FE0E89E60011124C40CD51C809164
:104800005E03882309F47CC0E0915F03F0916003AC
:104810000280F381E02DF0936003E0935F03B3E047
:10482000E136FB0709F480C1E0915F03F09160037A
:10483000A680B780FF246FE0762E54E0852E912C61
:104840000280F381E02DF0936003E0935F0343E087
:10485000E136F40709F4FDC0E0915F03F0916003D5
:1048600066817781F79C800111240C0D1D1DD801F4
:1048700011967C936E93675E7F4F13967C936E9335
:10488000129769517040FB0181A114968C93149783
:1048900016969C928E921597868917968C931797E9
:1048A00083A118968C9384A195A1A6A1B7A1F80124
:1048B00081879287A387B487FB01A789B08D8C91EC
:1048C000853A09F0FBC020E030E040E050E02F5F87
:1048D0003F4F4F4F5F4FFD01E20FF31F8081853A3D
:1048E000B1F3C901D8011E969C938E931D97F39442
:1048F000A616B70631F0E0915F03F0916003A0CFF8
:10490000FF24EF0C8FE0E89E60011124C40CD51C3D
:1049100080916703882309F48AC0E0916803F091CD
:1049200069030280F381E02DF0936903E09368034B
:10493000B3E0EA36FB0709F4DCC0E0916803F091CC
:104940006903A680B780FF2443E0842E912C32E0D7
:10495000632E712C0280F381E02DF0936903E093C4
:10496000680343E0EA36F40709F46CC0E091680399
:10497000F0916903668177815FE0F59E80011124E3
:104980000C0D1D1DD80111967C936E93675E7F4FB1
:1049900013967C936E93129769517040FB0181A12D
:1049A00014968C93149716969C928E9215978689DE
:1049B00017968C93179784899589892B21F01696E1
:1049C0007C926E921597DB0193968C919397F801E8
:1049D000808794968D919D910D90BC91A02D81879B
:1049E0009287A387B487FB01A789B08D8C91853A04
:1049F00009F072C020E030E040E050E02F5F3F4F10
:104A00004F4F5F4FFD01E20FF31F8081853AB1F3F5
:104A1000C901D8011E969C938E931D97F394A616F8
:104A2000B70631F0E0916803F091690393CFFF245A
:104A3000FE0CFB8280918400909185003C018824CB
:104A400099249CCB8281938190936903809368031E
:104A50008DCF828193819093600380935F03FCCE1E
:104A6000B1E0B0930A032BCDBB24E0910603F09193
:104A70000703868990E0FC01EE0FFF1FEE0FFF1F7A
:104A8000EE0FFF1FE80FF91FE55EFC4F80818230BB
:104A900008F40DCDBB24B3940ACDE0915103F091FD
:104AA00052030580F681E02D0680F781E02D82819A
:104AB00093819093560280935502F1CB80E090E071
:104AC00011CF80E090E073CE80E090E0CACC90936C
:104AD000560280935502C9CF80E090E09ACF828140
:104AE000938111968C93119712969C939C01F901D6
:104AF000CACA8281938190936903809368031DCF12
:104B00008281938111968C93119712969C939C01AC
:104B1000F90153CC8281938111968C93119712964F
:104B20009C939C01F901F0CD828193819093600365
:104B300080935F0379CEA3E0B0E0E1EAF5E20C9464
:104B4000483F1C01DC011C928091080389839091ED
:104B500008038FE0989FC00111240E945D345C011E
:104B6000009709F4ADC0898190910E039F5F9093E7
:104B70000E0390910803891708F4A6C064E0C62EBE
:104B80001B82CA94BB81EFE0BE9F400111248A0CB6
:104B90009B1CF9E0CF9E700111242BE133E0E20E63
:104BA000F31ED7018C91882309F482C11196ED91EF
:104BB000FC9112970280F381E02D1296FC93EE9304
:104BC000119753E0652E712C6E0C7F1CE615F705CE
:104BD00009F4FEC446805780DD2482819381F70169
:104BE000928381836816790609F45FC0D701119614
:104BF000ED91FC91129766817781BFE0DB9E800189
:104C00001124080D191DF80171836083675E7F4FC1
:104C10007383628369517040DB0191968C91919707
:104C2000848321E030E03683258356968C91569715
:104C3000878393968C919397808794968D919D917D
:104C40000D90BC91A02D81879287A387B487FB012B
:104C5000A789B08D8C91853A09F0AEC220E030E092
:104C600040E050E02F5F3F4F4F4F5F4FFD01E20F9D
:104C7000F31F8081853AB1F3C901D8011E969C9338
:104C80008E931D97D3944616570609F412C1D70187
:104C90001196ED91FC91129782819381F701928395
:104CA00081836816790609F0A1CFD30112968D9100
:104CB0009C9113979283818399CFC5010E94EA3317
:104CC0002396E2E10C94643F77240FB6F8940F9298
:104CD00080910E03815080930E0380910E038823F0
:104CE00009F0A2C180910803882309F49DC1A9E0BD
:104CF000DA2ECC24C39480915503882399F1E09156
:104D00005A03F0915B0306811781C8010C960E943B
:104D1000C035B2E0EB2EF12CE00EF11EC7010E946F
:104D2000C035F801968980910903891718F490938A
:104D3000090396899D9DC0011124855E9C4FB70192
:104D40000E946F35E0910603F0910703D801569653
:104D50009C918689981778F2C0920A038091550336
:104D6000882369F680911703882309F457C180913D
:104D70001703882309F452C1F9E0CF2E44244A9442
:104D8000542C6624639480910E03882309F02EC16D
:104D900080910B0390910C03019690930C038093E8
:104DA0000B0380900B0390900C038114910409F580
:104DB00020915103309152038091530390915403F9
:104DC00090935203809351033093540320935303E1
:104DD00080910D038F5F80930D03E0915103F0915B
:104DE00052038081882309F0D1C350925602409229
:104DF000550280915502909156028816990608F442
:104E0000ACC3DD24E0915103F091520380818823EB
:104E100009F449C0E0915103F09152030580F681F5
:104E2000E02D06811781F801828193818816990609
:104E300008F4C6C3E2E0EE2EF12CE00EF11EC7012D
:104E40000E94C035D80154968D919C915597892B1D
:104E500021F0C8010C960E94C035F8019689809116
:104E60000903891718F49093090396899C9DC00142
:104E70001124855E9C4FB7010E946F35E0910603B7
:104E8000F0910703D80156969C918689981708F4EB
:104E9000B9CFDD24D394E0915103F0915203808186
:104EA000882309F0B7CF509256024092550256C35C
:104EB000DD24BB81BD0DBB83CC2009F062CE8FE029
:104EC000B89F400111248A0C9B1CE0905103F09084
:104ED0005203F7018081882309F471C10180F281B6
:104EE000E02D0280F381E02DD7011296FC93EE9322
:104EF000119743E0642E712C6E0C7F1CE615F705AC
:104F000009F477C346805780DD243FE0C32E8281B9
:104F10009381F701928381836816790609F45EC054
:104F2000D7011196ED91FC91129766817781DC9CF7
:104F300080011124080D191DF80171836083675EDB
:104F40007F4F7383628369517040DB0191968C912E
:104F50009197848322E030E03683258356968C91A6
:104F60005697878393968C919397808794968D918B
:104F70009D910D90BC91A02D81879287A387B487C6
:104F8000FB01A789B08D8C91853A09F016C320E00A
:104F900030E040E050E02F5F3F4F4F4F5F4FFD014B
:104FA000E20FF31F8081853AB1F3C901D8011E9643
:104FB0009C938E931D97D3944616570609F400C10F
:104FC000D7011196ED91FC91129782819381F7019F
:104FD000928381836816790609F0A2CFD3011296D5
:104FE0008D919C911397928381839ACF809117031F
:104FF0008F5F80931703DD2480910A03882309F0D3
:10500000A9C2DD2009F0A6C28091170381508093C8
:10501000170380911703882309F0B5CE80910A0306
:10502000813011F40E947E330F900FBE79821A8274
:105030009A818981981708F040CE6DE3E62E62E0F0
:10504000F62E8FC0019709F4B4C000E010E08A8109
:105050002A814A816A81EDB7FEB73E970FB6F89470
:10506000FEBF0FBEEDBFADB7BEB711963282218233
:105070001396FC92EE92129790E0FC01EE0FFF1F48
:10508000E80FF91FCF01880F991F880F991FE80FAC
:10509000F91FEA0DFB1D8281938115969C938E93D7
:1050A000149717961C930E93169730E0F901EE0FA4
:1050B000FF1FE20FF31FCF01880F991F880F991F61
:1050C000E80FF91FEA0DFB1D878118968C9318973E
:1050D00019961C92199750E0FA01EE0FFF1FE40F8A
:1050E000F51FCF01880F991F880F991FE80FF91F2F
:1050F000EA0DFB1D858596851B969C938E931A97CA
:1051000070E0FB01EE0FFF1FE60FF71FCF01880FC6
:10511000991F880F991FE80FF91FEA0DFB1D848165
:105120001C968C931C971D961C920E944208D101DC
:105130000D900020E9F71197A219B3098A818F5FBA
:105140008A839A8189812DB73EB7225F3F4F0FB680
:10515000F8943EBF0FBE2DBF981708F0AECD2A0EB3
:105160003B1E8A8190E0FC01EE0FFF1FE80FF91F44
:10517000CF01880F991F880F991FE80FF91FEA0DBB
:10518000FB1D858196818230910569F08330910500
:1051900008F458CF8330910549F0049709F055CFB2
:1051A00004E410E054CF02E410E051CF03E510E036
:1051B0004ECF02E510E04BCF80E090E05ECDDD24E5
:1051C000CB80CD0C8FE0C89E400111248A0C9B1C23
:1051D000E0905303F0905403F7018081882309F491
:1051E00086C00180F281E02D0280F381E02DD7019D
:1051F0001296FC93EE93119723E0622E712C6E0CA5
:105200007F1CE615F70509F4FEC146805780DD24B2
:1052100082819381F701928381836816790609F46C
:105220005EC0D7011196ED91FC911297668177814E
:10523000BFE0DB9E80011124080D191DF801718368
:105240006083675E7F4F7383628369517040DB01C7
:1052500091968C919197848322E030E03683258368
:1052600056968C915697878393968C9193978087C7
:1052700094968D919D910D90BC91A02D81879287E0
:10528000A387B487FB01A789B08D8C91853A09F07B
:1052900091C120E030E040E050E02F5F3F4F4F4FA2
:1052A0005F4FFD01E20FF31F8081853AB1F3C90121
:1052B000D8011E969C938E931D97D394461657063D
:1052C000B9F0D7011196ED91FC91129782819381EB
:1052D000F701928381836816790609F0A2CFD30182
:1052E00012968D919C911397928381839ACFDD249E
:1052F000ED2CEC0C8FE0E89E60011124CA0CDB1C45
:1053000080915E03882309F47CC0E0915F03F091F3
:1053100060030280F381E02DF0936003E0935F036C
:10532000B3E0E136FB0709F478C1E0915F03F09147
:10533000600386809780FF249FE0592E84E0682ECA
:10534000712C0280F381E02DF0936003E0935F0302
:1053500023E0E136F20709F4F6C0E0915F03F09133
:10536000600366817781F59C800111240C0D1D1D61
:10537000D80111967C936E93675E7F4F13967C9352
:105380006E93129769517040FB0181A114968C9322
:10539000149716967C926E921597868917968C9321
:1053A000179783A118968C9384A195A1A6A1B7A164
:1053B000F80181879287A387B487FB01A789B08D05
:1053C0008C91853A09F0F3C020E030E040E050E0F5
:1053D0002F5F3F4F4F4F5F4FFD01E20FF31F808163
:1053E000853AB1F3C901D8011E969C938E931D97FF
:1053F000F3948616970631F0E0915F03F091600315
:10540000A0CFFF24EF0C8FE0E89E60011124CA0CAE
:10541000DB1C80916703882309F48AC0E09168034C
:10542000F09169030280F381E02DF0936903E0932A
:105430006803B3E0EA36FB0709F4D4C0E0916803DF
:10544000F091690386809780FF2403E0602E712C21
:1054500012E0412E512C0280F381E02DF09369037C
:10546000E093680323E0EA36F20709F465C0E091AF
:105470006803F0916903668177813FE0F39E8001C4
:1054800011240C0D1D1DD80111967C936E93675E3F
:105490007F4F13967C936E93129769517040FB0176
:1054A00081A114968C93149716967C926E92159700
:1054B000868917968C93179784899589892B21F073
:1054C00016965C924E921597DB0193968C9193976A
:1054D000F801808794968D919D910D90BC91A02D9F
:1054E00081879287A387B487FB01A789B08D8C91B0
:1054F000853A09F06AC020E030E040E050E02F5FDC
:105500003F4F4F4F5F4FFD01E20FF31F8081853A00
:10551000B1F3C901D8011E969C938E931D97F39405
:105520008616970631F0E0916803F091690393CFF6
:10553000FF247F2C7E0CC9CB8281938190936903D9
:105540008093680394CF82819381909360038093CA
:105550005F0303CF60920A0357CDDD24E091060379
:10556000F0910703868990E0FC01EE0FFF1FEE0F1C
:10557000FF1FEE0FFF1FE80FF91FE55EFC4F808154
:10558000823008F439CDDD24D39436CDE091510337
:10559000F09152030580F681E02D0680F781E02D21
:1055A00082819381909356028093550222CC80E0B1
:1055B00090E019CF80E090E07BCE80E090E0F6CCE8
:1055C0009093560280935502C9CF80E090E0A2CF1D
:1055D0008281938111968C93119712969C939C01D2
:1055E000F901F8CA828193819093690380936803DB
:1055F00025CF8281938111968C93119712969C935B
:105600009C01F9017FCC8281938111968C93119733
:1056100012969C939C01F901F8CD8281938190931D
:10562000600380935F0381CE0F931F93CF93DF932B
:10563000EC01009789F08091060390910703C81749
:10564000D90751F00FB6F8940F928A859B8587563B
:10565000934039F00F900FBEDF91CF911F910F91C2
:1056600008958C899D8923E08535920799F3892BCC
:1056700089F78E010E5F1F4FC8010E94C0359E89B9
:1056800080910903891710F49093090389E0989F8A
:10569000C0011124855E9C4FB8010E946F35E091D6
:1056A0000603F09107039E898689981798F20E9455
:1056B0007E33D0CFEF92FF920F931F93CF93DF9360
:1056C0000FB6F8940F92009709F4DDC0EC018E013B
:1056D0000E5F1F4FC8010E94C0358C899D89892BA0
:1056E00021F0CE010C960E94C03587E693E0B80108
:1056F0000E946F350F900FBE8091060390910703B3
:10570000C817D90761F180911803882391F00FB66B
:10571000F8940F92E0915103F09152038081882315
:1057200069F48FEF9FEF90935602809355020F908C
:105730000FBECDB7DEB7E6E00C94703FE0915103A9
:10574000F09152030580F681E02D0680F781E02D6F
:10575000828193819093560280935502E8CF809185
:105760001803882309F098C090910803809167037B
:10577000891709F494C080910E03882309F088C02A
:1057800010920A0380918400909185007C0100E0D2
:1057900010E0E0920F03F0921003009311031093B6
:1057A00012038091130390911403A0911503B091FB
:1057B00016038E159F05A007B107B0F4E09106030C
:1057C000F0910703A8019701281B390B4A0B5B0BCB
:1057D00084A195A1A6A1B7A1820F931FA41FB51FF5
:1057E00084A395A3A6A3B7A3E0921303F092140396
:1057F0000093150310931603E0910603F09107033D
:10580000A0910603B09107032081318157968D91B5
:105810009C9158978217930730F046C080910903F6
:105820008150809309038091090390E0FC01EE0F01
:10583000FF1FEE0FFF1FEE0FFF1FE80FF91FE55EC2
:10584000FC4F8081882351F39091090389E0989F50
:10585000D0011124A55EBC4F1196ED91FC911297D9
:105860000280F381E02D1296FC93EE931197CD0107
:105870000396E817F90729F186819781909307032A
:105880008093060356CFC0910603D09107031FCF24
:1058900081E080930A034DCF0E947E334ACF10925D
:1058A00007031092060345CF8091060390910703EA
:1058B0006091060370910703675E7F4F0E94F90AAB
:1058C000B2CF8281938111968C93119712969C93FB
:1058D0009C01F901D1CFA0E0B0E0E1E7FCE20C943B
:1058E0004F3F9C01009741F40E947E33CDB7DEB755
:1058F000EBE00C946B3F77C180910E038F5F809338
:105900000E03C0910B03D0910C03C20FD31F8091E3
:1059100006039091070302960E94C035E0910603AA
:10592000F0910703D383C28380910B0390910C0302
:10593000C817D90708F45BC08091510390915203B6
:1059400060910603709107036E5F7F4F0E948E3552
:105950008091550290915602C817D90720F4D09330
:105960005602C09355020FB6F8940F9280910E0321
:10597000815080930E0380910E03882309F04DC05F
:1059800080910803882309F448C099E0F92EEE2499
:10599000E394809155038823B9F1E0915A03F09183
:1059A0005B03C681D781CE010C960E94C0358E0163
:1059B0000E5F1F4FC8010E94C0359E898091090368
:1059C000891710F4909309039F9DC0011124855EEF
:1059D0009C4FB8010E946F35E0910603F0910703D8
:1059E0009E8986899817A8F2E0920A03D2CF809107
:1059F00053039091540360910603709107036E5F07
:105A00007F4F0E948E35AFCF80911703882389F492
:105A100080910A03813009F495C080E00F900FBE99
:105A2000882309F461CFCDB7DEB7EBE00C946B3F70
:105A3000DAC080911703882359F389E0C82EAA247D
:105A4000AA94BA2C9924939480910E03882309F088
:105A50007DC080910B0390910C03019690930C03F1
:105A600080930B03E0900B03F0900C03E114F1041E
:105A700009F5209151033091520380915303909185
:105A80005403909352038093510330935403209313
:105A9000530380910D038F5F80930D03E0915103B9
:105AA000F09152038081882309F087C0B09256029A
:105AB000A09255028091550290915602E816F9067F
:105AC00008F45EC0DD24E0915103F091520380811F
:105AD000882309F46DC0E0915103F09152030580D1
