:100000000C9470030C9492030C9492030C9492033E
:100010000C9492030C9492030C9492030C9492030C
:100020000C9492030C9492030C9492030C949203FC
:100030000C9492030C9492030C9492030C949203EC
:100040000C9492030C9492030C9492030C949203DC
:100050000C9492030C9492030C9492030C940B0B4B
:100060000C9492030C94C5180C94D8190C94920318
:100070000C9492030C9492030C9492030C949203AC
:100080000C94BA310C9492030C9492030C949D1529
:100090000C949B180C94AE190C9492030C94D332CC
:1000A0000C9492030C94F70F0C9492030C9492030B
:1000B0000C9492030C94AD0F0C9482100C94920348
:1000C0000C9492030C9492030C94D20F0C9471181C
:1000D0000C9484190C9492030C9447180C945A199C
:1000E0000C949203642650263C261626552355234D
:1000F0005523552355238D256925552555235523EE
:100100005523F1245523AF24912460241F234C242C
:10011000382424241024FC23E823AB2397237023C2
:10012000D325BF255523AB25CD240F2523253725E2
:10013000552355235523E7253133EA32EA32EA3293
:10014000EA32EA32EA32EA323133EA32EA32EA3287
:10015000EA32EA32EA32EA323333EA32EA32EA3275
:10016000EA32EA32EA32EA326B33EA32EA32EA322D
:10017000EA32EA32EA32EA323333EA32EA32EA3255
:10018000EA32EA32EA32EA326B33EA32EA32EA320D
:10019000EA32EA32EA32EA327333EA32EA32EA32F5
:1001A000EA32EA32EA32EA32A333EA32EA32EA32B5
:1001B000EA32EA32EA32EA32EA32EA32EA32EA325F
:1001C000EA32EA32EA32EA321933EA32EA32EA321F
:1001D000EA32EA32EA32EA325A33EA32EA32EA32CE
:1001E000EA32EA32EA32EA32A033EA32EA32EA3278
:1001F000EA32EA32EA32EA32A033EA32EA32EA3268
:10020000EA32EA32EA32EA328B33EA32EA32EA326C
:10021000EA32EA32EA32EA328B33EA32EA32EA325C
:10022000EA32EA32EA32EA320433EA32EA32EA32D3
:10023000EA32EA32EA32EA322D33EA32EA32EA329A
:10024000EA32EA32EA32EA320433EA32EA32EA32B3
:10025000EA32EA32EA32EA322D33EA32EA32EA327A
:10026000EA32EA32EA32EA327733EA32EA32EA3220
:10027000EA32EA32EA32EA324833EA32EA32EA323F
:10028000EA32EA32EA32EA324833EA32EA32EA322F
:10029000EA32EA32EA32EA324A33EA32EA32EA321D
:1002A000EA32EA32EA32EA327D33EA32EA32EA32DA
:1002B000EA32EA32EA32EA3215330D0A0A0A476FA5
:1002C0006F646279652E2E2E206E6F2073706163CD
:1002D0006520666F722069646C65207461736B21A0
:1002E0000D0A000D0A0A0A48656C6C6F20576F7280
:1002F0006C64210D0A006E616E00696E660000403C
:100300007A10F35A00A0724E18090010A5D4E80024
:1003100000E87648170000E40B54020000CA9A3B3C
:10032000000000E1F50500008096980000004042C2
:100330000F000000A0860100000010270000000050
:10034000E803000000006400000000000A00000054
:1003500000000100000000002C76D888DC674F0800
:1003600023DFC1DFAE59E1B1B796E5E3E453C63A06
:10037000E651997696E8E6C28426EB898C9B62ED7D
:10038000407C6FFCEFBC9C9F40F2BAA56FA5F49037
:10039000055A2AF75C936B6CF9676DC11BFCE0E4AE
:1003A0000D47FEF520E6B500D0ED902E0300943504
:1003B00077050080841E080000204E0A000000C857
:1003C0000C333333330F986E12831141EF8D2114A8
:1003D000893BE65516CFFEE6DB18D1844B381BF778
:1003E0007C1D901DA4BBE424203284725E22810017
:1003F000C9F124ECA1E53D27A0E0B0E0E2E0F2E0A5
:100400000C947457E9E0CE2EAA24A39488248A94ED
:10041000982C7724739405C00F900FBEBB2009F071
:100420005FC08091941C882309F480C08091891C4E
:100430008F5F8093891CB090D91C0FB6F8940F92EF
:100440008091891C81508093891C8091891C88230C
:1004500019F78091831C8823F9F28091D01C88239E
:1004600071F1E091D51CF091D61CC681D781CE01E7
:100470000C960E94B5548E010E5F1F4FC8010E945A
:10048000B5549E898091841C891718F49093841C1C
:100490009E899C9DC00111248A56934EB8010E94EA
:1004A0006454E091811CF091821C9E898689981782
:1004B000A0F2A092851C8091D01C882391F6809197
:1004C000921C882309F04DC08091851C813009F071
:1004D000A3CF0E94BD310F900FBEBB2009F4A1CF66
:1004E0000FB6F8940F92E091DE1CF091DF1C0681AC
:1004F0001781C80102960E94B5548091831C8150D7
:100500008093831C8091941C81508093941C0F9045
:100510000FBEF8018789908D0E940F34C8010E9498
:100520000F348091941C882309F080CF8091961C11
:10053000823008F476CF0E94BD3173CF8091921C37
:100540008F5F8093921CDD248091851C882309F0A5
:1005500095C0DD2009F092C08091921C815080935B
:10056000921C8091921C882309F4AECF8091891C43
:10057000882321F78091861C9091871C0196909387
:10058000871C8093861CE090861CF090871CE114E9
:10059000F10409F52091CC1C3091CD1C8091CE1C2A
:1005A0009091CF1C9093CD1C8093CC1C3093CF1C8A
:1005B0002093CE1C8091881C8F5F8093881CE091D3
:1005C000CC1CF091CD1C8081882309F073C09092DF
:1005D000DB098092DA098091DA099091DB09E8164B
:1005E000F90608F44EC0DD24E091CC1CF091CD1C3E
:1005F00080818823F1F1E091CC1CF091CD1C058025
:10060000F681E02DC681D7818A819B81E816F906A3
:1006100008F461C08E010E5F1F4FC8010E94B554DF
:100620008C899D89892B21F0CE010C960E94B554AE
:100630009E898091841C891718F49093841C9E894C
:100640009C9DC00111248A56934EB8010E946454A7
:10065000E091811CF091821C9E898689981720F276
:10066000DD24D394E091CC1CF091CD1C80818823B3
:1006700011F69092DB098092DA0904C07092851C11
:100680006BCFDD24E091811CF091821C868990E083
:10069000FC01EE0FFF1FEE0FFF1FEE0FFF1FE80F15
:1006A000F91FEA56F34E8081823008F44DCFDD24E5
:1006B000D3944ACFE091CC1CF091CD1C0580F681FB
:1006C000E02D0680F781E02D828193819093DB09F4
:1006D0008093DA0980CF9093DB098093DA09D2CF37
:1006E00011241FBECFEFD1E2DEBFCDBF00E00CBFB3
:1006F0001AE0A0E0B2E0ECE5FFEA00E00BBF02C0C8
:1007000007900D92A832B107D9F71BBE1EE1A8E2EF
:10071000BAE001C01D92AB32B107E1F70E94890E29
:100720000C94AC570C9400008F938FB78F93F89470
:100730008091271E8F5F8093271E8091281E8F4FE8
:100740008093281E8091291E8F4F8093291E8091AF
:100750002A1E8F4F80932A1E8F918FBF8F910895ED
:10076000A1E1B0E0E6EBF3E00C946F573C017F872A
:100770006E876A01FC0117821682838181FD03C0A6
:100780006FEF7FEF71C39E012F5F3F4F398B288B37
:10079000F3012381EE85FF8523FD859123FF819160
:1007A000FF87EE87882309F45CC3853251F4EE8518
:1007B000FF8523FD859123FF8191FF87EE87853299
:1007C00029F490E0B3010E949008E2CF982F10E046
:1007D000882499241032B0F49B3269F09C3228F4BA
:1007E000903251F0933271F40BC09D3239F0903356
:1007F00049F4116028C01260146025C0186023C03D
:10080000106121C017FD2AC0892F80538A3078F4E7
:1008100016FF06C0FAE09F9E902C1124980E13C07C
:100820003AE0839E802C1124880E10620CC09E3208
:1008300021F416FD16C3106406C09C3611F410682E
:1008400002C0983659F4EE85FF8523FD959123FF6C
:100850009191FF87EE87992309F0BCCF892F8554AA
:10086000833020F4812F8061905E07C0892F8556E8
:10087000833008F0A1C1812F8F7E86FD02C076E013
:10088000972E6FE3F62EF822953619F4F0E4FF2A3E
:1008900007C0963619F420E8F22A02C091109A9403
:1008A000F7FE0BC03BE3391520F427E05CE3B52EDF
:1008B0000EC0B92CB39427E00AC047E0491528F4CC
:1008C00027E0BB2447E0942E02C0292DBB24C6019B
:1008D00004969D878C87F601608171818281938166
:1008E000AE014F5F5F4F0B2D0E9439076C010981EC
:1008F000202E332400FF04C003FD02C01DE209C006
:10090000F1FE02C01BE205C0F2FC02C010E001C013
:1009100010E2C1018C709070892BB9F1112311F490
:1009200083E001C084E0881510F088240AC0881A8A
:10093000F3FC07C080E290E0B3010E9490088A9423
:10094000C9F7112329F0812F90E0B3010E9490088C
:1009500023FE03C006EF12E00EC00AEF12E00BC048
:10096000E114F10409F0805290E0B3010E94900874
:100970000F5F1F4F05C0EF2CFF24F0E1EF22FF2493
:10098000F8018491882361F714C1F7FE12C0BC0CF2
:1009900024FE04C08A81813309F4BA941B141CF02C
:1009A000BB24B3942DC0F8E0FB1550F538E0B32E0E
:1009B00027C0F6FC25C0892D90E08C159D054CF0D4
:1009C0002CEFC2162FEFD20624F030E8F32A01C034
:1009D0009A94992049F0E2E0F0E0EC0FFD1FE90D58
:1009E000F11D80818033A1F3F7FE0AC0B92CB394C6
:1009F000892D90E0C816D90614F0992401C09C18DE
:100A0000F7FC03C025E030E009C01C141D041CF0F5
:100A100021E030E003C096012F5F3F4F112311F01A
:100A20002F5F3F4F992029F0892D90E00196280FE4
:100A3000391F882D90E02817390714F0882401C049
:100A4000821A4F2C5524C20189709070892B39F07D
:100A500008C080E290E0B3010E9490088A94882048
:100A6000C1F7112329F0812F90E0B3010E94900873
:100A700043FE07C008C080E390E0B3010E949008E5
:100A80008A948820C1F7F7FE46C08601D7FE02C0CF
:100A900000E010E076010894E11CF11CE01AF10A74
:100AA00041E050E04C0F5D1FE40EF51E26014B188F
:100AB0005108892D90E0AA24BB24A81AB90A5FEF37
:100AC0000F3F150729F48EE290E0B3010E949008D1
:100AD000C016D10634F0401651061CF4F70180818F
:100AE00001C080E3015010400894E11CF11C0A157C
:100AF0001B052CF090E0B3010E949008E0CF0C158C
:100B00001D0539F49A81963318F4953311F424FEB7
:100B100081E390E04BC08A81813309F00F7E90E041
:100B2000B3010E9490089920A1F08EE290E0B301F9
:100B30000E94900812E0E1E0F0E0EC0FFD1FE10FF1
:100B4000F11D1F5F808190E0B3010E9490089A948C
:100B500091F744FC03C085E690E002C085E490E094
:100B6000B3010E949008D7FC05C0C114D10441F420
:100B700004FF06C0D094C194D108D3948DE201C083
:100B80008BE290E0B3010E94900880E305C08F5F84
:100B900026EF3FEFC20ED31E3AE0C316D104BCF7D6
:100BA00090E0B3010E949008C601C096B3010E9474
:100BB0009008CC84DD8452C1933631F0933799F09C
:100BC000933509F059C023C0F601808189835E0105
:100BD0000894A11CB11C22E030E0C20ED31E21E01B
:100BE000E22EF12C12C0F601A080B18016FD03C0E8
:100BF0006FEF7FEF02C0692D70E022E030E0C20E9F
:100C0000D31EC5010E946B087C011F7713C0F6013B
:100C1000A080B18016FD03C06FEF7FEF02C0692D89
:100C200070E022E030E0C20ED31EC5010E94110820
:100C30007C01106813FF07C01BC080E290E0B30185
:100C40000E9490088A94882D90E0E816F906A8F38F
:100C50000FC0F50117FD859117FF81915F0190E0AD
:100C6000B3010E94900881108A940894E108F10869
:100C7000E114F10471F7F2C0943611F0993689F558
:100C800017FF08C0F601208131814281538184E041
:100C900090E00AC0F601808191819C01442737FDD4
:100CA0004095542F82E090E0C80ED91E9FE6F92EA1
:100CB000F12257FF09C050954095309521953F4F3F
:100CC0004F4F5F4F90E8F92ACA01B901AE014F5F5B
:100CD0005F4F2AE030E00E943409E82EE889EE1ADE
:100CE00041C0953721F41F7E2AE030E01CC0197FF7
:100CF0009F3661F0903720F4983509F0B2C00FC0EC
:100D0000903739F0983709F0ACC004C028E030E0E3
:100D10000AC0106114FD146020E130E004C014FD2D
:100D2000166020E132E017FF08C0F6016081718192
:100D30008281938144E050E008C0F6018081918176
:100D4000BC0180E090E042E050E0C40ED51EAE0150
:100D50004F5F5F4F0E943409E82E5889E51A8FE7EC
:100D6000F82EF122F6FE0BC08EEFF822E91438F4CB
:100D7000F4FE07C0F2FC05C09FEEF92202C01E2D52
:100D800001C0192DF4FE0DC0FE01EE0DF11D808194
:100D9000803319F4E9EEFE2208C01F5FF2FE05C0A1
:100DA00003C08F2D867809F01F5F0F2DF3FC14C050
:100DB000F0FE0FC0181510F09E2C0BC09E2C980C46
:100DC000911A182D06C080E290E0B3010E949008AD
:100DD0001F5F1815C0F304C0181510F4811A01C064
:100DE000882404FF0FC080E390E0B3010E949008C4
:100DF00002FF1DC001FD03C088E790E00EC088E53A
:100E000090E00BC0802F867891F001FF02C08BE24A
:100E100001C080E2F7FC8DE290E0B3010E949008EF
:100E200006C080E390E0B3010E9490089A94E91410
:100E3000C0F3EA94E1E0F0E0EC0FFD1FEE0DF11DD0
:100E4000808190E0B3010E949008EE2091F706C0E7
:100E500080E290E0B3010E9490088A948820C1F754
:100E600097CCF30166817781CB016196E2E10C9426
:100E70008B57283008F027E03327DA01990F311D0E
:100E800087FD916000966105710539F432602E5F2F
:100E90003D9330E32A95E1F708959F3F30F0803885
:100EA0007105610509F03C5F3C5F3D93913008F0AE
:100EB0008068911DDF93CF931F930F93FF92EF9262
:100EC000192F987F9695E92F96959695E90FFF270C
:100ED000E85AFC4F99273327EE24FF24A701E701A6
:100EE00005900894079428F4360FE71EF81E491F52
:100EF000511D660F771F881F991F0694A1F7059053
:100F0000079428F4E70EF81E491F561FC11D770FDE
:100F1000881F991F661F0694A1F70590079428F46F
:100F2000F80E491F561FC71FD11D880F991F661F36
:100F3000771F0694A1F70590079420F4490F561FD8
:100F4000C71FD81F990F661F771F881F0694A9F720
:100F500084911095177041F0D695C7955795479590
:100F6000F794E7941A95C1F7EEEFF2E068941590C4
:100F7000159135916591959105907FE27395E118F2
:100F8000F10A430B560BC90BD009C0F7E10CF11E57
:100F9000431F561FC91FD01D7EF4703311F48A956C
:100FA000E6CFE894015030F0080F0AF4002702174A
:100FB00008F4202F2395022F7A3328F079E37D93CC
:100FC0002A95E9F710C07D932A9589F6069497959E
:100FD0006795379517951794E118F10A430B560B4F
:100FE000C90BD00998F023957E9173957A3308F058
:100FF00070E37C932013B8F77E9170617D9330F09D
:10100000839571E37D9370E32A95E1F71124EF90C6
:10101000FF900F911F91CF91DF91992787FD9095B8
:101020000895FC010590615070400110D8F780953B
:1010300090958E0F9F1F0895FB01DC0102C0019067
:101040000D9241505040D8F70895DC0101C06D93D6
:1010500041505040E0F70895FB01DC010D90002065
:10106000E9F7119701900D920020E1F70895FB0137
:10107000DC0101900D920020E1F70895FB01DC01F5
:101080000D900020E9F711974150504028F0019051
:1010900000200D92C9F708951C920895FB01DC0110
:1010A0004150504030F08D910190801919F400208A
:1010B000B9F7881B990B0895FB01DC0141505040A2
:1010C00048F001900D920020C9F701C01D924150D7
:1010D0005040E0F70895FC0161507040019001100C
:1010E000D8F7809590958E0F9F1F0895FB01519121
:1010F0005523A9F0BF01DC014D9145174111E1F7DE
:1011000059F4CD010190002049F04D914015411155
:10111000C9F3FB014111EFCF81E090E00197089501
:101120000F931F93CF93DF938C01EB018B8181FF92
:101130001BC082FF0DC02E813F818C819D812817AD
:10114000390764F4E881F9810193F983E88306C0E3
:10115000E885F985802F1995892B31F48E819F813F
:1011600001969F838E8302C00FEF1FEFC801DF91AE
:10117000CF911F910F910895AEE0B0E0E2ECF8E05E
:101180000C947D570E891F8986E08C831A8309830E
:101190008FEF9FE79E838D839E01265E3F4FCE019A
:1011A0000196688D798DA9010E94B0032F81388541
:1011B000020F131FF80110822E96E4E00C94995749
:1011C000AEE0B0E0E6EEF8E00C947D578C0177FFDE
:1011D00002C060E070E8615070407E836D831A83C6
:1011E000098386E08C83CE010196BA01A9010E9491
:1011F000B0032D813E8137FD09C0EF81F8852E17A0
:101200003F070CF4F901E00FF11F10822E96E4E085
:101210000C949957AEE0B0E0E0E1F9E00C947D5712
:101220008C0177FF02C060E070E8615070407E83FF
:101230006D831A8309838EE08C83CE010196BA01F7
:10124000A9010E94B0032D813E8137FD09C0EF81C5
:10125000F8852E173F070CF4F901E00FF11F1082FB
:101260002E96E4E00C949957FA01AA27283051F100
:10127000203181F1E8946F936E7F6E5F7F4F8F4FC7
:101280009F4FAF4FB1E03ED0B4E03CD0670F781F26
:10129000891F9A1FA11D680F791F8A1F911DA11D0B
:1012A0006A0F711D811D911DA11D20D009F4689444
:1012B0003F912AE0269F11243019305D3193DEF6EC
:1012C000CF010895462F4770405D4193B3E00FD0A2
:1012D000C9F7F6CF462F4F70405D4A3318F0495D8D
:1012E00031FD4052419302D0A9F7EACFB4E0A69570
:1012F0009795879577956795BA95C9F70097610592
:10130000710508959B01AC010A2E069457954795E7
:1013100037952795BA95C9F7620F731F841F951FDC
:10132000A01D089586E090E09093F21C8093F11C3C
:1013300083E090E09093F41C8093F31C9093F01C56
:101340008093EF1C0E94930A6093EB1C7093EC1C3B
:101350008093ED1C9093EE1C08958091F11C909168
:10136000F21C8730910579F08630910581F105975F
:1013700009F0089584E090E040E050E060E070E023
:101380000E949F13089582E090E040E050E060E802
:101390007FE30E949F138091F51C9091F61CA09111
:1013A000F71CB091F81C2091EB1C3091EC1C409183
:1013B000ED1C5091EE1C821B930BA40BB50B8056B9
:1013C0009A4EA040B040A8F20E949209089584E08D
:1013D00090E040E050E060E070E00E949F130895CC
:1013E0000E94F414C3971CF021E0822F08950E94FC
:1013F000101520E0C397C4F7822F08950E94930A26
:101400006093F51C7093F61C8093F71C9093F81C66
:101410008091F11C9091F21C8630910569F0853025
:10142000910511F0079709F0089585E090E062E3D7
:1014300070E00E943113089586E090E062E370E06E
:101440000E9431130E94F009882301F58091F51C58
:101450009091F61CA091F71CB091F81C2091EB1C08
:101460003091EC1C4091ED1C5091EE1C821B930BB3
:10147000A40BB50B80519742A040B040A8F287E082
:1014800090E09093F21C8093F11C089585E090E029
:101490009093F21C8093F11C0895789484B5826037
:1014A00084BD84B5816084BD85B5826085BD85B508
:1014B000816085BDEEE6F0E08081816080831092DE
:1014C000300AECE2FAE01082118212821382129248
:1014D00012921292129208959FB7F8942091280ABE
:1014E0003091290A40912A0A50912B0A86B5A89B6F
:1014F00006C08F3F21F02F5F3F4F4F4F5F4F9FBF81
:10150000542F432F322F2227280F311D411D511DEB
:10151000220F331F441F551F220F331F441F551F17
:10152000B901CA0108958FB7F89420912C0A30911F
:101530002D0A40912E0A50912F0A8FBFB901CA017E
:101540000895EF92FF920F931F937B018C012FB7A9
:10155000F8948091280A9091290AA0912A0AB091C2
:101560002B0A36B5A89B05C03F3F19F00196A11D77
:10157000B11D2FBFE114F1040105110509F446C0A6
:10158000BA2FA92F982F8827830F911DA11DB11D58
:10159000880F991FAA1FBB1F880F991FAA1FBB1F67
:1015A000AC013FB7F8948091280A9091290AA09144
:1015B0002A0AB0912B0A26B5A89B05C02F3F19F027
:1015C0000196A11DB11D3FBFBA2FA92F982F8827C3
:1015D000820F911DA11DB11D880F991FAA1FBB1F4E
:1015E000880F991FAA1FBB1F841B950B885E934011
:1015F000C0F20894E108F10801091109E114F104AD
:101600000105110519F048515C4FCBCF1F910F9187
:10161000FF90EF9008951F920F920FB60F92112432
:101620002F933F938F939F93AF93BF9380912C0AF7
:1016300090912D0AA0912E0AB0912F0A3091300A74
:101640000196A11DB11D232F2D5F2D3720F02D57A1
:101650000196A11DB11D2093300A80932C0A90930E
:101660002D0AA0932E0AB0932F0A8091280A9091F8
:10167000290AA0912A0AB0912B0A0196A11DB11D39
:101680008093280A9093290AA0932A0AB0932B0AE0
:10169000BF91AF919F918F913F912F910F900FBE6E
:1016A0000F901F9018951F93182F81E090E06EEF18
:1016B0000E94DC1581E090E0612F0E94DC151F91F3
:1016C0000895EF92FF920F931F938C017B0181E0AD
:1016D00090E00E94530B80E890E00E94530B81E061
:1016E00090E0B8010E944E1B80EC90E00E94530BEA
:1016F00081E090E0B7010E944E1B1F910F91FF9077
:10170000EF9008950F931F9381E090E040E855E239
:1017100060E070E02FEF30E000E410E00E94F81C81
:10172000539A5B9A8CE090E00E94530B81E090E02A
:101730000E94530B1F910F910895E1E0F1E0808129
:10174000886080836B9A6D9AE2E0F1E08081886026
:101750008083739A759A0895882361F080910201BD
:10176000877F80930201662361F07398442361F4BC
:10177000759A089580910201886080930201662322
:10178000A1F7739A4423A1F375980895FFCF0E949F
:10179000893B14C086309105E9F00097F1F0813063
:1017A000910521F18230910551F18330910581F14C
:1017B0000497B9F182E390E00E94514E0E94F0122A
:1017C0008091F11C9091F21C8530910519F08730C1
:1017D000910501F70E94AD09EDCF80E090E040E077
:1017E00050E060E87FE30E949F13E4CF81E090E047
:1017F00040E050E060E87FE30E949F13DBCF83E08E
:1018000090E040E050E060E87FE30E949F13D2CF79
:1018100082E090E040E050E060E87FE30E949F13A8
:10182000C9CF84E090E040E050E060E87FE30E94B0
:101830009F13C0CF0E94893B13C021153105F1F0E1
:101840002130310539F122303105F1F023303105F5
:10185000D9F02430310521F18AEF90E00E94514EF9
:101860002091F11C3091F21CC9010597039728F7CC
:1018700080E060E040E00E94AC0BEECF80E061E0F1
:1018800040E00E94AC0BE8CF80E060E041E00E94C5
:10189000AC0BE2CF81E060E040E00E94AC0BDCCF1B
:1018A00081E061E041E00E94AC0BD6CFA0E0B0E067
:1018B000ECE5FCE00C9479570E94893B88EB9BE0B7
:1018C0000E94514E94E0C92ED12C83E0E82EF12CD9
:1018D00002E010E0C1E0D0E00EC0813301F18233BC
:1018E00041F1833381F18433C1F18533F1F18AEF22
:1018F00090E00E94514E0E947F2E809356098032C4
:10190000B1F38823A1F3803341F780E061E040E048
:101910000E94AC0B1092F21C1092F11CE8CF81E0F7
:1019200060E040E00E94AC0BD093F21CC093F11C2D
:10193000DECF80E060E041E00E94AC0B1093F21C2F
:101940000093F11CD4CF80E060E041E00E94AC0B3A
:10195000F092F21CE092F11CCACF80E060E040E01F
:101960000E94AC0B0E949209C2CF81E061E041E08D
:101970000E94AC0BD092F21CC092F11CB8CFA0E236
:10198000B0E0E5ECFCE00C946F570E94893B65E009
:10199000462E512C4C0E5D1E55E1652E712C6C0EA1
:1019A0007D1E4E010894811C911C41E1A42EB12C96
:1019B000AC0EBD1E3AE2232E32E0332E2CE0C22EB6
:1019C00072C02DB73EB72E5030400FB6F8943EBFD0
:1019D0000FBE2DBFEDB7FEB73196ADB7BEB71296AD
:1019E0009C928E92119720E032E033832283D801BB
:1019F0008C918483158211968C911197868317821E
:101A000012968C9112978087118613968C9113975A
:101A10008287138614968C91848715860E94BC0851
:101A2000F801F580E680D7802DB73EB7225F3F4FA3
:101A30000FB6F8943EBF0FBE2DBF0E94F0148C016C
:101A40000E94BE11ADB7BEB750970FB6F894BEBF97
:101A50000FBEADBFEDB7FEB731961296BC92AE92F7
:101A600011972FE032E033832283F4821582E682DD
:101A70001782D086118613870287648775878687C9
:101A800097870E94BC088DB79EB740960FB6F89412
:101A90009EBF0FBE8DBFC401B5010E94610B84E6DD
:101AA00090E00E94514E19821A821B821C82D20140
:101AB000EC2D1D92EA95E9F7198A1A8A1B8A1C8A6D
:101AC000D301EC2D1D92EA95E9F70E9453158C0184
:101AD0002091F11C3091F21CC9010497049708F47D
:101AE00070CF00D000D0EDB7FEB73196ADB7BEB71E
:101AF00012969C928E92119781E292E09383828358
:101B0000358324830E94BC08ADB7BEB716960FB6C6
:101B1000F894BEBF0FBEADBF0E947E127B018C0148
:101B20000E946512EDB7FEB73C970FB6F894FEBF62
:101B30000FBEEDBF3196ADB7BEB71296BC92AE9256
:101B4000119733822282E482F582068317836087AD
:101B50007187828793870E94BC08EDB7FEB73C96D9
:101B60000FB6F894FEBF0FBEEDBF95CF0E94893B24
:101B700085E090E060E070E00E94311306C00E94B2
:101B8000FE098AE090E00E94514E0E9421150E94B9
:101B900020128091F11C9091F21C0597039778F325
:101BA00086E090E062E370E00E943113EACFEF92AA
:101BB000FF920F931F93789480E090E040E052EC06
:101BC00061E070E02FEF30E000E410E00E94F81CCC
:101BD00082E090E040E855E260E070E02FEF30E016
:101BE0000E94F81C82E090E040E855E260E070E07E
:101BF00020E030E0E12CE2ECFE2EE1E00E2F112D92
:101C00000E94822B8AE392E00E94D22B0E947329C9
:101C10008FE392E065E472E040E050E00E94D42C53
:101C200080E36DE472E00E944B2C81E366E572E094
:101C30000E944B2C82E360E672E00E944B2C83E30F
:101C40006AE672E00E944B2C84E36BE772E00E942C
:101C50004B2C85E364E872E00E944B2C0E94102913
:101C60001F910F91FF90EF9008950E94D70D0E9451
:101C70009D0B0E9463150E94820B0E94B3140E9468
:101C80004D0A0E94AF110E94920908958F929F926F
:101C9000AF92BF92CF92DF92EF92FF920F93F9E84B
:101CA0008F2EF2E09F2E86EB9DE0B40144E650E0DB
:101CB00020E030E003E0EE24FF24CC24DD24AA243D
:101CC000BB240E94E4518FEB9CE0B40144EB50E054
:101CD00020E030E00E94E45186E59CE0B40140E25F
:101CE00053E020E030E00E94E45187EC9BE0B40137
:101CF00040E850E020E030E004E00E94E4510F9121
:101D0000FF90EF90DF90CF90BF90AF909F908F901B
:101D1000089583EE92E00E94461B0E94350E0E94B9
:101D2000460E0E94E95281E060E041E00E94AC0B67
:101D30008AEB92E00E94461B80E090E008959C01AF
:101D4000DC01AA0FBB1FAC01440F551F440F551FE8
:101D5000440F551FFD01E40FF51FE65FF54F01909D
:101D6000F081E02D808191818C54944085579E4074
:101D700020F080E59AE091838083F901EE0FFF1F48
:101D8000EE0FFF1FE20FF31FEE0FFF1FE45FF54F93
:101D90000190F081E02DA40FB51FA65FB54F1496FA
:101DA0004D915C911597208181E090E016960C9002
:101DB000169702C0880F991F0A94E2F7282B2083F8
:101DC000FA0120818095822380831896ED91FC9101
:101DD00019970084F185E02D20811796AC91A130F0
:101DE00069F0A13030F480E89FEB822B8923808357
:101DF0000895A230E9F788E09BEFF7CF80E29FEEED
:101E0000F4CFCF93DF93FC01EE0FFF1FEE0FFF1F08
:101E1000E80FF91FEE0FFF1FE45FF54F408151817E
:101E2000DC01AA0FBB1FAA0FBB1FAA0FBB1F880F85
:101E3000991FA80FB91FA65FB54F1496ED91FC919D
:101E40001597EA01288181E090E016960C9016978C
:101E500002C0880F991F0A94E2F7282B288320815B
:101E60008095822380831896ED91FC9119970084C8
:101E7000F185E02D908117968C91813069F0813049
:101E800030F48FE389238083DF91CF9108958230EE
:101E900029F0DF91CF9108958FECF4CF83EFF2CF4B
:101EA0009C01CB018C54944085579E4098F4C90105
:101EB000F901EE0FFF1FEE0FFF1FEE0FFF1F880F40
:101EC000991FE80FF91FE65FF54F0190F081E02DB3
:101ED0007183608308959C01FC01EE0FFF1FEE0FDC
:101EE000FF1FEE0FFF1F220F331FE20FF31FE65FEE
:101EF000F54F0190F081E02D20813181C9010895D5
:101F0000CF93DF93DC01EB01F894FC01EE0FFF1F90
:101F1000EB5BF54F80819181019739F020E030E053
:101F20007894C901DF91CF910895AA0FBB1FAA0F22
:101F3000BB1FA35CB54F8D919D910D90BC91A02DC1
:101F400088839983AA83BB831182108221E030E0C9
:101F50007894C901DF91CF9108951F920F920FB627
:101F60000F9211248F939F93AF93BF938091310A67
:101F70009091320AA091330AB091340A0196A11DC2
:101F8000B11D8093310A9093320AA093330AB09323
:101F9000340ABF91AF919F918F910F900FBE0F9018
:101FA0001F9018951F920F920FB60F9211248F93C6
:101FB0009F93AF93BF938091350A9091360AA09179
:101FC000370AB091380A0196A11DB11D8093350AD8
:101FD0009093360AA093370AB093380ABF91AF9115
:101FE0009F918F910F900FBE0F901F9018951F9289
:101FF0000F920FB60F920BB60F921124EF92FF9231
:102000000F931F932F933F934F935F936F937F9300
:102010008F939F93AF93BF93CF93DF93EF93FF93F0
:10202000E091EA09F091EB09808180628083E09180
:10203000F009F091F109C081D1812091310A3091EC
:10204000320A4091330A5091340A1092310A1092A8
:10205000320A1092330A1092340A211531054105D3
:10206000510509F444C08091390A90913A0A7E01E1
:1020700000E010E0A0E0B0E0E81AF90A0A0B1B0B40
:10208000CA01B9012FE33CE940E050E00E94075744
:10209000E60EF71E081F191FE0923D0AF0923E0A55
:1020A00000933F0A1093400A81E090E09093460A23
:1020B0008093450AD0933A0AC093390AFF91EF9171
:1020C000DF91CF91BF91AF919F918F917F916F9150
:1020D0005F914F913F912F911F910F91FF90EF9042
:1020E0000F900BBE0F900FBE0F901F901895809110
:1020F000390A90913A0A9E01281B390B790100E0B8
:1021000010E0CACF1F920F920FB60F920BB60F922C
:102110001124EF92FF920F931F932F933F934F93AE
:102120005F936F937F938F939F93AF93BF93CF935F
:10213000DF93EF93FF93A091E809B091E909ED9146
:10214000FC9111978081806280831696ED91FC91BD
:102150001797C081D1812091350A3091360A40917C
:10216000370A5091380A1092350A1092360A1092A6
:10217000370A1092380A211531054105510509F435
:1021800044C080913B0A90913C0A7E0100E010E03F
:10219000A0E0B0E0E81AF90A0A0B1B0BCA01B9016A
:1021A0002FE33CE940E050E00E940757E60EF71E9F
:1021B000081F191FE092410AF092420A0093430A55
:1021C0001093440A81E090E09093480A8093470A74
:1021D000D0933C0AC0933B0AFF91EF91DF91CF91DE
:1021E000BF91AF919F918F917F916F915F914F912F
:1021F0003F912F911F910F91FF90EF900F900BBE89
:102200000F900FBE0F901F90189580913B0A9091F0
:102210003C0A9E01281B390B790100E010E0CACF6F
:102220008091A0008F738093A0008091A0008F7C8C
:102230008093A0008091A000837F8093A000809174
:10224000A0009091A100836098618093A00090937A
:10225000A1008091A10082608A7F8093A1002EE37B
:102260003CE93093A9002093A800809120018F734E
:1022700080932001809120018F7C809320018091A8
:102280002001837F80932001809120019091210182
:1022900083609861809320019093210180912101B6
:1022A00082608A7F80932101309329012093280145
:1022B00010923A0A1092390A1092310A1092320A98
:1022C0001092330A1092340A80910A018E7F809313
:1022D0000A0180910B018E7F80930B01E091EC0944
:1022E000F091ED09808180628083808181608083AC
:1022F000E091F409F091F509808180648083109267
:102300003C0A10923B0A1092350A1092360A10923B
:10231000370A1092380A80910A018D7F80930A0152
:1023200080910B018D7F80930B01A091E809B09102
:10233000E9091296ED91FC91139780818062808368
:102340001296ED91FC9113978081816080831A969B
:10235000ED91FC911B97808180648083089580E0DB
:1023600090E0A0E0B0E08093F91C9093FA1CA09359
:10237000FB1CB093FC1C089A109808952091F91C3E
:102380003091FA1C4091FB1C5091FC1CB901CA0110
:102390000895089A10988AE08A95F1F7109A8AE1D0
:1023A0008A95F1F710980895AF92BF92CF92DF927D
:1023B000EF92FF920F931F935B016C0108980E94AC
:1023C0006C0A7B018C01009918C00E946C0A6E197E
:1023D0007F09800B910BA616B706C806D90698F799
:1023E00060E070E080E89FEB1F910F91FF90EF900D
:1023F000DF90CF90BF90AF9008950E946C0A7B0150
:102400008C010099FECF0E946C0A6E197F09800B27
:10241000910B0E94EE55E8CF089A10988AE08A95B1
:10242000F1F7109A8AE18A95F1F7109860E472E466
:102430008FE090E00E94D4110E94BD55CB01089519
:102440000E940C12AA2797FDA095BA2FBC01CD01BE
:102450000E94F05527EE3AE34DE05DE30E94A4565A
:1024600020E030E040E05FE30E94A4566093F91C56
:102470007093FA1C8093FB1C9093FC1C0895882396
:1024800091F4CB01BA0120E030E840EC54EC0E941A
:10249000A45620E030E045E255E40E94ED540E944D
:1024A000BD55CB010895CB01BA0120E030E047E0F3
:1024B00055E40E94A45620E030E045E255E40E9435
:1024C000ED540E94BD55CB01089560910D1D709192
:1024D0000E1D80910F1D9091101D2091111D3091A6
:1024E000121D4091131D5091141D0E94ED5420E0C7
:1024F00030E040E05FE30E94A45608956091FD1C27
:102500007091FE1C8091FF1C9091001D2091011D77
:102510003091021D4091031D5091041D0E94ED5405
:1025200020E030E040E05FE30E94A4560895CF929F
:10253000DF92EF92FF920F931F938C01F42EE52E02
:10254000D62EC72E60E070E00E94800F019769F1DF
:102550002F2D3E2D4D2D5C2DC901DA016C017D0121
:10256000000F111F000F111F0350134EC701B601BA
:1025700020E030E048E453E40E9455559B01AC0153
:10258000F80160817181828193810E94ED54F8018C
:102590006083718382839383B601C7011F910F917A
:1025A000FF90EF90DF90CF900895609100007091C0
:1025B000010080910200909103000E94EE552DEBE6
:1025C00037E346E055E30E94A4569B01AC016CE75B
:1025D00072EF80EB9BE30E9455556B017C01C0CFED
:1025E0004091051D5091061D6091071D7091081DB9
:1025F00080E090E00E94971260930D1D70930E1D75
:1026000080930F1D9093101D4091091D50910A1D3C
:1026100060910B1D70910C1D81E090E00E9497125B
:102620006093111D7093121D8093131D9093141DC0
:1026300020910D1D30910E1D40910F1D5091101DC8
:102640002093051D3093061D4093071D5093081DD0
:102650006093091D70930A1D80930B1D90930C1DB0
:102660000895EF92FF920F931F93CF93DF93EC01A6
:102670007B0103E010E00AC082E090E09093F41C3C
:102680008093F31CC091F31CD091F41C82E090E085
:102690000E946B0FBC01C330D10541F1C230D1059E
:1026A000A9F1C530D10591F0C430D10509F43EC07F
:1026B0002697B1F484E0613B7807F0F26C557241E3
:1026C00008F31093F41C0093F31CDCCF82E090E03D
:1026D00066E87BE00E94500F82E090E00E949F0E2F
:1026E000CDB7DEB7E6E00C94975729C06E197F0985
:1026F00082E090E00E94500F82E090E00E949F0EE6
:10270000CDB7DEB7E6E00C94975719C06E0D7F1D6C
:1027100082E090E00E94500F82E090E00E949F0EC5
:10272000CDB7DEB7E6E00C94975709C082E090E0A1
:102730000E94010FCDB7DEB7E6E00C949757A0E0FA
:10274000B0E0E5EAF3E10C947357EC013A014B0178
:10275000A090091DB0900A1DC0900B1DD0900C1DBB
:10276000E090051DF090061D0091071D1091081DB9
:10277000C601B501A80197010E94A05618160CF0D9
:102780005CC0C601B50120E030E040E050E00E94AE
:102790005155882309F451C0C801B701A60195011C
:1027A0000E9455557B018C0160E070E080E89FE35A
:1027B000209709F053C0A40193010E94A45620E081
:1027C00030E047E055E40E94A45620E030E045E2C6
:1027D00055E40E94ED540E94BD559B01AC0180E080
:1027E00090E0B9010E94500F80E090E00E949F0E9F
:1027F000C801B701A40193010E94A45620E030E86B
:1028000040EC54EC0E94A45620E030E045E255E450
:102810000E94ED540E94BD559B01AC0181E090E007
:10282000B9010E94500F81E090E00E949F0ECDB749
:10283000DEB7EEE00C948F5796C0C601B501A80133
:1028400097010E9451558823E4F060E070E080E831
:102850009FE37B018C01209709F4ADCFC130D105F6
:10286000A1F1C330D10509F458C0C230D10521F11E
:10287000249709F45BC0CDB7DEB7EEE00C948F5718
:1028800072C0C801B70120E030E040E050E00E9493
:1028900051558823D1F2C601B501A80197010E94C4
:1028A00055550F2EF0E0EF2EF0E0FF2EF0E80F2F41
:1028B000FFE31F2FF02DCFCFA40193010E94A45658
:1028C00020E030E840EC54EC7ECFA40193010E945C
:1028D000A45620E030E840EC54EC0E94A45620E0DE
:1028E00030E045E255E40E94ED540E94BD559B0145
:1028F000AC0180E090E0B9010E94500F80E090E0D0
:102900000E949F0EC801B701A40193010E94A45622
:1029100020E030E047E055E475CFA40193010E9428
:10292000A45620E030E047E055E4D7CF81E090E0C6
:102930000E94010F80E090E00E94010F80E090E093
:10294000A0E0B0E08093091D90930A1DA0930B1D99
:10295000B0930C1D8093051D9093061DA093071D39
:10296000B093081D88CF0E94101180E090E0A0E095
:10297000B0E08093111D9093121DA093131DB0938E
:10298000141D80930D1D90930E1DA0930F1DB093E9
:10299000101D8093091D90930A1DA0930B1DB093E9
:1029A0000C1D8093051D9093061DA093071DB093E9
:1029B000081D8093FD1C9093FE1CA093FF1CB093F8
:1029C000001D8093011D9093021DA093031DB093E1
:1029D000041D83E090E09093F41C8093F31C089511
:1029E0008091181D90E0089520911C1D80911A1D62
:1029F00090E0820F911D20911E1D820F911D63E0BA
:102A000070E00E943A57CB0108958091221D2091D9
:102A1000201D30E0280F311D35952795C9010895F7
:102A20002091261D8091241D90E0820F911D209100
:102A3000281D820F911D63E070E00E943A57CB0180
:102A40000895A4E0B0E0E7E2F5E10C94755705E1E4
:102A50001DE1FF245E010894A11CB11C33E0C32ECC
:102A6000D12CCC0EDD1E20ED822E91ED992EEE2480
:102A7000E3948982FA829B82EC82C50162E00E9423
:102A80005832C60162E00E945832C80162E00E94DA
:102A9000A332F3940E5F1F4F8AE0F81651F7249685
:102AA000ECE00C9491570E942115EAE1FDE1A9E4C4
:102AB000BAE080818D9332968DE1EA32F807C9F74A
:102AC00089E49AE0089580EC0E94AC330895109256
:102AD0002A1D1092291D90932C1D80932B1DA1E778
:102AE000B0E08C918E7F8C9310929000E1E9F0E041
:102AF00010828FE89DEF90939500809394008081E1
:102B0000846080838C9181608C9308958091291DCD
:102B100090912A1D0895BC012091291D30912A1DF4
:102B2000C9010E943A57892B11F080E0089580E096
:102B3000232B09F4089581E008951F920F920FB698
:102B40000F920BB60F9211242F933F934F935F93E5
:102B50006F937F938F939F93AF93BF93EF93FF9365
:102B60008091291D90912A1D019690932A1D809392
:102B7000291D8FE89DEF9093950080939400E0913C
:102B80002B1DF0912C1D1995FF91EF91BF91AF91E5
:102B90009F918F917F916F915F914F913F912F9175
:102BA0000F900BBE0F900FBE0F901F901895909333
:102BB000520A8093510A08959C01FC01EE0FFF1FF9
:102BC000EE0FFF1FE80FF91FEE0FFF1FE75AF64F3A
:102BD0000190F081E02D808185FD07C095E8892F67
:102BE0008A95F1F7808185FFFACFF901EE0FFF1F7B
:102BF000EE0FFF1FEE0FFF1F220F331FE20FF31F19
:102C0000E95AF64F0190F081E02D60830895AC0100
:102C1000FC01EE0FFF1FEE0FFF1FE80FF91FEE0F75
:102C2000FF1FE75AF64F0190F081E02D808187FD6C
:102C300007C025E8822F8A95F1F7808187FFFACFB8
:102C400080818C7191F4FA01EE0FFF1FEE0FFF1FD0
:102C5000EE0FFF1F440F551FE40FF51FE95AF64F03
:102C60000190F081E02D808108958FEF08959C01FF
:102C7000FC01EE0FFF1FEE0FFF1FE80FF91FEE0F15
:102C8000FF1FE75AF64FA081B1818C918823CCF5C4
:102C9000A901440F551FF901EE0FFF1FEE0FFF1F93
:102CA000EE0FFF1FE40FF51FE95AF64F0190F08178
:102CB000E02D80818C9187FDFCCF0FB6F8940F92A8
:102CC000CA01820F931FFC01EE0FFF1FEE0FFF1FC3
:102CD000E80FF91FEE0FFF1FDF01A35DB24E119643
:102CE0001C921E92E15DF24E16968D919C91179763
:102CF0009183808315969C938E9314970F900FBEAB
:102D00000895A901440F551FD8CF0FB6F8940F921C
:102D1000FC01EE0FFF1FE80FF91FCF01880F991F6D
:102D2000880F991FE80FF91FEE0FFF1FE35DF24EAA
:102D3000208131810F900FBEC9010895CF93DF9399
:102D40009C01DB010FB6F8940F92AC01440F551FA4
:102D5000FA01E80FF91FCF01880F991F880F991FFB
:102D6000E80FF91FEE0FFF1FE35DF24E80819181A6
:102D70000F900FBE892B41F1CA01820F931F9C0156
:102D8000220F331F220F331F820F931F880F991FAB
:102D9000835D924EEC01EC81FD8121910FB6F89498
:102DA0000F92FD83EC8388859985E817F90781F0F8
:102DB000888199810197998388830F900FBE2C9306
:102DC00081E0DF91CF91089580E0DF91CF91089568
:102DD0008E819F819D838C83EBCFCF93DF93DC012A
:102DE0000FB6F8940F92FC01EE0FFF1FE80FF91FCA
:102DF000CF01880F991F880F991FE80FF91FEE0F59
:102E0000FF1FE35DF24EC485D5850F900FBEAD0167
:102E1000440F551FCA018A0F9B1F9C01220F331FAD
:102E2000220F331F280F391F220F331FF901E35DD3
:102E3000F24E86899789C817D90791F1C901875C35
:102E4000924EEC01EA81FB8160830FB6F8940F92F9
:102E50008A819B8101969B838A8328853985821785
:102E6000930709F44EC088819981019699838883DC
:102E70000F900FBE91E0AA0FBB1FAA0FBB1FAA0F96
:102E8000BB1FA40FB51FA95AB64F1496ED91FC9124
:102E90001597808180628083892FDF91CF9108957B
:102EA00085E8982F9A95F1F7982F9A95F1F7982F32
:102EB0009A95F1F78A95F1F70FB6F8940F92FA0107
:102EC000EA0FFB1FCF01880F991F880F991FE80F8A
:102ED000F91FEE0FFF1FE35DF24E848595850F907D
:102EE0000FBEC817D90791F0CA018A0F9B1F9C011A
:102EF000220F331F220F331F820F931F880F991F3A
:102F00009ECF8E819F819B838A83ADCF90E0B3CF8C
:102F1000FC01EE0FFF1FEE0FFF1FE80FF91FEE0F72
:102F2000FF1FE75AF64F0190F081E02D80818078F5
:102F30000895FC01EE0FFF1FEE0FFF1FE80FF91FB2
:102F4000EE0FFF1FE75AF64F0190F081E02D8081D0
:102F5000807208959C01FC01EE0FFF1FEE0FFF1F12
:102F6000EE0FFF1F220F331FE20FF31FE95AF64F38
:102F70000480F581E02D80818062808308959C012A
:102F8000FC01EE0FFF1FEE0FFF1FEE0FFF1F220FC2
:102F9000331FE20FF31FE95AF64F0480F581E02D4D
:102FA00080818F7D80830895CF93DF93AC01FC01F6
:102FB000EE0FFF1FEE0FFF1FE80FF91FEE0FFF1FB1
:102FC000E75AF64F0190F081E02D80818C7109F075
:102FD00056C0FA01EE0FFF1FCA01880F991F880F14
:102FE000991F880F991FE80FF91FE95AF64F0190B2
:102FF000F081E02D60810FB6F8940F92FA01EE0F88
:10300000FF1FE40FF51FCF01880F991F880F991F2D
:10301000E80FF91FEE0FFF1FE35DF24E20813181B3
:103020000F900FBECA01880F991F840F951FFC01D6
:10303000EE0FFF1FEE0FFF1FE80FF91FEE0FFF1F30
:10304000E35DF24E8285938528173907C1F0EF01C1
:10305000EA81FB8160830FB6F8940F928A819B818D
:1030600001969B838A83288539858217930751F0BF
:10307000888199810196998388830F900FBEDF9193
:10308000CF9108958E819F819B838A83F1CF1F9278
:103090000F920FB60F920BB60F9211242F933F93FE
:1030A0004F935F936F937F938F939F93AF93BF9350
:1030B000EF93FF9383E090E00E94D417FF91EF918C
:1030C000BF91AF919F918F917F916F915F914F9140
:1030D0003F912F910F900BBE0F900FBE0F901F903E
:1030E00018951F920F920FB60F920BB60F921124E4
:1030F0002F933F934F935F936F937F938F939F9300
:10310000AF93BF93EF93FF9382E090E00E94D417B8
:10311000FF91EF91BF91AF919F918F917F916F91AF
:103120005F914F913F912F910F900BBE0F900FBE6B
:103130000F901F9018951F920F920FB60F920BB61B
:103140000F9211242F933F934F935F936F937F932D
:103150008F939F93AF93BF93EF93FF9381E090E0A2
:103160000E94D417FF91EF91BF91AF919F918F91E2
:103170007F916F915F914F913F912F910F900BBE77
:103180000F900FBE0F901F9018951F920F920FB6C1
:103190000F920BB60F9211242F933F934F935F938F
:1031A0006F937F938F939F93AF93BF93EF93FF930F
:1031B00080E090E00E94D417FF91EF91BF91AF9112
:1031C0009F918F917F916F915F914F913F912F913F
:1031D0000F900BBE0F900FBE0F901F901895CF93BE
:1031E000DF93DC010FB6F8940F929C01220F331F7E
:1031F000F901E80FF91FCF01880F991F880F991F58
:10320000E80FF91FEE0FFF1FE35DF24E84859585F1
:103210000F900FBE892BA9F1FD01EE0FFF1FEE0FDE
:10322000FF1FEE0FFF1FE20FF31FE95AF64F408119
:103230005181C9018A0F9B1F9C01220F331F220F4E
:10324000331F820F931F880F991F875C924EEC01EA
:10325000EC81FD8121910FB6F8940F92FD83EC83F0
:1032600088859985E817F90701F188819981019787
:10327000998388830F900FBEFA012083DF91CF914D
:103280000895AA0FBB1FAA0FBB1FAA0FBB1FA20F37
:10329000B31FA95AB64F1496ED91FC9115978081F2
:1032A0008F7D8083DF91CF9108958E819F819D8353
:1032B0008C83DBCF1F920F920FB60F920BB60F923B
:1032C00011242F933F934F935F936F937F938F932B
:1032D0009F93AF93BF93EF93FF9383E090E00E949F
:1032E000EF18FF91EF91BF91AF919F918F917F91D7
:1032F0006F915F914F913F912F910F900BBE0F9067
:103300000FBE0F901F9018951F920F920FB60F923D
:103310000BB60F9211242F933F934F935F936F93AC
:103320007F938F939F93AF93BF93EF93FF9382E02D
:1033300090E00E94EF18FF91EF91BF91AF919F91A4
:103340008F917F916F915F914F913F912F910F904E
:103350000BBE0F900FBE0F901F9018951F920F92EB
:103360000FB60F920BB60F9211242F933F934F93EA
:103370005F936F937F938F939F93AF93BF93EF93DD
:10338000FF9381E090E00E94EF18FF91EF91BF91D1
:10339000AF919F918F917F916F915F914F913F91ED
:1033A0002F910F900BBE0F900FBE0F901F9018958E
:1033B0001F920F920FB60F920BB60F9211242F93FC
:1033C0003F934F935F936F937F938F939F93AF93AD
:1033D000BF93EF93FF9380E090E00E94EF18FF917E
:1033E000EF91BF91AF919F918F917F916F915F917D
:1033F0004F913F912F910F900BBE0F900FBE0F90EA
:103400001F901895A0E0B0E0E8E0FAE10C9479573D
:103410006C017B01DB010D900020E9F78D0101506B
:103420001040061B170B71F0C0E0D0E0F701EC0F65
:10343000FD1F2196E491C6016E2F0E94ED16C01764
:10344000D107A0F3CDB7DEB7E8E00C949557BC01E7
:103450008091510A9091520A0E94021A0895A0E0A8
:10346000B0E0E5E3FAE10C9479576C017B01DB01F4
:103470000D900020E9F78D0101501040061B170B3D
:1034800079F0C0E0D0E0E0E0F0E02196EE0DFF1D25
:10349000C60160810E94ED16FE01C017D107A8F396
:1034A000CDB7DEB7E8E00C949557A0E0B0E0EBE5CF
:1034B000FAE10C9477577C016B015A018C01000FE3
:1034C000111FC8018E0D9F1DFC01EE0FFF1FEE0F97
:1034D000FF1FE80FF91FEE0FFF1FE35DF24E9F0184
:1034E000245E3F4F848D958D019739F4E9010E9448
:1034F000BD31888199810197D1F3C8018E0D9F1D3F
:103500008C01000F111F000F111F080F191F000F52
:10351000111F035D124E81E090E0F801958F848FBA
:10352000628D738D808D918DA60195010E940A098F
:10353000F801608D718DC7010E942F1AF801158E58
:10354000148ECDB7DEB7EAE00C949357A0E0B0E05C
:10355000ECEAFAE10C9477577C016B015A018C017B
:10356000000F111FC8018E0D9F1DFC01EE0FFF1FE4
:10357000EE0FFF1FE80FF91FEE0FFF1FE35DF24E86
:103580009F01245E3F4F848D958D019739F4E901A9
:103590000E94BD31888199810197D1F3C8018E0DB8
:1035A0009F1D8C01000F111F000F111F080F191F05
:1035B000000F111F035D124E81E090E0F801958F1E
:1035C000848F628D738D808D918DA60195010E94EF
:1035D000E008F801608D718DC7010E942F1AF80173
:1035E000158E148ECDB7DEB7EAE00C949357BC016C
:1035F0008091510A9091520A0E942F1A08950F93B8
:103600001F93CF93DF938B01DB010D900020E9F72F
:10361000BD0161507040601B710B99F120E030E0FA
:10362000DC01AA0FBB1FAA0FBB1FEC01CC0FDD1FD3
:10363000CC0FDD1FCC0FDD1FA80FB91FAA0FBB1FBA
:10364000A75AB64F45E8880F991FC80FD91FC95A06
:10365000D64FF801E20FF31F2F5F3F4F9491ED918A
:10366000FC911197808185FD06C0842F8A95F1F722
:10367000808185FFFACFE881F9819083261737078B
:1036800040F3DF91CF911F910F910895BC0180917C
:10369000510A9091520A0E94FF1A08950F931F93A6
:1036A000CF93DF938B01DB010D900020E9F7BD0183
:1036B00061507040601B710B99F120E030E0DC013B
:1036C000AA0FBB1FAA0FBB1FEC01CC0FDD1FCC0F35
:1036D000DD1FCC0FDD1FA80FB91FAA0FBB1FA75AF4
:1036E000B64F45E8880F991FC80FD91FC95AD64F42
:1036F000F801E20FF31F90812F5F3F4FED91FC9196
:103700001197808185FD06C0842F8A95F1F780810D
:1037100085FFFACFE881F98190832617370740F3B8
:10372000DF91CF911F910F9108950F931F93CF9326
:10373000DF938C01FB019A01880F991F800F911F65
:10374000EC01CC0FDD1FCC0FDD1FC80FD91FCC0F34
:10375000DD1FC35DD24E8C8D9D8D019741F495E8A0
:10376000892F8A95F1F7892F8A95F1F7F9CF81E0B2
:1037700090E09D8F8C8F6A8D7B8D888D998DAF01A8
:103780000E940A09688D798DC8010E944E1B1D8E0A
:103790001C8EDF91CF911F910F910895CF93DF93EE
:1037A000FB01DA019C01220F331F280F391FE901A9
:1037B000CC0FDD1FCC0FDD1FC20FD31FCC0FDD1FC1
:1037C000C35DD24E8C8D9D8D019741F495E8892F74
:1037D0008A95F1F7892F8A95F1F7F9CF81E090E08A
:1037E0009D8F8C8F6A8D7B8D888D998DAF019D010A
:1037F0000E94E008688D798D8091510A9091520A5B
:103800000E944E1B1D8E1C8EDF91CF910895BC012E
:103810008091510A9091520A0E944E1B0895A0E097
:10382000B0E0E5E1FCE10C947F579E01265F3F4F3D
:103830008E819F8168857985A9010E94551A2096FD
:10384000E2E00C949B57A0E0B0E0E9E2FCE10C94CC
:103850007F579E01265F3F4F8E819F8168857985C6
:10386000A9010E94A61A2096E2E00C949B57A0E0C2
:10387000B0E0EDE3FCE10C947F57FE0136966191D8
:1038800071918091510A9091520AAF010E94551A8C
:103890002096E2E00C949B57A0E0B0E0E2E5FCE16A
:1038A0000C947F57FE013696619171918091510A77
:1038B0009091520AAF010E94A61A2096E2E00C9461
:1038C0009B57A0E0B0E0E7E6FCE10C947F579E0137
:1038D000265F3F4F8E819F8168857985A9010E946F
:1038E000951B2096E2E00C949B57A0E0B0E0EBE73C
:1038F000FCE10C947F579E01265F3F4F8E819F8194
:1039000068857985A9010E94CE1B2096E2E00C947F
:103910009B57A0E0B0E0EFE8FCE10C947F57FE017C
:103920003696619171918091510A9091520AAF013E
:103930000E94951B2096E2E00C949B57A0E0B0E01B
:10394000E4EAFCE10C947F57FE0136966191719197
:103950008091510A9091520AAF010E94CE1B20968D
:10396000E2E00C949B57EF92FF920F931F937C0120
:10397000880F991F8E0D9F1D8C01000F111F000FC6
:10398000111F080F191F000F111F035D124EF801C0
:10399000808D918D0E940F34F801868197810E945D
:1039A0000F34F801828993890E940F340FB6F8947E
:1039B0000F92F701EE0FFF1FEE0FFF1FEE0FFF1F1D
:1039C000EE0CFF1CEE0DFF1DE95AF64FA481B581E8
:1039D0008C918F7D8C930480F581E02D80818F7791
:1039E00080830F900FBE1F910F91FF90EF9008956D
:1039F000A0E0B0E0EEEFFCE10C947557EC015A0149
:103A00006B017901C8010E9482349C01009709F47E
:103A1000C1C04E01880C991CF401EC0FFD1FCF01B1
:103A2000880F991F880F991FE80FF91FEE0FFF1FCE
:103A3000E35DF24E0FB6F8940F921182108222834A
:103A400033832483358337832683200F311F3187C7
:103A50002087138702870F900FBEC7010E94823410
:103A60009C01009709F1F401EC0FFD1FCF01880FB5
:103A7000991F880F991FE80FF91FEE0FFF1FE75CD2
:103A8000F24E0FB6F8940F92118210822283338384
:103A900024833583378326832E0D3F1D318720876E
:103AA000F386E2860F900FBEC7010E9482349C010C
:103AB000C4018C0F9D1FFC01EE0FFF1FEE0FFF1FB7
:103AC000E80FF91FEE0FFF1FE35DF24E208F318FDD
:103AD000F38EE28E158E148E0FB6F8940F928E012F
:103AE000000F111FCE01880F991F880F991F880F93
:103AF000991F080F191F095A164FD8011896ED90F3
:103B0000FC901997C601B5016050774F824C9F4FCA
:103B1000660F771F881F991F660F771F881F991FD1
:103B2000AA0CBB1CCC1CDD1CAA0CBB1CCC1CDD1CB9
:103B3000AA0CBB1CCC1CDD1CA60195010E944D5794
:103B400021503040F70131832083FE01EE0FFF1F2B
:103B5000EE0FFF1FEC0FFD1FEE0FFF1FE75AF64F92
:103B60000190F081E02D82E08083D8011496ED91E0
:103B7000FC91159788E980831696ED91FC91179733
:103B800086E080830F900FBECE01CDB7DEB7ECE0AC
:103B90000C9491574E01880C991C5FCFEF92FF92C5
:103BA0000F931F939093D21D8093D11D4093D31DEB
:103BB0005093D41D6093D51D7093D61D3093CC1DAA
:103BC0002093CB1DE092CD1DF092CE1D0093CF1D12
:103BD0001093D01D1F910F91FF90EF9008958430A6
:103BE00080F490E0FC01EE0FFF1FEE0FFF1FEE0FC1
:103BF000FF1FE80FF91FE553F24E24A535A5C901B3
:103C000008952FEF30E0C9010895282F8430D0F4B3
:103C100090E0FC01EE0FFF1FEE0FFF1FEE0FFF1FE6
:103C2000E80FF91FE553F24E84A595A50197039778
:103C300048F420931C1E84A980931D1E21E030E0CF
:103C4000C901089520E030E0C901089580911C1E4B
:103C5000089590E0FC01EE0FFF1FEE0FFF1FEE0F27
:103C6000FF1FE80FF91FE553F24E86A597A50895AB
:103C700090E0FC01EE0FFF1FEE0FFF1FEE0FFF1F86
:103C8000E80FF91FE553F24E82A993A9089520E0A9
:103C900030E090911B1E981711F0C901089521E0A2
:103CA00030E0C901089580931C1E90E0FC01EE0FE6
:103CB000FF1FEE0FFF1FEE0FFF1FE80FF91FE55369
:103CC000F24E77A766A753AB42AB81E090E095A791
:103CD00084A7089530911B1EE7EFFDE120E080816D
:103CE0009181039731F02F5F39962430C1F78FEF20
:103CF00008953330C1F7822F089520E030E090E03E
:103D0000FC01EE0FFF1FEE0FFF1FEE0FFF1FE80F6E
:103D1000F91FE553F24E84A595A5039711F0C9014B
:103D2000089521E030E0C90108958091540AE0919E
:103D3000221EF091231EE80FF11D908180E2808306
:103D40008091540A8F5F8093540A8A3010F0109249
:103D5000540A892F0895982F80538A3048F0815152
:103D6000863038F0892F8156863028F4892F875580
:103D70000895865F089580E00895982F8A3040F076
:103D80008A50863018F4892F895C089580E308955D
:103D9000805D089580E590E09093251E8093241E19
:103DA00086E08093261E80E090E06AE872E00E9440
:103DB0002F1A0895A2E8B0E0E0EEFEE10C947D57E2
:103DC0009C011BAA1CAA1DAA1EAAFE01F7968CE440
:103DD000DF011D928A95E9F7809105039091060312
:103DE0009A838983FE01339680E3DF011D928A95D1
:103DF000E9F72130310509F448C021303105C8F117
:103E00002230310509F44DC09E012F5F3F4FD9018B
:103E1000EAEAF2E084E101900D928150E1F700D0EE
:103E200000D0EDB7FEB731968E010D5C1F4FADB7D8
:103E3000BEB712961C930E9311978DEE92E093836A
:103E40008283358324830E94BC088DB79EB7069673
:103E50000FB6F8949EBF0FBE8DBF8091CB1D909181
:103E6000CC1DB8010E942F1ACE57DF4FE4E00C940E
:103E700099579E012F5F3F4FD901EAEAF2E084E1B2
:103E800001900D928150E1F7CACF9E012F5F3F4F05
:103E9000D901EEEBF2E088E101900D928150E1F75B
:103EA000BECF9E012F5F3F4FD901E6EDF2E087E1E3
:103EB00001900D928150E1F7B2CFA2E8B0E0E3E6C5
:103EC000FFE10C947D57482F1BAA1CAA1DAA1EAA0D
:103ED000FE01F7968CE4DF011D928A95E9F7809147
:103EE0000503909106039A838983FE01339680E34C
:103EF000DF011D928A95E9F76130710509F45BC015
:103F00006130710508F44BC06230710509F45FC07F
:103F10009E012F5F3F4FD901E7E4F3E086E1019076
:103F20000D928150E1F7EDB7FEB738970FB6F894D0
:103F3000FEBF0FBEEDBFADB7BEB711968E010D5CD3
:103F40001F4F128301838DE593E013969C938E930C
:103F50001297E42FF0E0EE0FFF1FE158F64F80813B
:103F6000918115969C938E93149717963C932E935C
:103F700016970E94BC088DB79EB708960FB6F894A6
:103F80009EBF0FBE8DBF8091CB1D9091CC1DB801FF
:103F90000E942F1ACE57DF4FE4E00C9499579E01F0
:103FA0002F5F3F4FD901E7E3F3E087E001900D92E7
:103FB0008150E1F7B8CF9E012F5F3F4FD901EEE36B
:103FC000F3E089E001900D928150E1F7ACCF9E01C2
:103FD0002F5F3F4FD901E7E4F3E086E101900D92B6
:103FE0008150E1F7A0CFA0E8B0E0E9EFFFE10C9449
:103FF0007557282F843008F09FC0A82EBB24450198
:10400000880C991C880C991C880C991C6401CA0C9A
:10401000DB1C8BEC9DE1C80ED91ED6019C968D91C0
:104020009C919D970197039708F086C020931C1ED2
:10403000D4968C9180931D1E9BE1E92EF12CFA827F
:10404000E9828091D11D9091D21D8E010F5F1F4F8B
:10405000B8010E942F1A83E590E09A8389838091AA
:10406000D11D9091D21DB8010E942F1A00D000D00E
:10407000EDB7FEB73196ADB7BEB712961C930E934F
:1040800011978EE693E093838283D601D4968C9128
:10409000848315820E94BC08EDB7FEB736960FB632
:1040A000F894FEBF0FBEEDBF8091D11D9091D21D3F
:1040B000B8010E942F1AFA82E9828091D11D909155
:1040C000D21DB8010E942F1A83E490E09A8389835D
:1040D0008091D11D9091D21DB8010E942F1AD60156
:1040E000D0962C91D097D1963C91C901DC01E1E7A3
:1040F000F3E088E001900D928150E1F7F401EA0DC0
:10410000FB1DE553F24E82E090E095A784A786E080
:1041100090E097A786A713AA12AA8091F61D84ABF8
:1041200080931D1E8FEF80931B1E10921F1E1092F6
:104130001E1E21E030E002C020E030E0C901C0587E
:10414000DF4FECE00C949157A3E8B0E0EAEAF0E22C
:104150000C9476577C015B0190901C1E6E010894B4
:10416000C11CD11CC60160E270E040E850E00E9432
:104170002508F7018081882309F46EC020E030E033
:1041800000E010E015C08A30C9F0F601E20FF31F1D
:1041900080832F5F3F4F0F5F1F4FF701019000207B
:1041A000E9F73197EE19FF09E017F10708F454C059
:1041B000F701E00FF11F80818D3029F721153105BE
:1041C00051F32C0D3D1DF9011082C60169E773E022
:1041D00047E050E00E944E08009709F445C0C60130
:1041E00061E873E04AE050E00E944E08009709F44D
:1041F00084C0C6016CE873E044E150E00E944E08C0
:10420000009709F4A2C0C60161EA73E042E050E001
:104210000E944E08009709F4A1C0C60164EA73E049
:1042200045E050E00E944E08009709F49EC0C60188
:104230006AEA73E04BE050E00E944E08009709F4F0
:10424000ACC0C60160E270E040E850E00E94250882
:10425000198220E030E09FCF22E030E0C901CD5745
:10426000DF4FEBE00C949257F1E0AF16B10409F484
:1042700097C082E0A816B10409F04EC08985582F76
:104280005053982F9154CE57DF4F9883C258D04047
:10429000B82FB753E82FE156CD57DF4FE883C35807
:1042A000D040A82FA7558B85482F4053082F015485
:1042B000782F7753F82FF156CF57DF4FF883C15837
:1042C000D040682F675510911C1E30911D1EE7EFDE
:1042D000FDE120E083E0E82EF12C808191810297BE
:1042E00009F485C02F5F39962430B9F710931C1E4E
:1042F00030931D1E21E030E0B1CF07EF1DE1FF2418
:10430000F801808191810297029748F0F394075F4A
:104310001F4FF4E0FF16A1F721E030E09FCF20917E
:104320001D1E9C85892F80538A3028F0815186304C
:1043300008F083C0865F281749F78F2D0E94F31F6E
:1043400010921F1E10921E1EE1CF82E090E090930B
:10435000D81D8093D71D21E030E080CF10921F1E22
:1043600010921E1E21E030E079CF892D90E0FC01F3
:10437000EE0FFF1FEE0FFF1FEE0FFF1FE80FF91FDD
:10438000E553F24E82E090E095A784A710921F1E9D
:1043900010921E1E20E030E061CF20E030E05ECFC2
:1043A0009985292F20532A3008F453C0892F81542E
:1043B000863008F048C0292F27532093F61D2093FC
:1043C0001D1E80911C1E90E0FC01EE0FFF1FEE0FE2
:1043D000FF1FEE0FFF1FE80FF91FE553F24E24AB4E
:1043E00082E090E095A784A721E030E037CF908568
:1043F0005A30B8F5852F981709F074CF82819381D0
:10440000069709F06FCF9091F61D5A3008F440C01E
:10441000CE57DF4F8881C258D040863008F048C060
:104420008B2F981709F05ECF4A30E8F5842F342F90
:104430008087F182E082122F55CF892F81568630F6
:1044400000F180E078CF892F8156863018F5292F2A
:1044500027552093F61D20931D1E80911C1E90E071
:10446000B3CFCE57DF4F8881C258D040863060F03E
:10447000CD57DF4F8881C358D040863038F080E078
:10448000BACF892F875557CF8B2FB5CF8A2FB3CF70
:10449000852FC7CF1092F61D10921D1E80911C1EF5
:1044A00090E020E091CF063060F4872F372FC0CF07
:1044B000CD57DF4F8881C358D040863060F080E010
:1044C000B0CFCF57DF4F9881C158D040963028F4F5
:1044D000862F362FADCF8A2FA4CF80E030E0A8CF33
:1044E000A0E5B0E0E6E7F2E20C9477577C015E01CC
:1044F0000894A11CB11CC50160E270E040E550E0E9
:104500000E942508F7018081882309F440C052E009
:10451000C52ED12C20E030E000E010E014C08A303D
:10452000C1F0F501E20FF31F80832F5F3F4F0F5F54
:104530001F4FF70101900020E9F73197EE19FF09AD
:10454000E017F10738F1F701E00FF11F80818D309E
:1045500031F72115310559F32A0D3B1DF901108260
:10456000C50161EA73E042E050E00E944E08009706
:10457000B9F441E0C42ED12CC50160E270E040E501
:1045800050E00E942508198220E030E0D0CF62E0A0
:10459000C62ED12CC601C05BDF4FEAE00C949357C6
:1045A000C50164EA73E045E050E00E944E080097C0
:1045B00019F7CC24DD24E0CFA1E0B0E0E2EEF2E296
:1045C0000C947D5780E289838E010F5F1F4F07C0D7
:1045D0008091D11D9091D21DB8010E949E168091AC
:1045E000D11D9091D21D0E948516892B89F72196A5
:1045F000E4E00C949957EF92FF921F93DF93CF93CF
:10460000CDB7DEB7E2970FB6F894DEBF0FBECDBFD1
:10461000182F7E010894E11CF11CC70160E270E0D4
:1046200042E350E00E9425080E94DC22E12FF0E0E6
:10463000EA32F105D0F5EE58FF4F0C94A657ADB70E
:10464000BEB71A970FB6F894BEBF0FBEADBFEDB799
:10465000FEB731961296FC92EE92119782EE93E09D
:10466000938382838091A7099091A809958384837D
:104670008091D91D9091DA1D978386838091DB1DEF
:104680009091DC1D918780870E94BC088DB79EB7F2
:104690000A960FB6F8949EBF0FBE8DBF8091D11DB4
:1046A0009091D21DB7010E942F1A8091CB1D90913D
:1046B000CC1D60E074E00E942F1A8091CB1D909178
:1046C000CC1DB7010E942F1AE2960FB6F894DEBFF8
:1046D0000FBECDBFCF91DF911F91FF90EF90089556
:1046E00000D000D0EDB7FEB73196ADB7BEB7129689
:1046F000FC92EE92119786EB93E0938382838091F4
:10470000B9099091BA09958384830E94BC088DB73A
:104710009EB706960FB6F8949EBF0FBE8DBF8091D0
:10472000D11D9091D21DB7010E942F1ABECF00D08B
:1047300000D0EDB7FEB73196ADB7BEB71296FC927A
:10474000EE92119786EB93E0938382838091B70971
:104750009091B809D8CFADB7BEB71C970FB6F894F3
:10476000BEBF0FBEADBFEDB7FEB731961296FC923D
:10477000EE9211978CEE93E0938382838091B5093A
:104780009091B609958384838091E71D9091E81DEF
:10479000978386838091E91D9091EA1D9187808798
:1047A0008091EB1D9091EC1D938782870E94BC083D
:1047B0008DB79EB70C960FB6F8949EBF0FBE8DBFF7
:1047C0008091D11D9091D21DB7010E942F1A6DCFFB
:1047D00000D000D0EDB7FEB73196ADB7BEB7129698
:1047E000FC92EE92119786EB93E093838283809103
:1047F000B3099091B40987CF00D000D0EDB7FEB7D0
:104800003196ADB7BEB71296FC92EE92119786EB39
:1048100093E0938382838091B1099091B20973CF21
:1048200000D000D0EDB7FEB73196ADB7BEB7129647
:10483000FC92EE92119786EB93E0938382838091B2
:10484000AF099091B0095FCF00D000D0EDB7FEB7AF
:104850003196ADB7BEB71296FC92EE92119786EBE9
:1048600093E0938382838091AD099091AE094BCF01
:1048700000D000D0EDB7FEB73196ADB7BEB71296F7
:10488000FC92EE92119786EB93E093838283809162
:10489000AB099091AC0937CF00D000D0EDB7FEB78F
:1048A0003196ADB7BEB71296FC92EE92119786EB99
:1048B00093E0938382838091A9099091AA0923CFE1
:1048C000ADB7BEB718970FB6F894BEBF0FBEADBF59
:1048D000EDB7FEB731961296FC92EE9211978BEDE2
:1048E00093E0938382838091A5099091A609958393
:1048F00084838091DB1D9091DC1D978386830E94C9
:10490000BC088DB79EB708960FB6F8949EBF0FBE31
:104910008DBF8091D11D9091D21DB7010E942F1A99
:10492000C4CEADB7BEB718970FB6F894BEBF0FBED2
:10493000ADBFEDB7FEB731961296FC92EE9211978D
:1049400089EC93E0938382838091A3099091A409D9
:10495000958384838091E11D86831782D0CFADB784
:10496000BEB718970FB6F894BEBF0FBEADBFEDB778
:10497000FEB731961296FC92EE92119789EC93E075
:10498000938382838091A1099091A2099583848366
:104990008091DF1D86831782B2CFADB7BEB71A975D
:1049A0000FB6F894BEBF0FBEADBFEDB7FEB73196E0
:1049B0001296FC92EE92119782EE93E0938382839B
:1049C0008091C3099091C409958384838091F21DDD
:1049D0009091F31D978386838091F41D9091F51D2E
:1049E00051CEADB7BEB718970FB6F894BEBF0FBE85
:1049F000ADBFEDB7FEB731961296FC92EE921197CD
:104A000089EC93E09383828380919D0990919E0924
:104A1000958384838091E31D8683178270CF00D0B5
:104A200000D0EDB7FEB73196ADB7BEB71296FC9287
:104A3000EE92119786EB93E0938382838091C50970
:104A40009091C60960CE00D000D0EDB7FEB7319688
:104A5000ADB7BEB71296FC92EE92119786EB93E03B
:104A6000938382838091C7099091C8094CCEADB7DA
:104A7000BEB718970FB6F894BEBF0FBEADBFEDB767
:104A8000FEB731961296FC92EE92119789EC93E064
:104A9000938382838091C9099091CA099583848305
:104AA0008091EF1D868317822ACF00D000D0EDB70A
:104AB000FEB73196ADB7BEB71296FC92EE92119743
:104AC00086EB93E093838283809195099091960978
:104AD0001ACEADB7BEB71A970FB6F894BEBF0FBEC9
:104AE000ADBFEDB7FEB731961296FC92EE921197DC
:104AF00080ED93E093838283809193099091940950
:104B0000958384838091D91D9091DA1D9783868344
:104B10008091E51D80871186B7CDADB7BEB71897D8
:104B20000FB6F894BEBF0FBEADBFEDB7FEB731965E
:104B30001296FC92EE92119789EC93E09383828314
:104B40008091910990919209958384838091DD1DD4
:104B500086831782D4CE00D000D0EDB7FEB7319651
:104B6000ADB7BEB71296FC92EE92119786EB93E02A
:104B7000938382838091C1099091C209C4CD00D0F2
:104B800000D0EDB7FEB73196ADB7BEB71296FC9226
:104B9000EE92119786EB93E0938382838091BD0917
:104BA0009091BE09B0CD00D000D0EDB7FEB73196E0
:104BB000ADB7BEB71296FC92EE92119786EB93E0DA
:104BC000938382838091BB099091BC099CCD809195
:104BD0001C1E90E0FC01EE0FFF1FEE0FFF1FEE0FFB
:104BE000FF1FE80FF91FE553F24E84A595A5892B09
:104BF00009F45BCDADB7BEB718970FB6F894BEBF3A
:104C00000FBEADBFEDB7FEB731961296FC92EE9295
:104C1000119789EF93E0938382838091D1099091DA
:104C2000D2099583848380911D1E3CCFADB7BEB75A
:104C30001A970FB6F894BEBF0FBEADBFEDB7FEB763
:104C400031961296FC92EE9211978BEB93E0938340
:104C500082838091850990918609958384838091D0
:104C6000D31D9091D41DA091D51DB091D61D8683E2
:104C70009783A087B18708CD00D000D0EDB7FEB7ED
:104C80003196ADB7BEB71296FC92EE92119786EBB5
:104C900093E093838283809183099091840933CD3B
:104CA00000D000D0EDB7FEB73196ADB7BEB71296C3
:104CB000FC92EE92119786EB93E09383828380912E
:104CC0008109909182091FCD00D000D0EDB7FEB7C9
:104CD0003196ADB7BEB71296FC92EE92119786EB65
:104CE00093E09383828380917F09909180090BCD1B
:104CF000A1E0B0E0EEE7F6E20C946F572C01CB0197
:104D000020E2298365E070E00E9426573B01EE24F3
:104D1000FF2400E010E0AA24BB24E0E22E2EEEE403
:104D20003E2E4E010894811C911CC1010197F1F7A0
:104D30006201CE0CDF1C8091D11D9091D21D0E948A
:104D40008516892BA9F08091D11D9091D21DB401B7
:104D50000E949E168981F60181936F010894E11CDF
:104D6000F11C0F5F1F4F0038110528F30E94DC2251
:104D70000894A11CB11C6A147B04B8F6E40CF51C61
:104D8000F70110828091CB1D9091CC1D63E074E0FF
:104D90000E942F1A8091CB1D9091CC1DB2010E94D0
:104DA0002F1A8091CB1D9091CC1D60E074E00E9481
:104DB0002F1AC8012196E2E10C948B57A1E8B0E0CC
:104DC000E4EEF6E20C946F572C018091050390916C
:104DD00006039A838983FE0133968EE7DF011D92D5
:104DE0008A95E9F7F201108219825E010894A11CEC
:104DF000B11CC5016EE170E00E9478269C0189819A
:104E0000882309F4A9C0232B09F4A6C085016624D0
:104E10007724CC24DD24EE24FF248824992491E0F7
:104E2000292E312C18C091E0C916D10409F4C0C054
:104E3000253409F478C00894E11CF11CF5010190B7
:104E40000020E9F73197EA19FB090F5F1F4FEE15B4
:104E5000FF0508F485C0F8012081322F2B3109F4B9
:104E60009DC0233509F492C0253439F080911E1E6F
:104E700090911F1E892B09F479C0C114D10499F6B1
:104E800080911E1E90911F1E029791F6432F405352
:104E900050911D1EA0911B1E70911C1EEFEFFDE195
:104EA00020E0632F6154832F8156CF57DF4F8883D3
:104EB000C158D040B9EADB2ED30EB32FB75390813F
:104EC0004A3060F4842F981779F0952F2F5F399628
:104ED000243081F0592F90814A30A0F3663008F0D9
:104EE0006FC08B2F981789F7A22F722F2F5F3996DB
:104EF000243081F790931D1EA0931B1E70931C1EDF
:104F00001092211E1092201EF201E80DF91D30832F
:104F10000894811C911CA1E0CA2ED12CD8012C919F
:104F2000253409F088CF80911E1E90911F1E81307C
:104F3000910509F080CF9093211E8093201E10923E
:104F40001F1E10921E1EBFEFB0931B1EF1E06F2EAE
:104F5000712CCC24DD246FCFD2011C9266247724DF
:104F6000C301CF57DF4FE2E10C948B57C50162E0DC
:104F700070E04AE20E94A4200197D1F1D8012C915F
:104F8000322F2B3159F0233509F077CF80911E1E37
:104F900090911F1E0197E9F033E56FCF30921F1EED
:104FA00020921E1E1092211E1092201E3BE165CF02
:104FB00080911E1E90911F1E029709F039CFA0CF3D
:104FC000CF57DF4F8881C158D040863078F080E0DD
:104FD0007ACFE2E0F0E0F0931F1EE0931E1E1092E5
:104FE000211E1092201E33E543E252CF8D2D6BCF50
:104FF00081E0682E712CC2CF8F929F92BF92CF9288
:10500000DF92EF92FF920F931F93DF93CF93CDB771
:10501000DEB7C058D0400FB6F894DEBF0FBECDBF8C
:10502000B82E83E08B1508F442C0CB2CDD2446015A
:10503000880C991C880C991C880C991C7401EC0C28
:10504000FD1CABECBDE1EA0EFB1EF70184A595A5A6
:105050000197039760F5B0921C1E84A980931D1ED2
:1050600080910503909106039A838983FE0133960C
:105070008EE7DF011D928A95E9F7198289E20E9485
:10508000FB228E010F5F1F4FC80168EE73E00E9484
:105090007826C80161E070E049E20E94A4208C01FA
:1050A00089E2B8010E945D1F01301105B1F020E0D6
:1050B00030E0C901C058DF4F0FB6F894DEBF0FBE15
:1050C000CDBFCF91DF911F910F91FF90EF90DF90B7
:1050D000CF90BF909F908F900895F70180A991A9DC
:1050E0009C01D901E1E7F3E088E001900D92815045
:1050F000E1F7F401EC0DFD1DE553F24E15A614A6E3
:1051000086E090E097A786A713AA12AA8FEF84AB38
:1051100050911C1E5B1561F080931D1E8FEF8093D4
:105120001B1E10921F1E10921E1E21E030E0C1CFE8
:10513000E7EFFDE120E030E0808191810297029766
:1051400038F02F5F3F4F399624303105A9F7E6CF6D
:105150005217B9F320931C1EF901EE0FFF1FEE0F3B
:10516000FF1FEE0FFF1FE20FF31FE553F24E84A95E
:1051700080931D1ED3CFA0E8B0E0E1ECF8E20C94E0
:105180007D57282F8430E8F590E0FC01EE0FFF1FDB
:10519000EE0FFF1FEE0FFF1FE80FF91FE553F24E52
:1051A00084A595A50197039760F520931C1E84A9FB
:1051B00080931D1E80910503909106039A83898335
:1051C000FE0133968EE7DF011D928A95E9F7198279
:1051D00085E20E94FB228E010F5F1F4FC8016CE227
:1051E00071E00E947826C80161E070E045E20E940B
:1051F000A4208C0185E2B8010E945D1F01301105D9
:1052000041F020E030E0C901C058DF4FE4E00C94E9
:10521000995710921F1E10921E1E21E030E0F3CF0E
:105220000F931F93CF93DF938091C91D882329F19A
:1052300080E590E09093251E8093241E86E0809365
:10524000261E80E090E06AE872E00E942F1A20910A
:10525000261EE7EFFDE1C0E0D0E080819181892B3F
:1052600011F42630A9F021963996C430D105A9F75A
:10527000DF91CF911F910F91089580E090E06BE254
:1052800074E00E942F1ADF91CF911F910F91089522
:105290002091241E3091251EC0931C1EFE01EE0F8E
:1052A000FF1FEE0FFF1FEE0FFF1FEC0FFD1FE5535B
:1052B000F24E86E090E097A786A733AB22AB01E0E1
:1052C00010E015A704A78C2F0E94BB28C093CA1D0D
:1052D00080E090E06FE074E00E942F1A1093560A6D
:1052E0000093550AC5CFA0E8B0E0E9E7F9E20C94D5
:1052F000795780910503909106039A838983FE0173
:1053000033968EE7DF011D928A95E9F78091CB1DD8
:105310009091CC1D6BE574E00E942F1A198280E0F9
:105320000E94FB227E010894E11CF11CC7016CE283
:1053300071E00E947826C7010E947022BC0180E0C3
:105340000E945D1F198280E00E94FB22C7016CE26F
:1053500071E00E947826C7010E9470228C0180E0D3
:10536000B8010E945D1F0130110509F47DC0CC24F5
:10537000DD24D394198281E00E94FB22C7016CE2F4
:1053800071E00E947826C7010E9470228C0181E0A2
:10539000B8010E945D1F0130110509F463C0D39468
:1053A00019828CE10E94FB22C7016CE271E00E942D
:1053B0007826C7010E9470228C018CE1B8010E94FE
:1053C0005D1F0130110509F44BC0D39419828BE0A5
:1053D0000E94FB22C7016CE271E00E947826C7019F
:1053E0000E9470228C018BE0B8010E945D1F013089
:1053F000110509F49BC0D394198289E10E94FB2214
:10540000C7016CE271E00E947826C7010E947022F9
:105410008C0189E1B8010E945D1F0130110541F145
:10542000D3948091DD1D9091DE1D029741F1CC2037
:10543000A1F0DD2079F401E010E0C8010E94DA1E3D
:105440001093D81D0093D71DC801C058DF4FE8E066
:105450000C94955702E010E0F0CF00E010E0EDCFA3
:10546000C394B4CFC3949CCFCC24C394DD2482CF07
:10547000C3948091DD1D9091DE1D0297C1F61982C3
:105480008BE10E94FB22C7016CE271E00E9478264A
:10549000C7010E9470228C018BE1B8010E945D1F40
:1054A0000130110509F444C0D394198289E00E94A7
:1054B000FB22C7016CE271E00E947826C7010E94BE
:1054C00070228C0189E0B8010E945D1F0130110536
:1054D00099F1D39419828AE00E94FB22C7016CEDF6
:1054E00075E00E947826C7010E9470228C018AE034
:1054F000B8010E945D1F01301105E1F0D3941982BB
:105500008DE10E94FB22C7016CE271E00E947826C7
:10551000C7010E9470228C018DE1B8010E945D1FBD
:105520000130110509F485CFD39481CFC39464CFA2
:10553000C394BBCFC394E3CFC394CCCFEF92FF927D
:105540001F93CF93DF931092CC1D1092CB1D20E8B8
:1055500035E240E050E02093CD1D3093CE1D4093C6
:10556000CF1D5093D01D82E090E09093D21D809388
:10557000D11D2093D31D3093D41D4093D51D50933E
:10558000D61D1092D81D1092D71D80E890E00E9481
:1055900082348093D91D9093DA1DDC01EBE8F4E0AE
:1055A00089E001900D928150E1F780E890E00E943F
:1055B00082348093DB1D9093DC1DDC01E4E9F4E090
:1055C00089E001900D928150E1F782E090E09093A4
:1055D000DE1D8093DD1D1092E01D1092DF1D84E022
:1055E00090E09093E21D8093E11D1092E41D1092D3
:1055F000E31D8BE090E09093E61D8093E51D8FE026
:1056000090E00E9482348093E71D9093E81DDC01B6
:10561000EDE9F4E08CE001900D928150E1F78FE02C
:1056200090E00E9482348093E91D9093EA1DDC0192
:10563000E9EAF4E08EE001900D928150E1F78FE00D
:1056400090E00E9482348093EB1D9093EC1DDC016E
:10565000EDE9F4E08CE001900D928150E1F786E0F5
:1056600090E09093EE1D8093ED1D80E590E0909387
:10567000F01D8093EF1D81E08093F11D87EB94E096
:105680009093F31D8093F21D8DEB94E09093F51DA4
:105690008093F41D10921F1E10921E1E8FEF809398
:1056A000F61DC7EFDDE1E6E0EE2EF12C1FEF8FE0F7
:1056B00090E00E9482348C839D83DC01E1E7F3E07B
:1056C00088E001900D928150E1F719821882FB82E7
:1056D000EA821F821E82188729968EE1CB31D80775
:1056E00031F7188319831A8310921F1E10921E1E01
:1056F00081E090E09E838D83DF91CF911F91FF9099
:10570000EF9008956F927F928F929F92AF92BF9287
:10571000CF92DF92EF92FF920F931F934C015A01A9
:105720006B0139010E949E2A9092D21D8092D11D58
:10573000A092D31DB092D41DC092D51DD092D61D7B
:105740007092CC1D6092CB1DE092CD1DF092CE1DCB
:105750000093CF1D1093D01D1F910F91FF90EF90DC
:10576000DF90CF90BF90AF909F908F907F906F9081
:105770000895EF92FF920F931F937B018C0180910C
:10578000F21D9091F31DB7010E9437088091F41D1E
:105790009091F51DB8010E9437081F910F91FF905D
:1057A000EF900895BC018091D91D9091DA1D0E945F
:1057B00037080895AEE0B0E0E0EEFBE20C947357DA
:1057C000C982DA82EB82FC820D831E832F833887A5
:1057D00049875A876B877C878D879E870B811C81C1
:1057E000ED80FE80CF80D884A984BA848B849C8489
:1057F0006D847E8469817A818091D91D9091DA1DB2
:105800000E9437088091DB1D9091DC1DB8010E9439
:105810003708F092DE1DE092DD1DD092E01DC092AF
:10582000DF1DB092E21DA092E11D9092E41D8092D6
:10583000E31D7092E61D6092E51D2E96EEE00C943D
:105840008F57A6E0B0E0E7E2FCE20C947B57498377
:105850005A836B837C838D839E830B811C81ED80B7
:10586000FE8069817A818091E71D9091E81D0E94F8
:1058700037088091E91D9091EA1DB8010E94370810
:105880008091EB1D9091EC1DB7010E943708269680
:10589000E6E00C9497570F931F93CF93DF93382F25
:1058A0002091C91D222389F18091AB1D831711F12D
:1058B000EEEAFDE190E004C0808133968317D1F0D9
:1058C0009F5F9217C8F32B3000F180E090E06CE20C
:1058D00075E00E942F1A20E533EC40E951E0CA013F
:1058E0000197F1F721503040D1F7DF91CF911F910F
:1058F0000F91089580E090E063EC74E00E942F1A0D
:10590000DF91CF911F910F910895422F50E08A01AE
:10591000000F111FE801C40FD51FCB55D24E3E8397
:10592000DB010D900020E9F71197A61BB70BA832F9
:10593000B105A8F4FB018081882381F5F801E40F0B
:10594000F51FEB55F24E27813085C901DC01EEEFE2
:10595000F4E08EE001900D928150E1F70AC0FB0166
:105960008081882359F38F81988548E250E00E9416
:105970005C088091C91D8F5F8093C91D8B3018F022
:105980008AE08093C91D80E090E06CE075E00E94A1
:105990002F1ADF91CF911F910F9108958F819885D4
:1059A000AD010E945C08E5CF8F929F92AF92BF92AB
:1059B000CF92DF92FF920F931F93CF93DF936C01EF
:1059C0005B014A0180E890E00E948234FC019093E0
:1059D000A61D8093A51D108280E890E00E9482346D
:1059E000FC019093A81D8093A71D10821092AA1D00
:1059F0001092A91DCBEADDE1A0E2FA2E00E210E050
:105A0000F88288E290E00E948234FC019A838983C4
:105A10001183008323968DE1C93CD80789F718824A
:105A20008AE090E00E948234FC019093231E8093D0
:105A3000221E1082E2E08E16910408F475C01092C6
:105A4000AA1D1092A91DD6010D900020E9F711970B
:105A5000AC19BD09A038B10598F4F60180818823FE
:105A600009F067C08091A51D9091A61D9C01D901E8
:105A7000E0E6F5E080E101900D928150E1F70DC084
:105A8000F6018081882371F38091A51D9091A61D58
:105A9000B60140E850E00E945C08D5010D9000205E
:105AA000E9F71197AA19BB09A038B10578F5F501F6
:105AB0008081882309F046C08091A71D9091A81D80
:105AC0009C01D901E0E7F5E08DE001900D92815055
:105AD000E1F71092C91DE091221EF091231E108261
