:100000000C9446030C9468030C9468030C946803E6
:100010000C9468030C9468030C9468030C946803B4
:100020000C9468030C9468030C9468030C946803A4
:100030000C9468030C9468030C9468030C94680394
:100040000C9468030C9468030C9468030C94680384
:100050000C9468030C9468030C9468030C94680374
:100060000C9468030C949C3A0C949B3B0C9468038E
:100070000C9468030C9468030C9468030C94680354
:100080000C9490330C9468030C9468030C949811AE
:100090000C94733A0C94723B0C9468030C947E128B
:1000A0000C9468030C94F50C0C9468030C9468038E
:1000B0000C9468030C94AB0C0C94800D0C946803A6
:1000C0000C9468030C9468030C94D00C0C944A3A7A
:1000D0000C94493B0C9468030C94213A0C94203BFB
:1000E0000C946803DC1295129512951295129512D4
:1000F00095129512DC129512951295129512951281
:1001000095129512DE12951295129512951295126E
:100110009512951216139512951295129512951225
:1001200095129512DE12951295129512951295124E
:100130009512951216139512951295129512951205
:10014000951295121E1395129512951295129512ED
:10015000951295124E1395129512951295129512AD
:100160009512951295129512951295129512951257
:1001700095129512C4129512951295129512951218
:1001800095129512051395129512951295129512C6
:10019000951295124B139512951295129512951270
:1001A000951295124B139512951295129512951260
:1001B0009512951236139512951295129512951265
:1001C0009512951236139512951295129512951255
:1001D00095129512AF1295129512951295129512CD
:1001E00095129512D8129512951295129512951294
:1001F00095129512AF1295129512951295129512AD
:1002000095129512D8129512951295129512951273
:100210009512951222139512951295129512951218
:1002200095129512F3129512951295129512951238
:1002300095129512F3129512951295129512951228
:1002400095129512F5129512951295129512951216
:1002500095129512281395129512951295129512D2
:1002600095129512C0120D0A0A0A476F6F646279DF
:10027000652E2E2E206E6F20737061636520666F71
:10028000722069646C65207461736B210D0A000D26
:100290000A0A0A48656C6C6F20576F726C64210DF6
:1002A0000A006E616E00696E660000407A10F35AB3
:1002B00000A0724E18090010A5D4E80000E87648A6
:1002C000170000E40B54020000CA9A3B000000E152
:1002D000F505000080969800000040420F000000E5
:1002E000A08601000000102700000000E8030000C5
:1002F00000006400000000000A000000000001008F
:10030000000000002C76D888DC674F0823DFC1DFAF
:10031000AE59E1B1B796E5E3E453C63AE6519976B2
:1003200096E8E6C28426EB898C9B62ED407C6FFCEC
:10033000EFBC9C9F40F2BAA56FA5F490055A2AF72E
:100340005C936B6CF9676DC11BFCE0E40D47FEF537
:1003500020E6B500D0ED902E03009435770500809F
:10036000841E080000204E0A000000C80C333333FE
:10037000330F986E12831141EF8D2114893BE6559E
:1003800016CFFEE6DB18D1844B381BF77C1D901D81
:10039000A4BBE424203284725E228100C9F124ECE3
:1003A000A1E53D27A0E0B0E0E8EDF1E00C94623F6C
:1003B000E9E0CE2EAA24A39488248A94982C77244A
:1003C000739405C00F900FBEBB2009F05FC08091F1
:1003D0002503882309F480C080911A038F5F8093DE
:1003E0001A03B0906A030FB6F8940F9280911A0323
:1003F000815080931A0380911A03882319F7809102
:1004000014038823F9F280916103882371F1E0914C
:100410006603F0916703C681D781CE010C960E94D6
:10042000D5358E010E5F1F4FC8010E94D5359E89BC
:1004300080911503891718F4909315039E899C9D4C
:10044000C0011124895D9C4FB8010E948435E09160
:100450001203F09113039E8986899817A0F2A09247
:10046000160380916103882391F6809123038823EA
:1004700009F04DC080911603813009F0A3CF0E948E
:1004800093330F900FBEBB2009F4A1CF0FB6F894A1
:100490000F92E0916F03F091700306811781C801FC
:1004A00002960E94D53580911403815080931403E5
:1004B000809125038150809325030F900FBEF80192
:1004C0008789908D0E94FF33C8010E94FF3380917D
:1004D0002503882309F080CF80912703823008F418
:1004E00076CF0E94933373CF809123038F5F8093E5
:1004F0002303DD2480911603882309F095C0DD20B5
:1005000009F092C08091230381508093230380914E
:100510002303882309F4AECF80911A03882321F79F
:10052000809117039091180301969093180380937C
:100530001703E0901703F0901803E114F10409F594
:1005400020915D0330915E0380915F039091600381
:1005500090935E0380935D033093600320935F0369
:10056000809119038F5F80931903E0915D03F091EF
:100570005E038081882309F073C0909262028092AA
:1005800061028091610290916202E816F90608F416
:100590004EC0DD24E0915D03F0915E0380818823ED
:1005A000F1F1E0915D03F0915E030580F681E02DAD
:1005B000C681D7818A819B81E816F90608F461C05B
:1005C0008E010E5F1F4FC8010E94D5358C899D8911
:1005D000892B21F0CE010C960E94D5359E89809101
:1005E0001503891718F4909315039E899C9DC001EB
:1005F0001124895D9C4FB8010E948435E09112035B
:10060000F09113039E898689981720F2DD24D394F4
:10061000E0915D03F0915E038081882311F6909252
:1006200062028092610204C0709216036BCFDD24D7
:10063000E0911203F0911303868990E0FC01EE0F24
:10064000FF1FEE0FFF1FEE0FFF1FE80FF91FE95D01
:10065000FC4F8081823008F44DCFDD24D3944ACF03
:10066000E0915D03F0915E030580F681E02D068048
:10067000F781E02D828193819093620280936102E1
:1006800080CF9093620280936102D2CF11241FBE6B
:10069000CFEFD1E2DEBFCDBF00E00CBF12E0A0E0A3
:1006A000B2E0E0E6FFE700E00BBF02C007900D926A
:1006B000AC3DB107D9F71BBE16E1ACEDB2E001C00D
:1006C0001D92AD33B107E1F70E945D0B0C94AE3F74
:1006D0000C9400008F938FB78F93F8948091C51579
:1006E0008F5F8093C5158091C6158F4F8093C61577
:1006F0008091C7158F4F8093C7158091C8158F4F74
:100700008093C8158F918FBF8F910895A1E1B0E0BC
:10071000ECE8F3E00C945D3F3C017F876E876A0153
:10072000FC0117821682838181FD03C06FEF7FEF8A
:1007300071C39E012F5F3F4F398B288BF3012381BB
:10074000EE85FF8523FD859123FF8191FF87EE874D
:10075000882309F45CC3853251F4EE85FF8523FDBF
:10076000859123FF8191FF87EE87853229F490E000
:10077000B3010E941608E2CF982F10E08824992434
:100780001032B0F49B3269F09C3228F4903251F070
:10079000933271F40BC09D3239F0903349F41160FB
:1007A00028C01260146025C0186023C0106121C0E9
:1007B00017FD2AC0892F80538A3078F416FF06C0AF
:1007C000FAE09F9E902C1124980E13C03AE0839E6D
:1007D000802C1124880E10620CC09E3221F416FD6C
:1007E00016C3106406C09C3611F4106802C0983617
:1007F00059F4EE85FF8523FD959123FF9191FF87A5
:10080000EE87992309F0BCCF892F8554833020F4DB
:10081000812F8061905E07C0892F8556833008F054
:10082000A1C1812F8F7E86FD02C076E0972E6FE3F7
:10083000F62EF822953619F4F0E4FF2A07C0963612
:1008400019F420E8F22A02C091109A94F7FE0BC026
:100850003BE3391520F427E05CE3B52E0EC0B92C3C
:10086000B39427E00AC047E0491528F427E0BB24E9
:1008700047E0942E02C0292DBB24C60104969D8713
:100880008C87F6016081718182819381AE014F5F17
:100890005F4F0B2D0E940F076C010981202E33241E
:1008A00000FF04C003FD02C01DE209C0F1FE02C04A
:1008B0001BE205C0F2FC02C010E001C010E2C10161
:1008C0008C709070892BB9F1112311F483E001C071
:1008D00084E0881510F088240AC0881AF3FC07C049
:1008E00080E290E0B3010E9416088A94C9F71123B0
:1008F00029F0812F90E0B3010E94160823FE03C067
:1009000002EA12E00EC006EA12E00BC0E114F104A4
:1009100009F0805290E0B3010E9416080F5F1F4F4C
:1009200005C0EF2CFF24F0E1EF22FF24F8018491B1
:10093000882361F714C1F7FE12C0BC0C24FE04C06A
:100940008A81813309F4BA941B141CF0BB24B3943C
:100950002DC0F8E0FB1550F538E0B32E27C0F6FCAB
:1009600025C0892D90E08C159D054CF02CEFC2160A
:100970002FEFD20624F030E8F32A01C09A94992090
:1009800049F0E2E0F0E0EC0FFD1FE90DF11D808180
:100990008033A1F3F7FE0AC0B92CB394892D90E0FF
:1009A000C816D90614F0992401C09C18F7FC03C09E
:1009B00025E030E009C01C141D041CF021E030E0EB
:1009C00003C096012F5F3F4F112311F02F5F3F4F60
:1009D000992029F0892D90E00196280F391F882D44
:1009E00090E02817390714F0882401C0821A4F2C90
:1009F0005524C20189709070892B39F008C080E2BB
:100A000090E0B3010E9416088A948820C1F7112350
:100A100029F0812F90E0B3010E94160843FE07C021
:100A200008C080E390E0B3010E9416088A948820F1
:100A3000C1F7F7FE46C08601D7FE02C000E010E015
:100A400076010894E11CF11CE01AF10A41E050E043
:100A50004C0F5D1FE40EF51E26014B185108892D21
:100A600090E0AA24BB24A81AB90A5FEF0F3F15072C
:100A700029F48EE290E0B3010E941608C016D10658
:100A800034F0401651061CF4F701808101C080E368
:100A9000015010400894E11CF11C0A151B052CF0B4
:100AA00090E0B3010E941608E0CF0C151D0539F443
:100AB0009A81963318F4953311F424FE81E390E083
:100AC0004BC08A81813309F00F7E90E0B3010E9410
:100AD00016089920A1F08EE290E0B3010E9416085A
:100AE00012E0E1E0F0E0EC0FFD1FE10FF11D1F5FF0
:100AF000808190E0B3010E9416089A9491F744FC1B
:100B000003C085E690E002C085E490E0B3010E9456
:100B10001608D7FC05C0C114D10441F404FF06C077
:100B2000D094C194D108D3948DE201C08BE290E0BF
:100B3000B3010E94160880E305C08F5F26EF3FEFE8
:100B4000C20ED31E3AE0C316D104BCF790E0B30145
:100B50000E941608C601C096B3010E941608CC84F4
:100B6000DD8452C1933631F0933799F0933509F013
:100B700059C023C0F601808189835E010894A11CBD
:100B8000B11C22E030E0C20ED31E21E0E22EF12C97
:100B900012C0F601A080B18016FD03C06FEF7FEF99
:100BA00002C0692D70E022E030E0C20ED31EC50104
:100BB0000E940B087C011F7713C0F601A080B18052
:100BC00016FD03C06FEF7FEF02C0692D70E022E0D9
:100BD00030E0C20ED31EC5010E94F0077C011068F0
:100BE00013FF07C01BC080E290E0B3010E9416080B
:100BF0008A94882D90E0E816F906A8F30FC0F50155
:100C000017FD859117FF81915F0190E0B3010E946C
:100C1000160881108A940894E108F108E114F1049F
:100C200071F7F2C0943611F0993689F517FF08C0B4
:100C3000F601208131814281538184E090E00AC035
:100C4000F601808191819C01442737FD4095542F06
:100C500082E090E0C80ED91E9FE6F92EF12257FFE0
:100C600009C050954095309521953F4F4F4F5F4FAC
:100C700090E8F92ACA01B901AE014F5F5F4F2AE03F
:100C800030E00E94BA08E82EE889EE1A41C0953794
:100C900021F41F7E2AE030E01CC0197F9F3661F0EE
:100CA000903720F4983509F0B2C00FC0903739F072
:100CB000983709F0ACC004C028E030E00AC01061E9
:100CC00014FD146020E130E004C014FD166020E142
:100CD00032E017FF08C0F601608171818281938143
:100CE00044E050E008C0F60180819181BC0180E0C1
:100CF00090E042E050E0C40ED51EAE014F5F5F4F62
:100D00000E94BA08E82E5889E51A8FE7F82EF122DA
:100D1000F6FE0BC08EEFF822E91438F4F4FE07C09B
:100D2000F2FC05C09FEEF92202C01E2D01C0192D54
:100D3000F4FE0DC0FE01EE0DF11D8081803319F42B
:100D4000E9EEFE2208C01F5FF2FE05C003C08F2D32
:100D5000867809F01F5F0F2DF3FC14C0F0FE0FC062
:100D6000181510F09E2C0BC09E2C980C911A182D63
:100D700006C080E290E0B3010E9416081F5F1815BC
:100D8000C0F304C0181510F4811A01C0882404FFB0
:100D90000FC080E390E0B3010E94160802FF1DC05F
:100DA00001FD03C088E790E00EC088E590E00BC02D
:100DB000802F867891F001FF02C08BE201C080E2B3
:100DC000F7FC8DE290E0B3010E94160806C080E3B4
:100DD00090E0B3010E9416089A94E914C0F3EA94D3
:100DE000E1E0F0E0EC0FFD1FEE0DF11D808190E0E1
:100DF000B3010E941608EE2091F706C080E290E051
:100E0000B3010E9416088A948820C1F797CCF30199
:100E100066817781CB016196E2E10C94793F2830BD
:100E200008F027E03327DA01990F311D87FD916023
:100E300000966105710539F432602E5F3D9330E311
:100E40002A95E1F708959F3F30F0803871056105DC
:100E500009F03C5F3C5F3D93913008F08068911D44
:100E6000DF93CF931F930F93FF92EF92192F987FE9
:100E70009695E92F96959695E90FFF27EC5FFC4F25
:100E800099273327EE24FF24A701E7010590089452
:100E9000079428F4360FE71EF81E491F511D660FF0
:100EA000771F881F991F0694A1F70590079428F4CF
:100EB000E70EF81E491F561FC11D770F881F991F87
:100EC000661F0694A1F70590079428F4F80E491FB1
:100ED000561FC71FD11D880F991F661F771F0694C5
:100EE000A1F70590079420F4490F561FC71FD81F7C
:100EF000990F661F771F881F0694A9F78491109594
:100F0000177041F0D695C79557954795F794E79494
:100F10001A95C1F7EAEAF2E06894159015913591B7
:100F20006591959105907FE27395E118F10A430B65
:100F3000560BC90BD009C0F7E10CF11E431F561F19
:100F4000C91FD01D7EF4703311F48A95E6CFE89462
:100F5000015030F0080F0AF40027021708F4202F80
:100F60002395022F7A3328F079E37D932A95E9F7C8
:100F700010C07D932A9589F60694979567953795C5
:100F800017951794E118F10A430B560BC90BD009BA
:100F900098F023957E9173957A3308F070E37C93F3
:100FA0002013B8F77E9170617D9330F0839571E3E3
:100FB0007D9370E32A95E1F71124EF90FF900F9154
:100FC0001F91CF91DF91992787FD90950895FC019E
:100FD00005900020E9F7809590958E0F9F1F08954A
:100FE000FC010590615070400110D8F780959095F4
:100FF0008E0F9F1F0895FB01DC0102C001900D922E
:1010000041505040D8F70895DC0101C06D93415024
:101010005040E0F70895FC016150704001900110CC
:10102000D8F7809590958E0F9F1F08950F931F936B
:10103000CF93DF938C01EB018B8181FF1BC082FF7B
:101040000DC02E813F818C819D812817390764F462
:10105000E881F9810193F983E88306C0E885F98581
:10106000802F1995892B31F48E819F8101969F8362
:101070008E8302C00FEF1FEFC801DF91CF911F9148
:101080000F910895AEE0B0E0E8E4F8E00C946B3F17
:101090000E891F8986E08C831A8309838FEF9FE76F
:1010A0009E838D839E01265E3F4FCE010196688D03
:1010B000798DA9010E9486032F813885020F131FA5
:1010C000F80110822E96E4E00C94873FAEE0B0E089
:1010D000ECE6F8E00C946B3F8C0177FF02C060E017
:1010E00070E8615070407E836D831A83098386E0C7
:1010F0008C83CE010196BA01A9010E9486032D813D
:101100003E8137FD09C0EF81F8852E173F070CF4AB
:10111000F901E00FF11F10822E96E4E00C94873F56
:10112000AEE0B0E0E6E9F8E00C946B3F8C0177FFAD
:1011300002C060E070E8615070407E836D831A8366
:1011400009838EE08C83CE010196BA01A9010E9429
:1011500086032D813E8137FD09C0EF81F8852E176A
:101160003F070CF4F901E00FF11F10822E96E4E026
:101170000C94873FFA01AA27283051F1203181F1E0
:10118000E8946F936E7F6E5F7F4F8F4F9F4FAF4F8F
:10119000B1E03ED0B4E03CD0670F781F891F9A1FA2
:1011A000A11D680F791F8A1F911DA11D6A0F711D56
:1011B000811D911DA11D20D009F468943F912AE062
:1011C000269F11243019305D3193DEF6CF0108954A
:1011D000462F4770405D4193B3E00FD0C9F7F6CF7B
:1011E000462F4F70405D4A3318F0495D31FD405243
:1011F000419302D0A9F7EACFB4E0A69597958795D9
:1012000077956795BA95C9F70097610571050895B7
:101210009B01AC010A2E0694579547953795279563
:10122000BA95C9F7620F731F841F951FA01D0895FB
:10123000A0E0B0E0EEE1F9E00C94673FC0908915C2
:10124000D0908A15C60164E670E00E94283FEC0148
:101250000097D9F4C114D10409F055C0109291152A
:101260000F2EF0E0EF2EF0E0FF2EF0E00F2FF0E079
:101270001F2FF02DC801B7012FE832EC45EF5DE3D9
:101280000E94C43710928D1521C010929115BE0195
:10129000882777FD8095982F0E9410377B018C015D
:1012A0002AE037ED43EA5CE30E94C43720E030E0F7
:1012B00040E050E00E9471368823E1F2C801B70196
:1012C0002FE832EC45EF5DE30E94C43720E030E0C8
:1012D00040E050E00E947136882311F410928E1580
:1012E000CD2B29F4C114D10411F010929215089459
:1012F000C11CD11CD0928A15C0928915CDB7DEB71A
:10130000E8E00C94833F80918B1590918C1584308C
:10131000910561F0019690938C1580938B15109236
:10132000911560E070E080E090E0ACCF10929115F4
:1013300060E070E080E090E0A5CF0E941809089579
:1013400080918B1590918C15009761F081309105FB
:10135000A9F00297029760F081E061E041E00E940D
:10136000420B089580E061E040E00E94420B089546
:1013700080E060E041E00E94420B089581E060E07F
:1013800040E00E94420B0895A0E2B0E0EAECF9E0F0
:101390000C94653F80918E15882309F082C00E94CD
:1013A000111119821A821B821C828CE0FE01359673
:1013B000DF01282F1D922A95E9F7198A1A8A1B8ABC
:1013C0001C8AFE017596DF011D928A95E9F70E943D
:1013D000D30E7B018C010E94EC0E2DB73EB72C5032
:1013E00030400FB6F8943EBF0FBE2DBFEDB7FEB72D
:1013F000319621E1A22EB12CAC0EBD1EADB7BEB709
:101400001296BC92AE92119720E032E03383228391
:10141000E482F582068317836087718782879387CA
:101420000E9442082DB73EB7245F3F4F0FB6F89495
:101430003EBF0FBE2DBF0E9402116C010E9407111A
:101440007C010E940C11ADB7BEB71A970FB6F89485
:10145000BEBF0FBEADBFEDB7FEB731968E010F5FB9
:101460001F4F12961C930E93119720E132E03383A5
:101470002283D582C482F782E682918780870E9488
:1014800042082DB73EB7265F3F4F0FB6F8943EBFD8
:101490000FBE2DBFC801B5010E94F70A81E08093FD
:1014A0008E15A096EAE00C94813F80918B15909167
:1014B0008C150497D1F0809192158823D1F48091F6
:1014C0008F15909190150397A9F083E090E0909389
:1014D000901580938F1580918F15909190150E9493
:1014E0009F0F81E080939215089585E090E00E941F
:1014F0009F0F089582E090E09093901580938F1550
:10150000EACF80919115811108950E945E0F81E0CC
:1015100080939115089580918D158823A9F4809169
:101520008B1590918C15009781F081309105B9F061
:1015300082309105C9F0039769F084E090E00E9441
:10154000D10F81E080938D15089580E090E00E9496
:10155000D10FF7CF82E090E00E94D10FF2CF81E06F
:1015600090E00E94D10FEDCF83E090E00E94D10F78
:10157000E8CF0E94B8190E94810A0E948B0A0E943B
:10158000550A0E94C4090E94A009F5CF0E94330B9E
:101590000E9479110E94180B0E94CB108DE999E0EE
:1015A0000E947D1110928C1510928B1510928A1545
:1015B000109289151092911510928E151092921515
:1015C00010928D1583E090E09093901580938F1585
:1015D00008951F93182F81E090E06EEF0E942A3843
:1015E00081E090E0612F0E942A381F910895EF92C8
:1015F000FF920F931F938C017B0181E090E00E948A
:10160000E90A80E890E00E94E90A81E090E0B801F0
:101610000E94E13C80EC90E00E94E90A81E090E0C9
:10162000B7010E94E13C1F910F91FF90EF90089548
:101630000F931F9381E090E040E855E260E070E096
:101640002FEF30E000E410E00E94443E539A5B9A92
:101650008CE090E00E94E90A81E090E00E94E90AB3
:101660001F910F910895E1E0F1E08081886080830F
:101670006B9A6D9AE2E0F1E0808188608083739AD2
:10168000759A0895882361F080910201877F809385
:101690000201662361F07398442361F4759A0895FA
:1016A000809102018860809302016623A1F7739AFA
:1016B0004423A1F375980895FFCFAF92BF92CF92C4
:1016C000DF92EF92FF920F931F9380E090E040E053
:1016D00052EC61E070E02FEF30E000E410E00E9497
:1016E000443E90939415809393158FE892E00E9466
:1016F000333C0E94C60A89EB9AE06FE172E040E059
:1017000051E020E030E003E0EE24FF24CC24DD248F
:10171000AA24BB240E9413300E94183186E692E06E
:101720000E94333C80E090E01F910F91FF90EF907A
:10173000DF90CF90BF90AF9008959C01DC01AA0F7D
:10174000BB1FAC01440F551F440F551F440F551FBD
:10175000FD01E40FF51FE354FD4F0190F081E02DF2
:10176000808191818C54944085579E4020F080E583
:101770009AE091838083F901EE0FFF1FEE0FFF1FA8
:10178000E20FF31FEE0FFF1FE154FD4F0190F081B8
:10179000E02DA40FB51FA354BD4F14964D915C913D
:1017A0001597208181E090E016960C90169702C064
:1017B000880F991F0A94E2F7282B2083FA012081D1
:1017C0008095822380831896ED91FC91199700846F
:1017D000F185E02D20811796AC91A13069F0A13000
:1017E00030F480E89FEB822B892380830895A23018
:1017F000E9F788E09BEFF7CF80E29FEEF4CFCF933D
:10180000DF93FC01EE0FFF1FEE0FFF1FE80FF91F24
:10181000EE0FFF1FE154FD4F40815181DC01AA0F03
:10182000BB1FAA0FBB1FAA0FBB1F880F991FA80FB2
:10183000B91FA354BD4F1496ED91FC911597EA0181
:10184000288181E090E016960C90169702C0880FD0
:10185000991F0A94E2F7282B288320818095822300
:1018600080831896ED91FC9119970084F185E02D05
:10187000908117968C91813069F0813030F48FE33C
:1018800089238083DF91CF910895823029F0DF9101
:10189000CF9108958FECF4CF83EFF2CF9C01CB0171
:1018A0008C54944085579E4098F4C901F901EE0F7D
:1018B000FF1FEE0FFF1FEE0FFF1F880F991FE80F8E
:1018C000F91FE354FD4F0190F081E02D7183608397
:1018D00008959C01FC01EE0FFF1FEE0FFF1FEE0F9E
:1018E000FF1F220F331FE20FF31FE354FD4F019040
:1018F000F081E02D20813181C9010895CF93DF93DC
:10190000DC01EB01F894FC01EE0FFF1FE051FD4FED
:1019100080819181019739F020E030E07894C9010D
:10192000DF91CF910895AA0FBB1FAA0FBB1FA8512B
:10193000BD4F8D919D910D90BC91A02D8883998371
:10194000AA83BB831182108221E030E07894C90120
:10195000DF91CF9108951F920F920FB60F9211242D
:101960008F939F93AF93BF938091DC029091DD02A0
:10197000A091DE02B091DF020196A11DB11D8093FE
:10198000DC029093DD02A093DE02B093DF02BF91F0
:10199000AF919F918F910F900FBE0F901F90189550
:1019A0001F920F920FB60F9211248F939F93AF93B4
:1019B000BF938091E0029091E102A091E202B09188
:1019C000E3020196A11DB11D8093E0029093E10214
:1019D000A093E202B093E302BF91AF919F918F91E8
:1019E0000F900FBE0F901F9018951F920F920FB679
:1019F0000F920BB60F921124EF92FF920F931F9349
:101A00002F933F934F935F936F937F938F939F9306
:101A1000AF93BF93CF93DF93EF93FF93E0919D023A
:101A2000F0919E02808180628083E091A302F09118
:101A3000A402C081D1812091DC023091DD0240916D
:101A4000DE025091DF021092DC021092DD02109251
:101A5000DE021092DF02211531054105510509F41E
:101A600044C08091E4029091E5027E0100E010E024
:101A7000A0E0B0E0E81AF90A0A0B1B0BCA01B90191
:101A80002FE33CE940E050E00E94093FE60EF71EDC
:101A9000081F191FE092E802F092E9020093EA029F
:101AA0001093EB0281E090E09093F1028093F002BA
:101AB000D093E502C093E402FF91EF91DF91CF91C3
:101AC000BF91AF919F918F917F916F915F914F9156
:101AD0003F912F911F910F91FF90EF900F900BBEB0
:101AE0000F900FBE0F901F9018958091E402909177
:101AF000E5029E01281B390B790100E010E0CACFF6
:101B00001F920F920FB60F920BB60F921124EF9205
:101B1000FF920F931F932F933F934F935F936F9376
:101B20007F938F939F93AF93BF93CF93DF93EF9365
:101B3000FF93A0919B02B0919C02ED91FC911197B3
:101B40008081806280831696ED91FC911797C08109
:101B5000D1812091E0023091E1024091E202509166
:101B6000E3021092E0021092E1021092E20210925F
:101B7000E302211531054105510509F444C0809166
:101B8000E6029091E7027E0100E010E0A0E0B0E004
:101B9000E81AF90A0A0B1B0BCA01B9012FE33CE949
:101BA00040E050E00E94093FE60EF71E081F191F93
:101BB000E092EC02F092ED020093EE021093EF023D
:101BC00081E090E09093F3028093F202D093E702D9
:101BD000C093E602FF91EF91DF91CF91BF91AF915A
:101BE0009F918F917F916F915F914F913F912F9135
:101BF0001F910F91FF90EF900F900BBE0F900FBEB3
:101C00000F901F9018958091E6029091E7029E0137
:101C1000281B390B790100E010E0CACF8091A000A9
:101C20008F738093A0008091A0008F7C8093A00090
:101C30008091A000837F8093A0008091A00090916C
:101C4000A100836098618093A0009093A10080918F
:101C5000A10082608A7F8093A1002EE33CE930934B
:101C6000A9002093A800809120018F738093200108
:101C7000809120018F7C8093200180912001837FBF
:101C800080932001809120019091210183609861CF
:101C900080932001909321018091210182608A7FAD
:101CA0008093210130932901209328011092E502AD
:101CB0001092E4021092DC021092DD021092DE0219
:101CC0001092DF0280910A018E7F80930A01809139
:101CD0000B018E7F80930B01E0919F02F091A00297
:101CE000808180628083808181608083E091A7020F
:101CF000F091A8028081806480831092E7021092A4
:101D0000E6021092E0021092E1021092E2021092BA
:101D1000E30280910A018D7F80930A0180910B017B
:101D20008D7F80930B01A0919B02B0919C02129633
:101D3000ED91FC9113978081806280831296ED91E2
:101D4000FC9113978081816080831A96ED91FC91BC
:101D50001B978081806480830895882391F4CB0150
:101D6000BA0120E030E840EC54EC0E94C43720E097
:101D700030E045E255E40E940D360E94DD36CB018D
:101D80000895CB01BA0120E030E047E055E40E941D
:101D9000C43720E030E045E255E40E940D360E9451
:101DA000DD36CB0108956091A5157091A61580913F
:101DB000A7159091A8152091A9153091AA154091C9
:101DC000AB155091AC150E940D3620E030E040E09C
:101DD0005FE30E94C4370895609195157091961540
:101DE00080919715909198152091991530919A1599
:101DF00040919B1550919C150E940D3620E030E0DB
:101E000040E05FE30E94C4370895CF92DF92EF92E3
:101E1000FF920F931F938C01F42EE52ED62EC72E22
:101E200060E070E00E947E0C019769F12F2D3E2D3D
:101E30004D2D5C2DC901DA016C017D01000F111FD0
:101E4000000F111F0B561A4EC701B60120E030E0FB
:101E500048EC52E40E9475369B01AC01F8016081A8
:101E60007181828193810E940D36F80160837183B4
:101E700082839383B601C7011F910F91FF90EF906A
:101E8000DF90CF90089560910000709101008091E3
:101E90000200909103000E940E372DEB37E346E0DD
:101EA00055E30E94C4379B01AC016CE772EF80EBF5
:101EB0009BE30E9475366B017C01C0CF40919D155C
:101EC00050919E1560919F157091A01580E090E053
:101ED0000E94050F6093A5157093A6158093A71512
:101EE0009093A8154091A1155091A2156091A3154A
:101EF0007091A41581E090E00E94050F6093A915F0
:101F00007093AA158093AB159093AC152091A515ED
:101F10003091A6154091A7155091A81520939D15B5
:101F200030939E1540939F155093A0156093A11573
:101F30007093A2158093A3159093A41508958330F0
:101F4000910571F082309105B1F085309105F1F085
:101F5000049709F0089582E090E00E949D0B089597
:101F600082E090E06CE474E00E944E0C82E090E02D
:101F70000E949D0B089582E090E060EC72E10E9467
:101F80004E0C82E090E00E949D0B089582E090E06C
:101F900066E87BE00E944E0C82E090E00E949D0B80
:101FA0000895A0E0B0E0E7EDFFE00C94653FEC01A0
:101FB000A090A115B090A215C090A315D090A41523
:101FC000E0909D15F0909E1500919F151091A01521
:101FD000C601B501A80197010E94C03718160CF080
:101FE00054C0C601B50120E030E040E050E00E945E
:101FF0007136882309F449C0C801B701A6019501CB
:102000000E9475367B018C0160E070E080E89FE300
:10201000209709F04BC020E030E047E055E40E94F3
:10202000C43720E030E045E255E40E940D360E94BE
:10203000DD369B01AC0180E090E0B9010E944E0CBE
:1020400080E090E00E949D0BC801B70120E030E8DD
:1020500040EC54EC0E94C43720E030E045E255E407
:102060000E940D360E94DD369B01AC0181E090E0BC
:10207000B9010E944E0C81E090E00E949D0BCDB70B
:10208000DEB7EAE00C94813F86C0C601B501A80125
:1020900097010E9471368823E4F060E070E080E8E8
:1020A0009FE37B018C01209709F4B5CFC130D105A6
:1020B00081F1C330D10509F44CC0C230D10521F102
:1020C000249709F44BC0CDB7DEB7EAE00C94813F0A
:1020D00062C0C801B70120E030E040E050E00E945B
:1020E00071368823D1F2C601B501A80197010E947B
:1020F00075360F2EF0E0EF2EF0E0FF2EF0E80F2FF8
:10210000FFE31F2FF02DCFCF20E030E840EC54EC60
:1021100086CF20E030E840EC54EC0E94C43720E049
:1021200030E045E255E40E940D360E94DD369B0109
:10213000AC0180E090E0B9010E944E0C80E090E09C
:102140000E949D0BC801B70120E030E047E055E454
:1021500081CF20E030E047E055E4DFCF81E090E040
:102160000E94FF0B80E090E00E94FF0B80E090E077
:10217000A0E0B0E08093A1159093A215A093A315C1
:10218000B093A41580939D1590939E15A0939F15D1
:10219000B093A01598CF0E940E0E80E090E0A0E0D2
:1021A000B0E08093A9159093AA15A093AB15B093B6
:1021B000AC158093A5159093A615A093A715B09381
:1021C000A8158093A1159093A215A093A315B09381
:1021D000A41580939D1590939E15A0939F15B09381
:1021E000A0158093951590939615A0939715B0938D
:1021F00098158093991590939A15A0939B15B09379
:102200009C1508958091C1159091C21508958091F3
:10221000BF159091C01508958091BD159091BE1580
:102220000895A4E0B0E0E7E1F1E10C945D3F0DEA30
:1022300015E1CC24DD24AA24BB24882499245EEF54
:10224000E52E5FEFF52E2E010894411C511C43E052
:10225000642E712C6C0E7D1E31ED232E33243394AD
:102260000BC0A80EB91E0E5F1F4F0894E11CF11C95
:1022700025E10D3B1207F9F020ED29838E2D8C5FAF
:102280008A832B823C82C20162E00E940312C30156
:1022900062E00E940312C80162E00E944E12F8013F
:1022A000818190E0C80ED91EF4E0EF16F104C8F267
:1022B000880E991ED8CFD594C794D594C794D59439
:1022C000C794D092C215C092C115B594A794B59485
:1022D000A794B092C015A092BF1595948794959439
:1022E00087949092BE158092BD152496E2E10C94DD
:1022F000793F80EC0E94571308959093C415809302
:10230000C315A1E7B0E08C918E7F8C931092900062
:10231000E1E9F0E010828CE396EF909395008093D2
:1023200094008081846080838C9181608C93089577
:102330001F920F920FB60F920BB60F9211242F938C
:102340003F934F935F936F937F938F939F93AF933D
:10235000BF93EF93FF938CE396EF90939500809358
:102360009400E091C315F091C4151995FF91EF9178
:10237000BF91AF919F918F917F916F915F914F919D
:102380003F912F910F900BBE0F900FBE0F901F909B
:1023900018958091BC0080FDFCCF1092F60288EF6A
:1023A0008093600285EC8093BC0008958091BC000E
:1023B00080FDFCCF1092F60288EF8093600285EEDC
:1023C0008093BC000895AC018091BC0080FDFCCFDF
:1023D00060931103662371F020E030E0F901E750CB
:1023E000FD4FDA01A20FB31F8C9180832F5F3F4F07
:1023F0002617A0F31092F60288EF8093600285EC16
:102400008093BC000895FC018091BC0080FDFCCF4E
:102410006093110380818093F902808180FD11C057
:10242000623078F0DF01EAEFF2E0625070E0655070
:102430007D4F11968C91119781931196E617F707AE
:10244000C1F71092F60288EF8093600285EA8093CC
:10245000BC000895AC018091BC0080FDFCCF2091B0
:10246000F60220FF19C0662381F020E030E0FA0177
:10247000E20FF31FD901A750BD4F8C9180832F5FCE
:102480003F4F2617A0F32091F602822F8D7F809375
:10249000F602822F8170089580E00895AC0180914A
:1024A000BC0080FDFCCF8091F602282F217080FFB8
:1024B00013C0662389F020E030E0FA01E20FF31F39
:1024C000D901A750BD4F8C9180832F5F3F4F2617B6
:1024D000A0F32091F6022170822F08958091F702D7
:1024E000882319F089B189B1FDCF81E008958091E9
:1024F000BC0080FDFCCF8091600208951F920F9276
:102500000FB60F920BB60F9211242F933F938F9318
:102510009F93AF93BF93EF93FF938091B90090E0A7
:10252000FC013897E13CF105B0F08091B90080934F
:10253000600285ED8093BC00FF91EF91BF91AF9158
:102540009F918F913F912F910F900BBE0F900FBED7
:102550000F901F901895EE58FF4F0C94943F809168
:10256000F8029091BB00E82FF0E0E750FD4F908318
:102570008F5F8093F8028091F60281608093F6026B
:1025800085EC8093BC00D8CF2091F8028091BB00ED
:10259000E22FF0E0E750FD4F80832F5F2093F80299
:1025A00030E08091110390E001972817390744F338
:1025B00085E88093BC00C0CF1092F8029091F80299
:1025C00080911103981708F05DC0E92FF0E0E75003
:1025D000FD4F80818093BB009F5F9093F80285E858
:1025E0008093BC00A9CF1092F8029091F802E92FD5
:1025F000F0E0E750FD4F80818093BB009F5F909398
:10260000F80285EC8093BC0097CF8091BB00E091ED
:10261000F802F0E0E750FD4F80838091F602816080
:102620008093F60284ED8093BC0086CF8091B90040
:102630008093600285EE8093BC007ECF85EE809310
:10264000BC007ACF84E08093F7028093BC0074CF03
:102650009091F80280911103981719F18091B900B7
:102660008093600284E08093BC0066CF8091F60284
:10267000846082608093F6021092F80285EC809369
:10268000BC005ACF8091F60281608093F60284E903
:102690008093BC0051CF8091F602EBCF2091F802DD
:1026A0007FCF8091F60281608093F602DBCF1F938B
:1026B000182F8091F4029091F502892BA9F08AB12C
:1026C0008C7F8AB98BB183608BB91092B9008CE290
:1026D0008093B8001093BA008FEF8093BB0084E022
:1026E0008093BC001F91089581E060E043E00E9468
:1026F00044199093F5028093F402009701F360E08F
:1027000070E040E050E020E00E94B116D8CF1F9367
:10271000182F8091F4029091F502892B69F08AB10B
:102720008C7F8AB91093BA008FEF8093BB0084E04E
:102730008093BC001F91089581E060E043E00E9417
:1027400044199093F5028093F402009741F360E0FE
:1027500070E040E050E020E00E94B116E0CF0FB6FC
:10276000F8940F92FC01828D0F900FBE0895FC012A
:102770000FB6F8940F92928D0F900FBE838D891B28
:102780000895FC01828D0895FC01878D0895FC0158
:10279000678F0895FC0180A10895FC01828D90E06F
:1027A000882309F491E0892F0895FC01928D20E09F
:1027B000838D981711F0822F089521E0822F0895BC
:1027C000CF93DF93EC0188819981009711F00E94EB
:1027D000FF33CE010E94FF33DF91CF9108950F9315
:1027E0001F93CF93DF93562FE72FEC018A8D882319
:1027F000F1F00E811F816881798161157105A1F069
:102800004C8D9801240F311D3F832E838A819B813B
:102810002817390710F07F836E836E817F81852FA3
:102820009E2F50E00E94FB071F830E8381E0DF9103
:10283000CF911F910F9108950F931F93CF93DF9323
:10284000FB018A01EC018A8D882319F16881798165
:1028500061157105A1F04C8D8E819F81840F911DB2
:102860009F838E832A813B818217930710F07F8399
:102870006E836E817F81CF0150E00E94FB078A8DBD
:1028800081508A8F8D8D8F3F49F08D8D8F5F8D8F19
:1028900081E0DF91CF911F910F9108958885882362
:1028A00031F481E0DF91CF911F910F910895CE0116
:1028B00008960E94CC1B8823A1F30115110589F30A
:1028C00081E0F8018083E5CFA5E0B0E0EAE6F4E13D
:1028D0000C945F3F562E472E5D834C83A22E8C01B5
:1028E00028E0C22ED12CC80ED91E91E1E92EF12C80
:1028F000E00EF11E20E04E010894811C911C84E042
:10290000682E712C6C0E7D1EBB24BA940FB6F89401
:102910000F92F801828D882309F0ECC08C819D8193
:10292000892B09F41CC1222309F4D5C00F900FBED6
:102930000E94B2190FB6F8940F92F801858D8F3F5F
:1029400009F4C7C0F801868D8F3F09F4C0C00F900D
:102950000FBEC401B3010E94D719882309F007C133
:102960000FB6F8940F92F801828D0F900FBE882356
:1029700009F05FC0F80180819181892B09F4AFC013
:102980006C817D81C7010E94B61D0FB6F8940F922D
:10299000F801868D18164CF019C0F801868D81500B
:1029A000868F868D181694F4F8018189882371F03A
:1029B000C7010E94CC1B882381F30E94161AF801DC
:1029C000868D8150868F868D181674F3F801B68E29
:1029D0000F900FBE0FB6F8940F92F801858D181660
:1029E0004CF019C0F801858D8150858F858D1816A2
:1029F00094F4F8018085882371F0C6010E94CC1BF5
:102A0000882381F30E94161AF801858D8150858FE5
:102A1000858D181674F3F801B58E0F900FBE0E94C5
:102A2000CC1E882311F021E071CF0E94933321E066
:102A30006DCF0FB6F8940F92F801868D18164CF0F2
:102A400019C0F801868D8150868F868D181694F4F2
:102A5000F8018189882371F0C7010E94CC1B88236B
:102A600081F30E94161AF801868D8150868F868D1B
:102A7000181674F3F801B68E0F900FBE0FB6F894C7
:102A80000F92F801858D18164CF019C0F801858D4C
:102A90008150858F858D181694F4F80180858823E0
:102AA00071F0C6010E94CC1B882381F30E94161A84
:102AB000F801858D8150858F858D181674F3F80186
:102AC000B58E0F900FBE0E94CC1E21E01FCF168E38
:102AD0003ECF158E37CFC4010E94CC1927CF0FB639
:102AE000F8940F92F801828193810E94441B0F9009
:102AF0000FBE46CF86809780608171816115710518
:102B0000A1F0448D9401240F311D378326838281E7
:102B100093812817390708F08CC0F8016681778106
:102B2000852D942D50E00E94FB07AA2009F073C068
:102B3000F801828D8150828F80819181892B09F4E7
:102B400081C0F8018085882309F46BC0C6010E940A
:102B5000CC1B813009F065C00E94933362C00F9096
:102B60000FBE80E02596E0E10C947B3F71C00FB66C
:102B7000F8940F92F801868D18164CF019C0F801E0
:102B8000868D8150868F868D181694F4F801818980
:102B9000882371F0C7010E94CC1B882381F30E9417
:102BA000161AF801868D8150868F868D181674F35B
:102BB0008FEFF801868F0F900FBE0FB6F8940F922B
:102BC000F801858D18164CF019C0F801858D8150DB
:102BD000858F858D181694F4F8018085882371F00F
:102BE000C6010E94CC1B882381F30E94161AF801AB
:102BF000858D8150858F858D181674F38FEFF801C0
:102C0000858F0F900FBE0E94CC1E80E02596E0E1DC
:102C10000C947B3F1DC0F8019782868281898823AE
:102C200059F40F900FBE81E02596E0E10C947B3FB4
:102C30000FC07783668371CFC7010E94CC1B8823A6
:102C400081F38ACF0E94F41AF8019383828379CFAB
:102C5000EF92FF921F93CF93DF937A01122FEC0133
:102C60009A8D8B8D981748F0223039F080E0DF91F3
:102C7000CF911F91FF90EF9008954C8D4423A9F4BC
:102C800088819981892B09F465C08A8D8F5F8A8F2D
:102C90008E8D8F3F89F18E8D8F5F8E8F81E0DF91DA
:102CA000CF911F91FF90EF900895112379F18E81BC
:102CB0009F8150E00E94FB078C8D90E044275527B0
:102CC000481B590B8E819F81840F951F9F838E8394
:102CD000288139818217930730F48A819B81840F80
:102CE000951F9F838E83123081F68A8D882369F227
:102CF0008A8D81508A8FC9CF89898823F1F481E038
:102D0000DF91CF911F91FF90EF9008958C819D816D
:102D100050E00E94FB078C8D2C813D81280F311DD6
:102D20003D832C838A819B812817390708F4ADCF16
:102D3000888199819D838C83A8CFCE0141960E9482
:102D4000CC1B8823E1F2E114F104C9F281E0F70120
:102D50008083A5CF8A819B810E94121B1B821A82CD
:102D600094CFA5E0B0E0E7EBF6E10C945F3F562E80
:102D7000472E5D834C83B22E8C0158E0E52EF12C5A
:102D8000E80EF91E41E1C42ED12CC80ED91E20E058
:102D90004E010894811C911C34E0632E712C6C0E42
:102DA0007D1EAA24AA940FB6F8940F92F801928D72
:102DB000838D981708F4E0C0F2E0BF1609F4DCC078
:102DC0008C819D81892B09F41EC1222309F478C0CE
:102DD0000F900FBE0E94B2190FB6F8940F92F8012F
:102DE000858D8F3F09F46AC0F801868D8F3F09F405
:102DF00063C00F900FBEC401B3010E94D71988238E
:102E000009F009C10FB6F8940F92F801928D0F9056
:102E10000FBEF801838D981709F456C00FB6F894C9
:102E20000F92F801868D18164CF019C0F801868DA6
:102E30008150868F868D181694F4F8018189882335
:102E400071F0C6010E94CC1B882381F30E94161AE0
:102E5000F801868D8150868F868D181674F3F801DF
:102E6000A68E0F900FBE0FB6F8940F92F801858DC5
:102E700018164CF019C0F801858D8150858F858D0D
:102E8000181694F4F8018085882371F0C7010E9418
:102E9000CC1B882381F30E94161AF801858D81507E
:102EA000858F858D181674F3F801A58E0F900FBECF
:102EB0000E94CC1E21E077CF168E9BCF158E94CF2B
:102EC000C4010E94CC1984CF6C817D81C7010E940E
:102ED000B61D0FB6F8940F92F801868D18164CF0B7
:102EE00019C0F801868D8150868F868D181694F44E
:102EF000F8018189882371F0C6010E94CC1B8823C8
:102F000081F30E94161AF801868D8150868F868D76
:102F1000181674F3F801A68E0F900FBE0FB6F89432
:102F20000F92F801858D18164CF019C0F801858DA7
:102F30008150858F858D181694F4F801808588233B
:102F400071F0C7010E94CC1B882381F30E94161ADE
:102F5000F801858D8150858F858D181674F3F801E1
:102F6000A58E0F900FBE0E94CC1E882309F0A2CF21
:102F70000E94933321E017CFF801448D4423A9F434
:102F800080819181892B09F4BEC0F801828D8F5F09
:102F9000828F8189882309F0ADC00F900FBE81E038
:102FA0002596E0E10C947B3FB6C0BB2009F487C0B6
:102FB000F80186819781652D742D50E00E94FB07F2
:102FC000F801848D90E044275527481B590B8681D2
:102FD0009781840F951F9783868320813181821783
:102FE000930730F482819381840F951F97838683A2
:102FF000F2E0BF1651F6F801828D882331F2828DFE
:103000008150828FC2CF0F900FBE80E02596E0E105
:103010000C947B3F80C00FB6F8940F92F801868D18
:1030200018164CF019C0F801868D8150868F868D58
:10303000181694F4F8018189882371F0C6010E9462
:10304000CC1B882381F30E94161AF801868D8150CB
:10305000868F868D181674F38FEFF801868F0F9088
:103060000FBE0FB6F8940F92F801858D18164CF02C
:1030700019C0F801858D8150858F858D181694F4BF
:10308000F8018085882371F0C7010E94CC1B88233A
:1030900081F30E94161AF801858D8150858F858DE8
:1030A000181674F38FEFF801858F0F900FBE0E94F2
:1030B000CC1E80E02596E0E10C947B3F2CC0F8010B
:1030C00084819581652D742D50E00E94FB07F801E5
:1030D000848D24813581280F311D3583248382819D
:1030E00093812817390708F450CF80819181958307
:1030F00084834BCFC6010E94CC1B813009F04DCF99
:103100000E9493334ACF828193810E94121BF8015F
:10311000138212823ACF0F931F93CF93DF93182F0E
:1031200081E290E00E947234EC01009719F11B8259
:103130001A82198218821D821C821F821E821A8E98
:1031400081E08B8F1C8E8FEF8D8F8E8F18A3CE0119
:1031500008960E9470358E010F5E1F4FC8010E94B5
:1031600070350FB6F8940F929A8D8B8D981740F0AA
:103170000F900FBECE01DF91CF911F910F91089557
:103180004C8D442391F488819981892B71F18A8D2A
:103190008F5F8A8F8989882301F50F900FBECE013A
:1031A000DF91CF911F910F9108958C819D8160E0F7
:1031B00070E050E00E94FB078C8D2C813D81280F30
:1031C000311D3D832C838A819B8128173907F8F2B2
:1031D000888199819D838C83DACFC8010E94CC1BA2
:1031E0008130D9F60E949333D8CF8A819B810E9487
:1031F000121B1B821A82CBCFCF93DF93EC010FB649
:10320000F8940F92EC8D2B8DE29FC0011124488120
:103210005981840F951F9B838A831A8E5D834C830B
:1032200030E021503040F0E02E9FC0012F9F900DE4
:103230003E9F900D1124480F591F5F834E838FEFDF
:103240008D8F8E8F662391F48885882331F40F90BB
:103250000FBE81E0DF91CF910895CE0108960E94C4
:10326000CC1B8130A1F70E949333F1CFCE01089699
:103270000E947035CE0141960E9470350F900FBEAE
:1032800081E0DF91CF910895CF92DF92FF920F936B
:103290001F93CF93DF93182F062FF42E882359F412
:1032A00040E050E0CA01DF91CF911F910F91FF9054
:1032B000DF90CF90089581E290E00E947234EC019B
:1032C000009771F3C02EDD24812F90E09C01C29EF7
:1032D000C001C39E900DD29E900D112401960E94B4
:1032E0007234998388830097B9F11B8F0C8F0FB6C6
:1032F000F8940F922B8D30E0C29EC001C39E900DBA
:10330000D29E900D112448815981840F951F9B8373
:103310008A831A8E5D834C83215030408C8D90E0DF
:10332000BC01269FC001279F900D369F900D112450
:10333000480F591F5F834E838FEF8D8F8E8FCE0185
:1033400008960E947035CE0141960E9470350F900C
:103350000FBEF8A2AE01A6CFCE010E94FF3340E01F
:1033600050E0A0CF80911A038F5F80931A030895D5
:103370000FB6F8940F9220911703309118030F9015
:103380000FBEC90108952091170330911803C90198
:103390000895809114030895FC018091190380839E
:1033A0008091170390911803928381830895FC0103
:1033B000DB010FB6F8940F92609117037091180318
:1033C0002D913C9111978FEF2F3F3807F9F0909195
:1033D000190380818917F1F04181528164177507C3
:1033E00008F5CB01841B950B82179307D8F4261B95
:1033F000370B240F351F2D933C9380911903808345
:1034000080911703909118039283818380E00F903D
:103410000FBE089541815281CB01841B950B821709
:10342000930728F381E00F900FBE089581E0809309
:1034300016030895FC01009711F082A1089580E021
:103440000895FC01009709F062A30895A0E0B0E0A0
:10345000ECE2FAE10C945F3F3C018B015A01DB0185
:103460008C91882309F48DC01196ED91FC911297EF
:103470000280F381E02D1296FC93EE93119723E0E6
:10348000C22ED12CC60ED71EEC15FD0509F483C043
:1034900086809780FF249FE0E92E82E0482E512C01
:1034A00082819381F80192838183C816D90609F439
:1034B00055C0D8011196ED91FC911297C681D78124
:1034C000FE9CB0011124660D771DFB01D183C083E2
:1034D0006996D383C283699789A18483B682A582C2
:1034E0008E898783F3E0AF16B10409F43FC08BA146
:1034F000FB0180878CA19DA1AEA1BFA1818792878E
:10350000A387B487AF89B88D8C91853A09F040C004
:1035100020E030E040E050E02F5F3F4F4F4F5F4FE3
:10352000FD01E20FF31F8081853AB1F3C901DB0190
:103530001E969C938E931D97F394C815D90511F18F
:10354000D8011196ED91FC91129782819381F80137
:1035500092838183C816D90609F0ABCFD6011296A3
:103560008D919C91139792838183A3CF8C899D89A0
:10357000892B09F4BCCFDB0116965C924E9215970D
:10358000B6CFFF248F2DCDB7DEB7E0E10C947B3FA3
:1035900080E090E0CCCF8281938111968C9311973B
:1035A00012969C939C01F90173CF0097B1F0FC0136
:1035B000A789B08D8C91853AA9F420E030E040E0F5
:1035C00050E02F5F3F4F4F4F5F4FFD01E20FF31F62
:1035D0008081853AB1F3822F0895E0911203F09132
:1035E0001303E6CF80E00895209112033091130376
:1035F000C9010895E0911203F09113038485958524
:10360000A0911203B0911303E0911203F091130300
:10361000468924E030E0241B31091D963C932E930B
:103620001C9708950F931F93CF93DF93EC0100979E
:1036300031F19E898BA1981711F18E010E5F1F4FFA
:10364000C8010E94D5352BA12E8B8C859D8597FDB9
:1036500006C084E090E0821B91099D878C879E893B
:1036600080911503891710F49093150389E0989FB2
:10367000C0011124895D9C4FB8010E948435DF91FF
:10368000CF911F910F9108950F931F93CF93DF93C5
:10369000EC01009741F13E89E0911203F091130390
:1036A0008689381700F58C859D8597FD0BC0E091C4
:1036B0001203F0911303268984E090E0821B9109A4
:1036C0009D878C8789E0389FC0011124895D9C4FBC
:1036D0002A853B852817390759F0E0911203F091AC
:1036E000130386898E8BDF91CF911F910F910895DF
:1036F0008E010E5F1F4FC8010E94D535E091120365
:10370000F091130396899E8B80911503891710F40D
:103710009093150389E0989FC0011124895D9C4F07
:10372000B8010E948435DFCF0F931F93CF93DF93AF
:10373000FC01706871836083C681D7810E94D53592
:103740008E010E5F1F4FC8010E94D5359E89809162
:103750001503891710F49093150389E0989FC00111
:103760001124895D9C4FB8010E948435E0911203B9
:10377000F09113039E898689891740F481E0809334
:103780001603DF91CF911F910F91089580E0DF9193
:10379000CF911F910F9108950F931F93CF93DF93B4
:1037A000DC011596ED91FC91169706811781E801D1
:1037B0002C96CE010E94D53580911A03882331F5CD
:1037C000E8012296CE010E94D535F80196898091B4
:1037D0001503891708F189E0989FC0011124895DBC
:1037E0009C4FBE010E948435E0911203F0911303B7
:1037F000D80156969C918689891788F481E0809338
:103800001603DF91CF911F910F91089581E693E008
:10381000BE010E948435E8CF90931503DCCF80E091
:10382000DF91CF911F910F910895A0E0B0E0EBE1FF
:10383000FCE10C94673F80911A03882309F089C04A
:103840008091170390911803019690931803809329
:103850001703E0901703F0901803E114F10419F531
:1038600020915D0330915E0380915F03909160032E
:1038700090935E0380935D033093600320935F0316
:10388000809119038F5F80931903E0915D03F0919C
:103890005E038081882309F086C08FEF9FEF9093AD
:1038A0006202809361028091610290916202E81647
:1038B000F90608F460C0DD2449E0C42EE0915D0300
:1038C000F0915E0380818823E9F1E0915D03F0913E
:1038D0005E030580F681E02DC681D7818A819B81B8
:1038E000E816F90608F477C08E010E5F1F4FC80175
:1038F0000E94D5358C899D89892B21F0CE010C96AB
:103900000E94D5359E8980911503891710F49093F4
:1039100015039C9DC0011124895D9C4FB8010E9434
:103920008435E0911203F09113039E8986899817DC
:1039300028F2DD24D394E0915D03F0915E03808151
:10394000882319F68FEF9FEF9093620280936102B4
:1039500013C0809123038F5F80932303DD24809124
:103960001603882311F0DD24D3948D2DCDB7DEB757
:10397000E8E00C94833FDD24E0911203F0911303FF
:10398000868990E0FC01EE0FFF1FEE0FFF1FEE0F88
:10399000FF1FE80FF91FE95DFC4F80818230F8F2CC
:1039A000DD24D394DCCFE0915D03F0915E030580CC
:1039B000F681E02D0680F781E02D8281938190933E
:1039C0006202809361028091610290916202E81626
:1039D000F90688F270CF9093620280936102CCCF97
:1039E000DF92EF92FF920F931F93CF93DF93EC013F
:1039F0008A859B858357934041F010E0812FCDB796
:103A0000DEB7E7E00C94843F42C08C899D8923E0B7
:103A10008136920791F3892B81F780911A038823CD
:103A200049F5DE88E0911203F0911303068952E014
:103A3000E52EF12CEC0EFD1EC7010E94D5356E89D6
:103A400080911503861710F46093150310E0D016CB
:103A500008F011E089E0689FC0011124895D9C4F46
:103A6000B7010E948435812FCDB7DEB7E7E00C9413
:103A7000843F0DC02C9681E693E0BE010E94843500
:103A800010E0812FCDB7DEB7E7E00C94843F0F93B1
:103A90001F93CF93DF938A01E0911203F0911303F8
:103AA0007068758764876091120370911303645F77
:103AB0007F4F0E94843580911203909113030296E8
:103AC0000E94D5358FEF0F3F180709F440C0C09111
:103AD0001703D0911803C00FD11FE0911203F0918A
:103AE0001303D383C2838091170390911803C817DF
:103AF000D907E0F080915D0390915E03609112031D
:103B0000709113036E5F7F4F0E94A3358091610215
:103B100090916202C817D90720F4D0936202C09333
:103B20006102DF91CF911F910F91089580915F0302
:103B30009091600360911203709113036E5F7F4F49
:103B40000E94A335DF91CF911F910F91089560914D
:103B50001203709113036E5F7F4F83E793E00E941F
:103B60008435DF91CF911F910F9108950F931F938B
:103B7000CF93DF938B016091120370911303645F05
:103B80007F4F0E94A33580911203909113030296F8
:103B90000E94D5358FEF0F3F180709F440C0C09140
:103BA0001703D0911803C00FD11FE0911203F091B9
:103BB0001303D383C2838091170390911803C8170E
:103BC000D907E0F080915D0390915E03609112034C
:103BD000709113036E5F7F4F0E94A3358091610245
:103BE00090916202C817D90720F4D0936202C09363
:103BF0006102DF91CF911F910F91089580915F0332
:103C00009091600360911203709113036E5F7F4F78
:103C10000E94A335DF91CF911F910F91089560917C
:103C20001203709113036E5F7F4F83E793E00E944E
:103C30008435DF91CF911F910F910895EF92FF92FC
:103C40000F931F9380911A03882309F093C0109259
:103C5000160380918400909185007C0100E010E0C3
:103C6000E0921B03F0921C0300931D0310931E03AC
:103C700080911F0390912003A0912103B091220312
:103C80008E159F05A007B107B0F4E0911203F091E3
:103C90001303A8019701281B390B4A0B5B0B84A166
:103CA00095A1A6A1B7A1820F931FA41FB51F84A33E
:103CB00095A3A6A3B7A3E0921F03F092200300935D
:103CC000210310932203E0911203F0911303A091BA
:103CD0001203B09113032081318157968D919C91ED
:103CE00058978217930790F08091120390911303D5
:103CF0006091120370911303675E7F4F0E945C0B0B
:103D000005C08091150381508093150380911503A0
:103D100090E0FC01EE0FFF1FEE0FFF1FEE0FFF1FE5
:103D2000E80FF91FE95DFC4F8081882351F39091E2
:103D3000150389E0989FD0011124A95DBC4F11960D
:103D4000ED91FC9112970280F381E02D1296FC9385
:103D5000EE931197CD010396E817F90799F0868144
:103D6000978190931303809312031F910F91FF90FB
:103D7000EF90089581E0809316031F910F91FF90BB
:103D8000EF9008958281938111968C9311971296EA
:103D90009C939C01F901E3CFA0E0B0E0E2EDFEE1ED
:103DA0000C94643F0FB6F8940F9280911A038150DF
:103DB00080931A0380911A03882309F0EDC0809143
:103DC0001403882309F4E8C0F9E0FF2EEE24E394FD
:103DD00080916103882369F1E0916603F0916703A4
:103DE000C681D781CE010C960E94D5358E010E5F1B
:103DF0001F4FC8010E94D5359E89809115038917F0
:103E000010F4909315039F9DC0011124895D9C4F70
:103E1000B8010E948435E0911203F09113039E894A
:103E200086899817A8F2E09216038091610388238F
:103E300099F680912303882309F4AAC08091230373
:103E4000882309F4A5C0E9E0CE2EAA24AA94BA2CAE
:103E50009924939480911A03882309F083C0809158
:103E600017039091180301969093180380931703FA
:103E7000E0901703F0901803E114F10409F5209184
:103E80005D0330915E0380915F0390916003909396
:103E90005E0380935D033093600320935F03809102
:103EA00019038F5F80931903E0915D03F0915E0326
:103EB0008081882309F097C0B0926202A0926102CB
:103EC0008091610290916202E816F90608F473C0CD
:103ED000DD24E0915D03F0915E0380818823E9F1A8
:103EE000E0915D03F0915E030580F681E02DC681CF
:103EF000D7818A819B81E816F90608F485C08E0176
:103F00000E5F1F4FC8010E94D5358C899D89892B72
:103F100021F0CE010C960E94D5359E898091150323
:103F2000891710F4909315039C9DC0011124895D9D
:103F30009C4FB8010E948435E0911203F091130365
:103F40009E898689981728F2DD24D394E0915D0339
:103F5000F0915E038081882319F6B0926202A092EC
:103F600061022AC0809123038F5F80932303DD24A5
:103F7000809116038823E1F4DD20D1F4809123039E
:103F800081508093230380912303882309F062CF1B
:103F900080911603813041F080E00F900FBECDB7C5
:103FA000DEB7EBE00C94803F0E94933381E0F5CFC5
:103FB00090921603E3CFDD24E0911203F0911303F6
:103FC000868990E0FC01EE0FFF1FEE0FFF1FEE0F42
:103FD000FF1FE80FF91FE95DFC4F8081823040F23E
:103FE000DD24D394C5CFE0915D03F0915E0305809D
:103FF000F681E02D0680F781E02D828193819093F8
:104000006202809361025CCF9093620280936102AE
:10401000D3CFA4E0B0E0EFE0F0E20C945D3F1C01F0
:10402000DC011C92809114038983909114038FE02A
:10403000989FC00111240E9472342C01009709F44A
:10404000ADC0898190911A039F5F90931A0390915C
:104050001403891708F4A6C084E0C82E1C82CA94F1
:10406000BC81EFE0BE9F50011124A40CB51CF9E007
:10407000CF9E7001112447E253E0E40EF51ED701F4
:104080008C91882309F484C11196ED91FC911297CB
:104090000280F381E02D1296FC93EE93119703E0DA
:1040A000802E912C8E0C9F1CE815F90509F42CC567
:1040B00066807780DD2482819381F70192838183FA
:1040C0008816990609F45FC0D7011196ED91FC910D
:1040D000129766817781BFE0DB9E800111240A0D73
:1040E0001B1DF80171836083675E7F4F738362835A
:1040F00069517040DB0191968C919197848341E0E6
:1041000050E05683458356968C91569787839396B5
:104110008C919397808794968D919D910D90BC91F1
:10412000A02D81879287A387B487FB01A789B08DD3
:104130008C91853A09F0D4C220E030E040E050E0B4
:104140002F5F3F4F4F4F5F4FFD01E20FF31F808105
:10415000853AB1F3C901D8011E969C938E931D97A1
:10416000D3946616770609F414C1D7011196ED9120
:10417000FC91129782819381F70192838183881643
:10418000990609F0A1CFD40112968D919C911397B5
:104190009283818399CFC2010E94FF332496E2E18A
:1041A0000C94793F1B820FB6F8940F9280911A03FA
:1041B000815080931A0380911A03882309F0A4C1C7
:1041C00080911403882309F49FC199E0D92ECC244F
:1041D000C39480916103882399F1E0916603F09183
:1041E000670306811781C8010C960E94D53522E02D
:1041F000E22EF12CE00EF11EC7010E94D535F80128
:10420000968980911503891718F490931503968960
:104210009D9DC0011124895D9C4FB7010E9484358A
:10422000E0911203F0911303D80156969C91868970
:10423000981778F2C092160380916103882369F67B
:1042400080912303882309F459C180912303882393
:1042500009F454C189E0A82E80911A03882309F03B
:1042600035C180911703909118030196909318031C
:1042700080931703C0901703D0901803C114D10482
:1042800019F520915D0330915E0380915F03909159
:10429000600390935E0380935D03309360032093EB
:1042A0005F03809119038F5F80931903E0915D0391
:1042B000F0915E038081882309F004C4EFEFFFEFE3
:1042C000F0936202E0936102809161029091620238
:1042D000C816D90608F4DDC3BB24E0915D03F09154
:1042E0005E038081882309F44CC0E0915D03F09166
:1042F0005E030580F681E02D06811781D8011296B4
:104300008D919C911397C816D90608F4F5C3B2E0B5
:10431000EB2EF12CE00EF11EC7010E94D535F801FD
:1043200084899589892B21F0C8010C960E94D53586
:10433000D80156969C91569780911503891720F4C1
:104340009093150356969C919A9DC0011124895D06
:104350009C4FB7010E948435E0911203F091130342
:10436000D80156969C918689981708F4B6CFBB243D
:10437000B394E0915D03F0915E038081882309F09E
:10438000B4CF4FEF5FEF509362024093610282C35C
:10439000DD24BC81BD0DBC83CC2009F060CE8FE054
:1043A000B89F50011124A40CB51CE0905D03F0905F
:1043B0005E03F7018081882309F495C10180F281B1
:1043C000E02D0280F381E02DD7011296FC93EE934D
:1043D000119713E0812E912C8E0C9F1CE815F90586
:1043E00009F4A3C366807780DD24AFE0CA2E828102
:1043F0009381F701928381838816990609F45EC040
:10440000D7011196ED91FC91129766817781DC9C22
:10441000800111240A0D1B1DF80171836083675E02
:104420007F4F7383628369517040DB0191968C9159
:104430009197848342E050E05683458356968C9151
:104440005697878393968C919397808794968D91B6
:104450009D910D90BC91A02D81879287A387B487F1
:10446000FB01A789B08D8C91853A09F042C320E009
:1044700030E040E050E02F5F3F4F4F4F5F4FFD0176
:10448000E20FF31F8081853AB1F3C901D8011E966E
:104490009C938E931D97D3946616770609F424C1D6
:1044A000D7011196ED91FC91129782819381F701CA
:1044B000928381838816990609F0A2CFD4011296BF
:1044C0008D919C911397928381839ACF809123033E
:1044D0008F5F80932303BB2480911603882309F008
:1044E000D4C2BB2009F0D1C28091230381508093B4
:1044F000230380912303882309F0AECE8091160315
:10450000813011F40E9493330F900FBEEB81E98349
:10451000C401B30124E630E040E050E00E943B3F9C
:1045200059016A01A114B104C104D10409F433CEC4
:104530001A829A818981981708F02DCEEBE28E2E8F
:10454000E2E09E2E7AE3672E72E0772E60C08A81C9
:104550002A814DB75EB74A5050400FB6F8945EBFFF
:104560000FBE4DBFADB7BEB71196EDB7FEB73282E5
:10457000218213969C928E92129790E0FC01EE0F8E
:10458000FF1FE80FF91FCF01880F991F880F991F90
:10459000E80FF91FE40DF51D8281938115969C9318
:1045A0008E93149730E0F901EE0FFF1FE20FF31F17
:1045B000CF01880F991F880F991FE80FF91FE40D8D
:1045C000F51D8185928517969C938E931697199663
:1045D000FC92EE9218970E9442084DB75EB7465F74
:1045E0005F4F0FB6F8945EBF0FBE4DBFD1010D9067
:1045F0000020E9F71197A219B3098A818F5F8A8396
:104600009A818981981708F0C6CD2A0E3B1E8A81AF
:1046100090E0FC01EE0FFF1FE80FF91FCF01880F9C
:10462000991F880F991FE80FF91FE40DF51D61858B
:10463000728583859485A60195010E943B3F79018F
:104640008A01E114F1040105110509F080CF8A8186
:104650002A81ADB7BEB718970FB6F894BEBF0FBE8C
:10466000ADBF1196EDB7FEB73282218213967C92D0
:104670006E92129790E0FC01EE0FFF1FE80FF91FFA
:10468000CF01880F991F880F991FE80FF91FE40DBC
:10469000F51D8281938115969C938E93149730E03B
:1046A000F901EE0FFF1FE20FF31FCF01880F991FD3
:1046B000880F991FE80FF91FE40DF51D818592857C
:1046C00017969C938E9316970E9442084DB75EB73B
:1046D000485F5F4F0FB6F8945EBF0FBE4DBF86CFE9
:1046E00080E090E038CDDD24CC80CD0C8FE0C89EFA
:1046F00050011124A40CB51CE0905F03F0906003FE
:10470000F7018081882309F486C00180F281E02DC1
:104710000280F381E02DD7011296FC93EE9311975E
:1047200073E0872E912C8E0C9F1CE815F90509F477
:1047300006C266807780DD2482819381F7019283AF
:1047400081838816990609F45EC0D7011196ED9110
:10475000FC91129766817781BFE0DB9E8001112476
:104760000A0D1B1DF80171836083675E7F4F7383A1
:10477000628369517040DB0191968C91919784839B
:1047800042E050E05683458356968C915697878336
:1047900093968C919397808794968D919D910D908F
:1047A000BC91A02D81879287A387B487FB01A7893D
:1047B000B08D8C91853A09F099C120E030E040E05D
:1047C00050E02F5F3F4F4F4F5F4FFD01E20FF31F50
:1047D0008081853AB1F3C901D8011E969C938E93CE
:1047E0001D97D39466167706B9F0D7011196ED910F
:1047F000FC91129782819381F701928381838816BD
:10480000990609F0A2CFD40112968D919C9113972D
:10481000928381839ACFDD24ED2CEC0C8FE0E89E0F
:1048200060011124C40CD51C80916A03882309F40B
:104830007CC0E0916B03F0916C030280F381E02D6A
:10484000F0936C03E0936B03B3E0ED36FB0709F4E0
:1048500080C1E0916B03F0916C03A680B780FF24C8
:104860006FE0762E54E0852E912C0280F381E02DAE
:10487000F0936C03E0936B0343E0ED36F40709F427
:10488000FDC0E0916B03F0916C0366817781F79C2A
:10489000800111240C0D1D1DD80111967C936E937F
:1048A000675E7F4F13967C936E93129769517040A9
:1048B000FB0181A114968C93149716969C928E926C
:1048C0001597868917968C93179783A118968C93C2
:1048D00084A195A1A6A1B7A1F80181879287A3879A
:1048E000B487FB01A789B08D8C91853A09F0FBC094
:1048F00020E030E040E050E02F5F3F4F4F4F5F4FF0
:10490000FD01E20FF31F8081853AB1F3C901D8019F
:104910001E969C938E931D97F394A616B70631F0BE
:10492000E0916B03F0916C03A0CFFF24EF0C8FE0BC
:10493000E89E60011124C40CD51C80917303882368
:1049400009F48AC0E0917403F09175030280F38149
:10495000E02DF0937503E0937403B3E0E637FB07B3
:1049600009F4DCC0E0917403F0917503A680B78070
:10497000FF2443E0842E912C32E0632E712C0280C0
:10498000F381E02DF0937503E093740343E0E63781
:10499000F40709F46CC0E0917403F091750366812B
:1049A00077815FE0F59E800111240C0D1D1DD8015B
:1049B00011967C936E93675E7F4F13967C936E93F4
:1049C000129769517040FB0181A114968C93149742
:1049D00016969C928E921597868917968C931797A8
:1049E00084899589892B21F016967C926E92159771
:1049F000DB0193968C919397F801808794968D9123
:104A00009D910D90BC91A02D81879287A387B4873B
:104A1000FB01A789B08D8C91853A09F072C020E026
:104A200030E040E050E02F5F3F4F4F4F5F4FFD01C0
:104A3000E20FF31F8081853AB1F3C901D8011E96B8
:104A40009C938E931D97F394A616B70631F0E091D0
:104A50007403F091750393CFFF24FE0CFB828091C9
:104A60008400909185003C01882499249CCB82810C
:104A7000938190937503809374038DCF828193818A
:104A800090936C0380936B03FCCEB1E0B09316035C
:104A90002BCDBB24E0911203F0911303868990E0A3
:104AA000FC01EE0FFF1FEE0FFF1FEE0FFF1FE80FC1
:104AB000F91FE95DFC4F8081823008F40DCDBB24E5
:104AC000B3940ACDE0915D03F0915E030580F68119
:104AD000E02D0680F781E02D828193819093620220
:104AE00080936102F1CB80E090E011CF80E090E014
:104AF00073CE80E090E0CACC909362028093610212
:104B0000C9CF80E090E09ACF8281938111968C93F7
:104B1000119712969C939C01F901CACA82819381D4
:104B200090937503809374031DCF828193811196B6
:104B30008C93119712969C939C01F90153CC82811E
:104B4000938111968C93119712969C939C01F90175
:104B5000F0CD8281938190936C0380936B0379CE27
:104B6000A3E0B0E0E6EBF5E20C945D3F1C01DC0154
:104B70001C92809114038983909114038FE0989F75
:104B8000C00111240E9472345C01009709F4ADC089
:104B9000898190911A039F5F90931A039091140357
:104BA000891708F4A6C064E0C62E1B82CA94BB8194
:104BB000EFE0BE9F400111248A0C9B1CF9E0CF9EC0
:104BC0007001112427E233E0E20EF31ED7018C912D
:104BD000882309F482C11196ED91FC91129702800D
:104BE000F381E02D1296FC93EE93119753E0652E1E
:104BF000712C6E0C7F1CE615F70509F4FEC4468087
:104C00005780DD2482819381F70192838183681626
:104C1000790609F45FC0D7011196ED91FC911297C6
:104C200066817781BFE0DB9E80011124080D191D8C
:104C3000F80171836083675E7F4F7383628369517C
:104C40007040DB0191968C919197848321E030E054
:104C50003683258356968C915697878393968C91AD
:104C60009397808794968D919D910D90BC91A02DE6
:104C700081879287A387B487FB01A789B08D8C9128
:104C8000853A09F0AEC220E030E040E050E02F5F0E
:104C90003F4F4F4F5F4FFD01E20FF31F8081853A79
:104CA000B1F3C901D8011E969C938E931D97D3949E
:104CB0004616570609F412C1D7011196ED91FC91E1
:104CC000129782819381F701928381836816790616
:104CD00009F0A1CFD30112968D919C9113979283E5
:104CE000818399CFC5010E94FF332396E2E10C94A2
:104CF000793F77240FB6F8940F9280911A03815070
:104D000080931A0380911A03882309F0A2C180912D
:104D10001403882309F49DC1A9E0DA2ECC24C3949E
:104D200080916103882399F1E0916603F091670314
:104D300006811781C8010C960E94D535B2E0EB2E92
:104D4000F12CE00EF11EC7010E94D535F8019689BD
:104D500080911503891718F49093150396899D9DEA
:104D6000C0011124895D9C4FB7010E948435E091F8
:104D70001203F0911303D80156969C9186899817D7
:104D800078F2C092160380916103882369F68091BE
:104D90002303882309F457C180912303882309F44E
:104DA00052C1F9E0CF2E44244A94542C66246394D3
:104DB00080911A03882309F02EC1809117039091E6
:104DC000180301969093180380931703809017039C
:104DD000909018038114910409F520915D0330919E
:104DE0005E0380915F039091600390935E038093D4
:104DF0005D033093600320935F03809119038F5FFD
:104E000080931903E0915D03F0915E038081882314
:104E100009F0D1C350926202409261028091610216
:104E2000909162028816990608F4ACC3DD24E091E3
:104E30005D03F0915E038081882309F449C0E0910D
:104E40005D03F0915E030580F681E02D06811781F8
:104E5000F801828193818816990608F4C6C3E2E0BE
:104E6000EE2EF12CE00EF11EC7010E94D535D801BF
:104E700054968D919C915597892B21F0C8010C96E1
:104E80000E94D535F801968980911503891718F489
:104E90009093150396899C9DC0011124895D9C4FB8
:104EA000B7010E948435E0911203F0911303D801F9
:104EB00056969C918689981708F4B9CFDD24D3942F
:104EC000E0915D03F0915E038081882309F0B7CF04
:104ED000509262024092610256C3DD24BB81BD0D37
:104EE000BB83CC2009F062CE8FE0B89F4001112433
:104EF0008A0C9B1CE0905D03F0905E03F7018081BB
:104F0000882309F471C10180F281E02D0280F381D0
:104F1000E02DD7011296FC93EE93119743E0642E97
:104F2000712C6E0C7F1CE615F70509F477C34680DB
:104F30005780DD243FE0C32E82819381F701928365
:104F400081836816790609F45EC0D7011196ED9148
:104F5000FC91129766817781DC9C80011124080DF9
:104F6000191DF80171836083675E7F4F73836283CD
:104F700069517040DB0191968C919197848322E076
:104F800030E03683258356968C9156978783939687
:104F90008C919397808794968D919D910D90BC9163
:104FA000A02D81879287A387B487FB01A789B08D45
:104FB0008C91853A09F016C320E030E040E050E0E3
:104FC0002F5F3F4F4F4F5F4FFD01E20FF31F808177
:104FD000853AB1F3C901D8011E969C938E931D9713
:104FE000D3944616570609F400C1D7011196ED91E6
:104FF000FC91129782819381F701928381836816D5
:10500000790609F0A2CFD30112968D919C91139746
:10501000928381839ACF809123038F5F80932303B0
:10502000DD2480911603882309F0A9C2DD2009F050
:10503000A6C2809123038150809323038091230390
:10504000882309F0B5CE80911603813011F40E94B7
:1050500093330F900FBE79821A829A8189819817B3
:1050600008F040CE69E4E62E62E0F62E8FC001978C
:1050700009F4B4C000E010E08A812A814A816A8183
:10508000EDB7FEB73E970FB6F894FEBF0FBEEDBF6B
:10509000ADB7BEB71196328221821396FC92EE9282
:1050A000129790E0FC01EE0FFF1FE80FF91FCF01F0
:1050B000880F991F880F991FE80FF91FEA0DFB1D34
:1050C0008281938115969C938E93149717961C93C7
:1050D0000E93169730E0F901EE0FFF1FE20FF31F5A
:1050E000CF01880F991F880F991FE80FF91FEA0D4C
:1050F000FB1D878118968C93189719961C92199707
:1051000050E0FA01EE0FFF1FE40FF51FCF01880FEB
:10511000991F880F991FE80FF91FEA0DFB1D858560
:1051200096851B969C938E931A9770E0FB01EE0F69
:10513000FF1FE60FF71FCF01880F991F880F991FD8
:10514000E80FF91FEA0DFB1D84811C968C931C97B8
:105150001D961C920E944208D1010D900020E9F793
:105160001197A219B3098A818F5F8A839A818981F5
:105170002DB73EB7225F3F4F0FB6F8943EBF0FBE2C
:105180002DBF981708F0AECD2A0E3B1E8A8190E005
:10519000FC01EE0FFF1FE80FF91FCF01880F991FC9
:1051A000880F991FE80FF91FEA0DFB1D8581968175
:1051B0008230910569F08330910508F458CF83302F
:1051C000910549F0049709F055CF04E410E054CF5D
:1051D00002E410E051CF03E510E04ECF02E510E00D
:1051E0004BCF80E090E05ECDDD24CB80CD0C8FE016
:1051F000C89E400111248A0C9B1CE0905F03F09034
:105200006003F7018081882309F486C00180F28160
:10521000E02D0280F381E02DD7011296FC93EE93EE
:10522000119723E0622E712C6E0C7F1CE615F7059A
:1052300009F4FEC146805780DD2482819381F70105
:10524000928381836816790609F45EC0D7011196AE
:10525000ED91FC91129766817781BFE0DB9E800122
:105260001124080D191DF80171836083675E7F4F5B
:105270007383628369517040DB0191968C919197A1
:10528000848322E030E03683258356968C915697AE
:10529000878393968C919397808794968D919D9117
:1052A0000D90BC91A02D81879287A387B487FB01C5
:1052B000A789B08D8C91853A09F091C120E030E04A
:1052C00040E050E02F5F3F4F4F4F5F4FFD01E20F37
:1052D000F31F8081853AB1F3C901D8011E969C93D2
:1052E0008E931D97D39446165706B9F0D7011196A1
:1052F000ED91FC91129782819381F70192838183D2
:105300006816790609F0A2CFD30112968D919C916F
:105310001397928381839ACFDD24ED2CEC0C8FE0E0
:10532000E89E60011124CA0CDB1C80916A0388236B
:1053300009F47CC0E0916B03F0916C030280F3816F
:10534000E02DF0936C03E0936B03B3E0ED36FB07C5
:1053500009F478C1E0916B03F0916C03868097802B
:10536000FF249FE0592E84E0682E712C0280F38187
:10537000E02DF0936C03E0936B0323E0ED36F2072E
:1053800009F4F6C0E0916B03F0916C0366817781BC
:10539000F59C800111240C0D1D1DD80111967C93E4
:1053A0006E93675E7F4F13967C936E93129769514D
:1053B0007040FB0181A114968C93149716967C92F1
:1053C0006E921597868917968C93179783A11896D6
:1053D0008C9384A195A1A6A1B7A1F801818792879A
:1053E000A387B487FB01A789B08D8C91853A09F01A
:1053F000F3C020E030E040E050E02F5F3F4F4F4FE0
:105400005F4FFD01E20FF31F8081853AB1F3C901BF
:10541000D8011E969C938E931D97F394861697063B
:1054200031F0E0916B03F0916C03A0CFFF24EF0CFF
:105430008FE0E89E60011124CA0CDB1C809173038D
:10544000882309F48AC0E0917403F0917503028007
:10545000F381E02DF0937503E0937403B3E0E63736
:10546000FB0709F4D4C0E0917403F09175038680C2
:105470009780FF2403E0602E712C12E0412E512C06
:105480000280F381E02DF0937503E093740323E031
:10549000E637F20709F465C0E0917403F0917503F3
:1054A000668177813FE0F39E800111240C0D1D1D64
:1054B000D80111967C936E93675E7F4F13967C9311
:1054C0006E93129769517040FB0181A114968C93E1
:1054D000149716967C926E921597868917968C93E0
:1054E000179784899589892B21F016965C924E92A4
:1054F0001597DB0193968C919397F801808794968A
:105500008D919D910D90BC91A02D81879287A3874D
:10551000B487FB01A789B08D8C91853A09F06AC0E8
:1055200020E030E040E050E02F5F3F4F4F4F5F4FB3
:10553000FD01E20FF31F8081853AB1F3C901D80163
:105540001E969C938E931D97F3948616970631F0C2
:10555000E0917403F091750393CFFF247F2C7E0CB0
:10556000C9CB82819381909375038093740394CF08
:105570008281938190936C0380936B0303CF60923D
:10558000160357CDDD24E0911203F09113038689B1
:1055900090E0FC01EE0FFF1FEE0FFF1FEE0FFF1F4D
:1055A000E80FF91FE95DFC4F8081823008F439CDA6
:1055B000DD24D39436CDE0915D03F0915E03058048
:1055C000F681E02D0680F781E02D82819381909312
:1055D00062028093610222CC80E090E019CF80E0EB
:1055E00090E07BCE80E090E0F6CC909362028093D6
:1055F0006102C9CF80E090E0A2CF828193811196B1
:105600008C93119712969C939C01F901F8CA8281A0
:105610009381909375038093740325CF8281938146
:1056200011968C93119712969C939C01F9017FCC53
:105630008281938111968C93119712969C939C0171
:10564000F901F8CD8281938190936C0380936B0371
:1056500081CE0F931F93CF93DF93EC01009789F0D6
:105660008091120390911303C817D90751F00FB618
:10567000F8940F928A859B858357934039F00F9059
:105680000FBEDF91CF911F910F9108958C899D8955
:1056900023E08136920799F3892B89F78E010E5FFB
:1056A0001F4FC8010E94D5359E8980911503891727
:1056B00010F49093150389E0989FC0011124895D2F
:1056C0009C4FB8010E948435E0911203F0911303BE
:1056D0009E898689981798F20E949333D0CFEF92D3
:1056E000FF920F931F93CF93DF930FB6F8940F920F
:1056F000009709F4DDC0EC018E010E5F1F4FC80159
:105700000E94D5358C899D89892B21F0CE010C967C
:105710000E94D53583E793E0B8010E9484350F904D
:105720000FBE8091120390911303C817D90761F13E
:1057300080912403882391F00FB6F8940F92E091A2
:105740005D03F0915E038081882369F48FEF9FEF02
:1057500090936202809361020F900FBECDB7DEB7C7
:10576000E6E00C94853FE0915D03F0915E030580D7
:10577000F681E02D0680F781E02D82819381909360
:10578000620280936102E8CF80912403882309F0AC
:1057900098C09091140380917303891709F494C001
:1057A00080911A03882309F088C010921603809113
:1057B0008400909185007C0100E010E0E0921B03E2
:1057C000F0921C0300931D0310931E0380911F038E
:1057D00090912003A0912103B09122038E159F0583
:1057E000A007B107B0F4E0911203F0911303A801F0
:1057F0009701281B390B4A0B5B0B84A195A1A6A12D
:10580000B7A1820F931FA41FB51F84A395A3A6A3BE
:10581000B7A3E0921F03F09220030093210310939B
:105820002203E0911203F0911303A0911203B091AF
:1058300013032081318157968D919C91589782173F
:10584000930730F046C08091150381508093150373
:105850008091150390E0FC01EE0FFF1FEE0FFF1F7C
:10586000EE0FFF1FE80FF91FE95DFC4F80818823D1
:1058700051F39091150389E0989FD0011124A95DFF
:10588000BC4F1196ED91FC9112970280F381E02DAF
:105890001296FC93EE931197CD010396E817F90742
:1058A00029F186819781909313038093120356CF39
:1058B000C0911203D09113031FCF81E08093160390
:1058C0004DCF0E9493334ACF1092130310921203CC
:1058D00045CF809112039091130360911203709150
:1058E0001303675E7F4F0E945C0BB2CF828193816E
:1058F00011968C93119712969C939C01F901D1CF2C
:10590000A0E0B0E0E6E8FCE20C94643F9C01009764
:1059100041F40E949333CDB7DEB7EBE00C94803FA7
:1059200077C180911A038F5F80931A03C091170388
:10593000D0911803C20FD31F8091120390911303CB
:1059400002960E94D535E0911203F0911303D383A0
:10595000C2838091170390911803C817D90708F4E0
:105960005BC080915D0390915E0360911203709122
:1059700013036E5F7F4F0E94A33580916102909167
:105980006202C817D90720F4D0936202C093610263
:105990000FB6F8940F9280911A03815080931A03E6
:1059A00080911A03882309F04DC080911403882345
:1059B00009F448C099E0F92EEE24E3948091610344
:1059C0008823B9F1E0916603F0916703C681D7811E
:1059D000CE010C960E94D5358E010E5F1F4FC80177
:1059E0000E94D5359E8980911503891710F49093F4
:1059F00015039F9DC0011124895D9C4FB8010E9431
:105A00008435E0911203F09113039E8986899817DB
:105A1000A8F2E0921603D2CF80915F0390916003C9
:105A200060911203709113036E5F7F4F0E94A33544
:105A3000AFCF80912303882389F4809116038130AE
:105A400009F495C080E00F900FBE882309F461CF60
:105A5000CDB7DEB7EBE00C94803FDAC08091230332
:105A6000882359F389E0C82EAA24AA94BA2C992431
:105A7000939480911A03882309F07DC080911703C5
:105A80009091180301969093180380931703E09068
:105A90001703F0901803E114F10409F520915D0358
:105AA00030915E0380915F039091600390935E0359
:105AB00080935D033093600320935F03809119030B
:105AC0008F5F80931903E0915D03F0915E03808105
:105AD000882309F087C0B0926202A092610280918F
