:100000000C9446030C9468030C9468030C946803E6
:100010000C9468030C9468030C9468030C946803B4
:100020000C9468030C9468030C9468030C946803A4
:100030000C9468030C9468030C9468030C94680394
:100040000C9468030C9468030C9468030C94680384
:100050000C9468030C9468030C9468030C94680374
:100060000C9468030C943B380C943A390C94680354
:100070000C9468030C9468030C9468030C94680354
:100080000C9498310C9468030C9468030C946803E6
:100090000C9412380C9411390C9468030C9486104B
:1000A0000C9468030C946B0C0C9468030C94680318
:1000B0000C9468030C94210C0C94F60C0C946803BB
:1000C0000C9468030C9468030C94460C0C94E93768
:1000D0000C94E8380C9468030C94C0370C94BF3827
:1000E0000C946803E4109D109D109D109D109D10B0
:1000F0009D109D10E4109D109D109D109D109D1051
:100100009D109D10E6109D109D109D109D109D103E
:100110009D109D101E119D109D109D109D109D10F5
:100120009D109D10E6109D109D109D109D109D101E
:100130009D109D101E119D109D109D109D109D10D5
:100140009D109D1026119D109D109D109D109D10BD
:100150009D109D1056119D109D109D109D109D107D
:100160009D109D109D109D109D109D109D109D1027
:100170009D109D10CC109D109D109D109D109D10E8
:100180009D109D100D119D109D109D109D109D1096
:100190009D109D1053119D109D109D109D109D1040
:1001A0009D109D1053119D109D109D109D109D1030
:1001B0009D109D103E119D109D109D109D109D1035
:1001C0009D109D103E119D109D109D109D109D1025
:1001D0009D109D10B7109D109D109D109D109D109D
:1001E0009D109D10E0109D109D109D109D109D1064
:1001F0009D109D10B7109D109D109D109D109D107D
:100200009D109D10E0109D109D109D109D109D1043
:100210009D109D102A119D109D109D109D109D10E8
:100220009D109D10FB109D109D109D109D109D1008
:100230009D109D10FB109D109D109D109D109D10F8
:100240009D109D10FD109D109D109D109D109D10E6
:100250009D109D1030119D109D109D109D109D10A2
:100260009D109D10C8100D0A0A0A476F6F646279CD
:10027000652E2E2E206E6F20737061636520666F71
:10028000722069646C65207461736B210D0A000D26
:100290000A0A0A48656C6C6F20576F726C64210DF6
:1002A0000A006E616E00696E660000407A10F35AB3
:1002B00000A0724E18090010A5D4E80000E87648A6
:1002C000170000E40B54020000CA9A3B000000E152
:1002D000F505000080969800000040420F000000E5
:1002E000A08601000000102700000000E8030000C5
:1002F00000006400000000000A000000000001008F
:10030000000000002C76D888DC674F0823DFC1DFAF
:10031000AE59E1B1B796E5E3E453C63AE6519976B2
:1003200096E8E6C28426EB898C9B62ED407C6FFCEC
:10033000EFBC9C9F40F2BAA56FA5F490055A2AF72E
:100340005C936B6CF9676DC11BFCE0E40D47FEF537
:1003500020E6B500D0ED902E03009435770500809F
:10036000841E080000204E0A000000C80C333333FE
:10037000330F986E12831141EF8D2114893BE6559E
:1003800016CFFEE6DB18D1844B381BF77C1D901D81
:10039000A4BBE424203284725E228100C9F124ECE3
:1003A000A1E53D27A0E0B0E0E8EDF1E00C94EE3CE3
:1003B000E9E0CE2EAA24A39488248A94982C77244A
:1003C000739405C00F900FBEBB2009F05FC08091F1
:1003D0002303882309F480C0809118038F5F8093E2
:1003E0001803B09068030FB6F8940F928091180329
:1003F00081508093180380911803882319F7809106
:1004000012038823F9F280915F03882371F1E09150
:100410006403F0916503C681D781CE010C960E94DA
:10042000DD338E010E5F1F4FC8010E94DD339E89B0
:1004300080911303891718F4909313039E899C9D50
:10044000C00111248B5D9C4FB8010E948C33E09158
:100450001003F09111039E8986899817A0F2A0924B
:10046000140380915F03882391F6809121038823F0
:1004700009F04DC080911403813009F0A3CF0E9490
:100480009B310F900FBEBB2009F4A1CF0FB6F8949B
:100490000F92E0916D03F0916E0306811781C80100
:1004A00002960E94DD3380911203815080931203E3
:1004B000809123038150809323030F900FBEF80196
:1004C0008789908D0E940732C8010E94073280916F
:1004D0002303882309F080CF80912503823008F41C
:1004E00076CF0E949B3173CF809121038F5F8093E1
:1004F0002103DD2480911403882309F095C0DD20B9
:1005000009F092C080912103815080932103809152
:100510002103882309F4AECF80911803882321F7A3
:100520008091150390911603019690931603809382
:100530001503E0901503F0901603E114F10409F59A
:1005400020915B0330915C0380915D0390915E0389
:1005500090935C0380935B0330935E0320935D0371
:10056000809117038F5F80931703E0915B03F091F5
:100570005C038081882309F073C0909261028092AD
:1005800060028091600290916102E816F90608F419
:100590004EC0DD24E0915B03F0915C0380818823F1
:1005A000F1F1E0915B03F0915C030580F681E02DB1
:1005B000C681D7818A819B81E816F90608F461C05B
:1005C0008E010E5F1F4FC8010E94DD338C899D890B
:1005D000892B21F0CE010C960E94DD339E898091FB
:1005E0001303891718F4909313039E899C9DC001EF
:1005F00011248B5D9C4FB8010E948C33E091100355
:10060000F09111039E898689981720F2DD24D394F6
:10061000E0915B03F0915C038081882311F6909256
:1006200061028092600204C0709214036BCFDD24DB
:10063000E0911003F0911103868990E0FC01EE0F28
:10064000FF1FEE0FFF1FEE0FFF1FE80FF91FEB5DFF
:10065000FC4F8081823008F44DCFDD24D3944ACF03
:10066000E0915B03F0915C030580F681E02D06804C
:10067000F781E02D828193819093610280936002E3
:1006800080CF9093610280936002D2CF11241FBE6D
:10069000CFEFD1E2DEBFCDBF00E00CBF12E0A0E0A3
:1006A000B2E0E0E5FAE700E00BBF02C007900D9270
:1006B000AA3DB107D9F71BBE16E1AAEDB2E001C011
:1006C0001D92A732B107E1F70E94D30A0C94263D90
:1006D0000C9400008F938FB78F93F8948091AF158F
:1006E0008F5F8093AF158091B0158F4F8093B015B9
:1006F0008091B1158F4F8093B1158091B2158F4FB6
:100700008093B2158F918FBF8F910895A1E1B0E0D2
:10071000ECE8F3E00C94E93C3C017F876E876A01CA
:10072000FC0117821682838181FD03C06FEF7FEF8A
:1007300071C39E012F5F3F4F398B288BF3012381BB
:10074000EE85FF8523FD859123FF8191FF87EE874D
:10075000882309F45CC3853251F4EE85FF8523FDBF
:10076000859123FF8191FF87EE87853229F490E000
:10077000B3010E941608E2CF982F10E08824992434
:100780001032B0F49B3269F09C3228F4903251F070
:10079000933271F40BC09D3239F0903349F41160FB
:1007A00028C01260146025C0186023C0106121C0E9
:1007B00017FD2AC0892F80538A3078F416FF06C0AF
:1007C000FAE09F9E902C1124980E13C03AE0839E6D
:1007D000802C1124880E10620CC09E3221F416FD6C
:1007E00016C3106406C09C3611F4106802C0983617
:1007F00059F4EE85FF8523FD959123FF9191FF87A5
:10080000EE87992309F0BCCF892F8554833020F4DB
:10081000812F8061905E07C0892F8556833008F054
:10082000A1C1812F8F7E86FD02C076E0972E6FE3F7
:10083000F62EF822953619F4F0E4FF2A07C0963612
:1008400019F420E8F22A02C091109A94F7FE0BC026
:100850003BE3391520F427E05CE3B52E0EC0B92C3C
:10086000B39427E00AC047E0491528F427E0BB24E9
:1008700047E0942E02C0292DBB24C60104969D8713
:100880008C87F6016081718182819381AE014F5F17
:100890005F4F0B2D0E940F076C010981202E33241E
:1008A00000FF04C003FD02C01DE209C0F1FE02C04A
:1008B0001BE205C0F2FC02C010E001C010E2C10161
:1008C0008C709070892BB9F1112311F483E001C071
:1008D00084E0881510F088240AC0881AF3FC07C049
:1008E00080E290E0B3010E9416088A94C9F71123B0
:1008F00029F0812F90E0B3010E94160823FE03C067
:1009000002EA12E00EC006EA12E00BC0E114F104A4
:1009100009F0805290E0B3010E9416080F5F1F4F4C
:1009200005C0EF2CFF24F0E1EF22FF24F8018491B1
:10093000882361F714C1F7FE12C0BC0C24FE04C06A
:100940008A81813309F4BA941B141CF0BB24B3943C
:100950002DC0F8E0FB1550F538E0B32E27C0F6FCAB
:1009600025C0892D90E08C159D054CF02CEFC2160A
:100970002FEFD20624F030E8F32A01C09A94992090
:1009800049F0E2E0F0E0EC0FFD1FE90DF11D808180
:100990008033A1F3F7FE0AC0B92CB394892D90E0FF
:1009A000C816D90614F0992401C09C18F7FC03C09E
:1009B00025E030E009C01C141D041CF021E030E0EB
:1009C00003C096012F5F3F4F112311F02F5F3F4F60
:1009D000992029F0892D90E00196280F391F882D44
:1009E00090E02817390714F0882401C0821A4F2C90
:1009F0005524C20189709070892B39F008C080E2BB
:100A000090E0B3010E9416088A948820C1F7112350
:100A100029F0812F90E0B3010E94160843FE07C021
:100A200008C080E390E0B3010E9416088A948820F1
:100A3000C1F7F7FE46C08601D7FE02C000E010E015
:100A400076010894E11CF11CE01AF10A41E050E043
:100A50004C0F5D1FE40EF51E26014B185108892D21
:100A600090E0AA24BB24A81AB90A5FEF0F3F15072C
:100A700029F48EE290E0B3010E941608C016D10658
:100A800034F0401651061CF4F701808101C080E368
:100A9000015010400894E11CF11C0A151B052CF0B4
:100AA00090E0B3010E941608E0CF0C151D0539F443
:100AB0009A81963318F4953311F424FE81E390E083
:100AC0004BC08A81813309F00F7E90E0B3010E9410
:100AD00016089920A1F08EE290E0B3010E9416085A
:100AE00012E0E1E0F0E0EC0FFD1FE10FF11D1F5FF0
:100AF000808190E0B3010E9416089A9491F744FC1B
:100B000003C085E690E002C085E490E0B3010E9456
:100B10001608D7FC05C0C114D10441F404FF06C077
:100B2000D094C194D108D3948DE201C08BE290E0BF
:100B3000B3010E94160880E305C08F5F26EF3FEFE8
:100B4000C20ED31E3AE0C316D104BCF790E0B30145
:100B50000E941608C601C096B3010E941608CC84F4
:100B6000DD8452C1933631F0933799F0933509F013
:100B700059C023C0F601808189835E010894A11CBD
:100B8000B11C22E030E0C20ED31E21E0E22EF12C97
:100B900012C0F601A080B18016FD03C06FEF7FEF99
:100BA00002C0692D70E022E030E0C20ED31EC50104
:100BB0000E940B087C011F7713C0F601A080B18052
:100BC00016FD03C06FEF7FEF02C0692D70E022E0D9
:100BD00030E0C20ED31EC5010E94F0077C011068F0
:100BE00013FF07C01BC080E290E0B3010E9416080B
:100BF0008A94882D90E0E816F906A8F30FC0F50155
:100C000017FD859117FF81915F0190E0B3010E946C
:100C1000160881108A940894E108F108E114F1049F
:100C200071F7F2C0943611F0993689F517FF08C0B4
:100C3000F601208131814281538184E090E00AC035
:100C4000F601808191819C01442737FD4095542F06
:100C500082E090E0C80ED91E9FE6F92EF12257FFE0
:100C600009C050954095309521953F4F4F4F5F4FAC
:100C700090E8F92ACA01B901AE014F5F5F4F2AE03F
:100C800030E00E94BA08E82EE889EE1A41C0953794
:100C900021F41F7E2AE030E01CC0197F9F3661F0EE
:100CA000903720F4983509F0B2C00FC0903739F072
:100CB000983709F0ACC004C028E030E00AC01061E9
:100CC00014FD146020E130E004C014FD166020E142
:100CD00032E017FF08C0F601608171818281938143
:100CE00044E050E008C0F60180819181BC0180E0C1
:100CF00090E042E050E0C40ED51EAE014F5F5F4F62
:100D00000E94BA08E82E5889E51A8FE7F82EF122DA
:100D1000F6FE0BC08EEFF822E91438F4F4FE07C09B
:100D2000F2FC05C09FEEF92202C01E2D01C0192D54
:100D3000F4FE0DC0FE01EE0DF11D8081803319F42B
:100D4000E9EEFE2208C01F5FF2FE05C003C08F2D32
:100D5000867809F01F5F0F2DF3FC14C0F0FE0FC062
:100D6000181510F09E2C0BC09E2C980C911A182D63
:100D700006C080E290E0B3010E9416081F5F1815BC
:100D8000C0F304C0181510F4811A01C0882404FFB0
:100D90000FC080E390E0B3010E94160802FF1DC05F
:100DA00001FD03C088E790E00EC088E590E00BC02D
:100DB000802F867891F001FF02C08BE201C080E2B3
:100DC000F7FC8DE290E0B3010E94160806C080E3B4
:100DD00090E0B3010E9416089A94E914C0F3EA94D3
:100DE000E1E0F0E0EC0FFD1FEE0DF11D808190E0E1
:100DF000B3010E941608EE2091F706C080E290E051
:100E0000B3010E9416088A948820C1F797CCF30199
:100E100066817781CB016196E2E10C94053D283033
:100E200008F027E03327DA01990F311D87FD916023
:100E300000966105710539F432602E5F3D9330E311
:100E40002A95E1F708959F3F30F0803871056105DC
:100E500009F03C5F3C5F3D93913008F08068911D44
:100E6000DF93CF931F930F93FF92EF92192F987FE9
:100E70009695E92F96959695E90FFF27EC5FFC4F25
:100E800099273327EE24FF24A701E7010590089452
:100E9000079428F4360FE71EF81E491F511D660FF0
:100EA000771F881F991F0694A1F70590079428F4CF
:100EB000E70EF81E491F561FC11D770F881F991F87
:100EC000661F0694A1F70590079428F4F80E491FB1
:100ED000561FC71FD11D880F991F661F771F0694C5
:100EE000A1F70590079420F4490F561FC71FD81F7C
:100EF000990F661F771F881F0694A9F78491109594
:100F0000177041F0D695C79557954795F794E79494
:100F10001A95C1F7EAEAF2E06894159015913591B7
:100F20006591959105907FE27395E118F10A430B65
:100F3000560BC90BD009C0F7E10CF11E431F561F19
:100F4000C91FD01D7EF4703311F48A95E6CFE89462
:100F5000015030F0080F0AF40027021708F4202F80
:100F60002395022F7A3328F079E37D932A95E9F7C8
:100F700010C07D932A9589F60694979567953795C5
:100F800017951794E118F10A430B560BC90BD009BA
:100F900098F023957E9173957A3308F070E37C93F3
:100FA0002013B8F77E9170617D9330F0839571E3E3
:100FB0007D9370E32A95E1F71124EF90FF900F9154
:100FC0001F91CF91DF91992787FD90950895FC019E
:100FD00005900020E9F7809590958E0F9F1F08954A
:100FE000FC010590615070400110D8F780959095F4
:100FF0008E0F9F1F0895FB01DC0102C001900D922E
:1010000041505040D8F70895DC0101C06D93415024
:101010005040E0F70895FC016150704001900110CC
:10102000D8F7809590958E0F9F1F08950F931F936B
:10103000CF93DF938C01EB018B8181FF1BC082FF7B
:101040000DC02E813F818C819D812817390764F462
:10105000E881F9810193F983E88306C0E885F98581
:10106000802F1995892B31F48E819F8101969F8362
:101070008E8302C00FEF1FEFC801DF91CF911F9148
:101080000F910895AEE0B0E0E8E4F8E00C94F73C8E
:101090000E891F8986E08C831A8309838FEF9FE76F
:1010A0009E838D839E01265E3F4FCE010196688D03
:1010B000798DA9010E9486032F813885020F131FA5
:1010C000F80110822E96E4E00C94133DAEE0B0E0FF
:1010D000ECE6F8E00C94F73C8C0177FF02C060E08E
:1010E00070E8615070407E836D831A83098386E0C7
:1010F0008C83CE010196BA01A9010E9486032D813D
:101100003E8137FD09C0EF81F8852E173F070CF4AB
:10111000F901E00FF11F10822E96E4E00C94133DCC
:10112000AEE0B0E0E6E9F8E00C94F73C8C0177FF24
:1011300002C060E070E8615070407E836D831A8366
:1011400009838EE08C83CE010196BA01A9010E9429
:1011500086032D813E8137FD09C0EF81F8852E176A
:101160003F070CF4F901E00FF11F10822E96E4E026
:101170000C94133DFA01AA27283051F1203181F156
:10118000E8946F936E7F6E5F7F4F8F4F9F4FAF4F8F
:10119000B1E03ED0B4E03CD0670F781F891F9A1FA2
:1011A000A11D680F791F8A1F911DA11D6A0F711D56
:1011B000811D911DA11D20D009F468943F912AE062
:1011C000269F11243019305D3193DEF6CF0108954A
:1011D000462F4770405D4193B3E00FD0C9F7F6CF7B
:1011E000462F4F70405D4A3318F0495D31FD405243
:1011F000419302D0A9F7EACFB4E0A69597958795D9
:1012000077956795BA95C9F70097610571050895B7
:101210009B01AC010A2E0694579547953795279563
:10122000BA95C9F7620F731F841F951FA01D0895FB
:1012300008950895A0E2B0E0E0E2F9E00C94F13CFA
:1012400019821A821B821C828CE0FE013596DF0116
:10125000282F1D922A95E9F7198A1A8A1B8A1C8A57
:10126000FE017596DF011D928A95E9F70E948E0EA8
:101270007B018C010E942F0E2DB73EB72C503040C1
:101280000FB6F8943EBF0FBE2DBFEDB7FEB7319637
:1012900021E1A22EB12CAC0EBD1EADB7BEB7129689
:1012A000BC92AE92119720E032E033832283E48235
:1012B000F5820683178360877187828793870E94F0
:1012C0004208C0908715D09088152DB73EB7245F8F
:1012D0003F4F0FB6F8943EBF0FBE2DBF0E94470F81
:1012E0007C010E944C0FADB7BEB71A970FB6F894A9
:1012F000BEBF0FBEADBFEDB7FEB731968E010F5F1B
:101300001F4F12961C930E93119724E132E0338302
:101310002283D582C482F782E682918780870E94E9
:1013200042082DB73EB7265F3F4F0FB6F8943EBF39
:101330000FBE2DBFC801B5010E94230AA096EAE0A6
:101340000C940D3D8091871590918815009769F058
:1013500081309105A1F082309105B1F0039751F0F1
:1013600084E090E00E94DF0E089580E090E00E940B
:10137000DF0E089582E090E00E94DF0E089581E084
:1013800090E00E94DF0E089583E090E00E94DF0E5F
:1013900008950E94C20F009781F083709070892B8E
:1013A00061F480918715909188158430910529F01A
:1013B000019690938815809387150895A2E0B0E078
:1013C000E4EEF9E00C94F73C0E94C0179A838983FD
:1013D0008E010F5F1F4F0E94510FC8016DE770E033
:1013E0000E94102C0E94C9090E94A2090E941A0999
:1013F0000E94C70FC8016DE770E00E94102CEBCF70
:101400000E94A90A0E94B90F0E94440A0E942B0F51
:101410000E94BD0F109288151092871584E090E00D
:1014200090938C1580938B1508951F93182F81E04E
:1014300090E06EEF0E94C93581E090E0612F0E943C
:10144000C9351F910895EF92FF920F931F938C015E
:101450007B0181E090E00E94150A80E890E00E9404
:10146000150A81E090E0B8010E94803A80EC90E09B
:101470000E94150A81E090E0B7010E94803A1F9116
:101480000F91FF90EF9008950F931F9381E090E0EC
:1014900040E855E260E070E02FEF30E000E410E05B
:1014A0000E94E33B539A5B9A8CE090E00E94150AFD
:1014B00081E090E00E94150A1F910F9108951F93FB
:1014C000182F81E090E06EEF0E94C93581E090E036
:1014D000612F0E94C9351F910895EF92FF920F93DB
:1014E0001F938C017B0181E090E00E945F0A80E8FD
:1014F00090E00E945F0A81E090E0B8010E94803A8B
:1015000080EC90E00E945F0A81E090E0B7010E94C9
:10151000803A1F910F91FF90EF9008950F931F93C2
:1015200081E090E040E855E260E070E02FEF30E0CD
:1015300000E410E00E94E33B539A5B9A8CE090E059
:101540000E945F0A81E090E00E945F0A1F910F9164
:101550000895E1E0F1E08081886080836B9A6D9A64
:10156000E2E0F1E0808188608083739A759A089543
:10157000882361F080910201877F809302016623B6
:1015800061F07398442361F4759A08958091020183
:101590008860809302016623A1F7739A4423A1F324
:1015A00075980895FFCFAF92BF92CF92DF92EF92DE
:1015B000FF920F931F9380E090E040E052EC61E0D7
:1015C00070E02FEF30E000E410E00E94E33B9093E6
:1015D0008E1580938D158FE892E00E94D2390E947B
:1015E000000A8EED99E063E272E040E051E020E015
:1015F00030E003E0EE24FF24CC24DD24AA24BB2425
:101600000E941B2E0E94202F86E692E00E94D23973
:1016100080E090E01F910F91FF90EF90DF90CF90CE
:10162000BF90AF9008959C01DC01AA0FBB1FAC01D5
:10163000440F551F440F551F440F551FFD01E40F64
:10164000F51FE454FD4F0190F081E02D80819181E0
:101650008C54944085579E4020F080E59AE0918319
:101660008083F901EE0FFF1FEE0FFF1FE20FF31F44
:10167000EE0FFF1FE254FD4F0190F081E02DA40F0B
:10168000B51FA454BD4F14964D915C9115972081C0
:1016900081E090E016960C90169702C0880F991F73
:1016A0000A94E2F7282B2083FA0120818095822377
:1016B00080831896ED91FC9119970084F185E02DB7
:1016C00020811796AC91A13069F0A13030F480E808
:1016D0009FEB822B892380830895A230E9F788E06D
:1016E0009BEFF7CF80E29FEEF4CFCF93DF93FC0127
:1016F000EE0FFF1FEE0FFF1FE80FF91FEE0FFF1F8A
:10170000E254FD4F40815181DC01AA0FBB1FAA0F9B
:10171000BB1FAA0FBB1F880F991FA80FB91FA45486
:10172000BD4F1496ED91FC911597EA01288181E057
:1017300090E016960C90169702C0880F991F0A9495
:10174000E2F7282B288320818095822380831896B6
:10175000ED91FC9119970084F185E02D9081179609
:101760008C91813069F0813030F48FE3892380835C
:10177000DF91CF910895823029F0DF91CF910895C4
:101780008FECF4CF83EFF2CF9C01CB018C549440CB
:1017900085579E4098F4C901F901EE0FFF1FEE0F27
:1017A000FF1FEE0FFF1F880F991FE80FF91FE4546A
:1017B000FD4F0190F081E02D7183608308959C01BD
:1017C000FC01EE0FFF1FEE0FFF1FEE0FFF1F220F9A
:1017D000331FE20FF31FE454FD4F0190F081E02D21
:1017E00020813181C9010895CF93DF93DC01EB01A2
:1017F000F894FC01EE0FFF1FE251FD4F80819181B3
:10180000019739F020E030E07894C901DF91CF9161
:101810000895AA0FBB1FAA0FBB1FAA51BD4F8D91E0
:101820009D910D90BC91A02D88839983AA83BB8341
:101830001182108221E030E07894C901DF91CF91CC
:1018400008951F920F920FB60F9211248F939F93BA
:10185000AF93BF938091DA029091DB02A091DC02FA
:10186000B091DD020196A11DB11D8093DA02909323
:10187000DB02A093DC02B093DD02BF91AF919F9198
:101880008F910F900FBE0F901F9018951F920F927F
:101890000FB60F9211248F939F93AF93BF938091B4
:1018A000DE029091DF02A091E002B091E102019688
:1018B000A11DB11D8093DE029093DF02A093E00290
:1018C000B093E102BF91AF919F918F910F900FBEA6
:1018D0000F901F9018951F920F920FB60F920BB694
:1018E0000F921124EF92FF920F931F932F933F9328
:1018F0004F935F936F937F938F939F93AF93BF9318
:10190000CF93DF93EF93FF93E0919C02F0919D02C0
:10191000808180628083E091A202F091A302C08165
:10192000D1812091DA023091DB024091DC025091AA
:10193000DD021092DA021092DB021092DC021092A9
:10194000DD02211531054105510509F444C080919E
:10195000E2029091E3027E0100E010E0A0E0B0E03E
:10196000E81AF90A0A0B1B0BCA01B9012FE33CE97B
:1019700040E050E00E94A83CE60EF71E081F191F29
:10198000E092E602F092E7020093E8021093E90287
:1019900081E090E09093EF028093EE02D093E30217
:1019A000C093E202FF91EF91DF91CF91BF91AF9190
:1019B0009F918F917F916F915F914F913F912F9167
:1019C0001F910F91FF90EF900F900BBE0F900FBEE5
:1019D0000F901F9018958091E2029091E3029E0172
:1019E000281B390B790100E010E0CACF1F920F923B
:1019F0000FB60F920BB60F921124EF92FF920F9336
:101A00001F932F933F934F935F936F937F938F9386
:101A10009F93AF93BF93CF93DF93EF93FF93A091E7
:101A20009A02B0919B02ED91FC91119780818062A6
:101A300080831696ED91FC911797C081D1812091FA
:101A4000DE023091DF024091E0025091E1021092FB
:101A5000DE021092DF021092E0021092E1022115E4
:101A600031054105510509F444C08091E40290918B
:101A7000E5027E0100E010E0A0E0B0E0E81AF90A1B
:101A80000A0B1B0BCA01B9012FE33CE940E050E00F
:101A90000E94A83CE60EF71E081F191FE092EA02FA
:101AA000F092EB020093EC021093ED0281E090E0E3
:101AB0009093F1028093F002D093E502C093E40288
:101AC000FF91EF91DF91CF91BF91AF919F918F9156
:101AD0007F916F915F914F913F912F911F910F9146
:101AE000FF90EF900F900BBE0F900FBE0F901F90C6
:101AF00018958091E4029091E5029E01281B390B14
:101B0000790100E010E0CACF8091A0008F7380932C
:101B1000A0008091A0008F7C8093A0008091A00005
:101B2000837F8093A0008091A0009091A1008360AA
:101B300098618093A0009093A1008091A1008260A1
:101B40008A7F8093A1002EE33CE93093A900209383
:101B5000A800809120018F73809320018091200143
:101B60008F7C8093200180912001837F80932001CE
:101B700080912001909121018360986180932001E0
:101B8000909321018091210182608A7F80932101BD
:101B900030932901209328011092E3021092E2026F
:101BA0001092DA021092DB021092DC021092DD0237
:101BB00080910A018E7F80930A0180910B018E7FB4
:101BC00080930B01E0919E02F0919F0280818062E0
:101BD0008083808181608083E091A602F091A702DA
:101BE0008081806480831092E5021092E40210925A
:101BF000DE021092DF021092E0021092E102809168
:101C00000A018D7F80930A0180910B018D7F809363
:101C10000B01A0919A02B0919B021296ED91FC915A
:101C200013978081806280831296ED91FC911397C7
:101C30008081816080831A96ED91FC911B97808151
:101C400080648083089510928000E1E8F0E01082C3
:101C5000109285001092840084E080830895209182
:101C60008F15309190154091911550919215B901B1
:101C7000CA010895EF92FF920F931F9360E070E006
:101C80000E94F40B0197C9F0E0909315F090941521
:101C90000091951510919615C701D8018093931561
:101CA00090939415A0939515B0939615B701C8011C
:101CB0001F910F91FF90EF90089560910000709137
:101CC000010080910200909103000E94D5342DEB19
:101CD00037E346E055E30E9463359B01AC016CE7B6
:101CE00072EF80EB9BE30E946D347B018C0160916D
:101CF0008F157091901580919115909192152CE708
:101D000032EF40EB5BE30E94093460938F157093D0
:101D100090158093911590939215BECFEF92FF92FC
:101D20000F931F9380E090E00E943A0E7B018C019C
:101D300081E090E00E943A0E9B01AC01C801B7011E
:101D40000E94093420E030E040E05FE30E94633508
:101D50001F910F91FF90EF9008958330910571F0DE
:101D600082309105B1F085309105F1F0049709F0CA
:101D7000089582E090E00E94130B089582E090E0C5
:101D80006CE474E00E94C40B82E090E00E94130BAC
:101D9000089582E090E060EC72E10E94C40B82E062
:101DA00090E00E94130B089582E090E066E87BE0EB
:101DB0000E94C40B82E090E00E94130B08950097EC
:101DC00069F08130910569F18330910509F43EC0D5
:101DD0008230910509F10497B1F0089580E090E018
:101DE00060EC72E10E94C40B80E090E00E94130B53
:101DF00081E090E06CE474E00E94C40B81E090E02C
:101E00000E94130B089581E090E00E94750B80E022
:101E100090E00E94750B089580E090E06CE474E01F
:101E2000E1CF80E090E06CE474E00E94C40B80E0BD
:101E300090E00E94130B81E090E060EC72E10E9460
:101E4000C40B81E090E00E94130B089580E090E0C5
:101E500060EC72E1EACF0E94840D80E090E0A0E0A7
:101E6000B0E08093931590939415A0939515B0933B
:101E7000961580938F1590939015A0939115B0931C
:101E8000921508958091AB159091AC1508958091AD
:101E9000A9159091AA1508958091A7159091A8155C
:101EA0000895A4E0B0E0E7E5FFE00C94E93C07E921
:101EB00015E1CC24DD24AA24BB24882499245EEFD8
:101EC000E52E5FEFF52E2E010894411C511C43E0D6
:101ED000642E712C6C0E7D1E31ED232E3324339431
:101EE0000BC0A80EB91E0E5F1F4F0894E11CF11C19
:101EF00025E1073A1207F9F020ED29838E2D8C5F3A
:101F00008A832B823C82C20162E00E940B10C301D3
:101F100062E00E940B10C80162E00E945610F801B6
:101F2000818190E0C80ED91EF4E0EF16F104C8F2EA
:101F3000880E991ED8CFD594C794D594C794D594BC
:101F4000C794D092AC15C092AB15B594A794B59434
:101F5000A794B092AA15A092A915959487949594E8
:101F600087949092A8158092A7152496E2E10C948C
:101F7000053D80EC0E945F1108951092AE151092FD
:101F8000AD1508958091AD159091AE15089580918D
:101F9000AD159091AE1501969093AE158093AD1549
:101FA00008958091BC0080FDFCCF1092F40288EF70
:101FB00080935F0285EC8093BC0008958091BC0003
:101FC00080FDFCCF1092F40288EF80935F0285EED3
:101FD0008093BC000895AC018091BC0080FDFCCFD3
:101FE00060930F03662371F020E030E0F901E950BF
:101FF000FD4FDA01A20FB31F8C9180832F5F3F4FFB
:102000002617A0F31092F40288EF80935F0285EC0C
:102010008093BC000895FC018091BC0080FDFCCF42
:1020200060930F0380818093F702808180FD11C04F
:10203000623078F0DF01E8EFF2E0625070E0675064
:102040007D4F11968C91119781931196E617F707A2
:10205000C1F71092F40288EF80935F0285EA8093C3
:10206000BC000895AC018091BC0080FDFCCF2091A4
:10207000F40220FF19C0662381F020E030E0FA016D
:10208000E20FF31FD901A950BD4F8C9180832F5FC0
:102090003F4F2617A0F32091F402822F8D7F80936B
:1020A000F402822F8170089580E00895AC01809140
:1020B000BC0080FDFCCF8091F402282F217080FFAE
:1020C00013C0662389F020E030E0FA01E20FF31F2D
:1020D000D901A950BD4F8C9180832F5F3F4F2617A8
:1020E000A0F32091F4022170822F08958091F502CF
:1020F000882319F089B189B1FDCF81E008958091DD
:10210000BC0080FDFCCF80915F0208951F920F926A
:102110000FB60F920BB60F9211242F933F938F930C
:102120009F93AF93BF93EF93FF938091B90090E09B
:10213000FC013897E13CF105B0F08091B900809343
:102140005F0285ED8093BC00FF91EF91BF91AF914D
:102150009F918F913F912F910F900BBE0F900FBECB
:102160000F901F901895EE58FF4F0C94203D8091D2
:10217000F6029091BB00E82FF0E0E950FD4F90830C
:102180008F5F8093F6028091F40281608093F40265
:1021900085EC8093BC00D8CF2091F6028091BB00E3
:1021A000E22FF0E0E950FD4F80832F5F2093F6028D
:1021B00030E080910F0390E001972817390744F32E
:1021C00085E88093BC00C0CF1092F6029091F60291
:1021D00080910F03981708F05DC0E92FF0E0E950F7
:1021E000FD4F80818093BB009F5F9093F60285E84E
:1021F0008093BC00A9CF1092F6029091F602E92FCD
:10220000F0E0E950FD4F80818093BB009F5F909389
:10221000F60285EC8093BC0097CF8091BB00E091E3
:10222000F602F0E0E950FD4F80838091F402816076
:102230008093F40284ED8093BC0086CF8091B90036
:1022400080935F0285EE8093BC007ECF85EE809305
:10225000BC007ACF84E08093F5028093BC0074CFF9
:102260009091F60280910F03981719F18091B900AF
:1022700080935F0284E08093BC0066CF8091F4027B
:10228000846082608093F4021092F60285EC809361
:10229000BC005ACF8091F40281608093F40284E9FB
:1022A0008093BC0051CF8091F402EBCF2091F602D5
:1022B0007FCF8091F40281608093F402DBCF1F9383
:1022C000182F8091F2029091F302892BA9F08AB124
:1022D0008C7F8AB98BB183608BB91092B9008CE284
:1022E0008093B8001093BA008FEF8093BB0084E016
:1022F0008093BC001F91089581E060E043E00E945C
:102300004C179093F3028093F202009701F360E080
:1023100070E040E050E020E00E94B914D8CF1F9355
:10232000182F8091F2029091F302892B69F08AB103
:102330008C7F8AB91093BA008FEF8093BB0084E042
:102340008093BC001F91089581E060E043E00E940B
:102350004C179093F3028093F202009741F360E0F0
:1023600070E040E050E020E00E94B914E0CF0FB6EA
:10237000F8940F92FC01828D0F900FBE0895FC011E
:102380000FB6F8940F92928D0F900FBE838D891B1C
:102390000895FC01828D0895FC01878D0895FC014C
:1023A000678F0895FC0180A10895FC01828D90E063
:1023B000882309F491E0892F0895FC01928D20E093
:1023C000838D981711F0822F089521E0822F0895B0
:1023D000CF93DF93EC0188819981009711F00E94DF
:1023E0000732CE010E940732DF91CF9108950F93FB
:1023F0001F93CF93DF93562FE72FEC018A8D88230D
:10240000F1F00E811F816881798161157105A1F05C
:102410004C8D9801240F311D3F832E838A819B812F
:102420002817390710F07F836E836E817F81852F97
:102430009E2F50E00E94FB071F830E8381E0DF91F7
:10244000CF911F910F9108950F931F93CF93DF9317
:10245000FB018A01EC018A8D882319F16881798159
:1024600061157105A1F04C8D8E819F81840F911DA6
:102470009F838E832A813B818217930710F07F838D
:102480006E836E817F81CF0150E00E94FB078A8DB1
:1024900081508A8F8D8D8F3F49F08D8D8F5F8D8F0D
:1024A00081E0DF91CF911F910F9108958885882356
:1024B00031F481E0DF91CF911F910F910895CE010A
:1024C00008960E94D4198823A1F30115110589F3F8
:1024D00081E0F8018083E5CFA5E0B0E0E2E7F2E13A
:1024E0000C94EB3C562E472E5D834C83A22E8C0120
:1024F00028E0C22ED12CC80ED91E91E1E92EF12C74
:10250000E00EF11E20E04E010894811C911C84E035
:10251000682E712C6C0E7D1EBB24BA940FB6F894F5
:102520000F92F801828D882309F0ECC08C819D8187
:10253000892B09F41CC1222309F4D5C00F900FBECA
:102540000E94BA170FB6F8940F92F801858D8F3F4D
:1025500009F4C7C0F801868D8F3F09F4C0C00F9001
:102560000FBEC401B3010E94DF17882309F007C121
:102570000FB6F8940F92F801828D0F900FBE88234A
:1025800009F05FC0F80180819181892B09F4AFC007
:102590006C817D81C7010E94BE1B0FB6F8940F921B
:1025A000F801868D18164CF019C0F801868D8150FF
:1025B000868F868D181694F4F8018189882371F02E
:1025C000C7010E94D419882381F30E941E18F801C4
:1025D000868D8150868F868D181674F3F801B68E1D
:1025E0000F900FBE0FB6F8940F92F801858D181654
:1025F0004CF019C0F801858D8150858F858D181696
:1026000094F4F8018085882371F0C6010E94D419E2
:10261000882381F30E941E18F801858D8150858FD3
:10262000858D181674F3F801B58E0F900FBE0E94B9
:10263000D41C882311F021E071CF0E949B3121E04E
:102640006DCF0FB6F8940F92F801868D18164CF0E6
:1026500019C0F801868D8150868F868D181694F4E6
:10266000F8018189882371F0C7010E94D419882359
:1026700081F30E941E18F801868D8150868F868D09
:10268000181674F3F801B68E0F900FBE0FB6F894BB
:102690000F92F801858D18164CF019C0F801858D40
:1026A0008150858F858D181694F4F80180858823D4
:1026B00071F0C6010E94D419882381F30E941E186C
:1026C000F801858D8150858F858D181674F3F8017A
:1026D000B58E0F900FBE0E94D41C21E01FCF168E26
:1026E0003ECF158E37CFC4010E94D41727CF0FB627
:1026F000F8940F92F801828193810E944C190F90F7
:102700000FBE46CF8680978060817181611571050B
:10271000A1F0448D9401240F311D378326838281DB
:1027200093812817390708F08CC0F80166817781FA
:10273000852D942D50E00E94FB07AA2009F073C05C
:10274000F801828D8150828F80819181892B09F4DB
:1027500081C0F8018085882309F46BC0C6010E94FE
:10276000D419813009F065C00E949B3162C00F907E
:102770000FBE80E02596E0E10C94073D71C00FB6D6
:10278000F8940F92F801868D18164CF019C0F801D4
:10279000868D8150868F868D181694F4F801818974
:1027A000882371F0C7010E94D419882381F30E9405
:1027B0001E18F801868D8150868F868D181674F349
:1027C0008FEFF801868F0F900FBE0FB6F8940F921F
:1027D000F801858D18164CF019C0F801858D8150CF
:1027E000858F858D181694F4F8018085882371F003
:1027F000C6010E94D419882381F30E941E18F80193
:10280000858D8150858F858D181674F38FEFF801B3
:10281000858F0F900FBE0E94D41C80E02596E0E1CA
:102820000C94073D1DC0F801978286828189882318
:1028300059F40F900FBE81E02596E0E10C94073D1E
:102840000FC07783668371CFC7010E94D419882394
:1028500081F38ACF0E94FC18F8019383828379CF99
:10286000EF92FF921F93CF93DF937A01122FEC0127
:102870009A8D8B8D981748F0223039F080E0DF91E7
:10288000CF911F91FF90EF9008954C8D4423A9F4B0
:1028900088819981892B09F465C08A8D8F5F8A8F21
:1028A0008E8D8F3F89F18E8D8F5F8E8F81E0DF91CE
:1028B000CF911F91FF90EF900895112379F18E81B0
:1028C0009F8150E00E94FB078C8D90E044275527A4
:1028D000481B590B8E819F81840F951F9F838E8388
:1028E000288139818217930730F48A819B81840F74
:1028F000951F9F838E83123081F68A8D882369F21B
:102900008A8D81508A8FC9CF89898823F1F481E02B
:10291000DF91CF911F91FF90EF9008958C819D8161
:1029200050E00E94FB078C8D2C813D81280F311DCA
:102930003D832C838A819B812817390708F4ADCF0A
:10294000888199819D838C83A8CFCE0141960E9476
:10295000D4198823E1F2E114F104C9F281E0F7010E
:102960008083A5CF8A819B810E941A191B821A82BB
:1029700094CFA5E0B0E0EFEBF4E10C94EB3C562EE5
:10298000472E5D834C83B22E8C0158E0E52EF12C4E
:10299000E80EF91E41E1C42ED12CC80ED91E20E04C
:1029A0004E010894811C911C34E0632E712C6C0E36
:1029B0007D1EAA24AA940FB6F8940F92F801928D66
:1029C000838D981708F4E0C0F2E0BF1609F4DCC06C
:1029D0008C819D81892B09F41EC1222309F478C0C2
:1029E0000F900FBE0E94BA170FB6F8940F92F8011D
:1029F000858D8F3F09F46AC0F801868D8F3F09F4F9
:102A000063C00F900FBEC401B3010E94DF1788237B
:102A100009F009C10FB6F8940F92F801928D0F904A
:102A20000FBEF801838D981709F456C00FB6F894BD
:102A30000F92F801868D18164CF019C0F801868D9A
:102A40008150868F868D181694F4F8018189882329
:102A500071F0C6010E94D419882381F30E941E18C8
:102A6000F801868D8150868F868D181674F3F801D3
:102A7000A68E0F900FBE0FB6F8940F92F801858DB9
:102A800018164CF019C0F801858D8150858F858D01
:102A9000181694F4F8018085882371F0C7010E940C
:102AA000D419882381F30E941E18F801858D815066
:102AB000858F858D181674F3F801A58E0F900FBEC3
:102AC0000E94D41C21E077CF168E9BCF158E94CF19
:102AD000C4010E94D41784CF6C817D81C7010E94FC
:102AE000BE1B0FB6F8940F92F801868D18164CF0A5
:102AF00019C0F801868D8150868F868D181694F442
:102B0000F8018189882371F0C6010E94D4198823B5
:102B100081F30E941E18F801868D8150868F868D64
:102B2000181674F3F801A68E0F900FBE0FB6F89426
:102B30000F92F801858D18164CF019C0F801858D9B
:102B40008150858F858D181694F4F801808588232F
:102B500071F0C7010E94D419882381F30E941E18C6
:102B6000F801858D8150858F858D181674F3F801D5
:102B7000A58E0F900FBE0E94D41C882309F0A2CF0F
:102B80000E949B3121E017CFF801448D4423A9F422
:102B900080819181892B09F4BEC0F801828D8F5FFD
:102BA000828F8189882309F0ADC00F900FBE81E02C
:102BB0002596E0E10C94073DB6C0BB2009F487C020
:102BC000F80186819781652D742D50E00E94FB07E6
:102BD000F801848D90E044275527481B590B8681C6
:102BE0009781840F951F9783868320813181821777
:102BF000930730F482819381840F951F9783868396
:102C0000F2E0BF1651F6F801828D882331F2828DF1
:102C10008150828FC2CF0F900FBE80E02596E0E1F9
:102C20000C94073D80C00FB6F8940F92F801868D82
:102C300018164CF019C0F801868D8150868F868D4C
:102C4000181694F4F8018189882371F0C6010E9456
:102C5000D419882381F30E941E18F801868D8150B3
:102C6000868F868D181674F38FEFF801868F0F907C
:102C70000FBE0FB6F8940F92F801858D18164CF020
:102C800019C0F801858D8150858F858D181694F4B3
:102C9000F8018085882371F0C7010E94D419882328
:102CA00081F30E941E18F801858D8150858F858DD6
:102CB000181674F38FEFF801858F0F900FBE0E94E6
:102CC000D41C80E02596E0E10C94073D2CC0F8016F
:102CD00084819581652D742D50E00E94FB07F801D9
:102CE000848D24813581280F311D35832483828191
:102CF00093812817390708F450CF808191819583FB
:102D000084834BCFC6010E94D419813009F04DCF86
:102D10000E949B314ACF828193810E941A19F80147
:102D2000138212823ACF0F931F93CF93DF93182F02
:102D300081E290E00E947A32EC01009719F11B8247
:102D40001A82198218821D821C821F821E821A8E8C
:102D500081E08B8F1C8E8FEF8D8F8E8F18A3CE010D
:102D600008960E9478338E010F5E1F4FC8010E94A3
:102D700078330FB6F8940F929A8D8B8D981740F098
:102D80000F900FBECE01DF91CF911F910F9108954B
:102D90004C8D442391F488819981892B71F18A8D1E
:102DA0008F5F8A8F8989882301F50F900FBECE012E
:102DB000DF91CF911F910F9108958C819D8160E0EB
:102DC00070E050E00E94FB078C8D2C813D81280F24
:102DD000311D3D832C838A819B8128173907F8F2A6
:102DE000888199819D838C83DACFC8010E94D41990
:102DF0008130D9F60E949B31D8CF8A819B810E9475
:102E00001A191B821A82CBCFCF93DF93EC010FB636
:102E1000F8940F92EC8D2B8DE29FC0011124488114
:102E20005981840F951F9B838A831A8E5D834C83FF
:102E300030E021503040F0E02E9FC0012F9F900DD8
:102E40003E9F900D1124480F591F5F834E838FEFD3
:102E50008D8F8E8F662391F48885882331F40F90AF
:102E60000FBE81E0DF91CF910895CE0108960E94B8
:102E7000D4198130A1F70E949B31F1CFCE01089681
:102E80000E947833CE0141960E9478330F900FBE96
:102E900081E0DF91CF910895CF92DF92FF920F935F
:102EA0001F93CF93DF93182F062FF42E882359F406
:102EB00040E050E0CA01DF91CF911F910F91FF9048
:102EC000DF90CF90089581E290E00E947A32EC0189
:102ED000009771F3C02EDD24812F90E09C01C29EEB
:102EE000C001C39E900DD29E900D112401960E94A8
:102EF0007A32998388830097B9F11B8F0C8F0FB6B4
:102F0000F8940F922B8D30E0C29EC001C39E900DAD
:102F1000D29E900D112448815981840F951F9B8367
:102F20008A831A8E5D834C83215030408C8D90E0D3
:102F3000BC01269FC001279F900D369F900D112444
:102F4000480F591F5F834E838FEF8D8F8E8FCE0179
:102F500008960E947833CE0141960E9478330F90F4
:102F60000FBEF8A2AE01A6CFCE010E94073240E00C
:102F700050E0A0CF809118038F5F809318030895CD
:102F80000FB6F8940F9220911503309116030F900D
:102F90000FBEC90108952091150330911603C90190
:102FA0000895809112030895FC0180911703808396
:102FB0008091150390911603928381830895FC01FB
:102FC000DB010FB6F8940F92609115037091160310
:102FD0002D913C9111978FEF2F3F3807F9F0909189
:102FE000170380818917F1F04181528164177507B9
:102FF00008F5CB01841B950B82179307D8F4261B89
:10300000370B240F351F2D933C938091170380833A
:1030100080911503909116039283818380E00F9035
:103020000FBE089541815281CB01841B950B8217FD
:10303000930728F381E00F900FBE089581E08093FD
:1030400014030895FC01009711F082A1089580E017
:103050000895FC01009709F062A30895A0E0B0E094
:10306000E4E3F8E10C94EB3C3C018B015A01DB01F9
:103070008C91882309F48DC01196ED91FC911297E3
:103080000280F381E02D1296FC93EE93119723E0DA
:10309000C22ED12CC60ED71EEC15FD0509F483C037
:1030A00086809780FF249FE0E92E82E0482E512CF5
:1030B00082819381F80192838183C816D90609F42D
:1030C00055C0D8011196ED91FC911297C681D78118
:1030D000FE9CB0011124660D771DFB01D183C083D6
:1030E0006996D383C283699789A18483B682A582B6
:1030F0008E898783F3E0AF16B10409F43FC08BA13A
:10310000FB0180878CA19DA1AEA1BFA18187928781
:10311000A387B487AF89B88D8C91853A09F040C0F8
:1031200020E030E040E050E02F5F3F4F4F4F5F4FD7
:10313000FD01E20FF31F8081853AB1F3C901DB0184
:103140001E969C938E931D97F394C815D90511F183
:10315000D8011196ED91FC91129782819381F8012B
:1031600092838183C816D90609F0ABCFD601129697
:103170008D919C91139792838183A3CF8C899D8994
:10318000892B09F4BCCFDB0116965C924E92159701
:10319000B6CFFF248F2DCDB7DEB7E0E10C94073D0D
:1031A00080E090E0CCCF8281938111968C9311972F
:1031B00012969C939C01F90173CF0097B1F0FC012A
:1031C000A789B08D8C91853AA9F420E030E040E0E9
:1031D00050E02F5F3F4F4F4F5F4FFD01E20FF31F56
:1031E0008081853AB1F3822F0895E0911003F09128
:1031F0001103E6CF80E00895209110033091110370
:10320000C9010895E0911003F0911103848595851B
:10321000A0911003B0911103E0911003F0911103FC
:10322000468924E030E0241B31091D963C932E93FF
:103230001C9708950F931F93CF93DF93EC01009792
:1032400031F19E898BA1981711F18E010E5F1F4FEE
:10325000C8010E94DD332BA12E8B8C859D8597FDA7
:1032600006C084E090E0821B91099D878C879E892F
:1032700080911303891710F49093130389E0989FAA
:10328000C00111248B5D9C4FB8010E948C33DF91EB
:10329000CF911F910F9108950F931F93CF93DF93B9
:1032A000EC01009741F13E89E0911003F091110388
:1032B0008689381700F58C859D8597FD0BC0E091B8
:1032C0001003F0911103268984E090E0821B91099C
:1032D0009D878C8789E0389FC00111248B5D9C4FAE
:1032E0002A853B852817390759F0E0911003F091A2
:1032F000110386898E8BDF91CF911F910F910895D5
:103300008E010E5F1F4FC8010E94DD33E091100354
:10331000F091110396899E8B80911303891710F405
:103320009093130389E0989FC00111248B5D9C4FFB
:10333000B8010E948C33DFCF0F931F93CF93DF939D
:10334000FC01706871836083C681D7810E94DD3380
:103350008E010E5F1F4FC8010E94DD339E89809150
:103360001303891710F49093130389E0989FC00109
:1033700011248B5D9C4FB8010E948C33E0911003A7
:10338000F09111039E898689891740F481E080932A
:103390001403DF91CF911F910F91089580E0DF9189
:1033A000CF911F910F9108950F931F93CF93DF93A8
:1033B000DC011596ED91FC91169706811781E801C5
:1033C0002C96CE010E94DD3380911803882331F5BD
:1033D000E8012296CE010E94DD33F80196898091A2
:1033E0001303891708F189E0989FC00111248B5DB0
:1033F0009C4FBE010E948C33E0911003F0911103A9
:10340000D80156969C918689891788F481E080932B
:103410001403DF91CF911F910F9108958FE593E0F1
:10342000BE010E948C33E8CF90931303DCCF80E081
:10343000DF91CF911F910F910895A0E0B0E0E3E2FA
:10344000FAE10C94F33C80911803882309F089C0B9
:103450008091150390911603019690931603809323
:103460001503E0901503F0901603E114F10419F52B
:1034700020915B0330915C0380915D0390915E032A
:1034800090935C0380935B0330935E0320935D0312
:10349000809117038F5F80931703E0915B03F09196
:1034A0005C038081882309F086C08FEF9FEF9093A3
:1034B0006102809360028091600290916102E8163F
:1034C000F90608F460C0DD2449E0C42EE0915B03F6
:1034D000F0915C0380818823E9F1E0915B03F09136
:1034E0005C030580F681E02DC681D7818A819B81AE
:1034F000E816F90608F477C08E010E5F1F4FC80169
:103500000E94DD338C899D89892B21F0CE010C9698
:103510000E94DD339E8980911303891710F49093E4
:1035200013039C9DC00111248B5D9C4FB8010E9428
:103530008C33E0911003F09111039E8986899817CE
:1035400028F2DD24D394E0915B03F0915C03808149
:10355000882319F68FEF9FEF9093610280936002AA
:1035600013C0809121038F5F80932103DD2480911C
:103570001403882311F0DD24D3948D2DCDB7DEB74D
:10358000E8E00C940F3DDD24E0911003F09111036D
:10359000868990E0FC01EE0FFF1FEE0FFF1FEE0F7C
:1035A000FF1FE80FF91FEB5DFC4F80818230F8F2BE
:1035B000DD24D394DCCFE0915B03F0915C030580C4
:1035C000F681E02D0680F781E02D82819381909332
:1035D0006102809360028091600290916102E8161E
:1035E000F90688F270CF9093610280936002CCCF8D
:1035F000DF92EF92FF920F931F93CF93DF93EC0133
:103600008A859B858157934041F010E0812FCDB78B
:10361000DEB7E7E00C94103D42C08C899D8923E021
:103620008F35920791F3892B81F7809118038823B6
:1036300049F5DE88E0911003F0911103068952E00C
:10364000E52EF12CEC0EFD1EC7010E94DD336E89C4
:1036500080911303861710F46093130310E0D016C3
:1036600008F011E089E0689FC00111248B5D9C4F38
:10367000B7010E948C33812FCDB7DEB7E7E00C9401
:10368000103D0DC02C968FE593E0BE010E948C3357
:1036900010E0812FCDB7DEB7E7E00C94103D0F931B
:1036A0001F93CF93DF938A01E0911003F0911103F0
:1036B0007068758764876091100370911103645F6F
:1036C0007F4F0E948C3380911003909111030296DA
:1036D0000E94DD338FEF0F3F180709F440C0C091FF
:1036E0001503D0911603C00FD11FE0911003F09184
:1036F0001103D383C2838091150390911603C817D9
:10370000D907E0F080915B0390915C036091100316
:10371000709111036E5F7F4F0E94AB338091600206
:1037200090916102C817D90720F4D0936102C09329
:103730006002DF91CF911F910F91089580915D03F9
:1037400090915E0360911003709111036E5F7F4F43
:103750000E94AB33DF91CF911F910F91089560913B
:103760001003709111036E5F7F4F81E793E00E9419
:103770008C33DF91CF911F910F9108950F931F9379
:10378000CF93DF938B016091100370911103645FFD
:103790007F4F0E94AB3380911003909111030296EA
:1037A0000E94DD338FEF0F3F180709F440C0C0912E
:1037B0001503D0911603C00FD11FE0911003F091B3
:1037C0001103D383C2838091150390911603C81708
:1037D000D907E0F080915B0390915C036091100346
:1037E000709111036E5F7F4F0E94AB338091600236
:1037F00090916102C817D90720F4D0936102C09359
:103800006002DF91CF911F910F91089580915D0328
:1038100090915E0360911003709111036E5F7F4F72
:103820000E94AB33DF91CF911F910F91089560916A
:103830001003709111036E5F7F4F81E793E00E9448
:103840008C33DF91CF911F910F910895EF92FF92EA
:103850000F931F9380911803882309F093C010924F
:10386000140380918400909185007C0100E010E0B9
:10387000E0921903F0921A0300931B0310931C03A8
:1038800080911D0390911E03A0911F03B09120030E
:103890008E159F05A007B107B0F4E0911003F091D9
:1038A0001103A8019701281B390B4A0B5B0B84A15C
:1038B00095A1A6A1B7A1820F931FA41FB51F84A332
:1038C00095A3A6A3B7A3E0921D03F0921E03009355
:1038D0001F0310932003E0911003F0911103A091B6
:1038E0001003B09111032081318157968D919C91E5
:1038F00058978217930790F08091100390911103CD
:103900006091100370911103675E7F4F0E94D20A8D
:1039100005C080911303815080931303809113039A
:1039200090E0FC01EE0FFF1FEE0FFF1FEE0FFF1FD9
:10393000E80FF91FEB5DFC4F8081882351F39091D4
:10394000130389E0989FD0011124AB5DBC4F119601
:10395000ED91FC9112970280F381E02D1296FC9379
:10396000EE931197CD010396E817F90799F0868138
:10397000978190931103809310031F910F91FF90F3
:10398000EF90089581E0809314031F910F91FF90B1
:10399000EF9008958281938111968C9311971296DE
:1039A0009C939C01F901E3CFA0E0B0E0EAEDFCE1DB
:1039B0000C94F03C0FB6F8940F928091180381504C
:1039C0008093180380911803882309F0EDC080913B
:1039D0001203882309F4E8C0F9E0FF2EEE24E394F3
:1039E00080915F03882369F1E0916403F09165039E
:1039F000C681D781CE010C960E94DD338E010E5F09
:103A00001F4FC8010E94DD339E89809113038917DF
:103A100010F4909313039F9DC00111248B5D9C4F64
:103A2000B8010E948C33E0911003F09111039E893C
:103A300086899817A8F2E092140380915F03882387
:103A400099F680912103882309F4AAC0809121036B
:103A5000882309F4A5C0E9E0CE2EAA24AA94BA2CA2
:103A60009924939480911803882309F083C080914E
:103A700015039091160301969093160380931503F6
:103A8000E0901503F0901603E114F10409F520917C
:103A90005B0330915C0380915D0390915E03909392
:103AA0005C0380935B0330935E0320935D038091FE
:103AB00017038F5F80931703E0915B03F0915C0322
:103AC0008081882309F097C0B0926102A0926002C1
:103AD0008091600290916102E816F90608F473C0C3
:103AE000DD24E0915B03F0915C0380818823E9F1A0
:103AF000E0915B03F0915C030580F681E02DC681C7
:103B0000D7818A819B81E816F90608F485C08E0169
:103B10000E5F1F4FC8010E94DD338C899D89892B60
:103B200021F0CE010C960E94DD339E898091130313
:103B3000891710F4909313039C9DC00111248B5D91
:103B40009C4FB8010E948C33E0911003F091110357
:103B50009E898689981728F2DD24D394E0915B032F
:103B6000F0915C038081882319F6B0926102A092E3
:103B700060022AC0809121038F5F80932103DD249E
:103B8000809114038823E1F4DD20D1F48091210396
:103B900081508093210380912103882309F062CF13
:103BA00080911403813041F080E00F900FBECDB7BB
:103BB000DEB7EBE00C940C3D0E949B3181E0F5CF29
:103BC00090921403E3CFDD24E0911003F0911103F0
:103BD000868990E0FC01EE0FFF1FEE0FFF1FEE0F36
:103BE000FF1FE80FF91FEB5DFC4F8081823040F230
:103BF000DD24D394C5CFE0915B03F0915C03058095
:103C0000F681E02D0680F781E02D828193819093EB
:103C10006102809360025CCF9093610280936002A6
:103C2000D3CFA4E0B0E0E7E1FEE10C94E93C1C0155
:103C3000DC011C92809112038983909112038FE022
:103C4000989FC00111240E947A322C01009709F438
:103C5000ADC08981909118039F5F90931803909154
:103C60001203891708F4A6C084E0C82E1C82CA94E7
:103C7000BC81EFE0BE9F50011124A40CB51CF9E0FB
:103C8000CF9E7001112445E253E0E40EF51ED701EA
:103C90008C91882309F484C11196ED91FC911297BF
:103CA0000280F381E02D1296FC93EE93119703E0CE
:103CB000802E912C8E0C9F1CE815F90509F42CC55B
:103CC00066807780DD2482819381F70192838183EE
:103CD0008816990609F45FC0D7011196ED91FC9101
:103CE000129766817781BFE0DB9E800111240A0D67
:103CF0001B1DF80171836083675E7F4F738362834E
:103D000069517040DB0191968C919197848341E0D9
:103D100050E05683458356968C91569787839396A9
:103D20008C919397808794968D919D910D90BC91E5
:103D3000A02D81879287A387B487FB01A789B08DC7
:103D40008C91853A09F0D4C220E030E040E050E0A8
:103D50002F5F3F4F4F4F5F4FFD01E20FF31F8081F9
:103D6000853AB1F3C901D8011E969C938E931D9795
:103D7000D3946616770609F414C1D7011196ED9114
:103D8000FC91129782819381F70192838183881637
:103D9000990609F0A1CFD40112968D919C911397A9
:103DA0009283818399CFC2010E9407322496E2E177
:103DB0000C94053D1B820FB6F8940F928091180366
:103DC00081508093180380911803882309F0A4C1BF
:103DD00080911203882309F49FC199E0D92ECC2445
:103DE000C39480915F03882399F1E0916403F0917B
:103DF000650306811781C8010C960E94DD3322E01D
:103E0000E22EF12CE00EF11EC7010E94DD33F80115
:103E1000968980911303891718F490931303968958
:103E20009D9DC00111248B5D9C4FB7010E948C3376
:103E3000E0911003F0911103D80156969C91868968
:103E4000981778F2C092140380915F03882369F673
:103E500080912103882309F459C18091210388238B
:103E600009F454C189E0A82E80911803882309F031
:103E700035C1809115039091160301969093160316
:103E800080931503C0901503D0901603C114D1047C
:103E900019F520915B0330915C0380915D03909153
:103EA0005E0390935C0380935B0330935E032093E7
:103EB0005D03809117038F5F80931703E0915B038D
:103EC000F0915C038081882309F004C4EFEFFFEFD9
:103ED000F0936102E0936002809160029091610230
:103EE000C816D90608F4DDC3BB24E0915B03F0914A
:103EF0005C038081882309F44CC0E0915B03F0915E
:103F00005C030580F681E02D06811781D8011296A9
:103F10008D919C911397C816D90608F4F5C3B2E0A9
:103F2000EB2EF12CE00EF11EC7010E94DD33F801EB
:103F300084899589892B21F0C8010C960E94DD3374
:103F4000D80156969C91569780911303891720F4B7
:103F50009093130356969C919A9DC00111248B5DFA
:103F60009C4FB7010E948C33E0911003F091110334
:103F7000D80156969C918689981708F4B6CFBB2431
:103F8000B394E0915B03F0915C038081882309F096
:103F9000B4CF4FEF5FEF509361024093600282C352
:103FA000DD24BC81BD0DBC83CC2009F060CE8FE048
:103FB000B89F50011124A40CB51CE0905B03F09055
:103FC0005C03F7018081882309F495C10180F281A7
:103FD000E02D0280F381E02DD7011296FC93EE9341
:103FE000119713E0812E912C8E0C9F1CE815F9057A
:103FF00009F4A3C366807780DD24AFE0CA2E8281F6
:104000009381F701928381838816990609F45EC033
:10401000D7011196ED91FC91129766817781DC9C16
:10402000800111240A0D1B1DF80171836083675EF6
:104030007F4F7383628369517040DB0191968C914D
:104040009197848342E050E05683458356968C9145
:104050005697878393968C919397808794968D91AA
:104060009D910D90BC91A02D81879287A387B487E5
:10407000FB01A789B08D8C91853A09F042C320E0FD
:1040800030E040E050E02F5F3F4F4F4F5F4FFD016A
:10409000E20FF31F8081853AB1F3C901D8011E9662
:1040A0009C938E931D97D3946616770609F424C1CA
:1040B000D7011196ED91FC91129782819381F701BE
:1040C000928381838816990609F0A2CFD4011296B3
:1040D0008D919C911397928381839ACF8091210334
:1040E0008F5F80932103BB2480911403882309F000
:1040F000D4C2BB2009F0D1C28091210381508093AA
:10410000210380912103882309F0AECE809114030E
:10411000813011F40E949B310F900FBEEB81E98337
:10412000C401B30124E630E040E050E00E94C73C07
:1041300059016A01A114B104C104D10409F433CEB8
:104140001A829A818981981708F02DCEEAE28E2E84
:10415000E2E09E2E79E3672E72E0772E60C08A81BE
:104160002A814DB75EB74A5050400FB6F8945EBFF3
:104170000FBE4DBFADB7BEB71196EDB7FEB73282D9
:10418000218213969C928E92129790E0FC01EE0F82
:10419000FF1FE80FF91FCF01880F991F880F991F84
:1041A000E80FF91FE40DF51D8281938115969C930C
:1041B0008E93149730E0F901EE0FFF1FE20FF31F0B
:1041C000CF01880F991F880F991FE80FF91FE40D81
:1041D000F51D8185928517969C938E931697199657
:1041E000FC92EE9218970E9442084DB75EB7465F68
:1041F0005F4F0FB6F8945EBF0FBE4DBFD1010D905B
:104200000020E9F71197A219B3098A818F5F8A8389
:104210009A818981981708F0C6CD2A0E3B1E8A81A3
:1042200090E0FC01EE0FFF1FE80FF91FCF01880F90
:10423000991F880F991FE80FF91FE40DF51D61857F
:10424000728583859485A60195010E94C73C7901FA
:104250008A01E114F1040105110509F080CF8A817A
:104260002A81ADB7BEB718970FB6F894BEBF0FBE80
:10427000ADBF1196EDB7FEB73282218213967C92C4
:104280006E92129790E0FC01EE0FFF1FE80FF91FEE
:10429000CF01880F991F880F991FE80FF91FE40DB0
:1042A000F51D8281938115969C938E93149730E02F
:1042B000F901EE0FFF1FE20FF31FCF01880F991FC7
:1042C000880F991FE80FF91FE40DF51D8185928570
:1042D00017969C938E9316970E9442084DB75EB72F
:1042E000485F5F4F0FB6F8945EBF0FBE4DBF86CFDD
:1042F00080E090E038CDDD24CC80CD0C8FE0C89EEE
:1043000050011124A40CB51CE0905D03F0905E03F5
:10431000F7018081882309F486C00180F281E02DB5
:104320000280F381E02DD7011296FC93EE93119752
:1043300073E0872E912C8E0C9F1CE815F90509F46B
:1043400006C266807780DD2482819381F7019283A3
:1043500081838816990609F45EC0D7011196ED9104
:10436000FC91129766817781BFE0DB9E800111246A
:104370000A0D1B1DF80171836083675E7F4F738395
:10438000628369517040DB0191968C91919784838F
:1043900042E050E05683458356968C91569787832A
:1043A00093968C919397808794968D919D910D9083
:1043B000BC91A02D81879287A387B487FB01A78931
:1043C000B08D8C91853A09F099C120E030E040E051
:1043D00050E02F5F3F4F4F4F5F4FFD01E20FF31F44
:1043E0008081853AB1F3C901D8011E969C938E93C2
:1043F0001D97D39466167706B9F0D7011196ED9103
:10440000FC91129782819381F701928381838816B0
:10441000990609F0A2CFD40112968D919C91139721
:10442000928381839ACFDD24ED2CEC0C8FE0E89E03
:1044300060011124C40CD51C80916803882309F401
:104440007CC0E0916903F0916A030280F381E02D62
:10445000F0936A03E0936903B3E0EB36FB0709F4DA
:1044600080C1E0916903F0916A03A680B780FF24C0
:104470006FE0762E54E0852E912C0280F381E02DA2
:10448000F0936A03E093690343E0EB36F40709F421
:10449000FDC0E0916903F0916A0366817781F79C22
:1044A000800111240C0D1D1DD80111967C936E9373
:1044B000675E7F4F13967C936E931297695170409D
:1044C000FB0181A114968C93149716969C928E9260
:1044D0001597868917968C93179783A118968C93B6
:1044E00084A195A1A6A1B7A1F80181879287A3878E
:1044F000B487FB01A789B08D8C91853A09F0FBC088
:1045000020E030E040E050E02F5F3F4F4F4F5F4FE3
:10451000FD01E20FF31F8081853AB1F3C901D80193
:104520001E969C938E931D97F394A616B70631F0B2
:10453000E0916903F0916A03A0CFFF24EF0C8FE0B4
:10454000E89E60011124C40CD51C8091710388235E
:1045500009F48AC0E0917203F09173030280F38141
:10456000E02DF0937303E0937203B3E0E437FB07AD
:1045700009F4DCC0E0917203F0917303A680B78068
:10458000FF2443E0842E912C32E0632E712C0280B4
:10459000F381E02DF0937303E093720343E0E4377B
:1045A000F40709F46CC0E0917203F0917303668123
:1045B00077815FE0F59E800111240C0D1D1DD8014F
:1045C00011967C936E93675E7F4F13967C936E93E8
:1045D000129769517040FB0181A114968C93149736
:1045E00016969C928E921597868917968C9317979C
:1045F00084899589892B21F016967C926E92159765
:10460000DB0193968C919397F801808794968D9116
:104610009D910D90BC91A02D81879287A387B4872F
:10462000FB01A789B08D8C91853A09F072C020E01A
:1046300030E040E050E02F5F3F4F4F4F5F4FFD01B4
:10464000E20FF31F8081853AB1F3C901D8011E96AC
:104650009C938E931D97F394A616B70631F0E091C4
:104660007203F091730393CFFF24FE0CFB828091C1
:104670008400909185003C01882499249CCB828100
:10468000938190937303809372038DCF8281938182
:1046900090936A0380936903FCCEB1E0B093140356
:1046A0002BCDBB24E0911003F0911103868990E09B
:1046B000FC01EE0FFF1FEE0FFF1FEE0FFF1FE80FB5
:1046C000F91FEB5DFC4F8081823008F40DCDBB24D7
:1046D000B3940ACDE0915B03F0915C030580F68111
:1046E000E02D0680F781E02D828193819093610215
:1046F00080936002F1CB80E090E011CF80E090E009
:1047000073CE80E090E0CACC909361028093600207
:10471000C9CF80E090E09ACF8281938111968C93EB
:10472000119712969C939C01F901CACA82819381C8
:1047300090937303809372031DCF828193811196AE
:104740008C93119712969C939C01F90153CC828112
:10475000938111968C93119712969C939C01F90169
:10476000F0CD8281938190936A038093690379CE1F
:10477000A3E0B0E0EEEBF3E20C94E93C1C01DC01B9
:104780001C92809112038983909112038FE0989F6D
:10479000C00111240E947A325C01009709F4ADC077
:1047A0008981909118039F5F909318039091120351
:1047B000891708F4A6C064E0C62E1B82CA94BB8188
:1047C000EFE0BE9F400111248A0C9B1CF9E0CF9EB4
:1047D0007001112425E233E0E20EF31ED7018C9123
:1047E000882309F482C11196ED91FC911297028001
:1047F000F381E02D1296FC93EE93119753E0652E12
:10480000712C6E0C7F1CE615F70509F4FEC446807A
:104810005780DD2482819381F7019283818368161A
:10482000790609F45FC0D7011196ED91FC911297BA
:1048300066817781BFE0DB9E80011124080D191D80
:10484000F80171836083675E7F4F73836283695170
:104850007040DB0191968C919197848321E030E048
:104860003683258356968C915697878393968C91A1
:104870009397808794968D919D910D90BC91A02DDA
:1048800081879287A387B487FB01A789B08D8C911C
:10489000853A09F0AEC220E030E040E050E02F5F02
:1048A0003F4F4F4F5F4FFD01E20FF31F8081853A6D
:1048B000B1F3C901D8011E969C938E931D97D39492
:1048C0004616570609F412C1D7011196ED91FC91D5
:1048D000129782819381F70192838183681679060A
:1048E00009F0A1CFD30112968D919C9113979283D9
:1048F000818399CFC5010E9407322396E2E10C948F
:10490000053D77240FB6F8940F92809118038150DB
:104910008093180380911803882309F0A2C1809125
:104920001203882309F49DC1A9E0DA2ECC24C39494
:1049300080915F03882399F1E0916403F09165030E
:1049400006811781C8010C960E94DD33B2E0EB2E80
:10495000F12CE00EF11EC7010E94DD33F8019689AB
:1049600080911303891718F49093130396899D9DE2
:10497000C00111248B5D9C4FB7010E948C33E091E4
:104980001003F0911103D80156969C9186899817CF
:1049900078F2C092140380915F03882369F68091B6
:1049A0002103882309F457C180912103882309F446
:1049B00052C1F9E0CF2E44244A94542C66246394C7
:1049C00080911803882309F02EC1809115039091DE
:1049D0001603019690931603809315038090150398
:1049E000909016038114910409F520915B03309196
:1049F0005C0380915D0390915E0390935C038093D0
:104A00005B0330935E0320935D03809117038F5FF8
:104A100080931703E0915B03F0915C03808188230E
:104A200009F0D1C35092610240926002809160020D
:104A3000909161028816990608F4ACC3DD24E091D8
:104A40005B03F0915C038081882309F449C0E09105
:104A50005B03F0915C030580F681E02D06811781F0
:104A6000F801828193818816990608F4C6C3E2E0B2
:104A7000EE2EF12CE00EF11EC7010E94DD33D801AD
:104A800054968D919C915597892B21F0C8010C96D5
:104A90000E94DD33F801968980911303891718F479
:104AA0009093130396899C9DC00111248B5D9C4FAC
:104AB000B7010E948C33E0911003F0911103D801EB
:104AC00056969C918689981708F4B9CFDD24D39423
:104AD000E0915B03F0915C038081882309F0B7CFFC
:104AE000509261024092600256C3DD24BB81BD0D2D
:104AF000BB83CC2009F062CE8FE0B89F4001112427
:104B00008A0C9B1CE0905B03F0905C03F7018081B2
:104B1000882309F471C10180F281E02D0280F381C4
:104B2000E02DD7011296FC93EE93119743E0642E8B
:104B3000712C6E0C7F1CE615F70509F477C34680CF
:104B40005780DD243FE0C32E82819381F701928359
:104B500081836816790609F45EC0D7011196ED913C
:104B6000FC91129766817781DC9C80011124080DED
:104B7000191DF80171836083675E7F4F73836283C1
:104B800069517040DB0191968C919197848322E06A
:104B900030E03683258356968C915697878393967B
:104BA0008C919397808794968D919D910D90BC9157
:104BB000A02D81879287A387B487FB01A789B08D39
:104BC0008C91853A09F016C320E030E040E050E0D7
:104BD0002F5F3F4F4F4F5F4FFD01E20FF31F80816B
:104BE000853AB1F3C901D8011E969C938E931D9707
:104BF000D3944616570609F400C1D7011196ED91DA
:104C0000FC91129782819381F701928381836816C8
:104C1000790609F0A2CFD30112968D919C9113973A
:104C2000928381839ACF809121038F5F80932103A8
:104C3000DD2480911403882309F0A9C2DD2009F046
:104C4000A6C280912103815080932103809121038A
:104C5000882309F0B5CE80911403813011F40E94AD
:104C60009B310F900FBE79821A829A8189819817A1
:104C700008F040CE68E4E62E62E0F62E8FC0019781
:104C800009F4B4C000E010E08A812A814A816A8177
:104C9000EDB7FEB73E970FB6F894FEBF0FBEEDBF5F
:104CA000ADB7BEB71196328221821396FC92EE9276
:104CB000129790E0FC01EE0FFF1FE80FF91FCF01E4
:104CC000880F991F880F991FE80FF91FEA0DFB1D28
:104CD0008281938115969C938E93149717961C93BB
:104CE0000E93169730E0F901EE0FFF1FE20FF31F4E
:104CF000CF01880F991F880F991FE80FF91FEA0D40
:104D0000FB1D878118968C93189719961C921997FA
:104D100050E0FA01EE0FFF1FE40FF51FCF01880FDF
:104D2000991F880F991FE80FF91FEA0DFB1D858554
:104D300096851B969C938E931A9770E0FB01EE0F5D
:104D4000FF1FE60FF71FCF01880F991F880F991FCC
:104D5000E80FF91FEA0DFB1D84811C968C931C97AC
:104D60001D961C920E944208D1010D900020E9F787
:104D70001197A219B3098A818F5F8A839A818981E9
:104D80002DB73EB7225F3F4F0FB6F8943EBF0FBE20
:104D90002DBF981708F0AECD2A0E3B1E8A8190E0F9
:104DA000FC01EE0FFF1FE80FF91FCF01880F991FBD
:104DB000880F991FE80FF91FEA0DFB1D8581968169
:104DC0008230910569F08330910508F458CF833023
:104DD000910549F0049709F055CF04E410E054CF51
:104DE00002E410E051CF03E510E04ECF02E510E001
:104DF0004BCF80E090E05ECDDD24CB80CD0C8FE00A
:104E0000C89E400111248A0C9B1CE0905D03F09029
:104E10005E03F7018081882309F486C00180F28156
:104E2000E02D0280F381E02DD7011296FC93EE93E2
:104E3000119723E0622E712C6E0C7F1CE615F7058E
:104E400009F4FEC146805780DD2482819381F701F9
:104E5000928381836816790609F45EC0D7011196A2
:104E6000ED91FC91129766817781BFE0DB9E800116
:104E70001124080D191DF80171836083675E7F4F4F
:104E80007383628369517040DB0191968C91919795
:104E9000848322E030E03683258356968C915697A2
:104EA000878393968C919397808794968D919D910B
:104EB0000D90BC91A02D81879287A387B487FB01B9
:104EC000A789B08D8C91853A09F091C120E030E03E
:104ED00040E050E02F5F3F4F4F4F5F4FFD01E20F2B
:104EE000F31F8081853AB1F3C901D8011E969C93C6
:104EF0008E931D97D39446165706B9F0D701119695
:104F0000ED91FC91129782819381F70192838183C5
:104F10006816790609F0A2CFD30112968D919C9163
:104F20001397928381839ACFDD24ED2CEC0C8FE0D4
:104F3000E89E60011124CA0CDB1C80916803882361
:104F400009F47CC0E0916903F0916A030280F38167
:104F5000E02DF0936A03E0936903B3E0EB36FB07BF
:104F600009F478C1E0916903F0916A038680978023
:104F7000FF249FE0592E84E0682E712C0280F3817B
:104F8000E02DF0936A03E093690323E0EB36F20728
:104F900009F4F6C0E0916903F0916A0366817781B4
:104FA000F59C800111240C0D1D1DD80111967C93D8
:104FB0006E93675E7F4F13967C936E931297695141
:104FC0007040FB0181A114968C93149716967C92E5
:104FD0006E921597868917968C93179783A11896CA
:104FE0008C9384A195A1A6A1B7A1F801818792878E
:104FF000A387B487FB01A789B08D8C91853A09F00E
:10500000F3C020E030E040E050E02F5F3F4F4F4FD3
:105010005F4FFD01E20FF31F8081853AB1F3C901B3
:10502000D8011E969C938E931D97F394861697062F
:1050300031F0E0916903F0916A03A0CFFF24EF0CF7
:105040008FE0E89E60011124CA0CDB1C8091710383
:10505000882309F48AC0E0917203F09173030280FF
:10506000F381E02DF0937303E0937203B3E0E43730
:10507000FB0709F4D4C0E0917203F09173038680BA
:105080009780FF2403E0602E712C12E0412E512CFA
:105090000280F381E02DF0937303E093720323E029
:1050A000E437F20709F465C0E0917203F0917303ED
:1050B000668177813FE0F39E800111240C0D1D1D58
:1050C000D80111967C936E93675E7F4F13967C9305
:1050D0006E93129769517040FB0181A114968C93D5
:1050E000149716967C926E921597868917968C93D4
:1050F000179784899589892B21F016965C924E9298
:105100001597DB0193968C919397F801808794967D
:105110008D919D910D90BC91A02D81879287A38741
:10512000B487FB01A789B08D8C91853A09F06AC0DC
:1051300020E030E040E050E02F5F3F4F4F4F5F4FA7
:10514000FD01E20FF31F8081853AB1F3C901D80157
:105150001E969C938E931D97F3948616970631F0B6
:10516000E0917203F091730393CFFF247F2C7E0CA8
:10517000C9CB82819381909373038093720394CF00
:105180008281938190936A038093690303CF609235
:10519000140357CDDD24E0911003F09111038689AB
:1051A00090E0FC01EE0FFF1FEE0FFF1FEE0FFF1F41
:1051B000E80FF91FEB5DFC4F8081823008F439CD98
:1051C000DD24D39436CDE0915B03F0915C03058040
:1051D000F681E02D0680F781E02D82819381909306
:1051E00061028093600222CC80E090E019CF80E0E1
:1051F00090E07BCE80E090E0F6CC909361028093CB
:105200006002C9CF80E090E0A2CF828193811196A5
:105210008C93119712969C939C01F901F8CA828194
:105220009381909373038093720325CF828193813E
:1052300011968C93119712969C939C01F9017FCC47
:105240008281938111968C93119712969C939C0165
:10525000F901F8CD8281938190936A038093690369
:1052600081CE0F931F93CF93DF93EC01009789F0CA
:105270008091100390911103C817D90751F00FB610
:10528000F8940F928A859B858157934039F00F904F
:105290000FBEDF91CF911F910F9108958C899D8949
:1052A00023E08F35920799F3892B89F78E010E5FE2
:1052B0001F4FC8010E94DD339E8980911303891717
:1052C00010F49093130389E0989FC00111248B5D23
:1052D0009C4FB8010E948C33E0911003F0911103B0
:1052E0009E898689981798F20E949B31D0CFEF92C1
:1052F000FF920F931F93CF93DF930FB6F8940F9203
:10530000009709F4DDC0EC018E010E5F1F4FC8014C
:105310000E94DD338C899D89892B21F0CE010C966A
:105320000E94DD3381E793E0B8010E948C330F9037
:105330000FBE8091100390911103C817D90761F136
:1053400080912203882391F00FB6F8940F92E09198
:105350005B03F0915C038081882369F48FEF9FEFFA
:1053600090936102809360020F900FBECDB7DEB7BD
:10537000E6E00C94113DE0915B03F0915C03058045
:10538000F681E02D0680F781E02D82819381909354
:10539000610280936002E8CF80912203882309F0A4
:1053A00098C09091120380917103891709F494C0F9
:1053B00080911803882309F088C01092140380910B
:1053C0008400909185007C0100E010E0E0921903D8
:1053D000F0921A0300931B0310931C0380911D038A
:1053E00090911E03A0911F03B09120038E159F057D
:1053F000A007B107B0F4E0911003F0911103A801E8
:105400009701281B390B4A0B5B0B84A195A1A6A120
:10541000B7A1820F931FA41FB51F84A395A3A6A3B2
:10542000B7A3E0921D03F0921E0300931F03109395
:105430002003E0911003F0911103A0911003B091AB
:1054400011032081318157968D919C915897821735
:10545000930730F046C0809113038150809313036B
:105460008091130390E0FC01EE0FFF1FEE0FFF1F72
:10547000EE0FFF1FE80FF91FEB5DFC4F80818823C3
:1054800051F39091130389E0989FD0011124AB5DF3
:10549000BC4F1196ED91FC9112970280F381E02DA3
:1054A0001296FC93EE931197CD010396E817F90736
:1054B00029F186819781909311038093100356CF31
:1054C000C0911003D09111031FCF81E0809314038A
:1054D0004DCF0E949B314ACF1092110310921003BE
:1054E00045CF80911003909111036091100370914A
:1054F0001103675E7F4F0E94D20AB2CF82819381EF
:1055000011968C93119712969C939C01F901D1CF1F
:10551000A0E0B0E0EEE8FAE20C94F03C9C010097C9
:1055200041F40E949B31CDB7DEB7EBE00C940C3D0B
:1055300077C1809118038F5F80931803C091150382
:10554000D0911603C20FD31F8091100390911103C5
:1055500002960E94DD33E0911003F0911103D38392
:10556000C2838091150390911603C817D90708F4D8
:105570005BC080915B0390915C036091100370911C
:1055800011036E5F7F4F0E94AB3380916002909158
:105590006102C817D90720F4D0936102C09360025A
:1055A0000FB6F8940F9280911803815080931803DE
:1055B00080911803882309F04DC08091120388233D
:1055C00009F448C099E0F92EEE24E39480915F033A
:1055D0008823B9F1E0916403F0916503C681D78116
:1055E000CE010C960E94DD338E010E5F1F4FC80165
:1055F0000E94DD339E8980911303891710F49093E4
:1056000013039F9DC00111248B5D9C4FB8010E9424
:105610008C33E0911003F09111039E8986899817CD
:10562000A8F2E0921403D2CF80915D0390915E03C3
:1056300060911003709111036E5F7F4F0E94AB3336
:10564000AFCF80912103882389F4809114038130A6
:1056500009F495C080E00F900FBE882309F461CF54
:10566000CDB7DEB7EBE00C940C3DDAC0809121039E
:10567000882359F389E0C82EAA24AA94BA2C992425
:10568000939480911803882309F07DC080911503BD
:105690009091160301969093160380931503E09062
:1056A0001503F0901603E114F10409F520915B0352
:1056B00030915C0380915D0390915E0390935C0355
:1056C00080935B0330935E0320935D038091170307
:1056D0008F5F80931703E0915B03F0915C038081FF
:1056E000882309F087C0B0926102A0926002809185
:1056F000600290916102E816F90608F45EC0DD24AC
:10570000E0915B03F0915C038081882309F46DC014
:10571000E0915B03F0915C030580F681E02DC6818A
:10572000D7818A819B81E816F90608F474C08E013E
:105730000E5F1F4FC8010E94DD338C899D89892B24
:1057400021F0CE010C960E94DD339E8980911303D7
:10575000891710F4909313039C9DC00111248B5D55
:105760009C4FB8010E948C33E0911003F09111031B
:105770009E898689981720F2DD24D394C1CF0E9498
:105780009B3181E068CF809121038F5F809321035B
:10579000DD2480911403882369F4DD2059F480917D
:1057A000210381508093210380912103882309F0F4
:1057B00068CF4BCF90921403F2CFDD24E091100319
:1057C000F0911103868990E0FC01EE0FFF1FEE0FB0
:1057D000FF1FEE0FFF1FE80FF91FEB5DFC4F8081ED
:1057E0008230B8F2DD24D394D4CFB0926102A0927B
:1057F0006002E4CFE0915B03F0915C030580F681E9
:10580000E02D0680F781E02D8281938190936102E3
:10581000809360026CCF9093610280936002CECF40
:10582000A0E0B0E0E6E1FCE20C94F03CFC01EB010E
:10583000809118038F5F8093180320911503309196
:10584000160380819181C80FD91F2817390708F0E6
:1058500016C1C817D90708F024C12C173D0708F056
:1058600020C1D183C08380911003909111030296CF
:105870000E94DD33E0911003F0911103D383C283C2
:105880008091150390911603C817D90708F4FCC03E
:1058900080915B0390915C03609110037091110300
:1058A0006E5F7F4F0E94AB338091600290916102E6
:1058B000C817D90720F4D0936102C09360020FB6D5
:1058C000F8940F928091180381508093180380916F
:1058D0001803882309F003C180911203882309F477
:1058E000FEC049E0F42EEE24E39480915F03882308
:1058F00069F1E0916403F0916503C681D781CE011F
:105900000C960E94DD338E010E5F1F4FC8010E946E
:10591000DD339E8980911303891710F4909313034C
:105920009F9DC00111248B5D9C4FB8010E948C3358
:10593000E0911003F09111039E8986899817A8F2CF
:10594000E092140380915F03882399F680912103EC
:10595000882309F4BFC080912103882309F4BAC0C9
:1059600039E0C32EAA24AA94BA2C99249394809146
:105970001803882309F098C08091150390911603AD
:1059800001969093160380931503E0901503F09011
:105990001603E114F10409F520915B0330915C03D7
:1059A00080915D0390915E0390935C0380935B0311
:1059B00030935E0320935D03809117038F5F809384
:1059C0001703E0915B03F0915C038081882309F069
:1059D000ADC0B0926102A09260028091600290918D
:1059E0006102E816F90608F489C0DD24E0915B0342
:1059F000F0915C0380818823E9F1E0915B03F091F1
:105A00005C030580F681E02DC681D7818A819B8168
:105A1000E816F90608F49BC08E010E5F1F4FC801FF
:105A20000E94DD338C899D89892B21F0CE010C9653
:105A30000E94DD339E8980911303891710F490939F
:105A400013039C9DC00111248B5D9C4FB8010E94E3
:105A50008C33E0911003F09111039E898689981789
:105A600028F2DD24D394E0915B03F0915C03808104
:105A7000882319F6B0926102A092600240C0C81754
:105A8000D90708F4EECEE9CE80915D0390915E03D4
:105A900060911003709111036E5F7F4F0E94AB33D2
:105AA0000ECFD183C0830BCF809121038F5F809372
:105AB0002103DD24809114038823E9F4DD20D9F447
:105AC00080912103815080932103809121038823B9
:105AD00009F04DCF80911403813009F43DC080E07E
